:020000040000FA
:1000000000800010CD000000F1D70300F1D70300FD
:10001000F1D70300F1D70300F1D70300F1D70300B4
:10002000F1D70300F1D70300F1D7030085020000E8
:10003000F1D7030000000000ED02000051B50300FD
:10004000F1D7030013AD0300E9AC0300D7AC030004
:10005000C5AC030021880300F1890300D1840300AB
:10006000258C0300F1D70300298F0300F1D703008B
:10007000F1D70300F1D70300F1D70300F1D7030054
:10008000F1D70300F1D70300F1D70300F1D7030044
:10009000B7A60300F1D70300F1D70300F1D703009F
:1000A000F1D70300F1D70300F1D70300F1D7030024
:1000B000F1D70300F1D70300F1D70300F1D7030014
:1000C000F1D70300F1D70300F1D7030000F002F8E5
:1000D00000F0C8F80AA090E8000C82448344AAF11A
:1000E0000107DA4501D100F0BDF8AFF2090EBAE818
:1000F0000F0013F0010F18BFFB1A43F0010318475C
:1001000070640500B064050010F8013B0A4413F068
:10011000030408BF10F8014B1D1108BF10F8015B64
:10012000641E05D010F8016B641E01F8016BF9D153
:10013000002D15D010F8014B03F00C030C2BA1EB94
:1001400004040ABF10F8013BA4EB8314A4EB0324BE
:1001500005F1010314F8016B5B1E01F8016BF9D581
:10016000914238BF10F8013BD1D37047103A24BFF9
:1001700078C878C1FAD8520724BF30C830C144BF0C
:1001800004680C607047000000230024002500264E
:10019000103A28BF78C1FBD8520728BF30C148BFEA
:1001A0000B6070476E2901F00FA7702901F0F6A2CD
:1001B000662903F086A0652903F083A0672903F070
:1001C00080A06129AFF3008003681B0A28BF41F0BB
:1001D0008001692901F066A2642901F063A27529F2
:1001E00001F060A26F2902F001A0782901F0C2A2FB
:1001F000E92901F099A7E42901F096A7F52901F072
:1002000093A7EF2901F0FEA7F82901F0C1A2036826
:10021000DB0928BF41F08001632901F01AA7732987
:1002200001F01FA7E32902F072A2F32902F077A2DE
:10023000002070471FB543F03DF89DE8030041F0F2
:1002400021FE42F0EBFA04000020002143F018F8F0
:10025000401C60600020002142F0FCFFE0601FBDF8
:1002600010B510BD42F0ACFA1146FFF7E3FF00F005
:100270002AF942F08DFB03B4FFF7F2FF03BC3DF017
:10028000F8FE0000052828BF70474FEA8000784438
:10029000D0F802F0ED020000B302000051030000AC
:1002A00071030000910300004FF0010080F31488F7
:1002B00000DF0A4C4FF001052570774641F0FEF84B
:1002C000BE46074E3668074C2660D6F800D001BC03
:1002D00005490860BDE8F00F704700BFA307001094
:1002E000B4070010AC070010780700104FF00802A8
:1002F00082F3118800B541F0E1F85DF804EB2DE9D7
:10030000F00F0E49086801B40D4A1268C2F800D017
:100310000C4C0D4D2E7826700C4E3668084C26601D
:10032000D6F800D001BC086000280CBF00220822CB
:1003300082F31188BDE8F00F704700BF7807001006
:10034000AC0700109807001099070010B4070010C0
:100350000649086800F101004FF0080282F3118895
:10036000002808BF70470860704700BF780700107A
:100370000649086800281CBF01380860002818BF1B
:1003800070474FF0000282F3118870477807001021
:100390004FF0000080F3148870474FF0010080F3A5
:1003A0001488704788476FF0FF003CF06AFC00003B
:1003B0001CB5534890F82B200121182039F0F4FF88
:1003C00010230222CDE900234EA30E21282039F06C
:1003D000C4FE1CBD08B500BF3AF0A7F938F06EFAAC
:1003E00038F011F938F06CFC3AF00EFE39F059F89B
:1003F000484900203AF07CFD38F024FD3AF082FEB6
:100400003AF093F900200EF0CEFD00200EF09EFB96
:10041000FFF7CEFF38F03AFB0DF052FB06233E4AC1
:1004200000213E483CF08CFB02203CF023FA40F0D7
:1004300038FF16F0B7FF02203CF01CFA16F098FDCA
:1004400002203CF017FA1EF07AFF1FF01FF802207E
:100450003CF010FA1CF031FE6A460021304800687A
:100460003CF05CFE0FF074FB17F0CFFF84212D48A9
:1004700041F0C8FB02203CF0FDF909232A4A002183
:100480002A483CF05DFB02203CF0F4F91AF0BEFD76
:1004900002203CF0EFF90823254A002125483CF0D2
:1004A0004FFB02203CF0E6F91AF03BF8C8203CF084
:1004B000E1F907E0002003F032FD02E032203CF0D9
:1004C000D9F9FBE7F6E700B585B03DF096F93DF0C8
:1004D00053F93BF090F90123002219021648CDE9A7
:1004E0000323CDE901010723144A0021AFF21B10B9
:1004F00000933CF06DFB3BF041FA002005B000BDDD
:10050000F007001076657273696F6E25642E2530D2
:100510003264000080A90300E83300105D4E020041
:100520007C0000105C0B0010E8470010F165030030
:10053000E84300109DA30200EC0B0010E82B001014
:10054000F8B505460E4614461F460A21002039F02C
:10055000E1FE022301220B21002039F0A9FEFF4811
:100560000095837800220B21282039F04AFDFB48B2
:100570008078012807D0F9480096837800220D2161
:10058000282039F03EFD204641F02AFAC8B1022366
:1005900001220B21702039F08BFEF0480094837803
:1005A00000220B21982039F02CFDEC48807801289E
:1005B00007D0EA480097837800220D21982039F06F
:1005C00020FDF8BD10B501220A21002039F04EFCB3
:1005D00003220B21002039F049FC10BD30B58BB04F
:1005E000202103A841F00EFBDD4838F04AFC022030
:1005F0003CF040F9DB480078F0B3D94838F041FCD2
:1006000002203CF037F9022304220121002039F0B6
:100610004FFED548D0F8AC1003A841F0BDF903ABAC
:1006200002220121282039F098FDCF48D0F8B410DB
:1006300003A841F0B1F903AB01220321282039F0CE
:100640008CFDC6488078C0EBC00202EB0010C64AA1
:1006500002EB8000816D03A841F09EF903ABBF4817
:100660000093837800220521282039F0CAFCBB487A
:1006700090F8BC00012800E074E019D1BB488089E3
:100680000A2190FBF1F201FB1204B848808990FB2B
:10069000F1F523462A46B6A103A840F07FFF03AB3D
:1006A000AE480093837800220721282039F0A9FC66
:1006B0000A21002039F02EFEAF48C088A849C98819
:1006C00088420BD1AC484079A5494979884205D187
:1006D000A948C078A249C978884222D0A048C288D7
:1006E000A6A103A840F05AFF03AB02220B21282049
:1006F00039F033FD9A48C3784279A2A103A840F0AB
:100700004DFF03AB02220D21282039F026FD94482D
:10071000C0889949C8809248407948719048C0780B
:10072000C870954880788E498978884205D192486A
:1007300040788B494978884213D089484378827839
:1007400093A103A840F02AFF03AB03220B216020F2
:1007500039F003FD82488078874988708048407866
:10076000487078E07D48807800EB80008B4A02EB8F
:10077000C000816903A841F00FF903AB77480093EB
:10078000837800220221482039F03BFC734890F81E
:10079000BC00012819D1754880890A2190FBF1F22B
:1007A00001FB12047148808990FBF1F523462A462B
:1007B0006FA103A840F0F2FE03AB68480093837872
:1007C00000220521AA2039F01CFC6B48C08864492E
:1007D000C98888420BD16848407961494979884283
:1007E00005D16548C0785E49C978884215D05C4813
:1007F000C3784279C1888DE80E0069A302220621E0
:10080000502039F0AAFC5648C0885B49C88054483B
:10081000407948715248C078C8705748807850492C
:100820008978884205D1544840784D4949788842B2
:1008300011D04B4843788278CDE9002354A3042299
:1008400008213C2039F089FC454880784A49887065
:100850004348407848700BB030BD30B589B0202196
:1008600001A841F0CFF93E4838F00BFB02203CF0E4
:1008700001F8022303220121002039F019FD374835
:100880008078C0EBC00202EB0010374A02EB800018
:10089000C16C01A841F080F801AB30480093837827
:1008A00000220121282039F0ACFB2C488078C0EBD5
:1008B000C00202EB00102C4A52F8201001A841F0AF
:1008C0006BF801AB25480093837800220321282090
:1008D00039F097FB214890F8BC00012819D1234832
:1008E00080890A2190FBF1F201FB12041F488089E4
:1008F00090FBF1F523462A461DA101A840F04EFECB
:1009000001AB16480093837800220521282039F096
:1009100078FB0A21002039F0FDFC1748C0881049F7
:10092000C98888420BD1144840790D4949798842D9
:1009300005D11148C0780A49C97888424ED0084884
:10094000C2880EA101A840F029FE01AB02220B21B2
:10095000282039F002FC0248C37829E0F007001093
:10096000000000101C000010100200103052001097
:1009700025642E2564209200080000102530346480
:1009800000000000253032642D2530326400000064
:10099000253032643A253032640000002001001016
:1009A000253034642D253032642D2530326400002A
:1009B0004279AFF2300101A840F0F0FD01AB022214
:1009C0000D21282039F0C9FBFF48C088FF49C880A5
:1009D000FD4840794871FC48C078C870FB48807871
:1009E000F9498978884205D1F8484078F64949782C
:1009F000884214D0F44843788278AFF26C0101A8A1
:100A000040F0CCFD01AB03220B21602039F0A5FBA7
:100A1000ED488078ED498870EB484078487009B01F
:100A200030BD10B50246012904D0E94B93F8993046
:100A3000012B2CD11378412B0BD15378303B03EB96
:100A40008303642404EB43049378303B234498B23B
:100A500028E01378422B0BD15378303B03EB830310
:100A6000C82404EB43049378303B234498B219E044
:100A70001378303B642463435478303C04EB8404A3
:100A800003EB44049378303B234498B20AE0137894
:100A9000303B03EB8303642404EB43045378303B83
:100AA000234498B210BD30B502460B78303B4FF46A
:100AB0007A7463434C78303C04EBC40505EB0414B2
:100AC00003EB84041378303B03EB830304EB430410
:100AD0005378303B234498B230BD0EB538F0CCFC8F
:100AE000B948C3784279C1888DE80E00AFF250133F
:100AF00002221146502039F030FBB3484378827807
:100B0000CDE90023AFF27813042211463C2039F0DE
:100B100024FB0EBD10B50020AE490870AE49087028
:100B2000AE4800210180AE48018081700020AD49AF
:100B30008870AD4800683BF05DFC10BDAB480068B4
:100B4000AB4909680844AB4909680844AA490968DF
:100B5000084470472DE9F04F95B00646884620219D
:100B60000DA841F04FF8202105A841F04BF84FF0B7
:100B700000090020049000240025002798F80000B8
:100B800002281DD13078432802D03078452817D16B
:100B90000020904908709248002101808170FFF781
:100BA000CDFF18B103209549087006E0FFF7B2FFAA
:100BB000FFF708FD00209149087015B0BDE8F08FDF
:100BC00098F8000002286FD13178824802780078C6
:100BD000401C804B1870824881547D48807800EB1F
:100BE0008000874A52F830100DA840F0D5FE7848B2
:100BF00090F83100012813D1794800782E2803D1CC
:100C000041207749087006E075480078442802D1F1
:100C100042207349087072490DA840F046FF03E076
:100C20006F490DA840F041FF7548816A05A840F062
:100C3000B3FE6B4905A840F038FFAFF2BC23AFF21A
:100C4000C02205A90DA8FFF77BFC614890F8310090
:100C5000012804D05E4890F89900012877D15D48BA
:100C6000007803281FDB5A4890F83100E8B95C4847
:100C700000782E2813D05A48007844280FD05848BE
:100C800040782E280BD056484078442807D0544846
:100C900080782E2803D052488078442805D14FF020
:100CA00005090120049057E263E14D4840782E2861
:100CB0000BD04B484078442807D0494880782E28EC
:100CC00003D047488078442804D14FF0050901201B
:100CD000049041E23E4890F831104148FFF7A1FEF0
:100CE0000446642094FBF0F000F0FF0A642094FBBB
:100CF000F0F100FB114000F0FF0B514658461CF08C
:100D0000D4FA00F0FF09324890F82F00022827D1CA
:100D1000642094FBF0F000F0FF0A642094FBF0F1F3
:100D200000FB114000F0FF0B52465946012019F01C
:100D3000FFF80020274908702948002101808170B0
:100D4000FFF7FCFE20B103202C49087007E064E0A7
:100D5000FFF7E0FEFFF736FC0020284908702CE77B
:100D60001B4890F82F00042854D1642094FBF0F124
:100D700000FB114000F0FF0A642094FBF0F000F04B
:100D8000FF0B514658461DF075F807466FB16420B9
:100D900094FBF0F000F0FF0A394650461DF0FAF9D6
:100DA000012802D0384619F091FB0020094908704B
:100DB0000B48002101808170FFF7C0FE18B10320AD
:100DC0000E49087025E01DE000000010080000102A
:100DD000F0070010190000101A0000101700001092
:100DE00014000010780A0010940000102000001079
:100DF00024000010280000102C0000101B00001020
:100E000020010010FFF786FEFFF7DCFB0020FF4902
:100E10000870D2E6012004909EE1FD480078022887
:100E200013DBFC4800782E280BD0FA4800784428C1
:100E300007D0F84840782E2803D0F6484078442858
:100E400004D14FF005090120049085E1F24890F8A3
:100E50003110F048FFF7E5FD0446642094FBF0F004
:100E600000F0FF0A642094FBF0F100FB114000F059
:100E7000FF0B514658461CF018FA00F0FF092146B6
:100E8000E6A017F08FFCE44890F82F00022826D146
:100E9000642094FBF0F000F0FF0A642094FBF0F172
:100EA00000FB114000F0FF0B52465946012019F09B
:100EB0003FF80020D6490870D64800210180817093
:100EC000FFF73CFE18B10320D049087006E0FFF799
:100ED00021FEFFF777FB0020CC4908706DE6CE4875
:100EE00090F82F00042841D1642094FBF0F100FB1E
:100EF000114000F0FF0A642094FBF0F000F0FF0BBB
:100F0000514658461CF0B6FF0746CFB1642094FB0B
:100F1000F0F000F0FF0A394650461DF03BF9012879
:100F20000ED0642094FBF0F000F0FF0A0322394653
:100F300050461DF065F8032802D0384619F0C6FA6D
:100F40000020B3490870B348002101808170FFF789
:100F5000F5FD18B10320AD49087006E0FFF7DAFD92
:100F6000FFF730FB0020A949087026E60120049015
:100F7000F2E098F8000001280AD1327801210846F1
:100F80001CF0BBF8044624B94FF00209012004907C
:100F9000E2E09F480078002804DD4FF005090120B9
:100FA0000490D9E09C4890F83100012823D14121D8
:100FB000974802780078401C954B187095488154EA
:100FC0000A2094FBF0F03030C2B218460178007865
:100FD000401C18708F4842540A2094FBF0F100FB2B
:100FE00011403030C1B2184602780078401C1870A9
:100FF000884881541AE00A2094FBF0F03030C1B2E6
:10100000834802780078401C814B187081488154D5
:101010000A2094FBF0F100FB11403030C1B21846B9
:1010200002780078401C18707A4881547A48807899
:1010300000EB80007F4A52F830100DA840F0ACFC65
:1010400074490DA840F031FD7A48816A05A840F046
:10105000A3FC704905A840F028FDAFF2DC63AFF2B5
:10106000E06205A90DA8FFF76BFA6B4890F8311004
:101070006848FFF7D6FC0446642094FBF0F000F0CB
:10108000FF0A642094FBF0F100FB114000F0FF0B1D
:10109000514658461CF009F900F0FF095E4890F8E7
:1010A0002F00022826D1642094FBF0F000F0FF0A04
:1010B000642094FBF0F100FB114000F0FF0B52465E
:1010C0005946012018F034FF00205149087051485A
:1010D000002101808170FFF731FD18B103204B49D9
:1010E000087006E0FFF716FDFFF76CFA002047498D
:1010F000087062E5484890F82F0004282AD164203F
:1011000094FBF0F100FB114000F0FF0A642094FB17
:10111000F0F000F0FF0B514658461CF0ABFE0746BE
:1011200017B1384619F0D2F900203949087039480A
:10113000002101808170FFF701FD18B103203349C0
:10114000087006E0FFF7E6FCFFF73CFA00202F49A5
:10115000087032E501200490049878B3B9F1060FC5
:1011600034D2DFE809F0AA7B0334047A00BF2A48AE
:10117000807800EB80002F4A02EBC00041690DA887
:1011800040F00AFC2B48C16B05A840F005FCAFF607
:101190001003AFF6140205A90DA8FFF7D1F94FF41B
:1011A000C8703BF067FBFFF7C9FC40B1194800214C
:1011B0000180817003201549087007E04CE1FFF7BA
:1011C000A9FCFFF7FFF900201049087040E1124820
:1011D000807800EB8000174A02EBC00001690DA87F
:1011E00040F0DAFB1348816B05A840F0D5FBAFF661
:1011F0007003AFF6740205A90DA8FFF7A1F94FF42B
:10120000C8703BF037FBFFF799FC15E01B0000109E
:101210001900001014000010F00700100D0A204102
:10122000505055626F7842746E636C6F756D6E3D91
:10123000256400002001001038B1FF480021018022
:1012400081700320FD49087006E0FFF763FCFFF79B
:10125000B9F90020F9490870FAE000BFF848807831
:1012600000EB8000F74A02EBC00041680DA840F097
:1012700093FBF448C16A05A840F08EFBAFF600135B
:10128000AFF6041205A90DA8FFF75AF94FF4C8707C
:101290003BF0F0FAFFF752FC38B1E748002101803B
:1012A00081700320E549087006E0FFF733FCFFF783
:1012B00089F90020E1490870CAE0642094FBF0F04D
:1012C00000F0FF0A642094FBF0F100FB114000F0F5
:1012D000FF0B5246012158461BF0EFFFDA49086028
:1012E00008460568D64890F82700A8B3012834D0EE
:1012F000022830D16420B5FBF0F100FB115AB5FB98
:10130000F0FBCF48807800EB8000CE4901EBC000B5
:10131000C168CB48CDE901BA0091807800EB80002C
:10132000C84901EBC000C44BC8A1C2690DA840F078
:1013300035F96420B5FBF0F100FB115AB5FBF0FB69
:10134000C048416BCDE901BA0091BB4BBFA1426CD3
:1013500005A840F023F95BE033E00A20B5FBF0F587
:10136000B5FBF0F100FB115AB5FBF0FBB4488078F7
:1013700000EB8000B34901EBC000C168B048CDE983
:1013800001BA0091807800EB8000AE4901EBC0000B
:10139000A94BB3A1C2690DA840F000F90A20B5FB22
:1013A000F0F100FB115AB5FBF0FBA648416BCDE90B
:1013B00001BA0091A04BAAA1426C05A840F0EEF83A
:1013C00026E06420B5FBF0FA9D48807800EB8000B1
:1013D0009C4901EBC000C2689948CDE9002A807899
:1013E00000EB800001EBC000934BA1A1C2690DA8E6
:1013F00040F0D4F86420B5FBF0FA9248426BCDE996
:10140000002A8D4B9AA1426C05A840F0C7F800BF96
:1014100000BFAFF69423AFF6982205A90DA8FFF7F9
:101420008FF8C8203BF026FAFFF788FB28B19348D5
:10143000048005208149087009E0C8203BF01AFAB1
:10144000FFF768FBFFF7BEF800207C49087000BF7B
:1014500000BF00208A49087000BF80E42DE9F04FEA
:1014600093B0064620210BA840F0CCFB202103A816
:1014700040F0C8FB0027B846B94600240025307864
:1014800043281BD100207E4908707E4908706A48B5
:101490000021018081707C480180FFF74FFB18B16B
:1014A00003206649087006E0FFF734FBFFF78AF86F
:1014B00000206249087013B0BDE8F08F71480078D1
:1014C000F0BB3078452829D032786D480178007813
:1014D000401C6B4B18706C4842545948807800EBA4
:1014E00080006A4A02EB0010816C0BA840F054FAAD
:1014F00065490BA840F0D9FA6448D0F8981003A8C1
:1015000040F04AFA604903A840F0CFFAAFF69033B2
:10151000AFF6943203A90BA8FFF712F858480078E9
:10152000022857DB58480078302839DB56480078C5
:10153000392835DC54484078302831DB524800E007
:10154000CBE0407839282BDC01204E490870002080
:101550004B49087038480021018081704A490BA826
:1015600040F01AFA3648807800EB8000474A02EBD8
:101570000010C16C0BA840F098FA434903A840F052
:101580000BFA4248D0F89C1003A840F08EFAAFF650
:101590001043AFF6144203A90BA8FEF7D1FFD4E124
:1015A000002037490870374908702348002101801E
:1015B000817035480180FFF7C1FA18B103201F4937
:1015C000087006E0FFF7A6FAFEF7FCFF00201B49B3
:1015D000087070E73078452864D12B4800783028AF
:1015E00061DB2948007839285DDC274800782649E6
:1015F00048703020087001202249087000202049DE
:1016000008700D480021018081700D48807800EB42
:1016100080001E4901EB00101B4A1DA1C36C0BA8E2
:101620003FF0BCFF1948184A19A1D0F89C3003A814
:101630003FF0B4FF17A32FE0140000101B000010B0
:10164000F007001020010010340000102573202541
:10165000732C2573253032642E253032640000004F
:1016600025732025732C257325642E256400000026
:1016700025732025732C257325640000300000108D
:10168000190000101A000010170000103804001094
:101690002573257300000000AFF2080203A90BA810
:1016A000FEF74EFF51E10020FB490870FB4908702E
:1016B000FB48002101808170FA480180FFF73EFA63
:1016C00018B10320F849087006E0FFF723FAFEF787
:1016D00079FF0020F4490870EDE6F0480078012811
:1016E0007ED13078452835D03178EB4802780078C3
:1016F000401CE94B1870EA488154EA484078303879
:10170000E8490978303901EB810100EB410000F034
:10171000FF09E34BE5480093807800EB8000E44943
:1017200001EB00104A46E3A1C36C0BA83FF036FF63
:10173000DB4BDF4800934A46DEA1D0F89C3003A87B
:101740003FF02CFFAFF2B403AFF2B80203A90BA82D
:10175000FEF7F6FED0480078022875DBD048007806
:10176000302856DBCE480078392852DCCC48407807
:1017700030284EDBCA48407839284ADCC949C84875
:10178000FFF791F90446642094FBF0F000F0FF0AA3
:10179000642094FBF0F100FB114000F0FF0B514678
:1017A00058461BF082FDC7B2C04890F82F000228AF
:1017B0002CD1642094FBF0F000F0FF0A642094FB2D
:1017C000F0F100FB114000F0FF0B5246594601209A
:1017D00018F0AEFB0020B0490870B049087000E076
:1017E0008BE0AF48002101808170AE480180FFF797
:1017F000A5F918B10320AC49087006E0FFF78AF993
:10180000FEF7E0FE0020A849087054E64FF00108FA
:101810009BE00020A0490870A0490870A048002162
:10182000018081709F480180FFF788F918B103207B
:101830009D49087006E0FFF76DF9FEF7C3FE002032
:101840009949087037E6FFE7307845287DD19448FC
:101850000078302852DB9248007839284EDC9048D6
:1018600000788F494870302008708E498C48FFF707
:101870001AF90446642094FBF0F000F0FF0A64209B
:1018800094FBF0F100FB114000F0FF0B514658466D
:101890001BF00BFDC7B2854890F82F0002282AD113
:1018A000642094FBF0F000F0FF0A642094FBF0F158
:1018B00000FB114000F0FF0B52465946012018F082
:1018C00037FB00207449087074490870744800217F
:1018D0000180817073480180FFF730F918B103204F
:1018E0007149087006E0FFF715F9FEF76BFE00205E
:1018F0006D490870DFE54FF0010826E000206649D9
:10190000087067480021018081706848807800EB8A
:101910008000674901EB0010624AAFF28C21C36C72
:101920000BA83FF03BFE62485E4AAFF29C21D0F824
:101930009C3003A83FF032FEAFF2A823AFF2AC22F6
:1019400003A90BA8FEF7FCFDB5E5B8F1000F73D0B5
:10195000062F3AD2DFE807F0BC72033A047100BFE9
:101960005248807800EB8000544A02EBC000416985
:101970000BA840F011F85148C16B03A840F00CF8D7
:10198000AFF2F023AFF2F42203A90BA8FEF7D8FDC3
:101990004FF4C8703AF06EFFFFF7D0F870B1002036
:1019A0003D4908703D4908703E48002101803C488F
:1019B0000180817003203C49087006E0FFF7AAF817
:1019C000FEF700FE00203849087052E13748807861
:1019D00000EB8000394A02EBC00001690BA83FF020
:1019E000DBFF3648816B03A83FF0D6FFAFF25C33D4
:1019F000AFF2603203A90BA8FEF7A2FD4FF4C87046
:101A00003AF038FFFFF79AF870B1002022490870C9
:101A100022490870234800210180214801808170FB
:101A200003202149087006E0FFF774F8FEF7CAFDAD
:101A300000201D4908701CE121E100BF1B4880788F
:101A400000EB80001D4A02EBC00041680BA83FF08C
:101A5000A3FF1A48C16A03A83FF09EFFAFF2CC3340
:101A6000AFF2D03203A90BA8FEF76AFD4FF4C8709D
:101A70003AF000FFFFF762F810B300200649087043
:101A800006490870074800210180054801808170DF
:101A90000320054908701AE0190000101A00001010
:101AA00014000010170000101B000010F0070010B9
:101AB00038040010256425732573000020010010F0
:101AC000FFF728F8FEF77EFD0020FD490870D0E002
:101AD000642094FBF0F000F0FF0A642094FBF0F126
:101AE00000FB114000F0FF0B5246012158461BF04D
:101AF000E4FBF449086008460568F34890F82700BD
:101B0000B8B3012836D0022832D16420B5FBF0F1F9
:101B100000FB115AB5FBF0FBEB48807800EB80002E
:101B2000EA4901EBC000C168E748CDE901BA00917C
:101B3000807800EB8000E54901EBC000E44BAFF298
:101B4000F441C2690BA83FF029FD6420B5FBF0F118
:101B500000FB115AB5FBF0FBDC48416BCDE901BA43
:101B60000091DB4BAFF21C51426C03A83FF016FD15
:101B70005FE035E00A20B5FBF0F5B5FBF0F100FBC6
:101B8000115AB5FBF0FBD048807800EB8000CF49BC
:101B900001EBC000C168CC48CDE901BA0091807862
:101BA00000EB8000C94901EBC000C94BAFF25051B6
:101BB000C2690BA83FF0F2FC0A20B5FBF0F100FB74
:101BC000115AB5FBF0FBC148416BCDE901BA009158
:101BD000BF4BAFF27451426C03A83FF0DFFC28E02A
:101BE0006420B5FBF0FAB848807800EB8000B74974
:101BF00001EBC000C268B448CDE9002A807800EB50
:101C0000800001EBC000B24BAFF29C51C2690BA83F
:101C10003FF0C4FC6420B5FBF0FAAC48426BCDE960
:101C2000002AAB4BAFF2B851426C03A83FF0B6FCB0
:101C300000BF00BFAFF2A453AFF2A85203A90BA894
:101C4000FEF77EFCC8203AF015FEFEF777FF28B1BC
:101C5000A048048005209A49087009E0C8203AF09D
:101C600009FEFEF757FFFEF7ADFC0020944908700F
:101C700000BF00BF0020984908709849087000BF55
:101C800019E42DE9F041A4B006460D4620211CA818
:101C90003FF0B8FF202114A83FF0B4FF20210CA88A
:101CA0003FF0B0FF202104A83FF0ACFF02203AF043
:101CB000E1FDFEF743FF0446EEBB83488078012830
:101CC00014D08748036D8048807800EB80008449F9
:101CD00001EB001083A102687B488DE80E00837839
:101CE000002202214C2038F08CF90CE07C48AFF245
:101CF0003822036D7448CDE9002383780022022145
:101D0000602038F07EF904221146002038F0AEF849
:101D10006D48807828B90223002205212C2038F054
:101D2000C7FA694890F8270048B3012814D0022860
:101D300031D1642000E05CE0B4FBF0F100FB11471E
:101D4000B4FBF0F8AFF2F463042211464C20CDE965
:101D5000008738F002FA1EE00A20B4FBF0F4B4FB6E
:101D6000F0F100FB1147B4FBF0F8AFF2047304226A
:101D700011464C20CDE9008738F0EFF90BE06420E4
:101D8000B4FBF0F7AFF21073042211464C20009719
:101D900038F0E3F900BF00BF012D11D14A48807827
:101DA00000EB80004E4A02EB0010816C1CA83FF053
:101DB000F3FD4B48D0F8981014A83FF0EDFD0FE06C
:101DC0004148807800EB8000454A02EB0010016931
:101DD0001CA83FF0E1FD4248016E14A83FF0DCFD75
:101DE000AFF25073AFF2547214A91CA8FEF7A8FB0F
:101DF000C3E035488078012814D03948436D324813
:101E0000807800EB8000364901EB001035A1426874
:101E10002D488DE80E008378002202214C2038F0F6
:101E2000F0F812E02848807800EB80002C4901EBA4
:101E30000010AFF27C3243682348CDE90023837859
:101E400000220221602038F0DCF804221146002034
:101E500038F00CF81C48807828B9022300220521AC
:101E60002C2038F025FA184890F8270038B30128BC
:101E700012D0022846D16420B4FBF0F100FB1147D8
:101E8000B4FBF0F8AFF63403042211464C20CDE940
:101E9000008738F062F935E00A20B4FBF0F4B4FBB7
:101EA000F0F100FB1147B4FBF0F8AFF64403042255
:101EB00011464C20CDE9008738F04FF922E015E0BB
:101EC0001B00001034000010F0070010200100106B
:101ED0001400001030000010190000101A0000104B
:101EE0003804001025732F25730000006420B4FB14
:101EF000F0F7AFF67C03042211464C20009738F02F
:101F00002CF900BF00BF012D11D1FF48807800EBF4
:101F10008000FE4A02EB0010816C1CA83FF03CFDE3
:101F2000FA48D0F8981014A83FF036FD1FE0F648A4
:101F3000807800EB8000F54A02EB001041691CA894
:101F40003FF02AFDF148416E14A83FF025FDEE4810
:101F5000807800EB8000ED4A02EB001081690CA84C
:101F60003FF01AFDE948816E04A83FF015FD04AB6F
:101F70000CAA14A91CA8FEF7E3FA24B0BDE8F0816E
:101F800000B591B0202109A83FF03CFE202101A816
:101F90003FF038FEDC48807800EB8000DB4A02EB43
:101FA0000010816809A83FF0F7FCD848816D01A8AE
:101FB0003FF0F2FCAFF62413AFF6281201A909A8EE
:101FC000FEF7BEFA11B000BD70B598B004462021EE
:101FD00010A83FF017FE202108A83FF013FE202193
:101FE00068463FF00FFEC848807800EB8000C74A83
:101FF00002EB0010C16868463FF0CEFCC348C16DDB
:1020000008A83FF0C9FCC04890F8270018B3012881
:1020100010D0022829D16420B4FBF0F100FB114557
:10202000B4FBF0F62B463246AFF6D81110A83FF0BD
:10203000B5FA1AE00A20B4FBF0F4B4FBF0F100FBAF
:102040001145B4FBF0F62B463246AFF6E41110A86A
:102050003FF0A4FA09E06420B4FBF0F52A46AFF69D
:10206000E81110A83FF09AFA00BF00BF10A9684617
:102070003FF01BFDAFF6E413AFF6E81208A968467F
:10208000FEF75EFA4FF4C8703AF0F4FB18B070BD7A
:1020900000B591B0202109A83FF0B4FD202101A88E
:1020A0003FF0B0FD9848807800EB8000974A02EB43
:1020B0000010816B09A83FF06FFC9448D0F888109D
:1020C00001A83FF069FCAFF63423AFF6382201A92E
:1020D00009A8FEF735FA4FF4C8703AF0CBFB11B0FF
:1020E00000BD00B591B0202109A83FF08BFD202153
:1020F00001A83FF087FD8448807800EB8000834A88
:1021000002EB0010C16B09A83FF046FC7F48D0F8F5
:102110008C1001A83FF040FCAFF68823AFF68C226C
:1021200001A909A8FEF70CFA14203AF0A3FB11B09C
:1021300000BD00B591B0202109A83FF063FD20212A
:1021400001A83FF05FFD7048807800EB80006F4A87
:1021500002EB0010016C09A83FF01EFC6B48D0F8A0
:10216000901001A83FF018FCAFF6D823AFF6DC22A0
:1021700001A909A8FEF7E4F94FF4C8703AF07AFB18
:1021800011B000BD10B590B0202108A83FF03AFD75
:10219000202168463FF036FD5D480088642190FBB1
:1021A000F1F201FB12045848807800EB8000574997
:1021B00001EB0010224657A1C36A08A83FF0EEF9D0
:1021C00053480088642190FBF1F201FB12044F4850
:1021D000224650A1C36F68463FF0E0F9AFF64C339A
:1021E000AFF65032694608A8FEF7AAF910B010BD44
:1021F00000B591B0202109A83FF004FD202101A8DD
:102200003FF000FD4048807800EB80003F4901EB43
:102210000010AFF25C71C26A09A83FF0BFF93B48F9
:10222000AFF26C71C26F01A83FF0B8F9AFF69C3302
:10223000AFF6A03201A909A8FEF782F911B000BDDE
:1022400000B591B0202109A83FF0DCFC202101A8B5
:102250003FF0D8FC2C48807800EB80002B4A02EB42
:102260000010016B09A83FF097FB2848D0F88010B8
:1022700001A83FF091FBAFF6E433AFF6E83201A9D5
:1022800009A8FEF75DF964203AF0F4FA11B000BD38
:1022900000B591B0202109A83FF0B4FC202101A88D
:1022A0003FF0B0FC1848807800EB8000174A02EB42
:1022B0000010416B09A83FF06FFB1448D0F8841060
:1022C00001A83FF069FBAFF63443AFF6384201A9ED
:1022D00009A8FEF735F94FF4C8703AF0CBFA11B0FF
:1022E00000BD00B591B0202109A83FF08BFC202152
:1022F00001A83FF087FC0448807800EB8000074A83
:1023000052F8201009A80BE0F00700103804001064
:10231000300000102564202573000000180600100E
:102320003FF03AFBFF48416901A83FF035FBAFF6AB
:102330009C43AFF6A04201A909A8FEF701F911B02C
:1023400000BD00B591B0202109A83FF05BFC202121
:1023500001A83FF057FCF448807800EB8000F14A78
:1023600002EB8000816809A83FF016FBED48C169C7
:1023700001A83FF011FBAFF6E443AFF6E84201A934
:1023800009A8FEF7DDF864203AF074FA11B000BD38
:1023900070B592B0044620210AA83FF033FC2021FA
:1023A00002A83FF02FFCE04890F8270088B30128EE
:1023B00017D002283FD16420B4FBF0F100FB114597
:1023C000B4FBF0F6D8480095807800EB8000D54942
:1023D00001EB80003346D5A142680AA83FF0DEF841
:1023E00029E00A20B4FBF0F4B4FBF0F100FB114546
:1023F000B4FBF0F6CC480095807800EB8000C9492A
:1024000001EB80003346CCA142680AA83FF0C6F831
:1024100011E0FFE76420B4FBF0F5C348807800EBDF
:102420008000C04901EB80002B46C5A142680AA884
:102430003FF0B4F800BF00BFBA48816902A83FF07E
:10244000ABFAC0A3BFA202A90AA8FEF779F84FF41D
:102450007A703AF00FFA12B070BD00B589B0202141
:1024600001A83FF0CFFB37F007F802203AF002FA5C
:10247000AC48016A01A83FF08FFA01AB03220521A5
:10248000302037F06AFEA8488078012813D0A6488B
:10249000807800EB8000A34A02EB8000016901A86C
:1024A0003FF07AFA01ABA0480093837800220B2119
:1024B0003C2037F0A6FD09B000BDA3480068704776
:1024C00070B506460C461546974890F82300C8B1EB
:1024D000012E02D0022E14D109E09CA016F052F871
:1024E00014F040FE0121084615F04CFA09E09BA0CB
:1024F00016F048F814F023FE0021012015F042FAEE
:1025000000BF00BF884890F82100C8B1012C02D05C
:10251000022C14D109E095A016F034F814F0C7FF8E
:102520000121022015F02EFA09E094A016F02AF8F5
:1025300014F0A2FF0021022015F024FA00BF00BF12
:10254000794890F8260058B1012D02D0022D06D10D
:1025500002E01CF0EDFF02E01CF0D9FF00BF00BF5D
:1025600014203AF087F970BD10B5FEF7E7FAF0B91C
:1025700086480078D8B98648407A012817D1FEF7F6
:10258000DDFA04468248437A80480278214681A0D9
:1025900015F0F8FF14F09EFD14203AF06BF90022BC
:1025A00011460120FFF78CFF14203AF063F910BDAB
:1025B00000207D49C8804871C8708870487001202B
:1025C0007A49887070472DE9F041044600250026BD
:1025D0000027012C1ED115F09BFA58B9524890F8EB
:1025E000230038B1012500206849087036F044FF07
:1025F000FFF7DEFF022015F08BFA98BB4A4890F8EF
:102600002100012804D0484890F82100032829D14E
:10261000012627E0022C25D1012015F079FA0128A6
:102620000BD1414890F8230038B1022501205749C9
:10263000087036F021FFFFF7BBFF022015F068FAA3
:1026400001280FD1384890F82100012804D03648DD
:1026500090F82100032805D1334890F8C5000128DF
:1026600000D002263A4631462846FFF729FF002DC2
:1026700001DD17F08DF9BDE8F081F0B585B00025DA
:1026800000260027284890F82500022812D10024AF
:102690000EE0474850F8240040B1454850F8241057
:1026A0001C3030F8140001FB00662746601CC4B2E1
:1026B000072CEEDB1C4890F82200022831D13D485F
:1026C000406F3C49B1F8C01048433A498A6FB1F8AD
:1026D000C21002FB01013748C26FB0F8C40002FB10
:1026E00000113448D0F88020B0F8C60002FB001179
:1026F0003048D0F88420B0F8C80002FB00112D4803
:10270000D0F88820B0F8CA0002FB00112948D0F8A0
:102710008C20B0F8CC0002FB00112648D0F89020A5
:102720004AE086E018060010F007001025732530F7
:1027300032642E2530326400257325642E25640012
:1027400025732564000000002C0000100D0A2041B4
:102750007070656E42696C6C000000000D0A2041CB
:10276000707064697342696C6C0000000D0A20414E
:102770007070656E436F696E000000000D0A2041A5
:102780007070646973436F696E0000001C00001074
:10279000884900100D0A2045727242696C6C3D2513
:1027A000642C25642C25640008000010780A0010B1
:1027B0004C0A001040090010B0F8CE0002FB0011D6
:1027C000FF48D0F89420B0F8D00002FB0011FC487C
:1027D000D0F89820B0F8D20002FB0011F848D0F8E9
:1027E0009C20B0F8D40002FB0011F548D0F8A020DE
:1027F000B0F8D60002FB0011F148D0F8A420B0F8E0
:10280000D80002FB0011EE48D0F8A820B0F8DA009A
:1028100002FB0011EA48D0F8AC20B0F8DC0002FB63
:102820000011E748D0F8B020B0F8DE0002FB001538
:1028300012E0E44890F82200012808D115F044F88D
:1028400010B9E048806B00E00020054604E0DD4858
:1028500090F8220000B900257019DA49896B884286
:1028600002D9D848806B00E07019D7490860D54874
:10287000D0F8C03008460268D248816BD348CDE911
:102880000065CDE90323029150F82700DFF83CC32F
:102890000CF11C0C3CF817C000FB0CF3C848806F0F
:1028A000DFF81CC3BCF8C2C000FB0CF2C448406F88
:1028B000DFF80CC3BCF8C0C000FB0CF1C44815F035
:1028C00061FEC04890F8220002280CD1BD48D0F823
:1028D000C000A84203D90220FFF775FE35E00120B1
:1028E000FFF771FE31E0B74890F8220001280CD1C3
:1028F000B448D0F8C000A84203D90220FFF763FE15
:1029000023E00120FFF75FFE1FE0AE4890F82200B1
:10291000D8B9AC4890F8250002280DD17019A94902
:10292000D1F8C010884203D20220FFF74CFE0CE021
:102930000120FFF748FE08E0A248806BA24908602A
:10294000A4480168A4A015F01DFEFFF70DFE0020AD
:1029500005B0F0BD014669B99A4A92F82E200F32AF
:10296000FF2A01DDFF2203E0964A92F82E200F3263
:10297000D0B20CE001290AD1924A92F82E20FF2A07
:1029800001DDFF2202E08F4A92F82E20D0B270477C
:1029900070B58C4890F8210018B314F024FD04465B
:1029A000FCB192480068204490490860FEF7C6F8E0
:1029B0000546024621468EA015F006FE02220021A1
:1029C0000846FFF77DFD0121204615F095F9FEF739
:1029D000B5F805460246A1B2012016F08DFE012091
:1029E00070BD784890F8230090B314F023FB0446A0
:1029F00074B3214684A015F0C5FD8748006801190D
:102A0000744803687048026884A015F0BBFD8248D2
:102A1000006820446C49096888421AD214F022FBED
:102A200090B17D48006820447B490860022120461F
:102A300015F062F9FEF782F805460246A1B20220BF
:102A400016F05AFE002452E014F044FB0020C7E7C1
:102A500061E05C4890F8240001283DD1FFF790FA2E
:102A6000FEF76CF828B34FF4AF7039F003FF002085
:102A7000FFF770FF724988710320724908700020C7
:102A800071490870714908707148002101807148CE
:102A9000018081707048006839F0ACFC00206F49FB
:102AA00008606F4801780020FFF7EBF814F012FB84
:102AB0000EE0FEF72FF800206249087014F00AFBC0
:102AC0004FF4C87039F0D6FEFDF77CFDFFF770FDBE
:102AD00000206449086083E762480460FEF72EF82E
:102AE00005460246A1B2032016F006FE00244A481D
:102AF0000068204434490968884205D30222002135
:102B00001046FFF7DDFC04E0022200210846FFF733
:102B1000D7FC012064E72B4890F82600C0B3524848
:102B20001CF0C5FC044650480078012819D1C4B1F6
:102B300021464EA015F08CFD52480460032120462A
:102B400015F0DAF8002202210846FFF7B9FCFDF77C
:102B5000F5FF05460246A1B2052016F0CDFD012085
:102B60003EE741480078022813D147A015F070FDD8
:102B7000FDF7E4FF85B200232A461946022015F02E
:102B800007FF0020384908703E490860022027E707
:102B9000FFE7002024E7F8B5002500200090094851
:102BA00090F8250002280AD1FDF7C8FF05462DB18F
:102BB00029463CA015F0E6FC0024CDE017E1CEE06C
:102BC00040090010F00700103C0000104C0A0010F3
:102BD000C8320400400000100D0A41707043686163
:102BE0006E6765206D61783D256C640020000010E3
:102BF0000D0A417070636F696E312E636F696E3DAF
:102C0000256C642C256C64000D0A322E41707062B4
:102C1000696C6C3D256C6400240000100D0A417045
:102C20007062696C6C3D256C642C4D6F6E65793DEE
:102C3000256C642C70726963653D256C640D0A0017
:102C4000780A00101B000010190000101A00001074
:102C50001700001014000010940000103400001041
:102C60003900001028000010440000100D0A204117
:102C70007070526561646572312E726561643D25C4
:102C80006C6400002C0000100D0A20417070526529
:102C900061646572204F55545055542063617264CD
:102CA000000000000D0A204170704E65656470617F
:102CB000793D256C64000000FA4850F82400F0B318
:102CC000F84850F82400B5FBF0F0C6B23146F6A043
:102CD00015F058FCF3481C3030F81400B04201DB0A
:102CE000304603E0EF481C3030F81400C6B23146DD
:102CF000F2A015F047FCEB4951F8241001FB06F057
:102D0000694614F097FA07463946F1A0009A15F083
:102D100039FC012F1DD1F5480068F54909680844C0
:102D20000099451A0020F2490860F04805602946DC
:102D3000F0A015F027FCF34890F8340000E009E01B
:102D4000012806D12B46009882B20021012015F0FF
:102D50001FFE03E0601CC4B2072CADDB54E0E94861
:102D600090F8250003284FD1FDF7E8FE0546F5B39E
:102D70002946AFF2D00015F037FDE248D0F8B80090
:102D8000B5FBF0F0C6B23146C7A015F02DFDDE4808
:102D9000B0F82801B04201DB304602E0DA48B0F872
:102DA0002801C6B23146C5A015F01EFDD549D1F89F
:102DB000B81001FB06F0694614F03CFA07463946A4
:102DC000C3A0009A15F010FD012F1DD1C74800685F
:102DD000C749096808440099451A0020C449086099
:102DE000C24805602946C3A015F0FEFC00E00BE0D8
:102DF000C44890F83400012806D12B46009882B2CE
:102E00000021012015F0C4FDF8BDF8B5BF480068E9
:102E1000D8B114F05FF970B1FDF790FEBB490968B5
:102E2000461A3246B948006881B2042016F064FCA4
:102E30000020B649086039F0CBFD06460146B4A033
:102E400015F0B0FC642039F015FDFDF777FE05465E
:102E5000FFF7A1FEFDF772FE70B139F0B9FD06462D
:102E60000146AFA015F09EFCFDF768FE06466946D8
:102E70001CF0B5F8044600E00124A24890F83400A4
:102E800001283DD104BBFDF759FE06460146AAA024
:102E9000009A15F087FCFDF751FE0099461A30465E
:102EA00015F094F9FDF74AFE0099401A86B2002306
:102EB00032461946184615F06BFD00208B49086014
:102EC0008B4908600098F8BDFDF738FE06460146BC
:102ED000A0A015F067FCFDF731FE0646002115F0B5
:102EE00075F9FDF72BFE86B20023324619461846C7
:102EF00015F04EFD00207D4908607D490860E2E73D
:102F0000ACB99AA015F04EFC0099681A15F05EF95C
:102F10000098281A82B200231946184615F038FD89
:102F2000002072490860724908600098CBE739F0C8
:102F30004FFD0646014692A015F034FC00212846BC
:102F400015F044F90023AAB21946184615F020FDE1
:102F50000020664908606649086000BFB3E72DE9B4
:102F6000F041002600248B480468FDF7E7FDA042ED
:102F700006D28948006818B907208849087040E1DE
:102F80008548006878B1FFF7ACF8A0B21CF08EFB62
:102F90000646012E03D10A208049087031E109203C
:102FA0007E4908702DE1514800685149096808447C
:102FB000A04262D24D480068201A4D490968451A5E
:102FC00052480068451B4F4890F82200022801D162
:102FD000012615E04B4890F82200012801D1012676
:102FE0000EE0484890F8220050B9464890F8250075
:102FF000022801D1012603E00DB9012600E00026D8
:10300000012E36D114F02EF8F0B1394800683F494E
:10301000096808443649086002213C48006814F0F9
:103020006BFEFDF78BFD39490968471A3A46374868
:10303000006881B2022016F05FFB0020334908606F
:103040000A2056490870DCE014F044F8FDF776FDDC
:103050002E490968471A3A462C48006881B2042074
:1030600016F04AFB00202949086008204B490870E7
:10307000C7E0082049490870C3E01C4800681C49A3
:1030800009680844051B1F4890F82200022801D156
:10309000012694E01B4890F82200012801D1012666
:1030A0008DE07DE04C0A00100D0A204170704E65E5
:1030B00065646E756D3D2564000000000D0A2041B9
:1030C00070705265616C6E756D3D25640000000086
:1030D0000D0A204170705265636261636B207374E6
:1030E0003D25642C7061793D256C64002000001042
:1030F000240000100D0A204170707061793D256C2C
:1031000064000000F00700104009001028000010C3
:103110000D0A20417070486F6C645265742564001C
:103120000D0A20417070426567696E206368616EA8
:1031300067652564000000000D0A20417070636817
:10314000616E6765204661696C3D256C642C256C59
:10315000640000000D0A204170706368616E67654D
:1031600020737563633D256C640000000D0A2041E7
:1031700070706368616E6765204661696C0000006D
:103180000D0A204170706368616E67652073756316
:1031900063256400340000102C0000101B00001098
:1031A000FF4890F8220050B9FD4890F82500022809
:1031B00001D1012603E00DB9012600E00026012E11
:1031C0001CD1F74890F82400012813D1F548006875
:1031D00080B113F07FFFFDF7B1FCF2490968471A8F
:1031E0003A46F048006881B2042016F085FA0020C3
:1031F000EC4908600A20EC49087002E00820EA491E
:103200000870BDE8F08110B5044604B3E7480068D3
:1032100060B1E7A015F01CFA01201CF0AFFAE348FA
:103220000068001BE1490860002410E0E5480068E0
:10323000844206D3E3480068241A0020E14908606C
:1032400005E0E0480068001BDE490860002424B166
:10325000DD480068001BDC49086010BDD04890F8CC
:103260002E00FF2806DAD948807908B90120704776
:103270000020FCE70020FAE70EB5D4488379C8485F
:10328000807800EB8000D24901EB0010D1A1426CA4
:10329000C3488DE80E00837800221146962036F050
:1032A000B0FE0EBD70B504460125F4B3C6480068F3
:1032B000C44909680844A0422AD213F0D3FEB0B131
:1032C000C0480068B74909680844BE490860FDF76E
:1032D00035FCB4490968461A3246B248006881B2E2
:1032E000022016F009FA0020AE49086010E013F041
:1032F000F1FEFDF723FCAB490968461A3246A9489E
:10330000006881B2042016F0F7F90020A549086092
:10331000FDF714FC064602462146B0A015F042FA1D
:10332000FDF70CFCA04203D300E002E0012500E021
:103330000025FDF703FC90B303209B490870002093
:10334000FFF708FBA149887197480078032842D10C
:103350009C480068A8490968884204D200220121DB
:103360000846FFF7ADF80020A4490870A44908708A
:10337000A44800210180A44801808170A34800680E
:1033800039F038F836F078F8A14801780020FEF7D7
:1033900078FCFDF7D3FB064617F08BFC1BE0FFE73C
:1033A000002201210846FFF78BF80020934908709E
:1033B00093490870934800210180934801808170EF
:1033C0009248006839F016F836F056F8FFF745F8DD
:1033D0000E2075490870284670BD70B50446012559
:1033E000002654B17148006838B1FEF77AFEA0B2E9
:1033F0001CF05CF9064606B90025284670BD70B57C
:10340000044684B36948006860B182A015F020F9D1
:1034100001201CF0B3F965480068001B634908608F
:10342000002447E068480068664909680844A042EB
:103430002FD213F017FEB8B16248006859490968E5
:10344000084460490860FDF779FB56490968451A48
:103450002A465448006881B2022016F04DF9002037
:103460005049086011E025E013F034FEFDF766FBDB
:103470004C490968451A2A464A48006881B2042026
:1034800016F03AF90020474908604FF4487039F0C7
:10349000F1F94C480068844206D34A480068241A6F
:1034A00000204849086005E046480068001B45497F
:1034B0000860002424B144480068001B42490860A9
:1034C000FDF73CFB90B30320374908700020FFF75D
:1034D00041FA3E49887134480078032842D139487E
:1034E000006845490968884204D200220121084643
:1034F000FEF7E6FF00204149087041490870414845
:10350000002101804048018081704048006838F007
:1035100071FF35F0B1FF3E4801780020FEF7B1FBA6
:10352000FDF70CFB054617F0C4FB1BE0FFE700228C
:1035300001210846FEF7C4FF0020304908703049D9
:1035400008703048002101802F48018081702F4889
:10355000006838F04FFF35F08FFFFEF77EFF0E203A
:103560001149087070BD2DE9F04F87B004460E4632
:103570001546002700200690FEF73AFE00220221A1
:103580000846FEF79DFF39F023FA8046014626A043
:1035900015F008F93046FFF720FF64204EE00000E8
:1035A000F0070010280000101B0000102C00001075
:1035B0000D0A2041707043487568756F53756363D9
:1035C000000000002400001020000010780A001005
:1035D0003804001025732530326400000D0A2041A4
:1035E00070702050726963653D256C642C6D6F6E40
:1035F00065793D256C6400003C0000101900001046
:103600001A000010170000101400001094000010A1
:10361000390000100D0A204170705043436F7374DD
:1036200053756363000000000D0A2025644170702B
:1036300055626F7856656E646F75740094FBF0F098
:1036400000F0FF08642094FBF0F100FB114000F053
:10365000FF094246012148460CF0ECFD0746FC48B4
:1036600090F82F00012804D0F94890F82F00032883
:103670006FD1012F6FD1FDF761FA08B914F028FB63
:10368000012D01D0022D02D13046FFF7BCFD4120B3
:10369000F0490870642094FBF0F100FB11400A210E
:1036A00090FBF1F03030EB494870642094FBF0F16E
:1036B00000FB11400A2190FBF1F201FB12003030B7
:1036C000E4498870E4480660E4480378E248016809
:1036D000E048CDE901530091837842780178E0A079
:1036E00035F05CF9DD4801780078401CDB4B187040
:1036F0002B46D84AD848006814F03DFB642094FB60
:10370000F0F000F0FF0A642094FBF0F100FB1140A0
:1037100000F0FF0B52460221584619F0CEFD00F092
:10372000FF08FDF70BFA0590642094FBF0F100FB15
:10373000114000F0FF09059A2B46CDE901280096BB
:103740004A460121002016F055FC0B20D449087090
:103750000BE12AE0FFE7FEF79BFD642094FBF0F00D
:1037600000F0FF0A642094FBF0F100FB114000F030
:10377000FF0B52460221584619F09FFD00F0FF084A
:10378000FDF7DCF90590642094FBF0F100FB11409B
:1037900000F0FF09059A2B46CDE9012800964A461C
:1037A0000121992016F026FCDFE0A94890F82F00AF
:1037B00002287ED1012F52D1FEF742FD3046FFF79D
:1037C0001EFE642094FBF0F100FB11400A2190FBE7
:1037D000F1F03030C0B28DF818000A2094FBF0F1FF
:1037E00000FB11403030C0B28DF8190014F070FAAF
:1037F0009A4801780078401C984B18702B4606AA0E
:10380000304614F0B8FA642094FBF0F000F0FF0B9F
:10381000642094FBF0F100FB1140C0B25A46022133
:10382000049019F04AFD00F0FF08FDF787F90590B4
:10383000642094FBF0F100FB114000F0FF096420CC
:1038400094FBF0F000F0FF0A059A2B46CDE9012821
:1038500000964A465146002016F0CCFB35E0FEF7B4
:1038600017FD9048006810B102201BF087FF64200C
:1038700094FBF0F000F0FF0A642094FBF0F100FBF1
:10388000114000F0FF0B52460221584619F015FD79
:1038900000F0FF08FDF752F90590642094FBF0F169
:1038A00000FB114000F0FF09642094FBF0F0C0B26F
:1038B00000E03FE00490059A2B46CDE901280096F0
:1038C0004A460146022016F095FBFDF737F990B302
:1038D0000320734908700020FFF73CF87249887193
:1038E0006F480078032840D1704800687049096823
:1038F000884204D2002201210846FEF7E1FD0020A3
:103900006C4908706C4908706C480021018051486E
:10391000018081706A48006838F06CFD35F0ACFDBC
:10392000684801780020FEF7ACF9FDF707F98046FA
:1039300017F0BFF919E0FFE7002201210846FEF762
:10394000BFFD00205B4908705B4908705B4800219F
:1039500001804048018081705948006838F04AFD74
:1039600035F08AFD0E204E49087007B0BDE8F08F93
:103970002DE9F04F85B004460F4615461E463448E3
:1039800090F82F0002282BD1642094FBF0F000F077
:10399000FF0A642094FBF0F100FB114000F0FF0BE4
:1039A00052460221584619F088FC00F0FF08FDF746
:1039B000C5F80490642094FBF0F100FB114000F086
:1039C000FF09642094FBF0F0C0B20390049A2B46E8
:1039D000CDE9012800974A460146304616F00AFB19
:1039E00005B0BDE8F08F10B5FDF7A8F8D8B1FFF726
:1039F0000CFA4FF4C87038F03DFF00202D490870D4
:103A00002D4908702D4800210180124801808170E5
:103A10002B48006838F0EEFC35F02EFDFEF71DFD5A
:103A20000E201F490870002202210846FEF748FDBB
:103A3000C82038F01FFF22F0A1F94FF4C87038F009
:103A400019FF002201210846FEF73AFD10BD0000D3
:103A5000F0070010140000103400001038000010AF
:103A60004C6F675472616E73616374696F6E41501D
:103A700049206C6F6769633D25632563256320706A
:103A8000726963653D256420747970653D25782CE5
:103A90007472616E4E756D733D25640D0A200000D1
:103AA0001B0000102C000010780A001024000010E9
:103AB0003C000010190000101A0000101700001040
:103AC0009400001039000010FEB5FF4890F8260061
:103AD00010B1FEF7F2FC60BBFDF730F850B3FEF713
:103AE00000FC38F075FF05460146F8A014F05AFEB8
:103AF000FDF724F80546FDF721F8064601210023CD
:103B00001E22CDE9010500911946022014F096FF0E
:103B10004FF4C87038F0AEFEFFF777F904461CB1D9
:103B20002046FEF735FC01E0FEF70BFC0E20EA49CB
:103B300008701CE0FEF7D5FBAFF6D01014F032FE93
:103B40000021084614F042FBDF4890F834000128B9
:103B500005D100231A461946184614F019FF002013
:103B6000DE490860DE4908600E20DB490870FEBDB2
:103B70002DE9F04104460025FEF73AFB38F028FF16
:103B800006460146AFF2605014F00CFE642094FB30
:103B9000F0F0C6B2642094FBF0F100FB1140C7B214
:103BA0003246012138460CF045FB0546FCF7C6FFBE
:103BB00090B30320C84908700020FEF7CBFEC94926
:103BC0008871C5480078032840D1C5480068C649B7
:103BD0000968884204D2002201210846FEF770FCE1
:103BE0000020C2490870C2490870C2480021018003
:103BF000C14801808170C148006838F0FBFB35F096
:103C00003BFCBF4801780020FEF73BF8FCF796FF2D
:103C1000064617F04EF819E0FFE70022012108469A
:103C2000FEF74EFC0020B1490870B1490870B14858
:103C300000210180B04801808170B048006838F0F0
:103C4000D9FB35F019FC0E20A34908702846BDE8C1
:103C5000F08170B504460025FCF770FF0546A948C1
:103C60000460FCF76BFF90B303209B4908700020B1
:103C7000FEF770FE9B49887197480078032841D170
:103C80009748006898490968884204D200220121B7
:103C90000846FEF715FC0020944908709449087006
:103CA0009448002101809448018081709348006805
:103CB00038F0A0FB35F0E0FB914801780020FDF7DB
:103CC000E0FFFCF73BFF064616F0F3FF1AE0FFE7C4
:103CD000002201210846FEF7F3FB0020834908700B
:103CE00083490870834800210180834801808170E6
:103CF0008248006838F07EFB25B135F0BDFB0E2010
:103D00007549087070BDF0B591B0054600242021BA
:103D100009A83DF077FF202101A83DF073FF0520A1
:103D200070494871FCF70AFF08B9FCF7D6FE2C462B
:103D3000654890F82700F0B3012826D002286ED1FC
:103D4000642094FBF0F100FB114694FBF0F75E4811
:103D50000096807800EB80006B4901EBC0003B4689
:103D60006A49C26809A83DF019FC642094FBF0F18F
:103D700000FB114694FBF0F7634800963B4663490D
:103D8000426B01A83DF00AFC49E00A2094FBF0F0E8
:103D900084B20A2094FBF0F100FB114694FBF0F78B
:103DA00049480096807800EB8000574901EBC0003D
:103DB0003B46564900E015E00C31C26809A83DF0C9
:103DC000EDFB0A2094FBF0F100FB114694FBF0F7A9
:103DD0004D4800963B464D490C31426B01A83DF0E1
:103DE000DDFB1CE0642094FBF0F63748807800EBA4
:103DF0008000454901EBC000334644491431C26894
:103E000009A83DF0CBFB642094FBF0F63E48334616
:103E10003E491431426B01A83DF0C0FB00BF00BF1A
:103E2000AFF66403AFF6680201A909A8FCF788FBA6
:103E30004FF4167038F01EFD2A48407978B9FCF727
:103E40007DFE18B103202449087006E0FCF762FEED
:103E5000FCF7B8FB002020490870FEF7A9FB1E48BC
:103E60000078032805D1264801780020FDF709FFD6
:103E700006E01948007818B935F0FEFAFEF798FB0D
:103E800011B0F0BD10B592B0044620210AA83DF053
:103E9000B9FE202102A83DF0B5FEFCF74FFE10B19F
:103EA0000020FFF7D6FE224619A10AA83DF076FBB6
:103EB000224617A102A83DF071FB02AB0248009315
:103EC000837800220E2125E0F00700100D0A204122
:103ED00070705475692564001B00001020000010EC
:103EE00024000010780A00103C0000101900001097
:103EF0001A000010170000101400001094000010A9
:103F0000390000102C000010200100102C270000A8
:103F100025730000502036F074F812B010BD88B040
:103F2000002007900024002506900590FA4988702B
:103F3000C8700871487136F06CFC38B10222114625
:103F40001046FEF7BDFA1320F449087001200FF067
:103F500097FCF3490860F34890F89800012802D1D3
:103F600016F088FD02E0012016F070FD012036F009
:103F7000CDFC35F081FAFEE3E84800783DF00CFA1C
:103F8000E648007814287DD2DFE800F00AA5D9FEC3
:103F9000FDFCFBFAF9F8F7F6F5F4F3F2F1F0EFEEC9
:103FA000E1480068C82802D90020DF490860DA48E3
:103FB000807830B90520D8498870FCF70FFB15F0E0
:103FC00056FB05A9002017F03AF807909DF81C0051
:103FD00098B19DF81C003C2803D09DF81C003E2899
:103FE00005D10020D1490870D149087005E00520AD
:103FF000C94948710120C9490870C748007920B9EA
:104000000520C5490871FEF738FBFEF7C1FC0446E0
:10401000012C1ED113F0BDFA35F02EFAC5480178F7
:104020002846FDF72EFEFCF789FD07460146C2A093
:1040300014F0A8FA13F04CFE2846FEF78BFCB649A4
:104040008871FCF77BFD074616F033FE0320B34969
:104050000870B148C07800BB0520AF49C87013F0A4
:10406000BBFA13F049FBB0B10020AB49887015F0E2
:104070008FFC642038F0FEFB35F0FEF90222114679
:10408000104600E090E2FEF71BFAFEF791FA0F20CF
:10409000A249087001E015F02CFF36F0BAFB38B1E8
:1040A000022211461046FEF70BFA13209B490870B6
:1040B000012012F0D5FCFCF741FD074614F06EFD1F
:1040C00036F010FC07461BF0E3FD00201BF0F7FD67
:1040D00017F010F868E29DF81C0080B19DF81C10E4
:1040E0009AA014F03DFB05208B494871FCF726FD92
:1040F00008B9FCF7F2FC05A907A8FCF72BFD05A9F8
:10410000012016F09CFF07908348407928B943208E
:10411000079002200590FEF74BFA804800780328AC
:1041200005D1844801782846FDF7ABFD06E07B48C1
:10413000007818B935F0A0F9FEF73AFA34E29DF8A4
:104140001C0050B1142074494871FCF7F7FC08B901
:10415000FCF7C3FC07A8FDF781F905A9012016F0BB
:104160006EFF07906C4810E0BDE3A3E392E366E3C3
:10417000E2E2B1E2A0E26BE217E224E106E1A4E0B0
:104180007FE07DE079E077E015E0407918B94320E1
:1041900007900220059061480078032805D1654802
:1041A00001782846FDF76DFD04E05C48007808B909
:1041B00035F062F9F8E3FEF7EBFB0446012C15D16C
:1041C0005C4801782846FDF75CFD2846FEF7C2FBF7
:1041D00051498871FCF7B2FC074616F06AFDFCF7FE
:1041E000ADFC0746014654A014F0CCF905A9002007
:1041F00016F025FF07909DF81C0058B19DF81C1083
:1042000056A014F0ADFA05204349487101204349F6
:104210000870C9E313F094F910B9FFF71FF878B1EB
:104220005248407808B1012D0AD15148006838B988
:10423000002202210846FEF743F90D203749087095
:10424000384890F82E00FF2809DA4848407808B12D
:10425000012D04D14648006808B9FFF70DF8022C7B
:1042600002D10E202D490870FCF768FC074614F0B7
:1042700095FC16F03FFF97E396E3FEF770FE93E39D
:1042800092E33C480068FDF79FFE2846FEF762FB7C
:1042900021498871032021490870002023490870B2
:1042A000234908703448002101803448018081701E
:1042B0003348006838F09EF800202E4908601D48F9
:1042C00001782846FDF7DDFC6EE3FDF7E1FEFCF723
:1042D00035FCF8B12846FEF73DFB0F4988710320F5
:1042E0000E490870002011490870114908702248D1
:1042F000002101802148018081702148006838F048
:1043000079F800201B4908600A4801782846FDF723
:10431000B8FC3AE036E00000780A00101B000010FC
:1043200040000010F00700104800001019000010B5
:104330001A000010390000100D0A2041707032611F
:104340006D6F756E743D256C640000000D0A204190
:1043500070704B6579323D25640000000D0A2041E4
:1043600070704B6579313D2564000000B80800107D
:104370002C00001034000010170000101400001072
:10438000940000100E20FD4908700DE3FDF7D1FEEA
:104390000320FA4908700020F9490870F9490870AB
:1043A000F94800210180F94801808170F8480068CF
:1043B00038F020F80020F7490860F74801782846CF
:1043C000FDF75FFCF0E2002202210846FEF778F8D4
:1043D000FDF7D8FEF1480088642190FBF1F0C7B2E8
:1043E000EE48008890FBF1F201FB120000F0FF089C
:1043F0003A46012140460BF01DFF06900698012821
:104400005AD1E4480068FEF7FEFEE548006860B156
:10441000E44801780078401CE24B18700223DB4A24
:10442000DC48006813F0A7FC10E0DE480178007853
:10443000401CDC4B18700023D44AD648006813F0A7
:104440009AFCD448006880B21BF0DDF9D34800889C
:10445000642190FBF1F000F0FF0AD048008890FB47
:10446000F1F201FB120000F0FF0B52460221584608
:1044700018F023FFC7B2FCF761FB0490C74800881F
:10448000642190FBF1F201FB120000F0FF08C34829
:10449000008890FBF1F000F0FF09BE48049A016823
:1044A00000238DE8860042464946184615F0A2FDD5
:1044B0000B20B249087074E0B948006828B1BAA06E
:1044C00014F0C6F802201BF059F9BC4890F82F00F0
:1044D000012804D0B94890F82F0003282CD1AF4808
:1044E0000088642190FBF1F000F0FF0AAB480088DF
:1044F00090FBF1F201FB1200C7B25246022138468E
:1045000018F0DBFE00F0FF09FCF718FB8346A34818
:104510000088642190FBF1F201FB120000F0FF081B
:104520009C48016800234246CDE901B90091012170
:10453000992015F05FFD31E098480088642190FBD8
:10454000F1F000F0FF0A9548008890FBF1F201FBC2
:10455000120000F0FF0B52460221584618F0ADFE43
:10456000C7B2FCF7EBFA04908C480088642190FBFA
:10457000F1F201FB120000F0FF088848008890FB70
:10458000F1F000F0FF098348049A016800238DE8E8
:10459000860042464946022015F02CFD0C20774942
:1045A000087000207B490860FEE1FDF749FE844861
:1045B000007801283CD1FCF7C1FAC0B303206F4951
:1045C000087001252846FEF7C5F97E4988716B48B9
:1045D000007803283BD17C4800687C490968884200
:1045E00004D2002201210846FDF76AFF0020644939
:1045F00008706449087064480021018063480180A4
:1046000081706348006837F0F5FE34F035FF62488A
:1046100001782846FDF735FBFCF790FA074616F0BF
:1046200048FB05A9002016F00AFD07900FE0FFE700
:10463000FCF784FA40B1584801782846FDF721FB81
:104640000D204E49087002E00E204C490870ABE185
:10465000FDF71EFEFCF772FA68B3032047490870A5
:1046600001252846FEF776F95649887143480078B7
:10467000032820D15448006854490968884204D26C
:10468000002201210846FDF71BFF00203C4908706D
:104690003C4908703C48002101803C480180817001
:1046A0003B48006837F0A6FE34F0E6FE3A48017851
:1046B0002846FDF7E6FA77E1FDF713FEFEF7A5FBC6
:1046C00006461EB13046FDF763FE01E0FDF739FEF8
:1046D0000E202A49087067E1FDF7BFFEFCF71AFAC1
:1046E000002500202F4908702C4908802A490870AD
:1046F00034490871012211461046FDF7E1FE002001
:1047000033490870FDF754FF01200FF0B9F8314923
:10471000086013F0DAFD294890F89800012802D1CA
:1047200016F0A8F902E0012016F090F934F0A4FE8A
:1047300000201249087037E12248807820B91E20F5
:1047400020498870FCF789F81E48C078A0B9052078
:104750001C49C87012F040FF012012F081F912F0DC
:10476000CBFF50B900201749887034F085FE012234
:104770001146104630E01BE13FE039E01B0000101D
:10478000190000101A00001017000010140000108B
:1047900094000010340000103900001030000010A8
:1047A0002C000010380000100D0A204170704348A2
:1047B0007568756F4661696C00000000F0070010B5
:1047C000B8080010780A0010240000103C00001007
:1047D0001C00001040000010FDF772FE642038F04D
:1047E00049F815F0D5F8FDF7E3FE0020714908708F
:1047F000FCF7A4F9074614F0D1F936F00AF810B125
:1048000013206C490870FEF7C3F80446012C15D13B
:1048100012F0BFFE34F030FE674801782846FDF7FD
:1048200030FAFCF78BF907460146AFF2F44013F07B
:10483000A9FE13F04DFA10205E490870B4E0FEF7AF
:10484000A7F80446012C0CD15B4801782846FDF7F7
:1048500018FAFCF773F907460146AFF2245013F03B
:1048600091FE12F06DFE50B15448006838B9002234
:1048700002210846FDF724FE11204E490870022C43
:1048800002D112204B490870FCF758F9074614F082
:1048900085F989E0FDF725FDFEF7B7FA06461EB15A
:1048A0003046FDF775FD01E0FDF74BFD1220414953
:1048B000087079E0FDF7D1FDFCF72CF90025002008
:1048C0003F4908703F49088034F0D6FD002201219D
:1048D0000846FDF7F5FD13F0F8FCFDF769FE0F2023
:1048E0003449087060E0002016F0B0F8364890F8BF
:1048F0002F0070B1012013F018F9334890F83400FC
:1049000038B9C82037F0B6FF15F042F8C82037F0A4
:10491000B1FF00BFFCF712F9074614F03FF9002081
:1049200008F0ABFE35F075FF0028F3D127498870F9
:1049300034F0A2FD012211461046FDF7C1FD002012
:1049400023490870FDF734FE1F4890F82F00B8B1D6
:104950000023009301931A4619460520029314F090
:104960006DF8002013F0E1F8174890F8340038B9DA
:10497000C82037F07FFF15F00BF8C82037F07AFF1A
:1049800001200EF07DFF134908600F4890F8980051
:10499000012802D116F06EF802E0012016F056F858
:1049A00000200449087000BF00BF022037F062FFFA
:1049B000FFF7E2BA1B000010390000102C000010B5
:1049C0003800001030000010F0070010780A0010C6
:1049D0001C00001040000010F0B585B00026002734
:1049E000FAA103C9CDE9010134F046FDF9A033F085
:1049F000D5FFB8E00F23EF220021084635F09DFCDB
:104A00000323EF220021084635F097FCF748807811
:104A1000F74951F82030F5480093837800220121AE
:104A2000082035F0EEFAF1488178F148183050F856
:104A30002130EE480093837800220621302035F0A3
:104A4000E0FA0E23EE220D21012034F04FFDE7485D
:104A50008178E748483050F82130E4480093837863
:104A600000220D211C2035F0CCFA7BE00027002429
:104A70000AE0342101EB0411C8B20023DDA20921B0
:104A800034F05EFD601CC4B2082CF2DB69E035F046
:104A900088FE0546F5B3432D02D1002005B0F0BDD8
:104AA00003A8855531013431C8B20023D2A20921AF
:104AB00034F046FD701CC6B2082E4FD100260127E7
:104AC000002408E003A8005D01A9095D884200D028
:104AD0000027601CC4B2082CF4DB012F01D1012097
:104AE000DCE70E23EE220D21012034F0FFFCBF484D
:104AF0008178BF48303050F82130BC48009383782B
:104B000000220D21302035F07CFA4FF4C87037F0C8
:104B1000B1FE00E022E00E23EE220D21012034F050
:104B2000E5FCB2488178B248483050F82130AF48AF
:104B30000093837800220D21302035F062FA0024A2
:104B40000AE0342101EB0411C8B20023A9A2092113
:104B500034F0F6FC601CC4B2082CF2DB052037F000
:104B600089FE94E782E745E738B534F085FC0F23EA
:104B7000EF220021084635F0E0FB0323EF2200215D
:104B8000084635F0DAFB4CE00E23EE22042101202A
:104B900034F0ACFC95488078984951F8203093481F
:104BA0000093837800220121082035F02AFA8F48EB
:104BB00081789248183050F821308C4800938378DF
:104BC000002207213C2035F01CFA884881788B4868
:104BD000303050F8213085480093837800220B2133
:104BE000282035F00EFA814881788448483050F802
:104BF00021307E480093837800220B218C2035F0F1
:104C000000FA0DE035F0CDFD0446432C01D1002023
:104C100038BD452C01D10120FAE70A2037F02AFEE1
:104C2000F0E7B1E770B50026704890F8220002283E
:104C300073D17348406F7249B1F8C010484370494E
:104C40008A6FB1F8C21002FB01016D48C26FB0F863
:104C5000C40002FB00116A48D0F88020B0F8C600FA
:104C600002FB00116648D0F88420B0F8C80002FBAF
:104C700000116348D0F88820B0F8CA0002FB001188
:104C80005F48D0F88C20B0F8CC0002FB00115C48E3
:104C9000D0F89020B0F8CE0002FB00115848D0F8B0
:104CA0009420B0F8D00002FB00115548D0F89820AD
:104CB000B0F8D20002FB00115148D0F89C20B0F8A7
:104CC000D40002FB00114E48D0F8A020B0F8D60066
:104CD00002FB00114A48D0F8A420B0F8D80002FB2B
:104CE00000114748D0F8A820B0F8DA0002FB001104
:104CF0004348D0F8AC20B0F8DC0002FB001140487B
:104D0000D0F8B020B0F8DE0002FB0015374890F86C
:104D10002500022812D100240EE018E0394850F88E
:104D2000240038B1374850F824101C3030F81400F3
:104D300001FB0055601CC4B2072CEFDB2B48D0F8F8
:104D4000C000A84201D901260FE000260DE0274847
:104D500090F82200012803D112F0B6FD064604E0C7
:104D6000224890F8220000B90026304670BD70B588
:104D7000044600251D4890F82F00022817D1012C69
:104D80000BD112F0B6FC054612F0B3FC0646024603
:104D900029461DA013F006FD09E0022C07D120488A
:104DA00090F8BC5090F8BC101EA013F0FBFC2846F5
:104DB00070BD0146012902D0022949D142E00B48C9
:104DC00080781F4A52F8200070470000383337318E
:104DD00038353537456E74657253656C6643686562
:104DE000636B46756374696F6E0D0A00F0070010FF
:104DF000183304005F0000002A000000783304002C
:104E0000400900104C0A00100D0A2041707020501B
:104E1000434572726F725363616C653D2564000097
:104E20008C0A00100D0A20417070205043457272A8
:104E30006F724F66664C696E653D25640000000028
:104E4000E83E0400FF488278FF4850F8220070478F
:104E5000FC488278FC48183050F82200F7E700B58B
:104E60008BB000200A900320099034F005FB0F233B
:104E7000EF220021084635F060FA0323EF220021DB
:104E8000084635F05AFAE8E30E23EE220421012009
:104E900034F02CFB032009900A980B287DD2DFE820
:104EA00000F006D6FDFCFBFAF9F8F7F6F500012351
:104EB000E4488178E54850F82120E5A1E1488DE8F3
:104EC0000E0080780346002201210790082035F06B
:104ED00098F8DC4890F8230002287ED1DE488078DC
:104EE000A0B1D8488178D948183050F82130D54839
:104EF0000093807807900998801CC0B209900690B2
:104F0000002201460520079B35F07BF8D248C07887
:104F1000A0B1CC488178CD48303050F82130C94814
:104F20000093807807900998801CC0B20990069081
:104F3000002201460520079B35F063F8C64800793A
:104F4000A0B1C0488178C148483050F82130BD48F0
:104F50000093807807900998801CC0B20990069051
:104F6000002201460520079B35F04BF8BA484079EE
:104F7000B0B1B4488178B548603050F82130B148BC
:104F80000093807807900998801CC0B20990069021
:104F9000002201460520079B00E0A8E235F031F829
:104FA000AD488079A0B1A7488178A848783050F8FA
:104FB0002130A4480093807807900998801CC0B2E3
:104FC00009900690002201460520079B35F019F84C
:104FD000A148807808B9A04800E019E0C078B8B9C5
:104FE0009D480079A0B99C48407988B99A48807951
:104FF00070B994488178994850F8213091480093CD
:1050000080780346002207210790052034F0F9FF3D
:105010008C4880788D49303951F8200006903CF05A
:10502000DFFCC000C0F1E700C0B20790854881787E
:105030008648303850F82130824800938078034603
:1050400000220D210690079834F0DBFF4FE2022387
:105050007C4881787D4850F821207DA179488DE8F1
:105060000E0080780346002201210790082034F0CA
:10507000C8FF744890F8230002287ED17648C07992
:10508000F0B1704881787148903008E0FEE3FEE3AB
:10509000FEE3FEE3AEE3FDE22AE271E194E050F8C4
:1050A000213068480093807807900998801CC0B22E
:1050B00009900690002201460520079B34F0A1FFCD
:1050C0006548007AA0B15F4881786048A83050F800
:1050D00021305C480093807807900998801CC0B20A
:1050E00009900690002201460520079B34F089FFB5
:1050F0005948407AA0B1534881785448C03050F89C
:10510000213050480093807807900998801CC0B2E5
:1051100009900690002201460520079B34F071FF9C
:10512000FFF780FDA0B1474881784848D83050F853
:10513000213044480093807807900998801CC0B2C1
:1051400009900690002201460520079B34F059FF84
:105150004148C07988B94048007A70B93E48407AE1
:1051600058B9FFF75FFD40B9364881783B4850F8A1
:10517000213034480093807800E006E003460022A6
:1051800007210790052034F03CFF2E4881782F48F6
:10519000183850F8210006903CF022FCC000C0F105
:1051A000E700C0B20790274881782848183850F89F
:1051B0002130244800938078034600220D21069078
:1051C000079834F01EFF92E101231E4881781F48A2
:1051D000F03050F821201EA11A488DE80E0080788A
:1051E0000346002201210790082034F00AFF1548E9
:1051F00090F8210002287ED11748807A98B1114892
:105200008178174850F821300E4800938078079035
:105210000998801CC0B20990069000220146052022
:10522000079B34F0EEFE0C48C07A28B3054881781D
:105230000B48183050F821300248009380780790CE
:1052400009980FE0F0070010003F0400C834040084
:1052500025732D25640000008849001030390400B2
:10526000D0350400801CC0B209900690002201468F
:105270000520079B34F0C5FEF848007B98B1F8483C
:105280008178F84850F82130F548009380780790ED
:105290000998801CC0B209900690002201460520A2
:1052A000079B34F0AEFEED48407BA0B1EC4881781E
:1052B000EC48183050F82130E94800938078079086
:1052C0000998801CC0B20990069000220146052072
:1052D000079B34F096FEE148807BB0B1E0488178CE
:1052E000E048303050F82130DD4800938078079056
:1052F0000998801C00E026E0C0B2099006900022C8
:1053000001460520079B34F07CFED448807AD0B952
:10531000D248C07AB8B9D148007BA0B9CF48407B09
:1053200088B9CE48807B70B9CD488178CE4850F896
:105330002130CB4800938078034600220721079054
:10534000052034F05EFEC6488178C84850F8210038
:1053500006903CF045FBC000C0F1E700C0B20790EA
:10536000BF488178C14850F82130BD48009380780B
:10537000034600220D210690079834F042FEB6E065
:105380000223B7488178B748483850F82120AFF257
:105390004011B3488DE80E008078034600220121B9
:1053A0000790082034F02DFEAD4890F82100022827
:1053B0007ED1AA48C07BA0B1A9488178A9484830CD
:1053C00050F82130A6480093807807900998801CF7
:1053D000C0B209900690002201460520079B34F0D8
:1053E00010FE9E48007CA0B19D4881789D486030A9
:1053F00050F821309A480093807807900998801CD3
:10540000C0B209900690002201460520079B34F0A7
:10541000F8FD9248407CA0B191488178914878305D
:1054200050F821308E480093807807900998801CAE
:10543000C0B209900690002201460520079B34F077
:10544000E0FD8648807CC8B18448C37C827C844867
:1054500081788448903050F8211085A08DE80F00A5
:105460007F48807807900998801CC0B20990069008
:10547000002201460520079B34F0C3FD7748C07B1E
:10548000B0B97648007C98B97448407C80B97348BC
:10549000807C68B972488178734850F82130704830
:1054A000009380780346002207210790052000E042
:1054B00001E034F0A6FD6A4881786C4850F821007C
:1054C00006903CF08DFAC000C0F1E700C0B2079032
:1054D00063488178654850F82130614800938078AE
:1054E000034600220D210690079834F08AFD51E210
:1054F0005B4881785B48A83050F8213058480093C9
:1055000080780346002201210790082034F079FDBD
:10551000534890F8220001287ED15048007DF8B110
:105520004E48007D0690FFF744FC07905548C37D28
:105530004B4881784B48C03050F8211052A0079A50
:105540008DE80F004648807806900998801CC0B20C
:1055500009900590002201460520069B34F051FD7C
:105560003E48407DF8B13D48407D0690FFF721FC64
:1055700007904448037E3A4881783A48D83050F83A
:10558000211041A0079A8DE80F00354880780690D9
:105590000998801CC0B209900590002201460520A0
:1055A000069B34F02EFD2D48807DF8B12B48807D80
:1055B0000690FFF7FEFB07903248437E284881782B
:1055C0002848F03050F821102FA0079A8DE80F00DE
:1055D0002348807806900998801CC0B209900590F5
:1055E000002201460520069B34F00BFD1B48007D80
:1055F00090B91A48407D78B91848807D60B918483C
:105600008178194850F82130154800938078034676
:1056100000220721079000E002E0052034F0F1FCB1
:105620000F488178114850F8210006903CF0D8F9D5
:10563000C000C0F1E700C0B20790094881780B486C
:1056400050F82130064800938078034600220D214F
:105650000690079834F0D5FC9CE1FEE388490010E1
:10566000F00700100036040030390400B0340400A4
:1056700025735B25233032785D5B25233032785DDE
:105680000000000058490010257325735B25233066
:1056900032785D000123FF488178FF4850F82120CF
:1056A000AFF25441FB488DE80E008078034600229B
:1056B00001210790082034F0A4FCF64890F82D0052
:1056C00001282FD1F548807EA0B1F2488178F248B8
:1056D000183050F82130EF480093807807900998EF
:1056E000801CC0B209900690002201460520079B4D
:1056F00034F087FCE948C07EA0B1E6488178E648EE
:10570000303050F82130E3480093807807900998B2
:10571000801CC0B209900690002201460520079B1C
:1057200034F06FFCDD48007FA0B1DA488178DA48B8
:10573000483050F82130D748009380780790099876
:10574000801CC0B209900690002201460520079BEC
:1057500034F057FCD148407FA0B1CE488178CE4884
:10576000603050F82130CB4800938078079009983A
:10577000801CC0B209900690002201460520079BBC
:1057800034F03FFCC548807EB8B9C448C07EA0B99B
:10579000C248007F88B9C148407F70B9BD48817850
:1057A000BF4850F82130BB48009380780346002260
:1057B00007210790052034F024FCB6488178B948C9
:1057C00050F8210006903CF00BF9C000C0F1E70052
:1057D000C0B20790AF488178B24850F82130AD4848
:1057E00000938078034600220D210690079834F03C
:1057F00008FCFBE30223A7488178A74850F8212042
:10580000AFF2B451A3488DE80E0080780346002221
:1058100001210790082034F0F4FBA048807FA0B15C
:105820009C4881789C48783050F821309948009302
:10583000807807900998801CC0B2099006900022D9
:1058400001460520079B34F0DCFB9448C07FA0B1E3
:10585000904881789048903050F821308D480093DE
:10586000807807900998801CC0B2099006900022A9
:1058700001460520079B34F0C4FB884890F82000BF
:10588000C8B1844881788448A83003E0FAE21AE27B
:105890005DE180E050F821307E48009380780790E9
:1058A0000998801CC0B2099006900022014605208C
:1058B000079B34F0A6FB794890F82100A0B1754809
:1058C00081787548C03050F8213072480093807854
:1058D00007900998801CC0B20990069000220146EA
:1058E0000520079B34F08DFB6C4890F82200A0B196
:1058F000684881786848D83050F82130654800936E
:10590000807807900998801CC0B209900690002208
:1059100001460520079B34F074FB6048807FE8B99E
:105920005E48C07FD0B95D4890F82000B0B95B48B0
:1059300090F8210090B9594890F8220070B9554864
:105940008178574850F821305248009380780346B8
:10595000002207210790052034F053FB4D48817841
:10596000504850F8210006903CF03AF8C000C0F1D1
:10597000E700C0B20790474881784A4850F8213084
:10598000444800938078034600220D210690079832
:1059900034F037FB2AE303233E4881783E4850F831
:1059A0002120AFF254713B488DE80E008078034609
:1059B000002201210790082034F023FB374890F89B
:1059C0002300A0B1334881783348F03050F82130BB
:1059D00030480093807807900998801CC0B20990E5
:1059E0000690002201460520079B34F00AFB2B4855
:1059F00090F8240098B1274881782B4850F821303E
:105A000024480093807807900998801CC0B20990C0
:105A10000690002201460520079B34F0F2FA1F4849
:105A200090F82500A0B11B4881781F48183050F825
:105A3000213018480093807807900998801CC0B2E4
:105A400009900690002201460520079B34F0D9FA00
:105A5000124890F82600A0B10E48817812483030E4
:105A600050F821300B480093807807900998801CEB
:105A7000C0B209900690002201460520079B34F031
:105A8000C0FA064890F8270008B302488178064813
:105A900048300BE0F0070010083704008849001078
:105AA00030390400B03404001038040050F82130BC
:105AB000FF480093807807900998801CC0B2099035
:105AC0000690002201460520079B34F09AFAF94817
:105AD00090F82300F0B9F74890F82400D0B9F548C1
