:020000040000FA
:1000000000800010CD000000C1AD0300C1AD0300B1
:10001000C1AD0300C1AD0300C1AD0300C1AD03001C
:10002000C1AD0300C1AD0300C1AD030085020000F6
:10003000C1AD030000000000ED020000218B0300B1
:10004000C1AD030023830300F9820300E7820300AC
:10005000D58203009D5E03006D6003004D5B0300CD
:100060006D620300C1AD030071650300C1AD030003
:10007000C1AD0300C1AD0300C1AD0300C1AD0300BC
:10008000C1AD0300C1AD0300C1AD0300C1AD0300AC
:10009000FF7C0300C1AD0300C1AD0300C1AD03008F
:1000A000C1AD0300C1AD0300C1AD0300C1AD03008C
:1000B000C1AD0300C1AD0300C1AD0300C1AD03007C
:1000C000C1AD0300C1AD0300C1AD030000F002F8F3
:1000D00000F0C8F80AA090E8000C82448344AAF11A
:1000E0000107DA4501D100F0BDF8AFF2090EBAE818
:1000F0000F0013F0010F18BFFB1A43F0010318475C
:10010000B4270500F427050010F8013B0A4413F05A
:10011000030408BF10F8014B1D1108BF10F8015B64
:10012000641E05D010F8016B641E01F8016BF9D153
:10013000002D15D010F8014B03F00C030C2BA1EB94
:1001400004040ABF10F8013BA4EB8314A4EB0324BE
:1001500005F1010314F8016B5B1E01F8016BF9D581
:10016000914238BF10F8013BD1D37047103A24BFF9
:1001700078C878C1FAD8520724BF30C830C144BF0C
:1001800004680C607047000000230024002500264E
:10019000103A28BF78C1FBD8520728BF30C148BFEA
:1001A0000B6070476E293FF09B8170293EF082857D
:1001B000662900F012A3652900F00FA3672900F05B
:1001C0000CA36129AFF3008003681B0A28BF41F02C
:1001D000800169293EF0F28464293EF0EF8475299C
:1001E0003EF0EC846F293FF08D8278293EF04E85F9
:1001F000E9293FF02582E4293FF02282F5293FF0EA
:100200001F82EF293FF08A82F8293EF04D8503686E
:10021000DB0928BF41F0800163293FF0A6817329E3
:100220003FF0AB81E3293FF0FE84F3293FF00385E3
:10023000002070471FB540F0C9FA9DE803003FF069
:10024000ADF83FF077FD04000020002140F0A4FA53
:10025000401C60600020002140F088FAE0601FBD73
:1002600010B510BD3FF038FD1146FFF7E3FF00F079
:100270002CF93FF019FE03B4FFF7F2FF03BC3BF08B
:10028000E0F90000052828BF70474FEA8000784455
:10029000D0F802F0ED020000B302000051030000AC
:1002A00071030000910300004FF0010080F31488F7
:1002B00000DF0A4C4FF00105257077463EF08AFBBF
:1002C000BE46074E3668074C2660D6F800D001BC03
:1002D00005490860BDE8F00F704700BF7B060010BD
:1002E0008C06001084060010500600104FF0080223
:1002F00082F3118800B53EF06DFB5DF804EB2DE94B
:10030000F00F0E49086801B40D4A1268C2F800D017
:100310000C4C0D4D2E7826700C4E3668084C26601D
:10032000D6F800D001BC086000280CBF00220822CB
:1003300082F31188BDE8F00F704700BF500600102F
:100340008406001070060010710600108C06001064
:100350000649086800F101004FF0080282F3118895
:10036000002808BF70470860704700BF50060010A3
:100370000649086800281CBF01380860002818BF1B
:1003800070474FF0000282F311887047500600104A
:100390004FF0000080F3148870474FF0010080F3A5
:1003A0001488704788476FF0FF0039F052FF000053
:1003B0001CB5544890F82B200121182037F018FB69
:1003C0000C230222CDE900234FA30E21282037F071
:1003D000E8F91CBD08B500BF37F0C4FC35F0ACFD32
:1003E00035F092FE35F04DFC35F08EFF38F0F4F824
:1003F00036F07BFB4849002038F068F836F046F8C4
:1004000038F068F937F0AEFC00200EF056FA002004
:100410000EF02FF8FFF7CCFF35F076FE0DF006F862
:1004200006233E4A00213E4839F072FE022039F090
:1004300009FD3EF0C9F916F0EDFA022039F002FD8F
:1004400016F010F9022039F0FDFC1EF070FA1EF0D3
:1004500015FB022039F0F6FC1CF043F96A46002136
:10046000304800683AF042F90EF0F8FF17F0C6FA8B
:1004700084212D483EF052FE022039F0E3FC09238E
:100480002A4A00212A4839F043FE022039F0DAFCDA
:100490001AF0D0F8022039F0D5FC0823254A0021B3
:1004A000254839F035FE022039F0CCFC19F09AFBD2
:1004B000C82039F0C7FC07E0002003F0ADFC02E0E3
:1004C000322039F0BFFCFBE7F6E700B585B03AF023
:1004D0007CFC3AF039FC38F076FC0123002219024A
:1004E0001648CDE90323CDE901010723144A002171
:1004F000AFF21F10009339F053FE38F027FD0020B3
:1005000005B000BDC806001076657273696F6E2570
:10051000642E25303264000080A90300BC32001034
:100520004D4402007C000010300A0010BC46001050
:100530002D510300BC42001001980200C00A0010B7
:10054000BC2A0010F8B505460E4614461F460A217F
:10055000002037F003FA022301220B21002037F09C
:10056000CBF9FF480095837800220B21282037F033
:100570006CF8FB488078012807D0F948009683780A
:1005800000220D21282037F060F820463EF0B4FC10
:10059000C8B1022301220B21702037F0ADF9F048D9
:1005A0000094837800220B21982037F04EF8EC4815
:1005B0008078012807D0EA480097837800220D212F
:1005C000982037F042F8F8BD10B501220A2100202A
:1005D00036F070FF03220B21002036F06BFF10BDB8
:1005E00030B58BB0202103A83EF098FDDD4835F0F2
:1005F0006CFF022039F026FCDB480078F0B3D948C4
:1006000035F063FF022039F01DFC02230422012192
:10061000002037F071F9D548D0F8AC1003A83EF0AF
:1006200047FC03AB02220121282037F0BAF8CF485B
:10063000D0F8B41003A83EF03BFC03AB0122032129
:10064000282037F0AEF8C6488078C0EBC00202EB35
:100650000010C64A02EB8000816D03A83EF028FC22
:1006600003ABBF480093837800220521282036F091
:10067000ECFFBB4890F8BC00012800E074E019D101
:10068000BB4880890A2190FBF1F201FB1204B848B3
:10069000808990FBF1F523462A46B6A103A83EF0D7
:1006A00009FA03ABAE480093837800220721282083
:1006B00036F0CBFF0A21002037F050F9AF48C08850
:1006C000A849C98888420BD1AC484079A5494979E5
:1006D000884205D1A948C078A249C978884222D069
:1006E000A048C288A6A103A83EF0E4F903AB022209
:1006F0000B21282037F055F89A48C3784279A2A1F7
:1007000003A83EF0D7F903AB02220D21282037F0D1
:1007100048F89448C0889949C880924840794871FF
:100720009048C078C870954880788E49897888420A
:1007300005D1924840788B494978884213D089483E
:100740004378827893A103A83EF0B4F903AB032267
:100750000B21602037F025F882488078874988701F
:1007600080484078487078E07D48807800EB8000D1
:100770008B4A02EBC000816903A83EF099FB03ABF2
:1007800077480093837800220221482036F05DFFED
:10079000734890F8BC00012819D1754880890A2156
:1007A00090FBF1F201FB12047148808990FBF1F596
:1007B00023462A466FA103A83EF07CF903AB6848A4
:1007C0000093837800220521AA2036F03EFF6B4873
:1007D000C0886449C98888420BD16848407961491A
:1007E0004979884205D16548C0785E49C978884210
:1007F00015D05C48C3784279C1888DE80E0069A3A2
:1008000002220621502036F0CCFF5648C0885B49B2
:10081000C8805448407948715248C078C8705748D9
:10082000807850498978884205D1544840784D49AC
:100830004978884211D04B4843788278CDE900232B
:1008400054A3042208213C2036F0ABFF45488078B1
:100850004A4988704348407848700BB030BD30B585
:1008600089B0202101A83EF059FC3E4835F02DFE0C
:10087000022039F0E7FA022303220121002037F099
:100880003BF837488078C0EBC00202EB0010374AD3
:1008900002EB8000C16C01A83EF00AFB01AB3048BE
:1008A0000093837800220121282036F0CEFE2C48C8
:1008B0008078C0EBC00202EB00102C4A52F82010E6
:1008C00001A83EF0F5FA01AB254800938378002299
:1008D0000321282036F0B9FE214890F8BC000128F9
:1008E00019D1234880890A2190FBF1F201FB1204FF
:1008F0001F48808990FBF1F523462A461DA101A8D7
:100900003EF0D8F801AB1648009383780022052109
:10091000282036F09AFE0A21002037F01FF81748E9
:10092000C0881049C98888420BD1144840790D49C4
:100930004979884205D11148C0780A49C978884266
:100940004ED00848C2880EA101A83EF0B3F801AB12
:1009500002220B21282036F024FF0248C37829E028
:10096000C8060010000000101C000010D801001084
:10097000D450001025642E25642092000800001039
:100980002530346400000000253032642D253032DB
:1009900064000000253032643A25303264000000E3
:1009A00010010010253034642D253032642D25309F
:1009B000326400004279AFF2300101A83EF07AF8CB
:1009C00001AB02220D21282036F0EBFEF948C08849
:1009D000F949C880F74840794871F648C078C8702E
:1009E000F5488078F3498978884205D1F248407803
:1009F000F0494978884214D0EE4843788278AFF2C3
:100A00006C0101A83EF056F801AB03220B216020D7
:100A100036F0C7FEE7488078E7498870E5484078B7
:100A2000487009B030BD10B50246012904D0E34B2F
:100A300093F89930012B2CD11378412B0BD153789B
:100A4000303B03EB8303642404EB43049378303B93
:100A5000234498B228E01378422B0BD15378303BD3
:100A600003EB8303C82404EB43049378303B234413
:100A700098B219E01378303B642463435478303CD7
:100A800004EB840403EB44049378303B234498B292
:100A90000AE01378303B03EB8303642404EB430444
:100AA0005378303B234498B210BD30B502460B78E2
:100AB000303B4FF47A7463434C78303C04EBC4050C
:100AC00005EB041403EB84041378303B03EB83033E
:100AD00004EB43045378303B234498B230BD0EB549
:100AE00035F0EEFFB348C3784279C1888DE80E0037
:100AF000AFF2501302221146502036F052FEAD489C
:100B000043788278CDE90023AFF2781304221146AE
:100B10003C2036F046FE0EBD10B50020A8490870F6
:100B2000A8490870A84800210180A8480180817068
:100B30000020A7498870A748006838F043FF10BD1F
:100B4000A5480068A54909680844A54909680844FA
:100B5000A4490968084470472DE9F04F95B006464E
:100B60000F4620210DA83EF0D9FA202105A83EF01D
:100B7000D5FA4FF00009002004900024002580469B
:100B8000387802281DD13078432802D030784528A3
:100B900017D100208A4908708C480021018081709B
:100BA000FFF7CEFF18B103208F49087006E0FFF76A
:100BB000B3FFFFF709FD00208B49087015B0BDE8B1
:100BC000F08F387802286FD132787D48017800782C
:100BD000401C7B4B18707D4842547848807800EB6D
:100BE0008000824A52F830100DA83EF061F9734837
:100BF00090F83100012813D1744800782E2803D1D1
:100C000041207249087006E070480078442802D1FB
:100C100042206E4908706D490DA83EF0D2F903E0FC
:100C20006A490DA83EF0CDF97048816A05A83EF0EA
:100C30003FF9664905A83EF0C4F9AFF2B823AFF218
:100C4000BC2205A90DA8FFF77DFC5C4890F8310097
:100C5000012804D0594890F89900012877D15848C4
:100C6000007803281FDB554890F83100E8B9574851
:100C700000782E2813D05548007844280FD05348C8
:100C800040782E280BD051484078442807D04F4850
:100C900080782E2803D04D488078442805D14FF025
:100CA00005090120049039E244E1484840782E28A3
:100CB0000BD046484078442807D0444880782E28F6
:100CC00003D042488078442804D14FF00509012020
:100CD000049023E2394890F831103C48FFF7A3FE16
:100CE0000446642094FBF0F000F0FF0A642094FBBB
:100CF000F0F100FB114000F0FF0B514658461BF08D
:100D0000E8FD00F0FF092D4890F82F00022827D1B8
:100D1000642094FBF0F000F0FF0A642094FBF0F1F3
:100D200000FB114000F0FF0B52465946012018F01D
:100D3000ECFB0020224908702448002101808170CA
:100D4000FFF7FEFE20B103202749087007E05AE0B4
:100D5000FFF7E2FEFFF738FC0020234908702DE77B
:100D6000164890F82F0004284AD1642094FBF0F133
:100D700000FB114000F0FF0A642094FBF0F000F04B
:100D8000FF0B514658461CF089FB8046B8F1000F16
:100D900002D0404618F0FBFE0020094908700B48BD
:100DA000002101808170FFF7CBFE08B303200E49BC
:100DB000087024E00000001008000010C8060010B1
:100DC000190000101A000010170000101400001085
:100DD0004C090010940000102000001024000010A6
:100DE000280000102C0000101B0000101001001043
:100DF000FFF792FEFFF7E8FB0020F9490870DDE6F7
:100E0000012004908AE1F7480078022813DBF648B5
:100E100000782E280BD0F4480078442807D0F248F8
:100E200040782E2803D0F0484078442804D14FF071
:100E300005090120049071E1EC4890F83110EA486E
:100E4000FFF7F1FD0446642094FBF0F000F0FF0A88
:100E5000642094FBF0F100FB114000F0FF0B5146C1
:100E600058461BF036FD00F0FF092146E0A016F0C1
:100E700091FFDE4890F82F00022826D1642094FBD1
:100E8000F0F000F0FF0A642094FBF0F100FB114049
:100E900000F0FF0B52465946012018F036FB0020A7
:100EA000D0490870D048002101808170FFF748FECA
:100EB00018B10320CA49087006E0FFF72DFEFFF7BE
:100EC00083FB0020C649087078E6C84890F82F00D8
:100ED00004282CD1642094FBF0F100FB114000F0B9
:100EE000FF0A642094FBF0F000F0FF0B51465846D7
:100EF0001CF0D4FA8046B8F1000F02D0404618F03A
:100F000046FE0020B7490870B74800210180817073
:100F1000FFF716FE18B10320B149087006E0FFF78D
:100F2000FBFDFFF751FB0020AD49087046E60120AC
:100F30000490F3E0387801280AD13278012108467C
:100F40001BF0EFFB044624B94FF002090120049086
:100F5000E4E0A4480078002804DD4FF005090120F2
:100F60000490DBE0A14890F83100012823D1412111
:100F70009C4802780078401C9A4B18709A4881541B
:100F80000A2094FBF0F03030C1B2184602780078A5
:100F9000401C1870944881540A2094FBF0F100FB27
:100FA00011403030C1B2184602780078401C1870E9
:100FB0008D4881541AE00A2094FBF0F03030C2B220
:100FC000884801780078401C864B18708648425447
:100FD0000A2094FBF0F100FB11403030C1B21846FA
:100FE00002780078401C18707F4881547F488078D0
:100FF00000EB8000844A52F830100DA83DF058FFF5
:1010000079490DA83DF0DDFF7F48816A05A83DF0D4
:101010004FFF754905A83DF0D4FFAFF29863AFF2DA
:101020009C6205A90DA8FFF78DFA704890F8311061
:101030006D48FFF7F8FC0446642094FBF0F000F0E4
:10104000FF0A642094FBF0F100FB114000F0FF0B5D
:10105000514658461BF03DFC00F0FF09634890F8EC
:101060002F00022826D1642094FBF0F000F0FF0A44
:10107000642094FBF0F100FB114000F0FF0B52469E
:101080005946012018F041FA002056490870564888
:10109000002101808170FFF753FD18B103205049F2
:1010A000087006E0FFF738FDFFF78EFA00204C4984
:1010B000087083E54D4890F82F0004282CD1642057
:1010C00094FBF0F100FB114000F0FF0A642094FB58
:1010D000F0F000F0FF0B514658461CF0DFF9804657
:1010E000B8F1000F02D0404618F051FD00203D49F4
:1010F00008703D48002101808170FFF721FD18B183
:1011000003203749087006E0FFF706FDFFF75CFA99
:1011100000203349087051E501200490049878B309
:10112000B9F1060F34D2DFE809F0A97A0334047963
:1011300000BF2E48807800EB8000334A02EBC000ED
:1011400041690DA83DF0B4FE2F48C16B05A83DF0E4
:10115000AFFEAFF2D073AFF2D47205A90DA8FFF7BE
:10116000F1F94FF4C87038F06DFEFFF7E9FC40B1BB
:101170001D4800210180817003201949087007E093
:101180004BE1FFF7C9FCFFF71FFA00201449087074
:101190003FE11648807800EB80001B4A02EBC0005C
:1011A00001690DA83DF084FE1748816B05A83DF04C
:1011B0007FFEAFF63003AFF6340205A90DA8FFF7A6
:1011C000C1F94FF4C87038F03DFEFFF7B9FCE8B143
:1011D00005480021018081700320014908701CE04E
:1011E0001B0000101900001014000010C8060010A9
:1011F0000D0A2041505055626F7842746E636C6FD7
:10120000756D6E3D2564000010010010FFF784FC31
:10121000FFF7DAF90020FB490870FAE000BFFA484E
:10122000807800EB8000F94A02EBC00041680DA80D
:101230003DF03EFEF548C16A05A83DF039FEAFF627
:10124000BC03AFF6C00205A90DA8FFF77BF94FF468
:10125000C87038F0F7FDFFF773FC38B1EC48002197
:10126000018081700320E749087006E0FFF754FC15
:10127000FFF7AAF90020E3490870CAE0642094FB54
:10128000F0F000F0FF0A642094FBF0F100FB114045
:1012900000F0FF0B5246012158461BF022FBDD49AE
:1012A000086008460568D84890F82700A8B30128C8
:1012B00034D0022830D16420B5FBF0F100FB115A84
:1012C000B5FBF0FBD048807800EB8000CF4901EB04
:1012D000C000C168CC48CDE901BA0091807800EB2C
:1012E0008000CA4901EBC000C94BCBA1C2690DA85F
:1012F0003DF0E0FB6420B5FBF0F100FB115AB5FBBB
:10130000F0FBC248416BCDE901BA0091C04BC2A1CC
:10131000426C05A83DF0CEFB5BE033E00A20B5FB54
:10132000F0F5B5FBF0F100FB115AB5FBF0FBB64848
:10133000807800EB8000B54901EBC000C168B2487D
:10134000CDE901BA0091807800EB8000AF4901EB54
:10135000C000AF4BB5A1C2690DA83DF0ABFB0A20A0
:10136000B5FBF0F100FB115AB5FBF0FBA748416B50
:10137000CDE901BA0091A64BACA1426C05A83DF0A5
:1013800099FB26E06420B5FBF0FA9F48807800EBDB
:1013900080009E4901EBC000C2689B48CDE9002A4D
:1013A000807800EB800001EBC000994BA3A1C269DB
:1013B0000DA83DF07FFB6420B5FBF0FA9348426B2B
:1013C000CDE9002A924B9DA1426C05A83DF072FB2D
:1013D00000BF00BFAFF65423AFF6582205A90DA8F1
:1013E000FFF7B0F8C82038F02DFDFFF7A9FB28B1B2
:1013F0009548048005208349087009E0C82038F02A
:1014000021FDFFF789FBFFF7DFF800207D49087019
:1014100000BF00BF00208D49087000BF9FE42DE988
:10142000F04F93B0064620210BA83DF077FE202117
:1014300003A83DF073FE0027B846B94600240025F6
:10144000307843281BD100208049087080490870FB
:101450006F480021018081707E480180FFF770FB9A
:1014600018B103206749087006E0FFF755FBFFF746
:10147000ABF800206349087013B0BDE8F08F7448E2
:101480000078F0BB3078452829D032786F48017851
:101490000078401C6D4B18706E4842545A48807852
:1014A00000EB80006C4A02EB0010816C0BA83DF051
:1014B000FFFC68490BA83DF084FD6748D0F8981000
:1014C00003A83DF0F5FC634903A83DF07AFDAFF6B3
:1014D0004C33AFF6503203A90BA8FFF733F85B4843
:1014E0000078022857DB5B480078302839DB594800
:1014F0000078392835DC57484078302831DB5548AA
:1015000000E0C9E0407839282BDC01205049087000
:1015100000204E4908703E480021018081704D49ED
:101520000BA83DF0C5FC3848807800EB80004A4AA3
:1015300002EB0010C16C0BA83DF043FD454903A828
:101540003DF0B6FC4448D0F89C1003A83DF039FDAE
:10155000AFF6D033AFF6D43203A90BA8FEF7F2FFF3
:10156000D2E1002039490870394908702848002123
:101570000180817037480180FFF7E2FA18B103203B
:101580002049087006E0FFF7C7FAFFF71DF80020B2
:101590001C49087070E73078452832D12D48007812
:1015A00030285FDB2B48007839285BDC294800783D
:1015B0002849487030200870012025490870002013
:1015C0002249087012480021018081700E488078FD
:1015D00000EB8000204901EB00101E4A1FA1C36CE4
:1015E0000BA83DF067FA1C481A4A1CA1D0F89C30A1
:1015F00003A83DF05FFA1AA319A203A90BA8FEF7EE
:10160000A1FF81E11B000010C806001010010010AE
:10161000140000103400001025732025732C25734E
:10162000253032642E2530326400000025732025D9
:10163000732C257325642E25640000002573202556
:10164000732C257325640000300000101900001071
:101650001A00001017000010A40300102573257352
:10166000000000000020FC490870FC490870FC489C
:10167000002101808170FB480180FFF761FA18B1F9
:101680000320F949087006E0FFF746FAFEF79CFFD1
:101690000020F5490870EFE6F048007801287ED177
:1016A0003078452835D03178EB4802780078401CF6
:1016B000E94B1870EA488154EA4840783038E949E3
:1016C0000978303901EB810100EB410000F0FF099E
:1016D000E34BE6480093807800EB8000E44901EB9F
:1016E00000104A46E3A1C36C0BA83DF0E3F9DC4BC4
:1016F000DF4800934A46DFA1D0F89C3003A83DF0B4
:10170000D9F9AFF2A403AFF2A80203A90BA8FEF720
:1017100019FFD1480078022875DBD14800783028BD
:1017200056DBCF480078392852DCCD484078302845
:101730004EDBCB48407839284ADCCA49C848FFF715
:10174000B4F90446642094FBF0F000F0FF0A642032
:1017500094FBF0F100FB114000F0FF0B514658469E
:101760001BF0B7F8C7B2C14890F82F0002282CD15F
:10177000642094FBF0F000F0FF0A642094FBF0F189
:1017800000FB114000F0FF0B52465946012017F0B4
:10179000BCFE0020B0490870B049087000E08BE042
:1017A000AF48002101808170AE480180FFF7C8F981
:1017B00018B10320AC49087006E0FFF7ADF9FEF759
:1017C00003FF0020A849087056E64FF001089BE08F
:1017D0000020A1490870A1490870A148002101809A
:1017E0008170A0480180FFF7ABF918B103209E4932
:1017F000087006E0FFF790F9FEF7E6FE00209A4930
:10180000087039E6FFE7307845287DD194480078A4
:10181000302852DB9248007839284EDC9048007816
:101820008F494870302008708E498D48FFF73DF988
:101830000446642094FBF0F000F0FF0A642094FB5F
:10184000F0F100FB114000F0FF0B514658461BF031
:1018500040F8C7B2854890F82F0002282AD16420AA
:1018600094FBF0F000F0FF0A642094FBF0F100FB21
:10187000114000F0FF0B52465946012017F045FE7B
:10188000002075490870754908707548002101806D
:10189000817074480180FFF753F918B10320724931
:1018A000087006E0FFF738F9FEF78EFE00206E495B
:1018B0000870E1E54FF0010826E000206649087055
:1018C00067480021018081706848807800EB8000C3
:1018D000674901EB0010634AAFF28021C36C0BA88B
:1018E0003DF0E8F862485F4AAFF29021D0F89C30B2
:1018F00003A83DF0DFF8AFF29823AFF29C2203A9D2
:101900000BA8FEF71FFEB7E5B8F1000F73D0062F46
:101910003AD2DFE807F0BD72033A047100BF5348C2
:10192000807800EB8000554A02EBC00041690BA8AB
:101930003DF0BEFA5148C16B03A83DF0B9FAAFF2D1
:10194000E023AFF2E42203A90BA8FEF7FBFD4FF45E
:10195000C87038F077FAFFF7F3F870B100203E490D
:1019600008703E4908703F48002101803C480180D2
:10197000817003203C49087006E0FFF7CDF8FEF7C0
:1019800023FE00203849087053E13848807800EB86
:1019900080003A4A02EBC00001690BA83DF088FACA
:1019A0003648816B03A83DF083FAAFF24C33AFF2B7
:1019B000503203A90BA8FEF7C5FD4FF4C87038F0EC
:1019C00041FAFFF7BDF870B10020234908702349A0
:1019D0000870244800210180214801808170032083
:1019E0002149087006E0FFF797F8FEF7EDFD0020AB
:1019F0001D4908701DE122E100BF1C48807800EB02
:101A000080001E4A02EBC00041680BA83DF050FA6E
:101A10001A48C16A03A83DF04BFAAFF2BC33AFF2EB
:101A2000C03203A90BA8FEF78DFD4FF4C87038F043
:101A300009FAFFF785F870B10020074908700749D7
:101A4000087008480021018005480180817003204A
:101A5000054908701BE013E0190000101A0000107F
:101A600014000010170000101B000010C806001022
:101A7000A4030010256425732573000010010010D5
:101A8000FFF74AF8FEF7A0FD0020FD490870D0E0FE
:101A9000642094FBF0F000F0FF0A642094FBF0F166
:101AA00000FB114000F0FF0B5246012158461AF08E
:101AB00018FFF449086008460568F34890F82700C5
:101AC000B8B3012836D0022832D16420B5FBF0F13A
:101AD00000FB115AB5FBF0FBEB48807800EB80006F
:101AE000EA4901EBC000C168E748CDE901BA0091BD
:101AF000807800EB8000E54901EBC000E44BAFF2D9
:101B0000E841C2690BA83CF0D5FF6420B5FBF0F1B9
:101B100000FB115AB5FBF0FBDC48416BCDE901BA83
:101B20000091DB4BAFF21051426C03A83CF0C2FFB6
:101B30005FE035E00A20B5FBF0F5B5FBF0F100FB06
:101B4000115AB5FBF0FBD048807800EB8000CF49FC
:101B500001EBC000C168CC48CDE901BA00918078A2
:101B600000EB8000C94901EBC000C94BAFF2445102
:101B7000C2690BA83CF09EFF0A20B5FBF0F100FB08
:101B8000115AB5FBF0FBC148416BCDE901BA009198
:101B9000BF4BAFF26851426C03A83CF08BFF28E0CA
:101BA0006420B5FBF0FAB848807800EB8000B749B4
:101BB00001EBC000C268B448CDE9002A807800EB90
:101BC000800001EBC000B24BAFF29051C2690BA88C
:101BD0003CF070FF6420B5FBF0FAAC48426BCDE9F5
:101BE000002AAB4BAFF2AC51426C03A83CF062FF51
:101BF00000BF00BFAFF29853AFF29C5203A90BA8ED
:101C0000FEF7A0FCC82038F01DF9FEF799FF28B1B7
:101C1000A048048005209A49087009E0C82038F0DF
:101C200011F9FEF779FFFEF7CFFC00209449087008
:101C300000BF00BF0020984908709849087000BF95
:101C40001AE42DE9F041A4B006460D4620211CA857
:101C50003DF064FA202114A83DF060FA20210CA880
:101C60003DF05CFA202104A83DF058FA022038F03B
:101C7000E9F8FEF765FF0446EEBB8348807801284B
:101C800014D08748036D8048807800EB8000844939
:101C900001EB001083A102687B488DE80E00837879
:101CA000002202214C2035F0D0FC0CE07C48AFF241
:101CB0003822036D7448CDE9002383780022022185
:101CC000602035F0C2FC04221146002035F0F2FB02
:101CD0006D48807828B90223002205212C2035F098
:101CE0000BFE694890F8270048B3012814D0022859
:101CF00031D1642000E05CE0B4FBF0F100FB11475F
:101D0000B4FBF0F8AFF2E863042211464C20CDE9B1
:101D1000008735F046FD1EE00A20B4FBF0F4B4FB6A
:101D2000F0F100FB1147B4FBF0F8AFF2F8630422C6
:101D300011464C20CDE9008735F033FD0BE06420DF
:101D4000B4FBF0F7AFF20473042211464C20009765
:101D500035F027FD00BF00BF012D11D14A48807822
:101D600000EB80004E4A02EB0010816C1CA83DF095
:101D70009FF84B48D0F8981014A83DF099F80FE060
:101D80004148807800EB8000454A02EB0010016971
:101D90001CA83DF08DF84248016E14A83DF088F86B
:101DA000AFF24473AFF2487214A91CA8FEF7CAFB45
:101DB000C3E035488078012814D03948436D324853
:101DC000807800EB8000364901EB001035A14268B5
:101DD0002D488DE80E008378002202214C2035F03A
:101DE00034FC12E02848807800EB80002C4901EB9D
:101DF0000010AFF27C3243682348CDE9002383789A
:101E000000220221602035F020FC0422114600202F
:101E100035F050FB1C48807828B9022300220521A8
:101E20002C2035F069FD184890F8270038B30128B8
:101E300012D0022846D16420B4FBF0F100FB114718
:101E4000B4FBF0F8AFF62803042211464C20CDE98C
:101E5000008735F0A6FC35E00A20B4FBF0F4B4FBB3
:101E6000F0F100FB1147B4FBF0F8AFF638030422A1
:101E700011464C20CDE9008735F093FC22E015E0B7
:101E80001B00001034000010C806001010010010E4
:101E90001400001030000010190000101A0000108B
:101EA000A403001025732F25730000006420B4FBE9
:101EB000F0F7AFF67003042211464C20009735F07E
:101EC00070FC00BF00BF012D11D1FF48807800EBEE
:101ED0008000FE4A02EB0010816C1CA83CF0E8FF79
:101EE000FA48D0F8981014A83CF0E2FF1FE0F6483A
:101EF000807800EB8000F54A02EB001041691CA8D5
:101F00003CF0D6FFF148416E14A83CF0D1FFEE48FA
:101F1000807800EB8000ED4A02EB001081690CA88C
:101F20003CF0C6FFE948816E04A83CF0C1FF04AB59
:101F30000CAA14A91CA8FEF705FB24B0BDE8F0818B
:101F400000B591B0202109A83DF0E8F8202101A8B2
:101F50003DF0E4F8DC48807800EB8000DB4A02EBDF
:101F60000010816809A83CF0A3FFD848816D01A842
:101F70003CF09EFFAFF61813AFF61C1201A909A89A
:101F8000FEF7E0FA11B000BD70B598B0044620210C
:101F900010A83DF0C3F8202108A83DF0BFF820218B
:101FA00068463DF0BBF8C848807800EB8000C74A1F
:101FB00002EB0010C16868463CF07AFFC348C16D6F
:101FC00008A83CF075FFC04890F8270018B3012816
:101FD00010D0022829D16420B4FBF0F100FB114598
:101FE000B4FBF0F62B463246AFF6CC1110A83CF00D
:101FF00061FD1AE00A20B4FBF0F4B4FBF0F100FB41
:102000001145B4FBF0F62B463246AFF6D81110A8B6
:102010003CF050FD09E06420B4FBF0F52A46AFF631
:10202000DC1110A83CF046FD00BF00BF10A96846B7
:102030003CF0C7FFAFF6D813AFF6DC1208A968462C
:10204000FEF780FA4FF4C87037F0FCFE18B070BD90
:1020500000B591B0202109A83DF060F8202101A829
:102060003DF05CF89848807800EB8000974A02EBDE
:102070000010816B09A83CF01BFF9448D0F8881031
:1020800001A83CF015FFAFF62823AFF62C2201A9DA
:1020900009A8FEF757FA4FF4C87037F0D3FE11B015
:1020A00000BD00B591B0202109A83DF037F82021EE
:1020B00001A83DF033F88448807800EB8000834A23
:1020C00002EB0010C16B09A83CF0F2FE7F48D0F88B
:1020D0008C1001A83CF0ECFEAFF67C23AFF680221A
:1020E00001A909A8FEF72EFA142037F0ABFE11B0B3
:1020F00000BD00B591B0202109A83DF00FF82021C6
:1021000001A83DF00BF87048807800EB80006F4A22
:1021100002EB0010016C09A83CF0CAFE6B48D0F835
:10212000901001A83CF0C4FEAFF6CC23AFF6D0224D
:1021300001A909A8FEF706FA4FF4C87037F082FE2D
:1021400011B000BD10B590B0202108A83CF0E6FF0A
:10215000202168463CF0E2FF5D480088642190FB46
:10216000F1F201FB12045848807800EB80005749D7
:1021700001EB0010224657A1C36A08A83CF09AFC64
:1021800053480088642190FBF1F201FB12044F4890
:10219000224650A1C36F68463CF08CFCAFF640333A
:1021A000AFF64432694608A8FEF7CCF910B010BD6E
:1021B00000B591B0202109A83CF0B0FF202101A872
:1021C0003CF0ACFF4048807800EB80003F4901EBD9
:1021D0000010AFF25C71C26A09A83CF06BFC3B488E
:1021E000AFF26C71C26F01A83CF064FCAFF69033A3
:1021F000AFF6943201A909A8FEF7A4F911B000BD09
:1022000000B591B0202109A83CF088FF202101A849
:102210003CF084FF2C48807800EB80002B4A02EBD6
:102220000010016B09A83CF043FE2848D0F880104C
:1022300001A83CF03DFEAFF6D833AFF6DC3201A981
:1022400009A8FEF77FF9642037F0FCFD11B000BD4E
:1022500000B591B0202109A83CF060FF202101A821
:102260003CF05CFF1848807800EB8000174A02EBD6
:102270000010416B09A83CF01BFE1448D0F88410F4
:1022800001A83CF015FEAFF62843AFF62C4201A999
:1022900009A8FEF757F94FF4C87037F0D3FD11B015
:1022A00000BD00B591B0202109A83CF037FF2021E6
:1022B00001A83CF033FF0448807800EB8000074A17
:1022C00052F8201009A80BE0C8060010A403001063
:1022D0003000001025642025730000003405001034
:1022E0003CF0E6FDFF48416901A83CF0E1FDAFF696
:1022F0009043AFF6944201A909A8FEF723F911B063
:1023000000BD00B591B0202109A83CF007FF2021B5
:1023100001A83CF003FFF448807800EB8000F14A0C
:1023200002EB8000816809A83CF0C2FDED48C1695C
:1023300001A83CF0BDFDAFF6D843AFF6DC4201A9E1
:1023400009A8FEF7FFF8642037F07CFD11B000BD4E
:1023500070B592B0044620210AA83CF0DFFE20218F
:1023600002A83CF0DBFEE04890F8270088B3012883
:1023700017D002283FD16420B4FBF0F100FB1145D7
:10238000B4FBF0F6D8480095807800EB8000D54982
:1023900001EB80003346D5A142680AA83CF08AFBD5
:1023A00029E00A20B4FBF0F4B4FBF0F100FB114586
:1023B000B4FBF0F6CC480095807800EB8000C9496A
:1023C00001EB80003346CCA142680AA83CF072FBC6
:1023D00011E0FFE76420B4FBF0F5C348807800EB20
:1023E0008000C04901EB80002B46C5A142680AA8C5
:1023F0003CF060FB00BF00BFBA48816902A83CF016
:1024000057FDC0A3BFA202A90AA8FEF79BF84FF48C
:102410007A7037F017FD12B070BD00B589B0202179
:1024200001A83CF07BFE34F04BFB022037F00AFDA4
:10243000AC48016A01A83CF03BFD01AB0322052139
:10244000302035F0AEF9A8488078012813D0A6488E
:10245000807800EB8000A34A02EB8000016901A8AC
:102460003CF026FD01ABA0480093837800220B21AD
:102470003C2035F0EAF809B000BDA3480068704779
:1024800070B506460C461546974890F82300C8B12B
:10249000012E02D0022E14D109E09CA015F06AFB97
:1024A00014F0DAF90121084614F06CFE09E09BA053
:1024B00015F060FB14F0BDF90021012014F062FE5C
:1024C00000BF00BF884890F82100C8B1012C02D09D
:1024D000022C14D109E095A015F04CFB14F01FFB61
:1024E0000121022014F04EFE09E094A015F042FBF9
:1024F00014F0FAFA0021022014F044FE00BF00BFDD
:10250000794890F8260058B1012D02D0022D06D14D
:1025100002E01CF005FB02E01CF0F1FA00BF00BF76
:10252000142037F08FFC70BD10B5FEF709FBF0B931
:1025300086480078D8B98648407A012817D1FEF736
:10254000FFFA04468248437A80480278214681A0F7
:1025500015F010FB14F038F9142037F073FC00224A
:1025600011460120FFF78CFF142037F06BFC10BDE3
:1025700000207D49C8804871C8708870487001206B
:102580007A4988707047FEB50026574890F82200B7
:10259000022873D17648406F7549B1F8C01048439E
:1025A00073498A6FB1F8C21002FB01017048C26F13
:1025B000B0F8C40002FB00116D48D0F88020B0F8DC
:1025C000C60002FB00116A48D0F88420B0F8C800A9
:1025D00002FB00116648D0F88820B0F8CA0002FB60
:1025E00000116348D0F88C20B0F8CC0002FB001139
:1025F0005F48D0F89020B0F8CE0002FB00115C4894
:10260000D0F89420B0F8D00002FB00115848D0F860
:102610009820B0F8D20002FB00115548D0F89C2059
:10262000B0F8D40002FB00115148D0F8A020B0F857
:10263000D60002FB00114E48D0F8A420B0F8D80014
:1026400002FB00114A48D0F8A820B0F8DA0002FBDB
:1026500000114748D0F8AC20B0F8DC0002FB0011B4
:102660004348D0F8B020B0F8DE0002FB00151E4849
:1026700090F82500022813D100240FE0BCE03D486B
:1026800050F8240040B13B4850F824101C3030F87A
:10269000140001FB00552646601CC4B2072CEEDB7B
:1026A0001148806BA84202D20F48806B00E0284698
:1026B000314908600C48D0F8C030084602682D48FF
:1026C000CDE90052029350F826002A4F1C3737F804
:1026D000167000FB07F32648806F254FB7F8C270CD
:1026E0004CE0000034050010C806001025732530AA
:1026F00032642E2530326400257325642E25640053
:1027000025732564000000002C0000100D0A2041F4
:102710007070656E42696C6C000000000D0A20410B
:10272000707064697342696C6C0000000D0A20418E
:102730007070656E436F696E000000000D0A2041E5
:102740007070646973436F696E0000001C000010B4
:10275000544800100D0A2045727242696C6C3D2588
:10276000642C25642C256400080000104C0900101E
:1027700014080010200900103C00001000FB07F2B4
:10278000F448406FF34FB7F8C07000FB07F1F2A0B8
:1027900015F0F0F9FF48D0F8C000FF4909688842F9
:1027A00015D9012014F0F8FC012824D1F94890F83B
:1027B000230000B3002211460220FFF761FE012032
:1027C000F649087034F07CF9FFF7D2FEB7E001203B
:1027D00014F0E2FC78B9EF4890F8230058B10022D9
:1027E00011460120FFF74CFE0020EC49087034F040
:1027F00067F9FFF7BDFEA2E0E64890F82200012845
:1028000027D1E44890F8250002280AD1002406E0E8
:10281000E34850F8240000B12646601CC4B2072CDF
:10282000F6DB14F090FB10B9DA48806B00E0002072
:10283000D9490860DA4850F82600D94A1C3232F8E3
:10284000162000FB02F1D4480268D6A015F092F9D8
:1028500075E0D04890F82200E8BBCE4890F82500FB
:10286000022863D100240EE0CD4850F8240040B186
:10287000CB4850F824101C3030F8140001FB0055F0
:102880002646601CC4B2072CEEDBC248806BA8420F
:1028900002D2C048806B00E02846BF490860BD48AE
:1028A000D0F8C030BE48009350F82600BC4A1C3215
:1028B00032F8162000FB02F1B7482A460368C0A090
:1028C00015F058F9B348D0F8C000B34909688842F8
:1028D00017D9012000E028E014F05EFC01282ED179
:1028E000AC4890F8230000B3002211460220FFF705
:1028F000C7FD0120A949087034F0E2F8FFF738FE5F
:102900001DE0012014F048FC78B9A24890F823009B
:1029100058B1002211460120FFF7B2FD00209F4967
:10292000087034F0CDF8FFF723FE08E09948806B7B
:1029300099490860AF480168AFA015F01BF9FFF78F
:10294000F3FD0020FEBD014669B9924A92F82E209F
:102950000F32FF2A01DDFF2203E08E4A92F82E207B
:102960000F32D0B20CE001290AD18A4A92F82E2007
:10297000FF2A01DDFF2202E0864A92F82E20D0B223
:10298000704770B5834890F8210018B314F063F8CD
:102990000446FCB19D48006820449C490860FEF74D
:1029A000CFF805460246214699A015F005F9022206
:1029B00000210846FFF764FD0121204614F0EAFCDF
:1029C000FEF7BEF805460246A1B2012016F055FA00
:1029D000012070BD6F4890F8230090B313F0A4FE5F
:1029E000044674B3214690A015F0C4F892480068DC
:1029F0000119804803686848026890A015F0BAF889
:102A00008D48006820446449096888421AD213F04E
:102A1000A3FE90B1884800682044874908600221DD
:102A2000204614F0B7FCFEF78BF805460246A1B22B
:102A3000022016F022FA002452E013F0C5FE002016
:102A4000C7E761E0534890F8240001283DD1FFF723
:102A500077FAFEF775F828B34FF4AF7037F0F2F954
:102A60000020FFF770FF7E49887103207D490870C0
:102A700000207D4908707D4908707D480021018053
:102A80007C48018081707C48006836F09BFF002004
:102A90007A4908607A4801780020FFF7D2F813F0ED
:102AA00093FE0EE0FEF738F800206E49087013F030
:102AB0008BFE4FF4C87037F0C5F9FDF785FDFFF7C1
:102AC00057FD00206F49086083E76E480460FEF7F9
:102AD00037F805460246A1B2032016F0CEF90024CD
:102AE0005548006820442C490968884205D30222D1
:102AF00000211046FFF7C4FC04E002220021084632
:102B0000FFF7BEFC012064E7224890F82600F0B1F0
:102B10005D481BF0C4FF04465B480078012817D1CC
:102B2000B4B1214659A015F08BF85E48046003212A
:102B3000204614F02FFC002202210846FFF7A0FCDB
:102B4000FDF7FEFF05460246A1B20520ACE0C6E057
:102B5000AEE00000140800100D0A41707043686177
:102B60006E676520353D256C642C313D256C642CE9
:102B70007265633D256C642C6D6F6E65793D256CC7
:102B8000642C6D61783D256C642C62696C6C3D250C
:102B90006C640000C80600103C0000101C0000100F
:102BA000200900100D0A4170704368616E6765204E
:102BB0007265633D256C642C6D61783D256C640005
:102BC0000D0A4170704368616E6765207265633DF0
:102BD000256C642C636F696E4D6F6E65793D256C55
:102BE000642C6D61783D256C642C62696C6C3D25AC
:102BF0006C640000400000100D0A41707043686171
:102C00006E6765206D61783D256C640020000010C2
:102C10000D0A417070636F696E312E636F696E3D8E
:102C2000256C642C256C64000D0A322E4170706294
:102C3000696C6C3D256C6400240000100D0A417025
:102C40007062696C6C3D256C642C4D6F6E65793DCE
:102C5000256C642C70726963653D256C640D0A00F7
:102C60004C0900101B000010190000101A00001081
:102C70001700001014000010940000103400001021
:102C80003900001028000010440000100D0A2041F7
:102C90007070526561646572312E726561643D25A4
:102CA0006C6400002C00001016F0E7F8012090E69C
:102CB000F9480078022812D1F8A014F0C1FFFDF7FE
:102CC0003FFF85B200232A461946022015F02CF951
:102CD0000020F1490870F8490860022079E60020D8
:102CE00077E62DE9F0410026F44890F82500022807
:102CF00058D1FDF725FF0646F6B33146F0A014F093
:102D000039FF00244BE0F34850F82400A8B3F14801
:102D100050F82400B6FBF0F0C5B22946EEA014F03E
:102D200029FFEC481C3030F81400A84201DB28468B
:102D300003E0E8481C3030F81400C5B22946EBA087
:102D400014F018FFE34951F8241001FB05F013F0CB
:102D5000D4FD0746012F1FD1E9480068E9490968F9
:102D60000144DC4850F8240000FB15160020E5491A
:102D70000860E348066001E014E00EE03146E2A09E
:102D800014F0F8FED34850F82400684382B233466A
:102D90000021012015F0C8F803E0601CC4B2072C24
:102DA000B1DB00BFBDE8F08138B5DB480068D8B1C1
:102DB00013F00AFD70B1FDF7C3FED7490968451A43
:102DC0002A46D548006881B2042016F056F8002043
:102DD000D149086037F0E4F805460146CFA014F069
:102DE000D9FF642037F02EF8FFF77BFFFDF7A8FE30
:102DF00070B137F0D5F805460146CCA014F0CAFFF3
:102E0000FDF79EFE054669461BF0E1FB044600E027
:102E100001241CBBCBA014F0BDFFFDF791FE00996F
:102E2000451A284614F020FDFDF78AFE0099401A45
:102E300085B20B462A460021084615F075F8C820D1
:102E400037F000F800221146022016F016F8002094
:102E5000AB490860AB490860009838BD37F0A0F86E
:102E600005460146BCA014F095FFFDF769FE054636
:102E7000002114F0F9FCFDF763FE85B200232A4619
:102E80001946184615F050F800209D4908609D49E4
:102E9000086000BFE1E72DE9F04100260024B348B7
:102EA0000468FDF74DFEA04206D28348006818B9B9
:102EB0000720AF490870C1E07F48006878B1FFF78C
:102EC000F0F8A0B21BF0EAFE0646012E03D10A205C
:102ED000A7490870B2E00920A5490870AEE088480B
:102EE0000068884909680844A04262D284480068A2
:102EF000201A84490968451A87480068451B6F48AD
:102F000090F82200022801D1012615E06B4890F8C4
:102F10002200012801D101260EE0684890F8220025
:102F200050B9664890F82500022801D1012603E037
:102F30000DB9012600E00026012E36D113F00CFC5D
:102F4000F0B1704800687449096808446D49086028
:102F500002217148006814F01DFAFDF7F1FD6E4979
:102F60000968471A3A466C48006881B2022015F099
:102F700084FF0020684908600A207D4908705DE0F0
:102F800013F022FCFDF7DCFD63490968471A3A4655
:102F90006148006881B2042015F06FFF00205E498F
:102FA000086008207249087048E0082070490870DD
:102FB00044E053480068534909680844051B3F48EA
:102FC00090F82200022801D1012615E03B4890F834
:102FD0002200012801D101260EE0384890F8220095
:102FE00050B9364890F82500022801D1012603E0A7
:102FF0000DB9012600E00026012E1CD12F4890F8C3
:103000002400012813D14448006880B113F0DCFB90
:10301000FDF796FD40490968471A3A463E48006860
:1030200081B2042015F029FF00203B4908600A20E6
:103030004F49087002E008204D490870BDE8F08152
:1030400010B5044604B31C48006860B149A014F0F0
:10305000F7FD01201BF08AFE17480068001B164987
:103060000860002410E027480068844206D3254801
:103070000068241A00202349086005E02148006800
:10308000001B20490860002424B11D480068001B73
:103090001B49086010BD0000440000100D0A2041CB
:1030A0007070526561646572204F555450555420BC
:1030B00063617264000000002C000010C80600105C
:1030C0000D0A204170704E6565647061793D256C14
:1030D00064000000200900100D0A204170704E6548
:1030E00065646E756D3D2564000000000D0A204189
:1030F00070705265616C6E756D3D25640000000056
:1031000020000010240000100D0A20417070706132
:10311000793D256C64000000280000100D0A204154
:103120007070486F6C645265742564000D0A20410C
:103130007070426567696E206368616E67652564BB
:10314000000000000D0A204170706368616E6765C1
:10315000204661696C0000000D0A204170706368B0
:10316000616E676520737563632564003400001029
:103170001B0000100D0A2041707043487568756F80
:103180005375636300000000FF4890F82E00FF288D
:1031900006DAFE48807908B9012070470020FCE774
:1031A0000020FAE70EB5F9488379F748807800EBFC
:1031B0008000F74901EB0010F6A1426CF2488DE85F
:1031C0000E00837800221146962034F03EFA0EBDA0
:1031D00070B504460125F4B3F0480068F049096869
:1031E0000844A0422AD213F0B7FAB0B1EC48006804
:1031F000EC4909680844EA490860FDF7A1FCE9497F
:103200000968461A3246E748006881B2022015F084
:1032100034FE0020E349086010E013F0D5FAFDF712
:103220008FFCE0490968461A3246DE48006881B2E0
:10323000042015F022FE0020DA490860FDF780FC2A
:10324000064602462146D8A014F0A4FDFDF778FCFE
:10325000A04203D300E002E0012500E00025FDF7D5
:103260006FFC90B30320D74908700020FFF76BFB79
:10327000C6498871D3480078032842D1C8480068FD
:10328000D1490968884204D2002201210846FFF78B
:10329000F7F80020CD490870CD490870CD480021CD
:1032A0000180CD4801808170CC48006836F08AFBEF
:1032B00033F006FCCA4801780020FEF7C2FCFDF797
:1032C0003FFC064617F009F81BE0FFE7002201214A
:1032D0000846FFF7D5F80020BC490870BC490870C3
:1032E000BC4800210180BC4801808170BB48006857
:1032F00036F068FB33F0E4FBFFF78FF80E20B1499E
:103300000870284670BD70B504460125002654B1EA
:10331000B448006838B1FEF7C4FEA0B21BF0BEFC92
:10332000064606B90025284670BD70B5044684B32C
:10333000AC48006860B1ACA014F082FC01201BF026
:1033400015FDA8480068001BA6490860002447E056
:1033500092480068924909680844A0422FD213F0AD
:10336000FBF9B8B18E4800688E49096808448C4959
:103370000860FDF7E5FB8B490968451A2A4689482C
:10338000006881B2022015F078FD002085490860B0
:1033900011E025E013F018FAFDF7D2FB8149096826
:1033A000451A2A467F48006881B2042015F065FD61
:1033B00000207C4908604FF4487036F043FD78489F
:1033C0000068844206D376480068241A00207449B5
:1033D000086005E072480068001B7149086000241D
:1033E00024B16E480068001B6C490860FDF7A8FB1B
:1033F00090B30320734908700020FFF7A4FA6349D3
:10340000887170480078032842D1654800686E4989
:103410000968884204D2002201210846FFF730F8EB
:1034200000206A4908706A4908706A4800210180D2
:103430006948018081706948006836F0C3FA33F04A
:103440003FFB674801780020FEF7FBFBFDF778FBA8
:10345000054616F042FF1BE0FFE700220121084667
:10346000FFF70EF80020594908705949087059486B
:10347000002101805848018081705848006836F06A
:10348000A1FA33F01DFBFEF7C8FF0E204D4908706E
:1034900070BD2DE9F04F87B004460E461546002753
:1034A00000200690FEF784FE002202210846FEF767
:1034B000E7FF36F075FD8046014650A014F06AFC27
:1034C0003046FFF720FF642094FBF0F000F0FF0887
:1034D000642094FBF0F100FB114000F0FF0942462C
:1034E000012148460CF02AFB0746274890F82F0098
:1034F000012804D0244890F82F00032842D1012F3E
:1035000041D1FDF71DFB08B913F030FF012D01D0AB
:10351000022D02D13046FFF793FD41202E4908705D
:10352000642094FBF0F100FB11400A2190FBF1F0C4
:10353000303029494870642094FBF0F100FB1140C1
:103540000A2190FBF1F201FB120030302249887011
:103550002F4806602F4803782D4801681E48CDE9A2
:10356000015300918378427801782BA032F054FD0A
:10357000284801780078401C264B18702B46164AC4
:10358000234869E0C0E095E0C80600104C0900102F
:10359000A4030010257325303264000020000010C1
:1035A00024000010280000100D0A204170702050E7
:1035B000726963653D256C642C6D6F6E65793D2580
:1035C0006C6400001B0000103C000010190000108B
:1035D0001A000010170000101400001094000010D2
:1035E000390000102C0000100D0A2041707050436B
:1035F000436F737453756363000000000D0A202548
:103600006441707055626F7856656E646F757400B2
:1036100034000010380000104C6F675472616E73F4
:10362000616374696F6E415049206C6F6769633DD7
:103630002563256325632070726963653D256420D9
:10364000747970653D25782C7472616E4E756D735A
:103650003D25640D0A200000006813F0DAFE6420A6
:1036600094FBF0F000F0FF0A642094FBF0F100FB03
:10367000114000F0FF0B52460221584619F031F973
:1036800000F0FF08FDF75CFA0590642094FBF0F170
:1036900000FB114000F0FF09059A2B46CDE90128F7
:1036A00000964A460121002015F091FF0B20FF49AA
:1036B000087009E1FEF7CCFD642094FBF0F000F007
:1036C000FF0A642094FBF0F100FB114000F0FF0BB7
:1036D00052460221584619F004F900F0FF08FDF7A0
:1036E0002FFA0590642094FBF0F100FB114000F0EC
:1036F000FF09059A2B46CDE9012800964A4601218B
:10370000992015F064FFDFE0E94890F82F000228C7
:103710007ED1012F52D1FEF773FD3046FFF705FE33
:10372000642094FBF0F100FB11400A2190FBF1F0C2
:103730003030C0B28DF818000A2094FBF0F100FB85
:1037400011403030C0B28DF8190013F00FFED94887
:1037500001780078401CD74B18702B4606AA3046DB
:1037600013F057FE642094FBF0F000F0FF0B642090
:1037700094FBF0F100FB1140C0B25A4602210490C4
:1037800019F0AFF800F0FF08FDF7DAF905906420B2
:1037900094FBF0F100FB114000F0FF09642094FB62
:1037A000F0F000F0FF0A059A2B46CDE901280096BB
:1037B0004A465146002015F00AFF35E0FEF748FD65
:1037C000BD48006810B102201BF0D0FA642094FBC1
:1037D000F0F000F0FF0A642094FBF0F100FB1140D0
:1037E00000F0FF0B52460221584619F07AF800F01B
:1037F000FF08FDF7A5F90590642094FBF0F100FBAC
:10380000114000F0FF09642094FBF0F0C0B200E02A
:103810003FE00490059A2B46CDE9012800964A46E0
:103820000146022015F0D3FEFDF78AF990B303207C
:103830009E4908700020FFF786F8A04988719B48D0
:103840000078032840D19E4800689E490968884254
:1038500004D2002201210846FEF712FE00209A49F8
:1038600008709A4908709A4800210180994801809F
:1038700081709948006836F0A5F833F021F997482F
:1038800001780020FEF7DDF9FDF75AF9804616F0C1
:1038900024FD19E0FFE7002201210846FEF7F0FDB4
:1038A00000208949087089490870894800210180F1
:1038B0008848018081708848006836F083F833F0CA
:1038C000FFF80E207949087007B0BDE8F08F2DE9A8
:1038D000F04F85B004460F4615461E46744890F8D2
:1038E0002F0002282BD1642094FBF0F000F0FF0A97
:1038F000642094FBF0F100FB114000F0FF0B5246F6
:103900000221584618F0EDFF00F0FF08FDF718F906
:103910000490642094FBF0F100FB114000F0FF09DB
:10392000642094FBF0F0C0B20390049A2B46CDE9DA
:10393000012800974A460146304615F048FE05B07A
:10394000BDE8F08F10B5FDF7FBF8D8B1FFF72CFA02
:103950004FF4C87036F076FA00205B4908705B4976
:1039600008705B48002101805A48018081705A48E4
:10397000006836F027F833F0A3F8FEF74EFD0E206E
:103980004A490870002202210846FEF779FDC82046
:1039900036F058FA21F0A4FC4FF4C87036F052FA11
:1039A000002201210846FEF76BFD10BD70B54048AE
:1039B00090F8260010B1FEF760FDC8BBFDF7C0F817
:1039C000B0B1FEF76EFC36F0EBFA0546014644A0B6
:1039D00014F0E0F9FFF7E8F904461CB12046FEF7C1
:1039E000B7FC01E0FEF78DFC0E20304908701FE0A7
:1039F000FEF757FCAFF6B40014F0CCF900210846EE
:103A000013F032FF00231A461946184614F08CFAB8
:103A1000C82036F017FA00221146022015F02DFAC0
:103A2000002032490860264908600E201F490870AE
:103A300070BD2DE9F04104460025FEF7B9FB36F0D4
:103A4000AFFA06460146AFF24C4014F0A3F96420E9
:103A500094FBF0F0C6B2642094FBF0F100FB11403F
:103A6000C7B23246012138460CF068F80546FDF72A
:103A700067F8D0B103200D4908700020FEF763FFFE
:103A80000E49887109480078032863D10C48006802
:103A90000C490968884204D2002201210846FEF739
:103AA000EFFC00200849087022E03AE01B000010FB
:103AB000C8060010380000102C0000104C0900103F
:103AC000240000103C000010190000101A00001023
:103AD00017000010140000109400001039000010AE
:103AE0000D0A204170705475692564002000001093
:103AF000FD490870FD4800210180FD48018081706A
:103B0000FC48006835F05EFF32F0DAFFFA480178D1
:103B10000020FEF796F8FDF713F8064616F0DDFBD9
:103B200018E0002201210846FEF7AAFC0020F34914
:103B30000870ED490870ED4800210180EC480180D3
:103B40008170EC48006835F03DFF32F0B9FF0E207F
:103B5000EB4908702846BDE8F08170B50446E94895
:103B60000460FCF7EDFF90B30320E54908700020E6
:103B7000FEF7E9FEE4498871E1480078032840D166
:103B8000E2480068E2490968884204D20022012123
:103B90000846FEF775FC0020D8490870D249087025
:103BA000D24800210180D24801808170D14800684C
:103BB00035F008FF32F084FFCF4801780020FEF78F
:103BC00040F8FCF7BDFF054616F087FB19E0FFE75C
:103BD000002201210846FEF753FC0020C749087067
:103BE000C1490870C14800210180C148018081702D
:103BF000C048006835F0E6FE32F062FF0E20C04992
:103C0000087070BDF0B593B00546002420210BA8C4
:103C10003BF084FA202103A83BF080FA0520BA4942
:103C20004871FCF78DFF08B9FCF759FF2C46B948DD
:103C300090F82700A8B3012834D0022830D164209E
:103C400094FBF0F100FB114694FBF0F7B14880784B
:103C500000EB8000B04901EBC000C168AD48CDE980
:103C600001760091807800EB8000AB4901EBC00049
:103C70009F4BAA49C2690BA83AF01CFF642094FB31
:103C8000F0F100FB114694FBF0F7A348416BCDE93E
:103C900001760091964BA149426C03A83AF00AFFC5
:103CA00061E037E00A2094FBF0F084B20A2094FB34
:103CB000F0F100FB114694FBF0F79648807800EB9A
:103CC0008000954901EBC000C1689248CDE90176BA
:103CD0000091807800EB80008F4901EBC000844B9D
:103CE0008E491431C2690BA83AF0E4FE0A2094FB15
:103CF000F0F100FB114694FBF0F78748416BCDE9EA
:103D0000017600917A4B85491431426C03A83AF050
:103D1000D1FE28E0642094FBF0F67E48807800EB2A
:103D200080007D4901EBC000C2687A48CDE90026D9
:103D3000807800EB800001EBC0006D4B77492431A7
:103D4000C2690BA83AF0B6FE642094FBF0F6724804
:103D5000426BCDE90026664B70492431426C03A8C2
:103D60003AF0A8FE00BF00BFAFF27473AFF27872F2
:103D700003A90BA8FCF7E6FB4FF4167036F062F8C7
:103D80006148407978B9FCF7DBFE18B103205C4943
:103D9000087006E0FCF7C0FEFCF716FC002058494E
:103DA0000870FEF7E5FB56480078032805D1524815
:103DB00001780020FDF745FF06E05148007818B96A
:103DC00032F07EFEFEF7D4FB13B0F0BD10B592B01A
:103DD000044620210AA83BF0A1F9202102A83BF0CB
:103DE0009DF9FCF7ADFE10B10020FFF7B6FE2246AC
:103DF0004BA10AA83AF05EFE224649A102A83AF079
:103E000059FE02AB43480093837800220E215020D4
:103E100033F01BFC12B010BD88B0002007900024C6
:103E200000250690059038498870C870087148715F
:103E300034F008F838B1022211461046FEF720FB94
:103E400013202F49087001200FF0A2F835490860AF
:103E5000304890F89800012802D116F01FF902E0CE
:103E6000012016F007F9012034F058F832F028FE4E
:103E7000FEE3234800783AF0F4FC21480078142847
:103E80007ED2DFE800F00AC8FEFDFCFBFAF9F8F785
:103E9000F6F5F4F3F2F1F0EFEEED23480068C828F0
:103EA00002D90020204908601748807830B90520E1
:103EB00015498870FCF794FB14F09AFF05A90020BF
:103EC00016F0D1FB07909DF81C0078B39DF81C00FC
:103ED0003C2803D09DF81C003E2828D1002007492B
:103EE00008700149087028E01A000010170000103F
:103EF0001400001094000010390000101900001088
:103F00001B0000102C0000104C09001024000010B1
:103F10003C000010C8060010100100101816000028
:103F200025730000400000104800001005E0052047
:103F3000FF4948710120FF490870FD48007920B908
:103F40000520FB490871FEF71EFBFEF71AFD04462B
:103F5000012C20D112F055FE32F0B2FDF648017866
:103F60002846FDF76EFEFCF7EBFD07460146F3A081
:103F700013F000FE13F0FAF92846FEF7E4FC00E027
:103F80009AE2EB498871FCF7DBFD074616F0A5F9CC
:103F90000320E8490870E648C078F0B90520E449F4
:103FA000C87012F051FE12F0DFFEA0B10020E0490F
:103FB000887015F010F8642035F044FF32F080FD71
:103FC000022211461046FEF75BFAFEF7D1FA0F20E7
:103FD000D849087001E015F079FA33F033FF38B1B1
:103FE000022211461046FEF74BFA1320D149087001
:103FF000012012F0AFF8FCF7A3FD074614F09AF881
:1040000033F078FF07461BF03BF900201BF04FF917
:1040100016F084FB50E29DF81C0058B10520C449FD
:104020004871FCF78DFD08B9FCF759FD05A907A8F3
:10403000FCF792FD05A9012016F015FB0790BC487E
:10404000407928B94320079002200590FEF790FAA6
:10405000B8480078032818D1B7480178284611E0FD
:10406000C8E37FE36EE342E3EEE2BDE2ACE277E277
:1040700023E206E1E8E0BEE099E097E093E091E01A
:1040800035E00AE0FDF7DDFD06E0AA48007818B942
:1040900032F016FDFEF76CFAF5E39DF81C0050B106
:1040A0001420A3494871FCF74BFD08B9FCF717FD34
:1040B00007A8FDF7B4F905A9012016F0D4FA079076
:1040C0009B48407918B943200790022005909948F1
:1040D0000078032805D1984801782846FDF7B1FDFE
:1040E00004E09448007808B932F0EAFCCBE3FEF72C
:1040F00048FC0446012C15D18F4801782846FDF76D
:10410000A0FD2846FEF71FFC89498871FCF718FDC1
:10411000074616F0E2F8FCF713FD0746014687A0B4
:1041200013F028FD05A9002016F09DFA07909DF8D0
:104130001C0028B105207E49487101207D49087086
:1041400012F036FD10B9FFF71FF878B180484078BB
:1041500008B1012D0AD17F48006838B90022022138
:104160000846FEF78DF90D20724908707A4890F8DC
:104170002E00FF2809DA7648407808B1012D04D1D5
:104180007448006808B9FFF70DF8022C02D10E2020
:1041900068490870FCF7D4FC074613F0CBFF16F013
:1041A000BDFA70E36FE3FEF776FE6CE36BE36B48FA
:1041B0000068FDF7E9FE2846FEF7C5FB5C498871FB
:1041C00003205C4908700020654908706549087043
:1041D000654800210180654801808170644800685D
:1041E00035F0F0FB00205D4908605348017828460F
:1041F000FDF727FD47E3FDF72BFFFCF7A1FCF8B126
:104200002846FEF7A0FB4A498871032049490870F7
:104210000020534908705349087053480021018019
:104220005248018081705248006835F0CBFB002075
:104230004A490860404801782846FDF702FD02E03F
:104240000E203C4908701EE3FDF753FF0320394957
:104250000870002042490870424908704248002115
:1042600001804248018081704148006835F0AAFB16
:1042700000203A490860304801782846FDF7E1FC03
:1042800001E3002202210846FEF7FAF8FDF75AFF83
:1042900038480088642190FBF1F0C7B235480088A7
:1042A00090FBF1F201FB120000F0FF083A460121F9
:1042B00040460BF043FC0690069801287DD1274824
:1042C0000068FEF7BDFE2348006860B12A48017807
:1042D0000078401C284B18700223244A1F480068AD
:1042E00013F097F810E0244801780078401C224B26
:1042F000187000231D4A1948006813F08AF81748FF
:10430000006880B21AF077FD1A480088642190FB9B
:10431000F1F000F0FF0A1748008890FBF1F201FB72
:10432000120000F0FF0B52460221584626E0000022
:104330004C0900101B000010390000100D0A20412C
:10434000707032616D6F756E743D256C6400000095
:10435000900700102C000010C80600103400001058
:10436000190000101A0000101700001014000010AF
:1043700094000010300000103800001018F0B1FA5E
:10438000C7B2FCF7DDFB0490FF480088642190FB76
:10439000F1F201FB120000F0FF08FB48008890FBDF
:1043A000F1F000F0FF09F948049A016800238DE854
:1043B000860042464946184600E005E015F007F938
:1043C0000B20F349087074E0F248006828B1F2A0AD
:1043D00013F036FC02201AF0C9FCF44890F82F00C4
:1043E000012804D0F14890F82F0003282CD1E6488A
:1043F0000088642190FBF1F000F0FF0AE248008899
:1044000090FBF1F201FB1200C7B25246022138467E
:1044100018F067FA00F0FF08FCF792FB8346DA48D1
:104420000088642190FBF1F201FB120000F0FF090B
:10443000D648016800234A46CDE901B80091012120
:10444000992015F0C4F831E0CF480088642190FB32
:10445000F1F000F0FF0ACC48008890FBF1F201FB7C
:10446000120000F0FF0B52460221584618F039FAAC
:10447000C7B2FCF765FB0490C3480088642190FB39
:10448000F1F201FB120000F0FF08BF48008890FB2A
:10449000F1F000F0FF09BD48049A016800238DE89F
:1044A000860042464946022015F091F80C20B84992
:1044B00008700020B5490860E5E1FDF7A1FEBC48A1
:1044C000007801283CD1FCF73BFBC0B30320B04986
:1044D000087001252846FEF736FAB6498871AC48BF
:1044E000007803283BD1B4480068B4490968884281
:1044F00004D2002201210846FDF7C2FF0020B04986
:104500000870B0490870B04800210180AF480180B0
:104510008170AF48006835F055FA32F0D1FAAD48F5
:1045200001782846FDF78DFBFCF70AFB074615F0DE
:10453000D4FE05A9002016F096F807900FE0FFE7DB
:10454000FCF7FEFA40B1A34801782846FDF779FB55
:104550000D208F49087002E00E208D49087092E10D
:10456000FDF776FEFCF7ECFA68B303208849087083
:1045700001252846FEF7E7F98E49887184480078BE
:10458000032820D18C4800688C490968884204D2ED
:10459000002201210846FDF773FF002088490870BA
:1045A000884908708848002101808848018081700E
:1045B0008748006835F006FA32F082FA85480178BB
:1045C0002846FDF73EFB5EE1FDF76BFEFEF7ECFBD8
:1045D00006461EB13046FDF7BBFE01E0FDF791FE39
:1045E0000E206B4908704EE1FDF717FFFCF794FAB7
:1045F00000250020784908706349088075490870D3
:104600006C490871012211461046FDF739FF002060
:1046100072490870FDF7ACFF01200EF0B9FC70493B
:10462000086013F0A0F9614890F89800012802D1C1
:1046300015F034FD02E0012015F01CFD32F040FAC7
:104640000020534908701EE15A48807820B91E2086
:1046500058498870FCF703F95648C07828BB0520F4
:104660005449C87012F0F0FA012011F073FD00E017
:104670000DE112F079FB98B900204E49887032F0B4
:104680001FFA012211461046FDF7FAFE642035F0AC
:10469000D9FB14F0A0FCFDF76BFF00203C4908702B
:1046A000FCF74EFA074613F045FD33F0CBFB10B193
:1046B000132037490870FEF764F90446012C15D120
:1046C00012F09FFA32F0FCF9424801782846FDF7D3
:1046D000B8FAFCF735FA07460146AFF2A03013F0FE
:1046E00049FA12F043FE102029490870CBE0FEF78A
:1046F00048F90446012C0CD1364801782846FDF7CC
:10470000A0FAFCF71DFA07460146AFF2D03013F0CD
:1047100031FA12F04DFA50B11E48006838B9002243
:1047200002210846FDF7ACFE112019490870022C41
:1047300002D1122016490870FCF702FA074613F05E
:10474000F9FCA0E0FDF7ADFDFEF72EFB06461EB11D
:104750003046FDF7FDFD01E0FDF7D3FD12200C49C9
:10476000087090E0FDF759FEFCF7D6F9002500200F
:10477000194908700449088032F0A2F90022012189
:104780000846FDF77DFE2DE03000001034000010DB
:104790001B0000102C0000100D0A204170704348CF
:1047A0007568756F4661696C00000000C8060010EE
:1047B000900700104C090010240000103C0000106D
:1047C000190000101A00001017000010140000104B
:1047D0009400001039000010380000101C00001078
:1047E0004000001013F0BFF8FDF7C2FE0F2029496A
:1047F000087048E0002015F03DFC274890F82F0095
:1048000010B1012012F0D5FC00BFFCF799F9074662
:1048100013F090FC002008F042FC33F013FB00285A
:10482000F3D11E49887032F04BF90122114610462F
:10483000FDF726FE00201A490870FDF799FE16487C
:1048400090F82F0058B10023009301931A4619469F
:104850000520029313F0BEFB002012F0AAFC0120F9
:104860000EF096FB0F4908600B4890F8980001285D
:1048700002D115F013FC02E0012015F0FBFB002033
:104880000449087000BF00BF022035F0DBFAFFF7D3
:10489000F0BA00001B000010C80600104C09001000
:1048A0001C00001040000010F0B585B00026002765
:1048B000FAA103C9CDE9010132F002F9F9A031F002
:1048C000ABFBB8E00F23EF220021084633F059F884
:1048D0000323EF220021084633F053F8F74880788D
:1048E000F74951F82030F5480093837800220121E0
:1048F000082032F0AAFEF1488178F148143050F8CF
:104900002130EE480093837800220621302032F0D7
:104910009CFE0E23EE220D21012032F00BF9E74818
:104920008178E7483C3050F82130E44800938378A0
:1049300000220D211C2032F088FE7BE0002700249D
:104940000AE0342101EB0411C8B20023DDA20921E1
:1049500032F01AF9601CC4B2082CF2DB69E033F0C3
:104960003DFA0546F5B3432D02D1002005B0F0BD58
:1049700003A8855531013431C8B20023D2A20921E0
:1049800032F002F9701CC6B2082E4FD10026012762
:10499000002408E003A8005D01A9095D884200D059
:1049A0000027601CC4B2082CF4DB012F01D10120C8
:1049B000DCE70E23EE220D21012032F0BBF8BF48C8
:1049C0008178BF48283050F82130BC480093837864
:1049D00000220D21302032F038FE4FF4C87035F03F
:1049E00031FA00E022E00E23EE220D21012032F008
:1049F000A1F8B2488178B2483C3050F82130AF4835
:104A00000093837800220D21302032F01EFE002416
:104A10000AE0342101EB0411C8B20023A9A2092144
:104A200032F0B2F8601CC4B2082CF2DB052035F07D
:104A300009FA94E782E745E738B532F041F80F23E9
:104A4000EF220021084632F09CFF0323EF220021D1
:104A5000084632F096FF4CE00E23EE22042101209E
:104A600032F068F895488078984951F8203093489A
:104A70000093837800220121082032F0E6FD8F4860
:104A800081789248143050F821308C480093837814
:104A9000002207213C2032F0D8FD884881788B48DD
:104AA000283050F8213085480093837800220B216C
:104AB000282032F0CAFD8148817884483C3050F883
:104AC00021307E480093837800220B218C2032F025
:104AD000BCFD0DE033F082F90446432C01D10020E7
:104AE00038BD452C01D10120FAE70A2035F0AAF99A
:104AF000F0E7B1E770B50026704890F82200022870
:104B000073D17348406F7249B1F8C010484370497F
:104B10008A6FB1F8C21002FB01016D48C26FB0F894
:104B2000C40002FB00116A48D0F88020B0F8C6002B
:104B300002FB00116648D0F88420B0F8C80002FBE0
:104B400000116348D0F88820B0F8CA0002FB0011B9
:104B50005F48D0F88C20B0F8CC0002FB00115C4814
:104B6000D0F89020B0F8CE0002FB00115848D0F8E1
:104B70009420B0F8D00002FB00115548D0F89820DE
:104B8000B0F8D20002FB00115148D0F89C20B0F8D8
:104B9000D40002FB00114E48D0F8A020B0F8D60097
:104BA00002FB00114A48D0F8A420B0F8D80002FB5C
:104BB00000114748D0F8A820B0F8DA0002FB001135
:104BC0004348D0F8AC20B0F8DC0002FB00114048AC
:104BD000D0F8B020B0F8DE0002FB0015374890F89E
:104BE0002500022812D100240EE018E0394850F8C0
:104BF000240038B1374850F824101C3030F8140025
:104C000001FB0055601CC4B2072CEFDB2B48D0F829
:104C1000C000A84201D901260FE000260DE0274878
:104C200090F82200012803D112F08DF9064604E025
:104C3000224890F8220000B90026304670BD70B5B9
:104C4000044600251D4890F82F00022817D1012C9A
:104C50000BD112F086F8054612F083F8064602469C
:104C600029461DA013F096F809E0022C07D1204830
:104C700090F8BC5090F8BC101EA013F08BF828469A
:104C800070BD0146012902D0022949D142E00B48FA
:104C900080781F4A52F820007047000038333731BF
:104CA00038353537456E74657253656C6643686593
:104CB000636B46756374696F6E0D0A00C806001059
:104CC000E00704005F0000002A0000003008040034
:104CD00014080010200900100D0A204170702050A7
:104CE000434572726F725363616C653D25640000C9
:104CF000600900100D0A2041707020504345727207
:104D00006F724F66664C696E653D25640000000059
:104D1000A4110400FF488278FF4850F82200704731
:104D2000FC488278FC48143050F82200F7E700B5C0
:104D30008BB000200A900320099031F0C1FE0F23B0
:104D4000EF220021084632F01CFE0323EF2200214F
:104D5000084632F016FEE5E30E23EE220421012080
:104D600031F0E8FE032009900A980A287ED2DFE895
:104D700000F005D5FEFDFCFBFAF9F8F70123E54844
:104D80008178E64850F82120E5A1E2488DE80E0040
:104D900080780346002201210790082032F055FC5C
:104DA000DC4890F8230002287ED1DF488078A0B14B
:104DB000D8488178D948143050F82130D54800932C
:104DC000807807900998801CC0B209900690002254
:104DD00001460520079B32F038FCD348C078A0B1CB
:104DE000CC488178CD48283050F82130C94800930C
:104DF000807807900998801CC0B209900690002224
:104E000001460520079B32F020FCC7480079A0B17D
:104E1000C0488178C1483C3050F82130BD480093EB
:104E2000807807900998801CC0B2099006900022F3
:104E300001460520079B32F008FCBB484079A0B131
:104E4000B4488178B548503050F82130B1480093CB
:104E5000807807900998801CC0B2099006900022C3
:104E600001460520079B32F0F0FB00E0A4E2AE48CB
:104E70008079A0B1A7488178A848643050F82130E3
:104E8000A4480093807807900998801CC0B20990CC
:104E90000690002201460520079B32F0D6FBA2486F
:104EA000807808B9A04800E019E0C078B8B99E48F9
:104EB0000079A0B99C48407988B99B48807970B93D
:104EC00094488178994850F821309248009380782E
:104ED0000346002207210790052032F0B6FB8D48DB
:104EE00080788E49283951F8200006903AF004F86D
:104EF000C000C0F1E700C0B20790864881788748BB
:104F0000283850F8213083480093807803460022E7
:104F10000D210690079832F098FB4DE202237D4860
:104F200081787E4850F821207DA17A488DE80E00D6
:104F300080780346002201210790082032F085FB8B
:104F4000744890F8230002287ED17748C079E8B1F0
:104F5000704881787148783050F821306D4807E00A
:104F6000FEE3FEE3FEE3ABE3FAE226E26DE191E06D
:104F70000093807807900998801CC0B20990069031
:104F8000002201460520079B32F05FFB6648007A4D
:104F9000A0B16048817861488C3050F821305D487C
:104FA0000093807807900998801CC0B20990069001
:104FB000002201460520079B32F047FB5A48407A01
:104FC000A0B1544881785548A03050F8213051485C
:104FD0000093807807900998801CC0B209900690D1
:104FE000002201460520079B32F02FFBFFF782FDD0
:104FF000A0B1484881784948B43050F8213045483C
:105000000093807807900998801CC0B209900690A0
:10501000002201460520079B32F017FB4248C07969
:1050200090B94148007A78B93F48407A60B9FFF7B3
:1050300061FD48B9374881783C4850F821303548FF
:1050400000938078034600E005E0002207210790E6
:10505000052032F0FAFA2F4881783048143850F899
:105060002100069039F048FFC000C0F1E700C0B24F
:105070000790284881782948143850F8213025486D
:1050800000938078034600220D210690079832F0A5
:10509000DCFA91E101231F4881782048C83050F89C
:1050A00021201FA11B488DE80E00807803460022B6
:1050B00001210790082032F0C8FA164890F8210024
:1050C00002287ED11848807AA0B11248817813480E
:1050D000DC3050F821300F48009380780790099811
:1050E000801CC0B209900690002201460520079B53
:1050F00032F0ABFA0C48C07A18B3064881780748FA
:10510000F03050F8213003480093807807900998D8
:10511000801C0DE0C8060010B81104004809040006
:1051200025732D256400000054480010E00C040095
:10513000C0B209900690002201460520079B32F07C
:1051400084FAF948007B98B1F8488178F84850F81B
:105150002130F6480093807807900998801CC0B2EF
:1051600009900690002201460520079B32F06DFA57
:10517000ED48407BA0B1ED488178ED48143050F8FF
:105180002130EA480093807807900998801CC0B2CB
:1051900009900690002201460520079B32F055FA3F
:1051A000E148807BB0B1E1488178E148283050F88F
:1051B0002130DE480093807807900998801CC0B2A7
:1051C00000E025E009900690002201460520079B9B
:1051D00032F03BFAD448807AD0B9D348C07AB8B913
:1051E000D148007BA0B9D048407B88B9CE48807BAD
:1051F00070B9CE488178CF4850F82130CB48009321
:1052000080780346002207210790052032F01DFA1E
:10521000C6488178C84850F82100069039F06CFEE5
:10522000C000C0F1E700C0B20790C0488178C24812
:1052300050F82130BD4800938078034600220D21AC
:105240000690079832F001FAB6E00223B748817859
:10525000B7483C3850F82120AFF23C11B3488DE8F4
:105260000E0080780346002201210790082032F0CA
:10527000ECF9AE4890F8210002287ED1AA48C07B04
:10528000A0B1AA488178AA483C3050F82130A748FC
:105290000093807807900998801CC0B2099006900E
:1052A000002201460520079B32F0CFF99E48007C82
:1052B000A0B19E4881789E48503050F821309B48DC
:1052C0000093807807900998801CC0B209900690DE
:1052D000002201460520079B32F0B7F99248407C36
:1052E000A0B1924881789248643050F821308F48BC
:1052F0000093807807900998801CC0B209900690AE
:10530000002201460520079B32F09FF98648807CE9
:10531000C8B18548C37C827C8448817884487830D1
:1053200050F8211085A08DE80F0080488078079004
:105330000998801CC0B20990069000220146052001
:10534000079B32F082F97848C07BB0B97648007C80
:1053500098B97548407C80B97348807C68B97348B7
:105360008178744850F82130704800938078034663
:10537000002207210790052000E001E032F065F9E6
:105380006A4881786C4850F82100069039F0B4FDE5
:10539000C000C0F1E700C0B2079064488178664859
:1053A00050F82130614800938078034600220D2197
:1053B0000690079832F049F951E25C4881785C48E0
:1053C0008C3050F8213059480093807803460022F1
:1053D00001210790082032F038F9544890F8220053
:1053E00001287ED15048007DF8B14F48007D0690DD
:1053F000FFF747FC07905648C37D4C4881784C48DE
:10540000A03050F8211053A0079A8DE80F004748AC
:10541000807806900998801CC0B2099005900022FF
:1054200001460520069B32F010F93F48407DF8B157
:105430003D48407D0690FFF724FC07904448037EDA
:105440003A4881783A48B43050F8211041A0079A80
:105450008DE80F003548807806900998801CC0B20E
:1054600009900590002201460520069B32F0EDF8D8
:105470002D48807DF8B12C48807D0690FFF701FC17
:1054800007903348437E294881782948C83050F82E
:10549000211030A0079A8DE80F00244880780690EC
:1054A0000998801CC0B20990059000220146052091
:1054B000069B32F0CAF81C48007D90B91A48407D1E
:1054C00078B91948807D60B918488178194850F832
:1054D0002130164800938078034600220721079068
:1054E00000E002E0052032F0B0F810488178124860
:1054F00050F82100069039F0FFFCC000C0F1E70031
:10550000C0B20790094881780B4850F8213007480D
:1055100000938078034600220D210690079832F010
:1055200094F8B1E3D5E3000054480010C806001019
:105530004C0A0400E00C04003409040025735B25C8
:10554000233032785D5B25233032785D0000000027
:1055500028480010257325735B25233032785D00C1
:105560000123FF488178FF4850F82120AFF25041D5
:10557000FB488DE80E008078034600220121079049
:10558000082032F062F8F64890F82D0001282FD15B
:10559000F548807EA0B1F2488178F248143050F886
:1055A0002130EF480093807807900998801CC0B2A2
:1055B00009900690002201460520079B32F045F82D
:1055C000E948C07EA0B1E6488178E648283050F826
:1055D0002130E3480093807807900998801CC0B27E
:1055E00009900690002201460520079B32F02DF815
:1055F000DD48007FA0B1DA488178DA483C3050F8C5
:105600002130D7480093807807900998801CC0B259
:1056100009900690002201460520079B32F015F8FC
:10562000D148407FA0B1CE488178CE48503050F864
:105630002130CB480093807807900998801CC0B235
:1056400009900690002201460520079B31F0FDFFDE
:10565000C548807EB8B9C448C07EA0B9C248007FA2
:1056600088B9C148407F70B9BD488178BF4850F8BB
:105670002130BB4800938078034600220721079021
:10568000052031F0E2FFB6488178B94850F8210092
:10569000069039F031FCC000C0F1E700C0B20790BD
:1056A000AF488178B24850F82130AD4800938078F7
:1056B000034600220D210690079831F0C6FFE3E271
:1056C0000223A7488178A74850F82120AFF2B051B3
:1056D000A3488DE80E008078034600220121079040
:1056E000082031F0B2FFA048807FA0B19C488178AB
:1056F0009C48643050F82130994800938078079096
:105700000998801CC0B2099006900022014605202D
:10571000079B31F09AFF9448C07FA0B190488178F0
:105720009048783050F821308D4800938078079069
:105730000998801CC0B209900690002201460520FD
:10574000079B31F082FF884890F82000C0B1844860
:10575000817884488C3050F821308148009302E0F1
:1057600011E258E17CE0807807900998801CC0B273
:1057700009900690002201460520079B31F065FF45
:10578000794890F82100A0B1754881787548A0301B
:1057900050F8213072480093807807900998801C57
:1057A000C0B209900690002201460520079B31F007
:1057B0004CFF6D4890F82200A0B169488178694893
:1057C000B43050F8213066480093807807900998EB
:1057D000801CC0B209900690002201460520079B5C
:1057E00031F033FF6048807FE8B95F48C07FD0B9AF
:1057F0005D4890F82000B0B95B4890F8210090B95E
:10580000594890F8220070B955488178574850F8A7
:1058100021305348009380780346002207210790E7
:10582000052031F012FF4E488178514850F8210090
:10583000069039F061FBC000C0F1E700C0B20790EC
:10584000474881784A4850F821304548009380788D
:10585000034600220D210690079831F0F6FE13E270
:1058600003233F4881783F4850F82120AFF2507120
:105870003B488DE80E008078034600220121079006
:10588000082031F0E2FE384890F82300A0B13448F7
:1058900081783448C83050F82130314800938078FE
:1058A00007900998801CC0B209900690002201461A
:1058B0000520079B31F0C9FE2B4890F82400A0B1C9
:1058C000274881782748DC3050F82130244800935D
:1058D000807807900998801CC0B209900690002239
:1058E00001460520079B31F0B0FE1F4890F82500C7
:1058F000A0B11B4881781D48C83850F8213018489D
:105900000093807807900998801CC0B20990069097
:10591000002201460520079B31F097FE124890F8BF
:105920002600A0B10E4881781048B43850F82130D4
:105930000B480093807807900998801CC0B20990AA
:105940000690002201460520079B31F07EFE0648A6
:1059500090F82700F8B1024881780448A03809E09F
:10596000C8060010280B040054480010E00C040086
:105970003409040050F82130FF48009380780790E4
:105980000998801CC0B209900690002201460520AB
:10599000079B31F05AFEF94890F82300F0B9F74818
:1059A00090F82400D0B9F54890F82500B0B9F34834
:1059B00090F8260090B9F14890F8270070B9EE48A9
:1059C0008178EF4850F82130EB4800938078034607
:1059D000002207210790052031F037FEE648817844
:1059E000E84850F82100069039F086FAC000C0F16E
:1059F000E700C0B20790E0488178E24850F82130D3
:105A0000DD4800938078034600220D210690079818
:105A100031F01BFE38E10423D7488178DA4850F88A
:105A20002120AFF60411D4488DE80E00807803469B
:105A3000002201210790082031F007FECF4890F89E
:105A40002800A0B1CC488178CD488C3850F821305E
:105A5000C9480093807807900998801CC0B20990CB
:105A60000690002201460520079B31F0EEFDC34859
:105A700090F82900A0B1C0488178C148783850F822
:105A80002130BD480093807807900998801CC0B2EF
:105A900009900690002201460520079B31F0D5FDB4
:105AA000B64890F82A00A0B1B3488178B448643869
:105AB00050F82130B0480093807807900998801CF6
:105AC000C0B209900690002201460520079B31F0E4
:105AD000BCFDAA4890F82B00A0B1A7488178A8483F
