:020000040000FA
:1000000000800010CD000000BDB90300BDB90300A1
:10001000BDB90300BDB90300BDB90300BDB90300FC
:10002000BDB90300BDB90300BDB9030085020000DE
:10003000BDB9030000000000ED0200001D970300A1
:10004000BDB903001F8F0300F58E0300E38E03008C
:10005000D18E0300616A0300316C03001167030055
:10006000316E0300BDB9030035710300BDB9030053
:10007000BDB90300BDB90300BDB90300BDB903009C
:10008000BDB90300BDB90300BDB90300BDB903008C
:10009000C3880300BDB90300BDB90300BDB90300A7
:1000A000BDB90300BDB90300BDB90300BDB903006C
:1000B000BDB90300BDB90300BDB90300BDB903005C
:1000C000BDB90300BDB90300BDB9030000F002F8DB
:1000D00000F0C8F80AA090E8000C82448344AAF11A
:1000E0000107DA4501D100F0BDF8AFF2090EBAE818
:1000F0000F0013F0010F18BFFB1A43F0010318475C
:10010000E03405002035050010F8013B0A4413F0E7
:10011000030408BF10F8014B1D1108BF10F8015B64
:10012000641E05D010F8016B641E01F8016BF9D153
:10013000002D15D010F8014B03F00C030C2BA1EB94
:1001400004040ABF10F8013BA4EB8314A4EB0324BE
:1001500005F1010314F8016B5B1E01F8016BF9D581
:10016000914238BF10F8013BD1D37047103A24BFF9
:1001700078C878C1FAD8520724BF30C830C144BF0C
:1001800004680C607047000000230024002500264E
:10019000103A28BF78C1FBD8520728BF30C148BFEA
:1001A0000B6070476E293FF0998770293FF080837C
:1001B000662901F010A1652901F00DA1672901F060
:1001C0000AA16129AFF3008003681B0A28BF41F030
:1001D000800169293FF0F08264293FF0ED827529A2
:1001E0003FF0EA826F2900F08BA078293FF04C8322
:1001F000E92900F023A0E42900F020A0F52900F06F
:100200001DA0EF2900F088A0F8293FF04B83036878
:10021000DB0928BF41F0800163293FF0A4877329DF
:100220003FF0A987E32900F0FCA2F32900F001A325
:10023000002070471FB541F0C7F89DE803003FF06C
:10024000ABFE40F075FB04000020002141F0A2F855
:10025000401C60600020002141F086F8E0601FBD76
:1002600010B510BD40F036FB1146FFF7E3FF00F07C
:100270002CF940F017FC03B4FFF7F2FF03BC3BF08E
:10028000DEFF0000052828BF70474FEA8000784451
:10029000D0F802F0ED020000B302000051030000AC
:1002A00071030000910300004FF0010080F31488F7
:1002B00000DF0A4C4FF00105257077463FF088F9C2
:1002C000BE46074E3668074C2660D6F800D001BC03
:1002D00005490860BDE8F00F704700BF83060010B5
:1002E000940600108C060010580600104FF008020B
:1002F00082F3118800B53FF06BF95DF804EB2DE94E
:10030000F00F0E49086801B40D4A1268C2F800D017
:100310000C4C0D4D2E7826700C4E3668084C26601D
:10032000D6F800D001BC086000280CBF00220822CB
:1003300082F31188BDE8F00F704700BF5806001027
:100340008C06001078060010790600109406001044
:100350000649086800F101004FF0080282F3118895
:10036000002808BF70470860704700BF580600109B
:100370000649086800281CBF01380860002818BF1B
:1003800070474FF0000282F3118870475806001042
:100390004FF0000080F3148870474FF0010080F3A5
:1003A0001488704788476FF0FF003AF050FD000056
:1003B0001CB5544890F82B200121182038F0FAF889
:1003C0000E230222CDE900234FA30E21282037F06F
:1003D000CAFF1CBD08B500BF38F0ADFA36F08EFB81
:1003E00036F074FC36F02FFA36F070FD38F0F2FE7D
:1003F00037F05DF94849002038F066FE36F028FEF7
:1004000038F066FF38F097FA00200EF0B3FA0020BB
:100410000EF08CF8FFF7CCFF36F058FC0DF054F8D6
:1004200006233E4A00213E483AF070FC02203AF092
:1004300007FB3EF0C7FF16F04DFC02203AF000FB30
:1004400016F068FA02203AF0FBFA1EF030FC1EF0BB
:10045000D5FC02203AF0F4FA1CF0E7FA6A460021D3
:10046000304800683AF040FF0FF05BF817F018FCD6
:1004700084212D483FF050FC02203AF0E1FA092394
:100480002A4A00212A483AF041FC02203AF0D8FAE0
:100490001AF074FA02203AF0D3FA0823254A002110
:1004A00025483AF033FC02203AF0CAFA19F022FD4E
:1004B000C8203AF0C5FA07E0002003F09EFC02E0F5
:1004C00032203AF0BDFAFBE7F6E700B585B03BF025
:1004D0007AFA3BF037FA39F074FA01230022190254
:1004E0001648CDE90323CDE901010723144A002171
:1004F000AFF21F1000933AF051FC39F025FB0020B9
:1005000005B000BDD006001076657273696F6E2568
:10051000642E25303264000080A90300C43200102C
:10052000CD4702007C000010380A0010C4460010BD
:10053000F15C0300C44200105D9C0200C80A001078
:10054000C42A0010F8B505460E4614461F460A2177
:10055000002037F0E5FF022301220B21002037F0B5
:10056000ADFFFF480095837800220B21282037F04B
:100570004EFEFB488078012807D0F9480096837822
:1005800000220D21282037F042FE20463FF0B2FA2B
:10059000C8B1022301220B21702037F08FFFF048F1
:1005A0000094837800220B21982037F030FEEC482D
:1005B0008078012807D0EA480097837800220D212F
:1005C000982037F024FEF8BD10B501220A21002042
:1005D00037F052FD03220B21002037F04DFD10BDF6
:1005E00030B58BB0202103A83FF096FBDD4836F0F4
:1005F0004EFD02203AF024FADB480078F0B3D948E7
:1006000036F045FD02203AF01BFA022304220121B4
:10061000002037F053FFD548D0F8AC1003A83FF0C6
:1006200045FA03AB02220121282037F09CFECF4877
:10063000D0F8B41003A83FF039FA03AB012203212C
:10064000282037F090FEC6488078C0EBC00202EB4D
:100650000010C64A02EB8000816D03A83FF026FA25
:1006600003ABBF480093837800220521282037F090
:10067000CEFDBB4890F8BC00012800E074E019D121
:10068000BB4880890A2190FBF1F201FB1204B848B3
:10069000808990FBF1F523462A46B6A103A83FF0D6
:1006A00007F803ABAE480093837800220721282087
:1006B00037F0ADFD0A21002037F032FFAF48C08887
:1006C000A849C98888420BD1AC484079A5494979E5
:1006D000884205D1A948C078A249C978884222D069
:1006E000A048C288A6A103A83EF0E2FF03AB022205
:1006F0000B21282037F037FE9A48C3784279A2A10F
:1007000003A83EF0D5FF03AB02220D21282037F0CD
:100710002AFE9448C0889949C88092484079487117
:100720009048C078C870954880788E49897888420A
:1007300005D1924840788B494978884213D089483E
:100740004378827893A103A83EF0B2FF03AB032263
:100750000B21602037F007FE824880788749887037
:1007600080484078487078E07D48807800EB8000D1
:100770008B4A02EBC000816903A83FF097F903ABF5
:1007800077480093837800220221482037F03FFD0C
:10079000734890F8BC00012819D1754880890A2156
:1007A00090FBF1F201FB12047148808990FBF1F596
:1007B00023462A466FA103A83EF07AFF03AB6848A0
:1007C0000093837800220521AA2037F020FD6B4892
:1007D000C0886449C98888420BD16848407961491A
:1007E0004979884205D16548C0785E49C978884210
:1007F00015D05C48C3784279C1888DE80E0069A3A2
:1008000002220621502037F0AEFD5648C0885B49D1
:10081000C8805448407948715248C078C8705748D9
:10082000807850498978884205D1544840784D49AC
:100830004978884211D04B4843788278CDE900232B
:1008400054A3042208213C2037F08DFD45488078D0
:100850004A4988704348407848700BB030BD30B585
:1008600089B0202101A83FF057FA3E4836F00FFC2E
:1008700002203AF0E5F8022303220121002037F09C
:100880001DFE37488078C0EBC00202EB0010374AEB
:1008900002EB8000C16C01A83FF008F901AB3048C1
:1008A0000093837800220121282037F0B0FC2C48E7
:1008B0008078C0EBC00202EB00102C4A52F82010E6
:1008C00001A83FF0F3F801AB25480093837800229C
:1008D0000321282037F09BFC214890F8BC00012818
:1008E00019D1234880890A2190FBF1F201FB1204FF
:1008F0001F48808990FBF1F523462A461DA101A8D7
:100900003EF0D6FE01AB1648009383780022052105
:10091000282037F07CFC0A21002037F001FE174820
:10092000C0881049C98888420BD1144840790D49C4
:100930004979884205D11148C0780A49C978884266
:100940004ED00848C2880EA101A83EF0B1FE01AB0E
:1009500002220B21282037F006FD0248C37829E047
:10096000D0060010000000101C000010E001001074
:10097000E050001025642E2564209200080000102D
:100980002530346400000000253032642D253032DB
:1009900064000000253032643A25303264000000E3
:1009A00018010010253034642D253032642D253097
:1009B000326400004279AFF2300101A83EF078FEC7
:1009C00001AB02220D21282037F0CDFCFF48C08862
:1009D000FF49C880FD4840794871FC48C078C8701C
:1009E000FB488078F9498978884205D1F8484078F1
:1009F000F6494978884214D0F44843788278AFF2B7
:100A00006C0101A83EF054FE01AB03220B216020D3
:100A100037F0A9FCED488078ED498870EB484078C4
:100A2000487009B030BD10B50246012904D0E94B29
:100A300093F89930012B2CD11378412B0BD153789B
:100A4000303B03EB8303642404EB43049378303B93
:100A5000234498B228E01378422B0BD15378303BD3
:100A600003EB8303C82404EB43049378303B234413
:100A700098B219E01378303B642463435478303CD7
:100A800004EB840403EB44049378303B234498B292
:100A90000AE01378303B03EB8303642404EB430444
:100AA0005378303B234498B210BD30B502460B78E2
:100AB000303B4FF47A7463434C78303C04EBC4050C
:100AC00005EB041403EB84041378303B03EB83033E
:100AD00004EB43045378303B234498B230BD0EB549
:100AE00036F0D0FDB948C3784279C1888DE80E0050
:100AF000AFF2501302221146502037F034FCB348B5
:100B000043788278CDE90023AFF2781304221146AE
:100B10003C2037F028FC0EBD10B50020AE4908700F
:100B2000AE490870AE4800210180AE480180817056
:100B30000020AD498870AD48006839F041FD10BD16
:100B4000AB480068AB4909680844AB4909680844E8
:100B5000AA490968084470472DE9F04F95B0064648
:100B6000884620210DA83FF0D7F8202105A83FF0A6
:100B7000D3F84FF00009002004900024002500273E
:100B800098F8000002281DD13078432802D0307830
:100B9000452817D100209049087092480021018013
:100BA0008170FFF7CDFF18B103209549087006E06A
:100BB000FFF7B2FFFFF708FD00209149087015B05C
:100BC000BDE8F08F98F8000002286FD13178824894
:100BD00002780078401C804B1870824881547D4810
:100BE000807800EB8000874A52F830100DA83EF064
:100BF0005DFF784890F83100012813D179480078DA
:100C00002E2803D141207749087006E07548007806
:100C1000442802D142207349087072490DA83EF061
:100C2000CEFF03E06F490DA83EF0C9FF7548816A09
:100C300005A83EF03BFF6B4905A83EF0C0FFAFF2B0
:100C4000BC23AFF2C02205A90DA8FFF77BFC6148C9
:100C500090F83100012804D05E4890F899000128EE
:100C600077D15D48007803281FDB5A4890F831009F
:100C7000E8B95C4800782E2813D05A4800784428F8
:100C80000FD0584840782E280BD05648407844283A
:100C900007D0544880782E2803D0524880784428C2
:100CA00005D14FF005090120049057E263E14D485A
:100CB00040782E280BD04B484078442807D049482C
:100CC00080782E2803D047488078442804D14FF0FC
:100CD00005090120049041E23E4890F83110414856
:100CE000FFF7A1FE0446642094FBF0F000F0FF0A39
:100CF000642094FBF0F100FB114000F0FF0B514623
:100D000058461BF08AFF00F0FF09324890F82F0088
:100D1000022827D1642094FBF0F000F0FF0A642041
:100D200094FBF0F100FB114000F0FF0B52465946D6
:100D3000012018F0C5FD002027490870294800212E
:100D400001808170FFF7FCFE20B103202C49087060
:100D500007E064E0FFF7E0FEFFF736FC00202849DB
:100D600008702CE71B4890F82F00042854D1642009
:100D700094FBF0F100FB114000F0FF0A642094FBAB
:100D8000F0F000F0FF0B514658461CF02BFD0746D3
:100D90006FB1642094FBF0F000F0FF0A3946504632
:100DA0001CF0B0FE012802D0384619F078F8002077
:100DB000094908700B48002101808170FFF7C0FECF
:100DC00018B103200E49087025E01DE00000001056
:100DD00008000010D0060010190000101A000010C2
:100DE00017000010140000105409001094000010A7
:100DF0002000001024000010280000102C0000101B
:100E00001B00001018010010FFF786FEFFF7DCFB47
:100E10000020FF490870D2E6012004909EE1FD48C1
:100E20000078022813DBFC4800782E280BD0FA4803
:100E30000078442807D0F84840782E2803D0F64898
:100E40004078442804D14FF005090120049085E141
:100E5000F24890F83110F048FFF7E5FD04466420B1
:100E600094FBF0F000F0FF0A642094FBF0F100FB2B
:100E7000114000F0FF0B514658461BF0CEFE00F02B
:100E8000FF092146E6A017F0D7F8E44890F82F00B4
:100E9000022826D1642094FBF0F000F0FF0A6420C1
:100EA00094FBF0F100FB114000F0FF0B5246594655
:100EB000012018F005FD0020D6490870D648002111
:100EC00001808170FFF73CFE18B10320D049087003
:100ED00006E0FFF721FEFFF777FB0020CC49087002
:100EE0006DE6CE4890F82F00042841D1642094FB91
:100EF000F0F100FB114000F0FF0A642094FBF0F0D9
:100F000000F0FF0B514658461CF06CFC0746CFB171
:100F1000642094FBF0F000F0FF0A394650461CF0C4
:100F2000F1FD01280ED0642094FBF0F000F0FF0AE0
:100F30000322394650461CF01BFD032802D03846D8
:100F400018F0ADFF0020B3490870B34800210180BC
:100F50008170FFF7F5FD18B10320AD49087006E078
:100F6000FFF7DAFDFFF730FB0020A949087026E6FD
:100F700001200490F2E098F8000001280AD13278AC
:100F8000012108461BF071FD044624B94FF0020907
:100F900001200490E2E09F480078002804DD4FF033
:100FA000050901200490D9E09C4890F831000128FF
:100FB00023D14121974802780078401C954B187046
:100FC000954881540A2094FBF0F03030C2B21846A4
:100FD00001780078401C18708F4842540A2094FB16
:100FE000F0F100FB11403030C1B2184602780078B1
:100FF000401C1870884881541AE00A2094FBF0F0D5
:101000003030C1B2834802780078401C814B1870A0
:10101000814881540A2094FBF0F100FB11403030EC
:10102000C1B2184602780078401C18707A48815482
:101030007A48807800EB80007F4A52F830100DA883
:101040003EF034FD74490DA83EF0B9FD7A48816A3E
:1010500005A83EF02BFD704905A83EF0B0FDAFF2AB
:10106000DC63AFF2E06205A90DA8FFF76BFA6B48ED
:1010700090F831106848FFF7D6FC0446642094FBD2
:10108000F0F000F0FF0A642094FBF0F100FB114047
:1010900000F0FF0B514658461BF0BFFD00F0FF0962
:1010A0005E4890F82F00022826D1642094FBF0F0CF
:1010B00000F0FF0A642094FBF0F100FB114000F007
:1010C000FF0B52465946012018F0FAFB0020514907
:1010D00008705148002101808170FFF731FD18B17F
:1010E00003204B49087006E0FFF716FDFFF76CFA86
:1010F00000204749087062E5484890F82F0004280E
:101100002AD1642094FBF0F100FB114000F0FF0AAB
:10111000642094FBF0F000F0FF0B514658461CF0A1
:1011200061FB074617B1384618F0B9FE002039496F
:1011300008703948002101808170FFF701FD18B166
:1011400003203349087006E0FFF7E6FCFFF73CFA9E
:1011500000202F49087032E501200490049878B3EC
:10116000B9F1060F34D2DFE809F0AA7B0334047A20
:1011700000BF2A48807800EB80002F4A02EBC000B5
:1011800041690DA83EF092FC2B48C16B05A83EF0CA
:101190008DFCAFF61003AFF6140205A90DA8FFF7FA
:1011A000D1F94FF4C87039F04BFCFFF7C9FC40B1DE
:1011B000194800210180817003201549087007E05B
:1011C0004CE1FFF7A9FCFFF7FFF900201049087078
:1011D00040E11248807800EB8000174A02EBC00023
:1011E00001690DA83EF062FC1348816B05A83EF032
:1011F0005DFCAFF67003AFF6740205A90DA8FFF70A
:10120000A1F94FF4C87039F01BFCFFF799FC15E009
:101210001B0000101900001014000010D006001070
:101220000D0A2041505055626F7842746E636C6FA6
:10123000756D6E3D256400001801001038B1FF483F
:101240000021018081700320FD49087006E0FFF74E
:1012500063FCFFF7B9F90020F9490870FAE000BF14
:10126000F848807800EB8000F74A02EBC000416844
:101270000DA83EF01BFCF448C16A05A83EF016FC20
:10128000AFF60013AFF6041205A90DA8FFF75AF93F
:101290004FF4C87039F0D4FBFFF752FC38B1E7487F
:1012A0000021018081700320E549087006E0FFF706
:1012B00033FCFFF789F90020E1490870CAE0642097
:1012C00094FBF0F000F0FF0A642094FBF0F100FBC7
:1012D000114000F0FF0B5246012158461BF0A5FCBF
:1012E000DA49086008460568D64890F82700A8B390
:1012F000012834D0022830D16420B5FBF0F100FB86
:10130000115AB5FBF0FBCF48807800EB8000CE4946
:1013100001EBC000C168CB48CDE901BA00918078EB
:1013200000EB8000C84901EBC000C44BC8A1C269F2
:101330000DA83EF0BDF96420B5FBF0F100FB115A99
:10134000B5FBF0FBC048416BCDE901BA0091BB4B46
:10135000BFA1426C05A83EF0ABF95BE033E00A2088
:10136000B5FBF0F5B5FBF0F100FB115AB5FBF0FB56
:10137000B448807800EB8000B34901EBC000C1683D
:10138000B048CDE901BA0091807800EB8000AE4909
:1013900001EBC000A94BB3A1C2690DA83EF088F9CA
:1013A0000A20B5FBF0F100FB115AB5FBF0FBA64893
:1013B000416BCDE901BA0091A04BAAA1426C05A8EE
:1013C0003EF076F926E06420B5FBF0FA9D4880787F
:1013D00000EB80009C4901EBC000C2689948CDE950
:1013E000002A807800EB800001EBC000934BA1A1A4
:1013F000C2690DA83EF05CF96420B5FBF0FA924892
:10140000426BCDE9002A8D4B9AA1426C05A83EF0B3
:101410004FF900BF00BFAFF69423AFF6982205A99D
:101420000DA8FFF78FF8C82039F00AFBFFF788FBFB
:1014300028B19348048005208149087009E0C8203C
:1014400039F0FEFAFFF768FBFFF7BEF800207C4991
:10145000087000BF00BF00208A49087000BF80E408
:101460002DE9F04F93B0064620210BA83EF054FC26
:10147000202103A83EF050FC0027B846B9460024BE
:101480000025307843281BD100207E4908707E4912
:1014900008706A480021018081707C480180FFF754
:1014A0004FFB18B103206649087006E0FFF734FBD4
:1014B000FFF78AF800206249087013B0BDE8F08F8A
:1014C00071480078F0BB3078452829D032786D48D3
:1014D00001780078401C6B4B18706C484254594896
:1014E000807800EB80006A4A02EB0010816C0BA848
:1014F0003EF0DCFA65490BA83EF061FB6448D0F889
:10150000981003A83EF0D2FA604903A83EF057FBBA
:10151000AFF69033AFF6943203A90BA8FFF712F899
:1015200058480078022857DB58480078302839DBC3
:1015300056480078392835DC54484078302831DB6B
:10154000524800E0CBE0407839282BDC01204E499E
:10155000087000204B4908703848002101808170D4
:101560004A490BA83EF0A2FA3648807800EB80008A
:10157000474A02EB0010C16C0BA83EF020FB434928
:1015800003A83EF093FA4248D0F89C1003A83EF01E
:1015900016FBAFF61043AFF6144203A90BA8FEF7F3
:1015A000D1FFD4E10020374908703749087023483B
:1015B00000210180817035480180FFF7C1FA18B120
:1015C00003201F49087006E0FFF7A6FAFEF7FCFFAC
:1015D00000201B49087070E73078452864D12B48FB
:1015E0000078302861DB2948007839285DDC2748FD
:1015F0000078264948703020087001202249087080
:101600000020204908700D480021018081700D489C
:10161000807800EB80001E4901EB00101B4A1DA1E1
:10162000C36C0BA83EF044F81948184A19A1D0F829
:101630009C3003A83EF03CF817A32FE014000010E4
:101640001B000010D006001018010010340000101C
:1016500025732025732C2573253032642E253032D6
:101660006400000025732025732C257325642E2526
:101670006400000025732025732C25732564000069
:1016800030000010190000101A00001017000010A0
:10169000AC0300102573257300000000AFF20802B0
:1016A00003A90BA8FEF74EFF51E10020FB4908708B
:1016B000FB490870FB48002101808170FA480180D5
:1016C000FFF73EFA18B10320F849087006E0FFF76B
:1016D00023FAFEF779FF0020F4490870EDE6F048A0
:1016E000007801287ED13078452835D03178EB4814
:1016F00002780078401CE94B1870EA488154EA48A7
:1017000040783038E8490978303901EB810100EB45
:10171000410000F0FF09E34BE5480093807800EBBF
:101720008000E44901EB00104A46E3A1C36C0BA81A
:101730003DF0BEFFDB4BDF4800934A46DEA1D0F808
:101740009C3003A83DF0B4FFAFF2B403AFF2B8028F
:1017500003A90BA8FEF7F6FED0480078022875DB37
:10176000D0480078302856DBCE480078392852DC43
:10177000CC48407830284EDBCA48407839284ADCCB
:10178000C949C848FFF791F90446642094FBF0F07A
:1017900000F0FF0A642094FBF0F100FB114000F020
:1017A000FF0B514658461BF038FAC7B2C04890F8B4
:1017B0002F0002282CD1642094FBF0F000F0FF0AE7
:1017C000642094FBF0F100FB114000F0FF0B524647
:1017D0005946012018F074F80020B0490870B0494B
:1017E000087000E08BE0AF48002101808170AE48B6
:1017F0000180FFF7A5F918B10320AC49087006E095
:10180000FFF78AF9FEF7E0FE0020A849087054E6C9
:101810004FF001089BE00020A0490870A049087023
:10182000A0480021018081709F480180FFF788F95E
:1018300018B103209D49087006E0FFF76DF9FEF727
:10184000C3FE00209949087037E6FFE73078452845
:101850007DD194480078302852DB924800783928AE
:101860004EDC904800788F494870302008708E49CF
:101870008C48FFF71AF90446642094FBF0F000F05E
:10188000FF0A642094FBF0F100FB114000F0FF0B15
:10189000514658461BF0C1F9C7B2854890F82F0051
:1018A00002282AD1642094FBF0F000F0FF0A6420A3
:1018B00094FBF0F100FB114000F0FF0B524659463B
:1018C000012017F0FDFF002074490870744908706A
:1018D000744800210180817073480180FFF730F95E
:1018E00018B103207149087006E0FFF715F9FEF7FB
:1018F0006BFE00206D490870DFE54FF0010826E01F
:10190000002066490870674800210180817068489E
:10191000807800EB8000674901EB0010624AAFF26B
:101920008C21C36C0BA83DF0C3FE62485E4AAFF247
:101930009C21D0F89C3003A83DF0BAFEAFF2A8235A
:10194000AFF2AC2203A90BA8FEF7FCFDB5E5B8F198
:10195000000F73D0062F3AD2DFE807F0BC72033ACB
:10196000047100BF5248807800EB8000544A02EBBB
:10197000C00041690BA83EF099F85148C16B03A81B
:101980003EF094F8AFF2F023AFF2F42203A90BA8D3
:10199000FEF7D8FD4FF4C87039F052F8FFF7D0F8D1
:1019A00070B100203D4908703D4908703E48002153
:1019B00001803C480180817003203C49087006E0AA
:1019C000FFF7AAF8FEF700FE00203849087052E140
:1019D0003748807800EB8000394A02EBC00001698B
:1019E0000BA83EF063F83648816B03A83EF05EF822
:1019F000AFF25C33AFF2603203A90BA8FEF7A2FD91
:101A00004FF4C87039F01CF8FFF79AF870B1002055
:101A1000224908702249087023480021018021488A
:101A20000180817003202149087006E0FFF774F8F7
:101A3000FEF7CAFD00201D4908701CE121E100BF2E
:101A40001B48807800EB80001D4A02EBC000416813
:101A50000BA83EF02BF81A48C16A03A83EF026F8FE
:101A6000AFF2CC33AFF2D03203A90BA8FEF76AFD78
:101A70004FF4C87038F0E4FFFFF762F810B30020AD
:101A8000064908700649087007480021018005488A
:101A9000018081700320054908701AE019000010C8
:101AA0001A00001014000010170000101B00001096
:101AB000D0060010AC0300102564257325730000C8
:101AC00018010010FFF728F8FEF77EFD0020FD4901
:101AD0000870D0E0642094FBF0F000F0FF0A64206E
:101AE00094FBF0F100FB114000F0FF0B5246012186
:101AF00058461BF09AF8F449086008460568F34810
:101B000090F82700B8B3012836D0022832D16420DB
:101B1000B5FBF0F100FB115AB5FBF0FBEB48807808
:101B200000EB8000EA4901EBC000C168E748CDE95D
:101B300001BA0091807800EB8000E54901EBC0001C
:101B4000E44BAFF2F441C2690BA83DF0B1FD642053
:101B5000B5FBF0F100FB115AB5FBF0FBDC48416B23
:101B6000CDE901BA0091DB4BAFF21C51426C03A8E6
:101B70003DF09EFD5FE035E00A20B5FBF0F5B5FBDA
:101B8000F0F100FB115AB5FBF0FBD048807800EB78
:101B90008000CF4901EBC000C168CC48CDE901BA53
:101BA0000091807800EB8000C94901EBC000C94B6F
:101BB000AFF25051C2690BA83DF07AFD0A20B5FB87
:101BC000F0F100FB115AB5FBF0FBC148416BCDE9C8
:101BD00001BA0091BF4BAFF27451426C03A83DF0C3
:101BE00067FD28E06420B5FBF0FAB848807800EB88
:101BF0008000B74901EBC000C268B448CDE9002AB3
:101C0000807800EB800001EBC000B24BAFF29C513A
:101C1000C2690BA83DF04CFD6420B5FBF0FAAC485E
:101C2000426BCDE9002AAB4BAFF2B851426C03A82E
:101C30003DF03EFD00BF00BFAFF2A453AFF2A8528B
:101C400003A90BA8FEF77EFCC82038F0F9FEFEF7CA
:101C500077FF28B1A048048005209A49087009E060
:101C6000C82038F0EDFEFEF757FFFEF7ADFC002070
:101C70009449087000BF00BF002098490870984937
:101C8000087000BF19E42DE9F041A4B006460D46E6
:101C900020211CA83EF040F8202114A83EF03CF87A
:101CA00020210CA83EF038F8202104A83EF034F89A
:101CB000022038F0C5FEFEF743FF0446EEBB834822
:101CC0008078012814D08748036D8048807800EB25
:101CD0008000844901EB001083A102687B488DE8F5
:101CE0000E008378002202214C2036F090FA0CE09E
:101CF0007C48AFF23822036D7448CDE90023837825
:101D000000220221602036F082FA042211460020CF
:101D100036F0B2F96D48807828B9022300220521F7
:101D20002C2036F0CBFB694890F8270048B30128F7
:101D300014D0022831D1642000E05CE0B4FBF0F163
:101D400000FB1147B4FBF0F8AFF2F4630422114634
:101D50004C20CDE9008736F006FB1EE00A20B4FBDC
:101D6000F0F4B4FBF0F100FB1147B4FBF0F8AFF274
:101D70000473042211464C20CDE9008736F0F3FAB3
:101D80000BE06420B4FBF0F7AFF2107304221146AD
:101D90004C20009736F0E7FA00BF00BF012D11D1AB
:101DA0004A48807800EB80004E4A02EB0010816CBC
:101DB0001CA83DF07BFE4B48D0F8981014A83DF0CD
:101DC00075FE0FE04148807800EB8000454A02EB49
:101DD000001001691CA83DF069FE4248016E14A87C
:101DE0003DF064FEAFF25073AFF2547214A91CA818
:101DF000FEF7A8FBC3E035488078012814D03948A5
:101E0000436D3248807800EB8000364901EB0010CA
:101E100035A142682D488DE80E008378002202210A
:101E20004C2036F0F4F912E02848807800EB80006E
:101E30002C4901EB0010AFF27C3243682348CDE916
:101E40000023837800220221602036F0E0F904228A
:101E50001146002036F010F91C48807828B902237A
:101E6000002205212C2036F029FB184890F8270085
:101E700038B3012812D0022846D16420B4FBF0F117
:101E800000FB1147B4FBF0F8AFF63403042211460F
:101E90004C20CDE9008736F066FA35E00A20B4FB25
:101EA000F0F4B4FBF0F100FB1147B4FBF0F8AFF62F
:101EB0004403042211464C20CDE9008736F053FA42
:101EC00022E015E01B00001034000010D0060010C6
:101ED000180100101400001030000010190000104C
:101EE0001A000010AC03001025732F2573000000AA
:101EF0006420B4FBF0F7AFF67C03042211464C20BB
:101F0000009736F030FA00BF00BF012D11D1FF4815
:101F1000807800EB8000FE4A02EB0010816C1CA868
:101F20003DF0C4FDFA48D0F8981014A83DF0BEFD6D
:101F30001FE0F648807800EB8000F54A02EB0010C5
:101F400041691CA83DF0B2FDF148416E14A83DF076
:101F5000ADFDEE48807800EB8000ED4A02EB00100A
:101F600081690CA83DF0A2FDE948816E04A83DF00E
:101F70009DFD04AB0CAA14A91CA8FEF7E3FA24B03B
:101F8000BDE8F08100B591B0202109A83DF0C4FE64
:101F9000202101A83DF0C0FEDC48807800EB8000E5
:101FA000DB4A02EB0010816809A83DF07FFDD848AC
:101FB000816D01A83DF07AFDAFF62413AFF628122B
:101FC00001A909A8FEF7BEFA11B000BD70B598B01E
:101FD0000446202110A83DF09FFE202108A83DF0D6
:101FE0009BFE202168463DF097FEC848807800EBB4
:101FF0008000C74A02EB0010C16868463DF056FDFC
:10200000C348C16D08A83DF051FDC04890F82700B5
:1020100018B3012810D0022829D16420B4FBF0F1B4
:1020200000FB1145B4FBF0F62B463246AFF6D81153
:1020300010A83DF03DFB1AE00A20B4FBF0F4B4FB1D
:10204000F0F100FB1145B4FBF0F62B463246AFF63B
:10205000E41110A83DF02CFB09E06420B4FBF0F57E
:102060002A46AFF6E81110A83DF022FB00BF00BFE2
:1020700010A968463DF0A3FDAFF6E413AFF6E812F1
:1020800008A96846FEF75EFA4FF4C87038F0D8FC2D
:1020900018B070BD00B591B0202109A83DF03CFEFC
:1020A000202101A83DF038FE9848807800EB8000A0
:1020B000974A02EB0010816B09A83DF0F7FC9448A9
:1020C000D0F8881001A83DF0F1FCAFF63423AFF64C
:1020D000382201A909A8FEF735FA4FF4C87038F084
:1020E000AFFC11B000BD00B591B0202109A83DF0B2
:1020F00013FE202101A83DF00FFE8448807800EBFC
:102100008000834A02EB0010C16B09A83DF0CEFCB1
:102110007F48D0F88C1001A83DF0C8FCAFF68823AA
:10212000AFF68C2201A909A8FEF70CFA142038F0AA
:1021300087FC11B000BD00B591B0202109A83DF089
:10214000EBFD202101A83DF0E7FD7048807800EB11
:1021500080006F4A02EB0010016C09A83DF0A6FC5C
:102160006B48D0F8901001A83DF0A0FCAFF6D82342
:10217000AFF6DC2201A909A8FEF7E4F94FF4C87014
:1021800038F05EFC11B000BD10B590B0202108A859
:102190003DF0C2FD202168463DF0BEFD5D4800884F
:1021A000642190FBF1F201FB12045848807800EBA7
:1021B0008000574901EB0010224657A1C36A08A8C6
:1021C0003DF076FA53480088642190FBF1F201FB60
:1021D00012044F48224650A1C36F68463DF068FA8A
:1021E000AFF64C33AFF65032694608A8FEF7AAF9AD
:1021F00010B010BD00B591B0202109A83DF08CFDB4
:10220000202101A83DF088FD4048807800EB800047
:102210003F4901EB0010AFF25C71C26A09A83DF0C2
:1022200047FA3B48AFF26C71C26F01A83DF040FA2B
:10223000AFF69C33AFF6A03201A909A8FEF782F9E8
:1022400011B000BD00B591B0202109A83DF064FD9A
:10225000202101A83DF060FD2C48807800EB800033
:102260002B4A02EB0010016B09A83DF01FFC284827
:10227000D0F8801001A83DF019FCAFF6E433AFF6BA
:10228000E83201A909A8FEF75DF9642038F0D8FB0F
:1022900011B000BD00B591B0202109A83DF03CFD72
:1022A000202101A83DF038FD1848807800EB80001F
:1022B000174A02EB0010416B09A83DF0F7FB1448E8
:1022C000D0F8841001A83DF0F1FBAFF63443AFF62F
:1022D000384201A909A8FEF735F94FF4C87038F063
:1022E000AFFB11B000BD00B591B0202109A83DF0B1
:1022F00013FD202101A83DF00FFD0448807800EB7C
:102300008000074A52F8201009A80BE0D006001000
:10231000AC0300103000001025642025730000007D
:102320003C0500103DF0C2FBFF48416901A83DF0AB
:10233000BDFBAFF69C43AFF6A04201A909A8FEF78A
:1023400001F911B000BD00B591B0202109A83DF000
:10235000E3FC202101A83DF0DFFCF448807800EB8D
:102360008000F14A02EB8000816809A83DF09EFBE5
:10237000ED48C16901A83DF099FBAFF6E443AFF623
:10238000E84201A909A8FEF7DDF8642038F058FBFF
:1023900011B000BD70B592B0044620210AA83DF0EE
:1023A000BBFC202102A83DF0B7FCE04890F82700D4
:1023B00088B3012817D002283FD16420B4FBF0F184
:1023C00000FB1145B4FBF0F6D8480095807800EB8F
:1023D0008000D54901EB80003346D5A142680AA8A8
:1023E0003DF066F929E00A20B4FBF0F4B4FBF0F10B
:1023F00000FB1145B4FBF0F6CC480095807800EB6B
:102400008000C94901EB80003346CCA142680AA88C
:102410003DF04EF911E0FFE76420B4FBF0F5C3484E
:10242000807800EB8000C04901EB80002B46C5A1FD
:1024300042680AA83DF03CF900BF00BFBA48816974
:1024400002A83DF033FBC0A3BFA202A90AA8FEF771
:1024500079F84FF47A7038F0F3FA12B070BD00B525
:1024600089B0202101A83DF057FC35F00BF902207E
:1024700038F0E6FAAC48016A01A83DF017FB01AB61
:1024800003220521302035F06EFFA848807801280E
:1024900013D0A648807800EB8000A34A02EB8000AE
:1024A000016901A83DF002FB01ABA04800938378CD
:1024B00000220B213C2035F0AAFE09B000BDA34844
:1024C0000068704770B506460C461546974890F868
:1024D0002300C8B1012E02D0022E14D109E09CA025
:1024E00015F09AFC14F010FB0121084614F0E9FEE7
:1024F00009E09BA015F090FC14F0F3FA00210120F4
:1025000014F0DFFE00BF00BF884890F82100C8B17A
:10251000012C02D0022C14D109E095A015F07CFC0E
:1025200014F05DFC0121022014F0CBFE09E094A020
:1025300015F072FC14F038FC0021022014F0C1FEEA
:1025400000BF00BF794890F8260058B1012D02D095
:10255000022D06D102E01CF0A3FC02E01CF08FFC6F
:1025600000BF00BF142038F06BFA70BD10B5FEF745
:10257000E7FAF0B986480078D8B98648407A012849
:1025800017D1FEF7DDFA04468248437A8048027884
:10259000214681A015F040FC14F06EFA142038F0AA
:1025A0004FFA002211460120FFF78CFF142038F06B
:1025B00047FA10BD00207D49C8804871C8708870F6
:1025C000487001207A49887070472DE9F04104462F
:1025D000002500260027012C1ED114F038FF58B921
:1025E000524890F8230038B101250020684908704E
:1025F00035F048F8FFF7DEFF022014F028FF98BB03
:102600004A4890F82100012804D0484890F8210059
:10261000032829D1012627E0022C25D1012014F01E
:1026200016FF01280BD1414890F8230038B102254C
:1026300001205749087035F025F8FFF7BBFF02204D
:1026400014F005FF01280FD1384890F82100012827
:1026500004D0364890F82100032805D1334890F87B
:10266000C500012800D002263A4631462846FFF729
:1026700029FF002D01DD16F004FEBDE8F081F0B564
:1026800085B0002500260027284890F8250002285C
:1026900012D100240EE0474850F8240040B14548CC
:1026A00050F824101C3030F8140001FB0066274657
:1026B000601CC4B2072CEEDB1C4890F822000228F4
:1026C00031D13D48406F3C49B1F8C01048433A49C8
:1026D0008A6FB1F8C21002FB01013748C26FB0F82F
:1026E000C40002FB00113448D0F88020B0F8C600C6
:1026F00002FB00113048D0F88420B0F8C80002FB7B
:1027000000112D48D0F88820B0F8CA0002FB001153
:102710002948D0F88C20B0F8CC0002FB00112648E4
:10272000D0F890204AE086E03C050010D00600106A
:102730002573253032642E253032640025732564DC
:102740002E25640025732564000000002C00001075
:102750000D0A20417070656E42696C6C00000000CB
:102760000D0A2041707064697342696C6C0000004E
:102770000D0A20417070656E436F696E00000000A5
:102780000D0A20417070646973436F696E00000028
:102790001C000010604800100D0A2045727242694A
:1027A0006C6C3D25642C25642C2564000800001009
:1027B00054090010280900101C080010B0F8CE00C1
:1027C00002FB0011FF48D0F89420B0F8D00002FBC3
:1027D0000011FC48D0F89820B0F8D20002FB00119C
:1027E000F848D0F89C20B0F8D40002FB0011F5485E
:1027F000D0F8A020B0F8D60002FB0011F148D0F8C4
:10280000A420B0F8D80002FB0011EE48D0F8A820B0
:10281000B0F8DA0002FB0011EA48D0F8AC20B0F8BA
:10282000DC0002FB0011E748D0F8B020B0F8DE0071
:1028300002FB001512E0E44890F82200012808D1BC
:1028400014F0DAFC10B9E048806B00E00020054687
:1028500004E0DD4890F8220000B900257019DA493B
:10286000896B884202D9D848806B00E07019D7493B
:102870000860D548D0F8C03008460268D248816B5D
:10288000D348CDE90065CDE90323029150F8270034
:10289000DFF83CC30CF11C0C3CF817C000FB0CF338
:1028A000C848806FDFF81CC3BCF8C2C000FB0CF244
:1028B000C448406FDFF80CC3BCF8C0C000FB0CF18B
:1028C000C44815F0A9FAC04890F8220002280CD19B
:1028D000BD48D0F8C000A84203D90220FFF775FE1A
:1028E00035E00120FFF771FE31E0B74890F8220093
:1028F00001280CD1B448D0F8C000A84203D9022066
:10290000FFF763FE23E00120FFF75FFE1FE0AE4804
:1029100090F82200D8B9AC4890F8250002280DD1D3
:102920007019A949D1F8C010884203D20220FFF7DC
:102930004CFE0CE00120FFF748FE08E0A248806B47
:10294000A2490860A4480168A4A015F065FAFFF741
:102950000DFE002005B0F0BD014669B99A4A92F813
:102960002E200F32FF2A01DDFF2203E0964A92F863
:102970002E200F32D0B20CE001290AD1924A92F8EF
:102980002E20FF2A01DDFF2202E08F4A92F82E203E
:10299000D0B2704770B58C4890F8210018B314F08D
:1029A000BAF90446FCB19248006820449049086096
:1029B000FEF7C6F80546024621468EA015F04EFAEF
:1029C000022200210846FFF77DFD0121204614F078
:1029D00033FEFEF7B5F805460246A1B2012016F017
:1029E000A2FB012070BD784890F8230090B313F04B
:1029F000F3FF044674B3214684A015F00DFA87480E
:102A000000680119744803687048026884A015F0D2
:102A100003FA8248006820446C49096888421AD247
:102A200013F0F2FF90B17D48006820447B490860B4
:102A30000221204614F000FEFEF782F80546024609
:102A4000A1B2022016F06FFB002452E014F014F83B
:102A50000020C7E761E05C4890F8240001283DD1E0
:102A6000FFF790FAFEF76CF828B34FF4AF7037F029
:102A7000E7FF0020FFF770FF724988710320724959
:102A80000870002071490870714908707148002170
:102A900001807148018081707048006837F090FDB6
:102AA00000206F4908606F4801780020FFF7EBF8BD
:102AB00013F0E2FF0EE0FEF72FF8002062490870E5
:102AC00013F0DAFF4FF4C87037F0BAFFFDF77CFD62
:102AD000FFF770FD00206449086083E762480460E6
:102AE000FEF72EF805460246A1B2032016F01BFBA6
:102AF00000244A480068204434490968884205D3C4
:102B0000022200211046FFF7DDFC04E00222002132
:102B10000846FFF7D7FC012064E72B4890F8260011
:102B2000C0B352481CF07BF9044650480078012895
:102B300019D1C4B121464EA015F0D4F95248046011
:102B40000321204614F078FD002202210846FFF7F9
:102B5000B9FCFDF7F5FF05460246A1B2052016F0C7
:102B6000E2FA01203EE741480078022813D147A04D
:102B700015F0B8F9FDF7E4FF85B200232A4619469F
:102B8000022015F023FB0020384908703E490860F8
:102B9000022027E7FFE7002024E7F8B50025002002
:102BA0000090094890F82500022809D1FDF7C8FFD8
:102BB00005462DB129463CA015F02EF90024CDE0A4
:102BC000CFE000001C080010D00600103C000010F0
:102BD00028090010DC130400400000100D0A4170A9
:102BE000704368616E6765206D61783D256C640097
:102BF000200000100D0A417070636F696E312E6302
:102C00006F696E3D256C642C256C64000D0A322EB4
:102C100041707062696C6C3D256C6400240000108A
:102C20000D0A41707062696C6C3D256C642C4D6FAF
:102C30006E65793D256C642C70726963653D256C09
:102C4000640D0A00540900101B0000101900001048
:102C50001A0000101700001014000010940000105B
:102C6000340000103900001028000010440000104B
:102C70000D0A20417070526561646572312E726573
:102C800061643D256C6400002C0000100D0A204199
:102C90007070526561646572204F555450555420D0
:102CA00063617264000000000D0A204170704E657F
:102CB00065647061793D256C64000000FC4850F843
:102CC0002400F0B3FA4850F82400B5FBF0F0C6B287
:102CD0003146F8A015F0A0F8F5481C3030F8140083
:102CE000B04201DB304603E0F1481C3030F81400FC
:102CF000C6B23146F4A015F08FF8ED4951F8241012
:102D000001FB06F0694613F050FF07463946F3A071
:102D1000009A15F081F8012F1DD1F7480068F74996
:102D2000096808440099451A0020F4490860F248EF
:102D300005602946F2A015F06FF8F54890F83400C8
:102D400000E009E0012806D12B46009882B200215C
:102D5000012015F03BFA03E0601CC4B2072CADDB88
:102D600000BFF8BDF8B5EB480068D8B113F084FE99
:102D700070B1FDF7E5FEE7490968461A3246E548B5
:102D8000006881B2042016F0CEF90020E149086005
:102D900037F004FF06460146DFA015F04DF9642028
:102DA00037F04EFEFDF7CCFE0546FFF7F6FEFDF7C9
:102DB000C7FE70B137F0F2FE06460146DAA015F004
:102DC0003BF9FDF7BDFE064669461BF0C0FD044613
:102DD00000E00124CE4890F83400012838D1DCB955
:102DE000D7A015F029F9FDF7ABFE0099461A304639
:102DF00014F08CFEFDF7A4FE0099401A86B20B4633
:102E000032460021084615F0E1F90020BA49086071
:102E1000BA4908600098F8BD37F0C0FE0646014682
:102E2000CCA015F009F9FDF78BFE0646002114F041
:102E30006DFEFDF785FE86B2002332461946184620
:102E400015F0C4F90020AC490860AC490860E2E71D
:102E5000ACB9BBA015F0F0F80099681A14F056FE52
:102E60000098281A82B200231946184615F0AEF9C8
:102E70000020A1490860A14908600098CBE737F01D
:102E80008DFE06460146B3A015F0D6F8002128466F
:102E900014F03CFE0023AAB21946184615F096F924
:102EA0000020954908609549086000BFB3E72DE907
:102EB000F04100260024AC480468FDF741FEA04222
:102EC00006D2AA48006818B90720A9490870C1E0CD
:102ED000A648006878B1FFF706F9A0B21CF09EF88A
:102EE0000646012E03D10A20A1490870B2E009204C
:102EF0009F490870AEE0804800688049096808442E
:102F0000A04262D27C480068201A7C490968451AB0
:102F100080480068451B7E4890F82200022801D1B5
:102F2000012615E07A4890F82200012801D10126F7
:102F30000EE0774890F8220050B9754890F82500C7
:102F4000022801D1012603E00DB9012600E0002688
:102F5000012E36D113F058FDF0B1684800686D4974
:102F6000096808446549086002216A48006814F04D
:102F700063FBFDF7E5FD67490968471A3A4665486E
:102F8000006881B2022016F0CEF800206149086086
:102F90000A20774908705DE013F06EFDFDF7D0FD63
:102FA0005C490968471A3A465A48006881B20420C9
:102FB00016F0B9F800205749086008206C490870DD
:102FC00048E008206A49087044E04B4800684B49D3
:102FD00009680844051B4E4890F82200022801D1D8
:102FE000012615E04A4890F82200012801D1012667
:102FF0000EE0474890F8220050B9454890F8250067
:10300000022801D1012603E00DB9012600E00026C7
:10301000012E1CD13E4890F82400012813D13D48D0
:10302000006880B113F028FDFDF78AFD3949096871
:10303000471A3A463748006881B2042016F073F800
:103040000020344908600A204949087002E008203D
:1030500047490870BDE8F08110B5044604B3434801
:10306000006860B143A014F03DFF01201CF03EF861
:103070003E480068001B3D490860002410E01F48DE
:103080000068844206D31D480068241A00201B49AA
:10309000086005E019480068001B18490860002412
:1030A00024B115480068001B1349086010BD0000DA
:1030B000280900100D0A204170704E6565646E7518
:1030C0006D3D2564000000000D0A204170705265BE
:1030D000616C6E756D3D2564000000000D0A204195
:1030E00070705265636261636B2073743D25642C5C
:1030F0007061793D256C64002000001024000010F0
:103100000D0A204170707061793D256C64000000EB
:10311000D0060010280000100D0A20417070486F82
:103120006C645265742564000D0A2041707042651C
:1031300067696E206368616E676525640000000042
:103140000D0A204170706368616E67652046616991
:103150006C0000000D0A204170706368616E676545
:103160002073756363256400340000102C00001088
:103170001B0000100D0A2041707043487568756F80
:103180005375636300000000FF4890F82E00FF288D
:1031900006DAFE48807908B9012070470020FCE774
:1031A0000020FAE70EB5F9488379F748807800EBFC
:1031B0008000F74901EB0010F6A1426CF2488DE85F
:1031C0000E00837800221146962035F020F80EBDBF
:1031D00070B504460125F4B3F0480068F049096869
:1031E0000844A0422AD213F00FFCB0B1EC480068AA
:1031F000EC4909680844EA490860FDF7A1FCE9497F
:103200000968461A3246E748006881B2022015F084
:103210008AFF0020E349086010E013F02DFCFDF761
:103220008FFCE0490968461A3246DE48006881B2E0
:10323000042015F078FF0020DA490860FDF780FCD3
:10324000064602462146D8A014F0F6FEFDF778FCAB
:10325000A04203D300E002E0012500E00025FDF7D5
:103260006FFC90B30320D74908700020FFF774FB70
:10327000C6498871D3480078032842D1C8480068FD
:10328000D1490968884204D2002201210846FFF78B
:1032900019F90020CD490870CD490870CD480021AA
:1032A0000180CD4801808170CC48006837F088F9F2
:1032B00034F0E8F9CA4801780020FEF7E4FCFDF795
:1032C0003FFC064617F0ADF91BE0FFE700220121A5
:1032D0000846FFF7F7F80020BC490870BC490870A1
:1032E000BC4800210180BC4801808170BB48006857
:1032F00037F066F934F0C6F9FFF7B1F80E20B1499E
:103300000870284670BD70B504460125002654B1EA
:10331000B448006838B1FEF7E6FEA0B21BF07EFEAE
:10332000064606B90025284670BD70B5044684B32C
:10333000AC48006860B1ACA014F0D4FD01201BF0D3
:10334000D5FEA8480068001BA6490860002447E095
:1033500092480068924909680844A0422FD213F0AD
:1033600053FBB8B18E4800688E49096808448C49FF
:103370000860FDF7E5FB8B490968451A2A4689482C
:10338000006881B2022015F0CEFE00208549086059
:1033900011E025E013F070FBFDF7D2FB81490968CD
:1033A000451A2A467F48006881B2042015F0BBFE0A
:1033B00000207C4908604FF4487037F041FB7848A2
:1033C0000068844206D376480068241A00207449B5
:1033D000086005E072480068001B7149086000241D
:1033E00024B16E480068001B6C490860FDF7A8FB1B
:1033F00090B30320734908700020FFF7ADFA6349CA
:10340000887170480078032842D1654800686E4989
:103410000968884204D2002201210846FFF752F8C9
:1034200000206A4908706A4908706A4800210180D2
:103430006948018081706948006837F0C1F834F04C
:1034400021F9674801780020FEF71DFCFDF778FBA5
:10345000054617F0E6F81BE0FFE7002201210846C9
:10346000FFF730F800205949087059490870594849
:10347000002101805848018081705848006837F069
:103480009FF834F0FFF8FEF7EAFF0E204D49087070
:1034900070BD2DE9F04F87B004460E461546002753
:1034A00000200690FEF7A6FE002202210846FFF744
:1034B00009F837F073FB8046014650A014F0BCFDBC
:1034C0003046FFF720FF642094FBF0F000F0FF0887
:1034D000642094FBF0F100FB114000F0FF0942462C
:1034E000012148460CF084FB0746274890F82F003E
:1034F000012804D0244890F82F00032842D1012F3E
:1035000041D1FDF71DFB08B914F082F8012D01D05F
:10351000022D02D13046FFF79FFD41202E49087051
:10352000642094FBF0F100FB11400A2190FBF1F0C4
:10353000303029494870642094FBF0F100FB1140C1
:103540000A2190FBF1F201FB120030302249887011
:103550002F4806602F4803782D4801681E48CDE9A2
:10356000015300918378427801782BA033F036FB29
:10357000284801780078401C264B18702B46164AC4
:10358000234869E0C0E095E0D0060010540900101F
:10359000AC030010257325303264000020000010B9
:1035A00024000010280000100D0A204170702050E7
:1035B000726963653D256C642C6D6F6E65793D2580
:1035C0006C6400001B0000103C000010190000108B
:1035D0001A000010170000101400001094000010D2
:1035E000390000102C0000100D0A2041707050436B
:1035F000436F737453756363000000000D0A202548
:103600006441707055626F7856656E646F757400B2
:1036100034000010380000104C6F675472616E73F4
:10362000616374696F6E415049206C6F6769633DD7
:103630002563256325632070726963653D256420D9
:10364000747970653D25782C7472616E4E756D735A
:103650003D25640D0A200000006814F02CF8642059
:1036600094FBF0F000F0FF0A642094FBF0F100FB03
:10367000114000F0FF0B52460221584619F0D5FACE
:1036800000F0FF08FDF75CFA0590642094FBF0F170
:1036900000FB114000F0FF09059A2B46CDE90128F7
:1036A00000964A460121002016F06CF90B20FF49D4
:1036B000087009E1FEF7EEFD642094FBF0F000F0E5
:1036C000FF0A642094FBF0F100FB114000F0FF0BB7
:1036D00052460221584619F0A8FA00F0FF08FDF7FB
:1036E0002FFA0590642094FBF0F100FB114000F0EC
:1036F000FF09059A2B46CDE9012800964A4601218B
:10370000992016F03FF9DFE0E94890F82F000228F1
:103710007ED1012F52D1FEF795FD3046FFF705FE11
:10372000642094FBF0F100FB11400A2190FBF1F0C2
:103730003030C0B28DF818000A2094FBF0F100FB85
:1037400011403030C0B28DF8190013F061FFD94834
:1037500001780078401CD74B18702B4606AA3046DB
:1037600013F0A9FF642094FBF0F000F0FF0B64203D
:1037700094FBF0F100FB1140C0B25A4602210490C4
:1037800019F053FA00F0FF08FDF7DAF9059064200C
:1037900094FBF0F100FB114000F0FF09642094FB62
:1037A000F0F000F0FF0A059A2B46CDE901280096BB
:1037B0004A465146002016F0E5F835E0FEF76AFD6E
:1037C000BD48006810B102201BF090FC642094FBFF
:1037D000F0F000F0FF0A642094FBF0F100FB1140D0
:1037E00000F0FF0B52460221584619F01EFA00F075
:1037F000FF08FDF7A5F90590642094FBF0F100FBAC
:10380000114000F0FF09642094FBF0F0C0B200E02A
:103810003FE00490059A2B46CDE9012800964A46E0
:103820000146022016F0AEF8FDF78AF990B30320A6
:103830009E4908700020FFF78FF8A04988719B48C7
:103840000078032840D19E4800689E490968884254
:1038500004D2002201210846FEF734FE00209A49D6
:1038600008709A4908709A4800210180994801809F
:1038700081709948006836F0A3FE33F003FF974843
:1038800001780020FEF7FFF9FDF75AF9804616F09F
:10389000C8FE19E0FFE7002201210846FEF712FEEC
:1038A00000208949087089490870894800210180F1
:1038B0008848018081708848006836F081FE33F0C6
:1038C000E1FE0E207949087007B0BDE8F08F2DE9C0
:1038D000F04F85B004460F4615461E46744890F8D2
:1038E0002F0002282BD1642094FBF0F000F0FF0A97
:1038F000642094FBF0F100FB114000F0FF0B5246F6
:103900000221584619F091F900F0FF08FDF718F967
:103910000490642094FBF0F100FB114000F0FF09DB
:10392000642094FBF0F0C0B20390049A2B46CDE9DA
:10393000012800974A460146304616F023F805B0A4
:10394000BDE8F08F10B5FDF7FBF8D8B1FFF70AFA24
:103950004FF4C87037F074F800205B4908705B4979
:1039600008705B48002101805A48018081705A48E4
:10397000006836F025FE33F085FEFEF770FD0E2060
:103980004A490870002202210846FEF79BFDC82024
:1039900037F056F821F06CFE4FF4C87037F050F84D
:1039A000002201210846FEF78DFD10BDFEB54048FE
:1039B00090F8260010B1FEF782FD60BBFDF7C0F85D
:1039C00050B3FEF790FC37F0E9F80546014644A0F5
:1039D00014F032FBFDF7B4F80546FDF7B1F80646E2
:1039E000012100231E22CDE9010500911946022084
:1039F00014F042FC4FF4C87037F022F8FFF7B2F928
:103A000004461CB12046FEF7C5FC01E0FEF79BFC16
:103A10000E20264908701CE0FEF765FCAFF6E000BA
:103A200014F00AFB0021084614F070F8204890F8C2
:103A30003400012805D100231A461946184614F00F
:103A4000C5FB0020294908601D4908600E20174960
:103A50000870FEBD2DE9F04104460025FEF7CAFBC3
:103A600037F09CF806460146AFF2704014F0E4FAD5
:103A7000642094FBF0F0C6B2642094FBF0F100FBEC
:103A80001140C7B23246012138460CF0B1F8054664
:103A9000FDF756F860B30320044908700020FEF7D4
:103AA0005BFF064988710148007822E01B00001086
:103AB000D0060010380000102C000010540900102F
:103AC000240000103C000010190000101A00001023
:103AD00017000010140000109400001039000010AE
:103AE0000D0A204170705475692564002000001093
:103AF00028E003283FD1FF480068FF490968884251
:103B000004D2002201210846FEF7DCFC0020FB491C
:103B10000870FB490870FB4800210180FA480180C9
:103B20008170FA48006836F04BFD33F0ABFDF84881
:103B300001780020FEF7A7F8FDF702F8064616F018
:103B400070FD18E0002201210846FEF7BBFC0020B2
:103B5000EA490870EA490870EA4800210180EA4809
:103B600001808170E948006836F02AFD33F08AFD53
:103B70000E20E84908702846BDE8F08170B504467B
:103B80000025FCF7DDFF0546E3480460FCF7D8FF9D
:103B900090B30320DF4908700020FEF7DDFEDF4907
:103BA0008871DC480078032841D1D2480068D249A6
:103BB0000968884204D2002201210846FEF782FCEF
:103BC0000020CE490870CE490870CE4800210180FF
:103BD000CD4801808170CD48006836F0F1FC33F0AB
:103BE00051FDCB4801780020FEF74DF8FCF7A8FF07
:103BF000064616F016FD1AE0FFE7002201210846EE
:103C0000FEF760FC0020BD490870BD490870BD4842
:103C100000210180BC4801808170BC48006836F0FA
:103C2000CFFC25B133F02EFD0E20BA49087070BDCF
:103C3000F0B591B005460024202109A83CF06CF8AD
:103C4000202101A83CF068F80520B4494871FCF730
:103C500077FF08B9FCF743FF2C46B14890F82700DE
:103C6000F0B3012826D002286ED1642094FBF0F135
:103C700000FB114694FBF0F7A9480096807800EB12
:103C80008000A84901EBC0003B46A749C26809A8CB
:103C90003BF00EFD642094FBF0F100FB114694FB19
:103CA000F0F7A04800963B469F49426B01A83BF0C5
:103CB000FFFC49E00A2094FBF0F084B20A2094FB58
:103CC000F0F100FB114694FBF0F7954800968078E0
:103CD00000EB8000934901EBC0003B46924900E0B5
:103CE00015E00C31C26809A83BF0E2FC0A2094FB05
:103CF000F0F100FB114694FBF0F78A4800963B4632
:103D000089490C31426B01A83BF0D2FC1CE06420D5
:103D100094FBF0F68248807800EB8000814901EB4B
:103D2000C000334680491431C26809A83BF0C0FC8A
:103D3000642094FBF0F67B4833467B491431426B98
:103D400001A83BF0B5FC00BF00BFAFF25473AFF267
:103D5000587201A909A8FCF7F5FB4FF4167036F06C
:103D60006FFE6E48407978B9FCF7EAFE18B103207F
:103D70006849087006E0FCF7CFFEFCF725FC002040
:103D800064490870FEF716FC62480078032805D1E4
:103D90005F4801780020FDF776FF06E05D48007877
:103DA00018B933F06FFCFEF705FC11B0F0BD10B58B
:103DB00092B0044620210AA83BF0AEFF202102A8C1
:103DC0003BF0AAFFFCF7BCFE10B10020FFF7D6FEC7
:103DD000224656A10AA83BF06BFC224653A102A83A
:103DE0003BF066FC02AB4E480093837800220E2124
:103DF000502034F00CFA12B010BD88B000200790AB
:103E0000002400250690059044498870C870087108
:103E1000487134F004FE38B1022211461046FEF714
:103E200051FB13203B49087001200FF0FEF9404977
:103E300008603B4890F89800012802D116F0D2FAA9
:103E400002E0012016F0BAFA012034F065FE33F0EA
:103E500019FCF9E32F4800783BF001FB2D4800786E
:103E6000142846D2DFE800F00AC7FEFDFCFBFAF991
:103E7000F8F7F6F5F4F3F2F1F0EFEEED2D48006807
:103E8000C82802D900202B4908602448807830B91E
:103E9000052022498870FCF7A3FB15F0FFF805A95F
:103EA000002016F084FD07909DF81C0098B19DF845
:103EB0001C003C2803D09DF81C003E2805D10020A2
:103EC0000E4908700E49087005E005201349487135
:103ED0000120104908701148007920B905200F49C8
:103EE0000871FEF7CCFBFEF755FD0446012C42D1CC
:103EF00022E0EAE2240000103C000010190000104B
:103F00001A00001017000010140000109400001098
:103F1000390000101B0000102C0000105409001084
:103F2000D006001018010010302700002573000093
:103F3000400000104800001012F0C3FF33F0A2FB55
:103F4000FF4801782846FDF79EFEFCF7F9FD07467D
:103F50000146FCA013F060FF13F05AFB2846FEF761
:103F6000FBFCFD498871FCF7EBFD074616F059FB99
:103F70000320FA490870F848C078F0B90520F649DE
:103F8000C87012F0C1FF13F04FF8A0B10020F24941
:103F9000887015F076F9642036F052FD33F072FB2C
:103FA000022211461046FEF78DFAFEF703FB0F20A2
:103FB000EA49087001E015F052FC34F030FD38B1E8
:103FC000022211461046FEF77DFA1320E3490870DD
:103FD000012012F017FAFCF7B3FD074614F0FCF9C4
:103FE00034F086FD07461BF00BFB00201BF01FFB87
:103FF00016F038FD69E29DF81C0080B19DF81C1098
:10400000D7A013F0F7FF0520D3494871FCF798FDBE
:1040100008B9FCF764FD05A907A8FCF79DFD05A9F3
:10402000012016F0C4FC0790CB48407928B9432002
:10403000079002200590FEF7BDFAC84800780328D3
:1040400011E0B0E396E385E359E307E3D5E2C4E288
:104050008FE23BE210E1F2E0C8E0A3E0A1E09DE0E6
:104060009BE039E00EE005D1B54801782846FDF720
:104070000AFE06E0B948007818B933F003FBFEF7F2
:1040800099FA22E29DF81C0050B11420B2494871FF
:10409000FCF756FD08B9FCF722FD07A8FDF7E0F98B
:1040A00005A9012016F083FC0790AB48407918B9A8
:1040B0004320079002200590A8480078032805D1E6
:1040C0009F4801782846FDF7DEFD04E0A34800780C
:1040D00008B933F0D7FAF6E3FEF75CFC0446012C8E
:1040E00015D1974801782846FDF7CDFD2846FEF703
:1040F00033FC99498871FCF723FD074616F091FAC5
:10410000FCF71EFD074601468EA013F085FE05A9AB
:10411000002016F04CFC07909DF81C0058B19DF84B
:104120001C1093A013F066FF05208B4948710120F5
:104130008A490870C7E312F09BFE10B9FFF724F814
:1041400078B18F48407808B1012D0AD18D480068B8
:1041500038B9002202210846FEF7B4F90D207F4944
:104160000870894890F82E00FF2809DA84484078C2
:1041700008B1012D04D18348006808B9FFF712F88F
:10418000022C02D10E2075490870FCF7D9FC0746B5
:1041900014F022F916F066FC95E394E3FEF787FE2F
:1041A00091E390E379480068FDF710FF2846FEF799
:1041B000D3FB69498871032068490870002074495D
:1041C00008707449087074480021018073480180A8
:1041D00081707348006836F0F3F900206B4908607D
:1041E000574801782846FDF74EFD6CE3FDF752FF76
:1041F000FCF7A6FCF8B12846FEF7AEFB56498871DD
:104200000320564908700020614908706149087010
:104210006148002101806148018081706048006828
:1042200036F0CEF900205949086045480178284603
:10423000FDF729FD02E00E204849087043E3FDF731
:104240007AFF032045490870002051490870514900
:104250000870514800210180504801808170504809
:10426000006836F0ADF9002048490860344801780C
:104270002846FDF708FD26E3002202210846FEF746
:1042800021F9FDF781FF47480088642190FBF1F098
:10429000C7B24448008890FBF1F201FB120000F025
:1042A000FF083A46012140460BF0A2FC0690069812
:1042B000012844D135480068FEF7CEFE3148006839
:1042C00060B1394801780078401C374B18700223E0
:1042D000324A2E48006813F0EEF910E032480178B7
:1042E0000078401C304B187000232C4A2748006887
:1042F00013F0E1F92548006880B21AF03CFF294824
:104300000088642190FBF1F000F0FF0A2548008846
:1043100090FBF1F201FB120000F0FF0B524602216C
:10432000584618F082FCC7B2FCF70AFC04901D48FE
:104330000088642190FBF1F201FB120036E04CE0B2
:10434000390000100D0A2041707032616D6F756E7A
:10435000743D256C64000000540900101B0000101F
:104360000D0A204170704B6579323D2564000000D4
:104370000D0A204170704B6579313D2564000000C5
:10438000980700102C000010D00600103400001018
:10439000190000101A00001017000010140000107F
:1043A00094000010300000103800001000F0FF08EA
:1043B000FD48008890FBF1F000F0FF09FB48049AEB
:1043C000016800238DE8860042464946184615F0EC
:1043D000D9FA0B20F649087074E0F648006828B155
:1043E000F5A013F07FFD02201AF080FEF74890F848
:1043F0002F00012804D0F54890F82F0003282CD175
:10440000E9480088642190FBF1F000F0FF0AE648DB
:10441000008890FBF1F201FB1200C7B25246022164
:10442000384618F002FC00F0FF09FCF789FB8346D0
:10443000DD480088642190FBF1F201FB120000F0DE
:10444000FF08DA48016800234246CDE901B900912E
:104450000121992015F096FA31E0D34800886421B3
:1044600090FBF1F000F0FF0ACF48008890FBF1F2DA
:1044700001FB120000F0FF0B52460221584618F0D3
:10448000D4FBC7B2FCF75CFB0490C74800886421EA
:1044900090FBF1F201FB120000F0FF08C248008817
:1044A00090FBF1F000F0FF09C048049A0168002376
:1044B0008DE8860042464946022015F063FA0C203A
:1044C000BB4908700020B9490860FCE1FDF7BAFE5D
:1044D000BF48007801283CD1FCF732FBC0B3032071
:1044E000B349087001252846FEF736FAB9498871A4
:1044F000AF48007803283BD1B7480068B74909683E
:10450000884204D2002201210846FDF7DBFF00208B
:10451000B3490870B3490870B34800210180B3481B
:1045200001808170B248006836F04AF833F0AAF88A
:10453000B04801782846FDF7A6FBFCF701FB0746CB
:1045400016F06FF805A9002016F031FA07900FE079
:10455000FFE7FCF7F5FA40B1A64801782846FDF7D9
:1045600092FB0D209249087002E00E2090490870DD
:10457000A9E1FDF78FFEFCF7E3FA68B303208C494D
:10458000087001252846FEF7E7F9924988718848A6
:104590000078032820D19048006890490968884233
:1045A00004D2002201210846FDF78CFF00208C492F
:1045B00008708C4908708C48002101808B4801806C
:1045C00081708B48006835F0FBFF33F05BF8894859
:1045D00001782846FDF757FB75E1FDF784FEFEF7ED
:1045E000C1FB06461EB13046FDF7D4FE01E0FDF7E3
:1045F000AAFE0E206E49087065E1FDF730FFFCF75A
:104600008BFA002500207C490870674908807949A9
:10461000087070490871012211461046FDF752FFDB
:10462000002076490870FDF7C5FF01200EF0FDFD62
:104630007349086013F0E9FA644890F8980001287B
:1046400003D115F0CFFE03E041E1012015F0B6FEE5
:1046500033F018F800205649087034E15D4880783E
:1046600020B91E205B498870FCF7F9F85948C078DA
:1046700018BB05205749C87012F046FC012011F004
:10468000C1FE12F0D1FC98B900205249887032F076
:10469000F9FF012211461046FDF714FF642036F0A1
:1046A000CFF914F0EEFDFDF785FF002040490870BA
:1046B000FCF746FA074613F08FFE34F0B0F910B15C
:1046C00013203B490870FEF765F90446012C15D10B
:1046D00012F0F7FB32F0D6FF464801782846FDF786
:1046E000D2FAFCF72DFA07460146AFF2A83013F0D4
:1046F00093FB12F08DFF10202D490870E3E0FEF7C8
:1047000049F90446012C0CD13A4801782846FDF7B6
:10471000BAFAFCF715FA07460146AFF2D83013F0A3
:104720007BFB12F0A5FB50B12248006838B900228B
:1047300002210846FDF7C6FE11201D490870022C13
:1047400002D112201A490870FCF7FAF9074613F053
:1047500043FEB8E0FDF7C7FDFEF704FB06461EB1B9
:104760003046FDF717FE01E0FDF7EDFD1220104980
:104770000870A8E0FDF773FEFCF7CEF900250020D5
:104780001D4908700849088032F07CFF0022012191
:104790000846FDF797FE13F038FAFDF70BFF0F20E0
:1047A000034908708FE02DE0300000103400001045
:1047B0001B0000102C0000100D0A204170704348AF
:1047C0007568756F4661696C00000000D0060010C6
:1047D0009807001054090010240000103C0000103D
:1047E000190000101A00001017000010140000102B
:1047F0009400001039000010380000101C00001058
:1048000040000010002015F0D9FD324890F82F002C
:1048100070B1012012F028FE2E4890F8340038B90B
:10482000C82036F00DF914F02CFDC82036F008F938
:1048300000BFFCF785F9074613F0CEFD002008F015
:104840006BFC34F0ECF80028F3D12349887032F087
:1048500019FF012211461046FDF734FE00201F49C2
:104860000870FDF7A7FE1B4890F82F00B8B1002391
:10487000009301931A4619460520029313F0FCFC9D
:10488000002012F0F1FD134890F8340038B9C82028
:1048900036F0D6F814F0F5FCC82036F0D1F8012037
:1048A0000EF0C3FC0E4908600A4890F898000128F1
:1048B00002D115F097FD02E0012015F07FFD0020E8
:1048C0000849087000BF00BF022036F0B9F8FFF7B2
:1048D000C1BA0000D0060010540900101C000010DE
:1048E000400000101B000010F0B585B00026002726
:1048F000FAA103C9CDE9010132F0C4FEF9A032F0FA
:104900006DF9B8E00F23EF220021084633F01BFEBB
:104910000323EF220021084633F015FEF748807884
:10492000F74951F82030F54800938378002201219F
:10493000082033F06CFCF1488178F148143050F8CD
:104940002130EE480093837800220621302033F096
:104950005EFC0E23EE220D21012032F0CDFEE74851
:104960008178E7483C3050F82130E4480093837860
:1049700000220D211C2033F04AFC7BE0002700249C
:104980000AE0342101EB0411C8B20023DDA20921A1
:1049900032F0DCFE601CC4B2082CF2DB69E034F0BB
:1049A00006F80546F5B3432D02D1002005B0F0BD51
:1049B00003A8855531013431C8B20023D2A20921A0
:1049C00032F0C4FE701CC6B2082E4FD1002601275B
:1049D000002408E003A8005D01A9095D884200D019
:1049E0000027601CC4B2082CF4DB012F01D1012088
:1049F000DCE70E23EE220D21012032F07DFEBF48C0
:104A00008178BF48283050F82130BC480093837823
:104A100000220D21302033F0FAFB4FF4C87036F03D
:104A20000FF800E022E00E23EE220D21012032F0EB
:104A300063FEB2488178B2483C3050F82130AF482C
:104A40000093837800220D21302033F0E0FB002416
:104A50000AE0342101EB0411C8B20023A9A2092104
:104A600032F074FE601CC4B2082CF2DB052035F075
:104A7000E7FF94E782E745E738B532F003FE0F23FE
:104A8000EF220021084633F05EFD0323EF220021D0
:104A9000084633F058FD4CE00E23EE22042101209D
:104AA00032F02AFE95488078984951F82030934892
:104AB0000093837800220121082033F0A8FB8F485F
:104AC00081789248143050F821308C4800938378D4
:104AD000002207213C2033F09AFB884881788B48DC
:104AE000283050F8213085480093837800220B212C
:104AF000282033F08CFB8148817884483C3050F882
:104B000021307E480093837800220B218C2033F0E3
:104B10007EFB0DE033F04BFF0446432C01D1002017
:104B200038BD452C01D10120FAE70A2035F088FF75
:104B3000F0E7B1E770B50026704890F8220002282F
:104B400073D17348406F7249B1F8C010484370493F
:104B50008A6FB1F8C21002FB01016D48C26FB0F854
:104B6000C40002FB00116A48D0F88020B0F8C600EB
:104B700002FB00116648D0F88420B0F8C80002FBA0
:104B800000116348D0F88820B0F8CA0002FB001179
:104B90005F48D0F88C20B0F8CC0002FB00115C48D4
:104BA000D0F89020B0F8CE0002FB00115848D0F8A1
:104BB0009420B0F8D00002FB00115548D0F898209E
:104BC000B0F8D20002FB00115148D0F89C20B0F898
:104BD000D40002FB00114E48D0F8A020B0F8D60057
:104BE00002FB00114A48D0F8A420B0F8D80002FB1C
:104BF00000114748D0F8A820B0F8DA0002FB0011F5
:104C00004348D0F8AC20B0F8DC0002FB001140486B
:104C1000D0F8B020B0F8DE0002FB0015374890F85D
:104C20002500022812D100240EE018E0394850F87F
:104C3000240038B1374850F824101C3030F81400E4
:104C400001FB0055601CC4B2072CEFDB2B48D0F8E9
:104C5000C000A84201D901260FE000260DE0274838
:104C600090F82200012803D112F0C6FA064604E0AB
:104C7000224890F8220000B90026304670BD70B579
:104C8000044600251D4890F82F00022817D1012C5A
:104C90000BD112F0C6F9054612F0C3F906460246DA
:104CA00029461DA013F0C8F909E0022C07D12048BD
:104CB00090F8BC5090F8BC101EA013F0BDF9284627
:104CC00070BD0146012902D0022949D142E00B48BA
:104CD00080781F4A52F8200070470000383337317F
:104CE00038353537456E74657253656C6643686553
:104CF000636B46756374696F6E0D0A00D006001011
:104D00002C1404005F0000002A0000007C14040042
:104D10001C080010280900100D0A20417070205056
:104D2000434572726F725363616C653D2564000088
:104D3000680900100D0A20417070205043457272BE
:104D40006F724F66664C696E653D25640000000019
:104D5000F01D0400FF488278FF4850F82200704799
:104D6000FC488278FC48143050F82200F7E700B580
:104D70008BB000200A900320099032F083FC0F23AF
:104D8000EF220021084633F0DEFB0323EF2200214F
:104D9000084633F0D8FBE5E30E23EE220421012080
:104DA00032F0AAFC032009900A980A287ED2DFE894
:104DB00000F005D5FEFDFCFBFAF9F8F70123E54804
:104DC0008178E64850F82120E5A1E2488DE80E0000
:104DD00080780346002201210790082033F017FA5B
:104DE000DC4890F8230002287ED1DF488078A0B10B
:104DF000D8488178D948143050F82130D5480093EC
:104E0000807807900998801CC0B209900690002213
:104E100001460520079B33F0FAF9D348C078A0B1CA
:104E2000CC488178CD48283050F82130C9480093CB
:104E3000807807900998801CC0B2099006900022E3
:104E400001460520079B33F0E2F9C7480079A0B17D
:104E5000C0488178C1483C3050F82130BD480093AB
:104E6000807807900998801CC0B2099006900022B3
:104E700001460520079B33F0CAF9BB484079A0B131
:104E8000B4488178B548503050F82130B14800938B
:104E9000807807900998801CC0B209900690002283
:104EA00001460520079B33F0B2F900E0A4E2AE48CA
:104EB0008079A0B1A7488178A848643050F82130A3
:104EC000A4480093807807900998801CC0B209908C
:104ED0000690002201460520079B33F098F9A2486E
:104EE000807808B9A04800E019E0C078B8B99E48B9
:104EF0000079A0B99C48407988B99B48807970B9FD
:104F000094488178994850F82130924800938078ED
:104F10000346002207210790052033F078F98D48D9
:104F200080788E49283951F8200006903AF0E2FD49
:104F3000C000C0F1E700C0B207908648817887487A
:104F4000283850F8213083480093807803460022A7
:104F50000D210690079833F05AF94DE202237D485F
:104F600081787E4850F821207DA17A488DE80E0096
:104F700080780346002201210790082033F047F98A
:104F8000744890F8230002287ED17748C079E8B1B0
:104F9000704881787148783050F821306D4807E0CA
:104FA000FEE3FEE3FEE3ABE3FAE226E26DE191E02D
:104FB0000093807807900998801CC0B209900690F1
:104FC000002201460520079B33F021F96648007A4C
:104FD000A0B16048817861488C3050F821305D483C
:104FE0000093807807900998801CC0B209900690C1
:104FF000002201460520079B33F009F95A48407A00
:10500000A0B1544881785548A03050F8213051481B
:105010000093807807900998801CC0B20990069090
:10502000002201460520079B33F0F1F8FFF782FDCF
:10503000A0B1484881784948B43050F821304548FB
:105040000093807807900998801CC0B20990069060
:10505000002201460520079B33F0D9F84248C07969
:1050600090B94148007A78B93F48407A60B9FFF773
:1050700061FD48B9374881783C4850F821303548BF
:1050800000938078034600E005E0002207210790A6
:10509000052033F0BCF82F4881783048143850F898
:1050A000210006903AF026FDC000C0F1E700C0B232
:1050B0000790284881782948143850F8213025482D
:1050C00000938078034600220D210690079833F064
:1050D0009EF891E101231F4881782048C83050F89C
:1050E00021201FA11B488DE80E0080780346002276
:1050F00001210790082033F08AF8164890F8210023
:1051000002287ED11848807AA0B1124881781348CD
:10511000DC3050F821300F480093807807900998D0
:10512000801CC0B209900690002201460520079B12
:1051300033F06DF80C48C07A18B3064881780748F8
:10514000F03050F821300348009380780790099898
:10515000801C0DE0D0060010041E0400941504000D
:1051600025732D2564000000604800102C190400F0
:10517000C0B209900690002201460520079B33F03B
:1051800046F8F948007B98B1F8488178F84850F81B
:105190002130F6480093807807900998801CC0B2AF
:1051A00009900690002201460520079B33F02FF856
:1051B000ED48407BA0B1ED488178ED48143050F8BF
:1051C0002130EA480093807807900998801CC0B28B
:1051D00009900690002201460520079B33F017F83E
:1051E000E148807BB0B1E1488178E148283050F84F
:1051F0002130DE480093807807900998801CC0B267
:1052000000E025E009900690002201460520079B5A
:1052100032F0FDFFD448807AD0B9D348C07AB8B90B
:10522000D148007BA0B9D048407B88B9CE48807B6C
:1052300070B9CE488178CF4850F82130CB480093E0
:1052400080780346002207210790052032F0DFFF17
:10525000C6488178C84850F8210006903AF04AFCC8
:10526000C000C0F1E700C0B20790C0488178C248D2
:1052700050F82130BD4800938078034600220D216C
:105280000690079832F0C3FFB6E00223B748817852
:10529000B7483C3850F82120AFF23C11B3488DE8B4
:1052A0000E0080780346002201210790082032F08A
:1052B000AEFFAE4890F8210002287ED1AA48C07BFC
:1052C000A0B1AA488178AA483C3050F82130A748BC
:1052D0000093807807900998801CC0B209900690CE
:1052E000002201460520079B32F091FF9E48007C7A
:1052F000A0B19E4881789E48503050F821309B489C
:105300000093807807900998801CC0B2099006909D
:10531000002201460520079B32F079FF9248407C2D
:10532000A0B1924881789248643050F821308F487B
:105330000093807807900998801CC0B2099006906D
:10534000002201460520079B32F061FF8648807CE1
:10535000C8B18548C37C827C844881788448783091
:1053600050F8211085A08DE80F00804880780790C4
:105370000998801CC0B209900690002201460520C1
:10538000079B32F044FF7848C07BB0B97648007C78
:1053900098B97548407C80B97348807C68B9734877
:1053A0008178744850F82130704800938078034623
:1053B000002207210790052000E001E032F027FFDE
:1053C0006A4881786C4850F8210006903AF092FBC8
:1053D000C000C0F1E700C0B2079064488178664819
:1053E00050F82130614800938078034600220D2157
:1053F0000690079832F00BFF51E25C4881785C48D8
:105400008C3050F8213059480093807803460022B0
:1054100001210790082032F0FAFE544890F822004B
:1054200001287ED15048007DF8B14F48007D06909C
:10543000FFF747FC07905648C37D4C4881784C489D
:10544000A03050F8211053A0079A8DE80F0047486C
:10545000807806900998801CC0B2099005900022BF
:1054600001460520069B32F0D2FE3F48407DF8B150
:105470003D48407D0690FFF724FC07904448037E9A
:105480003A4881783A48B43050F8211041A0079A40
:105490008DE80F003548807806900998801CC0B2CE
:1054A00009900590002201460520069B32F0AFFED0
:1054B0002D48807DF8B12C48807D0690FFF701FCD7
:1054C00007903348437E294881782948C83050F8EE
:1054D000211030A0079A8DE80F00244880780690AC
:1054E0000998801CC0B20990059000220146052051
:1054F000069B32F08CFE1C48007D90B91A48407D16
:1055000078B91948807D60B918488178194850F8F1
:105510002130164800938078034600220721079027
:1055200000E002E0052032F072FE10488178124857
:1055300050F8210006903AF0DDFAC000C0F1E70013
:10554000C0B20790094881780B4850F821300748CD
:1055500000938078034600220D210690079832F0D0
:1055600056FEB1E3D5E3000060480010D0060010FD
:10557000981604002C1904008015040025735B257F
:10558000233032785D5B25233032785D00000000E7
:1055900034480010257325735B25233032785D0075
:1055A0000123FF488178FF4850F82120AFF2504195
:1055B000FB488DE80E008078034600220121079009
:1055C000082032F024FEF64890F82D0001282FD153
:1055D000F548807EA0B1F2488178F248143050F846
:1055E0002130EF480093807807900998801CC0B262
:1055F00009900690002201460520079B32F007FE25
:10560000E948C07EA0B1E6488178E648283050F8E5
:105610002130E3480093807807900998801CC0B23D
:1056200009900690002201460520079B32F0EFFD0D
:10563000DD48007FA0B1DA488178DA483C3050F884
:105640002130D7480093807807900998801CC0B219
:1056500009900690002201460520079B32F0D7FDF5
:10566000D148407FA0B1CE488178CE48503050F824
:105670002130CB480093807807900998801CC0B2F5
:1056800009900690002201460520079B32F0BFFDDD
:10569000C548807EB8B9C448C07EA0B9C248007F62
:1056A00088B9C148407F70B9BD488178BF4850F87B
:1056B0002130BB48009380780346002207210790E1
:1056C000052032F0A4FDB6488178B94850F8210091
:1056D00006903AF00FFAC000C0F1E700C0B20790A0
:1056E000AF488178B24850F82130AD4800938078B7
:1056F000034600220D210690079832F088FDE3E270
:105700000223A7488178A74850F82120AFF2B05172
:10571000A3488DE80E0080780346002201210790FF
:10572000082032F074FDA048807FA0B19C488178A9
:105730009C48643050F82130994800938078079055
:105740000998801CC0B209900690002201460520ED
:10575000079B32F05CFD9448C07FA0B190488178EF
:105760009048783050F821308D4800938078079029
:105770000998801CC0B209900690002201460520BD
:10578000079B32F044FD884890F82000C0B184485F
:10579000817884488C3050F821308148009302E0B1
:1057A00011E258E17CE0807807900998801CC0B233
:1057B00009900690002201460520079B32F027FD44
:1057C000794890F82100A0B1754881787548A030DB
:1057D00050F8213072480093807807900998801C17
:1057E000C0B209900690002201460520079B32F0C6
:1057F0000EFD6D4890F82200A0B169488178694893
:10580000B43050F8213066480093807807900998AA
:10581000801CC0B209900690002201460520079B1B
:1058200032F0F5FC6048807FE8B95F48C07FD0B9AE
:105830005D4890F82000B0B95B4890F8210090B91D
:10584000594890F8220070B955488178574850F867
:1058500021305348009380780346002207210790A7
:10586000052032F0D4FC4E488178514850F8210090
:1058700006903AF03FF9C000C0F1E700C0B20790CF
:10588000474881784A4850F821304548009380784D
:10589000034600220D210690079832F0B8FC13E26F
:1058A00003233F4881783F4850F82120AFF25071E0
:1058B0003B488DE80E0080780346002201210790C6
:1058C000082032F0A4FC384890F82300A0B13448F6
:1058D00081783448C83050F82130314800938078BE
:1058E00007900998801CC0B20990069000220146DA
:1058F0000520079B32F08BFC2B4890F82400A0B1C8
:10590000274881782748DC3050F82130244800931C
:10591000807807900998801CC0B2099006900022F8
:1059200001460520079B32F072FC1F4890F82500C5
:10593000A0B11B4881781D48C83850F8213018485C
:105940000093807807900998801CC0B20990069057
:10595000002201460520079B32F059FC124890F8BE
:105960002600A0B10E4881781048B43850F8213094
:105970000B480093807807900998801CC0B209906A
:105980000690002201460520079B32F040FC0648A5
:1059900090F82700F8B1024881780448A03809E05F
:1059A000D006001074170400604800102C19040081
:1059B0008015040050F82130FF480093807807904C
:1059C0000998801CC0B2099006900022014605206B
:1059D000079B32F01CFCF94890F82300F0B9F74817
:1059E00090F82400D0B9F54890F82500B0B9F348F4
:1059F00090F8260090B9F14890F8270070B9EE4869
:105A00008178EF4850F82130EB48009380780346C6
:105A1000002207210790052032F0F9FBE648817843
:105A2000E84850F8210006903AF064F8C000C0F150
:105A3000E700C0B20790E0488178E24850F8213092
:105A4000DD4800938078034600220D2106900798D8
:105A500032F0DDFB38E10423D7488178DA4850F88A
:105A60002120AFF60411D4488DE80E00807803465B
:105A7000002201210790082032F0C9FBCF4890F89E
:105A80002800A0B1CC488178CD488C3850F821301E
:105A9000C9480093807807900998801CC0B209908B
:105AA0000690002201460520079B32F0B0FBC34858
:105AB00090F82900A0B1C0488178C148783850F8E2
:105AC0002130BD480093807807900998801CC0B2AF
:105AD00009900690002201460520079B32F097FBB3
