:020000040000FA
:1000000000800010CD000000DDBA0300DDBA03005F
:10001000DDBA0300DDBA0300DDBA0300DDBA030078
:10002000DDBA0300DDBA0300DDBA0300850200007B
:10003000DDBA030000000000ED0200003D9803005F
:10004000DDBA03003F900300159003000390030006
:10005000F18F0300816B0300516D030031680300D1
:10006000516F0300DDBA030055720300DDBA0300CF
:10007000DDBA0300DDBA0300DDBA0300DDBA030018
:10008000DDBA0300DDBA0300DDBA0300DDBA030008
:10009000E3890300DDBA0300DDBA0300DDBA030023
:1000A000DDBA0300DDBA0300DDBA0300DDBA0300E8
:1000B000DDBA0300DDBA0300DDBA0300DDBA0300D8
:1000C000DDBA0300DDBA0300DDBA030000F002F878
:1000D00000F0C8F80AA090E8000C82448344AAF11A
:1000E0000107DA4501D100F0BDF8AFF2090EBAE818
:1000F0000F0013F0010F18BFFB1A43F0010318475C
:10010000304505007045050010F8013B0A4413F026
:10011000030408BF10F8014B1D1108BF10F8015B64
:10012000641E05D010F8016B641E01F8016BF9D153
:10013000002D15D010F8014B03F00C030C2BA1EB94
:1001400004040ABF10F8013BA4EB8314A4EB0324BE
:1001500005F1010314F8016B5B1E01F8016BF9D581
:10016000914238BF10F8013BD1D37047103A24BFF9
:1001700078C878C1FAD8520724BF30C830C144BF0C
:1001800004680C607047000000230024002500264E
:10019000103A28BF78C1FBD8520728BF30C148BFEA
:1001A0000B6070476E2900F029A070293FF0108481
:1001B000662901F0A0A1652901F09DA1672901F040
:1001C0009AA16129AFF3008003681B0A28BF41F0A0
:1001D000800169293FF0808364293FF07D83752980
:1001E0003FF07A836F2900F01BA178293FF0DC8370
:1001F000E92900F0B3A0E42900F0B0A0F52900F04F
:10020000ADA0EF2900F018A1F8293FF0DB830368C7
:10021000DB0928BF41F08001632900F034A0732975
:1002200000F039A0E32900F08CA3F32900F091A39A
:10023000002070471FB541F057F99DE803003FF0DB
:100240003BFF40F005FC04000020002141F032F9A2
:10025000401C60600020002141F016F9E0601FBDE5
:1002600010B510BD40F0C6FB1146FFF7E3FF00F0EC
:100270002CF940F0A7FC03B4FFF7F2FF03BC3CF0FD
:100280006EF80000052828BF70474FEA80007844C8
:10029000D0F802F0ED020000B302000051030000AC
:1002A00071030000910300004FF0010080F31488F7
:1002B00000DF0A4C4FF00105257077463FF018FA31
:1002C000BE46074E3668074C2660D6F800D001BC03
:1002D00005490860BDE8F00F704700BF6F070010C8
:1002E0008007001078070010440700104FF0080244
:1002F00082F3118800B53FF0FBF95DF804EB2DE9BE
:10030000F00F0E49086801B40D4A1268C2F800D017
:100310000C4C0D4D2E7826700C4E3668084C26601D
:10032000D6F800D001BC086000280CBF00220822CB
:1003300082F31188BDE8F00F704700BF440700103A
:100340007807001064070010650700108007001090
:100350000649086800F101004FF0080282F3118895
:10036000002808BF70470860704700BF44070010AE
:100370000649086800281CBF01380860002818BF1B
:1003800070474FF0000282F3118870474407001055
:100390004FF0000080F3148870474FF0010080F3A5
:1003A0001488704788476FF0FF003AF0E0FD0000C6
:1003B0001CB5544890F82B200121182038F08AF9F8
:1003C0000F230222CDE900234FA30E21282038F06D
:1003D0005AF81CBD08B500BF38F03DFB36F01EFCD6
:1003E00036F004FD36F0BFFA36F000FE38F082FF3A
:1003F00037F0EDF94849002038F0F6FE36F0B8FE47
:1004000038F0F6FF38F027FB00200EF069FB0020E3
:100410000EF042F9FFF7CCFF36F0E8FC0DF00AF9D8
:1004200006233E4A00213E483AF000FD02203AF001
:1004300097FB3FF057F816F00FFD02203AF090FBC3
:1004400016F02AFB02203AF08BFB1EF05AFC1EF03D
:10045000FFFC02203AF084FB1CF011FB6A460021ED
:10046000304800683AF0D0FF0FF011F917F0D2FCD5
:1004700084212D483FF0E0FC02203AF071FB092373
:100480002A4A00212A483AF0D1FC02203AF068FBBF
:100490001AF09EFA02203AF063FB0823254A002155
:1004A00025483AF0C3FC02203AF05AFB19F01BFD34
:1004B000C8203AF055FB07E0002003F0C1FC02E041
:1004C00032203AF04DFBFBE7F6E700B585B03BF094
:1004D0000AFB3BF0C7FA39F004FB012300221902A2
:1004E0001648CDE90323CDE901010723144A002171
:1004F000AFF21F1000933AF0E1FC39F0B5FB002099
:1005000005B000BDBC07001076657273696F6E257B
:10051000642E25303264000080A90300B03300103F
:10052000214802007C000010240B0010B04700108E
:10053000115E0300B0430010B19C0200B40B001028
:10054000B02B0010F8B505460E4614461F460A218A
:10055000002038F075F8022301220B21002038F02A
:100560003DF8FF480095837800220B21282037F0C2
:10057000DEFEFB488078012807D0F9480096837892
:1005800000220D21282037F0D2FE20463FF042FB0A
:10059000C8B1022301220B21702038F01FF8F04867
:1005A0000094837800220B21982037F0C0FEEC489D
:1005B0008078012807D0EA480097837800220D212F
:1005C000982037F0B4FEF8BD10B501220A210020B2
:1005D00037F0E2FD03220B21002037F0DDFD10BDD6
:1005E00030B58BB0202103A83FF026FCDD4836F063
:1005F000DEFD02203AF0B4FADB480078F0B3D948C7
:1006000036F0D5FD02203AF0ABFA02230422012194
:10061000002037F0E3FFD548D0F8AC1003A83FF036
:10062000D5FA03AB02220121282037F02CFFCF4856
:10063000D0F8B41003A83FF0C9FA03AB012203219C
:10064000282037F020FFC6488078C0EBC00202EBBC
:100650000010C64A02EB8000816D03A83FF0B6FA95
:1006600003ABBF480093837800220521282037F090
:100670005EFEBB4890F8BC00012800E074E019D190
:10068000BB4880890A2190FBF1F201FB1204B848B3
:10069000808990FBF1F523462A46B6A103A83FF0D6
:1006A00097F803ABAE4800938378002207212820F7
:1006B00037F03DFE0A21002037F0C2FFAF48C08866
:1006C000A849C98888420BD1AC484079A5494979E5
:1006D000884205D1A948C078A249C978884222D069
:1006E000A048C288A6A103A83FF072F803AB02227B
:1006F0000B21282037F0C7FE9A48C3784279A2A17F
:1007000003A83FF065F803AB02220D21282037F043
:10071000BAFE9448C0889949C88092484079487187
:100720009048C078C870954880788E49897888420A
:1007300005D1924840788B494978884213D089483E
:100740004378827893A103A83FF042F803AB0322D9
:100750000B21602037F097FE8248807887498870A7
:1007600080484078487078E07D48807800EB8000D1
:100770008B4A02EBC000816903A83FF027FA03AB64
:1007800077480093837800220221482037F0CFFD7C
:10079000734890F8BC00012819D1754880890A2156
:1007A00090FBF1F201FB12047148808990FBF1F596
:1007B00023462A466FA103A83FF00AF803AB684816
:1007C0000093837800220521AA2037F0B0FD6B4802
:1007D000C0886449C98888420BD16848407961491A
:1007E0004979884205D16548C0785E49C978884210
:1007F00015D05C48C3784279C1888DE80E0069A3A2
:1008000002220621502037F03EFE5648C0885B4940
:10081000C8805448407948715248C078C8705748D9
:10082000807850498978884205D1544840784D49AC
:100830004978884211D04B4843788278CDE900232B
:1008400054A3042208213C2037F01DFE454880783F
:100850004A4988704348407848700BB030BD30B585
:1008600089B0202101A83FF0E7FA3E4836F09FFC0E
:1008700002203AF075F9022303220121002037F00B
:10088000ADFE37488078C0EBC00202EB0010374A5B
:1008900002EB8000C16C01A83FF098F901AB304831
:1008A0000093837800220121282037F040FD2C4856
:1008B0008078C0EBC00202EB00102C4A52F82010E6
:1008C00001A83FF083F901AB25480093837800220B
:1008D0000321282037F02BFD214890F8BC00012887
:1008E00019D1234880890A2190FBF1F201FB1204FF
:1008F0001F48808990FBF1F523462A461DA101A8D7
:100900003EF066FF01AB1648009383780022052174
:10091000282037F00CFD0A21002037F091FE1748FF
:10092000C0881049C98888420BD1144840790D49C4
:100930004979884205D11148C0780A49C978884266
:100940004ED00848C2880EA101A83EF041FF01AB7D
:1009500002220B21282037F096FD0248C37829E0B7
:10096000BC070010000000101C000010080200105E
:10097000CC51001025642E25642092000800001040
:100980002530346400000000253032642D253032DB
:1009900064000000253032643A25303264000000E3
:1009A00018010010253034642D253032642D253097
:1009B000326400004279AFF2300101A83EF008FF36
:1009C00001AB02220D21282037F05DFDFF48C088D1
:1009D000FF49C880FD4840794871FC48C078C8701C
:1009E000FB488078F9498978884205D1F8484078F1
:1009F000F6494978884214D0F44843788278AFF2B7
:100A00006C0101A83EF0E4FE01AB03220B21602043
:100A100037F039FDED488078ED498870EB48407833
:100A2000487009B030BD10B50246012904D0E94B29
:100A300093F89930012B2CD11378412B0BD153789B
:100A4000303B03EB8303642404EB43049378303B93
:100A5000234498B228E01378422B0BD15378303BD3
:100A600003EB8303C82404EB43049378303B234413
:100A700098B219E01378303B642463435478303CD7
:100A800004EB840403EB44049378303B234498B292
:100A90000AE01378303B03EB8303642404EB430444
:100AA0005378303B234498B210BD30B502460B78E2
:100AB000303B4FF47A7463434C78303C04EBC4050C
:100AC00005EB041403EB84041378303B03EB83033E
:100AD00004EB43045378303B234498B230BD0EB549
:100AE00036F060FEB948C3784279C1888DE80E00BF
:100AF000AFF2501302221146502037F0C4FCB34825
:100B000043788278CDE90023AFF2781304221146AE
:100B10003C2037F0B8FC0EBD10B50020AE4908707F
:100B2000AE490870AE4800210180AE480180817056
:100B30000020AD498870AD48006839F0D1FD10BD86
:100B4000AB480068AB4909680844AB4909680844E8
:100B5000AA490968084470472DE9F04F95B0064648
:100B6000884620210DA83FF067F9202105A83FF015
:100B700063F94FF0000900200490002400250027AD
:100B800098F8000002281DD13078432802D0307830
:100B9000452817D100209049087092480021018013
:100BA0008170FFF7CDFF18B103209549087006E06A
:100BB000FFF7B2FFFFF708FD00209149087015B05C
:100BC000BDE8F08F98F8000002286FD13178824894
:100BD00002780078401C804B1870824881547D4810
:100BE000807800EB8000874A52F830100DA83EF064
:100BF000EDFF784890F83100012813D1794800784A
:100C00002E2803D141207749087006E07548007806
:100C1000442802D142207349087072490DA83FF060
:100C20005EF803E06F490DA83FF059F87548816AF6
:100C300005A83EF0CBFF6B4905A83FF050F8AFF296
:100C4000BC23AFF2C02205A90DA8FFF77BFC6148C9
:100C500090F83100012804D05E4890F899000128EE
:100C600077D15D48007803281FDB5A4890F831009F
:100C7000E8B95C4800782E2813D05A4800784428F8
:100C80000FD0584840782E280BD05648407844283A
:100C900007D0544880782E2803D0524880784428C2
:100CA00005D14FF005090120049057E263E14D485A
:100CB00040782E280BD04B484078442807D049482C
:100CC00080782E2803D047488078442804D14FF0FC
:100CD00005090120049041E23E4890F83110414856
:100CE000FFF7A1FE0446642094FBF0F000F0FF0A39
:100CF000642094FBF0F100FB114000F0FF0B514623
:100D000058461BF0B4FF00F0FF09324890F82F005E
:100D1000022827D1642094FBF0F000F0FF0A642041
:100D200094FBF0F100FB114000F0FF0B52465946D6
:100D3000012018F0DFFD0020274908702948002114
:100D400001808170FFF7FCFE20B103202C49087060
:100D500007E064E0FFF7E0FEFFF736FC00202849DB
:100D600008702CE71B4890F82F00042854D1642009
:100D700094FBF0F100FB114000F0FF0A642094FBAB
:100D8000F0F000F0FF0B514658461CF055FD0746A9
:100D90006FB1642094FBF0F000F0FF0A3946504632
:100DA0001CF0DAFE012802D0384619F071F8002054
:100DB000094908700B48002101808170FFF7C0FECF
:100DC00018B103200E49087025E01DE00000001056
:100DD00008000010BC070010190000101A000010D5
:100DE0001700001014000010400A001094000010BA
:100DF0002000001024000010280000102C0000101B
:100E00001B00001018010010FFF786FEFFF7DCFB47
:100E10000020FF490870D2E6012004909EE1FD48C1
:100E20000078022813DBFC4800782E280BD0FA4803
:100E30000078442807D0F84840782E2803D0F64898
:100E40004078442804D14FF005090120049085E141
:100E5000F24890F83110F048FFF7E5FD04466420B1
:100E600094FBF0F000F0FF0A642094FBF0F100FB2B
:100E7000114000F0FF0B514658461BF0F8FE00F001
:100E8000FF092146E6A017F091F9E44890F82F00F9
:100E9000022826D1642094FBF0F000F0FF0A6420C1
:100EA00094FBF0F100FB114000F0FF0B5246594655
:100EB000012018F01FFD0020D6490870D6480021F7
:100EC00001808170FFF73CFE18B10320D049087003
:100ED00006E0FFF721FEFFF777FB0020CC49087002
:100EE0006DE6CE4890F82F00042841D1642094FB91
:100EF000F0F100FB114000F0FF0A642094FBF0F0D9
:100F000000F0FF0B514658461CF096FC0746CFB147
:100F1000642094FBF0F000F0FF0A394650461CF0C4
:100F20001BFE01280ED0642094FBF0F000F0FF0AB5
:100F30000322394650461CF045FD032802D03846AE
:100F400018F0A6FF0020B3490870B34800210180C3
:100F50008170FFF7F5FD18B10320AD49087006E078
:100F6000FFF7DAFDFFF730FB0020A949087026E6FD
:100F700001200490F2E098F8000001280AD13278AC
:100F8000012108461BF09BFD044624B94FF00209DD
:100F900001200490E2E09F480078002804DD4FF033
:100FA000050901200490D9E09C4890F831000128FF
:100FB00023D14121974802780078401C954B187046
:100FC000954881540A2094FBF0F03030C2B21846A4
:100FD00001780078401C18708F4842540A2094FB16
:100FE000F0F100FB11403030C1B2184602780078B1
:100FF000401C1870884881541AE00A2094FBF0F0D5
:101000003030C1B2834802780078401C814B1870A0
:10101000814881540A2094FBF0F100FB11403030EC
:10102000C1B2184602780078401C18707A48815482
:101030007A48807800EB80007F4A52F830100DA883
:101040003EF0C4FD74490DA83EF049FE7A48816A1D
:1010500005A83EF0BBFD704905A83EF040FEAFF28A
:10106000DC63AFF2E06205A90DA8FFF76BFA6B48ED
:1010700090F831106848FFF7D6FC0446642094FBD2
:10108000F0F000F0FF0A642094FBF0F100FB114047
:1010900000F0FF0B514658461BF0E9FD00F0FF0938
:1010A0005E4890F82F00022826D1642094FBF0F0CF
:1010B00000F0FF0A642094FBF0F100FB114000F007
:1010C000FF0B52465946012018F014FC00205149EC
:1010D00008705148002101808170FFF731FD18B17F
:1010E00003204B49087006E0FFF716FDFFF76CFA86
:1010F00000204749087062E5484890F82F0004280E
:101100002AD1642094FBF0F100FB114000F0FF0AAB
:10111000642094FBF0F000F0FF0B514658461CF0A1
:101120008BFB074617B1384618F0B2FE002039494C
:1011300008703948002101808170FFF701FD18B166
:1011400003203349087006E0FFF7E6FCFFF73CFA9E
:1011500000202F49087032E501200490049878B3EC
:10116000B9F1060F34D2DFE809F0AA7B0334047A20
:1011700000BF2A48807800EB80002F4A02EBC000B5
:1011800041690DA83EF022FD2B48C16B05A83EF039
:101190001DFDAFF61003AFF6140205A90DA8FFF769
:1011A000D1F94FF4C87039F0DBFCFFF7C9FC40B14E
:1011B000194800210180817003201549087007E05B
:1011C0004CE1FFF7A9FCFFF7FFF900201049087078
:1011D00040E11248807800EB8000174A02EBC00023
:1011E00001690DA83EF0F2FC1348816B05A83EF0A2
:1011F000EDFCAFF67003AFF6740205A90DA8FFF77A
:10120000A1F94FF4C87039F0ABFCFFF799FC15E079
:101210001B0000101900001014000010BC07001083
:101220000D0A2041505055626F7842746E636C6FA6
:10123000756D6E3D256400001801001038B1FF483F
:101240000021018081700320FD49087006E0FFF74E
:1012500063FCFFF7B9F90020F9490870FAE000BF14
:10126000F848807800EB8000F74A02EBC000416844
:101270000DA83EF0ABFCF448C16A05A83EF0A6FC00
:10128000AFF60013AFF6041205A90DA8FFF75AF93F
:101290004FF4C87039F064FCFFF752FC38B1E748EE
:1012A0000021018081700320E549087006E0FFF706
:1012B00033FCFFF789F90020E1490870CAE0642097
:1012C00094FBF0F000F0FF0A642094FBF0F100FBC7
:1012D000114000F0FF0B5246012158461BF0CFFC95
:1012E000DA49086008460568D64890F82700A8B390
:1012F000012834D0022830D16420B5FBF0F100FB86
:10130000115AB5FBF0FBCF48807800EB8000CE4946
:1013100001EBC000C168CB48CDE901BA00918078EB
:1013200000EB8000C84901EBC000C44BC8A1C269F2
:101330000DA83EF04DFA6420B5FBF0F100FB115A08
:10134000B5FBF0FBC048416BCDE901BA0091BB4B46
:10135000BFA1426C05A83EF03BFA5BE033E00A20F7
:10136000B5FBF0F5B5FBF0F100FB115AB5FBF0FB56
:10137000B448807800EB8000B34901EBC000C1683D
:10138000B048CDE901BA0091807800EB8000AE4909
:1013900001EBC000A94BB3A1C2690DA83EF018FA39
:1013A0000A20B5FBF0F100FB115AB5FBF0FBA64893
:1013B000416BCDE901BA0091A04BAAA1426C05A8EE
:1013C0003EF006FA26E06420B5FBF0FA9D488078EE
:1013D00000EB80009C4901EBC000C2689948CDE950
:1013E000002A807800EB800001EBC000934BA1A1A4
:1013F000C2690DA83EF0ECF96420B5FBF0FA924802
:10140000426BCDE9002A8D4B9AA1426C05A83EF0B3
:10141000DFF900BF00BFAFF69423AFF6982205A90D
:101420000DA8FFF78FF8C82039F09AFBFFF788FB6B
:1014300028B19348048005208149087009E0C8203C
:1014400039F08EFBFFF768FBFFF7BEF800207C4900
:10145000087000BF00BF00208A49087000BF80E408
:101460002DE9F04F93B0064620210BA83EF0E4FC96
:10147000202103A83EF0E0FC0027B846B94600242E
:101480000025307843281BD100207E4908707E4912
:1014900008706A480021018081707C480180FFF754
:1014A0004FFB18B103206649087006E0FFF734FBD4
:1014B000FFF78AF800206249087013B0BDE8F08F8A
:1014C00071480078F0BB3078452829D032786D48D3
:1014D00001780078401C6B4B18706C484254594896
:1014E000807800EB80006A4A02EB0010816C0BA848
:1014F0003EF06CFB65490BA83EF0F1FB6448D0F868
:10150000981003A83EF062FB604903A83EF0E7FB99
:10151000AFF69033AFF6943203A90BA8FFF712F899
:1015200058480078022857DB58480078302839DBC3
:1015300056480078392835DC54484078302831DB6B
:10154000524800E0CBE0407839282BDC01204E499E
:10155000087000204B4908703848002101808170D4
:101560004A490BA83EF032FB3648807800EB8000F9
:10157000474A02EB0010C16C0BA83EF0B0FB434998
:1015800003A83EF023FB4248D0F89C1003A83EF08D
:10159000A6FBAFF61043AFF6144203A90BA8FEF763
:1015A000D1FFD4E10020374908703749087023483B
:1015B00000210180817035480180FFF7C1FA18B120
:1015C00003201F49087006E0FFF7A6FAFEF7FCFFAC
:1015D00000201B49087070E73078452864D12B48FB
:1015E0000078302861DB2948007839285DDC2748FD
:1015F0000078264948703020087001202249087080
:101600000020204908700D480021018081700D489C
:10161000807800EB80001E4901EB00101B4A1DA1E1
:10162000C36C0BA83EF0D4F81948184A19A1D0F899
:101630009C3003A83EF0CCF817A32FE01400001054
:101640001B000010BC07001018010010340000102F
:1016500025732025732C2573253032642E253032D6
:101660006400000025732025732C257325642E2526
:101670006400000025732025732C25732564000069
:1016800030000010190000101A00001017000010A0
:10169000300400102573257300000000AFF208022B
:1016A00003A90BA8FEF74EFF51E10020FB4908708B
:1016B000FB490870FB48002101808170FA480180D5
:1016C000FFF73EFA18B10320F849087006E0FFF76B
:1016D00023FAFEF779FF0020F4490870EDE6F048A0
:1016E000007801287ED13078452835D03178EB4814
:1016F00002780078401CE94B1870EA488154EA48A7
:1017000040783038E8490978303901EB810100EB45
:10171000410000F0FF09E34BE5480093807800EBBF
:101720008000E44901EB00104A46E3A1C36C0BA81A
:101730003EF04EF8DB4BDF4800934A46DEA1D0F87E
:101740009C3003A83EF044F8AFF2B403AFF2B80205
:1017500003A90BA8FEF7F6FED0480078022875DB37
:10176000D0480078302856DBCE480078392852DC43
:10177000CC48407830284EDBCA48407839284ADCCB
:10178000C949C848FFF791F90446642094FBF0F07A
:1017900000F0FF0A642094FBF0F100FB114000F020
:1017A000FF0B514658461BF062FAC7B2C04890F88A
:1017B0002F0002282CD1642094FBF0F000F0FF0AE7
:1017C000642094FBF0F100FB114000F0FF0B524647
:1017D0005946012018F08EF80020B0490870B04931
:1017E000087000E08BE0AF48002101808170AE48B6
:1017F0000180FFF7A5F918B10320AC49087006E095
:10180000FFF78AF9FEF7E0FE0020A849087054E6C9
:101810004FF001089BE00020A0490870A049087023
:10182000A0480021018081709F480180FFF788F95E
:1018300018B103209D49087006E0FFF76DF9FEF727
:10184000C3FE00209949087037E6FFE73078452845
:101850007DD194480078302852DB924800783928AE
:101860004EDC904800788F494870302008708E49CF
:101870008C48FFF71AF90446642094FBF0F000F05E
:10188000FF0A642094FBF0F100FB114000F0FF0B15
:10189000514658461BF0EBF9C7B2854890F82F0027
:1018A00002282AD1642094FBF0F000F0FF0A6420A3
:1018B00094FBF0F100FB114000F0FF0B524659463B
:1018C000012018F017F80020744908707449087056
:1018D000744800210180817073480180FFF730F95E
:1018E00018B103207149087006E0FFF715F9FEF7FB
:1018F0006BFE00206D490870DFE54FF0010826E01F
:10190000002066490870674800210180817068489E
:10191000807800EB8000674901EB0010624AAFF26B
:101920008C21C36C0BA83DF053FF62485E4AAFF2B6
:101930009C21D0F89C3003A83DF04AFFAFF2A823C9
:10194000AFF2AC2203A90BA8FEF7FCFDB5E5B8F198
:10195000000F73D0062F3AD2DFE807F0BC72033ACB
:10196000047100BF5248807800EB8000544A02EBBB
:10197000C00041690BA83EF029F95148C16B03A88A
:101980003EF024F9AFF2F023AFF2F42203A90BA842
:10199000FEF7D8FD4FF4C87039F0E2F8FFF7D0F841
:1019A00070B100203D4908703D4908703E48002153
:1019B00001803C480180817003203C49087006E0AA
:1019C000FFF7AAF8FEF700FE00203849087052E140
:1019D0003748807800EB8000394A02EBC00001698B
:1019E0000BA83EF0F3F83648816B03A83EF0EEF802
:1019F000AFF25C33AFF2603203A90BA8FEF7A2FD91
:101A00004FF4C87039F0ACF8FFF79AF870B10020C5
:101A1000224908702249087023480021018021488A
:101A20000180817003202149087006E0FFF774F8F7
:101A3000FEF7CAFD00201D4908701CE121E100BF2E
:101A40001B48807800EB80001D4A02EBC000416813
:101A50000BA83EF0BBF81A48C16A03A83EF0B6F8DE
:101A6000AFF2CC33AFF2D03203A90BA8FEF76AFD78
:101A70004FF4C87039F074F8FFF762F810B3002023
:101A8000064908700649087007480021018005488A
:101A9000018081700320054908701AE019000010C8
:101AA0001A00001014000010170000101B00001096
:101AB000BC07001030040010256425732573000056
:101AC00018010010FFF728F8FEF77EFD0020FD4901
:101AD0000870D0E0642094FBF0F000F0FF0A64206E
:101AE00094FBF0F100FB114000F0FF0B5246012186
:101AF00058461BF0C4F8F449086008460568F348E6
:101B000090F82700B8B3012836D0022832D16420DB
:101B1000B5FBF0F100FB115AB5FBF0FBEB48807808
:101B200000EB8000EA4901EBC000C168E748CDE95D
:101B300001BA0091807800EB8000E54901EBC0001C
:101B4000E44BAFF2F441C2690BA83DF041FE6420C2
:101B5000B5FBF0F100FB115AB5FBF0FBDC48416B23
:101B6000CDE901BA0091DB4BAFF21C51426C03A8E6
:101B70003DF02EFE5FE035E00A20B5FBF0F5B5FB49
:101B8000F0F100FB115AB5FBF0FBD048807800EB78
:101B90008000CF4901EBC000C168CC48CDE901BA53
:101BA0000091807800EB8000C94901EBC000C94B6F
:101BB000AFF25051C2690BA83DF00AFE0A20B5FBF6
:101BC000F0F100FB115AB5FBF0FBC148416BCDE9C8
:101BD00001BA0091BF4BAFF27451426C03A83DF0C3
:101BE000F7FD28E06420B5FBF0FAB848807800EBF8
:101BF0008000B74901EBC000C268B448CDE9002AB3
:101C0000807800EB800001EBC000B24BAFF29C513A
:101C1000C2690BA83DF0DCFD6420B5FBF0FAAC48CE
:101C2000426BCDE9002AAB4BAFF2B851426C03A82E
:101C30003DF0CEFD00BF00BFAFF2A453AFF2A852FB
:101C400003A90BA8FEF77EFCC82038F089FFFEF739
:101C500077FF28B1A048048005209A49087009E060
:101C6000C82038F07DFFFEF757FFFEF7ADFC0020DF
:101C70009449087000BF00BF002098490870984937
:101C8000087000BF19E42DE9F041A4B006460D46E6
:101C900020211CA83EF0D0F8202114A83EF0CCF85A
:101CA00020210CA83EF0C8F8202104A83EF0C4F87A
:101CB000022038F055FFFEF743FF0446EEBB834891
:101CC0008078012814D08748036D8048807800EB25
:101CD0008000844901EB001083A102687B488DE8F5
:101CE0000E008378002202214C2036F020FB0CE00D
:101CF0007C48AFF23822036D7448CDE90023837825
:101D000000220221602036F012FB0422114600203E
:101D100036F042FA6D48807828B902230022052166
:101D20002C2036F05BFC694890F8270048B3012866
:101D300014D0022831D1642000E05CE0B4FBF0F163
:101D400000FB1147B4FBF0F8AFF2F4630422114634
:101D50004C20CDE9008736F096FB1EE00A20B4FB4C
:101D6000F0F4B4FBF0F100FB1147B4FBF0F8AFF274
:101D70000473042211464C20CDE9008736F083FB22
:101D80000BE06420B4FBF0F7AFF2107304221146AD
:101D90004C20009736F077FB00BF00BF012D11D11A
:101DA0004A48807800EB80004E4A02EB0010816CBC
:101DB0001CA83DF00BFF4B48D0F8981014A83DF03C
:101DC00005FF0FE04148807800EB8000454A02EBB8
:101DD000001001691CA83DF0F9FE4248016E14A8EC
:101DE0003DF0F4FEAFF25073AFF2547214A91CA888
:101DF000FEF7A8FBC3E035488078012814D03948A5
:101E0000436D3248807800EB8000364901EB0010CA
:101E100035A142682D488DE80E008378002202210A
:101E20004C2036F084FA12E02848807800EB8000DD
:101E30002C4901EB0010AFF27C3243682348CDE916
:101E40000023837800220221602036F070FA0422F9
:101E50001146002036F0A0F91C48807828B90223EA
:101E6000002205212C2036F0B9FB184890F82700F5
:101E700038B3012812D0022846D16420B4FBF0F117
:101E800000FB1147B4FBF0F8AFF63403042211460F
:101E90004C20CDE9008736F0F6FA35E00A20B4FB95
:101EA000F0F4B4FBF0F100FB1147B4FBF0F8AFF62F
:101EB0004403042211464C20CDE9008736F0E3FAB2
:101EC00022E015E01B00001034000010BC070010D9
:101ED000180100101400001030000010190000104C
:101EE0001A0000103004001025732F257300000025
:101EF0006420B4FBF0F7AFF67C03042211464C20BB
:101F0000009736F0C0FA00BF00BF012D11D1FF4885
:101F1000807800EB8000FE4A02EB0010816C1CA868
:101F20003DF054FEFA48D0F8981014A83DF04EFE4B
:101F30001FE0F648807800EB8000F54A02EB0010C5
:101F400041691CA83DF042FEF148416E14A83DF0E5
:101F50003DFEEE48807800EB8000ED4A02EB001079
:101F600081690CA83DF032FEE948816E04A83DF07D
:101F70002DFE04AB0CAA14A91CA8FEF7E3FA24B0AA
:101F8000BDE8F08100B591B0202109A83DF054FFD3
:101F9000202101A83DF050FFDC48807800EB800054
:101FA000DB4A02EB0010816809A83DF00FFED8481B
:101FB000816D01A83DF00AFEAFF62413AFF628129A
:101FC00001A909A8FEF7BEFA11B000BD70B598B01E
:101FD0000446202110A83DF02FFF202108A83DF045
:101FE0002BFF202168463DF027FFC848807800EB92
:101FF0008000C74A02EB0010C16868463DF0E6FD6C
:10200000C348C16D08A83DF0E1FDC04890F8270025
:1020100018B3012810D0022829D16420B4FBF0F1B4
:1020200000FB1145B4FBF0F62B463246AFF6D81153
:1020300010A83DF0CDFB1AE00A20B4FBF0F4B4FB8D
:10204000F0F100FB1145B4FBF0F62B463246AFF63B
:10205000E41110A83DF0BCFB09E06420B4FBF0F5EE
:102060002A46AFF6E81110A83DF0B2FB00BF00BF52
:1020700010A968463DF033FEAFF6E413AFF6E81260
:1020800008A96846FEF75EFA4FF4C87038F068FD9C
:1020900018B070BD00B591B0202109A83DF0CCFE6C
:1020A000202101A83DF0C8FE9848807800EB800010
:1020B000974A02EB0010816B09A83DF087FD944818
:1020C000D0F8881001A83DF081FDAFF63423AFF6BB
:1020D000382201A909A8FEF735FA4FF4C87038F084
:1020E0003FFD11B000BD00B591B0202109A83DF021
:1020F000A3FE202101A83DF09FFE8448807800EBDC
:102100008000834A02EB0010C16B09A83DF05EFD20
:102110007F48D0F88C1001A83DF058FDAFF6882319
:10212000AFF68C2201A909A8FEF70CFA142038F0AA
:1021300017FD11B000BD00B591B0202109A83DF0F8
:102140007BFE202101A83DF077FE7048807800EBEF
:1021500080006F4A02EB0010016C09A83DF036FDCB
:102160006B48D0F8901001A83DF030FDAFF6D823B1
:10217000AFF6DC2201A909A8FEF7E4F94FF4C87014
:1021800038F0EEFC11B000BD10B590B0202108A8C9
:102190003DF052FE202168463DF04EFE5D4800882D
:1021A000642190FBF1F201FB12045848807800EBA7
:1021B0008000574901EB0010224657A1C36A08A8C6
:1021C0003DF006FB53480088642190FBF1F201FBCF
:1021D00012044F48224650A1C36F68463DF0F8FAFA
:1021E000AFF64C33AFF65032694608A8FEF7AAF9AD
:1021F00010B010BD00B591B0202109A83DF01CFE23
:10220000202101A83DF018FE4048807800EB8000B6
:102210003F4901EB0010AFF25C71C26A09A83DF0C2
:10222000D7FA3B48AFF26C71C26F01A83DF0D0FA0B
:10223000AFF69C33AFF6A03201A909A8FEF782F9E8
:1022400011B000BD00B591B0202109A83DF0F4FD0A
:10225000202101A83DF0F0FD2C48807800EB8000A3
:102260002B4A02EB0010016B09A83DF0AFFC284897
:10227000D0F8801001A83DF0A9FCAFF6E433AFF62A
:10228000E83201A909A8FEF75DF9642038F068FC7E
:1022900011B000BD00B591B0202109A83DF0CCFDE2
:1022A000202101A83DF0C8FD1848807800EB80008F
:1022B000174A02EB0010416B09A83DF087FC144857
:1022C000D0F8841001A83DF081FCAFF63443AFF69E
:1022D000384201A909A8FEF735F94FF4C87038F063
:1022E0003FFC11B000BD00B591B0202109A83DF020
:1022F000A3FD202101A83DF09FFD0448807800EB5C
:102300008000074A52F8201009A80BE0BC07001013
:1023100030040010300000102564202573000000F8
:10232000100600103DF052FCFF48416901A83DF045
:102330004DFCAFF69C43AFF6A04201A909A8FEF7F9
:1023400001F911B000BD00B591B0202109A83DF000
:1023500073FD202101A83DF06FFDF448807800EB6B
:102360008000F14A02EB8000816809A83DF02EFC54
:10237000ED48C16901A83DF029FCAFF6E443AFF692
:10238000E84201A909A8FEF7DDF8642038F0E8FB6F
:1023900011B000BD70B592B0044620210AA83DF0EE
:1023A0004BFD202102A83DF047FDE04890F82700B2
:1023B00088B3012817D002283FD16420B4FBF0F184
:1023C00000FB1145B4FBF0F6D8480095807800EB8F
:1023D0008000D54901EB80003346D5A142680AA8A8
:1023E0003DF0F6F929E00A20B4FBF0F4B4FBF0F17B
:1023F00000FB1145B4FBF0F6CC480095807800EB6B
:102400008000C94901EB80003346CCA142680AA88C
:102410003DF0DEF911E0FFE76420B4FBF0F5C348BE
:10242000807800EB8000C04901EB80002B46C5A1FD
:1024300042680AA83DF0CCF900BF00BFBA488169E4
:1024400002A83DF0C3FBC0A3BFA202A90AA8FEF7E1
:1024500079F84FF47A7038F083FB12B070BD00B594
:1024600089B0202101A83DF0E7FC35F09BF902205E
:1024700038F076FBAC48016A01A83DF0A7FB01AB40
:1024800003220521302035F0FEFFA848807801287E
:1024900013D0A648807800EB8000A34A02EB8000AE
:1024A000016901A83DF092FB01ABA048009383783D
:1024B00000220B213C2035F03AFF09B000BDA348B3
:1024C0000068704770B506460C461546974890F868
:1024D0002300C8B1012E02D0022E14D109E09CA025
:1024E00015F054FD14F0D2FB0121084614F0A4FFAE
:1024F00009E09BA015F04AFD14F0B5FB0021012076
:1025000014F09AFF00BF00BF884890F82100C8B1BE
:10251000012C02D0022C14D109E095A015F036FD53
:1025200014F01FFD0121022014F086FF09E094A0A1
:1025300015F02CFD14F0FAFC0021022014F07CFFB1
:1025400000BF00BF794890F8260058B1012D02D095
:10255000022D06D102E01CF0CDFC02E01CF0B9FC1B
:1025600000BF00BF142038F0FBFA70BD10B5FEF7B5
:10257000E7FAF0B986480078D8B98648407A012849
:1025800017D1FEF7DDFA04468248437A8048027884
:10259000214681A015F0FAFC14F030FB142038F02D
:1025A000DFFA002211460120FFF78CFF142038F0DB
:1025B000D7FA10BD00207D49C8804871C870887066
:1025C000487001207A49887070472DE9F04104462F
:1025D000002500260027012C1ED114F0F3FF58B966
:1025E000524890F8230038B101250020684908704E
:1025F00035F0D8F8FFF7DEFF022014F0E3FF98BBB8
:102600004A4890F82100012804D0484890F8210059
:10261000032829D1012627E0022C25D1012014F01E
:10262000D1FF01280BD1414890F8230038B1022591
:1026300001205749087035F0B5F8FFF7BBFF0220BD
:1026400014F0C0FF01280FD1384890F8210001286C
:1026500004D0364890F82100032805D1334890F87B
:10266000C500012800D002263A4631462846FFF729
:1026700029FF002D01DD16F06DFEBDE8F081F0B5FB
:1026800085B0002500260027284890F8250002285C
:1026900012D100240EE0474850F8240040B14548CC
:1026A00050F824101C3030F8140001FB0066274657
:1026B000601CC4B2072CEEDB1C4890F822000228F4
:1026C00031D13D48406F3C49B1F8C01048433A49C8
:1026D0008A6FB1F8C21002FB01013748C26FB0F82F
:1026E000C40002FB00113448D0F88020B0F8C600C6
:1026F00002FB00113048D0F88420B0F8C80002FB7B
:1027000000112D48D0F88820B0F8CA0002FB001153
:102710002948D0F88C20B0F8CC0002FB00112648E4
:10272000D0F890204AE086E010060010BC070010A8
:102730002573253032642E253032640025732564DC
:102740002E25640025732564000000002C00001075
:102750000D0A20417070656E42696C6C00000000CB
:102760000D0A2041707064697342696C6C0000004E
:102770000D0A20417070656E436F696E00000000A5
:102780000D0A20417070646973436F696E00000028
:102790001C0000104C4900100D0A2045727242695D
:1027A0006C6C3D25642C25642C2564000800001009
:1027B000400A0010140A001008090010B0F8CE00FA
:1027C00002FB0011FF48D0F89420B0F8D00002FBC3
:1027D0000011FC48D0F89820B0F8D20002FB00119C
:1027E000F848D0F89C20B0F8D40002FB0011F5485E
:1027F000D0F8A020B0F8D60002FB0011F148D0F8C4
:10280000A420B0F8D80002FB0011EE48D0F8A820B0
:10281000B0F8DA0002FB0011EA48D0F8AC20B0F8BA
:10282000DC0002FB0011E748D0F8B020B0F8DE0071
:1028300002FB001512E0E44890F82200012808D1BC
:1028400014F09CFD10B9E048806B00E000200546C4
:1028500004E0DD4890F8220000B900257019DA493B
:10286000896B884202D9D848806B00E07019D7493B
:102870000860D548D0F8C03008460268D248816B5D
:10288000D348CDE90065CDE90323029150F8270034
:10289000DFF83CC30CF11C0C3CF817C000FB0CF338
:1028A000C848806FDFF81CC3BCF8C2C000FB0CF244
:1028B000C448406FDFF80CC3BCF8C0C000FB0CF18B
:1028C000C44815F063FBC04890F8220002280CD1E0
:1028D000BD48D0F8C000A84203D90220FFF775FE1A
:1028E00035E00120FFF771FE31E0B74890F8220093
:1028F00001280CD1B448D0F8C000A84203D9022066
:10290000FFF763FE23E00120FFF75FFE1FE0AE4804
:1029100090F82200D8B9AC4890F8250002280DD1D3
:102920007019A949D1F8C010884203D20220FFF7DC
:102930004CFE0CE00120FFF748FE08E0A248806B47
:10294000A2490860A4480168A4A015F01FFBFFF786
:102950000DFE002005B0F0BD014669B99A4A92F813
:102960002E200F32FF2A01DDFF2203E0964A92F863
:102970002E200F32D0B20CE001290AD1924A92F8EF
:102980002E20FF2A01DDFF2202E08F4A92F82E203E
:10299000D0B2704770B58C4890F8210018B314F08D
:1029A0007CFA0446FCB192480068204490490860D3
:1029B000FEF7C6F80546024621468EA015F008FB34
:1029C000022200210846FFF77DFD0121204614F078
:1029D000EDFEFEF7B5F805460246A1B2012016F05D
:1029E0006DFB012070BD784890F8230090B314F07F
:1029F000B5F8044674B3214684A015F0C7FA874899
:102A000000680119744803687048026884A015F0D2
:102A1000BDFA8248006820446C49096888421AD28D
:102A200014F0B4F890B17D48006820447B490860F8
:102A30000221204614F0BAFEFEF782F8054602464F
:102A4000A1B2022016F03AFB002452E014F0D6F8AE
:102A50000020C7E761E05C4890F8240001283DD1E0
:102A6000FFF790FAFEF76CF828B34FF4AF7038F028
:102A700077F80020FFF770FF7249887103207249D0
:102A80000870002071490870714908707148002170
:102A900001807148018081707048006837F020FE25
:102AA00000206F4908606F4801780020FFF7EBF8BD
:102AB00014F0A4F80EE0FEF72FF800206249087029
:102AC00014F09CF84FF4C87038F04AF8FDF77CFD1C
:102AD000FFF770FD00206449086083E762480460E6
:102AE000FEF72EF805460246A1B2032016F0E6FADC
:102AF00000244A480068204434490968884205D3C4
:102B0000022200211046FFF7DDFC04E00222002132
:102B10000846FFF7D7FC012064E72B4890F8260011
:102B2000C0B352481CF0A5F904465048007801286B
:102B300019D1C4B121464EA015F08EFA5248046056
:102B40000321204614F032FE002202210846FFF73E
:102B5000B9FCFDF7F5FF05460246A1B2052016F0C7
:102B6000ADFA01203EE741480078022813D147A082
:102B700015F072FAFDF7E4FF85B200232A461946E4
:102B8000022015F0E7FB0020384908703E49086034
:102B9000022027E7FFE7002024E7F8B50025002002
:102BA0000090094890F82500022809D1FDF7C8FFD8
:102BB00005462DB129463CA015F0E8F90024CDE0EA
:102BC000CFE0000008090010BC0700103C00001016
:102BD000140A0010FC140400400000100D0A41709B
:102BE000704368616E6765206D61783D256C640097
:102BF000200000100D0A417070636F696E312E6302
:102C00006F696E3D256C642C256C64000D0A322EB4
:102C100041707062696C6C3D256C6400240000108A
:102C20000D0A41707062696C6C3D256C642C4D6FAF
:102C30006E65793D256C642C70726963653D256C09
:102C4000640D0A00400A00101B000010190000105B
:102C50001A0000101700001014000010940000105B
:102C6000340000103900001028000010440000104B
:102C70000D0A20417070526561646572312E726573
:102C800061643D256C6400002C0000100D0A204199
:102C90007070526561646572204F555450555420D0
:102CA00063617264000000000D0A204170704E657F
:102CB00065647061793D256C64000000F94850F846
:102CC0002400F0B3F74850F82400B5FBF0F0C6B28A
:102CD0003146F5A015F05AF9F2481C3030F81400CE
:102CE000B04201DB304603E0EE481C3030F81400FF
:102CF000C6B23146F1A015F049F9EA4951F824105D
:102D000001FB06F0694614F012F807463946F0A0B8
:102D1000009A15F03BF9012F1DD1F4480068F449E1
:102D2000096808440099451A0020F1490860EF48F5
:102D300005602946EFA015F029F9F24890F8340013
:102D400000E009E0012806D12B46009882B200215C
:102D5000012015F0FFFA03E0601CC4B2072CADDBC4
:102D600000BFF8BDF8B5E8480068D8B113F046FFD9
:102D700070B1FDF7E5FEE4490968461A3246E248BB
:102D8000006881B2042016F099F90020DE4908603D
:102D900037F094FF06460146DCA015F007FA6420E0
:102DA00037F0DEFEFDF7CCFE0546FFF7F6FEFDF739
:102DB000C7FE70B137F082FF06460146D7A015F076
:102DC000F5F9FDF7BDFE064669461BF0EAFD04462F
:102DD00000E00124CB4890F8340001283DD104BB29
:102DE000FDF7AEFE06460146D2A0009A15F0DEF9C8
:102DF000FDF7A6FE0099461A304614F041FFFDF794
:102E00009FFE0099401A86B20023324619461846A2
:102E100015F0A0FA0020B5490860B549086000988F
:102E2000F8BDFDF78DFE06460146C9A015F0BEF9B6
:102E3000FDF786FE0646002114F022FFFDF780FE16
:102E400086B2002332461946184615F083FA002050
:102E5000A6490860A6490860E2E7ACB9C2A015F02F
:102E6000A5F90099681A14F00BFF0098281A82B28D
:102E700000231946184615F06DFA00209B4908609A
:102E80009B4908600098CBE737F018FF06460146DB
:102E9000BAA015F08BF90021284614F0F1FE0023AA
:102EA000AAB21946184615F055FA00208F49086055
:102EB0008F49086000BFB3E72DE9F04100260024E8
:102EC000B3480468FDF73CFEA04206D2B148006852
:102ED00018B90720B0490870C1E0AE48006878B161
:102EE000FFF701F9A0B21CF0C3F80646012E03D18A
:102EF0000A20A9490870B2E00920A7490870AEE08D
:102F00007A4800687A4909680844A04262D2774842
:102F10000068201A76490968451A7B480068451BF5
:102F2000784890F82200022801D1012615E0754862
:102F300090F82200012801D101260EE0714890F896
:102F4000220050B96F4890F82500022801D10126CF
:102F500003E00DB9012600E00026012E36D113F062
:102F600015FEF0B162480068674909680844604985
:102F7000086002216448006814F018FCFDF7E0FDC9
:102F800061490968471A3A465F48006881B20220E1
:102F900016F094F800205C4908600A207E49087009
:102FA0005DE013F02BFEFDF7CBFD57490968471A8A
:102FB0003A465548006881B2042016F07FF8002098
:102FC0005149086008207449087048E00820724997
:102FD000087044E045480068454909680844051BF5
:102FE000484890F82200022801D1012615E0454802
:102FF00090F82200012801D101260EE0414890F806
:10300000220050B93F4890F82500022801D101263E
:1030100003E00DB9012600E00026012E1CD139483D
:1030200090F82400012813D13748006880B113F0CC
:10303000E5FDFDF785FD34490968471A3A463248EF
:10304000006881B2042016F039F800202E4908608B
:103050000A205149087002E008204F490870BDE875
:10306000F08110B50446D4B14A48006860B14BA065
:1030700014F0F2FF01201CF063F846480068001BC2
:1030800044490860002499E019480068844207D345
:1030900017480068241A0020154908608EE08DE06A
:1030A00086E00000140A00100D0A204170704E6581
:1030B00065646E756D3D2564000000000D0A2041B9
:1030C00070705265616C6E756D3D25640000000086
:1030D0000D0A204170705265636261636B207374E6
:1030E0003D25642C7061793D256C64002000001042
:1030F000240000100D0A204170707061793D256C2C
:1031000064000000BC070010280000100D0A2041D8
:103110007070486F6C645265742564000D0A20411C
:103120007070426567696E206368616E67652564CB
:10313000000000000D0A204170706368616E6765D1
:10314000204661696C3D256C642C256C6400000090
:103150000D0A204170706368616E67652073756346
:10316000633D256C640000000D0A204170706368A7
:10317000616E6765204661696C0000000D0A2041A0
:1031800070706368616E67652073756363256400A2
:10319000340000102C0000101B0000100D0A20410C
:1031A000707043487568756F537563630000000065
:1031B000FF480068001BFE490860002424B1FD4858
:1031C0000068001BFB49086010BDFB4890F82E000A
:1031D000FF2806DAF948807908B9012070470020F5
:1031E000FCE70020FAE70EB5F4488379F2488078CE
:1031F00000EB8000F24901EB0010F2A1426CEE48B6
:103200008DE80E00837800221146962035F08FF865
:103210000EBD70B504460125F4B3E6480068E449E4
:1032200009680844A0422AD213F0B0FCB0B1E048CB
:103230000068E64909680844DD490860FDF780FC3C
:10324000E2490968461A3246E048006881B2022025
:1032500015F034FF0020DD49086010E013F0CEFCCB
:10326000FDF76EFCD9490968461A3246D74800680E
:1032700081B2042015F022FF0020D4490860FDF738
:103280005FFC064602462146D1A014F08FFFFDF7F1
:1032900057FCA04203D300E002E0012500E0002536
:1032A000FDF74EFC90B30320D04908700020FFF7D3
:1032B00053FBC2498871CD480078032842D1BC48ED
:1032C0000068CB490968884204D2002201210846DF
:1032D000FFF7F8F80020C7490870C7490870C748C9
:1032E00000210180C64801808170C648006837F01F
:1032F000F7F934F057FAC44801780020FEF7C3FC10
:10330000FDF71EFC064617F0B6F91BE0FFE70022AA
:1033100001210846FFF7D6F80020B6490870B649E3
:103320000870B64800210180B54801808170B54819
:10333000006837F0D5F934F035FAFFF790F80E2031
:10334000AA490870284670BD70B5044601250026BC
:1033500054B1AE48006838B1FEF7C5FEA0B21BF00C
:1033600087FE064606B90025284670BD70B504469E
:1033700084B3A648006860B1A5A014F06DFE0120DA
:103380001BF0DEFEA1480068001BA0490860002475
:1033900047E088480068864909680844A0422FD25F
:1033A00013F0F4FBB8B18248006888490968084402
:1033B0007F490860FDF7C4FB84490968451A2A461D
:1033C0008248006881B2022015F078FE00207F4913
:1033D000086011E025E013F011FCFDF7B1FB7B491B
:1033E0000968451A2A467948006881B2042015F018
:1033F00065FE0020754908604FF4487037F0B0FB57
:103400006B480068844206D369480068241A00208B
:103410006749086005E066480068001B6449086069
:10342000002424B163480068001B62490860FDF76E
:1034300087FB90B303206D4908700020FFF78CFADA
:103440005E49887169480078032842D1584800686D
:1034500067490968884204D2002201210846FFF723
:1034600031F80020634908706349087063480021FF
:1034700001806348018081706248006837F030F94C
:1034800034F090F9604801780020FEF7FCFBFDF76E
:1034900057FB054617F0EFF81BE0FFE7002201217C
:1034A0000846FFF70FF8002052490870524908708B
:1034B00052480021018052480180817051480068C3
:1034C00037F00EF934F06EF9FEF7C9FF0E204749C8
:1034D000087070BD2DE9F04F87B004460E461546C2
:1034E000002700200690FEF785FE002202210846F4
:1034F000FEF7E8FF37F0E2FB8046014649A014F0F2
:1035000055FE3046FFF720FF642094FBF0F000F0FA
:10351000FF08642094FBF0F100FB114000F0FF096C
:103520004246012148460CF019FC0746224890F813
:103530002F00012804D0204890F82F00032836D10E
:10354000012F7DD1FDF7FCFA08B914F01BF9012D0C
:1035500001D0022D02D13046FFF783FD41202849DA
:103560000870642094FBF0F100FB11400A2190FBED
:10357000F1F0303022494870642094FBF0F100FBF8
:1035800011400A2190FBF1F201FB120030301C497E
:103590008870294806602948037827480168184838
:1035A000CDE90153009183784278017849E0ACE09D
:1035B0002400001020000010BC070010400A00107A
:1035C00030040010257325303264000028000010FC
:1035D0000D0A204170702050726963653D256C644E
:1035E0002C6D6F6E65793D256C6400001B0000102A
:1035F0003C000010190000101A0000101700001005
:103600001400001094000010390000102C0000106D
:103610000D0A204170705043436F73745375636398
:10362000000000000D0A20256441707055626F781B
:1036300056656E646F757400340000103800001019
:1036400039E0F1A033F05AFBFF4801780078401CC4
:10365000FD4B18702B46FD4AFD48006814F0E5F854
:10366000642094FBF0F000F0FF0A642094FBF0F17A
:1036700000FB114000F0FF0B52460221584619F0A2
:10368000FEFA00F0FF08FDF75BFA0590642094FB5A
:10369000F0F100FB114000F0FF09059A2B46CDE93F
:1036A000012800964A460121002016F085F90B20DA
:1036B000E849087009E1FEF7EDFD642094FBF0F0A5
:1036C00000F0FF0A642094FBF0F100FB114000F0D1
:1036D000FF0B52460221584619F0D1FA00F0FF08BC
:1036E000FDF72EFA0590642094FBF0F100FB1140E9
:1036F00000F0FF09059A2B46CDE9012800964A46BD
:103700000121992016F058F9DFE0D34890F82F00F6
:1037100002287ED1012F52D1FEF794FD3046FFF7EB
:1037200025FE642094FBF0F100FB11400A2190FB80
:10373000F1F03030C0B28DF818000A2094FBF0F19F
:1037400000FB11403030C0B28DF8190014F01AF8A7
:10375000BD4801780078401CBB4B18702B4606AA68
:10376000304614F062F8642094FBF0F000F0FF0B98
:10377000642094FBF0F100FB1140C0B25A460221D4
:10378000049019F07CFA00F0FF08FDF7D9F90590D4
:10379000642094FBF0F100FB114000F0FF0964206D
:1037A00094FBF0F000F0FF0A059A2B46CDE90128C2
:1037B00000964A465146002016F0FEF835E0FEF726
:1037C00069FDA648006810B102201BF0B9FC642016
:1037D00094FBF0F000F0FF0A642094FBF0F100FB92
:1037E000114000F0FF0B52460221584619F047FAEB
:1037F00000F0FF08FDF7A4F90590642094FBF0F1B8
:1038000000FB114000F0FF09642094FBF0F0C0B20F
:1038100000E03FE00490059A2B46CDE90128009690
:103820004A460146022016F0C7F8FDF789F990B321
:103830000320884908700020FFF78EF888498871B6
:1038400084480078032840D1864800688649096882
:10385000884204D2002201210846FEF733FE0020F0
:1038600082490870824908708248002101807748A7
:10387000018081708048006836F032FF33F092FF9B
:103880007E4801780020FEF7FEF9FDF759F98046E1
:1038900016F0F1FE19E0FFE7002201210846FEF7CD
:1038A00011FE0020714908707149087071480021AB
:1038B00001806648018081706F48006836F010FF13
:1038C00033F070FF0E206349087007B0BDE8F08F39
:1038D0002DE9F04F85B004460F4615461E465E485A
:1038E00090F82F0002282BD1642094FBF0F000F018
:1038F000FF0A642094FBF0F100FB114000F0FF0B85
:1039000052460221584619F0BAF900F0FF08FDF7B7
:1039100017F90490642094FBF0F100FB114000F0D3
:10392000FF09642094FBF0F0C0B20390049A2B4688
:10393000CDE9012800974A460146304616F03CF88A
:1039400005B0BDE8F08F10B5FDF7FAF8D8B1FFF774
:1039500009FA4FF4C87037F003F9002043490870A2
:103960004349087043480021018038480180817034
:103970004148006836F0B4FE33F014FFFEF76FFDE7
:103980000E2034490870002202210846FEF79AFDF5
:10399000C82037F0E5F821F095FE4FF4C87037F0F5
:1039A000DFF8002201210846FEF78CFD10BDFEB5B0
:1039B000294890F8260010B1FEF781FD10BBFDF7F5
:1039C000BFF800B3FEF78FFC37F078F905460146E3
:1039D0002BA014F0EBFBFDF7B3F80546FDF7B0F8AC
:1039E0000646012100231E22CDE90105009119465A
:1039F000022014F005FD4FF4C87037F0B1F8FFF75E
:103A0000B1F943E06BE04DE04C6F675472616E7347
:103A1000616374696F6E415049206C6F6769633DE3
:103A20002563256325632070726963653D256420E5
:103A3000747970653D25782C7472616E4E756D7366
:103A40003D25640D0A20000038000010140000100D
:103A5000340000101B000010BC0700102C000010E8
:103A6000400A0010240000103C0000101900001053
:103A70001A00001017000010940000103900001008
:103A80000D0A2041707054756925640004461CB10C
:103A90002046FEF77FFC01E0FEF755FC0E20FA49B8
:103AA00008701CE0FEF71FFCAFF6441014F07EFB1C
:103AB0000021084614F0E4F8F44890F83400012896
:103AC00005D100231A461946184614F043FC00207D
:103AD000EF490860EF4908600E20EB490870FEBD11
:103AE0002DE9F04104460025FEF784FB37F0E6F8A7
:103AF00006460146AFF2D44014F058FB642094FB14
:103B0000F0F0C6B2642094FBF0F100FB1140C7B2A4
:103B10003246012138460CF021F90546FDF710F830
:103B200090B30320D84908700020FEF715FFDA494A
:103B30008871D5480078032840D1D6480068D74915
:103B40000968884204D2002201210846FEF7BAFC27
:103B50000020D3490870D3490870D3480021018060
:103B6000D24801808170D248006836F0B9FD33F048
:103B700019FED04801780020FEF785F8FCF7E0FF39
:103B8000064616F078FD19E0FFE7002201210846FD
:103B9000FEF798FC0020C2490870C2490870C2486C
:103BA00000210180C14801808170C148006836F061
:103BB00097FD33F0F7FD0E20B34908702846BDE8A5
:103BC000F08170B504460025FCF7BAFF0546BA48F7
:103BD0000460FCF7B5FF90B30320AB4908700020E8
:103BE000FEF7BAFEAC498871A7480078032841D196
:103BF000A8480068A9490968884204D20022012126
:103C00000846FEF75FFC0020A5490870A54908702A
:103C1000A54800210180A54801808170A448006862
:103C200036F05EFD33F0BEFDA24801780020FEF7BD
:103C30002AF8FCF785FF064616F01DFD1AE0FFE79F
:103C4000002201210846FEF73DFC0020944908703F
:103C50009449087094480021018094480180817043
:103C60009348006836F03CFD25B133F09BFD0E20F3
:103C70008549087070BDF0B591B00546002420213B
:103C800009A83CF0D9F8202101A83CF0D5F805207E
:103C900081494871FCF754FF08B9FCF720FF2C4616
:103CA0007A4890F82700F0B3012826D002286ED178
:103CB000642094FBF0F100FB114694FBF0F773488D
:103CC0000096807800EB80007C4901EBC0003B4609
:103CD0007B49C26809A83BF07BFD642094FBF0F1AE
:103CE00000FB114694FBF0F7744800963B4674497C
:103CF000426B01A83BF06CFD49E00A2094FBF0F018
:103D000084B20A2094FBF0F100FB114694FBF0F71B
:103D10005E480096807800EB8000684901EBC000A7
:103D20003B46674900E015E00C31C26809A83BF04A
:103D30004FFD0A2094FBF0F100FB114694FBF0F7D5
:103D40005E4800963B465E490C31426B01A83BF051
:103D50003FFD1CE0642094FBF0F64C48807800EBBB
:103D60008000564901EBC000334655491431C26802
:103D700009A83BF02DFD642094FBF0F64F48334634
:103D80004F491431426B01A83BF022FD00BF00BF38
:103D9000AFF27473AFF2787201A909A8FCF7D2FBF5
:103DA0004FF4167036F0DCFE3B48407978B9FCF7EA
:103DB000C7FE18B103203449087006E0FCF7ACFEDA
:103DC000FCF702FC002030490870FEF7F3FB2E4898
:103DD0000078032805D1374801780020FDF753FF0C
:103DE00006E02948007818B933F0DCFCFEF7E2FB66
:103DF00011B0F0BD10B592B0044620210AA83CF0E5
:103E00001BF8202102A83CF017F8FCF799FE10B12E
:103E10000020FFF7D6FE22462AA10AA83BF0D8FCD4
:103E2000224628A102A83BF0D3FC02AB174800931E
:103E3000837800220E21502034F079FA12B010BDA0
:103E400088B00020079000240025069005901249B4
:103E50008870C8700871487134F071FE38B1022260
:103E600011461046FEF72EFB13200749087001206B
:103E70000FF09AFA14490860044890F89800012855
:103E800024D116F0D9FA24E01B000010BC07001062
:103E90002000001024000010400A00103C00001018
:103EA000190000101A000010170000101400001074
:103EB00094000010390000102C00001018010010B0
:103EC000302700002573000040000010012016F08C
:103ED0009FFA012034F0B0FE33F064FCFDE3FF48AC
:103EE00000783BF04CFBFD48007814287DD2DFE8D9
:103EF00000F00AA5D9FEFDFCFBFAF9F8F7F6F5F497
:103F0000F3F2F1F0EFEEF6480068C82802D900207D
:103F1000F3490860F348807830B90520F14988708A
:103F2000FCF75EFB15F085F805A9002016F069FD89
:103F300007909DF81C0098B19DF81C003C2803D008
:103F40009DF81C003E2805D10020E7490870E7498C
:103F5000087005E00520E34948710120DF49087039
:103F6000E048007920B90520DE490871FEF787FB9B
:103F7000FEF710FD0446012C1ED113F064F833F057
:103F800011FCDB4801782846FDF77DFEFCF7D8FDE3
:103F900007460146D7A013F0F9FF13F0F3FB2846BC
:103FA000FEF7DAFCCF498871FCF7CAFD074616F028
:103FB00062FB0320C9490870CA48C07800BB0520CD
:103FC000C849C87013F062F813F0F0F8B0B10020DF
:103FD000C449887015F0BEF9642036F0C1FD33F095
:103FE000E1FB02221146104600E08FE2FEF76AFA7A
:103FF000FEF7E0FA0F20B949087001E015F05BFC0C
:1040000034F09DFD38B1022211461046FEF75AFAEF
:104010001320B2490870012012F0B6FAFCF790FDA7
:10402000074614F09DFA34F0F3FD07461BF012FB2F
:1040300000201BF026FB16F03FFD67E29DF81C00F8
:1040400080B19DF81C10B0A014F08EF80520A54991
:104050004871FCF775FD08B9FCF741FD05A907A8F3
:10406000FCF77AFD05A9012016F0CBFC07909D48CE
:10407000407928B94320079002200590FEF79AFA6C
:1040800096480078032805D1994801782846FDF71D
:10409000FAFD06E09148007818B933F083FBFEF78B
:1040A00089FA33E29DF81C0050B114208D49487103
:1040B000FCF746FD08B9FCF712FD07A8FDF7D0F99B
:1040C00005A9012016F09DFC0790864810E0BBE38F
:1040D000A1E390E335E3E1E2B0E29FE26AE216E2B7
:1040E000ECE0CEE0A4E07FE07DE079E077E015E071
:1040F000407918B94320079002200590774800784E
:10410000032805D17A4801782846FDF7BCFD04E074
:104110007248007808B933F045FBF6E3FEF73AFC45
:104120000446012C15D1724801782846FDF7ABFDF5
:104130002846FEF711FC6B498871FCF701FD074624
:1041400016F099FAFCF7FCFC0746014669A013F04B
:104150001DFF05A9002016F054FC07909DF81C00D7
:1041600058B19DF81C106CA013F0FEFF05205D49AE
:104170004871012059490870C7E312F03BFF10B99C
:10418000FFF723F878B16848407808B1012D0AD1CB
:104190006648006838B9002202210846FEF792F905
:1041A0000D204E490870624890F82E00FF2809DA69
:1041B0005D48407808B1012D04D15C48006808B919
:1041C000FFF711F8022C02D10E2044490870FCF7C9
:1041D000B7FC074614F0C4F916F06EFC95E394E3BF
:1041E000FEF76AFE91E390E352480068FDF7EEFEA9
:1041F0002846FEF7B1FB3B49887103203749087018
:10420000002039490870394908704B480021018065
:104210004A48018081704A48006836F061FA0020FF
:1042200044490860324801782846FDF72CFD6CE3CC
:10423000FDF730FFFCF784FCF8B12846FEF78CFB55
:1042400028498871032025490870002026490870F4
:104250002649087038480021018038480180817063
:104260003748006836F03CFA0020324908602048A0
:1042700001782846FDF707FD02E00E201749087077
:1042800043E3FDF758FF0320144908700020164946
:1042900008701649087028480021018027480180CD
:1042A00081702748006836F01BFA00202149086019
:1042B0000F4801782846FDF7E6FC26E3002202219C
:1042C0000846FEF7FFF8FDF75FFF1E4800886421EF
:1042D00090FBF1F0C7B21B48008835E01B000010CE
:1042E00048000010400A0010190000101A000010C9
:1042F000390000100D0A2041707032616D6F756ECB
:10430000743D256C640000000D0A204170704B65FF
:1043100079323D25640000000D0A204170704B6524
:1043200079313D2564000000840800102C00001045
:10433000BC0700103400001017000010140000101B
:10434000940000103000001090FBF1F201FB12000D
:1043500000F0FF083A46012140460BF0FFFC0690B2
:10436000069801285AD1FF480068FEF77AFEFE48F9
:10437000006860B1FD4801780078401CFB4B187064
:104380000223FB4AF748006813F04FFA10E0F748A1
:1043900001780078401CF54B18700023F44AF1486E
:1043A000006813F042FAEF48006880B21AF00DFF7F
:1043B000F0480088642190FBF1F000F0FF0AED481E
:1043C000008890FBF1F201FB120000F0FF0B524657
:1043D0000221584618F053FCC7B2FCF7B1FB049019
:1043E000E4480088642190FBF1F201FB120000F028
:1043F000FF08E048008890FBF1F000F0FF09D94881
:10440000049A016800238DE8860042464946184612
:1044100015F0D2FA0B20D849087074E0D248006831
:1044200028B1D6A013F018FE02201AF089FED84851
:1044300090F82F00012804D0D54890F82F000328C9
:104440002CD1CC480088642190FBF1F000F0FF0AE9
:10445000C848008890FBF1F201FB1200C7B2524637
:104460000221384618F00BFC00F0FF09FCF768FB4E
:104470008346C0480088642190FBF1F201FB1200E2
:1044800000F0FF08B748016800234246CDE901B9B2
:1044900000910121992015F08FFA31E0B54800888C
:1044A000642190FBF1F000F0FF0AB248008890FB15
:1044B000F1F201FB120000F0FF0B524602215846B8
:1044C00018F0DDFBC7B2FCF73BFB0490A94800885D
:1044D000642190FBF1F201FB120000F0FF08A548F7
:1044E000008890FBF1F000F0FF099E48049A0168F3
:1044F00000238DE8860042464946022015F05CFA0A
:104500000C209D490870002096490860FDE1FDF7E8
:1045100099FEA048007801283CD1FCF711FBC0B3FC
:1045200003209549087001252846FEF715FA9A4997
:1045300088719148007803283BD1984800689849D1
:104540000968884204D2002201210846FDF7BAFF1B
:104550000020944908709449087094480021018013
:104560008348018081709248006836F0B9F833F0D2
:1045700019F9904801782846FDF785FBFCF7E0FA29
:10458000074616F078F805A9002016F03AFA0790C9
:104590000FE0FFE7FCF7D4FA40B1864801782846DF
:1045A000FDF771FB0D207449087002E00E2072497E
:1045B0000870AAE1FDF76EFEFCF7C2FA68B30320AB
:1045C0006D49087001252846FEF7C6F972498871C1
:1045D00069480078032820D170480068704909684C
:1045E000884204D2002201210846FDF76BFF00201B
:1045F0006C4908706C4908706C48002101805C4867
:10460000018081706A48006836F06AF833F0CAF8B1
:10461000684801782846FDF736FB76E1FDF763FE32
:10462000FEF7A0FB06461EB13046FDF7B3FE01E0E3
:10463000FDF789FE0E205049087066E1FDF70FFF77
:10464000FCF76AFA002500204849087049490880AB
:104650005849087050490871012211461046FDF76B
:1046600031FF002054490870FDF7A4FF01200EF02F
:104670009BFE5249086013F082FB454890F8980071
:10468000012802D115F0D8FE02E0012015F0C0FE8D
:1046900033F088F800203849087036E13E488078C9
:1046A00020B91E203C498870FCF7D9F83A48C078F8
:1046B00028BB05203849C87012F0E8FC012011F031
:1046C00063FF12F073FDA8B900203349887033F0FE
:1046D00069F801221146104600E01AE1FDF7F2FEEA
:1046E000642036F03DFA14F035FEFDF763FF00203C
:1046F00021490870FCF724FA074613F031FF34F023
:104700001EFA10B113201C490870FEF743F9044645
:10471000012C15D112F097FC33F044F825480178AC
:104720002846FDF7B0FAFCF70BFA07460146AFF250
:104730003C4013F02BFC13F025F810200E490870B4
:10474000E3E0FEF727F90446012C3BD11948017834
:104750002846FDF798FAFCF7F3F907460146AFF251
:104760006C402DE0340000102C00001038000010C8
:1047700014000010300000101B0000100D0A204132
:10478000707043487568756F4661696C0000000081
:10479000BC07001084080010400A0010240000101C
:1047A0003C000010190000101A0000101700001043
:1047B00094000010390000101C0000104000001090
:1047C00013F0E4FB12F016FC50B15348006838B9FE
:1047D000002202210846FDF775FE11204F4908709E
:1047E000022C02D112204D490870FCF7A9F90746A6
:1047F00013F0B6FE89E0FDF776FDFEF7B3FA064644
:104800001EB13046FDF7C6FD01E0FDF79CFD12200C
:104810004249087079E0FDF722FEFCF77DF900259A
:1048200000203F4908703F49088032F0BBFF00225A
:1048300001210846FDF746FE13F0A1FAFDF7BAFE86
:104840000F203649087060E0002015F0E1FD364881
:1048500090F82F0070B1012012F0C1FE324890F89C
:10486000340038B9C82036F07BF914F073FDC82045
:1048700036F076F900BFFCF763F9074613F070FED7
:10488000002008F0FCFC34F05AF90028F3D1274945
:10489000887032F087FF012211461046FDF712FEA4
:1048A000002023490870FDF785FE1F4890F82F006F
:1048B000B8B10023009301931A46194605200293CC
:1048C00013F09EFD002012F08AFE174890F8340085
:1048D00038B9C82036F044F914F03CFDC82036F051
:1048E0003FF901200EF060FD124908600E4890F873
:1048F0009800012802D115F09FFD02E0012015F07B
:1049000087FD00200549087000BF00BF022036F077
:1049100027F9FFF7E4BA00002C0000101B0000107C
:104920003800001030000010BC070010400A0010D2
:104930001C00001040000010F0B585B000260027D4
:10494000FAA103C9CDE9010132F02CFFF9A032F040
:10495000D5F9B8E00F23EF220021084633F083FE9B
:104960000323EF220021084633F07DFEF7488078CC
:10497000F74951F82030F54800938378002201214F
:10498000082033F0D4FCF1488178F148183050F811
:104990002130EE480093837800220621302033F046
:1049A000C6FC0E23EE220D21012032F035FFE74830
:1049B0008178E748483050F82130E4480093837804
:1049C00000220D211C2033F0B2FC7BE000270024E4
:1049D0000AE0342101EB0411C8B20023DDA2092151
:1049E00032F044FF601CC4B2082CF2DB69E034F002
:1049F0006EF80546F5B3432D02D1002005B0F0BD99
:104A000003A8855531013431C8B20023D2A209214F
:104A100032F02CFF701CC6B2082E4FD100260127A1
:104A2000002408E003A8005D01A9095D884200D0C8
:104A30000027601CC4B2082CF4DB012F01D1012037
:104A4000DCE70E23EE220D21012032F0E5FEBF4807
:104A50008178BF48303050F82130BC4800938378CB
:104A600000220D21302033F062FC4FF4C87036F084
:104A700077F800E022E00E23EE220D21012032F033
:104A8000CBFEB2488178B248483050F82130AF4868
:104A90000093837800220D21302033F048FC00245D
:104AA0000AE0342101EB0411C8B20023A9A20921B4
:104AB00032F0DCFE601CC4B2082CF2DB052036F0BC
:104AC0004FF894E782E745E738B532F06BFE0F23E5
:104AD000EF220021084633F0C6FD0323EF22002118
:104AE000084633F0C0FD4CE00E23EE2204210120E5
:104AF00032F092FE95488078984951F820309348DA
:104B00000093837800220121082033F010FC8F48A5
:104B100081789248183050F821308C48009383787F
:104B2000002207213C2033F002FC884881788B4822
:104B3000303050F8213085480093837800220B21D3
:104B4000282033F0F4FB814881788448483050F8BD
:104B500021307E480093837800220B218C2033F093
:104B6000E6FB0DE033F0B3FF0446432C01D10020F7
:104B700038BD452C01D10120FAE70A2035F0F0FFBD
:104B8000F0E7B1E770B50026704890F822000228DF
:104B900073D17348406F7249B1F8C01048437049EF
:104BA0008A6FB1F8C21002FB01016D48C26FB0F804
:104BB000C40002FB00116A48D0F88020B0F8C6009B
:104BC00002FB00116648D0F88420B0F8C80002FB50
:104BD00000116348D0F88820B0F8CA0002FB001129
:104BE0005F48D0F88C20B0F8CC0002FB00115C4884
:104BF000D0F89020B0F8CE0002FB00115848D0F851
:104C00009420B0F8D00002FB00115548D0F898204D
:104C1000B0F8D20002FB00115148D0F89C20B0F847
:104C2000D40002FB00114E48D0F8A020B0F8D60006
:104C300002FB00114A48D0F8A420B0F8D80002FBCB
:104C400000114748D0F8A820B0F8DA0002FB0011A4
:104C50004348D0F8AC20B0F8DC0002FB001140481B
:104C6000D0F8B020B0F8DE0002FB0015374890F80D
:104C70002500022812D100240EE018E0394850F82F
:104C8000240038B1374850F824101C3030F8140094
:104C900001FB0055601CC4B2072CEFDB2B48D0F899
:104CA000C000A84201D901260FE000260DE02748E8
:104CB00090F82200012803D112F060FB064604E0C0
:104CC000224890F8220000B90026304670BD70B529
:104CD000044600251D4890F82F00022817D1012C0A
:104CE0000BD112F060FA054612F05DFA0646024654
:104CF00029461DA013F05AFA09E0022C07D12048DA
:104D000090F8BC5090F8BC101EA013F04FFA284643
:104D100070BD0146012902D0022949D142E00B4869
:104D200080781F4A52F8200070470000383337312E
:104D300038353537456E74657253656C6643686502
:104D4000636B46756374696F6E0D0A00BC070010D3
:104D50004C1504005F0000002A000000AC150400A0
:104D600008090010140A00100D0A2041707020502C
:104D7000434572726F725363616C653D2564000038
:104D8000540A00100D0A2041707020504345727281
:104D90006F724F66664C696E653D256400000000C9
:104DA00004210400FF488278FF4850F82200704731
:104DB000FC488278FC48183050F82200F7E700B52C
:104DC0008BB000200A900320099032F0EBFC0F23F7
:104DD000EF220021084633F046FC0323EF22002196
:104DE000084633F040FCE6E30E23EE2204210120C6
:104DF00032F012FD032009900A980A287ED2DFE8DB
:104E000000F005D5FEFDFCFBFAF9F8F70123E548B3
:104E10008178E64850F82120E5A1E2488DE80E00AF
:104E200080780346002201210790082033F07FFAA2
:104E3000DC4890F8230002287ED1DF488078A0B1BA
:104E4000D8488178D948183050F82130D548009397
:104E5000807807900998801CC0B2099006900022C3
:104E600001460520079B33F062FAD348C078A0B111
:104E7000CC488178CD48303050F82130C948009373
:104E8000807807900998801CC0B209900690002293
:104E900001460520079B33F04AFAC7480079A0B1C4
:104EA000C0488178C148483050F82130BD4800934F
:104EB000807807900998801CC0B209900690002263
:104EC00001460520079B33F032FABB484079A0B178
:104ED000B4488178B548603050F82130B14800932B
:104EE000807807900998801CC0B209900690002233
:104EF00001460520079B33F01AFA00E0A5E2AE4810
:104F00008079A0B1A7488178A848783050F821303E
:104F1000A4480093807807900998801CC0B209903B
:104F20000690002201460520079B33F000FAA248B4
:104F3000807808B9A04800E019E0C078B8B99E4868
:104F40000079A0B99C48407988B99B48807970B9AC
:104F500094488178994850F821309248009380789D
:104F60000346002207210790052033F0E0F98D4821
:104F700080788E49303951F8200006903AF04AFE88
:104F8000C000C0F1E700C0B207908648817887482A
:104F9000303850F82130834800938078034600224F
:104FA0000D210690079833F0C2F94EE202237D48A6
:104FB00081787E4850F821207DA17A488DE80E0046
:104FC00080780346002201210790082033F0AFF9D2
:104FD000744890F8230002287ED17748C079E8B160
:104FE000704881787148903050F821306D4807E062
:104FF000FEE3FEE3FEE3ABE3FAE227E26EE191E0DB
:105000000093807807900998801CC0B209900690A0
:10501000002201460520079B33F089F96648007A93
:10502000A0B1604881786148A83050F821305D48CF
:105030000093807807900998801CC0B20990069070
:10504000002201460520079B33F071F95A48407A47
:10505000A0B1544881785548C03050F821305148AB
:105060000093807807900998801CC0B20990069040
:10507000002201460520079B33F059F9FFF782FD16
:10508000A0B1484881784948D83050F82130454887
:105090000093807807900998801CC0B20990069010
:1050A000002201460520079B33F041F94248C079B0
:1050B00090B94148007A78B93F48407A60B9FFF723
:1050C00061FD48B9374881783C4850F8213035486F
:1050D00000938078034600E005E000220721079056
:1050E000052033F024F92F4881783048183850F8DB
:1050F000210006903AF08EFDC000C0F1E700C0B27A
:105100000790284881782948183850F821302548D8
:1051100000938078034600220D210690079833F013
:1051200006F992E101231F4881782048F03050F8B9
:1051300021201FA11B488DE80E0080780346002225
:1051400001210790082033F0F2F8164890F821006A
:1051500002287ED11848807A98B112488178184880
:1051600050F821300F480093807807900998801CF0
:10517000C0B209900690002201460520079B33F03B
:10518000D6F80D48C07A28B3064881780C48183004
:1051900050F8213003480093807807900998801CCC
:1051A000C0B20FE0BC0700101C210400FC16040074
:1051B00025732D25640000004C4900104C1B040091
:1051C0000418040009900690002201460520079B60
:1051D00033F0ADF8F848007B98B1F8488178F8488A
:1051E00050F82130F5480093807807900998801C8A
:1051F000C0B209900690002201460520079B33F0BB
:1052000096F8ED48407BA0B1EC488178EC48183026
:1052100050F82130E9480093807807900998801C65
:10522000C0B209900690002201460520079B33F08A
:105230007EF8E148807BB0B1E0488178E0483030CA
:1052400050F82130DD480093807807900998801C41
:1052500000E026E0C0B20990069000220146052039
:10526000079B33F064F8D448807AD0B9D248C07A2A
:10527000B8B9D148007BA0B9CF48407B88B9CE48A7
:10528000807B70B9CD488178CE4850F82130CB482A
:10529000009380780346002207210790052033F011
:1052A00046F8C6488178C84850F8210006903AF080
:1052B000B1FCC000C0F1E700C0B20790BF488178E0
:1052C000C14850F82130BD48009380780346002241
:1052D0000D210690079833F02AF8B6E00223B7486C
:1052E0008178B748483850F82120AFF23C11B348D4
:1052F0008DE80E00807803460022012107900820E7
:1053000033F015F8AD4890F8210002287ED1AA4864
:10531000C07BA0B1A9488178A948483050F8213015
:10532000A6480093807807900998801CC0B2099025
:105330000690002201460520079B32F0F8FF9E48A8
:10534000007CA0B19D4881789D48603050F82130A4
:105350009A480093807807900998801CC0B2099001
:105360000690002201460520079B32F0E0FF92489C
:10537000407CA0B1914881789148783050F8213034
:105380008E480093807807900998801CC0B20990DD
:105390000690002201460520079B32F0C8FF864890
:1053A000807CC8B18448C37C827C844881788448EE
:1053B000903050F8211085A08DE80F007F4880784C
:1053C00007900998801CC0B20990069000220146FF
:1053D0000520079B32F0ABFF7748C07BB0B9764819
:1053E000007C98B97448407C80B97348807C68B967
:1053F00072488178734850F8213070480093807863
:105400000346002207210790052000E001E032F06A
:105410008EFF6A4881786C4850F8210006903AF077
:10542000F9FBC000C0F1E700C0B207906348817883
:10543000654850F821306148009380780346002287
:105440000D210690079832F072FF50E25B48817898
:105450005B48A83050F821305848009380780346C4
:10546000002201210790082032F061FF534890F894
:10547000220001287ED15048007DF8B14E48007DC1
:105480000690FFF746FC07905548C37D4B4881784E
:105490004B48C03050F8211052A0079A8DE80F00F9
:1054A0004648807806900998801CC0B20990059003
:1054B000002201460520069B32F039FF3E48407D20
:1054C000F8B13D48407D0690FFF723FC0790444823
:1054D000037E3A4881783A48D83050F8211041A0EC
:1054E000079A8DE80F003548807806900998801C4F
:1054F000C0B209900590002201460520069B32F0BB
:1055000016FF2D48807DF8B12B48807D0690FFF76F
:1055100000FC07903248437E284881782848F030C4
:1055200050F821102FA0079A8DE80F0023488078AB
:1055300006900998801CC0B209900590002201468F
:105540000520069B32F0F3FE1B48007D90B91A48F7
:10555000407D78B91848807D60B91848817819482D
:1055600050F8213015480093807803460022072127
:10557000079000E002E0052032F0D9FE0F48817864
:10558000114850F8210006903AF044FBC000C0F1E9
:10559000E700C0B20790094881780B4850F82130E5
:1055A000064800938078034600220D210690079854
:1055B00032F0BDFEB6E3DAE34C490010BC07001040
:1055C000341804004C1B0400E416040025735B250A
:1055D000233032785D5B25233032785D0000000097
:1055E00020490010257325735B25233032785D0038
:1055F0000123FF488178FF4850F82120AFF2504145
:10560000FB488DE80E0080780346002201210790B8
:10561000082032F08CFEF64890F82D0001282FD19A
:10562000F548807EA0B1F2488178F248183050F8F1
:105630002130EF480093807807900998801CC0B211
:1056400009900690002201460520079B32F06FFE6C
:10565000E948C07EA0B1E6488178E648303050F88D
:105660002130E3480093807807900998801CC0B2ED
:1056700009900690002201460520079B32F057FE54
:10568000DD48007FA0B1DA488178DA48483050F828
:105690002130D7480093807807900998801CC0B2C9
:1056A00009900690002201460520079B32F03FFE3C
:1056B000D148407FA0B1CE488178CE48603050F8C4
:1056C0002130CB480093807807900998801CC0B2A5
:1056D00009900690002201460520079B32F027FE24
:1056E000C548807EB8B9C448C07EA0B9C248007F12
:1056F00088B9C148407F70B9BD488178BF4850F82B
:105700002130BB4800938078034600220721079090
:10571000052032F00CFEB6488178B94850F82100D7
:1057200006903AF077FAC000C0F1E700C0B20790E7
:10573000AF488178B24850F82130AD480093807866
:10574000034600220D210690079832F0F0FDE9E2B1
:105750000223A7488178A74850F82120AFF2B05122
:10576000A3488DE80E0080780346002201210790AF
:10577000082032F0DCFDA048807FA0B19C488178F1
:105780009C48783050F821309948009380780790F1
:105790000998801CC0B2099006900022014605209D
:1057A000079B32F0C4FD9448C07FA0B19048817837
:1057B0009048903050F821308D48009380780790C1
:1057C0000998801CC0B2099006900022014605206D
:1057D000079B32F0ACFD884890F82000C0B18448A7
:1057E00081788448A83050F821308148009302E045
:1057F00017E25AE17CE0807807900998801CC0B2DB
:1058000009900690002201460520079B32F08FFD8B
:10581000794890F82100A0B1754881787548C0306A
:1058200050F8213072480093807807900998801CC6
:10583000C0B209900690002201460520079B32F075
:1058400076FD6D4890F82200A0B1694881786948DA
:10585000D83050F821306648009380780790099836
:10586000801CC0B209900690002201460520079BCB
:1058700032F05DFD6048807FE8B95F48C07FD0B9F5
:105880005D4890F82000B0B95B4890F8210090B9CD
:10589000594890F8220070B955488178574850F817
:1058A0002130534800938078034600220721079057
:1058B000052032F03CFD4E488178514850F82100D7
:1058C00006903AF0A7F9C000C0F1E700C0B2079017
:1058D000474881784A4850F82130454800938078FD
:1058E000034600220D210690079832F020FD19E2B0
:1058F00003233F4881783F4850F82120AFF2507190
:105900003B488DE80E008078034600220121079075
:10591000082032F00CFD384890F82300A0B134483C
:1059200081783448F03050F8213031480093807845
:1059300007900998801CC0B2099006900022014689
:105940000520079B32F0F3FC2B4890F8240098B117
:10595000274881782B4850F82130254800938078DB
:1059600007900998801CC0B2099006900022014659
:105970000520079B32F0DBFC1F4890F82500A0B102
:105980001B4881781F48183050F821301848009380
:10599000807807900998801CC0B209900690002278
:1059A00001460520079B32F0C2FC134890F8260000
:1059B000A0B10F4881781348303050F821300C489E
:1059C0000093807807900998801CC0B209900690D7
:1059D000002201460520079B32F0A9FC064890F8FA
:1059E000270010B302488178064848300CE00000D8
:1059F000BC0700103C1904004C4900104C1B04006B
:105A0000E4160400441A040050F82130FF480093C3
:105A1000807807900998801CC0B2099006900022F7
:105A200001460520079B32F082FCF94890F82300DC
:105A3000F0B9F74890F82400D0B9F54890F825005F
:105A4000B0B9F34890F8260090B9F14890F82700D3
:105A500070B9EE488178EF4850F82130EB48009358
:105A600080780346002207210790052032F05FFC72
:105A7000E6488178E84850F8210006903AF0CAF8E4
:105A8000C000C0F1E700C0B20790E0488178E2486A
:105A900050F82130DD4800938078034600220D2124
:105AA0000690079832F043FC3CE10423D748817804
:105AB000DA4850F82120AFF60811D4488DE80E00DE
:105AC00080780346002201210790082032F02FFC45
:105AD000CF4890F82800A0B1CC488178CD48A838AC
