:020000040000FA
:1000000000800010CD000000596A0300596A030007
:10001000596A0300596A0300596A0300596A0300C8
:10002000596A0300596A0300596A03006902000013
:10003000596A030000000000D1020000B947030024
:10004000596A0300CB3F0300A13F03008F3F030029
:100050007D3F0300E51B0300B51D03009518030059
:10006000B51F0300596A0300B9220300596A03004F
:10007000596A0300596A0300596A0300596A030068
:10008000596A0300596A0300596A0300596A030058
:10009000473A0300596A0300596A0300596A03008A
:1000A000596A0300596A0300596A0300596A030038
:1000B000596A0300596A0300596A0300596A030028
:1000C000596A0300596A0300596A030000F002F8F4
:1000D00000F0BAF80AA090E8000C82448344AAF128
:1000E0000107DA4501D100F0AFF8AFF2090EBAE826
:1000F0000F0013F0010F18BFFB1A43F0010318475C
:10010000DCE304000CE4040010F8013B0A4413F0A3
:10011000030408BF10F8014B1D1108BF10F8015B64
:10012000641E05D010F8016B641E01F8016BF9D153
:10013000002D15D010F8014B03F00C030C2BA1EB94
:1001400004040ABF10F8013BA4EB8314A4EB0324BE
:1001500005F1010314F8016B5B1E01F8016BF9D581
:10016000914238BF10F8013BD1D3704700230024DF
:1001700000250026103A28BF78C1FBD8520728BFB7
:1001800030C148BF0B6070476E293AF0F58770297F
:100190003AF0DC8366293CF06C8165293CF069818A
:1001A00067293CF066816129AFF3008003681B0A70
:1001B00028BF41F0800169293AF04C8364293AF064
:1001C000498375293AF046836F293BF0E780782907
:1001D0003AF0A883E9293BF07F80E4293BF07C805A
:1001E000F5293BF07980EF293BF0E480F8293AF0DB
:1001F000A7830368DB0928BF41F0800163293BF036
:10020000008073293BF00580E3293BF05883F329F4
:100210003BF05D83002070471FB53CF023F99DE85B
:1002200003003AF007FF3BF0D1FB0400002000215F
:100230003CF0FEF8401C6060002000213CF0E2F839
:10024000E0601FBD10B510BD3BF092FB1146FFF7FB
:10025000E3FF00F02CF93BF073FC03B4FFF7F2FF6F
:1002600003BC37F03AF80000052828BF70474FEA72
:1002700080007844D0F802F0D1020000970200001C
:100280003503000055030000750300004FF0010026
:1002900080F3148800DF0A4C4FF001052570774683
:1002A0003AF0E4F9BE46074E3668074C2660D6F8A9
:1002B00000D001BC05490860BDE8F00F704700BFE1
:1002C00063060010740600106C060010380600105B
:1002D0004FF0080282F3118800B53AF0C7F95DF8D3
:1002E00004EB2DE9F00F0E49086801B40D4A1268BD
:1002F000C2F800D00C4C0D4D2E7826700C4E36688E
:10030000084C2660D6F800D001BC086000280CBF5D
:100310000022082282F31188BDE8F00F704700BF69
:10032000380600106C060010580600105906001020
:10033000740600100649086800F101004FF0080239
:1003400082F31188002808BF70470860704700BF1B
:10035000380600100649086800281CBF01380860EC
:10036000002818BF70474FF0000282F311887047D1
:10037000380600104FF0000080F3148870474FF0EB
:10038000010080F31488704788476FF0FF0035F054
:10039000ACFD00001CB5544890F82B20012118201A
:1003A00033F0CAF908230222CDE900234FA30E211E
:1003B000282033F09AF81CBD08B500BF33F076FB57
:1003C00031F05EFC31F044FD31F0FFFA31F040FED7
:1003D00033F04EFF32F02DFA4849002033F0C2FED0
:1003E00031F0F8FE33F0C2FF33F060FB00200DF077
:1003F000C0FD00200DF0AEFBFFF7CCFF31F028FD73
:100400000CF0A6FB06233E4A00213E4835F0CCFC0A
:10041000022035F063FB3AF023F815F05BFD022073
:1004200035F05CFB15F07EFB022035F057FB1CF02D
:1004300004FF1CF0A9FF022035F050FB1BF069F807
:100440006A4600213048006835F09CFF0EF05FFBE3
:1004500016F0E4FC84212D483AF0ACFC022035F083
:100460003DFB09232A4A00212A4835F09DFC022041
:1004700035F034FB18F0F6FF022035F02FFB08238F
:10048000254A0021254835F08FFC022035F026FB57
:1004900018F077FAC82035F021FB07E0002003F0C0
:1004A000E8F902E0322035F019FBFBE7F6E700B58A
:1004B00085B036F0D6FA36F093FA34F0D0FA01234C
:1004C000002219021648CDE90323CDE901010723D3
:1004D000144A0021AFF21F10009335F0ADFC34F048
:1004E00081FB002005B000BDB00600107665727378
:1004F000696F6E25642E25303264000080A90300E8
:10050000A4320010712802007C000010180A0010AC
:10051000A4460010750E0300A442001041780200AA
:10052000A80A0010A42A0010F8B505460E46144685
:100530001F460A21002033F0B5F8022301220B21C7
:10054000002033F07DF8FF480095837800220B21CE
:10055000282032F01EFFFB488078012807D0F94898
:100560000096837800220D21282032F012FF2046C9
:100570003AF00EFBC8B1022301220B21702033F0A8
:100580005FF8F0480094837800220B21982032F025
:1005900000FFEC488078012807D0EA48009783786C
:1005A00000220D21982032F0F4FEF8BD10B5012292
:1005B0000A21002032F022FE03220B21002032F01B
:1005C0001DFE10BD30B58BB0202103A83AF0F2FB20
:1005D000DD4831F01EFE022035F080FADB4800785D
:1005E000F0B3D94831F015FE022035F077FA022336
:1005F00004220121002033F023F8D548D0F8AC10B4
:1006000003A83AF0A1FA03AB02220121282032F01C
:100610006CFFCF48D0F8B41003A83AF095FA03ABBA
:1006200001220321282032F060FFC6488078C0EB09
:10063000C00202EB0010C64A02EB8000816D03A8E5
:100640003AF082FA03ABBF48009383780022052179
:10065000282032F09EFEBB4890F8BC00012800E044
:1006600074E019D1BB4880890A2190FBF1F201FBAB
:100670001204B848808990FBF1F523462A46B6A1BA
:1006800003A83AF063F803ABAE48009383780022E6
:100690000721282032F07DFE0A21002033F002F8E5
:1006A000AF48C088A849C98888420BD1AC48407976
:1006B000A5494979884205D1A948C078A249C97895
:1006C000884222D0A048C288A6A103A83AF03EF8EA
:1006D00003AB02220B21282032F007FF9A48C3788F
:1006E0004279A2A103A83AF031F803AB02220D210E
:1006F000282032F0FAFE9448C0889949C880924870
:10070000407948719048C078C870954880788E4983
:100710008978884205D1924840788B494978884247
:1007200013D089484378827893A103A83AF00EF851
:1007300003AB03220B21602032F0D7FE8248807881
:100740008749887080484078487078E07D48807894
:1007500000EB80008B4A02EBC000816903A83AF0ED
:10076000F3F903AB774800938378002202214820F5
:1007700032F00FFE734890F8BC00012819D175487B
:1007800080890A2190FBF1F201FB120471488089F3
:1007900090FBF1F523462A466FA103A839F0D6FF56
:1007A00003AB68480093837800220521AA2032F029
:1007B000F0FD6B48C0886449C98888420BD16848FD
:1007C000407961494979884205D16548C0785E49D8
:1007D000C978884215D05C48C3784279C1888DE8D1
:1007E0000E0069A302220621502032F07EFE5648F8
:1007F000C0885B49C8805448407948715248C078E5
:10080000C8705748807850498978884205D1544843
:1008100040784D494978884211D04B4843788278D6
:10082000CDE9002354A3042208213C2032F05DFED0
:10083000454880784A4988704348407848700BB0F2
:1008400030BD30B589B0202101A83AF0B3FA3E4856
:1008500031F0DFFC022035F041F9022303220121AF
:10086000002032F0EDFE37488078C0EBC00202EB8A
:100870000010374A02EB8000C16C01A83AF064F91D
:1008800001AB30480093837800220121282032F008
:1008900080FD2C488078C0EBC00202EB00102C4A8F
:1008A00052F8201001A83AF04FF901AB2548009307
:1008B000837800220321282032F06BFD214890F834
:1008C000BC00012819D1234880890A2190FBF1F24C
:1008D00001FB12041F48808990FBF1F523462A464C
:1008E0001DA101A839F032FF01AB164800938378AF
:1008F00000220521282032F04CFD0A21002032F090
:10090000D1FE1748C0881049C98888420BD11448C5
:1009100040790D494979884205D11148C0780A4982
:10092000C97888424ED00848C2880EA101A839F083
:100930000DFF01AB02220B21282032F0D6FD024828
:10094000C37829E0B0060010000000101C00001061
:10095000CC0100100450001025642E256420920064
:100960000800001025303464000000002530326497
:100970002D25303264000000253032643A253032B3
:100980006400000004010010253034642D2530324D
:10099000642D2530326400004279AFF2300101A8A5
:1009A00039F0D4FE01AB02220D21282032F09DFD4A
:1009B000FF48C088FF49C880FD4840794871FC481D
:1009C000C078C870FB488078F9498978884205D199
:1009D000F8484078F6494978884214D0F44843787A
:1009E0008278AFF26C0101A839F0B0FE01AB0322AE
:1009F0000B21602032F079FDED488078ED49887058
:100A0000EB484078487009B030BD10B50246012966
:100A100004D0E94B93F89930012B2CD11378412B5A
:100A20000BD15378303B03EB8303642404EB430482
:100A30009378303B234498B228E01378422B0BD1B3
:100A40005378303B03EB8303C82404EB43049378CF
:100A5000303B234498B219E01378303B642463435D
:100A60005478303C04EB840403EB44049378303B2B
:100A7000234498B20AE01378303B03EB83036424E9
:100A800004EB43045378303B234498B210BD30B597
:100A900002460B78303B4FF47A7463434C78303C19
:100AA00004EBC40505EB041403EB84041378303B1A
:100AB00003EB830304EB43045378303B234498B2A5
:100AC00030BD0EB531F0A0FEB948C3784279C18877
:100AD0008DE80E00AFF2501302221146502032F082
:100AE00004FDB34843788278CDE90023AFF2781350
:100AF000042211463C2032F0F8FC0EBD10B5002057
:100B0000AE490870AE490870AE4800210180AE4879
:100B1000018081700020AD498870AD48006834F0D4
:100B20009DFD10BDAB480068AB4909680844AB495E
:100B300009680844AA490968084470472DE9F04F3C
:100B400093B006460F4620210BA83AF033F9202136
:100B500003A83AF02FF94FF00008C1460024002501
:100B6000387802281DD13078432802D030784528C3
:100B700017D10020914908709348002101808170AD
:100B8000FFF7D0FF18B103209649087006E0FFF781
:100B9000B5FFFFF70BFD00209249087013B0BDE8C8
:100BA000F08F387802286FD1317884480278007845
:100BB000401C824B1870844881547F48807800EB39
:100BC0008000894A52F830100BA839F0BDFF7A48EE
:100BD00090F83100012813D17B4800782E2803D1EA
:100BE00041207949087006E077480078442802D10E
:100BF00042207549087074490BA83AF02EF803E0BA
:100C000071490BA83AF029F87748816A03A839F0AE
:100C10009BFF6D4903A83AF020F8AFF2B423AFF27E
:100C2000B82203A90BA8FFF77FFC634890F83100B6
:100C3000012804D0604890F89900012877D15F48D6
:100C4000007803281FDB5C4890F83100E8B95E4863
:100C500000782E2813D05C48007844280FD05A48DA
:100C600040782E280BD058484078442807D0564862
:100C700080782E2803D054488078442805D14FF03E
:100C800005084FF00109A1E1DEE04F4840782E2829
:100C90000BD04D484078442807D04B4880782E2808
:100CA00003D049488078442804D14FF005084FF01C
:100CB00001098BE1404890F831104348FFF7A5FE49
:100CC0000446642094FBF0F000F0FF0A642094FBDB
:100CD000F0F100FB114000F0FF0B514658461AF0AE
:100CE00010FD00F0FF08344890F82F00022827D1AB
:100CF000642094FBF0F000F0FF0A642094FBF0F114
:100D000000FB114000F0FF0B52465946012017F03E
:100D100087FC0020294908702B4800210180817040
:100D2000FFF700FF20B103202E49087007E00AE01A
:100D3000FFF7E4FEFFF73AFC00202A4908702DE790
:100D40004FF0010942E11D480078022813DB1E48DC
:100D500000782E280BD01C480078442807D01A4869
:100D600040782E2803D018484078442804D14FF00A
:100D700005084FF0010929E10F4890F83110124899
:100D8000FFF743FE0446642094FBF0F000F0FF0AF6
:100D9000642094FBF0F100FB114000F0FF0B514682
:100DA00058461AF0AEFC00F0FF0803481EE00000B1
:100DB0000000001008000010B0060010190000101C
:100DC0001A00001017000010140000103409001061
:100DD00094000010200000102400001028000010D3
:100DE0002C0000101B0000100401001090F82F00D0
:100DF000022826D1642094FBF0F000F0FF0A642062
:100E000094FBF0F100FB114000F0FF0B52465946F5
:100E1000012017F005FC0020FC490870FC48002167
:100E200001808170FFF77EFE18B10320F949087038
:100E300006E0FFF763FEFFF7B9FB0020F5490870F5
:100E4000ACE64FF00109C1E0387801280AD13278C8
:100E5000012108461AF07DFB044624B94FF0020830
:100E60004FF00109B2E0E9480078002804DD4FF0B6
:100E700005084FF00109A9E0E74890F83100012882
:100E800023D14122E14801780078401CDF4B1870E3
:100E9000DF4842540A2094FBF0F03030C2B21846CA
:100EA00001780078401C1870D94842540A2094FBFD
:100EB000F0F100FB11403030C2B2184601780078E2
:100EC000401C1870D24842541AE00A2094FBF0F0FB
:100ED0003030C1B2CD4802780078401CCB4B18703E
:100EE000CB4881540A2094FBF0F100FB11403030D4
:100EF000C2B2184601780078401C1870C4484254A9
:100F0000C548807800EB8000C44A52F830100BA826
:100F100039F01AFEBE490BA839F09FFEBF48816A1E
:100F200003A839F011FEBA4903A839F096FEAFF2D2
:100F3000C853AFF2CC5203A90BA8FFF7F5FAB64895
:100F400090F83110B248FFF760FD0446642094FB2E
:100F5000F0F000F0FF0A642094FBF0F100FB114078
:100F600000F0FF0B514658461AF0CBFB00F0FF088B
:100F7000A94890F82F00022826D1642094FBF0F0B5
:100F800000F0FF0A642094FBF0F100FB114000F038
:100F9000FF0B52465946012017F042FB00209B49A7
:100FA00008709B48002101808170FFF7BBFD18B1DC
:100FB00003209849087006E0FFF7A0FDFFF7F6FA56
:100FC000002094490870E9E54FF00109B9F1000FDC
:100FD0007ED0B8F1060F33D2DFE808F09463033314
:100FE000046200BF8C48807800EB80008B4A02EBE3
:100FF000C00041690BA839F0A7FD8848C16B03A860
:1010000039F0A2FDAFF2A063AFF2A46203A90BA86E
:10101000FFF78AFA4FF4C87034F060FDFFF782FDE5
:1010200038B17B4800210180817003207949087024
:1010300006E0FFF763FDFFF7B9FA00207549087075
:1010400049E17548807800EB8000744A02EBC000EB
:1010500001690BA839F078FD7048816B03A839F05D
:1010600073FDAFF2FC63AFF2007203A90BA8FFF7A8
:101070005BFA4FF4C87034F031FDFFF753FD38B11F
:10108000634800210180817003206249087006E0F6
:10109000FFF734FDFFF78AFA00205E4908701AE175
:1010A00000BF5D48807800EB80005C4A02EBC00026
:1010B00041680BA839F048FD5848C16A03A839F0C7
:1010C00043FDAFF25C73AFF2607203A90BA800E0BE
:1010D00005E1FFF729FA4FF4C87034F0FFFCFFF781
:1010E00021FD38B14A48002101808170032049491F
:1010F000087006E0FFF702FDFFF758FA00204549A7
:101100000870E8E0642094FBF0F000F0FF0A64202F
:1011100094FBF0F100FB114000F0FF0B524601215F
:1011200058461AF0F6FA3E490860084605683A48FB
:1011300090F82700A8B3012834D0022830D16420C9
:10114000B5FBF0F100FB115AB5FBF0FB324880789B
:1011500000EB8000314901EBC000C1682E48CDE9A9
:1011600001BA0091807800EB80002C4901EBC000AF
:10117000274B2CA1C2690BA839F0E8FA6420B5FB13
:10118000F0F100FB115AB5FBF0FB2448416BCDE9AF
:1011900001BA00911E4B23A1426C03A839F0D6FA84
:1011A00079E051E00A20B5FBF0F5B5FBF0F100FB6A
:1011B000115AB5FBF0FB1848807800EB8000174906
:1011C00001EBC000C1681448CDE901BA00918078F4
:1011D00000EB8000114901EBC0000D4B16A1C26964
:1011E0000BA839F0B3FA0A20B5FBF0F100FB115A55
:1011F000B5FBF0FB0948416BCDE901BA0091044B06
:101200000DA1426C03A839F0A1FA44E019000010C6
:10121000140000101B000010B006001004010010A4
:101220003400001025732025732C2573253032647B
:101230002E2530326400000025732025732C257381
:1012400025642E25640000006420B5FBF0FAF74801
:10125000807800EB8000F64901EBC000C268F348DB
:10126000CDE9002A807800EB800001EBC000F14B53
:10127000F1A1C2690BA839F069FA6420B5FBF0FA54
:10128000EB48426BCDE9002AEA4BEBA1426C03A884
:1012900039F05CFA00BF00BFAFF63413AFF6381276
:1012A00003A90BA8FFF740F9C82034F017FCFFF79B
:1012B00039FC28B1E34804800520E349087009E0BF
:1012C000C82034F00BFCFFF719FCFFF76FF9002082
:1012D000DD49087000BF00BF0020DC49087000BF76
:1012E0005CE42DE9F04F93B0064620210BA839F0BD
:1012F00061FD202103A839F05DFD0027B846B946FD
:1013000000240025307843281BD10020CF490870E5
:10131000CF490870C748002101808170CD48018005
:10132000FFF700FC18B10320C749087006E0FFF77B
:10133000E5FBFFF73BF90020C349087013B0BDE897
:10134000F08FC3480078F0BB3078452829D0327838
:10135000BE4801780078401CBC4B1870BD48425410
:10136000B248807800EB8000BB4A02EB0010816C31
:101370000BA839F0E9FBB7490BA839F06EFCB64869
:10138000D0F8981003A839F0DFFBB24903A839F070
:1013900064FCAFF62C23AFF6302203A90BA8FFF7AD
:1013A000C3F8AA480078022857DBAA4800783028FA
:1013B00039DBA8480078392835DCA6484078302841
:1013C00031DBA44800E099E0407839282BDC01208B
:1013D0009F49087000209D490870964800210180AF
:1013E00081709C490BA839F0AFFB9048807800EBE6
:1013F0008000994A02EB0010C16C0BA839F02DFC5B
:10140000944903A839F0A0FB9348D0F89C1003A896
:1014100039F023FCAFF6B023AFF6B42203A90BA832
:10142000FFF782F8C1E100208849087088490870F8
:10143000804800210180817086480180FFF772FB9F
:1014400018B103208049087006E0FFF757FBFFF74B
:10145000ADF800207C49087070E73078452832D11B
:101460007C48007830282FDB7A48007839282BDC3C
:101470007848007877494870302008700120744916
:1014800008700020714908706A480021018081704D
:101490006648807800EB80006F4901EB00106D4AD0
:1014A0006EA1C36C0BA839F051F96B48694A6BA166
:1014B000D0F89C3003A839F049F969A368A203A9C0
:1014C0000BA8FFF731F870E100206049087060490F
:1014D000087058480021018081705E480180FFF744
:1014E00021FB18B103205849087006E0FFF706FBFE
:1014F000FFF75CF80020544908701FE75448007853
:1015000001287ED13078452833D031784F48027891
:101510000078401C4D4B1870464881544D48407827
:1015200030384C490978303901EB810100EB41003A
:1015300000F0FF093F4B3D480093807800EB8000AE
:10154000454901EB00104A4646A1C36C0BA839F08F
:10155000FDF8384B404800934A4642A1D0F89C30F1
:1015600003A839F0F3F83EA33DA203A90BA8FEF7A8
:10157000DBFF36480078022857DB2E4800783028F9
:1015800078DB2C480078392874DC2A4840783028E9
:1015900070DB2848407839286CDC2E492548FFF755
:1015A00076FA0446642094FBF0F000F0FF0A642011
:1015B00094FBF0F100FB114000F0FF0B5146584640
:1015C0001AF09FF8C7B2194890F82F0002284ED1A0
:1015D000642094FBF0F000F0FF0A642094FBF0F12B
:1015E00000FB114000F0FF0B52465946012017F056
:1015F00017F8002015490870154908700D4800219A
:1016000000E0AAE00180817012480180FFF78AFAA9
:1016100018B103200C49087006E0FFF76FFAFEF7D7
:10162000C5FF00200849087088E63DE0B0060010BC
:10163000040100101400001025732025732C25735D
:1016400025640000300000101B000010190000107D
:101650001A0000101700001098030010257325735E
:1016600000000000256425732573000002E04FF0A0
:1016700001089AE00020FF490870FF490870FF4800
:10168000002101808170FE480180FFF74BFA18B1FC
:101690000320FC49087006E0FFF730FAFEF786FFEA
:1016A0000020F849087049E6307845287DD1F34894
:1016B0000078302852DBF148007839284EDCEF48BA
:1016C0000078EE49487030200870ED49EB48FFF78C
:1016D000DEF90446642094FBF0F000F0FF0A642079
:1016E00094FBF0F100FB114000F0FF0B514658460F
:1016F0001AF007F8C7B2E44890F82F0002282AD160
:10170000642094FBF0F000F0FF0A642094FBF0F1F9
:1017100000FB114000F0FF0B52465946012016F025
:101720007FFF0020D3490870D3490870D3480021B7
:1017300001808170D2480180FFF7F4F918B10320CD
:10174000D049087006E0FFF7D9F9FEF72FFF002017
:10175000CC490870F2E54FF0010826E00020C549A9
:101760000870C648002101808170C748807800EB6E
:101770008000C64901EB0010C14AAFF22011C36CD2
:101780000BA838F0E3FFC148BD4AAFF23011D0F8E2
:101790009C3003A838F0DAFFAFF23C13AFF24012EE
:1017A00003A90BA8FEF7C0FEC8E5B8F1000F73D07F
:1017B000062F3AD2DFE807F0A872033A047100BF9F
:1017C000B148807800EB8000B14A02EBC00041696B
:1017D0000BA839F0B9F9AE48C16B03A839F0B4F9D8
:1017E000AFF28413AFF2881203A90BA8FEF79CFE98
:1017F0004FF4C87034F072F9FFF794F970B100201B
:101800009C4908709C4908709D48002101809B48B4
:101810000180817003209B49087006E0FFF76EF994
:10182000FEF7C4FE00209749087052E19648807880
:1018300000EB8000964A02EBC00001690BA839F06A
:1018400083F99348816B03A839F07EF9AFF2F01366
:10185000AFF2F41203A90BA8FEF766FE4FF4C870AE
:1018600034F03CF9FFF75EF970B10020814908704F
:101870008149087082480021018080480180817080
:1018800003208049087006E0FFF738F9FEF78EFE66
:1018900000207C4908701CE121E100BF7A48807873
:1018A00000EB80007A4A02EBC00041680BA839F0D7
:1018B0004BF97748C16A03A839F046F9AFF26023C3
:1018C000AFF2642203A90BA8FEF72EFE4FF4C870F6
:1018D00034F004F9FFF726F970B10020654908706B
:1018E0006549087066480021018064480180817064
:1018F00003206449087006E0FFF700F9FEF756FE82
:10190000002060490870E4E0642094FBF0F000F0EF
:10191000FF0A642094FBF0F100FB114000F0FF0B84
:1019200052460121584619F0F4FE5A49086008460B
:101930000568554890F82700B8B3012836D002282A
:1019400032D16420B5FBF0F100FB115AB5FBF0FB7E
:101950004D48807800EB80004D4901EBC000C16824
:101960004948CDE901BA0091807800EB80004849F0
:1019700001EBC000414BAFF25471C2690BA838F0C3
:10198000E5FE6420B5FBF0F100FB115AB5FBF0FB5E
:101990003F48416BCDE901BA0091384BAFF27C7101
:1019A000426C03A838F0D2FE5FE035E00A20B5FBB8
:1019B000F0F5B5FBF0F100FB115AB5FBF0FB324836
:1019C000807800EB8000324901EBC000C1682E48EE
:1019D000CDE901BA0091807800EB80002C4901EB41
:1019E000C000264BAFF2B071C2690BA838F0AEFE52
:1019F0000A20B5FBF0F100FB115AB5FBF0FB2448BF
:101A0000416BCDE901BA00911C4BAFF2D471426C2D
:101A100003A838F09BFE28E06420B5FBF0FA1A48D2
:101A2000807800EB80001A4901EBC000C2681648BC
:101A3000CDE9002A807800EB800001EBC0000F4B5D
:101A4000AFF20C41C2690BA838F080FE6420B5FBF0
:101A5000F0FA0F48426BCDE9002A084BAFF228415B
:101A6000426C03A838F072FE00BF00BFAFF2104313
:101A700012E00000190000101A00001014000010FD
:101A8000170000101B000010B00600109803001093
:101A90000401001034000010AFF23C4203A90BA86F
:101AA000FEF742FDC82034F019F8FFF73BF828B1E3
:101AB000FF4804800520FF49087009E0C82034F081
:101AC0000DF8FFF71BF8FEF771FD0020F9490870CB
:101AD00000BF00BF0020F8490870F849087000BF37
:101AE0002CE42DE9F041A4B006460D4620211CA8A7
:101AF00039F060F9202114A839F05CF920210CA8F4
:101B000039F058F9202104A839F054F9022033F0B3
:101B1000E5FFFFF707F80446EEBBE94880780128A7
:101B200014D0E848036DE648807800EB8000E54972
:101B300001EB0010E4A10268E1488DE80E00837813
:101B4000002202214C2031F024FC0CE0DD48AFF2F1
:101B5000E842036DDA48CDE90023837800220221B0
:101B6000602031F016FC04221146002031F046FBC3
:101B7000D348807828B90223002205212C2031F097
:101B80005FFDCF4890F8270048B3012814D0022801
:101B900031D1642000E05CE0B4FBF0F100FB1147C0
:101BA000B4FBF0F8AFF67C13042211464C20CDE9CB
:101BB000008731F09AFC1EE00A20B4FBF0F4B4FB7D
:101BC000F0F100FB1147B4FBF0F8AFF68C130422E0
:101BD00011464C20CDE9008731F087FC0BE06420F2
:101BE000B4FBF0F7AFF2A853042211464C20009743
:101BF00031F07BFC00BF00BF012D11D1B0488078CF
:101C000000EB8000AF4A02EB0010816C1CA838F09A
:101C10009BFFAC48D0F8981014A838F095FF0FE05F
:101C2000A748807800EB8000A64A02EB001001690B
:101C30001CA838F089FFA348016E14A838F084FF6F
:101C4000AFF2E453AFF2E85214A91CA8FEF76CFC03
:101C5000ACE09B488078012814D09A48436D98489E
:101C6000807800EB8000974901EB001096A1426854
:101C700093488DE80E008378002202214C2031F039
:101C800088FB12E08E48807800EB80008D4901EBE4
:101C90000010AFF22C6243688948CDE900238378B5
:101CA00000220221602031F074FB04221146002042
:101CB00031F0A4FA8248807828B902230022052155
:101CC0002C2031F0BDFC7E4890F8270038B3012865
:101CD00012D002282FD16420B4FBF0F100FB114791
:101CE000B4FBF0F8AFF6BC23042211464C20CDE93A
:101CF000008731F0FAFB1EE00A20B4FBF0F4B4FBDD
:101D0000F0F100FB1147B4FBF0F8AFF6CC2304224E
:101D100011464C20CDE9008731F0E7FB0BE0642051
:101D2000B4FBF0F7AFF2E863042211464C200097B1
:101D300031F0DBFB00BF00BF012D11D1604880787E
:101D400000EB80005F4A02EB0010816C1CA838F0A9
:101D5000FBFE5C48D0F8981014A838F0F5FE1FE0A0
:101D60005748807800EB8000564A02EB001041692A
:101D70001CA838F0E9FE5348416E14A838F0E4FE80
:101D80004F48807800EB80004E4A02EB00108169DA
:101D90000CA838F0D9FE4B48816E04A838F0D4FE68
:101DA00004AB0CAA14A91CA8FEF7BEFB24B0BDE826
:101DB000F08100B591B0202109A838F0FBFF202167
:101DC00001A838F0F7FF3E48807800EB80003D4ADC
:101DD00002EB0010816809A838F0B6FE3948816D21
:101DE00001A838F0B1FEAFF28873AFF28C7201A98E
:101DF00009A8FEF799FB11B000BD70B598B0044674
:101E0000202110A838F0D6FF202108A838F0D2FFF2
:101E10002021684638F0CEFF2948807800EB80000A
:101E2000284A02EB0010C168684638F08DFE25484C
:101E3000C16D08A838F088FE214890F8270018B333
:101E4000012810D0022829D16420B4FBF0F100FB56
:101E50001145B4FBF0F62B463246AFF6304110A8E0
:101E600038F074FC1AE00A20B4FBF0F4B4FBF0F193
:101E700000FB1145B4FBF0F62B463246AFF640416D
:101E800010A838F063FC09E06420B4FBF0F52A46A2
:101E9000AFF6540110A838F059FC00BF00BF10A9DC
:101EA000684638F0DAFEAFF64803AFF64C020FE0B2
:101EB000300000101B000010190000101A00001064
:101EC000B00600109803001025732F257300000042
:101ED00008A96846FEF728FB4FF4C87033F0FEFDF2
:101EE00018B070BD00B591B0202109A838F062FF8C
:101EF000202101A838F05EFFFE48807800EB8000CA
:101F0000FD4A02EB0010816B09A838F01DFEFA486B
:101F1000D0F8881001A838F017FEAFF6BC03AFF672
:101F2000C00201A909A8FEF7FFFA4FF4C87033F008
:101F3000D5FD11B000BD00B591B0202109A838F041
:101F400039FF202101A838F035FFEA48807800EBFE
:101F50008000E94A02EB0010C16B09A838F0F4FDDB
:101F6000E548D0F88C1001A838F0EEFDAFF610135C
:101F7000AFF6141201A909A8FEF7D6FA142033F01F
:101F8000ADFD11B000BD00B591B0202109A838F019
:101F900011FF202101A838F00DFFD648807800EB12
:101FA0008000D54A02EB0010016C09A838F0CCFD86
:101FB000D148D0F8901001A838F0C6FDAFF66013F4
:101FC000AFF6641201A909A8FEF7AEFA4FF4C87083
:101FD00033F084FD11B000BD10B590B0202108A8E9
:101FE00038F0E8FE2021684638F0E4FEC348008857
:101FF000642190FBF1F201FB1204BE48807800EBF3
:102000008000BD4901EB00102246BDA1C36A08A8AB
:1020100038F09CFBB9480088642190FBF1F201FB89
:102020001204B5482246B6A1C36F684638F08EFB4D
:10203000AFF6D413AFF6D812694608A8FEF774FAC3
:1020400010B010BD00B591B0202109A838F0B2FE43
:10205000202101A838F0AEFEA648807800EB800071
:10206000A54901EB0010AFF60021C26A09A838F0BB
:102070006DFBA148AFF61021C26F01A838F066FBD6
:10208000AFF62423AFF6282201A909A8FEF74CFADF
:1020900011B000BD00B591B0202109A838F08AFE2A
:1020A000202101A838F086FE9248807800EB80005D
:1020B000914A02EB0010016B09A838F045FD8E48EB
:1020C000D0F8801001A838F03FFDAFF66C23AFF6D2
:1020D000702201A909A8FEF727FA642033F0FEFC5C
:1020E00011B000BD00B591B0202109A838F062FE02
:1020F000202101A838F05EFE7E48807800EB800049
:102100007D4A02EB0010416B09A838F01DFD7A48AA
:10211000D0F8841001A838F017FDAFF6BC23AFF655
:10212000C02201A909A8FEF7FFF94FF4C87033F0E7
:10213000D5FC11B000BD00B591B0202109A838F040
:1021400039FE202101A838F035FE6A48807800EB7E
:1021500080006D4A52F8201009A838F0F5FC6A4852
:10216000416901A838F0F0FCAFF60C33AFF610323D
:1021700001A909A8FEF7D8F911B000BD00B591B0CA
:10218000202109A838F016FE202101A838F012FEFF
:102190005848807800EB80005B4A02EB8000816841
:1021A00009A838F0D1FC5848C16901A838F0CCFC26
:1021B000AFF65433AFF6583201A909A8FEF7B4F9C7
:1021C000642033F08BFC11B000BD70B592B00446B2
:1021D00020210AA838F0EEFD202102A838F0EAFDFF
:1021E000444890F8270088B3012817D002283FD12F
:1021F0006420B4FBF0F100FB1145B4FBF0F63D4860
:102200000095807800EB80003F4901EB8000334669
:102210003EA142680AA838F099FA29E00A20B4FBE6
:10222000F0F4B4FBF0F100FB1145B4FBF0F63148DB
:102230000095807800EB8000334901EB8000334645
:1022400035A142680AA838F081FA11E0FFE764205E
:10225000B4FBF0F52748807800EB80002A4901EBB9
:1022600080002B462EA142680AA838F06FFA00BF02
:1022700000BF2548816902A838F066FC29A329A27D
:1022800002A90AA8FEF750F94FF47A7033F026FC41
:1022900012B070BD00B589B0202101A838F08AFDC8
:1022A00030F0B2FA022033F019FC1748016A01A895
:1022B00038F04AFC01AB03220521302031F015F93A
:1022C0000C488078012813D00A48807800EB800001
:1022D0000D4A02EB8000016901A838F035FC01AB22
:1022E00004480093837800220B213C2031F051F800
:1022F00009B000BDB00600109803001030000010B7
:102300002564202573000000280500102573253062
:1023100032642E2530326400257325642E25640036
:10232000257325640000000070B506460C4615466E
:10233000F84890F82300C8B1012E02D0022E14D123
:1023400009E0F5A014F026FE13F0E6FC0121084692
:1023500014F0A0F809E0F4A014F01CFE13F0C9FC7E
:102360000021012014F096F800BF00BFE94890F862
:102370002100C8B1012C02D0022C14D109E0EEA03A
:1023800014F008FE13F02BFE0121022014F082F855
:1023900009E0EDA014F0FEFD13F006FE002102207E
:1023A00014F078F800BF00BFDA4890F8260058B162
:1023B000012D02D0022D06D102E01BF037F802E019
:1023C0001BF023F800BF00BF142033F087FB70BD63
:1023D00010B5FEF7A7FBF0B9DF480078D8B9DF48A1
:1023E000407A012817D1FEF79DFB0446DB48437A6B
:1023F000D94802782146DAA014F0CCFD13F044FC51
:10240000142033F06BFB002211460120FFF78CFFF4
:10241000142033F063FB10BD0020D649C8804871FA
:10242000C870887048700120D34988707047FEB525
:102430000026B84890F82200022873D1CF48406F98
:10244000CE49B1F8C0104843CC498A6FB1F8C210E8
:1024500002FB0101C948C26FB0F8C40002FB0011C1
:10246000C648D0F88020B0F8C60002FB0011C3486F
:10247000D0F88420B0F8C80002FB0011BF48D0F8A3
:102480008820B0F8CA0002FB0011BC48D0F88C20AC
:10249000B0F8CC0002FB0011B848D0F89020B0F89A
:1024A000CE0002FB0011B548D0F89420B0F8D0005F
:1024B00002FB0011B148D0F89820B0F8D20002FB1E
:1024C0000011AE48D0F89C20B0F8D40002FB0011F7
:1024D000AA48D0F8A020B0F8D60002FB0011A74807
:1024E000D0F8A420B0F8D80002FB0011A348D0F81F
:1024F000A820B0F8DA0002FB0011A048D0F8AC2008
:10250000B0F8DC0002FB00119C48D0F8B020B0F815
:10251000DE0002FB00157F4890F82500022813D149
:1025200000240FE06EE0964850F8240040B1944833
:1025300050F824101C3030F8140001FB00552646DA
:10254000601CC4B2072CEEDB7248806BA84202D23A
:102550007048806B00E028468A4908606D48D0F8D2
:10256000C030084602688648CDE90052029350F810
:102570002600834F1C3737F8167000FB07F37F489F
:10258000806F7E4FB7F8C27000FB07F27B48406F48
:102590007A4FB7F8C07000FB07F17BA014F0FAFC8B
:1025A0005C48D0F8C00077490968884215D90120F5
:1025B00013F07AFF012824D1564890F8230000B385
:1025C000002211460220FFF7AFFE01206249087089
:1025D00030F01AF9FFF720FF3AE1012013F064FF11
:1025E00078B94C4890F8230058B1002211460120D8
:1025F000FFF79AFE00205849087030F005F9FFF700
:102600000BFF25E1434890F82200012827D14148DB
:1026100090F8250002280AD1002406E0584850F816
:10262000240000B12646601CC4B2072CF6DB13F070
:10263000EAFE10B93748806B00E00020514908607D
:102640004F4850F826004E4A1C3232F8162000FB44
:1026500002F14C4802685BA014F09CFCF8E02D48A5
:1026600090F82200E8BB2B4890F8250002284ED1B4
:1026700000240EE0424850F8240040B1404850F891
:1026800024101C3030F8140001FB00552646601C55
:10269000C4B2072CEEDB1F48806BA84202D21D4853
:1026A000806B00E02846374908601A48D0F8C030EF
:1026B0003348009350F82600314A1C3232F8162075
:1026C00000FB02F12F482A46036845A014F062FC83
:1026D0001048D0F8C0002B490968884219D9012058
:1026E00000E015E013F0E0FE012811D1094890F850
:1026F000230068B1002211460220FFF715FE0120D9
:102700001549087030F080F8FFF786FEA0E096E0EB
:102710009EE07FE0B00600100D0A20417070656EEB
:1027200042696C6C000000000D0A20417070646901
:102730007342696C6C0000000D0A20417070656E78
:10274000436F696E000000000D0A204170706469DB
:1027500073436F696E0000001C0000103C480010BD
:102760000D0A2045727242696C6C3D25642C25640B
:102770002C2564000800001034090010FC0700102C
:10278000080900103C0000100D0A41707043686198
:102790006E676520353D256C642C313D256C642CBD
:1027A0007265633D256C642C6D6F6E65793D256C9B
:1027B000642C6D61783D256C642C62696C6C3D25E0
:1027C0006C6400000D0A4170704368616E6765209B
:1027D0007265633D256C642C6D61783D256C6400E9
:1027E0000D0A4170704368616E6765207265633DD4
:1027F000256C642C636F696E4D6F6E65793D256C39
:10280000642C6D61783D256C642C62696C6C3D258F
:102810006C640000012013F047FEC8B9FF4890F82F
:102820002300A8B1002211460120FFF77DFD002002
:10283000FB4908702FF0E8FFFFF7EEFD08E0F748CE
:10284000806BF8490860F8480168F8A014F0A2FB12
:10285000FFF7BEFD0020FEBD014669B9EF4A92F8C0
:102860002E200F32FF2A01DDFF2203E0EB4A92F80F
:102870002E200F32D0B20CE001290AD1E74A92F89B
:102880002E20FF2A01DDFF2202E0E44A92F82E20EA
:10289000D0B2704770B5E14890F8210018B313F03A
:1028A0003AFB0446FCB1E64800682044E44908606D
:1028B000FEF738F9054602462146E2A014F08CFBEB
:1028C000022200210846FFF72FFD0121204613F0C8
:1028D00071FFFEF727F905460246A1B2012015F067
:1028E0004BFB012070BDCD4890F8230090B313F04E
:1028F0007BF9044674B32146D8A014F04BFBDB48A7
:1029000000680119C8480368C6480268D8A014F0D6
:1029100041FBD64800682044C249096888421AD25F
:1029200013F07AF990B1D14800682044CF4908608B
:102930000221204613F03EFFFEF7F4F8054602465A
:10294000A1B2022015F018FB002452E013F09CF90C
:102950000020C7E761E0B14890F8240001283DD18C
:10296000FFF727FAFEF7DEF828B34FF4AF7033F025
:10297000B5F80020FFF770FFC64988710320C649EB
:1029800008700020C5490870C5490870C548002175
:102990000180C54801808170C448006832F05EFE45
:1029A0000020C3490860C34801780020FFF799F868
:1029B00013F06AF90EE0FEF7A1F80020B64908709E
:1029C00013F062F94FF4C87033F088F8FDF7EEFDAC
:1029D000FFF722FD0020B849086083E7B64804608D
:1029E000FEF7A0F805460246A1B2032015F0C4FA8E
:1029F00000249E48006820448A490968884205D31B
:102A0000022200211046FFF78FFC04E00222002181
:102A10000846FFF789FC012064E7804890F826000B
:102A200038B3A6481AF0C1FC0446A448007801282F
:102A300011D184B12146A2A014F012FBA648046073
:102A40000321204613F0B6FE002202210846FFF7BC
:102A50006BFC012046E799480078022809D19FA025
:102A600014F0FEFA0020954908709B490860022086
:102A700038E7002036E72DE9F0410026674890F856
:102A80002500022858D1FEF74DF80646F6B3314628
:102A900099A014F07FFA00244BE09C4850F82400E1
:102AA000A8B39A4850F82400B6FBF0F0C5B2294606
:102AB00097A014F06FFA95481C3030F81400A84223
:102AC00001DB284603E091481C3030F81400C5B201
:102AD000294694A014F05EFA8C4951F8241001FBA9
:102AE00005F013F06AF90746012F1FD1544800681A
:102AF0005E4909680144854850F8240000FB15161A
:102B000000205A4908604E48066001E014E00EE0DB
:102B1000314689A014F03EFA7C4850F824006843FE
:102B200082B233460021012014F000FC03E0601C57
:102B3000C4B2072CB1DB00BFBDE8F08138B55E48F8
:102B40000068D8B113F0A0F870B1FDF7EBFF5A4957
:102B50000968451A2A465848006881B2042015F0D1
:102B60000BFA00205449086033F066F80546014628
:102B700075A014F01FFB642032F0B0FFFFF77BFF5D
:102B8000FDF7D0FF70B133F057F80546014672A04B
:102B900014F010FBFDF7C6FF054669461AF09DF9D3
:102BA000044600E001241CBB71A014F003FBFDF7F8
:102BB000B9FF0099451A284614F066F8FDF7B2FFF0
:102BC0000099401A85B20B462A460021084614F0A7
:102BD000ADFBC82032F082FF00221146022015F022
:102BE000CBF900201649086020490860009838BDDC
:102BF00033F022F80546014662A014F0DBFAFDF737
:102C000091FF0546002114F03FF8FDF78BFF85B2D8
:102C100000232A4619461846BEE00000B006001000
:102C20001C0000103C000010400000100D0A417014
:102C3000704368616E6765206D61783D256C640046
:102C4000200000100D0A417070636F696E312E63B1
:102C50006F696E3D256C642C256C64000D0A322E64
:102C600041707062696C6C3D256C6400240000103A
:102C70000D0A41707062696C6C3D256C642C4D6F5F
:102C80006E65793D256C642C70726963653D256CB9
:102C9000640D0A00340900101B0000101900001018
:102CA0001A0000101700001014000010940000100B
:102CB00034000010390000102800001044000010FB
:102CC0000D0A20417070526561646572312E726523
:102CD00061643D256C6400002C0000100D0A204149
:102CE0007070526561646572204F55545055542080
:102CF00063617264000000000D0A204170704E652F
:102D000065647061793D256C64000000080900105D
:102D10000D0A204170704E6565646E756D3D2564C9
:102D2000000000000D0A204170705265616C6E75E4
:102D30006D3D2564000000000D0A20417070706137
:102D4000793D256C640000000D0A20417070486FC9
:102D50006C645265742564000D0A204170704265F0
:102D600067696E206368616E676525640000000016
:102D70000D0A204170706368616E67652046616965
:102D80006C0000000D0A204170706368616E676519
:102D9000207375636325640014F0C8FA0020FF49AE
:102DA0000860FF49086000BF21E72DE9F0410026D7
:102DB0000024FC480468FDF7B5FEA04206D2FA489C
:102DC000006818B90720F9490870C1E0F6480068A2
:102DD00078B1FFF7B0F8A0B21AF0E6FB0646012E74
:102DE00003D10A20F1490870B2E00920EF490870C8
:102DF000AEE0EA480068EA4909680844A04262D2A5
:102E0000E6480068201AE6490968451AE84800685B
:102E1000451BE84890F82200022801D1012615E060
:102E2000E44890F82200012801D101260EE0E14893
:102E300090F8220050B9DF4890F82500022801D10F
:102E4000012603E00DB9012600E00026012E36D14F
:102E500012F0E2FEF0B1D2480068D5490968084492
:102E6000CF4908600221D248006813F0A3FCFDF7A7
:102E700059FECF490968471A3A46CD48006881B2E1
:102E8000022015F079F80020C94908600A20C749D6
:102E900008705DE012F0F8FEFDF744FEC4490968D1
:102EA000471A3A46C248006881B2042015F064F817
:102EB0000020BF4908600820BC49087048E008208D
:102EC000BA49087044E0B5480068B5490968084443
:102ED000051BB84890F82200022801D1012615E010
:102EE000B44890F82200012801D101260EE0B14833
:102EF00090F8220050B9AF4890F82500022801D17F
:102F0000012603E00DB9012600E00026012E1CD1A8
:102F1000A84890F82400012813D1A548006880B182
:102F200012F0B2FEFDF7FEFDA1490968471A3A46C4
:102F30009F48006881B2042015F01EF800209C49CB
:102F400008600A209949087002E008209749087033
:102F5000BDE8F08110B5044604B39348006860B141
:102F600095A014F07DF801201AF086FB8E480068C9
:102F7000001B8D490860002410E0894800688442E5
:102F800006D387480068241A00208549086005E0B8
:102F900083480068001B82490860002424B17F48F0
:102FA0000068001B7D49086010BD824890F82E0023
:102FB000FF2806DA8548807908B90120704700208B
:102FC000FCE70020FAE70EB58048837979488078DD
:102FD00000EB80007E4901EB00107EA1426C754839
:102FE0008DE80E00837800221146962030F0D1F94A
:102FF0000EBD70B504460125F4B368480068684901
:1030000009680844A0422AD212F006FEB0B1644812
:10301000006867490968084461490860FDF782FD56
:1030200063490968461A32466148006881B2022045
:1030300014F0A2FF00205E49086010E012F024FEA8
:10304000FDF770FD5A490968461A3246584800682B
:1030500081B2042014F090FF002055490860FDF76C
:1030600061FD0646024621465CA014F0A3F8FDF778
:1030700059FDA04203D300E002E0012500E0002555
:10308000FDF750FD90B30320484908700020FFF77A
:10309000E3FB4E49887145480078032842D14048F7
:1030A000006855490968884204D200220121084677
:1030B000FFF73AF90020514908705149087051480A
:1030C000002101805048018081705048006832F032
:1030D000C5FA2FF099FB4E4801780020FEF701FD5C
:1030E000FDF720FD064616F010F81BE0FFE7002272
:1030F00001210846FFF718F90020404908704049AF
:1031000008704048002101803F48018081703F489D
:10311000006832F0A3FA2FF077FBFFF7BBF80E2020
:1031200022490870284670BD70B5044600259CB33E
:103130001D480068A0B1FEF7FEFE00201AF034FA28
:103140000546012D28D133A013F08AFF01201AF083
:1031500093FA15480068001B1349086000248FE0AB
:103160000E4800680E4909680844A04277D212F060
:1031700053FD90B10A4800680D49096808440849A0
:103180000860FDF7CFFC0A490968461A324608482C
:10319000006881B2022047E072E04BE0200000109E
:1031A00024000010340000102C0000101B00001040
:1031B00028000010B00600100D0A2041707043482E
:1031C0007568756F53756363000000003409001063
:1031D0009803001025732530326400000D0A204149
:1031E00070702050726963653D256C642C6D6F6E44
:1031F00065793D256C6400003C000010190000104A
:103200001A000010170000101400001094000010A5
:10321000390000100D0A204170705043436F7374E1
:10322000537563630000000014F0A6FE0020FF4900
:10323000086010E012F028FDFDF774FCFB490968F6
:10324000461A3246F948006881B2042014F094FE10
:103250000020F64908604FF4487032F03FFCF44813
:103260000068844206D3F2480068241A0020F0491E
:10327000086005E0EE480068001BED490860002486
:1032800024B1EC480068001BEA490860FDF74AFCDD
:1032900090B30320E84908700020FFF7DDFAE74902
:1032A0008871E5480078032842D1E1480068E44984
:1032B0000968884204D2002201210846FFF734F849
:1032C0000020E0490870E0490870E04800210180D2
:1032D000DF4801808170DF48006832F0BFF92FF0CD
:1032E00093FADD4801780020FEF7FBFBFDF71AFC9E
:1032F000064615F00AFF1BE0FFE700220121084601
:10330000FFF712F80020CF490870CF490870CF4866
:1033100000210180CE4801808170CE48006832F0E3
:103320009DF92FF071FAFEF7B5FF0E20C249087023
:1033300070BD2DE9F04F87B004460E4615460027B4
:1033400000200690FEF77EFE002202210846FEF7CE
:10335000EBFF32F071FC80460146C0A013F02AFF5B
:10336000642094FBF0F000F0FF08642094FBF0F17F
:1033700000FB114000F0FF094246012148460BF0D6
:1033800035FF0746BA4890F82F00012804D0B84806
:1033900090F82F0003286FD1012F6FD1FDF7C2FBEA
:1033A00008B913F0F3F9012D01D0022D02D13046F6
:1033B000FFF7D0FD4120A6490870642094FBF0F18E
:1033C00000FB11400A2190FBF1F03030A049487019
:1033D000642094FBF0F100FB11400A2190FBF1F214
:1033E00001FB120030309A498870A2480660A2485A
:1033F0000378A04801689648CDE90153009183788D
:10340000427801789DA02EF0ABFC9B4801780078B3
:10341000401C994B18702B468D4A9648006813F053
:1034200008FA642094FBF0F000F0FF0A642094FB9B
:10343000F0F100FB114000F0FF0B5246022158460C
:1034400018F067F900F0FF08FDF76CFB05906420A9
:1034500094FBF0F100FB114000F0FF09059A2B46A8
:10346000CDE9012800964A460121002015F03AF9DD
:103470000B20714908704EE12AE0FFE7FEF732FEAB
:10348000642094FBF0F000F0FF0A642094FBF0F15C
:1034900000FB114000F0FF0B52460221584618F085
:1034A00038F900F0FF08FDF73DFB0590642094FB20
:1034B000F0F100FB114000F0FF09059A2B46CDE921
:1034C000012800964A460121992015F00BF922E1C6
:1034D000674890F82F0002287ED1012F52D1FEF7C5
:1034E000D9FD3046FFF720FE642094FBF0F100FB8D
:1034F00011400A2190FBF1F03030C0B28DF8180075
:103500000A2094FBF0F100FB11403030C0B28DF87E
:10351000190013F03BF9584801780078401C564BCD
:1035200018702B4606AA304613F083F9642094FBEA
:10353000F0F000F0FF0B642094FBF0F100FB114071
:10354000C0B25A460221049018F0E3F800F0FF08D8
:10355000FDF7E8FA0590642094FBF0F100FB1140C0
:1035600000F0FF09642094FBF0F000F0FF0A059AD8
:103570002B46CDE9012800964A465146002015F019
:10358000B1F82FE0FEF7AEFD642094FBF0F000F000
:10359000FF0A642094FBF0F100FB114000F0FF0BE8
:1035A00052460221584618F0B4F800F0FF08FDF723
:1035B000B9FA0590642094FBF0F100FB114000F093
:1035C000FF09642094FBF0F0C0B20490059A2B46EA
:1035D000CDE90128009600E083E04A46014602203A
:1035E00015F080F8FDF79EFAF8B103201249087033
:1035F0000020FFF731F9114988710F48007803283E
:103600006FD10B4800680E490968884204D2002235
:1036100001210846FEF788FE00200A4908700A4981
:1036200008700A480021018048E05BE02800001093
:1036300024000010200000101B00001034090010AE
:103640003C000010190000101A00001017000010B4
:103650001400001094000010390000100D0A2025FD
:103660006441707055626F7856656E646F75740052
:10367000B006001034000010380000104C6F675482
:1036800072616E73616374696F6E415049206C6F33
:103690006769633D256325632563207072696365EF
:1036A0003D256420747970653D25782C7472616EB7
:1036B0004E756D733D25640D0A200000FA480180A7
:1036C0008170FA48006831F0C9FF2FF09DF8F84882
:1036D00001780020FEF705FAFDF724FA804615F080
:1036E00014FD18E0002201210846FEF71DFE00200F
:1036F000F0490870F0490870F04800210180EA485C
:1037000001808170E948006831F0A8FF2FF07CF853
:103710000E20EB49087007B0BDE8F08F2DE9F04F9F
:1037200085B004460F4615461E46E64890F82F0021
:1037300002282BD1642094FBF0F000F0FF0A6420F3
:1037400094FBF0F100FB114000F0FF0B5246022108
:10375000584617F0DEFF00F0FF08FDF7E3F904908C
:10376000642094FBF0F100FB114000F0FF0964209D
:1037700094FBF0F0C0B20390049A2B46CDE90128E7
:1037800000974A460146304614F0ACFF05B0BDE84C
:10379000F08F10B5FDF7C6F9D8B1FFF7CFF94FF4A8
:1037A000C87032F09BF90020C2490870C249087005
:1037B000C24800210180BC4801808170BB4800687C
:1037C00031F04CFF2FF020F8FEF764FD0E20BC49CD
:1037D0000870002202210846FEF7A6FDC82032F03C
:1037E0007DF91FF043FF4FF4C87032F077F90022E3
:1037F00001210846FEF798FD10BD70B5FDF792F95E
:10380000B0B1FEF798FC32F017FA05460146AEA0BB
:1038100013F0D0FCFFF792F904461CB12046FEF7E6
:10382000D4FC01E0FEF7AAFC0E20A54908701FE0B9
:10383000FEF781FCAFF6C82013F0BCFC002108465F
:1038400013F022FA00231A461946184613F06EFDAB
:10385000C82032F043F900221146022014F08CFBFC
:1038600000209C4908609C4908600E20944908701B
:1038700070BD88B0002007900024002506900590B8
:1038800096498870C8700871487130F07FF938B176
:10389000022211461046FEF747FD132088490870A2
:1038A00001200EF0F0FD8E490860864890F89800DF
:1038B000012802D115F00AFB02E0012015F0F2FA0E
:1038C000012030F0CFF92EF09FFFF0E37C48007824
:1038D00036F013FE7A48007814287DD2DFE800F035
:1038E0000AA2E2E1E0DFDEDDDCDBDAD9D8D7D6D52B
:1038F000D4D3D2D17B480068C82802D900207949A6
:1039000008607648807830B9052074498870FCF7E3
:1039100059FE14F002FB05A9002015F0BCFD07902C
:103920009DF81C0098B19DF81C003C2803D09DF820
:103930001C003E2805D100205E4908705E490870D1
:1039400005E005206549487101205D49087063481C
:10395000007920B9052061490871FEF768FDFEF77E
:1039600099FF0446012C1ED112F0ABFB2EF04CFF48
:103970004F4801782846FEF7B4F8FDF7D3F807461C
:10398000014659A013F006FB12F000FF2846FEF78F
:1039900063FF52498871FDF7C5F8074615F0B5FB7E
:1039A0000320474908704D48C078E8B905204B49C5
:1039B000C87012F0A9FB12F037FCA8B100204749EB
:1039C000887014F0F8FB642032F088F82EF01CFFA9
:1039D00002221146104600E076E2FEF7A5FCFEF753
:1039E0001BFD0F203649087030F0D0F838B10222A4
:1039F00011461046FEF798FC13203149087001204B
:103A000011F02EFEFDF78EF8074613F095FD30F00D
:103A100015F907461AF0BAF800201AF0CEF815F09A
:103A200095FD51E29DF81C0058B105202B494871C5
:103A3000FDF778F808B9FDF744F805A907A8FDF7E0
:103A40007DF805A9012015F026FD0790234840794F
:103A500028B94320079002200590FEF7DDFC1848A6
:103A60000078032805D1124801782846FEF739F876
:103A700006E01348007818B92EF0C6FEFEF7CCFC1D
:103A800022E2BAE3A0E38FE363E311E3DFE2CEE2F5
:103A900099E21AE227E109E1DFE0BAE0B8E0B4E038
:103AA000B2E055E02AE0000014000010940000107D
:103AB00039000010190000101A0000101700001043
:103AC0001B000010B00600100D0A204170705475E4
:103AD0006925640020000010240000103409001043
:103AE00040000010480000100D0A20417070326143
:103AF0006D6F756E743D256C640000009DF81C00B0
:103B000050B11420FF494871FDF70CF808B9FCF7D3
:103B1000D8FF07A8FDF7E5FB05A9012015F0BBFCC0
:103B20000790F848407918B9432007900220059083
:103B3000F5480078032805D1F44801782846FDF7B8
:103B4000D0FF04E0F048007808B92EF05DFE9DE358
:103B5000FEF7A0FE0446012C16D1EC480178284659
:103B6000FDF7BFFF2846FEF777FEE6498871FCF7B0
:103B7000D9FF074615F0C9FAFCF7D4FF07460146FE
:103B8000AFF29C0013F006FA05A9002015F083FCA3
:103B900007909DF81C0028B10520DA4948710120E2
:103BA000D949087012F064FA10B9FFF7FEF978B13C
:103BB000D748407808B1012D0AD1D648006838B9F5
:103BC000002202210846FEF7AFFB0D20CE49087007
:103BD000D14890F82E00FF2809DACD48407808B186
:103BE000012D04D1CB48006808B9FFF7ECF9022C8D
:103BF00002D10E20C4490870FCF794FF074613F069
:103C00009BFC15F0A3FC41E340E3FFF7CEF83DE356
:103C10003CE3C2480068FEF7F0F82846FEF71CFEB9
:103C2000B84988710320B84908700020BC49087061
:103C3000BC490870BC4800210180BC4801808170EB
:103C4000BB48006831F00AFD0020B4490860AF4865
:103C500001782846FDF745FF18E3FEF743F9FCF726
:103C600061FFF8B12846FEF7F7FDA64988710320E9
:103C7000A54908700020AA490870AA490870AA48F6
:103C800000210180A94801808170A948006831F0B5
:103C9000E5FC0020A14908609C4801782846FDF712
:103CA00020FF02E00E2098490870EFE2FEF76BF962
:103CB00003209549087000209949087099490870B7
:103CC00099480021018099480180817098480068D6
:103CD00031F0C4FC0020914908608C4801782846E6
:103CE000FDF7FFFED2E2002202210846FEF71CFB90
:103CF000FEF772F98F480088642190FBF1F0C7B29B
:103D00008C48008890FBF1F201FB120000F0FF08E4
:103D10003A46012140460BF069FA069006980128C0
:103D20005AD17E480068FFF715F97A48006860B1FB
:103D3000814801780078401C7F4B187002237B4A31
:103D40007648006812F075FD10E07B480178007835
:103D5000401C794B18700023744A7048006812F0B8
:103D600068FD6E48006880B219F0CBFC714800888D
:103D7000642190FBF1F000F0FF0A6E48008890FB90
:103D8000F1F201FB120000F0FF0B524602215846EF
:103D900017F0BFFCC7B2FCF7C5FE04906548008869
:103DA000642190FBF1F201FB120000F0FF08614872
:103DB000008890FBF1F000F0FF095848049A016870
:103DC00000238DE8860042464946184614F08AFCD6
:103DD0000B204D49087074E04E48006828B157A088
:103DE00013F03EF9022019F047FC4B4890F82F00E1
:103DF000012804D0484890F82F0003282CD14D48C2
:103E00000088642190FBF1F000F0FF0A4948008827
:103E100090FBF1F201FB1200C7B252460221384674
:103E200017F077FC00F0FF08FCF77CFE8346414862
:103E30000088642190FBF1F201FB120000F0FF0901
:103E40003648016800234A46CDE901B800910121B6
:103E5000992014F047FC31E036480088642190FB3B
:103E6000F1F000F0FF0A3348008890FBF1F201FB0B
:103E7000120000F0FF0B52460221584617F049FC91
:103E8000C7B2FCF74FFE04902A480088642190FBDB
:103E9000F1F201FB120000F0FF082648008890FBB9
:103EA000F1F000F0FF091D48049A016800238DE835
:103EB000860042464946022014F014FC0C201249A8
:103EC0000870002015490860E0E1FEF7E3F81048AB
:103ED0000078012867D1FCF725FEE8B303200A49E2
:103EE000087001252846FEF7B7FC06498871064888
:103EF0000078032866D11648006816490968884288
:103F000030D22AE0340900101B00001039000010E4
:103F1000780700102C000010B006001034000010CC
:103F2000190000101A0000101700001014000010F3
:103F30009400001030000010380000100D0A2041DD
:103F4000707043487568756F4661696C00000000C9
:103F5000240000103C00001025E00022012108464A
:103F6000FEF7E2F90020CC490870CC490870CC4833
:103F700000210180CB4801808170CB48006831F07E
:103F80006DFB2EF041FCC94801782846FDF7A9FDDC
:103F9000FCF7C8FD074615F0B8F805A9002015F094
:103FA0007AFA07900EE0FCF7BDFD40B1BF480178FA
:103FB0002846FDF796FD0D20BD49087002E00E2051
:103FC000BB49087062E1FEF78DF8FCF7ABFD68B302
:103FD0000320B749087001252846FEF73DFCB54986
:103FE0008871B3480078032820D1B3480068B349EA
:103FF0000968884204D2002201210846FEF794F99C
:104000000020A5490870A5490870A5480021018035
:10401000A44801808170A448006831F01FFB2EF095
:10402000F3FBA24801782846FDF75BFD2EE1FEF781
:1040300082F8FEF783FD06461EB13046FEF7C5F84E
:1040400001E0FEF79BF80E20994908701EE1FEF78B
:1040500021F9FCF753FD0025002099490870994982
:104060000880924908709349087101221146104650
:10407000FEF75AF9002094490870FEF7CDF90120A7
:104080000EF001FA9149086012F07DFE904890F818
:104090009800012802D114F019FF02E0012014F069
:1040A00001FF2EF0B1FB002081490870EEE0F1E045
:1040B0008048807820B91E207E498870FCF7C1FBBB
:1040C0007C48C07818BB05207A49C87012F01CF8EB
:1040D000012011F0C5FA12F0A7F898B9002075492F
:1040E00088702EF091FB012211461046FEF71CF954
:1040F000642031F0F3FC14F05EF8FEF78DF9002037
:104100006B490870FCF70EFD074613F015FA2FF007
:104110003DFD10B1132066490870FEF7BBFB044655
:10412000012C15D111F0CDFF2EF06EFB5F48017808
:104130002846FDF7D6FCFCF7F5FC07460146AFF232
:10414000586012F027FF12F021FB10205849087028
:104150009CE0FEF79FFB0446012C0CD153480178EC
:104160002846FDF7BEFCFCF7DDFC07460146AFF232
:10417000886012F00FFF11F07BFF50B155480068C6
:1041800038B9002202210846FEF7CEF8112048492E
:104190000870022C02D1122045490870FCF7C2FCBD
:1041A000074613F0C9F971E0FDF7C5FFFEF7C6FC3D
:1041B00006461EB13046FEF708F801E0FDF7DEFFC7
:1041C00012203B49087061E0FEF764F8FCF796FCAA
:1041D000002500203A4908703A4908802EF014FB67
:1041E000002201210846FEF79FF812F0CCFDFEF7F1
:1041F00013F90F202E49087048E0002014F052FEF9
:10420000334890F82F0010B1012012F05AF900BF86
:10421000FCF788FC074613F08FF9002008F0F5FA48
:104220002FF0B4FC0028F3D1224988702EF0ECFA6C
:10423000012211461046FEF777F800202249087047
:10424000FEF7EAF8224890F82F0058B100230093B7
:1042500001931A4619460520029313F0BDF8002079
:1042600012F02FF901200EF00EF9184908601848D5
:1042700090F89800012802D114F028FE02E00120F5
:1042800014F010FE00200A49087000BF00BF022091
:1042900031F024FCFFF71ABB190000101A000010BF
:1042A00017000010140000109400001039000010D6
:1042B0001B00001034090010240000103C00001006
:1042C00038000010300000101C00001040000010EA
:1042D000B00600102C000010F0B585B000260027B5
:1042E000FAA103C9CDE901012EF08EFAF9A02DF053
:1042F00037FDB8E00F23EF22002108462FF0E5F943
:104300000323EF22002108462FF0DFF9F7488078D9
:10431000F74951F82030F5480093837800220121B5
:1043200008202FF036F8F1488178F148143050F821
:104330002130EE48009383780022062130202FF0B0
:1043400028F80E23EE220D2101202EF097FAE748DF
:104350008178E7483C3050F82130E4480093837876
:1043600000220D211C202FF014F87BE000270024F0
:104370000AE0342101EB0411C8B20023DDA20921B7
:104380002EF0A6FA601CC4B2082CF2DB69E02FF014
:10439000C9FB0546F5B3432D02D1002005B0F0BDA1
:1043A00003A8855531013431C8B20023D2A20921B6
:1043B0002EF08EFA701CC6B2082E4FD100260127AF
:1043C000002408E003A8005D01A9095D884200D02F
:1043D0000027601CC4B2082CF4DB012F01D101209E
:1043E000DCE70E23EE220D2101202EF047FABF4814
:1043F0008178BF48283050F82130BC48009383783A
:1044000000220D2130202EF0C4FF4FF4C87031F08F
:1044100065FB00E022E00E23EE220D2101202EF0AC
:104420002DFAB2488178B2483C3050F82130AF487C
:104430000093837800220D2130202EF0AAFF002463
:104440000AE0342101EB0411C8B20023A9A209211A
:104450002EF03EFA601CC4B2082CF2DB052031F0CD
:104460003DFB94E782E745E738B52EF0CDF90F2301
:10447000EF22002108462FF028F90323EF22002124
:1044800008462FF022F94CE00E23EE2204210120F1
:104490002EF0F4F995488078984951F820309348E7
:1044A000009383780022012108202EF072FF8F48AC
:1044B00081789248143050F821308C4800938378EA
:1044C000002207213C202EF064FF884881788B4829
:1044D000283050F8213085480093837800220B2142
:1044E00028202EF056FF8148817884483C3050F8CF
:1044F00021307E480093837800220B218C202EF0FF
:1045000048FF0DE02FF00EFB0446432C01D10020A4
:1045100038BD452C01D10120FAE70A2031F0DEFA3E
:10452000F0E7B1E770B50026704890F82200022845
:1045300073D17348406F7249B1F8C0104843704955
:104540008A6FB1F8C21002FB01016D48C26FB0F86A
:10455000C40002FB00116A48D0F88020B0F8C60001
:1045600002FB00116648D0F88420B0F8C80002FBB6
:1045700000116348D0F88820B0F8CA0002FB00118F
:104580005F48D0F88C20B0F8CC0002FB00115C48EA
:10459000D0F89020B0F8CE0002FB00115848D0F8B7
:1045A0009420B0F8D00002FB00115548D0F89820B4
:1045B000B0F8D20002FB00115148D0F89C20B0F8AE
:1045C000D40002FB00114E48D0F8A020B0F8D6006D
:1045D00002FB00114A48D0F8A420B0F8D80002FB32
:1045E00000114748D0F8A820B0F8DA0002FB00110B
:1045F0004348D0F8AC20B0F8DC0002FB0011404882
:10460000D0F8B020B0F8DE0002FB0015374890F873
:104610002500022812D100240EE018E0394850F895
:10462000240038B1374850F824101C3030F81400FA
:1046300001FB0055601CC4B2072CEFDB2B48D0F8FF
:10464000C000A84201D901260FE000260DE027484E
:1046500090F82200012803D111F0D5FE064604E0AF
:10466000224890F8220000B90026304670BD70B58F
:10467000044600251D4890F82F00022817D1012C70
:104680000BD111F0CEFD054611F0CBFD06460246DA
:1046900029461DA012F08EFD09E0022C07D120480A
:1046A00090F8BC5090F8BC101EA012F083FD284674
:1046B00070BD0146012902D0022949D142E00B48D0
:1046C00080781F4A52F82000704700003833373195
:1046D00038353537456E74657253656C6643686569
:1046E000636B46756374696F6E0D0A00B006001047
:1046F00078C403005F0000002A000000C8C4030063
:10470000FC070010080900100D0A204170702050AD
:10471000434572726F725363616C653D256400009E
:10472000480900100D0A20417070205043457272F4
:104730006F724F66664C696E653D2564000000002F
:1047400014CE0300FF488278FF4850F822007047DB
:10475000FC488278FC48143050F82200F7E700B596
:104760008BB000200A90032009902EF04DF80F2303
:10477000EF22002108462EF0A8FF0323EF2200219C
:1047800008462EF0A2FFE5E30E23EE2204210120CD
:104790002EF074F8032009900A980A287ED2DFE8E8
:1047A00000F005D5FEFDFCFBFAF9F8F70123E5481A
:1047B0008178E64850F82120E5A1E2488DE80E0016
:1047C0008078034600220121079008202EF0E1FDA9
:1047D000DC4890F8230002287ED1DF488078A0B121
:1047E000D8488178D948143050F82130D548009302
:1047F000807807900998801CC0B20990069000222A
:1048000001460520079B2EF0C4FDD348C078A0B117
:10481000CC488178CD48283050F82130C9480093E1
:10482000807807900998801CC0B2099006900022F9
:1048300001460520079B2EF0ACFDC7480079A0B1CA
:10484000C0488178C1483C3050F82130BD480093C1
:10485000807807900998801CC0B2099006900022C9
:1048600001460520079B2EF094FDBB484079A0B17E
:10487000B4488178B548503050F82130B1480093A1
:10488000807807900998801CC0B209900690002299
:1048900001460520079B2EF07CFD00E0A4E2AE4817
:1048A0008079A0B1A7488178A848643050F82130B9
:1048B000A4480093807807900998801CC0B20990A2
:1048C0000690002201460520079B2EF062FDA248BB
:1048D000807808B9A04800E019E0C078B8B99E48CF
:1048E0000079A0B99C48407988B99B48807970B913
:1048F00094488178994850F8213092480093807804
:10490000034600220721079005202EF042FD8D4826
:1049100080788E49283951F82000069036F038F911
:10492000C000C0F1E700C0B2079086488178874890
:10493000283850F8213083480093807803460022BD
:104940000D21069007982EF024FD4DE202237D48AC
:1049500081787E4850F821207DA17A488DE80E00AC
:104960008078034600220121079008202EF011FDD7
:10497000744890F8230002287ED17748C079E8B1C6
:10498000704881787148783050F821306D4807E0E0
:10499000FEE3FEE3FEE3ABE3FAE226E26DE191E043
:1049A0000093807807900998801CC0B20990069007
:1049B000002201460520079B2EF0EBFC6648007A9A
:1049C000A0B16048817861488C3050F821305D4852
:1049D0000093807807900998801CC0B209900690D7
:1049E000002201460520079B2EF0D3FC5A48407A4E
:1049F000A0B1544881785548A03050F82130514832
:104A00000093807807900998801CC0B209900690A6
:104A1000002201460520079B2EF0BBFCFFF782FD1C
:104A2000A0B1484881784948B43050F82130454811
:104A30000093807807900998801CC0B20990069076
:104A4000002201460520079B2EF0A3FC4248C079B6
:104A500090B94148007A78B93F48407A60B9FFF789
:104A600061FD48B9374881783C4850F821303548D5
:104A700000938078034600E005E0002207210790BC
:104A800005202EF086FC2F4881783048143850F8E5
:104A90002100069036F07CF8C000C0F1E700C0B2FB
:104AA0000790284881782948143850F82130254843
:104AB00000938078034600220D21069007982EF07F
:104AC00068FC91E101231F4881782048C83050F8E4
:104AD00021201FA11B488DE80E008078034600228C
:104AE0000121079008202EF054FC164890F8210070
:104AF00002287ED11848807AA0B1124881781348E4
:104B0000DC3050F821300F480093807807900998E6
:104B1000801CC0B209900690002201460520079B28
:104B20002EF037FC0C48C07A18B306488178074845
:104B3000F03050F8213003480093807807900998AE
:104B4000801C0DE0B006001028CE0300E0C5030075
:104B500025732D25640000003C48001078C903002F
:104B6000C0B209900690002201460520079B2EF056
:104B700010FCF948007B98B1F8488178F84850F863
:104B80002130F6480093807807900998801CC0B2C5
:104B900009900690002201460520079B2EF0F9FBA4
:104BA000ED48407BA0B1ED488178ED48143050F8D5
:104BB0002130EA480093807807900998801CC0B2A1
:104BC00009900690002201460520079B2EF0E1FB8C
:104BD000E148807BB0B1E1488178E148283050F865
:104BE0002130DE480093807807900998801CC0B27D
:104BF00000E025E009900690002201460520079B71
:104C00002EF0C7FBD448807AD0B9D348C07AB8B95F
:104C1000D148007BA0B9D048407B88B9CE48807B82
:104C200070B9CE488178CF4850F82130CB480093F6
:104C30008078034600220721079005202EF0A9FB6B
:104C4000C6488178C84850F82100069035F0A0FF8A
:104C5000C000C0F1E700C0B20790C0488178C248E8
:104C600050F82130BD4800938078034600220D2182
:104C7000069007982EF08DFBB6E00223B7488178A6
:104C8000B7483C3850F82120AFF23C11B3488DE8CA
:104C90000E008078034600220121079008202EF0A4
:104CA00078FBAE4890F8210002287ED1AA48C07B4C
:104CB000A0B1AA488178AA483C3050F82130A748D2
:104CC0000093807807900998801CC0B209900690E4
:104CD000002201460520079B2EF05BFB9E48007CCE
:104CE000A0B19E4881789E48503050F821309B48B2
:104CF0000093807807900998801CC0B209900690B4
:104D0000002201460520079B2EF043FB9248407C81
:104D1000A0B1924881789248643050F821308F4891
:104D20000093807807900998801CC0B20990069083
:104D3000002201460520079B2EF02BFB8648807C35
:104D4000C8B18548C37C827C8448817884487830A7
:104D500050F8211085A08DE80F00804880780790DA
:104D60000998801CC0B209900690002201460520D7
:104D7000079B2EF00EFB7848C07BB0B97648007CCC
:104D800098B97548407C80B97348807C68B973488D
:104D90008178744850F82130704800938078034639
:104DA000002207210790052000E001E02EF0F1FA33
:104DB0006A4881786C4850F82100069035F0E8FE8A
:104DC000C000C0F1E700C0B207906448817866482F
:104DD00050F82130614800938078034600220D216D
:104DE000069007982EF0D5FA51E25C4881785C482D
:104DF0008C3050F8213059480093807803460022C7
:104E00000121079008202EF0C4FA544890F822009F
:104E100001287ED15048007DF8B14F48007D0690B2
:104E2000FFF747FC07905648C37D4C4881784C48B3
:104E3000A03050F8211053A0079A8DE80F00474882
:104E4000807806900998801CC0B2099005900022D5
:104E500001460520069B2EF09CFA3F48407DF8B1A4
:104E60003D48407D0690FFF724FC07904448037EB0
:104E70003A4881783A48B43050F8211041A0079A56
:104E80008DE80F003548807806900998801CC0B2E4
:104E900009900590002201460520069B2EF079FA24
:104EA0002D48807DF8B12C48807D0690FFF701FCED
:104EB00007903348437E294881782948C83050F804
:104EC000211030A0079A8DE80F00244880780690C2
:104ED0000998801CC0B20990059000220146052067
:104EE000069B2EF056FA1C48007D90B91A48407D6A
:104EF00078B91948807D60B918488178194850F808
:104F0000213016480093807803460022072107903D
:104F100000E002E005202EF03CFA104881781248AB
:104F200050F82100069035F033FEC000C0F1E700D4
:104F3000C0B20790094881780B4850F821300748E3
:104F400000938078034600220D21069007982EF0EA
:104F500020FAB1E3D5E300003C480010B006001091
:104F6000E4C6030078C90300CCC5030025735B25A4
:104F7000233032785D5B25233032785D00000000FD
:104F800010480010257325735B25233032785D00AF
:104F90000123FF488178FF4850F82120AFF25041AB
:104FA000FB488DE80E00807803460022012107901F
:104FB00008202EF0EEF9F64890F82D0001282FD1A8
:104FC000F548807EA0B1F2488178F248143050F85C
:104FD0002130EF480093807807900998801CC0B278
:104FE00009900690002201460520079B2EF0D1F97A
:104FF000E948C07EA0B1E6488178E648283050F8FC
:105000002130E3480093807807900998801CC0B253
:1050100009900690002201460520079B2EF0B9F961
:10502000DD48007FA0B1DA488178DA483C3050F89A
:105030002130D7480093807807900998801CC0B22F
:1050400009900690002201460520079B2EF0A1F949
:10505000D148407FA0B1CE488178CE48503050F83A
:105060002130CB480093807807900998801CC0B20B
:1050700009900690002201460520079B2EF089F931
:10508000C548807EB8B9C448C07EA0B9C248007F78
:1050900088B9C148407F70B9BD488178BF4850F891
:1050A0002130BB48009380780346002207210790F7
:1050B00005202EF06EF9B6488178B94850F82100E5
:1050C000069035F065FDC000C0F1E700C0B2079062
:1050D000AF488178B24850F82130AD4800938078CD
:1050E000034600220D21069007982EF052F9E3E2C4
:1050F0000223A7488178A74850F82120AFF2B05189
:10510000A3488DE80E008078034600220121079015
:1051100008202EF03EF9A048807FA0B19C488178FD
:105120009C48643050F8213099480093807807906B
:105130000998801CC0B20990069000220146052003
:10514000079B2EF026F99448C07FA0B19048817843
:105150009048783050F821308D480093807807903F
:105160000998801CC0B209900690002201460520D3
:10517000079B2EF00EF9884890F82000C0B18448B3
:10518000817884488C3050F821308148009302E0C7
:1051900011E258E17CE0807807900998801CC0B249
:1051A00009900690002201460520079B2EF0F1F899
:1051B000794890F82100A0B1754881787548A030F1
:1051C00050F8213072480093807807900998801C2D
:1051D000C0B209900690002201460520079B2EF0E0
:1051E000D8F86D4890F82200A0B1694881786948E4
:1051F000B43050F8213066480093807807900998C1
:10520000801CC0B209900690002201460520079B31
:105210002EF0BFF86048807FE8B95F48C07FD0B902
:105220005D4890F82000B0B95B4890F8210090B933
:10523000594890F8220070B955488178574850F87D
:1052400021305348009380780346002207210790BD
:1052500005202EF09EF84E488178514850F82100E4
:10526000069035F095FCC000C0F1E700C0B2079091
:10527000474881784A4850F8213045480093807863
:10528000034600220D21069007982EF082F813E2C3
:1052900003233F4881783F4850F82120AFF25071F6
:1052A0003B488DE80E0080780346002201210790DC
:1052B00008202EF06EF8384890F82300A0B134484A
:1052C00081783448C83050F82130314800938078D4
:1052D00007900998801CC0B20990069000220146F0
:1052E0000520079B2EF055F82B4890F82400A0B11C
:1052F000274881782748DC3050F821302448009333
:10530000807807900998801CC0B20990069000220E
:1053100001460520079B2EF03CF81F4890F8250019
:10532000A0B11B4881781D48C83850F82130184872
:105330000093807807900998801CC0B2099006906D
:10534000002201460520079B2EF023F8124890F812
:105350002600A0B10E4881781048B43850F82130AA
:105360000B480093807807900998801CC0B2099080
:105370000690002201460520079B2EF00AF80648F9
:1053800090F82700F8B1024881780448A03809E075
:10539000B0060010C0C703003C48001078C90300E5
:1053A000CCC5030050F82130FF4800938078079067
:1053B0000998801CC0B20990069000220146052081
:1053C000079B2DF0E6FFF94890F82300F0B9F74865
:1053D00090F82400D0B9F54890F82500B0B9F3480A
:1053E00090F8260090B9F14890F8270070B9EE487F
:1053F0008178EF4850F82130EB48009380780346DD
:1054000000220721079005202DF0C3FFE648817890
:10541000E84850F82100069035F0BAFBC000C0F112
:10542000E700C0B20790E0488178E24850F82130A8
:10543000DD4800938078034600220D2106900798EE
:105440002DF0A7FF38E10423D7488178DA4850F8D7
:105450002120AFF60411D4488DE80E008078034671
:1054600000220121079008202DF093FFCF4890F8EB
:105470002800A0B1CC488178CD488C3850F8213034
:10548000C9480093807807900998801CC0B20990A1
:105490000690002201460520079B2DF07AFFC348A5
:1054A00090F82900A0B1C0488178C148783850F8F8
:1054B0002130BD480093807807900998801CC0B2C5
:1054C00009900690002201460520079B2DF061FF00
:1054D000B64890F82A00A0B1B3488178B44864383F
:1054E00050F82130B0480093807807900998801CCC
:1054F000C0B209900690002201460520079B2DF0BE
:1055000048FFAA4890F82B00A0B1A7488178A84886
:10551000503850F82130A4480093807807900998BB
:10552000801CC0B209900690002201460520079B0E
:105530002DF02FFF9D4890F82800F8B99B4890F86F
:105540002900D8B9994890F82A00B8B9974890F836
:105550002B0098B994488178954850F821309248AA
:105560000093807807900998801CC0B2099006903B
:10557000002201460520079B2DF00BFF8A48817809
:105580008C4850F82100069035F002FBC000C0F1B5
:10559000E700C0B2079084488178864850F82130EF
:1055A000814800938078034600220D2106900798D9
:1055B0002DF0EFFE80E07C4881787D483C3850F843
:1055C00021307EA27848CDE900238078034600226E
:1055D0000121079008202DF0DCFE0120FFF747F89D
:1055E000B8B177A011F0E6FD6F488178704828388F
:1055F00050F821306C480093807807900998801CFF
:10560000C0B209900690002201460520079B2DF0AC
:10561000C0FE0220FFF72BF8B8B16EA011F0CAFD52
:10562000614881786248143850F821305E48009310
:10563000807807900998801CC0B2099006900022DB
:1056400001460520079B2DF0A4FE0120FFF70FF86F
:10565000A8B90220FFF70BF888B964A011F0AAFDE1
:1056600051488178524850F821304F480093807853
:10567000034600220721079005202DF08AFE4A48A4
:1056800081784C4850F82100069035F081FAC0002E
:10569000C0F1E700C0B2079043488178454850F810
:1056A0002130414800938078034600220D21069066
:1056B00007982DF06EFE00BF00BF20E02EF032FAFA
:1056C00008900898432801D10BB000BD08983E28E7
:1056D00007D10A98092803DA0A98401CC0B20A9038
:1056E0000EE008983C2807D10A98002803DD0A98A4
:1056F000401EC0B20A9003E00A2030F0EFF9DDE767
:1057000000BFFFF741B800B58BB000200A9003201E
:1057100009902DF079F80F23EF22002108462DF093
:10572000D4FF0323EF22002108462DF0CEFF7FE3B4
:105730000E23EE22042101202DF0A0F80320099071
:105740000A9830B1012867D0022866D003287ED19C
:1057500086E2154880782A4951F820301248009393
:105760008078034600220121079008202DF011FEC9
:10577000244800686421B0FBF1F201FB120007909D
:1057800020480068B0FBF1F0069002460648817898
:105790001B483C3050F821101BA0079B8DE80F00E0
:1057A00001488078059039E0B00600103C480010B0
:1057B00078C90300CCC50300C0C7030025730000EF
:1057C0000D0A204170702050434572726F7253630E
:1057D000616C65000D0A2041707020504345727263
:1057E0006F724F66664C696E650000000D0A2041BD
:1057F00070702050434572726F724F4B0000000072
:1058000068CA03004809001025732530326C642EE5
:105810002530326C64000000A0E060E10998801C33
:10582000C0B209900490002201460520059B2DF08E
:10583000B0FDFF4840686421B0FBF1F201FB1200AB
:105840000790FB484068B0FBF1F0069000E006E2EC
:105850000246F8488178F84850F82110AFF2580015
:10586000079B8DE80F00F348807805900998801C0D
:10587000C0B209900490002201460520059B2DF03E
:1058800088FDEB4880686421B0FBF1F201FB120057
:105890000790E7488068B0FBF1F006900246E548C3
:1058A0008178E548143050F82110AFF2A400079B2E
:1058B0008DE80F00DF48807805900998801CC0B201
:1058C00009900490002201460520059B2DF061FD02
:1058D000D74800696421B0FBF1F201FB1200079088
:1058E000D3480069B0FBF1F006900246D1488178B8
:1058F000D148283050F82110AFF2F400079B8DE812
:105900000F00CC48807805900998801CC0B209909F
:105910000490002201460520059B2DF03AFDC54864
:105920008178C5483C3850F82100069035F030F9B0
:10593000C000C0F1E700C0B20790BE488178BE4801
:105940003C3850F82130BB48009380780346002251
:105950000D21069007982DF01CFD37E2B5488078A0
:10596000B549503951F82030B24800938078034649
:1059700000220121079008202DF00BFDAC48806A21
:105980006421B0FBF1F201FB12000790A848806A85
:10599000B0FBF1F006900246A6488178A648503048
:1059A00050F82110AFF2A010079B8DE80F00A1481E
:1059B000807805900998801CC0B20990049000225C
:1059C00001460520059B2DF0E4FC9948C36A9948DF
:1059D00081789948643050F8212098A195488DE845
:1059E0000E00807807900998801CC0B2099006903C
:1059F000002201460520079B2DF0CBFC8C48006B54
:105A00006421B0FBF1F201FB120007908848006BA3
:105A1000B0FBF1F0069002468648817886487830DF
:105A200050F82110AFF22020079B8DE80F0081482D
:105A3000807805900998801CC0B2099004900022DB
:105A400001460520059B2DF0A4FC7A4890F826001D
:105A500030B37748806C6421B0FBF1F201FB120097
:105A600007907348806CB0FBF1F0069002467148D5
:105A700081787148C83050F82110AFF27420079B2C
:105A80008DE80F006B48807805900998801CC0B2A3
:105A900009900490002201460520059B2DF079FC19
:105AA000644881786448283850F82100069035F021
:105AB0006FF8C000C0F1E700C0B207905D48817880
:105AC0005D48283850F821305A48009380780346C2
:105AD00000220D21069007982DF05BFC76E15548D9
