:020000040000FA
:1000000000800010CD00000051B9030051B9030079
:1000100051B9030051B9030051B9030051B90300AC
:1000200051B9030051B9030051B903008502000022
:1000300051B9030000000000ED020000B19603007A
:1000400051B90300B38E0300898E0300778E03003D
:10005000658E0300F5690300C56B0300A566030008
:10006000C56D030051B90300C970030051B9030005
:1000700051B9030051B9030051B9030051B903004C
:1000800051B9030051B9030051B9030051B903003C
:100090005788030051B9030051B9030051B9030057
:1000A00051B9030051B9030051B9030051B903001C
:1000B00051B9030051B9030051B9030051B903000C
:1000C00051B9030051B9030051B9030000F002F81F
:1000D00000F0C8F80AA090E8000C82448344AAF11A
:1000E0000107DA4501D100F0BDF8AFF2090EBAE818
:1000F0000F0013F0010F18BFFB1A43F0010318475C
:1001000074340500B434050010F8013B0A4413F0C0
:10011000030408BF10F8014B1D1108BF10F8015B64
:10012000641E05D010F8016B641E01F8016BF9D153
:10013000002D15D010F8014B03F00C030C2BA1EB94
:1001400004040ABF10F8013BA4EB8314A4EB0324BE
:1001500005F1010314F8016B5B1E01F8016BF9D581
:10016000914238BF10F8013BD1D37047103A24BFF9
:1001700078C878C1FAD8520724BF30C830C144BF0C
:1001800004680C607047000000230024002500264E
:10019000103A28BF78C1FBD8520728BF30C148BFEA
:1001A0000B6070476E293FF0638770293FF04A83E8
:1001B000662901F0DAA0652901F0D7A0672901F0CE
:1001C000D4A06129AFF3008003681B0A28BF41F067
:1001D000800169293FF0BA8264293FF0B78275290E
:1001E0003FF0B4826F2900F055A078293FF01683C4
:1001F000E9293FF0ED87E4293FF0EA87F5293FF050
:10020000E787EF2900F052A0F8293FF01583036833
:10021000DB0928BF41F0800163293FF06E87732915
:100220003FF07387E32900F0C6A2F32900F0CBA2C8
:10023000002070471FB541F091F89DE803003FF0A2
:1002400075FE40F03FFB04000020002141F06CF8F7
:10025000401C60600020002141F050F8E0601FBDAC
:1002600010B510BD40F000FB1146FFF7E3FF00F0B2
:100270002CF940F0E1FB03B4FFF7F2FF03BC3BF0C5
:10028000A8FF0000052828BF70474FEA8000784487
:10029000D0F802F0ED020000B302000051030000AC
:1002A00071030000910300004FF0010080F31488F7
:1002B00000DF0A4C4FF00105257077463FF052F9F8
:1002C000BE46074E3668074C2660D6F800D001BC03
:1002D00005490860BDE8F00F704700BF87060010B1
:1002E00098060010900600105C0600104FF00802FF
:1002F00082F3118800B53FF035F95DF804EB2DE984
:10030000F00F0E49086801B40D4A1268C2F800D017
:100310000C4C0D4D2E7826700C4E3668084C26601D
:10032000D6F800D001BC086000280CBF00220822CB
:1003300082F31188BDE8F00F704700BF5C06001023
:10034000900600107C0600107D0600109806001034
:100350000649086800F101004FF0080282F3118895
:10036000002808BF70470860704700BF5C06001097
:100370000649086800281CBF01380860002818BF1B
:1003800070474FF0000282F3118870475C0600103E
:100390004FF0000080F3148870474FF0010080F3A5
:1003A0001488704788476FF0FF003AF01AFD00008C
:1003B0001CB5544890F82B200121182038F0C4F8BF
:1003C0000F230222CDE900234FA30E21282037F06E
:1003D00094FF1CBD08B500BF38F077FA36F058FB23
:1003E00036F03EFC36F0F9F936F03AFD38F0BCFE56
:1003F00037F027F94849002038F030FE36F0F2FD9A
:1004000038F030FF38F061FA00200EF0B1FA002029
:100410000EF08AF8FFF7CCFF36F022FC0DF052F810
:1004200006233E4A00213E483AF03AFC02203AF0C8
:10043000D1FA3EF091FF16F04BFC02203AF0CAFAD6
:1004400016F066FA02203AF0C5FA1EF09EFB1EF086
:1004500043FC02203AF0BEFA1CF055FA6A4600212D
:10046000304800683AF00AFF0FF059F817F016FC10
:1004700084212D483FF01AFC02203AF0ABFA092300
:100480002A4A00212A483AF00BFC02203AF0A2FA4C
:100490001AF0E2F902203AF09DFA0823254A0021D9
:1004A00025483AF0FDFB02203AF094FA19F05FFC7F
:1004B000C8203AF08FFA07E0002003F09EFC02E02B
:1004C00032203AF087FAFBE7F6E700B585B03BF05B
:1004D00044FA3BF001FA39F03EFA012300221902F6
:1004E0001648CDE90323CDE901010723144A002171
:1004F000AFF21F1000933AF01BFC39F0EFFA002026
:1005000005B000BDD406001076657273696F6E2564
:10051000642E25303264000080A90300C832001028
:10052000A94602007C0000103C0A0010C8460010DA
:10053000855C0300C8420010399B0200CC0A001001
:10054000C82A0010F8B505460E4614461F460A2173
:10055000002037F0AFFF022301220B21002037F0EB
:1005600077FFFF480095837800220B21282037F081
:1005700018FEFB488078012807D0F9480096837858
:1005800000220D21282037F00CFE20463FF07CFA97
:10059000C8B1022301220B21702037F059FFF04827
:1005A0000094837800220B21982037F0FAFDEC4864
:1005B0008078012807D0EA480097837800220D212F
:1005C000982037F0EEFDF8BD10B501220A21002079
:1005D00037F01CFD03220B21002037F017FD10BD62
:1005E00030B58BB0202103A83FF060FBDD4836F02A
:1005F00018FD02203AF0EEF9DB480078F0B3D94854
:1006000036F00FFD02203AF0E5F902230422012121
:10061000002037F01DFFD548D0F8AC1003A83FF0FC
:100620000FFA03AB02220121282037F066FECF48E3
:10063000D0F8B41003A83FF003FA03AB0122032162
:10064000282037F05AFEC6488078C0EBC00202EB83
:100650000010C64A02EB8000816D03A83FF0F0F95C
:1006600003ABBF480093837800220521282037F090
:1006700098FDBB4890F8BC00012800E074E019D157
:10068000BB4880890A2190FBF1F201FB1204B848B3
:10069000808990FBF1F523462A46B6A103A83EF0D7
:1006A000D1FF03ABAE4800938378002207212820B6
:1006B00037F077FD0A21002037F0FCFEAF48C088F4
:1006C000A849C98888420BD1AC484079A5494979E5
:1006D000884205D1A948C078A249C978884222D069
:1006E000A048C288A6A103A83EF0ACFF03AB02223B
:1006F0000B21282037F001FE9A48C3784279A2A145
:1007000003A83EF09FFF03AB02220D21282037F003
:10071000F4FD9448C0889949C8809248407948714E
:100720009048C078C870954880788E49897888420A
:1007300005D1924840788B494978884213D089483E
:100740004378827893A103A83EF07CFF03AB032299
:100750000B21602037F0D1FD82488078874988706E
:1007600080484078487078E07D48807800EB8000D1
:100770008B4A02EBC000816903A83FF061F903AB2B
:1007800077480093837800220221482037F009FD42
:10079000734890F8BC00012819D1754880890A2156
:1007A00090FBF1F201FB12047148808990FBF1F596
:1007B00023462A466FA103A83EF044FF03AB6848D6
:1007C0000093837800220521AA2037F0EAFC6B48C9
:1007D000C0886449C98888420BD16848407961491A
:1007E0004979884205D16548C0785E49C978884210
:1007F00015D05C48C3784279C1888DE80E0069A3A2
:1008000002220621502037F078FD5648C0885B4907
:10081000C8805448407948715248C078C8705748D9
:10082000807850498978884205D1544840784D49AC
:100830004978884211D04B4843788278CDE900232B
:1008400054A3042208213C2037F057FD4548807806
:100850004A4988704348407848700BB030BD30B585
:1008600089B0202101A83FF021FA3E4836F0D9FB9B
:1008700002203AF0AFF8022303220121002037F0D2
:10088000E7FD37488078C0EBC00202EB0010374A22
:1008900002EB8000C16C01A83FF0D2F801AB3048F8
:1008A0000093837800220121282037F07AFC2C481D
:1008B0008078C0EBC00202EB00102C4A52F82010E6
:1008C00001A83FF0BDF801AB2548009383780022D2
:1008D0000321282037F065FC214890F8BC0001284E
:1008E00019D1234880890A2190FBF1F201FB1204FF
:1008F0001F48808990FBF1F523462A461DA101A8D7
:100900003EF0A0FE01AB164800938378002205213B
:10091000282037F046FC0A21002037F0CBFD17488D
:10092000C0881049C98888420BD1144840790D49C4
:100930004979884205D11148C0780A49C978884266
:100940004ED00848C2880EA101A83EF07BFE01AB44
:1009500002220B21282037F0D0FC0248C37829E07E
:10096000D4060010000000101C000010E001001070
:10097000E450001025642E25642092000800001029
:100980002530346400000000253032642D253032DB
:1009900064000000253032643A25303264000000E3
:1009A00018010010253034642D253032642D253097
:1009B000326400004279AFF2300101A83EF042FEFD
:1009C00001AB02220D21282037F097FCFF48C08898
:1009D000FF49C880FD4840794871FC48C078C8701C
:1009E000FB488078F9498978884205D1F8484078F1
:1009F000F6494978884214D0F44843788278AFF2B7
:100A00006C0101A83EF01EFE01AB03220B21602009
:100A100037F073FCED488078ED498870EB484078FA
:100A2000487009B030BD10B50246012904D0E94B29
:100A300093F89930012B2CD11378412B0BD153789B
:100A4000303B03EB8303642404EB43049378303B93
:100A5000234498B228E01378422B0BD15378303BD3
:100A600003EB8303C82404EB43049378303B234413
:100A700098B219E01378303B642463435478303CD7
:100A800004EB840403EB44049378303B234498B292
:100A90000AE01378303B03EB8303642404EB430444
:100AA0005378303B234498B210BD30B502460B78E2
:100AB000303B4FF47A7463434C78303C04EBC4050C
:100AC00005EB041403EB84041378303B03EB83033E
:100AD00004EB43045378303B234498B230BD0EB549
:100AE00036F09AFDB948C3784279C1888DE80E0086
:100AF000AFF2501302221146502037F0FEFBB348EC
:100B000043788278CDE90023AFF2781304221146AE
:100B10003C2037F0F2FB0EBD10B50020AE49087046
:100B2000AE490870AE4800210180AE480180817056
:100B30000020AD498870AD48006839F00BFD10BD4C
:100B4000AB480068AB4909680844AB4909680844E8
:100B5000AA490968084470472DE9F04F95B0064648
:100B6000884620210DA83FF0A1F8202105A83FF0DC
:100B70009DF84FF000090020049000240025002774
:100B800098F8000002281DD13078432802D0307830
:100B9000452817D100209049087092480021018013
:100BA0008170FFF7CDFF18B103209549087006E06A
:100BB000FFF7B2FFFFF708FD00209149087015B05C
:100BC000BDE8F08F98F8000002286FD13178824894
:100BD00002780078401C804B1870824881547D4810
:100BE000807800EB8000874A52F830100DA83EF064
:100BF00027FF784890F83100012813D17948007810
:100C00002E2803D141207749087006E07548007806
:100C1000442802D142207349087072490DA83EF061
:100C200098FF03E06F490DA83EF093FF7548816A75
:100C300005A83EF005FF6B4905A83EF08AFFAFF21C
:100C4000BC23AFF2C02205A90DA8FFF77BFC6148C9
:100C500090F83100012804D05E4890F899000128EE
:100C600077D15D48007803281FDB5A4890F831009F
:100C7000E8B95C4800782E2813D05A4800784428F8
:100C80000FD0584840782E280BD05648407844283A
:100C900007D0544880782E2803D0524880784428C2
:100CA00005D14FF005090120049057E263E14D485A
:100CB00040782E280BD04B484078442807D049482C
:100CC00080782E2803D047488078442804D14FF0FC
:100CD00005090120049041E23E4890F83110414856
:100CE000FFF7A1FE0446642094FBF0F000F0FF0A39
:100CF000642094FBF0F100FB114000F0FF0B514623
:100D000058461BF0F8FE00F0FF09324890F82F001B
:100D1000022827D1642094FBF0F000F0FF0A642041
:100D200094FBF0F100FB114000F0FF0B52465946D6
:100D3000012018F023FD00202749087029480021D0
:100D400001808170FFF7FCFE20B103202C49087060
:100D500007E064E0FFF7E0FEFFF736FC00202849DB
:100D600008702CE71B4890F82F00042854D1642009
:100D700094FBF0F100FB114000F0FF0A642094FBAB
:100D8000F0F000F0FF0B514658461CF099FC074666
:100D90006FB1642094FBF0F000F0FF0A3946504632
:100DA0001CF01EFE012802D0384618F0B5FF0020C6
:100DB000094908700B48002101808170FFF7C0FECF
:100DC00018B103200E49087025E01DE00000001056
:100DD00008000010D4060010190000101A000010BE
:100DE00017000010140000105809001094000010A3
:100DF0002000001024000010280000102C0000101B
:100E00001B00001018010010FFF786FEFFF7DCFB47
:100E10000020FF490870D2E6012004909EE1FD48C1
:100E20000078022813DBFC4800782E280BD0FA4803
:100E30000078442807D0F84840782E2803D0F64898
:100E40004078442804D14FF005090120049085E141
:100E5000F24890F83110F048FFF7E5FD04466420B1
:100E600094FBF0F000F0FF0A642094FBF0F100FB2B
:100E7000114000F0FF0B514658461BF03CFE00F0BD
:100E8000FF092146E6A017F0D5F8E44890F82F00B6
:100E9000022826D1642094FBF0F000F0FF0A6420C1
:100EA00094FBF0F100FB114000F0FF0B5246594655
:100EB000012018F063FC0020D6490870D6480021B4
:100EC00001808170FFF73CFE18B10320D049087003
:100ED00006E0FFF721FEFFF777FB0020CC49087002
:100EE0006DE6CE4890F82F00042841D1642094FB91
:100EF000F0F100FB114000F0FF0A642094FBF0F0D9
:100F000000F0FF0B514658461CF0DAFB0746CFB104
:100F1000642094FBF0F000F0FF0A394650461CF0C4
:100F20005FFD01280ED0642094FBF0F000F0FF0A72
:100F30000322394650461CF089FC032802D038466B
:100F400018F0EAFE0020B3490870B3480021018080
:100F50008170FFF7F5FD18B10320AD49087006E078
:100F6000FFF7DAFDFFF730FB0020A949087026E6FD
:100F700001200490F2E098F8000001280AD13278AC
:100F8000012108461BF0DFFC044624B94FF002099A
:100F900001200490E2E09F480078002804DD4FF033
:100FA000050901200490D9E09C4890F831000128FF
:100FB00023D14121974802780078401C954B187046
:100FC000954881540A2094FBF0F03030C2B21846A4
:100FD00001780078401C18708F4842540A2094FB16
:100FE000F0F100FB11403030C1B2184602780078B1
:100FF000401C1870884881541AE00A2094FBF0F0D5
:101000003030C1B2834802780078401C814B1870A0
:10101000814881540A2094FBF0F100FB11403030EC
:10102000C1B2184602780078401C18707A48815482
:101030007A48807800EB80007F4A52F830100DA883
:101040003EF0FEFC74490DA83EF083FD7A48816AAB
:1010500005A83EF0F5FC704905A83EF07AFDAFF218
:10106000DC63AFF2E06205A90DA8FFF76BFA6B48ED
:1010700090F831106848FFF7D6FC0446642094FBD2
:10108000F0F000F0FF0A642094FBF0F100FB114047
:1010900000F0FF0B514658461BF02DFD00F0FF09F4
:1010A0005E4890F82F00022826D1642094FBF0F0CF
:1010B00000F0FF0A642094FBF0F100FB114000F007
:1010C000FF0B52465946012018F058FB00205149A9
:1010D00008705148002101808170FFF731FD18B17F
:1010E00003204B49087006E0FFF716FDFFF76CFA86
:1010F00000204749087062E5484890F82F0004280E
:101100002AD1642094FBF0F100FB114000F0FF0AAB
:10111000642094FBF0F000F0FF0B514658461CF0A1
:10112000CFFA074617B1384618F0F6FD00203949C6
:1011300008703948002101808170FFF701FD18B166
:1011400003203349087006E0FFF7E6FCFFF73CFA9E
:1011500000202F49087032E501200490049878B3EC
:10116000B9F1060F34D2DFE809F0AA7B0334047A20
:1011700000BF2A48807800EB80002F4A02EBC000B5
:1011800041690DA83EF05CFC2B48C16B05A83EF000
:1011900057FCAFF61003AFF6140205A90DA8FFF730
:1011A000D1F94FF4C87039F015FCFFF7C9FC40B114
:1011B000194800210180817003201549087007E05B
:1011C0004CE1FFF7A9FCFFF7FFF900201049087078
:1011D00040E11248807800EB8000174A02EBC00023
:1011E00001690DA83EF02CFC1348816B05A83EF068
:1011F00027FCAFF67003AFF6740205A90DA8FFF740
:10120000A1F94FF4C87039F0E5FBFFF799FC15E040
:101210001B0000101900001014000010D40600106C
:101220000D0A2041505055626F7842746E636C6FA6
:10123000756D6E3D256400001801001038B1FF483F
:101240000021018081700320FD49087006E0FFF74E
:1012500063FCFFF7B9F90020F9490870FAE000BF14
:10126000F848807800EB8000F74A02EBC000416844
:101270000DA83EF0E5FBF448C16A05A83EF0E0FB8E
:10128000AFF60013AFF6041205A90DA8FFF75AF93F
:101290004FF4C87039F09EFBFFF752FC38B1E748B5
:1012A0000021018081700320E549087006E0FFF706
:1012B00033FCFFF789F90020E1490870CAE0642097
:1012C00094FBF0F000F0FF0A642094FBF0F100FBC7
:1012D000114000F0FF0B5246012158461BF013FC51
:1012E000DA49086008460568D64890F82700A8B390
:1012F000012834D0022830D16420B5FBF0F100FB86
:10130000115AB5FBF0FBCF48807800EB8000CE4946
:1013100001EBC000C168CB48CDE901BA00918078EB
:1013200000EB8000C84901EBC000C44BC8A1C269F2
:101330000DA83EF087F96420B5FBF0F100FB115ACF
:10134000B5FBF0FBC048416BCDE901BA0091BB4B46
:10135000BFA1426C05A83EF075F95BE033E00A20BE
:10136000B5FBF0F5B5FBF0F100FB115AB5FBF0FB56
:10137000B448807800EB8000B34901EBC000C1683D
:10138000B048CDE901BA0091807800EB8000AE4909
:1013900001EBC000A94BB3A1C2690DA83EF052F900
:1013A0000A20B5FBF0F100FB115AB5FBF0FBA64893
:1013B000416BCDE901BA0091A04BAAA1426C05A8EE
:1013C0003EF040F926E06420B5FBF0FA9D488078B5
:1013D00000EB80009C4901EBC000C2689948CDE950
:1013E000002A807800EB800001EBC000934BA1A1A4
:1013F000C2690DA83EF026F96420B5FBF0FA9248C8
:10140000426BCDE9002A8D4B9AA1426C05A83EF0B3
:1014100019F900BF00BFAFF69423AFF6982205A9D3
:101420000DA8FFF78FF8C82039F0D4FAFFF788FB32
:1014300028B19348048005208149087009E0C8203C
:1014400039F0C8FAFFF768FBFFF7BEF800207C49C7
:10145000087000BF00BF00208A49087000BF80E408
:101460002DE9F04F93B0064620210BA83EF01EFC5C
:10147000202103A83EF01AFC0027B846B9460024F4
:101480000025307843281BD100207E4908707E4912
:1014900008706A480021018081707C480180FFF754
:1014A0004FFB18B103206649087006E0FFF734FBD4
:1014B000FFF78AF800206249087013B0BDE8F08F8A
:1014C00071480078F0BB3078452829D032786D48D3
:1014D00001780078401C6B4B18706C484254594896
:1014E000807800EB80006A4A02EB0010816C0BA848
:1014F0003EF0A6FA65490BA83EF02BFB6448D0F8F5
:10150000981003A83EF09CFA604903A83EF021FB26
:10151000AFF69033AFF6943203A90BA8FFF712F899
:1015200058480078022857DB58480078302839DBC3
:1015300056480078392835DC54484078302831DB6B
:10154000524800E0CBE0407839282BDC01204E499E
:10155000087000204B4908703848002101808170D4
:101560004A490BA83EF06CFA3648807800EB8000C0
:10157000474A02EB0010C16C0BA83EF0EAFA43495F
:1015800003A83EF05DFA4248D0F89C1003A83EF054
:10159000E0FAAFF61043AFF6144203A90BA8FEF72A
:1015A000D1FFD4E10020374908703749087023483B
:1015B00000210180817035480180FFF7C1FA18B120
:1015C00003201F49087006E0FFF7A6FAFEF7FCFFAC
:1015D00000201B49087070E73078452864D12B48FB
:1015E0000078302861DB2948007839285DDC2748FD
:1015F0000078264948703020087001202249087080
:101600000020204908700D480021018081700D489C
:10161000807800EB80001E4901EB00101B4A1DA1E1
:10162000C36C0BA83EF00EF81948184A19A1D0F85F
:101630009C3003A83EF006F817A32FE0140000101A
:101640001B000010D4060010180100103400001018
:1016500025732025732C2573253032642E253032D6
:101660006400000025732025732C257325642E2526
:101670006400000025732025732C25732564000069
:1016800030000010190000101A00001017000010A0
:10169000AC0300102573257300000000AFF20802B0
:1016A00003A90BA8FEF74EFF51E10020FB4908708B
:1016B000FB490870FB48002101808170FA480180D5
:1016C000FFF73EFA18B10320F849087006E0FFF76B
:1016D00023FAFEF779FF0020F4490870EDE6F048A0
:1016E000007801287ED13078452835D03178EB4814
:1016F00002780078401CE94B1870EA488154EA48A7
:1017000040783038E8490978303901EB810100EB45
:10171000410000F0FF09E34BE5480093807800EBBF
:101720008000E44901EB00104A46E3A1C36C0BA81A
:101730003DF088FFDB4BDF4800934A46DEA1D0F83E
:101740009C3003A83DF07EFFAFF2B403AFF2B802C5
:1017500003A90BA8FEF7F6FED0480078022875DB37
:10176000D0480078302856DBCE480078392852DC43
:10177000CC48407830284EDBCA48407839284ADCCB
:10178000C949C848FFF791F90446642094FBF0F07A
:1017900000F0FF0A642094FBF0F100FB114000F020
:1017A000FF0B514658461BF0A6F9C7B2C04890F847
:1017B0002F0002282CD1642094FBF0F000F0FF0AE7
:1017C000642094FBF0F100FB114000F0FF0B524647
:1017D0005946012017F0D2FF0020B0490870B049E7
:1017E000087000E08BE0AF48002101808170AE48B6
:1017F0000180FFF7A5F918B10320AC49087006E095
:10180000FFF78AF9FEF7E0FE0020A849087054E6C9
:101810004FF001089BE00020A0490870A049087023
:10182000A0480021018081709F480180FFF788F95E
:1018300018B103209D49087006E0FFF76DF9FEF727
:10184000C3FE00209949087037E6FFE73078452845
:101850007DD194480078302852DB924800783928AE
:101860004EDC904800788F494870302008708E49CF
:101870008C48FFF71AF90446642094FBF0F000F05E
:10188000FF0A642094FBF0F100FB114000F0FF0B15
:10189000514658461BF02FF9C7B2854890F82F00E3
:1018A00002282AD1642094FBF0F000F0FF0A6420A3
:1018B00094FBF0F100FB114000F0FF0B524659463B
:1018C000012017F05BFF002074490870744908700C
:1018D000744800210180817073480180FFF730F95E
:1018E00018B103207149087006E0FFF715F9FEF7FB
:1018F0006BFE00206D490870DFE54FF0010826E01F
:10190000002066490870674800210180817068489E
:10191000807800EB8000674901EB0010624AAFF26B
:101920008C21C36C0BA83DF08DFE62485E4AAFF27D
:101930009C21D0F89C3003A83DF084FEAFF2A82390
:10194000AFF2AC2203A90BA8FEF7FCFDB5E5B8F198
:10195000000F73D0062F3AD2DFE807F0BC72033ACB
:10196000047100BF5248807800EB8000544A02EBBB
:10197000C00041690BA83EF063F85148C16B03A851
:101980003EF05EF8AFF2F023AFF2F42203A90BA809
:10199000FEF7D8FD4FF4C87039F01CF8FFF7D0F807
:1019A00070B100203D4908703D4908703E48002153
:1019B00001803C480180817003203C49087006E0AA
:1019C000FFF7AAF8FEF700FE00203849087052E140
:1019D0003748807800EB8000394A02EBC00001698B
:1019E0000BA83EF02DF83648816B03A83EF028F88E
:1019F000AFF25C33AFF2603203A90BA8FEF7A2FD91
:101A00004FF4C87038F0E6FFFFF79AF870B1002085
:101A1000224908702249087023480021018021488A
:101A20000180817003202149087006E0FFF774F8F7
:101A3000FEF7CAFD00201D4908701CE121E100BF2E
:101A40001B48807800EB80001D4A02EBC000416813
:101A50000BA83DF0F5FF1A48C16A03A83DF0F0FF5E
:101A6000AFF2CC33AFF2D03203A90BA8FEF76AFD78
:101A70004FF4C87038F0AEFFFFF762F810B30020E3
:101A8000064908700649087007480021018005488A
:101A9000018081700320054908701AE019000010C8
:101AA0001A00001014000010170000101B00001096
:101AB000D4060010AC0300102564257325730000C4
:101AC00018010010FFF728F8FEF77EFD0020FD4901
:101AD0000870D0E0642094FBF0F000F0FF0A64206E
:101AE00094FBF0F100FB114000F0FF0B5246012186
:101AF00058461BF008F8F449086008460568F348A2
:101B000090F82700B8B3012836D0022832D16420DB
:101B1000B5FBF0F100FB115AB5FBF0FBEB48807808
:101B200000EB8000EA4901EBC000C168E748CDE95D
:101B300001BA0091807800EB8000E54901EBC0001C
:101B4000E44BAFF2F441C2690BA83DF07BFD642089
:101B5000B5FBF0F100FB115AB5FBF0FBDC48416B23
:101B6000CDE901BA0091DB4BAFF21C51426C03A8E6
:101B70003DF068FD5FE035E00A20B5FBF0F5B5FB10
:101B8000F0F100FB115AB5FBF0FBD048807800EB78
:101B90008000CF4901EBC000C168CC48CDE901BA53
:101BA0000091807800EB8000C94901EBC000C94B6F
:101BB000AFF25051C2690BA83DF044FD0A20B5FBBD
:101BC000F0F100FB115AB5FBF0FBC148416BCDE9C8
:101BD00001BA0091BF4BAFF27451426C03A83DF0C3
:101BE00031FD28E06420B5FBF0FAB848807800EBBE
:101BF0008000B74901EBC000C268B448CDE9002AB3
:101C0000807800EB800001EBC000B24BAFF29C513A
:101C1000C2690BA83DF016FD6420B5FBF0FAAC4894
:101C2000426BCDE9002AAB4BAFF2B851426C03A82E
:101C30003DF008FD00BF00BFAFF2A453AFF2A852C1
:101C400003A90BA8FEF77EFCC82038F0C3FEFEF700
:101C500077FF28B1A048048005209A49087009E060
:101C6000C82038F0B7FEFEF757FFFEF7ADFC0020A6
:101C70009449087000BF00BF002098490870984937
:101C8000087000BF19E42DE9F041A4B006460D46E6
:101C900020211CA83EF00AF8202114A83EF006F8E6
:101CA00020210CA83EF002F8202104A83DF0FEFF00
:101CB000022038F08FFEFEF743FF0446EEBB834858
:101CC0008078012814D08748036D8048807800EB25
:101CD0008000844901EB001083A102687B488DE8F5
:101CE0000E008378002202214C2036F05AFA0CE0D4
:101CF0007C48AFF23822036D7448CDE90023837825
:101D000000220221602036F04CFA04221146002005
:101D100036F07CF96D48807828B90223002205212D
:101D20002C2036F095FB694890F8270048B301282D
:101D300014D0022831D1642000E05CE0B4FBF0F163
:101D400000FB1147B4FBF0F8AFF2F4630422114634
:101D50004C20CDE9008736F0D0FA1EE00A20B4FB13
:101D6000F0F4B4FBF0F100FB1147B4FBF0F8AFF274
:101D70000473042211464C20CDE9008736F0BDFAE9
:101D80000BE06420B4FBF0F7AFF2107304221146AD
:101D90004C20009736F0B1FA00BF00BF012D11D1E1
:101DA0004A48807800EB80004E4A02EB0010816CBC
:101DB0001CA83DF045FE4B48D0F8981014A83DF003
:101DC0003FFE0FE04148807800EB8000454A02EB7F
:101DD000001001691CA83DF033FE4248016E14A8B2
:101DE0003DF02EFEAFF25073AFF2547214A91CA84E
:101DF000FEF7A8FBC3E035488078012814D03948A5
:101E0000436D3248807800EB8000364901EB0010CA
:101E100035A142682D488DE80E008378002202210A
:101E20004C2036F0BEF912E02848807800EB8000A4
:101E30002C4901EB0010AFF27C3243682348CDE916
:101E40000023837800220221602036F0AAF90422C0
:101E50001146002036F0DAF81C48807828B90223B1
:101E6000002205212C2036F0F3FA184890F82700BC
:101E700038B3012812D0022846D16420B4FBF0F117
:101E800000FB1147B4FBF0F8AFF63403042211460F
:101E90004C20CDE9008736F030FA35E00A20B4FB5B
:101EA000F0F4B4FBF0F100FB1147B4FBF0F8AFF62F
:101EB0004403042211464C20CDE9008736F01DFA78
:101EC00022E015E01B00001034000010D4060010C2
:101ED000180100101400001030000010190000104C
:101EE0001A000010AC03001025732F2573000000AA
:101EF0006420B4FBF0F7AFF67C03042211464C20BB
:101F0000009736F0FAF900BF00BF012D11D1FF484C
:101F1000807800EB8000FE4A02EB0010816C1CA868
:101F20003DF08EFDFA48D0F8981014A83DF088FDD9
:101F30001FE0F648807800EB8000F54A02EB0010C5
:101F400041691CA83DF07CFDF148416E14A83DF0AC
:101F500077FDEE48807800EB8000ED4A02EB001040
:101F600081690CA83DF06CFDE948816E04A83DF044
:101F700067FD04AB0CAA14A91CA8FEF7E3FA24B071
:101F8000BDE8F08100B591B0202109A83DF08EFE9A
:101F9000202101A83DF08AFEDC48807800EB80001B
:101FA000DB4A02EB0010816809A83DF049FDD848E2
:101FB000816D01A83DF044FDAFF62413AFF6281261
:101FC00001A909A8FEF7BEFA11B000BD70B598B01E
:101FD0000446202110A83DF069FE202108A83DF00C
:101FE00065FE202168463DF061FEC848807800EB20
:101FF0008000C74A02EB0010C16868463DF020FD32
:10200000C348C16D08A83DF01BFDC04890F82700EB
:1020100018B3012810D0022829D16420B4FBF0F1B4
:1020200000FB1145B4FBF0F62B463246AFF6D81153
:1020300010A83DF007FB1AE00A20B4FBF0F4B4FB53
:10204000F0F100FB1145B4FBF0F62B463246AFF63B
:10205000E41110A83DF0F6FA09E06420B4FBF0F5B5
:102060002A46AFF6E81110A83DF0ECFA00BF00BF19
:1020700010A968463DF06DFDAFF6E413AFF6E81227
:1020800008A96846FEF75EFA4FF4C87038F0A2FC63
:1020900018B070BD00B591B0202109A83DF006FE32
:1020A000202101A83DF002FE9848807800EB8000D6
:1020B000974A02EB0010816B09A83DF0C1FC9448DF
:1020C000D0F8881001A83DF0BBFCAFF63423AFF682
:1020D000382201A909A8FEF735FA4FF4C87038F084
:1020E00079FC11B000BD00B591B0202109A83DF0E8
:1020F000DDFD202101A83DF0D9FD8448807800EB6A
:102100008000834A02EB0010C16B09A83DF098FCE7
:102110007F48D0F88C1001A83DF092FCAFF68823E0
:10212000AFF68C2201A909A8FEF70CFA142038F0AA
:1021300051FC11B000BD00B591B0202109A83DF0BF
:10214000B5FD202101A83DF0B1FD7048807800EB7D
:1021500080006F4A02EB0010016C09A83DF070FC92
:102160006B48D0F8901001A83DF06AFCAFF6D82378
:10217000AFF6DC2201A909A8FEF7E4F94FF4C87014
:1021800038F028FC11B000BD10B590B0202108A88F
:102190003DF08CFD202168463DF088FD5D480088BB
:1021A000642190FBF1F201FB12045848807800EBA7
:1021B0008000574901EB0010224657A1C36A08A8C6
:1021C0003DF040FA53480088642190FBF1F201FB96
:1021D00012044F48224650A1C36F68463DF032FAC0
:1021E000AFF64C33AFF65032694608A8FEF7AAF9AD
:1021F00010B010BD00B591B0202109A83DF056FDEA
:10220000202101A83DF052FD4048807800EB80007D
:102210003F4901EB0010AFF25C71C26A09A83DF0C2
:1022200011FA3B48AFF26C71C26F01A83DF00AFA97
:10223000AFF69C33AFF6A03201A909A8FEF782F9E8
:1022400011B000BD00B591B0202109A83DF02EFDD0
:10225000202101A83DF02AFD2C48807800EB800069
:102260002B4A02EB0010016B09A83DF0E9FB28485E
:10227000D0F8801001A83DF0E3FBAFF6E433AFF6F1
:10228000E83201A909A8FEF75DF9642038F0A2FB45
:1022900011B000BD00B591B0202109A83DF006FDA8
:1022A000202101A83DF002FD1848807800EB800055
:1022B000174A02EB0010416B09A83DF0C1FB14481E
:1022C000D0F8841001A83DF0BBFBAFF63443AFF665
:1022D000384201A909A8FEF735F94FF4C87038F063
:1022E00079FB11B000BD00B591B0202109A83DF0E7
:1022F000DDFC202101A83DF0D9FC0448807800EBEA
:102300008000074A52F8201009A80BE0D4060010FC
:10231000AC0300103000001025642025730000007D
:102320003C0500103DF08CFBFF48416901A83DF0E1
:1023300087FBAFF69C43AFF6A04201A909A8FEF7C0
:1023400001F911B000BD00B591B0202109A83DF000
:10235000ADFC202101A83DF0A9FCF448807800EBF9
:102360008000F14A02EB8000816809A83DF068FB1B
:10237000ED48C16901A83DF063FBAFF6E443AFF659
:10238000E84201A909A8FEF7DDF8642038F022FB35
:1023900011B000BD70B592B0044620210AA83DF0EE
:1023A00085FC202102A83DF081FCE04890F8270040
:1023B00088B3012817D002283FD16420B4FBF0F184
:1023C00000FB1145B4FBF0F6D8480095807800EB8F
:1023D0008000D54901EB80003346D5A142680AA8A8
:1023E0003DF030F929E00A20B4FBF0F4B4FBF0F141
:1023F00000FB1145B4FBF0F6CC480095807800EB6B
:102400008000C94901EB80003346CCA142680AA88C
:102410003DF018F911E0FFE76420B4FBF0F5C34884
:10242000807800EB8000C04901EB80002B46C5A1FD
:1024300042680AA83DF006F900BF00BFBA488169AA
:1024400002A83DF0FDFAC0A3BFA202A90AA8FEF7A8
:1024500079F84FF47A7038F0BDFA12B070BD00B55B
:1024600089B0202101A83DF021FC35F0D5F80220EB
:1024700038F0B0FAAC48016A01A83DF0E1FA01ABCE
:1024800003220521302035F038FFA8488078012844
:1024900013D0A648807800EB8000A34A02EB8000AE
:1024A000016901A83DF0CCFA01ABA0480093837804
:1024B00000220B213C2035F074FE09B000BDA3487A
:1024C0000068704770B506460C461546974890F868
:1024D0002300C8B1012E02D0022E14D109E09CA025
:1024E00015F098FC14F00EFB0121084614F0E7FEED
:1024F00009E09BA015F08EFC14F0F1FA00210120F8
:1025000014F0DDFE00BF00BF884890F82100C8B17C
:10251000012C02D0022C14D109E095A015F07AFC10
:1025200014F05BFC0121022014F0C9FE09E094A024
:1025300015F070FC14F036FC0021022014F0BFFEF0
:1025400000BF00BF794890F8260058B1012D02D095
:10255000022D06D102E01CF011FC02E01CF0FDFB94
:1025600000BF00BF142038F035FA70BD10B5FEF77B
:10257000E7FAF0B986480078D8B98648407A012849
:1025800017D1FEF7DDFA04468248437A8048027884
:10259000214681A015F03EFC14F06CFA142038F0AE
:1025A00019FA002211460120FFF78CFF142038F0A1
:1025B00011FA10BD00207D49C8804871C87088702C
:1025C000487001207A49887070472DE9F04104462F
:1025D000002500260027012C1ED114F036FF58B923
:1025E000524890F8230038B101250020684908704E
:1025F00035F012F8FFF7DEFF022014F026FF98BB3B
:102600004A4890F82100012804D0484890F8210059
:10261000032829D1012627E0022C25D1012014F01E
:1026200014FF01280BD1414890F8230038B102254E
:1026300001205749087034F0EFFFFFF7BBFF02207D
:1026400014F003FF01280FD1384890F82100012829
:1026500004D0364890F82100032805D1334890F87B
:10266000C500012800D002263A4631462846FFF729
:1026700029FF002D01DD16F0B1FDBDE8F081F0B5B8
:1026800085B0002500260027284890F8250002285C
:1026900012D100240EE0474850F8240040B14548CC
:1026A00050F824101C3030F8140001FB0066274657
:1026B000601CC4B2072CEEDB1C4890F822000228F4
:1026C00031D13D48406F3C49B1F8C01048433A49C8
:1026D0008A6FB1F8C21002FB01013748C26FB0F82F
:1026E000C40002FB00113448D0F88020B0F8C600C6
:1026F00002FB00113048D0F88420B0F8C80002FB7B
:1027000000112D48D0F88820B0F8CA0002FB001153
:102710002948D0F88C20B0F8CC0002FB00112648E4
:10272000D0F890204AE086E03C050010D406001066
:102730002573253032642E253032640025732564DC
:102740002E25640025732564000000002C00001075
:102750000D0A20417070656E42696C6C00000000CB
:102760000D0A2041707064697342696C6C0000004E
:102770000D0A20417070656E436F696E00000000A5
:102780000D0A20417070646973436F696E00000028
:102790001C000010644800100D0A20457272426946
:1027A0006C6C3D25642C25642C2564000800001009
:1027B000580900102C09001020080010B0F8CE00B5
:1027C00002FB0011FF48D0F89420B0F8D00002FBC3
:1027D0000011FC48D0F89820B0F8D20002FB00119C
:1027E000F848D0F89C20B0F8D40002FB0011F5485E
:1027F000D0F8A020B0F8D60002FB0011F148D0F8C4
:10280000A420B0F8D80002FB0011EE48D0F8A820B0
:10281000B0F8DA0002FB0011EA48D0F8AC20B0F8BA
:10282000DC0002FB0011E748D0F8B020B0F8DE0071
:1028300002FB001512E0E44890F82200012808D1BC
:1028400014F0D8FC10B9E048806B00E00020054689
:1028500004E0DD4890F8220000B900257019DA493B
:10286000896B884202D9D848806B00E07019D7493B
:102870000860D548D0F8C03008460268D248816B5D
:10288000D348CDE90065CDE90323029150F8270034
:10289000DFF83CC30CF11C0C3CF817C000FB0CF338
:1028A000C848806FDFF81CC3BCF8C2C000FB0CF244
:1028B000C448406FDFF80CC3BCF8C0C000FB0CF18B
:1028C000C44815F0A7FAC04890F8220002280CD19D
:1028D000BD48D0F8C000A84203D90220FFF775FE1A
:1028E00035E00120FFF771FE31E0B74890F8220093
:1028F00001280CD1B448D0F8C000A84203D9022066
:10290000FFF763FE23E00120FFF75FFE1FE0AE4804
:1029100090F82200D8B9AC4890F8250002280DD1D3
:102920007019A949D1F8C010884203D20220FFF7DC
:102930004CFE0CE00120FFF748FE08E0A248806B47
:10294000A2490860A4480168A4A015F063FAFFF743
:102950000DFE002005B0F0BD014669B99A4A92F813
:102960002E200F32FF2A01DDFF2203E0964A92F863
:102970002E200F32D0B20CE001290AD1924A92F8EF
:102980002E20FF2A01DDFF2202E08F4A92F82E203E
:10299000D0B2704770B58C4890F8210018B314F08D
:1029A000B8F90446FCB19248006820449049086098
:1029B000FEF7C6F80546024621468EA015F04CFAF1
:1029C000022200210846FFF77DFD0121204614F078
:1029D00031FEFEF7B5F805460246A1B2012016F019
:1029E000B1FA012070BD784890F8230090B313F03D
:1029F000F1FF044674B3214684A015F00BFA874812
:102A000000680119744803687048026884A015F0D2
:102A100001FA8248006820446C49096888421AD249
:102A200013F0F0FF90B17D48006820447B490860B6
:102A30000221204614F0FEFDFEF782F8054602460C
:102A4000A1B2022016F07EFA002452E014F012F82F
:102A50000020C7E761E05C4890F8240001283DD1E0
:102A6000FFF790FAFEF76CF828B34FF4AF7037F029
:102A7000B1FF0020FFF770FF72498871032072498F
:102A80000870002071490870714908707148002170
:102A900001807148018081707048006837F05AFDEC
:102AA00000206F4908606F4801780020FFF7EBF8BD
:102AB00013F0E0FF0EE0FEF72FF8002062490870E7
:102AC00013F0D8FF4FF4C87037F084FFFDF77CFD9A
:102AD000FFF770FD00206449086083E762480460E6
:102AE000FEF72EF805460246A1B2032016F02AFA98
:102AF00000244A480068204434490968884205D3C4
:102B0000022200211046FFF7DDFC04E00222002132
:102B10000846FFF7D7FC012064E72B4890F8260011
:102B2000C0B352481CF0E9F8044650480078012828
:102B300019D1C4B121464EA015F0D2F95248046013
:102B40000321204614F076FD002202210846FFF7FB
:102B5000B9FCFDF7F5FF05460246A1B2052016F0C7
:102B6000F1F901203EE741480078022813D147A03F
:102B700015F0B6F9FDF7E4FF85B200232A461946A1
:102B8000022015F02BFB0020384908703E490860F0
:102B9000022027E7FFE7002024E7F8B50025002002
:102BA0000090094890F82500022809D1FDF7C8FFD8
:102BB00005462DB129463CA015F02CF90024CDE0A6
:102BC000CFE0000020080010D40600103C000010E8
:102BD0002C09001070130400400000100D0A417011
:102BE000704368616E6765206D61783D256C640097
:102BF000200000100D0A417070636F696E312E6302
:102C00006F696E3D256C642C256C64000D0A322EB4
:102C100041707062696C6C3D256C6400240000108A
:102C20000D0A41707062696C6C3D256C642C4D6FAF
:102C30006E65793D256C642C70726963653D256C09
:102C4000640D0A00580900101B0000101900001044
:102C50001A0000101700001014000010940000105B
:102C6000340000103900001028000010440000104B
:102C70000D0A20417070526561646572312E726573
:102C800061643D256C6400002C0000100D0A204199
:102C90007070526561646572204F555450555420D0
:102CA00063617264000000000D0A204170704E657F
:102CB00065647061793D256C64000000FC4850F843
:102CC0002400F0B3FA4850F82400B5FBF0F0C6B287
:102CD0003146F8A015F09EF8F5481C3030F8140085
:102CE000B04201DB304603E0F1481C3030F81400FC
:102CF000C6B23146F4A015F08DF8ED4951F8241014
:102D000001FB06F0694613F04EFF07463946F3A073
:102D1000009A15F07FF8012F1DD1F7480068F74998
:102D2000096808440099451A0020F4490860F248EF
:102D300005602946F2A015F06DF8F54890F83400CA
:102D400000E009E0012806D12B46009882B200215C
:102D5000012015F043FA03E0601CC4B2072CADDB80
:102D600000BFF8BDF8B5EB480068D8B113F082FE9B
:102D700070B1FDF7E5FEE7490968461A3246E548B5
:102D8000006881B2042016F0DDF80020E1490860F7
:102D900037F0CEFE06460146DFA015F04BF9642061
:102DA00037F018FEFDF7CCFE0546FFF7F6FEFDF7FF
:102DB000C7FE70B137F0BCFE06460146DAA015F03A
:102DC00039F9FDF7BDFE064669461BF02EFD0446A7
:102DD00000E00124CE4890F83400012838D1DCB955
:102DE000D7A015F027F9FDF7ABFE0099461A30463B
:102DF00014F08AFEFDF7A4FE0099401A86B20B4635
:102E000032460021084615F0E9F90020BA49086069
:102E1000BA4908600098F8BD37F08AFE06460146B8
:102E2000CCA015F007F9FDF78BFE0646002114F043
:102E30006BFEFDF785FE86B2002332461946184622
:102E400015F0CCF90020AC490860AC490860E2E715
:102E5000ACB9BBA015F0EEF80099681A14F054FE56
:102E60000098281A82B200231946184615F0B6F9C0
:102E70000020A1490860A14908600098CBE737F01D
:102E800057FE06460146B3A015F0D4F800212846A7
:102E900014F03AFE0023AAB21946184615F09EF91E
:102EA0000020954908609549086000BFB3E72DE907
:102EB000F04100260024AC480468FDF741FEA04222
:102EC00006D2AA48006818B90720A9490870C1E0CD
:102ED000A648006878B1FFF706F9A0B21CF00CF81C
:102EE0000646012E03D10A20A1490870B2E009204C
:102EF0009F490870AEE0804800688049096808442E
:102F0000A04262D27C480068201A7C490968451AB0
:102F100080480068451B7E4890F82200022801D1B5
:102F2000012615E07A4890F82200012801D10126F7
:102F30000EE0774890F8220050B9754890F82500C7
:102F4000022801D1012603E00DB9012600E0002688
:102F5000012E36D113F056FDF0B1684800686D4976
:102F6000096808446549086002216A48006814F04D
:102F700061FBFDF7E5FD67490968471A3A46654870
:102F8000006881B2022015F0DDFF00206149086071
:102F90000A20774908705DE013F06CFDFDF7D0FD65
:102FA0005C490968471A3A465A48006881B20420C9
:102FB00015F0C8FF00205749086008206C490870C8
:102FC00048E008206A49087044E04B4800684B49D3
:102FD00009680844051B4E4890F82200022801D1D8
:102FE000012615E04A4890F82200012801D1012667
:102FF0000EE0474890F8220050B9454890F8250067
:10300000022801D1012603E00DB9012600E00026C7
:10301000012E1CD13E4890F82400012813D13D48D0
:10302000006880B113F026FDFDF78AFD3949096873
:10303000471A3A463748006881B2042015F082FFEB
:103040000020344908600A204949087002E008203D
:1030500047490870BDE8F08110B5044604B3434801
:10306000006860B143A014F03BFF01201BF0ACFFEF
:103070003E480068001B3D490860002410E01F48DE
:103080000068844206D31D480068241A00201B49AA
:10309000086005E019480068001B18490860002412
:1030A00024B115480068001B1349086010BD0000DA
:1030B0002C0900100D0A204170704E6565646E7514
:1030C0006D3D2564000000000D0A204170705265BE
:1030D000616C6E756D3D2564000000000D0A204195
:1030E00070705265636261636B2073743D25642C5C
:1030F0007061793D256C64002000001024000010F0
:103100000D0A204170707061793D256C64000000EB
:10311000D4060010280000100D0A20417070486F7E
:103120006C645265742564000D0A2041707042651C
:1031300067696E206368616E676525640000000042
:103140000D0A204170706368616E67652046616991
:103150006C0000000D0A204170706368616E676545
:103160002073756363256400340000102C00001088
:103170001B0000100D0A2041707043487568756F80
:103180005375636300000000FF4890F82E00FF288D
:1031900006DAFE48807908B9012070470020FCE774
:1031A0000020FAE70EB5F9488379F748807800EBFC
:1031B0008000F74901EB0010F6A1426CF2488DE85F
:1031C0000E00837800221146962034F0EAFF0EBDEF
:1031D00070B504460125F4B3F0480068F049096869
:1031E0000844A0422AD213F00DFCB0B1EC480068AC
:1031F000EC4909680844EA490860FDF7A1FCE9497F
:103200000968461A3246E748006881B2022015F084
:1032100099FE0020E349086010E013F02BFCFDF755
:103220008FFCE0490968461A3246DE48006881B2E0
:10323000042015F087FE0020DA490860FDF780FCC5
:10324000064602462146D8A014F0F4FEFDF778FCAD
:10325000A04203D300E002E0012500E00025FDF7D5
:103260006FFC90B30320D74908700020FFF774FB70
:10327000C6498871D3480078032842D1C8480068FD
:10328000D1490968884204D2002201210846FFF78B
:1032900019F90020CD490870CD490870CD480021AA
:1032A0000180CD4801808170CC48006837F052F928
:1032B00034F0B2F9CA4801780020FEF7E4FCFDF7CB
:1032C0003FFC064617F01BF91BE0FFE70022012137
:1032D0000846FFF7F7F80020BC490870BC490870A1
:1032E000BC4800210180BC4801808170BB48006857
:1032F00037F030F934F090F9FFF7B1F80E20B1490A
:103300000870284670BD70B504460125002654B1EA
:10331000B448006838B1FEF7E6FEA0B21BF0ECFD41
:10332000064606B90025284670BD70B5044684B32C
:10333000AC48006860B1ACA014F0D2FD01201BF0D5
:1033400043FEA8480068001BA6490860002447E027
:1033500092480068924909680844A0422FD213F0AD
:1033600051FBB8B18E4800688E49096808448C4901
:103370000860FDF7E5FB8B490968451A2A4689482C
:10338000006881B2022015F0DDFD0020854908604B
:1033900011E025E013F06EFBFDF7D2FB81490968CF
:1033A000451A2A467F48006881B2042015F0CAFDFC
:1033B00000207C4908604FF4487037F00BFB7848D8
:1033C0000068844206D376480068241A00207449B5
:1033D000086005E072480068001B7149086000241D
:1033E00024B16E480068001B6C490860FDF7A8FB1B
:1033F00090B30320734908700020FFF7ADFA6349CA
:10340000887170480078032842D1654800686E4989
:103410000968884204D2002201210846FFF752F8C9
:1034200000206A4908706A4908706A4800210180D2
:103430006948018081706948006837F08BF834F082
:10344000EBF8674801780020FEF71DFCFDF778FBDC
:10345000054617F054F81BE0FFE70022012108465B
:10346000FFF730F800205949087059490870594849
:10347000002101805848018081705848006837F069
:1034800069F834F0C9F8FEF7EAFF0E204D490870DC
:1034900070BD2DE9F04F87B004460E461546002753
:1034A00000200690FEF7A6FE002202210846FFF744
:1034B00009F837F03DFB8046014650A014F0BAFDF4
:1034C0003046FFF720FF642094FBF0F000F0FF0887
:1034D000642094FBF0F100FB114000F0FF0942462C
:1034E000012148460CF082FB0746274890F82F0040
:1034F000012804D0244890F82F00032842D1012F3E
:1035000041D1FDF71DFB08B914F080F8012D01D061
:10351000022D02D13046FFF79FFD41202E49087051
:10352000642094FBF0F100FB11400A2190FBF1F0C4
:10353000303029494870642094FBF0F100FB1140C1
:103540000A2190FBF1F201FB120030302249887011
:103550002F4806602F4803782D4801681E48CDE9A2
:10356000015300918378427801782BA033F000FB5F
:10357000284801780078401C264B18702B46164AC4
:10358000234869E0C0E095E0D40600105809001017
:10359000AC030010257325303264000020000010B9
:1035A00024000010280000100D0A204170702050E7
:1035B000726963653D256C642C6D6F6E65793D2580
:1035C0006C6400001B0000103C000010190000108B
:1035D0001A000010170000101400001094000010D2
:1035E000390000102C0000100D0A2041707050436B
:1035F000436F737453756363000000000D0A202548
:103600006441707055626F7856656E646F757400B2
:1036100034000010380000104C6F675472616E73F4
:10362000616374696F6E415049206C6F6769633DD7
:103630002563256325632070726963653D256420D9
:10364000747970653D25782C7472616E4E756D735A
:103650003D25640D0A200000006814F02AF864205B
:1036600094FBF0F000F0FF0A642094FBF0F100FB03
:10367000114000F0FF0B52460221584619F043FA60
:1036800000F0FF08FDF75CFA0590642094FBF0F170
:1036900000FB114000F0FF09059A2B46CDE90128F7
:1036A00000964A460121002016F0CAF80B20FF4977
:1036B000087009E1FEF7EEFD642094FBF0F000F0E5
:1036C000FF0A642094FBF0F100FB114000F0FF0BB7
:1036D00052460221584619F016FA00F0FF08FDF78D
:1036E0002FFA0590642094FBF0F100FB114000F0EC
:1036F000FF09059A2B46CDE9012800964A4601218B
:10370000992016F09DF8DFE0E94890F82F00022894
:103710007ED1012F52D1FEF795FD3046FFF705FE11
:10372000642094FBF0F100FB11400A2190FBF1F0C2
:103730003030C0B28DF818000A2094FBF0F100FB85
:1037400011403030C0B28DF8190013F05FFFD94836
:1037500001780078401CD74B18702B4606AA3046DB
:1037600013F0A7FF642094FBF0F000F0FF0B64203F
:1037700094FBF0F100FB1140C0B25A4602210490C4
:1037800019F0C1F900F0FF08FDF7DAF9059064209F
:1037900094FBF0F100FB114000F0FF09642094FB62
:1037A000F0F000F0FF0A059A2B46CDE901280096BB
:1037B0004A465146002016F043F835E0FEF76AFD10
:1037C000BD48006810B102201BF0FEFB642094FB92
:1037D000F0F000F0FF0A642094FBF0F100FB1140D0
:1037E00000F0FF0B52460221584619F08CF900F008
:1037F000FF08FDF7A5F90590642094FBF0F100FBAC
:10380000114000F0FF09642094FBF0F0C0B200E02A
:103810003FE00490059A2B46CDE9012800964A46E0
:103820000146022016F00CF8FDF78AF990B3032048
:103830009E4908700020FFF78FF8A04988719B48C7
:103840000078032840D19E4800689E490968884254
:1038500004D2002201210846FEF734FE00209A49D6
:1038600008709A4908709A4800210180994801809F
:1038700081709948006836F06DFE33F0CDFE9748B0
:1038800001780020FEF7FFF9FDF75AF9804616F09F
:1038900036FE19E0FFE7002201210846FEF712FE7E
:1038A00000208949087089490870894800210180F1
:1038B0008848018081708848006836F04BFE33F0FC
:1038C000ABFE0E207949087007B0BDE8F08F2DE9F6
:1038D000F04F85B004460F4615461E46744890F8D2
:1038E0002F0002282BD1642094FBF0F000F0FF0A97
:1038F000642094FBF0F100FB114000F0FF0B5246F6
:103900000221584619F0FFF800F0FF08FDF718F9FA
:103910000490642094FBF0F100FB114000F0FF09DB
:10392000642094FBF0F0C0B20390049A2B46CDE9DA
:10393000012800974A460146304615F081FF05B040
:10394000BDE8F08F10B5FDF7FBF8D8B1FFF70AFA24
:103950004FF4C87037F03EF800205B4908705B49AF
:1039600008705B48002101805A48018081705A48E4
:10397000006836F0EFFD33F04FFEFEF770FD0E20CD
:103980004A490870002202210846FEF79BFDC82024
:1039900037F020F821F0DAFD4FF4C87037F01AF84C
:1039A000002201210846FEF78DFD10BDFEB54048FE
:1039B00090F8260010B1FEF782FD60BBFDF7C0F85D
:1039C00050B3FEF790FC37F0B3F80546014644A02B
:1039D00014F030FBFDF7B4F80546FDF7B1F80646E4
:1039E000012100231E22CDE9010500911946022084
:1039F00014F04AFC4FF4C87036F0ECFFFFF7B2F950
:103A000004461CB12046FEF7C5FC01E0FEF79BFC16
:103A10000E20264908701CE0FEF765FCAFF6E000BA
:103A200014F008FB0021084614F06EF8204890F8C6
:103A30003400012805D100231A461946184614F00F
:103A4000CDFB0020294908601D4908600E20174958
:103A50000870FEBD2DE9F04104460025FEF7CAFBC3
:103A600037F066F806460146AFF2704014F0E2FA0D
:103A7000642094FBF0F0C6B2642094FBF0F100FBEC
:103A80001140C7B23246012138460CF0AFF8054666
:103A9000FDF756F860B30320044908700020FEF7D4
:103AA0005BFF064988710148007822E01B00001086
:103AB000D4060010380000102C0000105809001027
:103AC000240000103C000010190000101A00001023
:103AD00017000010140000109400001039000010AE
:103AE0000D0A204170705475692564002000001093
:103AF00028E003283FD1FF480068FF490968884251
:103B000004D2002201210846FEF7DCFC0020FB491C
:103B10000870FB490870FB4800210180FA480180C9
:103B20008170FA48006836F015FD33F075FDF848ED
:103B300001780020FEF7A7F8FDF702F8064616F018
:103B4000DEFC18E0002201210846FEF7BBFC002045
:103B5000EA490870EA490870EA4800210180EA4809
:103B600001808170E948006836F0F4FC33F054FDC0
:103B70000E20E84908702846BDE8F08170B504467B
:103B80000025FCF7DDFF0546E3480460FCF7D8FF9D
:103B900090B30320DF4908700020FEF7DDFEDF4907
:103BA0008871DC480078032841D1D2480068D249A6
:103BB0000968884204D2002201210846FEF782FCEF
:103BC0000020CE490870CE490870CE4800210180FF
:103BD000CD4801808170CD48006836F0BBFC33F0E1
:103BE0001BFDCB4801780020FEF74DF8FCF7A8FF3D
:103BF000064616F084FC1AE0FFE700220121084681
:103C0000FEF760FC0020BD490870BD490870BD4842
:103C100000210180BC4801808170BC48006836F0FA
:103C200099FC25B133F0F8FC0E20BA49087070BD3C
:103C3000F0B591B005460024202109A83CF036F8E3
:103C4000202101A83CF032F80520B4494871FCF766
:103C500077FF08B9FCF743FF2C46B14890F82700DE
:103C6000F0B3012826D002286ED1642094FBF0F135
:103C700000FB114694FBF0F7A9480096807800EB12
:103C80008000A84901EBC0003B46A749C26809A8CB
:103C90003BF0D8FC642094FBF0F100FB114694FB50
:103CA000F0F7A04800963B469F49426B01A83BF0C5
:103CB000C9FC49E00A2094FBF0F084B20A2094FB8E
:103CC000F0F100FB114694FBF0F7954800968078E0
:103CD00000EB8000934901EBC0003B46924900E0B5
:103CE00015E00C31C26809A83BF0ACFC0A2094FB3B
:103CF000F0F100FB114694FBF0F78A4800963B4632
:103D000089490C31426B01A83BF09CFC1CE064200B
:103D100094FBF0F68248807800EB8000814901EB4B
:103D2000C000334680491431C26809A83BF08AFCC0
:103D3000642094FBF0F67B4833467B491431426B98
:103D400001A83BF07FFC00BF00BFAFF25473AFF29D
:103D5000587201A909A8FCF7F5FB4FF4167036F06C
:103D600039FE6E48407978B9FCF7EAFE18B10320B5
:103D70006849087006E0FCF7CFFEFCF725FC002040
:103D800064490870FEF716FC62480078032805D1E4
:103D90005F4801780020FDF776FF06E05D48007877
:103DA00018B933F039FCFEF705FC11B0F0BD10B5C1
:103DB00092B0044620210AA83BF078FF202102A8F7
:103DC0003BF074FFFCF7BCFE10B10020FFF7D6FEFD
:103DD000224656A10AA83BF035FC224653A102A870
:103DE0003BF030FC02AB4E480093837800220E215A
:103DF000502034F0D6F912B010BD88B000200790E2
:103E0000002400250690059044498870C870087108
:103E1000487134F0CEFD38B1022211461046FEF74B
:103E200051FB13203B49087001200FF0FCF9404979
:103E300008603B4890F89800012802D116F040FA3B
:103E400002E0012016F028FA012034F02FFE33F0B2
:103E5000E3FBF9E32F4800783BF0CBFA2D480078DC
:103E6000142846D2DFE800F00AC7FEFDFCFBFAF991
:103E7000F8F7F6F5F4F3F2F1F0EFEEED2D48006807
:103E8000C82802D900202B4908602448807830B91E
:103E9000052022498870FCF7A3FB15F00EF805A950
:103EA000002016F0F2FC07909DF81C0098B19DF8D8
:103EB0001C003C2803D09DF81C003E2805D10020A2
:103EC0000E4908700E49087005E005201349487135
:103ED0000120104908701148007920B905200F49C8
:103EE0000871FEF7CCFBFEF755FD0446012C42D1CC
:103EF00022E0EAE2240000103C000010190000104B
:103F00001A00001017000010140000109400001098
:103F1000390000101B0000102C0000105809001080
:103F2000D40600101801001030270000257300008F
:103F3000400000104800001012F0C1FF33F06CFB8D
:103F4000FF4801782846FDF79EFEFCF7F9FD07467D
:103F50000146FCA013F05EFF13F058FB2846FEF765
:103F6000FBFCFD498871FCF7EBFD074616F0C7FA2C
:103F70000320FA490870F848C078F0B90520F649DE
:103F8000C87012F0BFFF13F04DF8A0B10020F24945
:103F9000887015F023F9642036F01CFD33F03CFBEB
:103FA000022211461046FEF78DFAFEF703FB0F20A2
:103FB000EA49087001E015F0C2FB34F0FAFC38B1B0
:103FC000022211461046FEF77DFA1320E3490870DD
:103FD000012012F015FAFCF7B3FD074614F004FABD
:103FE00034F050FD07461BF079FA00201BF08DFAE3
:103FF00016F0A6FC69E29DF81C0080B19DF81C102B
:10400000D7A013F0F5FF0520D3494871FCF798FDC0
:1040100008B9FCF764FD05A907A8FCF79DFD05A9F3
:10402000012016F032FC0790CB48407928B9432094
:10403000079002200590FEF7BDFAC84800780328D3
:1040400011E0B0E396E385E359E307E3D5E2C4E288
:104050008FE23BE210E1F2E0C8E0A3E0A1E09DE0E6
:104060009BE039E00EE005D1B54801782846FDF720
:104070000AFE06E0B948007818B933F0CDFAFEF729
:1040800099FA22E29DF81C0050B11420B2494871FF
:10409000FCF756FD08B9FCF722FD07A8FDF7E0F98B
:1040A00005A9012016F0F1FB0790AB48407918B93B
:1040B0004320079002200590A8480078032805D1E6
:1040C0009F4801782846FDF7DEFD04E0A34800780C
:1040D00008B933F0A1FAF6E3FEF75CFC0446012CC4
:1040E00015D1974801782846FDF7CDFD2846FEF703
:1040F00033FC99498871FCF723FD074616F0FFF958
:10410000FCF71EFD074601468EA013F083FE05A9AD
:10411000002016F0BAFB07909DF81C0058B19DF8DE
:104120001C1093A013F064FF05208B4948710120F7
:104130008A490870C7E312F099FE10B9FFF724F816
:1041400078B18F48407808B1012D0AD18D480068B8
:1041500038B9002202210846FEF7B4F90D207F4944
:104160000870894890F82E00FF2809DA84484078C2
:1041700008B1012D04D18348006808B9FFF712F88F
:10418000022C02D10E2075490870FCF7D9FC0746B5
:1041900014F02AF916F0D4FB95E394E3FEF787FEBA
:1041A00091E390E379480068FDF710FF2846FEF799
:1041B000D3FB69498871032068490870002074495D
:1041C00008707449087074480021018073480180A8
:1041D00081707348006836F0BDF900206B490860B3
:1041E000574801782846FDF74EFD6CE3FDF752FF76
:1041F000FCF7A6FCF8B12846FEF7AEFB56498871DD
:104200000320564908700020614908706149087010
:104210006148002101806148018081706048006828
:1042200036F098F900205949086045480178284639
:10423000FDF729FD02E00E204849087043E3FDF731
:104240007AFF032045490870002051490870514900
:104250000870514800210180504801808170504809
:10426000006836F077F90020484908603448017842
:104270002846FDF708FD26E3002202210846FEF746
:1042800021F9FDF781FF47480088642190FBF1F098
:10429000C7B24448008890FBF1F201FB120000F025
:1042A000FF083A46012140460BF0A0FC0690069814
:1042B000012844D135480068FEF7CEFE3148006839
:1042C00060B1394801780078401C374B18700223E0
:1042D000324A2E48006813F0ECF910E032480178B9
:1042E0000078401C304B187000232C4A2748006887
:1042F00013F0DFF92548006880B21AF0AAFE2948B9
:104300000088642190FBF1F000F0FF0A2548008846
:1043100090FBF1F201FB120000F0FF0B524602216C
:10432000584618F0F0FBC7B2FCF70AFC04901D4891
:104330000088642190FBF1F201FB120036E04CE0B2
:10434000390000100D0A2041707032616D6F756E7A
:10435000743D256C64000000580900101B0000101B
:104360000D0A204170704B6579323D2564000000D4
:104370000D0A204170704B6579313D2564000000C5
:104380009C0700102C000010D40600103400001010
:10439000190000101A00001017000010140000107F
:1043A00094000010300000103800001000F0FF08EA
:1043B000FD48008890FBF1F000F0FF09FB48049AEB
:1043C000016800238DE8860042464946184615F0EC
:1043D00037FA0B20F649087074E0F648006828B1F7
:1043E000F5A013F07DFD02201AF0EEFDF74890F8DD
:1043F0002F00012804D0F54890F82F0003282CD175
:10440000E9480088642190FBF1F000F0FF0AE648DB
:10441000008890FBF1F201FB1200C7B25246022164
:10442000384618F070FB00F0FF09FCF789FB834663
:10443000DD480088642190FBF1F201FB120000F0DE
:10444000FF08DA48016800234246CDE901B900912E
:104450000121992015F0F4F931E0D3480088642156
:1044600090FBF1F000F0FF0ACF48008890FBF1F2DA
:1044700001FB120000F0FF0B52460221584618F0D3
:1044800042FBC7B2FCF75CFB0490C748008864217C
:1044900090FBF1F201FB120000F0FF08C248008817
:1044A00090FBF1F000F0FF09C048049A0168002376
:1044B0008DE8860042464946022015F0C1F90C20DD
:1044C000BB4908700020B9490860FCE1FDF7BAFE5D
:1044D000BF48007801283CD1FCF732FBC0B3032071
:1044E000B349087001252846FEF736FAB9498871A4
:1044F000AF48007803283BD1B7480068B74909683E
:10450000884204D2002201210846FDF7DBFF00208B
:10451000B3490870B3490870B34800210180B3481B
:1045200001808170B248006836F014F833F074F8F6
:10453000B04801782846FDF7A6FBFCF701FB0746CB
:1045400015F0DDFF05A9002016F09FF907900FE098
:10455000FFE7FCF7F5FA40B1A64801782846FDF7D9
:1045600092FB0D209249087002E00E2090490870DD
:10457000A9E1FDF78FFEFCF7E3FA68B303208C494D
:10458000087001252846FEF7E7F9924988718848A6
:104590000078032820D19048006890490968884233
:1045A00004D2002201210846FDF78CFF00208C492F
:1045B00008708C4908708C48002101808B4801806C
:1045C00081708B48006835F0C5FF33F025F88948C5
:1045D00001782846FDF757FB75E1FDF784FEFEF7ED
:1045E000C1FB06461EB13046FDF7D4FE01E0FDF7E3
:1045F000AAFE0E206E49087065E1FDF730FFFCF75A
:104600008BFA002500207C490870674908807949A9
:10461000087070490871012211461046FDF752FFDB
:10462000002076490870FDF7C5FF01200EF0FBFD64
:104630007349086013F0E7FA644890F8980001287D
:1046400003D115F03DFE03E041E1012015F024FE09
:1046500032F0E2FF00205649087034E15D4880786E
:1046600020B91E205B498870FCF7F9F85948C078DA
:1046700018BB05205749C87012F044FC012011F006
:10468000BFFE12F0CFFC98B900205249887032F07A
:10469000C3FF012211461046FDF714FF642036F0D7
:1046A00099F914F09BFDFDF785FF00204049087043
:1046B000FCF746FA074613F097FE34F07AF910B18A
:1046C00013203B490870FEF765F90446012C15D10B
:1046D00012F0F5FB32F0A0FF464801782846FDF7BE
:1046E000D2FAFCF72DFA07460146AFF2A83013F0D4
:1046F00091FB12F08BFF10202D490870E3E0FEF7CC
:1047000049F90446012C0CD13A4801782846FDF7B6
:10471000BAFAFCF715FA07460146AFF2D83013F0A3
:1047200079FB12F0A3FB50B12248006838B900228F
:1047300002210846FDF7C6FE11201D490870022C13
:1047400002D112201A490870FCF7FAF9074613F053
:104750004BFEB8E0FDF7C7FDFEF704FB06461EB1B1
:104760003046FDF717FE01E0FDF7EDFD1220104980
:104770000870A8E0FDF773FEFCF7CEF900250020D5
:104780001D4908700849088032F046FF00220121C7
:104790000846FDF797FE13F036FAFDF70BFF0F20E2
:1047A000034908708FE02DE0300000103400001045
:1047B0001B0000102C0000100D0A204170704348AF
:1047C0007568756F4661696C00000000D4060010C2
:1047D0009C07001058090010240000103C00001035
:1047E000190000101A00001017000010140000102B
:1047F0009400001039000010380000101C00001058
:1048000040000010002015F047FD324890F82F00BE
:1048100070B1012012F026FE2E4890F8340038B90D
:10482000C82036F0D7F814F0D9FCC82036F0D2F8FA
:1048300000BFFCF785F9074613F0D6FD002008F00D
:1048400069FC34F0B6F80028F3D12349887032F0BF
:10485000E3FE012211461046FDF734FE00201F49F9
:104860000870FDF7A7FE1B4890F82F00B8B1002391
:10487000009301931A4619460520029313F004FD94
:10488000002012F0EFFD134890F8340038B9C8202A
:1048900036F0A0F814F0A2FCC82036F09BF80120F6
:1048A0000EF0C1FC0E4908600A4890F898000128F3
:1048B00002D115F005FD02E0012015F0EDFC00200D
:1048C0000849087000BF00BF022036F083F8FFF7E8
:1048D000C1BA0000D4060010580900101C000010D6
:1048E000400000101B000010F0B585B00026002726
:1048F000FAA103C9CDE9010132F08EFEF9A032F030
:1049000037F9B8E00F23EF220021084633F0E5FD28
:104910000323EF220021084633F0DFFDF7488078BB
:10492000F74951F82030F54800938378002201219F
:10493000082033F036FCF1488178F148143050F803
:104940002130EE480093837800220621302033F096
:1049500028FC0E23EE220D21012032F097FEE748BD
:104960008178E7483C3050F82130E4480093837860
:1049700000220D211C2033F014FC7BE000270024D2
:104980000AE0342101EB0411C8B20023DDA20921A1
:1049900032F0A6FE601CC4B2082CF2DB69E033F0F2
:1049A000D0FF0546F5B3432D02D1002005B0F0BD80
:1049B00003A8855531013431C8B20023D2A20921A0
:1049C00032F08EFE701CC6B2082E4FD10026012791
:1049D000002408E003A8005D01A9095D884200D019
:1049E0000027601CC4B2082CF4DB012F01D1012088
:1049F000DCE70E23EE220D21012032F047FEBF48F6
:104A00008178BF48283050F82130BC480093837823
:104A100000220D21302033F0C4FB4FF4C87035F074
:104A2000D9FF00E022E00E23EE220D21012032F01A
:104A30002DFEB2488178B2483C3050F82130AF4862
:104A40000093837800220D21302033F0AAFB00244C
:104A50000AE0342101EB0411C8B20023A9A2092104
:104A600032F03EFE601CC4B2082CF2DB052035F0AB
:104A7000B1FF94E782E745E738B532F0CDFD0F236B
:104A8000EF220021084633F028FD0323EF22002106
:104A9000084633F022FD4CE00E23EE2204210120D3
:104AA00032F0F4FD95488078984951F820309348C9
:104AB0000093837800220121082033F072FB8F4895
:104AC00081789248143050F821308C4800938378D4
:104AD000002207213C2033F064FB884881788B4812
:104AE000283050F8213085480093837800220B212C
:104AF000282033F056FB8148817884483C3050F8B8
:104B000021307E480093837800220B218C2033F0E3
:104B100048FB0DE033F015FF0446432C01D1002083
:104B200038BD452C01D10120FAE70A2035F052FFAB
:104B3000F0E7B1E770B50026704890F8220002282F
:104B400073D17348406F7249B1F8C010484370493F
:104B50008A6FB1F8C21002FB01016D48C26FB0F854
:104B6000C40002FB00116A48D0F88020B0F8C600EB
:104B700002FB00116648D0F88420B0F8C80002FBA0
:104B800000116348D0F88820B0F8CA0002FB001179
:104B90005F48D0F88C20B0F8CC0002FB00115C48D4
:104BA000D0F89020B0F8CE0002FB00115848D0F8A1
:104BB0009420B0F8D00002FB00115548D0F898209E
:104BC000B0F8D20002FB00115148D0F89C20B0F898
:104BD000D40002FB00114E48D0F8A020B0F8D60057
:104BE00002FB00114A48D0F8A420B0F8D80002FB1C
:104BF00000114748D0F8A820B0F8DA0002FB0011F5
:104C00004348D0F8AC20B0F8DC0002FB001140486B
:104C1000D0F8B020B0F8DE0002FB0015374890F85D
:104C20002500022812D100240EE018E0394850F87F
:104C3000240038B1374850F824101C3030F81400E4
:104C400001FB0055601CC4B2072CEFDB2B48D0F8E9
:104C5000C000A84201D901260FE000260DE0274838
:104C600090F82200012803D112F0C4FA064604E0AD
:104C7000224890F8220000B90026304670BD70B579
:104C8000044600251D4890F82F00022817D1012C5A
:104C90000BD112F0C4F9054612F0C1F906460246DE
:104CA00029461DA013F0C6F909E0022C07D12048BF
:104CB00090F8BC5090F8BC101EA013F0BBF9284629
:104CC00070BD0146012902D0022949D142E00B48BA
:104CD00080781F4A52F8200070470000383337317F
:104CE00038353537456E74657253656C6643686553
:104CF000636B46756374696F6E0D0A00D40600100D
:104D0000C01304005F0000002A000000101404001B
:104D1000200800102C0900100D0A2041707020504E
:104D2000434572726F725363616C653D2564000088
:104D30006C0900100D0A20417070205043457272BA
:104D40006F724F66664C696E653D25640000000019
:104D5000841D0400FF488278FF4850F82200704705
:104D6000FC488278FC48143050F82200F7E700B580
:104D70008BB000200A900320099032F04DFC0F23E5
:104D8000EF220021084633F0A8FB0323EF22002185
:104D9000084633F0A2FBE5E30E23EE2204210120B6
:104DA00032F074FC032009900A980A287ED2DFE8CA
:104DB00000F005D5FEFDFCFBFAF9F8F70123E54804
:104DC0008178E64850F82120E5A1E2488DE80E0000
:104DD00080780346002201210790082033F0E1F992
:104DE000DC4890F8230002287ED1DF488078A0B10B
:104DF000D8488178D948143050F82130D5480093EC
:104E0000807807900998801CC0B209900690002213
:104E100001460520079B33F0C4F9D348C078A0B100
:104E2000CC488178CD48283050F82130C9480093CB
:104E3000807807900998801CC0B2099006900022E3
:104E400001460520079B33F0ACF9C7480079A0B1B3
:104E5000C0488178C1483C3050F82130BD480093AB
:104E6000807807900998801CC0B2099006900022B3
:104E700001460520079B33F094F9BB484079A0B167
:104E8000B4488178B548503050F82130B14800938B
:104E9000807807900998801CC0B209900690002283
:104EA00001460520079B33F07CF900E0A4E2AE4800
:104EB0008079A0B1A7488178A848643050F82130A3
:104EC000A4480093807807900998801CC0B209908C
:104ED0000690002201460520079B33F062F9A248A4
:104EE000807808B9A04800E019E0C078B8B99E48B9
:104EF0000079A0B99C48407988B99B48807970B9FD
:104F000094488178994850F82130924800938078ED
:104F10000346002207210790052033F042F98D480F
:104F200080788E49283951F8200006903AF0ACFD7F
:104F3000C000C0F1E700C0B207908648817887487A
:104F4000283850F8213083480093807803460022A7
:104F50000D210690079833F024F94DE202237D4895
:104F600081787E4850F821207DA17A488DE80E0096
:104F700080780346002201210790082033F011F9C0
:104F8000744890F8230002287ED17748C079E8B1B0
:104F9000704881787148783050F821306D4807E0CA
:104FA000FEE3FEE3FEE3ABE3FAE226E26DE191E02D
:104FB0000093807807900998801CC0B209900690F1
:104FC000002201460520079B33F0EBF86648007A83
:104FD000A0B16048817861488C3050F821305D483C
:104FE0000093807807900998801CC0B209900690C1
:104FF000002201460520079B33F0D3F85A48407A37
:10500000A0B1544881785548A03050F8213051481B
:105010000093807807900998801CC0B20990069090
:10502000002201460520079B33F0BBF8FFF782FD05
:10503000A0B1484881784948B43050F821304548FB
:105040000093807807900998801CC0B20990069060
:10505000002201460520079B33F0A3F84248C0799F
:1050600090B94148007A78B93F48407A60B9FFF773
:1050700061FD48B9374881783C4850F821303548BF
:1050800000938078034600E005E0002207210790A6
:10509000052033F086F82F4881783048143850F8CE
:1050A000210006903AF0F0FCC000C0F1E700C0B269
:1050B0000790284881782948143850F8213025482D
:1050C00000938078034600220D210690079833F064
:1050D00068F891E101231F4881782048C83050F8D2
:1050E00021201FA11B488DE80E0080780346002276
:1050F00001210790082033F054F8164890F8210059
:1051000002287ED11848807AA0B1124881781348CD
:10511000DC3050F821300F480093807807900998D0
:10512000801CC0B209900690002201460520079B12
:1051300033F037F80C48C07A18B30648817807482E
:10514000F03050F821300348009380780790099898
:10515000801C0DE0D4060010981D040028150400E2
:1051600025732D256400000064480010C018040059
:10517000C0B209900690002201460520079B33F03B
:1051800010F8F948007B98B1F8488178F84850F851
:105190002130F6480093807807900998801CC0B2AF
:1051A00009900690002201460520079B32F0F9FF86
:1051B000ED48407BA0B1ED488178ED48143050F8BF
:1051C0002130EA480093807807900998801CC0B28B
:1051D00009900690002201460520079B32F0E1FF6E
:1051E000E148807BB0B1E1488178E148283050F84F
:1051F0002130DE480093807807900998801CC0B267
:1052000000E025E009900690002201460520079B5A
:1052100032F0C7FFD448807AD0B9D348C07AB8B941
:10522000D148007BA0B9D048407B88B9CE48807B6C
:1052300070B9CE488178CF4850F82130CB480093E0
:1052400080780346002207210790052032F0A9FF4D
:10525000C6488178C84850F8210006903AF014FCFE
:10526000C000C0F1E700C0B20790C0488178C248D2
:1052700050F82130BD4800938078034600220D216C
:105280000690079832F08DFFB6E00223B748817888
:10529000B7483C3850F82120AFF23C11B3488DE8B4
:1052A0000E0080780346002201210790082032F08A
:1052B00078FFAE4890F8210002287ED1AA48C07B32
:1052C000A0B1AA488178AA483C3050F82130A748BC
:1052D0000093807807900998801CC0B209900690CE
:1052E000002201460520079B32F05BFF9E48007CB0
:1052F000A0B19E4881789E48503050F821309B489C
:105300000093807807900998801CC0B2099006909D
:10531000002201460520079B32F043FF9248407C63
:10532000A0B1924881789248643050F821308F487B
:105330000093807807900998801CC0B2099006906D
:10534000002201460520079B32F02BFF8648807C17
:10535000C8B18548C37C827C844881788448783091
:1053600050F8211085A08DE80F00804880780790C4
:105370000998801CC0B209900690002201460520C1
:10538000079B32F00EFF7848C07BB0B97648007CAE
:1053900098B97548407C80B97348807C68B9734877
:1053A0008178744850F82130704800938078034623
:1053B000002207210790052000E001E032F0F1FE15
:1053C0006A4881786C4850F8210006903AF05CFBFE
:1053D000C000C0F1E700C0B2079064488178664819
:1053E00050F82130614800938078034600220D2157
:1053F0000690079832F0D5FE51E25C4881785C480F
:105400008C3050F8213059480093807803460022B0
:1054100001210790082032F0C4FE544890F8220081
:1054200001287ED15048007DF8B14F48007D06909C
:10543000FFF747FC07905648C37D4C4881784C489D
:10544000A03050F8211053A0079A8DE80F0047486C
:10545000807806900998801CC0B2099005900022BF
:1054600001460520069B32F09CFE3F48407DF8B186
:105470003D48407D0690FFF724FC07904448037E9A
:105480003A4881783A48B43050F8211041A0079A40
:105490008DE80F003548807806900998801CC0B2CE
:1054A00009900590002201460520069B32F079FE06
:1054B0002D48807DF8B12C48807D0690FFF701FCD7
:1054C00007903348437E294881782948C83050F8EE
:1054D000211030A0079A8DE80F00244880780690AC
:1054E0000998801CC0B20990059000220146052051
:1054F000069B32F056FE1C48007D90B91A48407D4C
:1055000078B91948807D60B918488178194850F8F1
:105510002130164800938078034600220721079027
:1055200000E002E0052032F03CFE1048817812488D
:1055300050F8210006903AF0A7FAC000C0F1E70049
:10554000C0B20790094881780B4850F821300748CD
:1055500000938078034600220D210690079832F0D0
:1055600020FEB5E3D9E3000064480010D406001023
:105570002C160400C01804001415040025735B25C4
:10558000233032785D5B25233032785D00000000E7
:1055900038480010257325735B25233032785D0071
:1055A0000123FF488178FF4850F82120AFF2504195
:1055B000FB488DE80E008078034600220121079009
:1055C000082032F0EEFDF64890F82D0001282FD18A
:1055D000F548807EA0B1F2488178F248143050F846
:1055E0002130EF480093807807900998801CC0B262
:1055F00009900690002201460520079B32F0D1FD5C
:10560000E948C07EA0B1E6488178E648283050F8E5
:105610002130E3480093807807900998801CC0B23D
:1056200009900690002201460520079B32F0B9FD43
:10563000DD48007FA0B1DA488178DA483C3050F884
:105640002130D7480093807807900998801CC0B219
:1056500009900690002201460520079B32F0A1FD2B
:10566000D148407FA0B1CE488178CE48503050F824
:105670002130CB480093807807900998801CC0B2F5
:1056800009900690002201460520079B32F089FD13
:10569000C548807EB8B9C448C07EA0B9C248007F62
:1056A00088B9C148407F70B9BD488178BF4850F87B
:1056B0002130BB48009380780346002207210790E1
:1056C000052032F06EFDB6488178B94850F82100C7
:1056D00006903AF0D9F9C000C0F1E700C0B20790D7
:1056E000AF488178B24850F82130AD4800938078B7
:1056F000034600220D210690079832F052FDE7E2A2
:105700000223A7488178A74850F82120AFF2B05172
:10571000A3488DE80E0080780346002201210790FF
:10572000082032F03EFDA048807FA0B19C488178DF
:105730009C48643050F82130994800938078079055
:105740000998801CC0B209900690002201460520ED
:10575000079B32F026FD9448C07FA0B19048817825
:105760009048783050F821308D4800938078079029
:105770000998801CC0B209900690002201460520BD
:10578000079B32F00EFD884890F82000C0B1844895
:10579000817884488C3050F821308148009302E0B1
:1057A00015E258E17CE0807807900998801CC0B22F
:1057B00009900690002201460520079B32F0F1FC7B
:1057C000794890F82100A0B1754881787548A030DB
:1057D00050F8213072480093807807900998801C17
:1057E000C0B209900690002201460520079B32F0C6
:1057F000D8FC6D4890F82200A0B1694881786948CA
:10580000B43050F8213066480093807807900998AA
:10581000801CC0B209900690002201460520079B1B
:1058200032F0BFFC6048807FE8B95F48C07FD0B9E4
:105830005D4890F82000B0B95B4890F8210090B91D
:10584000594890F8220070B955488178574850F867
:1058500021305348009380780346002207210790A7
:10586000052032F09EFC4E488178514850F82100C6
:1058700006903AF009F9C000C0F1E700C0B2079005
:10588000474881784A4850F821304548009380784D
:10589000034600220D210690079832F082FC17E2A1
:1058A00003233F4881783F4850F82120AFF25071E0
:1058B0003B488DE80E0080780346002201210790C6
:1058C000082032F06EFC384890F82300A0B134482C
:1058D00081783448C83050F82130314800938078BE
:1058E00007900998801CC0B20990069000220146DA
:1058F0000520079B32F055FC2B4890F82400A0B1FE
:10590000274881782748DC3050F82130244800931C
:10591000807807900998801CC0B2099006900022F8
:1059200001460520079B32F03CFC1F4890F82500FB
:10593000A0B11B4881781D48C83850F8213018485C
:105940000093807807900998801CC0B20990069057
:10595000002201460520079B32F023FC124890F8F4
:105960002600A0B10E4881781048B43850F8213094
:105970000B480093807807900998801CC0B209906A
:105980000690002201460520079B32F00AFC0648DB
:1059900090F82700F8B1024881780448A03809E05F
:1059A000D40600100817040064480010C018040052
:1059B0001415040050F82130FF48009380780790B8
:1059C0000998801CC0B2099006900022014605206B
:1059D000079B32F0E6FBF94890F82300F0B9F7484E
:1059E00090F82400D0B9F54890F82500B0B9F348F4
:1059F00090F8260090B9F14890F8270070B9EE4869
:105A00008178EF4850F82130EB48009380780346C6
:105A1000002207210790052032F0C3FBE648817879
:105A2000E84850F8210006903AF02EF8C000C0F186
:105A3000E700C0B20790E0488178E24850F8213092
:105A4000DD4800938078034600220D2106900798D8
:105A500032F0A7FB3CE10423D7488178DA4850F8BC
:105A60002120AFF60411D4488DE80E00807803465B
:105A7000002201210790082032F093FBCF4890F8D4
:105A80002800A0B1CC488178CD488C3850F821301E
:105A9000C9480093807807900998801CC0B209908B
:105AA0000690002201460520079B32F07AFBC3488E
:105AB00090F82900A0B1C0488178C148783850F8E2
:105AC0002130BD480093807807900998801CC0B2AF
:105AD00009900690002201460520079B32F061FBE9
