:020000040000FA
:1000000000800010CD000000396B0300396B030045
:10001000396B0300396B0300396B0300396B030044
:10002000396B0300396B0300396B03006902000070
:10003000396B030000000000D10200009948030062
:10004000396B0300AB400300814003006F400300A5
:100050005D400300C51C0300951E030075190300D5
:1000600095200300396B030099230300396B0300CB
:10007000396B0300396B0300396B0300396B0300E4
:10008000396B0300396B0300396B0300396B0300D4
:10009000273B0300396B0300396B0300396B030006
:1000A000396B0300396B0300396B0300396B0300B4
:1000B000396B0300396B0300396B0300396B0300A4
:1000C000396B0300396B0300396B030000F002F851
:1000D00000F0BAF80AA090E8000C82448344AAF128
:1000E0000107DA4501D100F0AFF8AFF2090EBAE826
:1000F0000F0013F0010F18BFFB1A43F0010318475C
:10010000BCE40400ECE4040010F8013B0A4413F0E2
:10011000030408BF10F8014B1D1108BF10F8015B64
:10012000641E05D010F8016B641E01F8016BF9D153
:10013000002D15D010F8014B03F00C030C2BA1EB94
:1001400004040ABF10F8013BA4EB8314A4EB0324BE
:1001500005F1010314F8016B5B1E01F8016BF9D581
:10016000914238BF10F8013BD1D3704700230024DF
:1001700000250026103A28BF78C1FBD8520728BFB7
:1001800030C148BF0B6070476E293BF06580702915
:100190003AF04C8466293CF0DC8165293CF0D98139
:1001A00067293CF0D6816129AFF3008003681B0A00
:1001B00028BF41F0800169293AF0BC8364293AF0F4
:1001C000B98375293AF0B6836F293BF057817829B6
:1001D0003AF01884E9293BF0EF80E4293BF0EC8009
:1001E000F5293BF0E980EF293BF05481F8293AF0FA
:1001F00017840368DB0928BF41F0800163293BF0C5
:10020000708073293BF07580E3293BF0C883F329A4
:100210003BF0CD83002070471FB53CF093F99DE87B
:1002200003003AF077FF3BF041FC0400002000217E
:100230003CF06EF9401C6060002000213CF052F957
:10024000E0601FBD10B510BD3BF002FC1146FFF78A
:10025000E3FF00F02CF93BF0E3FC03B4FFF7F2FFFF
:1002600003BC37F0AAF80000052828BF70474FEA02
:1002700080007844D0F802F0D1020000970200001C
:100280003503000055030000750300004FF0010026
:1002900080F3148800DF0A4C4FF001052570774683
:1002A0003AF054FABE46074E3668074C2660D6F838
:1002B00000D001BC05490860BDE8F00F704700BFE1
:1002C00063060010740600106C060010380600105B
:1002D0004FF0080282F3118800B53AF037FA5DF862
:1002E00004EB2DE9F00F0E49086801B40D4A1268BD
:1002F000C2F800D00C4C0D4D2E7826700C4E36688E
:10030000084C2660D6F800D001BC086000280CBF5D
:100310000022082282F31188BDE8F00F704700BF69
:10032000380600106C060010580600105906001020
:10033000740600100649086800F101004FF0080239
:1003400082F31188002808BF70470860704700BF1B
:10035000380600100649086800281CBF01380860EC
:10036000002818BF70474FF0000282F311887047D1
:10037000380600104FF0000080F3148870474FF0EB
:10038000010080F31488704788476FF0FF0035F054
:100390001CFE00001CB5544890F82B2001211820A9
:1003A00033F03AFA09230222CDE900234FA30E21AC
:1003B000282033F00AF91CBD08B500BF33F0E6FB76
:1003C00031F0CEFC31F0B4FD31F06FFB31F0B0FE16
:1003D00033F0BEFF32F09DFA4849002033F032FF7F
:1003E00031F068FF34F032F833F0D0FB00200DF02C
:1003F000F4FD00200DF0E2FBFFF7CCFF31F098FD9B
:100400000CF0DAFB06233E4A00213E4835F03CFD65
:10041000022035F0D3FB3AF093F815F08FFD02205F
:1004200035F0CCFB15F0B2FB022035F0C7FB1CF019
:100430005EFF1DF003F8022035F0C0FB1BF0C3F88F
:100440006A4600213048006836F00CF80EF093FB45
:1004500016F018FD84212D483AF01CFD022035F0DD
:10046000ADFB09232A4A00212A4835F00DFD022060
:1004700035F0A4FB19F050F8022035F09FFB08235B
:10048000254A0021254835F0FFFC022035F096FB77
:1004900018F033FBC82035F091FB07E0002003F093
:1004A0001BFA02E0322035F089FBFBE7F6E700B5E6
:1004B00085B036F046FB36F003FB34F040FB0123F9
:1004C000002219021648CDE90323CDE901010723D3
:1004D000144A0021AFF21F10009335F01DFD34F0D7
:1004E000F1FB002005B000BDB00600107665727308
:1004F000696F6E25642E25303264000080A90300E8
:10050000A4320010252902007C000010180A0010F7
:10051000A4460010550F0300A4420010F578020015
:10052000A80A0010A42A0010F8B505460E46144685
:100530001F460A21002033F025F9022301220B2156
:10054000002033F0EDF8FF480095837800220B215E
:10055000282032F08EFFFB488078012807D0F94828
:100560000096837800220D21282032F082FF204659
:100570003AF07EFBC8B1022301220B21702033F038
:10058000CFF8F0480094837800220B21982032F0B5
:1005900070FFEC488078012807D0EA4800978378FC
:1005A00000220D21982032F064FFF8BD10B5012221
:1005B0000A21002032F092FE03220B21002032F0AB
:1005C0008DFE10BD30B58BB0202103A83AF062FC3F
:1005D000DD4831F08EFE022035F0F0FADB4800787D
:1005E000F0B3D94831F085FE022035F0E7FA022356
:1005F00004220121002033F093F8D548D0F8AC1044
:1006000003A83AF011FB03AB02220121282032F0AB
:10061000DCFFCF48D0F8B41003A83AF005FB03ABD9
:1006200001220321282032F0D0FFC6488078C0EB99
:10063000C00202EB0010C64A02EB8000816D03A8E5
:100640003AF0F2FA03ABBF48009383780022052109
:10065000282032F00EFFBB4890F8BC00012800E0D3
:1006600074E019D1BB4880890A2190FBF1F201FBAB
:100670001204B848808990FBF1F523462A46B6A1BA
:1006800003A83AF0D3F803ABAE4800938378002276
:100690000721282032F0EDFE0A21002033F072F805
:1006A000AF48C088A849C98888420BD1AC48407976
:1006B000A5494979884205D1A948C078A249C97895
:1006C000884222D0A048C288A6A103A83AF0AEF87A
:1006D00003AB02220B21282032F077FF9A48C3781F
:1006E0004279A2A103A83AF0A1F803AB02220D219E
:1006F000282032F06AFF9448C0889949C8809248FF
:10070000407948719048C078C870954880788E4983
:100710008978884205D1924840788B494978884247
:1007200013D089484378827893A103A83AF07EF8E1
:1007300003AB03220B21602032F047FF8248807810
:100740008749887080484078487078E07D48807894
:1007500000EB80008B4A02EBC000816903A83AF0ED
:1007600063FA03AB77480093837800220221482084
:1007700032F07FFE734890F8BC00012819D175480B
:1007800080890A2190FBF1F201FB120471488089F3
:1007900090FBF1F523462A466FA103A83AF046F8EC
:1007A00003AB68480093837800220521AA2032F029
:1007B00060FE6B48C0886449C98888420BD168488C
:1007C000407961494979884205D16548C0785E49D8
:1007D000C978884215D05C48C3784279C1888DE8D1
:1007E0000E0069A302220621502032F0EEFE564888
:1007F000C0885B49C8805448407948715248C078E5
:10080000C8705748807850498978884205D1544843
:1008100040784D494978884211D04B4843788278D6
:10082000CDE9002354A3042208213C2032F0CDFE60
:10083000454880784A4988704348407848700BB0F2
:1008400030BD30B589B0202101A83AF023FB3E48E5
:1008500031F04FFD022035F0B1F9022303220121CE
:10086000002032F05DFF37488078C0EBC00202EB19
:100870000010374A02EB8000C16C01A83AF0D4F9AD
:1008800001AB30480093837800220121282032F008
:10089000F0FD2C488078C0EBC00202EB00102C4A1F
:1008A00052F8201001A83AF0BFF901AB2548009397
:1008B000837800220321282032F0DBFD214890F8C4
:1008C000BC00012819D1234880890A2190FBF1F24C
:1008D00001FB12041F48808990FBF1F523462A464C
:1008E0001DA101A839F0A2FF01AB1648009383783F
:1008F00000220521282032F0BCFD0A21002032F020
:1009000041FF1748C0881049C98888420BD1144854
:1009100040790D494979884205D11148C0780A4982
:10092000C97888424ED00848C2880EA101A839F083
:100930007DFF01AB02220B21282032F046FE024847
:10094000C37829E0B0060010000000101C00001061
:10095000CC0100100450001025642E256420920064
:100960000800001025303464000000002530326497
:100970002D25303264000000253032643A253032B3
:100980006400000004010010253034642D2530324D
:10099000642D2530326400004279AFF2300101A8A5
:1009A00039F044FF01AB02220D21282032F00DFE68
:1009B000FF48C088FF49C880FD4840794871FC481D
:1009C000C078C870FB488078F9498978884205D199
:1009D000F8484078F6494978884214D0F44843787A
:1009E0008278AFF26C0101A839F020FF01AB03223D
:1009F0000B21602032F0E9FDED488078ED498870E8
:100A0000EB484078487009B030BD10B50246012966
:100A100004D0E94B93F89930012B2CD11378412B5A
:100A20000BD15378303B03EB8303642404EB430482
:100A30009378303B234498B228E01378422B0BD1B3
:100A40005378303B03EB8303C82404EB43049378CF
:100A5000303B234498B219E01378303B642463435D
:100A60005478303C04EB840403EB44049378303B2B
:100A7000234498B20AE01378303B03EB83036424E9
:100A800004EB43045378303B234498B210BD30B597
:100A900002460B78303B4FF47A7463434C78303C19
:100AA00004EBC40505EB041403EB84041378303B1A
:100AB00003EB830304EB43045378303B234498B2A5
:100AC00030BD0EB531F010FFB948C3784279C18806
:100AD0008DE80E00AFF2501302221146502032F082
:100AE00074FDB34843788278CDE90023AFF27813E0
:100AF000042211463C2032F068FD0EBD10B50020E6
:100B0000AE490870AE490870AE4800210180AE4879
:100B1000018081700020AD498870AD48006834F0D4
:100B20000DFE10BDAB480068AB4909680844AB49ED
:100B300009680844AA490968084470472DE9F04F3C
:100B400093B006460F4620210BA83AF0A3F92021C6
:100B500003A83AF09FF94FF00008C1460024002591
:100B6000387802281DD13078432802D030784528C3
:100B700017D10020914908709348002101808170AD
:100B8000FFF7D0FF18B103209649087006E0FFF781
:100B9000B5FFFFF70BFD00209249087013B0BDE8C8
:100BA000F08F387802286FD1317884480278007845
:100BB000401C824B1870844881547F48807800EB39
:100BC0008000894A52F830100BA83AF02DF87A4884
:100BD00090F83100012813D17B4800782E2803D1EA
:100BE00041207949087006E077480078442802D10E
:100BF00042207549087074490BA83AF09EF803E04A
:100C000071490BA83AF099F87748816A03A83AF03D
:100C10000BF86D4903A83AF090F8AFF2B423AFF2A5
:100C2000B82203A90BA8FFF77FFC634890F83100B6
:100C3000012804D0604890F89900012877D15F48D6
:100C4000007803281FDB5C4890F83100E8B95E4863
:100C500000782E2813D05C48007844280FD05A48DA
:100C600040782E280BD058484078442807D0564862
:100C700080782E2803D054488078442805D14FF03E
:100C800005084FF00109A1E1DEE04F4840782E2829
:100C90000BD04D484078442807D04B4880782E2808
:100CA00003D049488078442804D14FF005084FF01C
:100CB00001098BE1404890F831104348FFF7A5FE49
:100CC0000446642094FBF0F000F0FF0A642094FBDB
:100CD000F0F100FB114000F0FF0B514658461AF0AE
:100CE0006AFD00F0FF08344890F82F00022827D151
:100CF000642094FBF0F000F0FF0A642094FBF0F114
:100D000000FB114000F0FF0B52465946012017F03E
:100D1000E1FC0020294908702B48002101808170E6
:100D2000FFF700FF20B103202E49087007E00AE01A
:100D3000FFF7E4FEFFF73AFC00202A4908702DE790
:100D40004FF0010942E11D480078022813DB1E48DC
:100D500000782E280BD01C480078442807D01A4869
:100D600040782E2803D018484078442804D14FF00A
:100D700005084FF0010929E10F4890F83110124899
:100D8000FFF743FE0446642094FBF0F000F0FF0AF6
:100D9000642094FBF0F100FB114000F0FF0B514682
:100DA00058461AF008FD00F0FF0803481EE0000056
:100DB0000000001008000010B0060010190000101C
:100DC0001A00001017000010140000103409001061
:100DD00094000010200000102400001028000010D3
:100DE0002C0000101B0000100401001090F82F00D0
:100DF000022826D1642094FBF0F000F0FF0A642062
:100E000094FBF0F100FB114000F0FF0B52465946F5
:100E1000012017F05FFC0020FC490870FC4800210D
:100E200001808170FFF77EFE18B10320F949087038
:100E300006E0FFF763FEFFF7B9FB0020F5490870F5
:100E4000ACE64FF00109C1E0387801280AD13278C8
:100E5000012108461AF0D7FB044624B94FF00208D6
:100E60004FF00109B2E0E9480078002804DD4FF0B6
:100E700005084FF00109A9E0E74890F83100012882
:100E800023D14122E14801780078401CDF4B1870E3
:100E9000DF4842540A2094FBF0F03030C2B21846CA
:100EA00001780078401C1870D94842540A2094FBFD
:100EB000F0F100FB11403030C2B2184601780078E2
:100EC000401C1870D24842541AE00A2094FBF0F0FB
:100ED0003030C1B2CD4802780078401CCB4B18703E
:100EE000CB4881540A2094FBF0F100FB11403030D4
:100EF000C2B2184601780078401C1870C4484254A9
:100F0000C548807800EB8000C44A52F830100BA826
:100F100039F08AFEBE490BA839F00FFFBF48816A3D
:100F200003A839F081FEBA4903A839F006FFAFF2F1
:100F3000C853AFF2CC5203A90BA8FFF7F5FAB64895
:100F400090F83110B248FFF760FD0446642094FB2E
:100F5000F0F000F0FF0A642094FBF0F100FB114078
:100F600000F0FF0B514658461AF025FC00F0FF0830
:100F7000A94890F82F00022826D1642094FBF0F0B5
:100F800000F0FF0A642094FBF0F100FB114000F038
:100F9000FF0B52465946012017F09CFB00209B494D
:100FA00008709B48002101808170FFF7BBFD18B1DC
:100FB00003209849087006E0FFF7A0FDFFF7F6FA56
:100FC000002094490870E9E54FF00109B9F1000FDC
:100FD0007ED0B8F1060F33D2DFE808F09463033314
:100FE000046200BF8C48807800EB80008B4A02EBE3
:100FF000C00041690BA839F017FE8848C16B03A8EF
:1010000039F012FEAFF2A063AFF2A46203A90BA8FD
:10101000FFF78AFA4FF4C87034F0D0FDFFF782FD75
:1010200038B17B4800210180817003207949087024
:1010300006E0FFF763FDFFF7B9FA00207549087075
:1010400049E17548807800EB8000744A02EBC000EB
:1010500001690BA839F0E8FD7048816B03A839F0ED
:10106000E3FDAFF2FC63AFF2007203A90BA8FFF738
:101070005BFA4FF4C87034F0A1FDFFF753FD38B1AF
:10108000634800210180817003206249087006E0F6
:10109000FFF734FDFFF78AFA00205E4908701AE175
:1010A00000BF5D48807800EB80005C4A02EBC00026
:1010B00041680BA839F0B8FD5848C16A03A839F057
:1010C000B3FDAFF25C73AFF2607203A90BA800E04E
:1010D00005E1FFF729FA4FF4C87034F06FFDFFF710
:1010E00021FD38B14A48002101808170032049491F
:1010F000087006E0FFF702FDFFF758FA00204549A7
:101100000870E8E0642094FBF0F000F0FF0A64202F
:1011100094FBF0F100FB114000F0FF0B524601215F
:1011200058461AF050FB3E490860084605683A48A0
:1011300090F82700A8B3012834D0022830D16420C9
:10114000B5FBF0F100FB115AB5FBF0FB324880789B
:1011500000EB8000314901EBC000C1682E48CDE9A9
:1011600001BA0091807800EB80002C4901EBC000AF
:10117000274B2CA1C2690BA839F058FB6420B5FBA2
:10118000F0F100FB115AB5FBF0FB2448416BCDE9AF
:1011900001BA00911E4B23A1426C03A839F046FB13
:1011A00079E051E00A20B5FBF0F5B5FBF0F100FB6A
:1011B000115AB5FBF0FB1848807800EB8000174906
:1011C00001EBC000C1681448CDE901BA00918078F4
:1011D00000EB8000114901EBC0000D4B16A1C26964
:1011E0000BA839F023FB0A20B5FBF0F100FB115AE4
:1011F000B5FBF0FB0948416BCDE901BA0091044B06
:101200000DA1426C03A839F011FB44E01900001055
:10121000140000101B000010B006001004010010A4
:101220003400001025732025732C2573253032647B
:101230002E2530326400000025732025732C257381
:1012400025642E25640000006420B5FBF0FAF74801
:10125000807800EB8000F64901EBC000C268F348DB
:10126000CDE9002A807800EB800001EBC000F14B53
:10127000F1A1C2690BA839F0D9FA6420B5FBF0FAE4
:10128000EB48426BCDE9002AEA4BEBA1426C03A884
:1012900039F0CCFA00BF00BFAFF63413AFF6381206
:1012A00003A90BA8FFF740F9C82034F087FCFFF72B
:1012B00039FC28B1E34804800520E349087009E0BF
:1012C000C82034F07BFCFFF719FCFFF76FF9002012
:1012D000DD49087000BF00BF0020DC49087000BF76
:1012E0005CE42DE9F04F93B0064620210BA839F0BD
:1012F000D1FD202103A839F0CDFD0027B846B9461D
:1013000000240025307843281BD10020CF490870E5
:10131000CF490870C748002101808170CD48018005
:10132000FFF700FC18B10320C749087006E0FFF77B
:10133000E5FBFFF73BF90020C349087013B0BDE897
:10134000F08FC3480078F0BB3078452829D0327838
:10135000BE4801780078401CBC4B1870BD48425410
:10136000B248807800EB8000BB4A02EB0010816C31
:101370000BA839F059FCB7490BA839F0DEFCB64888
:10138000D0F8981003A839F04FFCB24903A839F0FF
:10139000D4FCAFF62C23AFF6302203A90BA8FFF73D
:1013A000C3F8AA480078022857DBAA4800783028FA
:1013B00039DBA8480078392835DCA6484078302841
:1013C00031DBA44800E099E0407839282BDC01208B
:1013D0009F49087000209D490870964800210180AF
:1013E00081709C490BA839F01FFC9048807800EB75
:1013F0008000994A02EB0010C16C0BA839F09DFCEB
:10140000944903A839F010FC9348D0F89C1003A825
:1014100039F093FCAFF6B023AFF6B42203A90BA8C2
:10142000FFF782F8C1E100208849087088490870F8
:10143000804800210180817086480180FFF772FB9F
:1014400018B103208049087006E0FFF757FBFFF74B
:10145000ADF800207C49087070E73078452832D11B
:101460007C48007830282FDB7A48007839282BDC3C
:101470007848007877494870302008700120744916
:1014800008700020714908706A480021018081704D
:101490006648807800EB80006F4901EB00106D4AD0
:1014A0006EA1C36C0BA839F0C1F96B48694A6BA1F6
:1014B000D0F89C3003A839F0B9F969A368A203A950
:1014C0000BA8FFF731F870E100206049087060490F
:1014D000087058480021018081705E480180FFF744
:1014E00021FB18B103205849087006E0FFF706FBFE
:1014F000FFF75CF80020544908701FE75448007853
:1015000001287ED13078452833D031784F48027891
:101510000078401C4D4B1870464881544D48407827
:1015200030384C490978303901EB810100EB41003A
:1015300000F0FF093F4B3D480093807800EB8000AE
:10154000454901EB00104A4646A1C36C0BA839F08F
:101550006DF9384B404800934A4642A1D0F89C3080
:1015600003A839F063F93EA33DA203A90BA8FEF737
:10157000DBFF36480078022857DB2E4800783028F9
:1015800078DB2C480078392874DC2A4840783028E9
:1015900070DB2848407839286CDC2E492548FFF755
:1015A00076FA0446642094FBF0F000F0FF0A642011
:1015B00094FBF0F100FB114000F0FF0B5146584640
:1015C0001AF0F9F8C7B2194890F82F0002284ED146
:1015D000642094FBF0F000F0FF0A642094FBF0F12B
:1015E00000FB114000F0FF0B52465946012017F056
:1015F00071F8002015490870154908700D48002140
:1016000000E0AAE00180817012480180FFF78AFAA9
:1016100018B103200C49087006E0FFF76FFAFEF7D7
:10162000C5FF00200849087088E63DE0B0060010BC
:10163000040100101400001025732025732C25735D
:1016400025640000300000101B000010190000107D
:101650001A0000101700001098030010257325735E
:1016600000000000256425732573000002E04FF0A0
:1016700001089AE00020FF490870FF490870FF4800
:10168000002101808170FE480180FFF74BFA18B1FC
:101690000320FC49087006E0FFF730FAFEF786FFEA
:1016A0000020F849087049E6307845287DD1F34894
:1016B0000078302852DBF148007839284EDCEF48BA
:1016C0000078EE49487030200870ED49EB48FFF78C
:1016D000DEF90446642094FBF0F000F0FF0A642079
:1016E00094FBF0F100FB114000F0FF0B514658460F
:1016F0001AF061F8C7B2E44890F82F0002282AD106
:10170000642094FBF0F000F0FF0A642094FBF0F1F9
:1017100000FB114000F0FF0B52465946012016F025
:10172000D9FF0020D3490870D3490870D34800215D
:1017300001808170D2480180FFF7F4F918B10320CD
:10174000D049087006E0FFF7D9F9FEF72FFF002017
:10175000CC490870F2E54FF0010826E00020C549A9
:101760000870C648002101808170C748807800EB6E
:101770008000C64901EB0010C14AAFF22011C36CD2
:101780000BA839F053F8C148BD4AAFF23011D0F878
:101790009C3003A839F04AF8AFF23C13AFF2401284
:1017A00003A90BA8FEF7C0FEC8E5B8F1000F73D07F
:1017B000062F3AD2DFE807F0A872033A047100BF9F
:1017C000B148807800EB8000B14A02EBC00041696B
:1017D0000BA839F029FAAE48C16B03A839F024FAF6
:1017E000AFF28413AFF2881203A90BA8FEF79CFE98
:1017F0004FF4C87034F0E2F9FFF794F970B10020AB
:101800009C4908709C4908709D48002101809B48B4
:101810000180817003209B49087006E0FFF76EF994
:10182000FEF7C4FE00209749087052E19648807880
:1018300000EB8000964A02EBC00001690BA839F06A
:10184000F3F99348816B03A839F0EEF9AFF2F01386
:10185000AFF2F41203A90BA8FEF766FE4FF4C870AE
:1018600034F0ACF9FFF75EF970B1002081490870DF
:101870008149087082480021018080480180817080
:1018800003208049087006E0FFF738F9FEF78EFE66
:1018900000207C4908701CE121E100BF7A48807873
:1018A00000EB80007A4A02EBC00041680BA839F0D7
:1018B000BBF97748C16A03A839F0B6F9AFF26023E3
:1018C000AFF2642203A90BA8FEF72EFE4FF4C870F6
:1018D00034F074F9FFF726F970B1002065490870FB
:1018E0006549087066480021018064480180817064
:1018F00003206449087006E0FFF700F9FEF756FE82
:10190000002060490870E4E0642094FBF0F000F0EF
:10191000FF0A642094FBF0F100FB114000F0FF0B84
:1019200052460121584619F04EFF5A4908600846B0
:101930000568554890F82700B8B3012836D002282A
:1019400032D16420B5FBF0F100FB115AB5FBF0FB7E
:101950004D48807800EB80004D4901EBC000C16824
:101960004948CDE901BA0091807800EB80004849F0
:1019700001EBC000414BAFF25471C2690BA838F0C3
:1019800055FF6420B5FBF0F100FB115AB5FBF0FBED
:101990003F48416BCDE901BA0091384BAFF27C7101
:1019A000426C03A838F042FF5FE035E00A20B5FB47
:1019B000F0F5B5FBF0F100FB115AB5FBF0FB324836
:1019C000807800EB8000324901EBC000C1682E48EE
:1019D000CDE901BA0091807800EB80002C4901EB41
:1019E000C000264BAFF2B071C2690BA838F01EFFE1
:1019F0000A20B5FBF0F100FB115AB5FBF0FB2448BF
:101A0000416BCDE901BA00911C4BAFF2D471426C2D
:101A100003A838F00BFF28E06420B5FBF0FA1A4861
:101A2000807800EB80001A4901EBC000C2681648BC
:101A3000CDE9002A807800EB800001EBC0000F4B5D
:101A4000AFF20C41C2690BA838F0F0FE6420B5FB80
:101A5000F0FA0F48426BCDE9002A084BAFF228415B
:101A6000426C03A838F0E2FE00BF00BFAFF21043A3
:101A700012E00000190000101A00001014000010FD
:101A8000170000101B000010B00600109803001093
:101A90000401001034000010AFF23C4203A90BA86F
:101AA000FEF742FDC82034F089F8FFF73BF828B173
:101AB000FF4804800520FF49087009E0C82034F081
:101AC0007DF8FFF71BF8FEF771FD0020F94908705B
:101AD00000BF00BF0020F8490870F849087000BF37
:101AE0002CE42DE9F041A4B006460D4620211CA8A7
:101AF00039F0D0F9202114A839F0CCF920210CA814
:101B000039F0C8F9202104A839F0C4F9022034F0D2
:101B100055F8FFF707F80446EEBBE948807801283E
:101B200014D0E848036DE648807800EB8000E54972
:101B300001EB0010E4A10268E1488DE80E00837813
:101B4000002202214C2031F094FC0CE0DD48AFF281
:101B5000E842036DDA48CDE90023837800220221B0
:101B6000602031F086FC04221146002031F0B6FBE3
:101B7000D348807828B90223002205212C2031F097
:101B8000CFFDCF4890F8270048B3012814D0022891
:101B900031D1642000E05CE0B4FBF0F100FB1147C0
:101BA000B4FBF0F8AFF67C13042211464C20CDE9CB
:101BB000008731F00AFD1EE00A20B4FBF0F4B4FB0C
:101BC000F0F100FB1147B4FBF0F8AFF68C130422E0
:101BD00011464C20CDE9008731F0F7FC0BE0642082
:101BE000B4FBF0F7AFF2A853042211464C20009743
:101BF00031F0EBFC00BF00BF012D11D1B04880785F
:101C000000EB8000AF4A02EB0010816C1CA839F099
:101C10000BF8AC48D0F8981014A839F005F80FE08C
:101C2000A748807800EB8000A64A02EB001001690B
:101C30001CA838F0F9FFA348016E14A838F0F4FF8F
:101C4000AFF2E453AFF2E85214A91CA8FEF76CFC03
:101C5000ACE09B488078012814D09A48436D98489E
:101C6000807800EB8000974901EB001096A1426854
:101C700093488DE80E008378002202214C2031F039
:101C8000F8FB12E08E48807800EB80008D4901EB74
:101C90000010AFF22C6243688948CDE900238378B5
:101CA00000220221602031F0E4FB042211460020D2
:101CB00031F014FB8248807828B9022300220521E4
:101CC0002C2031F02DFD7E4890F8270038B30128F4
:101CD00012D002282FD16420B4FBF0F100FB114791
:101CE000B4FBF0F8AFF6BC23042211464C20CDE93A
:101CF000008731F06AFC1EE00A20B4FBF0F4B4FB6C
:101D0000F0F100FB1147B4FBF0F8AFF6CC2304224E
:101D100011464C20CDE9008731F057FC0BE06420E0
:101D2000B4FBF0F7AFF2E863042211464C200097B1
:101D300031F04BFC00BF00BF012D11D1604880780D
:101D400000EB80005F4A02EB0010816C1CA838F0A9
:101D50006BFF5C48D0F8981014A838F065FF1FE0BE
:101D60005748807800EB8000564A02EB001041692A
:101D70001CA838F059FF5348416E14A838F054FF9E
:101D80004F48807800EB80004E4A02EB00108169DA
:101D90000CA838F049FF4B48816E04A838F044FF86
:101DA00004AB0CAA14A91CA8FEF7BEFB24B0BDE826
:101DB000F08100B591B0202109A839F06BF82021FD
:101DC00001A839F067F83E48807800EB80003D4A72
:101DD00002EB0010816809A838F026FF3948816DB0
:101DE00001A838F021FFAFF28873AFF28C7201A91D
:101DF00009A8FEF799FB11B000BD70B598B0044674
:101E0000202110A839F046F8202108A839F042F81E
:101E10002021684639F03EF82948807800EB8000A0
:101E2000284A02EB0010C168684638F0FDFE2548DC
:101E3000C16D08A838F0F8FE214890F8270018B3C3
:101E4000012810D0022829D16420B4FBF0F100FB56
:101E50001145B4FBF0F62B463246AFF6304110A8E0
:101E600038F0E4FC1AE00A20B4FBF0F4B4FBF0F123
:101E700000FB1145B4FBF0F62B463246AFF640416D
:101E800010A838F0D3FC09E06420B4FBF0F52A4632
:101E9000AFF6540110A838F0C9FC00BF00BF10A96C
:101EA000684638F04AFFAFF64803AFF64C020FE041
:101EB000300000101B000010190000101A00001064
:101EC000B00600109803001025732F257300000042
:101ED00008A96846FEF728FB4FF4C87033F06EFE81
:101EE00018B070BD00B591B0202109A838F0D2FF1C
:101EF000202101A838F0CEFFFE48807800EB80005A
:101F0000FD4A02EB0010816B09A838F08DFEFA48FB
:101F1000D0F8881001A838F087FEAFF6BC03AFF602
:101F2000C00201A909A8FEF7FFFA4FF4C87033F008
:101F300045FE11B000BD00B591B0202109A838F0D0
:101F4000A9FF202101A838F0A5FFEA48807800EB1E
:101F50008000E94A02EB0010C16B09A838F064FE6A
:101F6000E548D0F88C1001A838F05EFEAFF61013EB
:101F7000AFF6141201A909A8FEF7D6FA142033F01F
:101F80001DFE11B000BD00B591B0202109A838F0A8
:101F900081FF202101A838F07DFFD648807800EB32
:101FA0008000D54A02EB0010016C09A838F03CFE15
:101FB000D148D0F8901001A838F036FEAFF6601383
:101FC000AFF6641201A909A8FEF7AEFA4FF4C87083
:101FD00033F0F4FD11B000BD10B590B0202108A879
:101FE00038F058FF2021684638F054FFC348008875
:101FF000642190FBF1F201FB1204BE48807800EBF3
:102000008000BD4901EB00102246BDA1C36A08A8AB
:1020100038F00CFCB9480088642190FBF1F201FB18
:102020001204B5482246B6A1C36F684638F0FEFBDD
:10203000AFF6D413AFF6D812694608A8FEF774FAC3
:1020400010B010BD00B591B0202109A838F022FFD2
:10205000202101A838F01EFFA648807800EB800000
:10206000A54901EB0010AFF60021C26A09A838F0BB
:10207000DDFBA148AFF61021C26F01A838F0D6FBF6
:10208000AFF62423AFF6282201A909A8FEF74CFADF
:1020900011B000BD00B591B0202109A838F0FAFEBA
:1020A000202101A838F0F6FE9248807800EB8000ED
:1020B000914A02EB0010016B09A838F0B5FD8E487B
:1020C000D0F8801001A838F0AFFDAFF66C23AFF662
:1020D000702201A909A8FEF727FA642033F06EFDEB
:1020E00011B000BD00B591B0202109A838F0D2FE92
:1020F000202101A838F0CEFE7E48807800EB8000D9
:102100007D4A02EB0010416B09A838F08DFD7A483A
:10211000D0F8841001A838F087FDAFF6BC23AFF6E5
:10212000C02201A909A8FEF7FFF94FF4C87033F0E7
:1021300045FD11B000BD00B591B0202109A838F0CF
:10214000A9FE202101A838F0A5FE6A48807800EB9E
:1021500080006D4A52F8201009A838F065FD6A48E1
:10216000416901A838F060FDAFF60C33AFF61032CC
:1021700001A909A8FEF7D8F911B000BD00B591B0CA
:10218000202109A838F086FE202101A838F082FE1F
:102190005848807800EB80005B4A02EB8000816841
:1021A00009A838F041FD5848C16901A838F03CFD44
:1021B000AFF65433AFF6583201A909A8FEF7B4F9C7
:1021C000642033F0FBFC11B000BD70B592B0044642
:1021D00020210AA838F05EFE202102A838F05AFE1D
:1021E000444890F8270088B3012817D002283FD12F
:1021F0006420B4FBF0F100FB1145B4FBF0F63D4860
:102200000095807800EB80003F4901EB8000334669
:102210003EA142680AA838F009FB29E00A20B4FB75
:10222000F0F4B4FBF0F100FB1145B4FBF0F63148DB
:102230000095807800EB8000334901EB8000334645
:1022400035A142680AA838F0F1FA11E0FFE76420EE
:10225000B4FBF0F52748807800EB80002A4901EBB9
:1022600080002B462EA142680AA838F0DFFA00BF92
:1022700000BF2548816902A838F0D6FC29A329A20D
:1022800002A90AA8FEF750F94FF47A7033F096FCD1
:1022900012B070BD00B589B0202101A838F0FAFD58
:1022A00030F022FB022033F089FC1748016A01A8B4
:1022B00038F0BAFC01AB03220521302031F085F95A
:1022C0000C488078012813D00A48807800EB800001
:1022D0000D4A02EB8000016901A838F0A5FC01ABB2
:1022E00004480093837800220B213C2031F0C1F890
:1022F00009B000BDB00600109803001030000010B7
:102300002564202573000000280500102573253062
:1023100032642E2530326400257325642E25640036
:102320002573256400000000FC480068704770B504
:1023300006460C461546FA4890F82300C8B1012E0F
:1023400002D0022E14D109E0F6A014F057FE13F0CB
:1023500017FD0121084614F0D1F809E0F5A014F0AA
:102360004DFE13F0FAFC0021012014F0C7F800BF65
:1023700000BFEB4890F82100C8B1012C02D0022C1C
:1023800014D109E0EFA014F039FE13F05CFE012136
:10239000022014F0B3F809E0EEA014F02FFE13F0C1
:1023A00037FE0021022014F0A9F800BF00BFDC486E
:1023B00090F8260058B1012D02D0022D06D102E07E
:1023C0001BF08EF802E01BF07AF800BF00BF14206B
:1023D00033F0F4FB70BD10B5FEF7A4FBF0B9E14893
:1023E0000078D8B9E048407A012817D1FEF79AFB67
:1023F0000446DD48437ADB4802782146DBA014F02E
:10240000FDFD13F075FC142033F0D8FB00221146BB
:102410000120FFF78CFF142033F0D0FB10BD00200B
:10242000D749C8804871C870887048700120D54964
:1024300088707047FEB50026B94890F8220002283F
:1024400073D1D148406FD049B1F8C0104843CE494C
:102450008A6FB1F8C21002FB0101CB48C26FB0F81D
:10246000C40002FB0011C848D0F88020B0F8C600B4
:1024700002FB0011C448D0F88420B0F8C80002FB69
:102480000011C148D0F88820B0F8CA0002FB001142
:10249000BD48D0F88C20B0F8CC0002FB0011BA483F
:1024A000D0F89020B0F8CE0002FB0011B648D0F86A
:1024B0009420B0F8D00002FB0011B348D0F8982067
:1024C000B0F8D20002FB0011AF48D0F89C20B0F861
:1024D000D40002FB0011AC48D0F8A020B0F8D60020
:1024E00002FB0011A848D0F8A420B0F8D80002FBE5
:1024F0000011A548D0F8A820B0F8DA0002FB0011BE
:10250000A148D0F8AC20B0F8DC0002FB00119E48D6
:10251000D0F8B020B0F8DE0002FB0015804890F83B
:102520002500022813D100240FE06EE0974850F8F0
:10253000240040B1954850F824101C3030F81400A5
:1025400001FB00552646601CC4B2072CEEDB744824
:10255000806BA84202D27248806B00E028468C490A
:1025600008606F48D0F8C030084602688748CDE957
:102570000052029350F82600844F1C3737F816702B
:1025800000FB07F38048806F7F4FB7F8C27000FBF5
:1025900007F27D48406F7C4FB7F8C07000FB07F131
:1025A0007CA014F02BFD5E48D0F8C0007849096883
:1025B000884215D9012013F0ABFF012824D15848D7
:1025C00090F8230000B3002211460220FFF7AFFE6F
:1025D00001206449087030F087F9FFF720FF3DE1E2
:1025E000012013F095FF78B94D4890F8230058B1B9
:1025F000002211460120FFF79AFE00205949087079
:1026000030F072F9FFF70BFF28E1454890F82200FF
:10261000012827D1424890F8250002280AD1002439
:1026200006E05A4850F8240000B12646601CC4B2A7
:10263000072CF6DB13F01BFF10B93948806B00E064
:10264000002053490860514850F826004F4A1C3278
:1026500032F8162000FB02F14D4802685CA014F02D
:10266000CDFCFBE02E4890F82200E8BB2C4890F807
:10267000250002284ED100240EE0444850F82400E2
:1026800040B1424850F824101C3030F8140001FBCF
:1026900000552646601CC4B2072CEEDB2048806B38
:1026A000A84202D21E48806B00E0284638490860E4
:1026B0001B48D0F8C0303548009350F82600334A04
:1026C0001C3232F8162000FB02F131482A4603681A
:1026D00046A014F093FC1248D0F8C0002C490968B9
:1026E000884219D9012000E015E013F011FF0128FC
:1026F00011D10B4890F8230068B100221146022046
:10270000FFF715FE01201749087030F0EDF8FFF7CC
:1027100086FEA3E099E0A1E082E000002C0000101A
:10272000B00600100D0A20417070656E42696C6C35
:10273000000000000D0A2041707064697342696CEA
:102740006C0000000D0A20417070656E436F696E69
:10275000000000000D0A20417070646973436F69C6
:102760006E0000001C0000103C4800100D0A2045BF
:10277000727242696C6C3D25642C25642C256400C2
:102780000800001034090010FC07001008090010B0
:102790003C0000100D0A4170704368616E6765204F
:1027A000353D256C642C313D256C642C7265633D90
:1027B000256C642C6D6F6E65793D256C642C6D61A4
:1027C000783D256C642C62696C6C3D256C6400005E
:1027D0000D0A4170704368616E6765207265633DE4
:1027E000256C642C6D61783D256C64000D0A417088
:1027F000704368616E6765207265633D256C642C6B
:10280000636F696E4D6F6E65793D256C642C6D61EB
:10281000783D256C642C62696C6C3D256C6400000D
:10282000012013F075FEC8B9FE4890F82300A8B146
:10283000002211460120FFF77AFD0020FA490870B6
:1028400030F052F8FFF7EBFD08E0F648806BF749EF
:102850000860F7480168F7A014F0D0FBFFF7BBFD54
:102860000020FEBD014669B9EE4A92F82E200F32D3
:10287000FF2A01DDFF2203E0EA4A92F82E200F3200
:10288000D0B20CE001290AD1E64A92F82E20FF2AA4
:1028900001DDFF2202E0E34A92F82E20D0B2704719
:1028A00070B5E04890F8210018B313F068FB0446B7
:1028B000FCB1E54800682044E3490860FEF732F9BE
:1028C000054602462146E1A014F0BAFB022200218F
:1028D0000846FFF72CFD0121204613F09FFFFEF76D
:1028E00021F905460246A1B2012015F095FB012011
:1028F00070BDCC4890F8230090B313F0A9F90446BA
:1029000074B32146D7A014F079FBDA4800680119A6
:10291000C7480368C5480268D7A014F06FFBD548C4
:1029200000682044C149096888421AD213F0A8F906
:1029300090B1D04800682044CE490860022120466A
:1029400013F06CFFFEF7EEF805460246A1B2022036
:1029500015F062FB002452E013F0CAF90020C7E72B
:1029600061E0B04890F8240001283DD1FFF721FA3A
:10297000FEF7D8F828B34FF4AF7033F01FF90020FA
:10298000FFF770FFC54988710320C5490870002012
:10299000C4490870C4490870C44800210180C44873
:1029A00001808170C348006832F0C8FE0020C2492F
:1029B0000860C24801780020FFF793F813F098F9F7
:1029C0000EE0FEF79BF80020B549087013F090F96F
:1029D0004FF4C87033F0F2F8FDF7E8FDFFF71FFD84
:1029E0000020B749086083E7B5480460FEF79AF80D
:1029F00005460246A1B2032015F00EFB00249D48B7
:102A00000068204489490968884205D302220021D0
:102A10001046FFF78CFC04E0022200210846FFF775
:102A200086FC012064E77F4890F82600C0B3A548E3
:102A30001AF015FD0446A3480078012819D1C4B145
:102A40002146A1A014F040FBA548046003212046C4
:102A500013F0E4FE002202210846FFF768FCFEF7AF
:102A600061F805460246A1B2052015F0D5FA01200D
:102A70003EE794480078022813D19AA014F024FB72
:102A8000FEF750F885B200232A461946022014F0BA
:102A900081FC00208B49087091490860022027E7DB
:102AA000FFE7002024E72DE9F04100265D4890F87B
:102AB0002500022858D1FEF735F80646F6B3314610
:102AC0008FA014F09BFA00244BE0924850F82400A9
:102AD000A8B3904850F82400B6FBF0F0C5B22946E0
:102AE0008DA014F08BFA8B481C3030F81400A842EB
:102AF00001DB284603E087481C3030F81400C5B2DB
:102B000029468AA014F07AFA824951F8241001FB70
:102B100005F013F086F90746012F1FD14A480068D7
:102B20005449096801447B4850F8240000FB1516FD
:102B30000020504908604448066001E014E00EE0BF
:102B400031467FA014F05AFA724850F824006843C6
:102B500082B233460021012014F01CFC03E0601C0B
:102B6000C4B2072CB1DB00BFBDE8F08138B55448D2
:102B70000068D8B113F0BCF870B1FDF7D3FF50492D
:102B80000968451A2A464E48006881B2042015F0AB
:102B900043FA00204A49086033F0BEF80546014672
:102BA0006BA014F03BFB642033F008F8FFF77BFFC9
:102BB000FDF7B8FF70B133F0AFF80546014668A0E5
:102BC00014F02CFBFDF7AEFF054669461AF0DFF95D
:102BD000044600E001241CBB67A014F01FFBFDF7B6
:102BE000A1FF0099451A284614F082F8FDF79AFFD4
:102BF0000099401A85B20B462A460021084614F077
:102C0000C9FBC82032F0DAFF00221146022015F07D
:102C100003FA00200C49086016490860009838BD86
:102C2000B4E00000B00600101C0000103C000010D2
:102C3000400000100D0A4170704368616E676520A6
:102C40006D61783D256C6400200000100D0A417014
:102C500070636F696E312E636F696E3D256C642CF5
:102C6000256C64000D0A322E41707062696C6C3DF7
:102C7000256C6400240000100D0A41707062696CBC
:102C80006C3D256C642C4D6F6E65793D256C642C14
:102C900070726963653D256C640D0A00340900108B
:102CA0001B000010190000101A000010170000107F
:102CB00014000010940000103400001039000010BF
:102CC00028000010440000100D0A20417070526569
:102CD00061646572312E726561643D256C6400002B
:102CE0002C0000100D0A20417070526561646572FD
:102CF000204F555450555420636172640000000009
:102D00000D0A204170704E6565647061793D256CD7
:102D100064000000080900100D0A204170704E6523
:102D200065646E756D3D2564000000000D0A20414C
:102D300070705265616C6E756D3D25640000000019
:102D40000D0A204170707061793D256C64000000AF
:102D50000D0A20417070486F6C64526574256400E0
:102D60000D0A20417070426567696E206368616E6C
:102D700067652564000000000D0A204170706368DB
:102D8000616E6765204661696C00000032F0C4FF27
:102D900005460146FFA014F041FAFDF7C3FE0546C3
:102DA000002113F0A5FFFDF7BDFE85B200232A46E2
:102DB0001946184614F0EEFA0020FB490860FB495A
:102DC000086000BF38BD2DE9F04100260024F84816
:102DD0000468FDF7A7FEA04206D2F648006818B9BD
:102DE0000720F5490870C1E0F248006878B1FFF7A4
:102DF000A2F8A0B21AF032FC0646012E03D10A2036
:102E0000ED490870B2E00920EB490870AEE0E648F1
:102E10000068E64909680844A04262D2E2480068B6
:102E2000201AE2490968451AE4480068451BE4484D
:102E300090F82200022801D1012615E0E04890F820
:102E40002200012801D101260EE0DD4890F8220081
:102E500050B9DB4890F82500022801D1012603E093
:102E60000DB9012600E00026012E36D112F008FF30
:102E7000F0B1CE480068D14909680844CB490860E0
:102E80000221CE48006813F0C9FCFDF74BFECB4988
:102E90000968471A3A46C948006881B2022015F00D
:102EA000BBF80020C54908600A20C34908705DE0EE
:102EB00012F01EFFFDF736FEC0490968471A3A4670
:102EC000BE48006881B2042015F0A6F80020BB4976
:102ED00008600820B849087048E00820B649087022
:102EE00044E0B1480068B14909680844051BB4488A
:102EF00090F82200022801D1012615E0B04890F890
:102F00002200012801D101260EE0AD4890F82200F0
:102F100050B9AB4890F82500022801D1012603E002
:102F20000DB9012600E00026012E1CD1A44890F81E
:102F30002400012813D1A148006880B112F0D8FE06
:102F4000FDF7F0FD9D490968471A3A469B4800681D
:102F500081B2042015F060F80020984908600A202A
:102F60009549087002E0082093490870BDE8F08197
:102F700010B5044604B38F48006860B191A014F006
:102F8000A3F801201AF0D2FB8A480068001B894987
:102F90000860002410E085480068844206D3834816
:102FA0000068241A00208149086005E07F48006815
:102FB000001B7E490860002424B17B480068001B88
:102FC0007949086010BD7E4890F82E00FF2806DA87
:102FD0008148807908B9012070470020FCE7002073
:102FE000FAE70EB57C4883797548807800EB80005D
:102FF0007A4901EB00107AA1426C71488DE80E000D
:10300000837800221146962030F033FA0EBD70B559
:1030100004460125F4B3644800686449096808441B
:10302000A0422AD212F02CFEB0B160480068634979
:10303000096808445D490860FDF774FD5F49096847
:10304000461A32465D48006881B2022014F0E4FF5F
:1030500000205A49086010E012F04AFEFDF762FDB8
:1030600056490968461A32465448006881B204201D
:1030700014F0D2FF002051490860FDF753FD0646C9
:103080000246214658A014F0C9F8FDF74BFDA042B6
:1030900003D300E002E0012500E00025FDF742FD3A
:1030A00090B30320444908700020FFF7DBFB4A4936
:1030B000887141480078032842D13C480068514952
:1030C0000968884204D2002201210846FFF72FF93F
:1030D00000204D4908704D4908704D48002101807D
:1030E0004C48018081704C48006832F027FB2FF07B
:1030F000FBFB4A4801780020FEF7F3FCFDF712FDC8
:10310000064616F05CF81BE0FFE7002201210846A6
:10311000FFF70DF900203C4908703C4908703C4815
:10312000002101803B48018081703B48006832F0FB
:1031300005FB2FF0D9FBFFF7ADF80E201E490870F4
:10314000284670BD70B504460125002654B11948C3
:10315000006838B1FEF7EFFEA0B21AF07FFA06461B
:1031600006B90025284670BD70B5044600267CB11E
:103170001048006868B12AA013F0A6FF01201AF0D9
:10318000D5FA0C480068001B0A490860002498E042
:1031900097E04FE00D0A204170706368616E6765CB
:1031A0002073756363256400200000102400001064
:1031B000340000102C0000101B000010280000102C
:1031C000B00600100D0A2041707043487568756F95
:1031D0005375636300000000340900109803001069
:1031E00025732530326400000D0A20417070205094
:1031F000726963653D256C642C6D6F6E65793D2544
:103200006C6400003C000010190000101A0000104F
:103210001700001014000010940000103900001076
:103220000D0A204170705043436F7374537563638C
:1032300000000000FF480068FF4909680844A042F8
:103240002ED212F01DFDB0B1FB480068FB490968A1
:103250000844F9490860FDF765FCF8490968451A12
:103260002A46F648006881B2022014F0D5FE0020FC
:10327000F249086010E012F03BFDFDF753FCEF4906
:103280000968451A2A46ED48006881B2042014F006
:10329000C3FE0020E94908604FF4487032F08EFC0C
:1032A000E5480068844206D3E3480068241A0020F9
:1032B000E149086005E0E0480068001BDE4908605D
:1032C000002424B1DB480068001BDA490860FDF7E0
:1032D00029FC90B30320DA4908700020FFF7C2FAF6
:1032E000D8498871D6480078032842D1D24800686E
:1032F000D5490968884204D2002201210846FFF717
:1033000016F80020D1490870D1490870D148002131
:103310000180D14801808170D048006832F00EFAF7
:103320002FF0E2FACE4801780020FEF7DAFBFDF735
:10333000F9FB054615F043FF1BE0FFE700220121E2
:103340000846FEF7F4FF0020C0490870C049087025
:10335000C04800210180C04801808170BF480068DA
:1033600032F0ECF92FF0C0FAFEF794FF0E20B449CA
:10337000087070BD2DE9F04F87B004460E46154623
:10338000002700200690FEF75DFE0022022108467D
:10339000FEF7CDFF32F0C0FC80460146B1A013F02D
:1033A0003DFF3046FFF7CEFE642094FBF0F000F0C6
:1033B000FF08642094FBF0F100FB114000F0FF09CE
:1033C0004246012148460BF045FF0746AA4890F8BF
:1033D0002F00012804D0A84890F82F0003286FD1AF
:1033E000012F6FD1FDF79EFB08B913F003FA012DF1
:1033F00001D0022D02D13046FFF7BAFD4120964997
:103400000870642094FBF0F100FB11400A2190FB4E
:10341000F1F0303090494870642094FBF0F100FBEB
:1034200011400A2190FBF1F201FB120030308A4971
:1034300088709248066092480378904801688648F0
:10344000CDE9015300918378427801788DA02EF068
:10345000F7FC8B4801780078401C894B18702B468C
:103460007D4A8648006813F018FA642094FBF0F057
:1034700000F0FF0A642094FBF0F100FB114000F023
:10348000FF0B52460221584618F09DF900F0FF0844
:10349000FDF748FB0590642094FBF0F100FB114020
:1034A00000F0FF09059A2B46CDE9012800964A460F
:1034B0000121002015F070F90B206149087056E1D8
:1034C0002AE0FFE7FEF70EFE642094FBF0F000F028
:1034D000FF0A642094FBF0F100FB114000F0FF0BA9
:1034E00052460221584618F06EF900F0FF08FDF729
:1034F00019FB0590642094FBF0F100FB114000F0F3
:10350000FF09059A2B46CDE9012800964A4601217C
:10351000992015F041F92AE1574890F82F00022828
:103520007ED1012F52D1FEF7B5FD3046FFF71CFECC
:10353000642094FBF0F100FB11400A2190FBF1F0B4
:103540003030C0B28DF818000A2094FBF0F100FB77
:1035500011403030C0B28DF8190013F04BF94848D3
:1035600001780078401C464B18702B4606AA30465E
:1035700013F093F9642094FBF0F000F0FF0B64204B
:1035800094FBF0F100FB1140C0B25A4602210490B6
:1035900018F019F900F0FF08FDF7C4FA059064204F
:1035A00094FBF0F100FB114000F0FF09642094FB54
:1035B000F0F000F0FF0A059A2B46CDE901280096AD
:1035C0004A465146002015F0E7F880E0FEF78AFDF4
:1035D0003C48006810B102201AF0A8F8642094FB5F
:1035E000F0F000F0FF0A642094FBF0F100FB1140C2
:1035F00000F0FF0B52460221584618F0E4F800F0A4
:10360000FF08FDF78FFA0590642094FBF0F100FBB2
:10361000114000F0FF09642094FBF0F0C0B200E01C
:103620008AE00490059A2B46CDE9012800964A4687
:10363000014649E02000001024000010280000107E
:103640001B000010340900103C000010190000108D
:103650001A00001017000010140000109400001051
:10366000390000100D0A20256441707055626F7892
:1036700056656E646F757400B0060010340000105B
:10368000380000104C6F675472616E736163746927
:103690006F6E415049206C6F6769633D25632563F8
:1036A00025632070726963653D25642074797065B7
:1036B0003D25782C7472616E4E756D733D25640DD9
:1036C0000A2000002C000010022015F065F8FDF71C
:1036D00029FA90B30320FB4908700020FFF7C2F8D5
:1036E000F9498871F7480078032840D1F748006805
:1036F000F7490968884204D2002201210846FEF7F2
:1037000016FE0020F3490870F3490870F3480021C1
:103710000180F34801808170F248006832F00EF8B1
:103720002FF0E2F8F04801780020FEF7DAF9FDF713
:10373000F9F9804615F043FD19E0FFE70022012169
:103740000846FEF7F4FD0020E2490870E2490870DF
:10375000E24800210180E24801808170E148006870
:1037600031F0ECFF2FF0C0F80E20D649087007B0FA
:10377000BDE8F08F2DE9F04F85B004460F461546A1
:103780001E46DA4890F82F0002282BD1642094FBC3
:10379000F0F000F0FF0A642094FBF0F100FB114010
:1037A00000F0FF0B52460221584618F00CF800F0CA
:1037B000FF08FDF7B7F90490642094FBF0F100FBDB
:1037C000114000F0FF09642094FBF0F0C0B20390B8
:1037D000049A2B46CDE9012800974A460146304617
:1037E00014F0DAFF05B0BDE8F08F10B5FDF79AF9D7
:1037F000D8B1FFF7BBF94FF4C87032F0DFF9002001
:10380000B4490870B4490870B44800210180B44834
:1038100001808170B348006831F090FF2FF064F8A8
:10382000FEF738FD0E20A749087000220221084645
:10383000FEF77DFDC82032F0C1F91FF071FF4FF493
:10384000C87032F0BBF9002201210846FEF76FFD77
:1038500010BD70B5A54890F8260010B1FEF764FDC4
:10386000C8BBFDF75FF9B0B1FEF765FC32F054FA62
:10387000054601469EA013F0D1FCFFF777F90446F8
:103880001CB12046FEF7A1FC01E0FEF777FC0E20FC
:103890008C4908701FE0FEF74EFCAFF6243013F0A1
:1038A000BDFC0021084613F023FA00231A461946EE
:1038B000184613F06FFDC82032F080F9002211463F
:1038C000022014F0A9FB00208C4908607F490860A1
:1038D0000E207C49087070BD88B00020079000243D
:1038E00000250690059078498870C8700871487165
:1038F00030F0BCF938B1022211461046FEF717FD30
:1039000013207049087001200EF0F1FD7C49086019
:10391000764890F89800012802D115F031FB02E0BA
:10392000012015F019FB012030F00CFA2EF0DCFF1D
:10393000EFE36448007836F050FE624800781428BF
:103940007DD2DFE800F00AA2FCFBFAF9F8F7F6F501
:10395000F4F3F2F1F0EFEEEDECEB6A480068C82802
:1039600002D90020674908605748807830B905209F
:1039700055498870FCF726FE14F01FFB05A90020AE
:1039800015F0E3FD07909DF81C0098B19DF81C0010
:103990003C2803D09DF81C003E2805D100204D494D
:1039A00008704D49087005E005204749487101201D
:1039B000444908704448007920B9052042490871FB
:1039C000FEF738FDFEF76CFF0446012C1ED112F005
:1039D000ACFB2EF089FF444801782846FEF781F8B9
:1039E000FDF7A0F80746014647A013F007FB12F0C9
:1039F00001FF2846FEF736FF33498871FDF792F83C
:103A0000074615F0DCFB03202E4908702E48C078CD
:103A1000E8B905202C49C87012F0AAFB12F038FC56
:103A2000A8B100202849887014F021FC642032F0ED
:103A3000C5F82EF059FF02221146104600E079E247
:103A4000FEF775FCFEF7EBFC0F201E49087030F006
:103A50000DF938B1022211461046FEF768FC13201A
:103A600018490870012011F02FFEFDF75BF807469A
:103A700013F096FD30F052F907461AF0E1F80020F5
:103A80001AF0F5F815F0BCFD54E29DF81C0058B191
:103A900005200D494871FDF745F808B9FDF711F803
:103AA00005A907A8FDF74AF805A9012015F04DFD65
:103AB00007900548407920B94320079002200590DF
:103AC0003EE03FE01B00001034090010240000100D
:103AD0003C000010190000101A0000101700001020
:103AE000140000109400001039000010B0060010FF
:103AF0000D0A204170705475692564002000001083
:103B000040000010480000100D0A20417070326122
:103B10006D6F756E743D256C640000009FE385E356
:103B200074E348E3F6E2C4E2B3E27EE22AE210E1A3
:103B3000F2E0C8E0A3E0A1E09DE09BE03EE013E0FE
:103B4000FEF76DFCFC480078032805D1FB4801789E
:103B50002846FDF7C6FF06E0F748007818B92EF0B2
:103B6000C3FEFEF75CFCC3E39DF81C0050B11420BB
:103B7000F3494871FCF7D6FF08B9FCF7A2FF07A884
:103B8000FDF7AFFB05A9012015F0DFFC0790EC481D
:103B9000407918B94320079002200590E648007844
:103BA000032805D1E54801782846FDF79AFF04E08F
:103BB000E148007808B92EF097FE99E3FEF770FE11
:103BC0000446012C16D1DD4801782846FDF789FF0F
:103BD0002846FEF747FEDA498871FCF7A3FF07463F
:103BE00015F0EDFAFCF79EFF07460146AFF2E8003C
:103BF00013F004FA05A9002015F0A7FC07909DF822
:103C00001C0028B10520CE4948710120CA4908701E
:103C100012F062FA10B9FFF7D6F978B1C9484078C6
:103C200008B1012D0AD1C848006838B90022022124
:103C30000846FEF77CFB0D20BF490870C34890F88A
:103C40002E00FF2809DABF48407808B1012D04D1C1
:103C5000BD48006808B9FFF7C4F9022C02D10E2054
:103C6000B5490870FCF75EFF074613F099FC15F0A4
:103C7000C7FC3DE33CE3FFF7A6F839E338E3B4487B
:103C80000068FEF7BAF82846FEF7ECFDAC498871EB
:103C90000320A94908700020AE490870AE49087099
:103CA000AE4800210180AE4801808170AD480068B7
:103CB00031F044FD0020A6490860A048017828465C
:103CC000FDF70FFF14E3FEF70DF9FCF72BFFF8B13A
:103CD0002846FEF7C7FD9A49887103209649087067
:103CE00000209C4908709C4908709C480021018074
:103CF0009B48018081709B48006831F01FFD0020C7
:103D0000934908608D4801782846FDF7EAFE02E0F5
:103D10000E2089490870EBE2FEF735F90320864949
:103D2000087000208B4908708B4908708B4800216F
:103D300001808B48018081708A48006831F0FEFC68
:103D40000020834908607D4801782846FDF7C9FEB8
:103D5000CEE2002202210846FEF7E9FAFEF73CF91E
:103D600081480088642190FBF1F0C7B27E4800884A
:103D700090FBF1F201FB120000F0FF083A4601212E
:103D800040460BF067FA0690069801285AD1704811
:103D90000068FFF7EDF86C48006860B1734801787F
:103DA0000078401C714B187002236D4A6848006807
:103DB00012F073FD10E06D4801780078401C6B4BE9
:103DC00018700023664A6248006812F066FD604879
:103DD000006880B219F0EFFC63480088642190FB12
:103DE000F1F000F0FF0A6048008890FBF1F201FB5F
:103DF000120000F0FF0B52460221584617F0E3FC78
:103E0000C7B2FCF78FFE049057480088642190FBEE
:103E1000F1F201FB120000F0FF085348008890FB0C
:103E2000F1F000F0FF094A48049A016800238DE888
:103E3000860042464946184614F0AEFC0B203E4927
:103E4000087074E04048006828B149A013F03CF9BC
:103E5000022019F06BFC3D4890F82F00012804D097
:103E60003A4890F82F0003282CD13F48008864215D
:103E700090FBF1F000F0FF0A3B48008890FBF1F264
:103E800001FB1200C7B252460221384617F09BFCD4
:103E900000F0FF08FCF746FE8346334800886421A3
:103EA00090FBF1F201FB120000F0FF0928480168C5
:103EB00000234A46CDE901B800910121992014F070
:103EC0006BFC31E028480088642190FBF1F000F0A1
:103ED000FF0A2548008890FBF1F201FB120000F078
:103EE000FF0B52460221584617F06DFCC7B2FCF793
:103EF00019FE04901C480088642190FBF1F201FB3C
:103F0000120000F0FF081848008890FBF1F000F064
:103F1000FF090F48049A016800238DE88600424695
:103F20004946022014F038FC0C2003490870002098
:103F300007490860DCE100001B0000103900001098
:103F400034090010780700102C000010B006001093
:103F500034000010190000101A00001017000010A3
:103F60001400001094000010300000103800001001
:103F70000D0A2041707043487568756F4661696C21
:103F800000000000FEF786F8DC48007801283CD1EC
:103F9000FCF7C8FDC0B30320D949087001252846A5
:103FA000FEF760FCD7498871D548007803283BD1DB
:103FB000D5480068D5490968884204D20022012109
:103FC0000846FEF7B4F90020D1490870D1490870BD
:103FD000D14800210180D14801808170D04800681B
:103FE00031F0ACFB2EF080FCCE4801782846FDF77E
:103FF00078FDFCF797FD074615F0E1F805A90020CC
:1040000015F0A3FA07900FE0FFE7FCF78BFD40B136
:10401000C44801782846FDF764FD0D20B8490870B2
:1040200002E00E20B649087062E1FEF75BF8FCF78B
:1040300079FD68B30320B249087001252846FEF7D0
:1040400011FCB0498871AE480078032820D1AE48F1
:104050000068AE490968884204D20022012108465E
:10406000FEF765F90020AA490870AA490870AA4815
:1040700000210180A94801808170A948006831F0C1
:104080005DFB2EF031FCA74801782846FDF729FD9D
:104090002EE1FEF750F8FEF769FD06461EB13046E8
:1040A000FEF793F801E0FEF769F80E2094490870D6
:1040B0001EE1FEF7EFF8FCF721FD002500209A49EC
:1040C00008709A490880974908708E490871012242
:1040D00011461046FEF72BF9002095490870FEF7AF
:1040E0009EF901200EF003FA9249086012F07FFE5B
:1040F000914890F89800012802D114F041FF02E0A5
:10410000012014F029FF2EF0EFFB00207C490870FD
:10411000EEE0F1E07B48807820B91E207949887074
:10412000FCF78FFB7748C07818BB05207549C8702D
:1041300012F01EF8012011F0C7FA12F0A9F898B990
:104140000020704988702EF0CFFB012211461046E6
:10415000FEF7EDF8642031F031FD14F088F8FEF739
:104160005EF9002066490870FCF7DCFC074613F096
:1041700017FA2FF07BFD10B1132061490870FEF78C
:104180008FFB0446012C15D111F0CFFF2EF0ACFBB4
:10419000644801782846FDF7A4FCFCF7C3FC0746F9
:1041A0000146AFF29C6012F029FF12F023FB1020B1
:1041B000534908709CE0FEF773FB0446012C0CD1B8
:1041C000584801782846FDF78CFCFCF7ABFC074605
:1041D0000146AFF2CC6012F011FF11F07DFF50B13B
:1041E0005648006838B9002202210846FEF79FF8B9
:1041F000112043490870022C02D112204049087056
:10420000FCF790FC074613F0CBF971E0FDF793FF44
:10421000FEF7ACFC06461EB13046FDF7D6FF01E0C6
:10422000FDF7ACFF12203649087061E0FEF732F866
:10423000FCF764FC002500203B4908703B490880DE
:104240002EF052FB002201210846FEF770F812F012
:10425000CEFDFEF7E4F80F202949087048E0002061
:1042600014F07AFE344890F82F0010B1012012F0BB
:104270005CF900BFFCF756FC074613F091F90020EB
:1042800008F0F7FA2FF0F2FC0028F3D11D498870EE
:104290002EF02AFB012211461046FEF748F80020B6
:1042A00023490870FEF7BBF8234890F82F0058B157
:1042B0000023009301931A4619460520029313F038
:1042C000BFF8002012F031F901200EF010F9194961
:1042D0000860194890F89800012802D114F050FEA7
:1042E00002E0012014F038FE00200549087000BFEC
:1042F00000BF022031F062FCFFF71BBB7807001003
:104300001B00001034090010240000103C000010B5
:10431000190000101A0000101700001014000010FF
:104320009400001039000010380000103000001018
:104330001C00001040000010B00600102C000010FF
:10434000F0B585B000260027FAA103C9CDE9010127
:104350002EF0CAFAF9A02DF073FDB8E00F23EF227A
:10436000002108462FF021FA0323EF2200210846FE
:104370002FF01BFAF7488078F74951F82030F548BC
:10438000009383780022012108202FF072F8F14871
:104390008178F148143050F82130EE48009383784A
:1043A0000022062130202FF064F80E23EE220D218A
:1043B00001202EF0D3FAE7488178E7483C3050F8E6
:1043C0002130E4480093837800220D211C202FF037
:1043D00050F87BE0002700240AE0342101EB0411AF
:1043E000C8B20023DDA209212EF0E2FA601CC4B29B
:1043F000082CF2DB69E02FF005FC0546F5B3432DF0
:1044000002D1002005B0F0BD03A88555310134313B
:10441000C8B20023D2A209212EF0CAFA701CC6B27B
:10442000082E4FD100260127002408E003A8005DD4
:1044300001A9095D884200D00027601CC4B2082C85
:10444000F4DB012F01D10120DCE70E23EE220D2148
:1044500001202EF083FABF488178BF48283050F8F9
:104460002130BC480093837800220D2130202FF0AA
:1044700000F84FF4C87031F0A1FB00E022E00E23F9
:10448000EE220D2101202EF069FAB2488178B2485F
:104490003C3050F82130AF480093837800220D2142
:1044A00030202EF0E6FF00240AE0342101EB041155
:1044B000C8B20023A9A209212EF07AFA601CC4B266
:1044C000082CF2DB052031F079FB94E782E745E721
:1044D00038B52EF009FA0F23EF22002108462FF0FD
:1044E00064F90323EF22002108462FF05EF94CE027
:1044F0000E23EE22042101202EF030FA9548807818
:10450000984951F820309348009383780022012184
:1045100008202EF0AEFF8F4881789248143050F872
:1045200021308C4800938378002207213C202EF014
:10453000A0FF884881788B48283050F82130854882
:104540000093837800220B2128202EF092FF8148CF
:10455000817884483C3050F821307E48009383783D
:1045600000220B218C202EF084FF0DE02FF04AFB5F
:104570000446432C01D1002038BD452C01D1012037
:10458000FAE70A2031F01AFBF0E7B1E770B5002630
:10459000704890F82200022873D17348406F724926
:1045A000B1F8C010484370498A6FB1F8C21002FBDD
:1045B00001016D48C26FB0F8C40002FB00116A48E7
:1045C000D0F88020B0F8C60002FB00116648D0F891
:1045D0008420B0F8C80002FB00116348D0F888209E
:1045E000B0F8CA0002FB00115F48D0F88C20B0F888
:1045F000CC0002FB00115C48D0F89020B0F8CE004F
:1046000002FB00115848D0F89420B0F8D00002FB0B
:1046100000115548D0F89820B0F8D20002FB0011E4
:104620005148D0F89C20B0F8D40002FB00114E484D
:10463000D0F8A020B0F8D60002FB00114A48D0F80C
:10464000A420B0F8D80002FB00114748D0F8A820F9
:10465000B0F8DA0002FB00114348D0F8AC20B0F803
:10466000DC0002FB00114048D0F8B020B0F8DE00BA
:1046700002FB0015374890F82500022812D10024CB
:104680000EE018E0394850F8240038B1374850F8A7
:1046900024101C3030F8140001FB0055601CC4B21B
:1046A000072CEFDB2B48D0F8C000A84201D9012627
:1046B0000FE000260DE0274890F82200012803D1E2
:1046C00011F0D5FE064604E0224890F8220000B919
:1046D0000026304670BD70B5044600251D4890F890
:1046E0002F00022817D1012C0BD111F0CEFD054669
:1046F00011F0CBFD0646024629461DA012F08EFDA4
:1047000009E0022C07D1204890F8BC5090F8BC106A
:104710001EA012F083FD284670BD0146012902D07B
:10472000022949D142E00B4880781F4A52F8200004
:10473000704700003833373138353537456E74658A
:104740007253656C66436865636B46756374696F25
:104750006E0D0A00B006001058C503005F0000008F
:104760002A000000A8C50300FC070010080900107B
:104770000D0A204170702050434572726F7253636E
:10478000616C653D25640000480900100D0A204158
:1047900070702050434572726F724F66664C696E3E
:1047A000653D256400000000F4CE0300FF488278D8
:1047B000FF4850F822007047FC488278FC481430CB
:1047C00050F82200F7E700B58BB000200A900320D4
:1047D00009902EF089F80F23EF22002108462EF0D1
:1047E000E4FF0323EF22002108462EF0DEFFE5E37D
:1047F0000E23EE22042101202EF0B0F803200990B0
:104800000A980A287ED2DFE800F005D5FEFDFCFB01
:10481000FAF9F8F70123E5488178E64850F82120B5
:10482000E5A1E2488DE80E008078034600220121D0
:10483000079008202EF01DFEDC4890F82300022887
:104840007ED1DF488078A0B1D8488178D94814302B
:1048500050F82130D5480093807807900998801C43
:10486000C0B209900690002201460520079B2EF059
:1048700000FED348C078A0B1CC488178CD4828301C
:1048800050F82130C9480093807807900998801C1F
:10489000C0B209900690002201460520079B2EF029
:1048A000E8FDC7480079A0B1C0488178C1483C30D4
:1048B00050F82130BD480093807807900998801CFB
:1048C000C0B209900690002201460520079B2EF0F9
:1048D000D0FDBB484079A0B1B4488178B54850308C
:1048E00050F82130B1480093807807900998801CD7
:1048F000C0B209900690002201460520079B2EF0C9
:10490000B8FD00E0A4E2AE488079A0B1A748817864
:10491000A848643050F82130A4480093807807906C
:104920000998801CC0B2099006900022014605201B
:10493000079B2EF09EFDA248807808B9A04800E0B1
:1049400019E0C078B8B99E480079A0B99C48407970
:1049500088B99B48807970B994488178994850F813
:104960002130924800938078034600220721079067
:1049700005202EF07EFD8D4880788E49283951F82B
:104980002000069036F074F9C000C0F1E700C0B214
:104990000790864881788748283850F82130834826
:1049A00000938078034600220D21069007982EF090
:1049B00060FD4DE202237D4881787E4850F8212039
:1049C0007DA17A488DE80E008078034600220121FF
:1049D000079008202EF04DFD744890F8230002281F
:1049E0007ED17748C079E8B17048817871487830D5
:1049F00050F821306D4807E0FEE3FEE3FEE3ABE351
:104A0000FAE226E26DE191E0009380780790099840
:104A1000801CC0B209900690002201460520079B29
:104A20002EF027FD6648007AA0B160488178614881
:104A30008C3050F821305D480093807807900998B9
:104A4000801CC0B209900690002201460520079BF9
:104A50002EF00FFD5A48407AA0B15448817855484D
:104A6000A03050F821305148009380780790099881
:104A7000801CC0B209900690002201460520079BC9
:104A80002EF0F7FCFFF782FDA0B148488178494835
:104A9000B43050F821304548009380780790099849
:104AA000801CC0B209900690002201460520079B99
:104AB0002EF0DFFC4248C07990B94148007A78B9BD
:104AC0003F48407A60B9FFF761FD48B937488178BF
:104AD0003C4850F82130354800938078034600E088
:104AE00005E000220721079005202EF0C2FC2F4888
:104AF00081783048143850F82100069036F0B8F824
:104B0000C000C0F1E700C0B207902848817829486A
:104B1000143850F82130254800938078034600224D
:104B20000D21069007982EF0A4FC91E101231F4867
:104B300081782048C83050F821201FA11B488DE8FB
:104B40000E008078034600220121079008202EF0F5
:104B500090FC164890F8210002287ED11848807AEF
:104B6000A0B1124881781348DC3050F821300F484A
:104B70000093807807900998801CC0B20990069035
:104B8000002201460520079B2EF073FC0C48C07ADA
:104B900018B3064881780748F03050F821300348B0
:104BA0000093807807900998801C0DE0B0060010F3
:104BB00008CF0300C0C6030025732D256400000044
:104BC0003C48001058CA0300C0B209900690002269
:104BD00001460520079B2EF04CFCF948007B98B15C
:104BE000F8488178F84850F82130F64800938078EA
:104BF00007900998801CC0B20990069000220146D7
:104C00000520079B2EF035FCED48407BA0B1ED4818
:104C10008178ED48143050F82130EA4800938078CC
:104C200007900998801CC0B20990069000220146A6
:104C30000520079B2EF01DFCE148807BB0B1E148C8
:104C40008178E148283050F82130DE4800938078A0
:104C500007900998801CC0B200E025E009900690FA
:104C6000002201460520079B2EF003FCD448807AE1
:104C7000D0B9D348C07AB8B9D148007BA0B9D048E0
:104C8000407B88B9CE48807B70B9CE488178CF48C8
:104C900050F82130CB48009380780346002207214A
:104CA000079005202EF0E5FBC6488178C84850F8EB
:104CB0002100069035F0DCFFC000C0F1E700C0B273
:104CC0000790C0488178C24850F82130BD48009311
:104CD0008078034600220D21069007982EF0C9FB2C
:104CE000B6E00223B7488178B7483C3850F8212015
:104CF000AFF23C11B3488DE80E00807803460022E5
:104D00000121079008202EF0B4FBAE4890F8210056
:104D100002287ED1AA48C07BA0B1AA488178AA48BF
:104D20003C3050F82130A7480093807807900998CC
:104D3000801CC0B209900690002201460520079B06
:104D40002EF097FB9E48007CA0B19E4881789E483B
:104D5000503050F821309B48009380780790099894
:104D6000801CC0B209900690002201460520079BD6
:104D70002EF07FFB9248407CA0B192488178924807
:104D8000643050F821308F4800938078079009985C
:104D9000801CC0B209900690002201460520079BA6
:104DA0002EF067FB8648807CC8B18548C37C827C36
:104DB000844881788448783050F8211085A08DE8A7
:104DC0000F008048807807900998801CC0B2099035
:104DD0000690002201460520079B2EF04AFB7848EA
:104DE000C07BB0B97648007C98B97548407C80B9E2
:104DF0007348807C68B973488178744850F82130D2
:104E00007048009380780346002207210790052010
:104E100000E001E02EF02DFB6A4881786C4850F8E4
:104E20002100069035F024FFC000C0F1E700C0B2B9
:104E3000079064488178664850F8213061480093B3
:104E40008078034600220D21069007982EF011FB72
:104E500051E25C4881785C488C3050F821305948E8
:104E600000938078034600220121079008202EF04D
:104E700000FB544890F8220001287ED15048007D64
:104E8000F8B14F48007D0690FFF747FC0790564861
:104E9000C37D4C4881784C48A03050F8211053A075
:104EA000079A8DE80F004748807806900998801C83
:104EB000C0B209900590002201460520069B2EF005
:104EC000D8FA3F48407DF8B13D48407D0690FFF755
:104ED00024FC07904448037E3A4881783A48B4302D
:104EE00050F8211041A0079A8DE80F0035488078CE
:104EF00006900998801CC0B20990059000220146D6
:104F00000520069B2EF0B5FA2D48807DF8B12C487F
:104F1000807D0690FFF701FC07903348437E2948C7
:104F200081782948C83050F8211030A0079A8DE8C0
:104F30000F002448807806900998801CC0B2099020
:104F40000590002201460520069B2EF092FA1C488F
:104F5000007D90B91A48407D78B91948807D60B9C4
:104F600018488178194850F8213016480093807805
:104F7000034600220721079000E002E005202EF002
:104F800078FA10488178124850F82100069035F0E0
:104F90006FFEC000C0F1E700C0B2079009488178F9
:104FA0000B4850F8213007480093807803460022D0
:104FB0000D21069007982EF05CFAB1E3D5E30000CE
:104FC0003C480010B0060010C4C7030058CA0300D4
:104FD000ACC6030025735B25233032785D5B252347
:104FE0003032785D000000001048001025732573F2
:104FF0005B25233032785D000123FF488178FF482C
:1050000050F82120AFF25041FB488DE80E00807827
:10501000034600220121079008202EF02AFAF648C4
:1050200090F82D0001282FD1F548807EA0B1F248DC
:105030008178F248143050F82130EF48009380789E
:1050400007900998801CC0B2099006900022014682
:105050000520079B2EF00DFAE948C07EA0B1E64876
:105060008178E648283050F82130E3480093807872
:1050700007900998801CC0B2099006900022014652
:105080000520079B2EF0F5F9DD48007FA0B1DA4836
:105090008178DA483C3050F82130D7480093807846
:1050A00007900998801CC0B2099006900022014622
:1050B0000520079B2EF0DDF9D148407FA0B1CE48F6
:1050C0008178CE48503050F82130CB48009380781A
:1050D00007900998801CC0B20990069000220146F2
:1050E0000520079B2EF0C5F9C548807EB8B9C44895
:1050F000C07EA0B9C248007F88B9C148407F70B95E
:10510000BD488178BF4850F82130BB480093807873
:10511000034600220721079005202EF0AAF9B64881
:105120008178B94850F82100069035F0A1FDC00003
:10513000C0F1E700C0B20790AF488178B24850F89C
:105140002130AD4800938078034600220D2106905F
:1051500007982EF08EF9E3E20223A7488178A7484A
:1051600050F82120AFF2B051A3488DE80E008078AE
:10517000034600220121079008202EF07AF9A0486A
:10518000807FA0B19C4881789C48643050F82130E1
:1051900099480093807807900998801CC0B20990C4
:1051A0000690002201460520079B2EF062F99448E4
:1051B000C07FA0B1904881789048783050F8213075
:1051C0008D480093807807900998801CC0B20990A0
:1051D0000690002201460520079B2EF04AF98848D8
:1051E00090F82000C0B18448817884488C3050F811
:1051F00021308148009302E011E258E17CE08078A0
:1052000007900998801CC0B20990069000220146C0
:105210000520079B2EF02DF9794890F82100A0B1C8
:10522000754881787548A03050F821307248009355
:10523000807807900998801CC0B2099006900022DF
:1052400001460520079B2EF014F96D4890F82200C6
:10525000A0B1694881786948B43050F82130664877
:105260000093807807900998801CC0B2099006903E
:10527000002201460520079B2EF0FBF86048807F46
:10528000E8B95F48C07FD0B95D4890F82000B0B958
:105290005B4890F8210090B9594890F8220070B905
:1052A00055488178574850F821305348009380780A
:1052B000034600220721079005202EF0DAF84E4819
:1052C0008178514850F82100069035F0D1FCC0009B
:1052D000C0F1E700C0B20790474881784A4850F8CB
:1052E0002130454800938078034600220D21069026
:1052F00007982EF0BEF813E203233F4881783F4819
:1053000050F82120AFF250713B488DE80E008078B4
:10531000034600220121079008202EF0AAF8384801
:1053200090F82300A0B1344881783448C83050F850
:10533000213031480093807807900998801CC0B2D2
:1053400009900690002201460520079B2EF091F857
:105350002B4890F82400A0B1274881782748DC30FA
:1053600050F8213024480093807807900998801CD9
:10537000C0B209900690002201460520079B2EF03E
:1053800078F81F4890F82500A0B11B4881781D4887
:10539000C83850F821301848009380780790099851
:1053A000801CC0B209900690002201460520079B90
:1053B0002EF05FF8124890F82600A0B10E488178D0
:1053C0001048B43850F821300B480093807807908B
:1053D0000998801CC0B20990069000220146052061
:1053E000079B2EF046F8064890F82700F8B10248CF
:1053F00081780448A03809E0B0060010A0C8030076
:105400003C48001058CA0300ACC6030050F82130D5
:10541000FF480093807807900998801CC0B20990DB
:105420000690002201460520079B2EF022F8F9483D
:1054300090F82300F0B9F74890F82400D0B9F54867
:1054400090F82500B0B9F34890F8260090B9F148DB
:1054500090F8270070B9EE488178EF4850F8213075
:10546000EB4800938078034600220721079005202F
:105470002DF0FFFFE6488178E84850F821000690BB
:1054800035F0F6FBC000C0F1E700C0B20790E0487D
:105490008178E24850F82130DD4800938078034657
:1054A00000220D21069007982DF0E3FF38E1042338
:1054B000D7488178DA4850F82120AFF60411D44853
:1054C0008DE80E0080780346002201210790082015
:1054D0002DF0CFFFCF4890F82800A0B1CC488178BC
:1054E000CD488C3850F82130C94800938078079017
:1054F0000998801CC0B20990069000220146052040
:10550000079B2DF0B6FFC34890F82900A0B1C04812
:105510008178C148783850F82130BD4800938078B0
:1055200007900998801CC0B209900690002201469D
:105530000520079B2DF09DFFB64890F82A00A0B1EA
:10554000B3488178B448643850F82130B0480093AB
:10555000807807900998801CC0B2099006900022BC
:1055600001460520079B2DF084FFAA4890F82B00E8
:10557000A0B1A7488178A848503850F82130A448F5
:105580000093807807900998801CC0B2099006901B
:10559000002201460520079B2DF06BFF9D4890F8E7
:1055A0002800F8B99B4890F82900D8B9994890F894
:1055B0002A00B8B9974890F82B0098B99448817898
:1055C000954850F8213092480093807807900998C8
:1055D000801CC0B209900690002201460520079B5E
:1055E0002DF047FF8A4881788C4850F821000690BA
:1055F00035F03EFBC000C0F1E700C0B20790844820
:105600008178864850F8213081480093807803469D
:1056100000220D21069007982DF02BFF80E07C489A
:1056200081787D483C3850F821307EA27848CDE919
:1056300000238078034600220121079008202DF0E6
:1056400018FF0120FFF747F8B8B177A011F0E6FD89
:105650006F4881787048283850F821306C480093A2
:10566000807807900998801CC0B2099006900022AB
:1056700001460520079B2DF0FCFE0220FFF72BF8CA
:10568000B8B16EA011F0CAFD614881786248143843
:1056900050F821305E480093807807900998801C6C
:1056A000C0B209900690002201460520079B2DF00C
:1056B000E0FE0120FFF70FF8A8B90220FFF70BF872
:1056C00088B964A011F0AAFD51488178524850F879
:1056D00021304F480093807803460022072107902D
:1056E00005202DF0C6FE4A4881784C4850F821002C
:1056F000069035F0BDFAC000C0F1E700C0B20790D7
:1057000043488178454850F82130414800938078DB
:10571000034600220D21069007982DF0AAFE00BF37
:1057200000BF20E02EF06EFA08900898432801D1BF
:105730000BB000BD08983E2807D10A98092803DA63
:105740000A98401CC0B20A900EE008983C2807D185
:105750000A98002803DD0A98401EC0B20A9003E0B0
:105760000A2030F02BFADDE700BFFFF741B800B5A3
:105770008BB000200A90032009902DF0B5F80F237C
:10578000EF22002108462EF010F80323EF2200211B
:1057900008462EF00AF87FE30E23EE2204210120B2
:1057A0002DF0DCF8032009900A9830B1012867D069
:1057B000022866D003287ED186E2154880782A49DF
:1057C00051F82030124800938078034600220121CE
:1057D000079008202DF04DFE244800686421B0FB9E
:1057E000F1F201FB1200079020480068B0FBF1F0D5
:1057F00006900246064881781B483C3050F821103C
:105800001BA0079B8DE80F0001488078059039E0C8
:10581000B00600103C48001058CA0300ACC6030094
:10582000A0C80300257300000D0A204170702050AD
:10583000434572726F725363616C65000D0A2041BB
:1058400070702050434572726F724F66664C696E7D
:10585000650000000D0A20417070205043457272AF
:105860006F724F4B0000000048CB03004809001046
:1058700025732530326C642E2530326C64000000B4
:10588000A0E060E10998801CC0B209900490002259
:1058900001460520059B2DF0ECFDFF484068642182
:1058A000B0FBF1F201FB12000790FB484068B0FB2F
:1058B000F1F0069000E006E20246F8488178F848E8
:1058C00050F82110AFF25800079B8DE80F00F34805
:1058D000807805900998801CC0B20990049000223D
:1058E00001460520059B2DF0C4FDEB48806864212E
:1058F000B0FBF1F201FB12000790E7488068B0FBB3
:10590000F1F006900246E5488178E548143050F8F9
:105910002110AFF2A400079B8DE80F00DF488078CC
:1059200005900998801CC0B209900490002201469D
:105930000520059B2DF09DFDD74800696421B0FB33
:10594000F1F201FB12000790D3480069B0FBF1F0BF
:1059500006900246D1488178D148283050F821106D
:10596000AFF2F400079B8DE80F00CC4880780590DB
:105970000998801CC0B209900490002201460520BD
:10598000059B2DF076FDC5488178C5483C3850F818
:105990002100069035F06CF9C000C0F1E700C0B2FC
:1059A0000790BE488178BE483C3850F82130BB484B
:1059B00000938078034600220D21069007982DF071
:1059C00058FD37E2B5488078B549503951F8203054
:1059D000B2480093807803460022012107900820F6
:1059E0002DF047FDAC48806A6421B0FBF1F201FB69
:1059F00012000790A848806AB0FBF1F006900246BA
:105A0000A6488178A648503050F82110AFF2A01077
:105A1000079B8DE80F00A148807805900998801CAD
:105A2000C0B209900490002201460520059B2DF08C
:105A300020FD9948C36A994881789948643050F8A4
:105A4000212098A195488DE80E008078079009984C
:105A5000801CC0B209900690002201460520079BD9
:105A60002DF007FD8C48006B6421B0FBF1F201FBC7
:105A7000120007908848006BB0FBF1F006900246D8
:105A8000864881788648783050F82110AFF220207F
:105A9000079B8DE80F008148807805900998801C4D
:105AA000C0B209900490002201460520059B2DF00C
:105AB000E0FC7A4890F8260030B37748806C642187
:105AC000B0FBF1F201FB120007907348806CB0FB51
:105AD000F1F006900246714881787148C83050F85C
