:020000040000FA
:1000000000800010CD00000015B2030015B20300FF
:1000100015B2030015B2030015B2030015B20300B8
:1000200015B2030015B2030015B2030085020000EB
:1000300015B2030000000000ED020000758F030000
:1000400015B20300778703004D8703003B87030049
:1000500029870300B962030089640300695F030014
:100060008966030015B203008D69030015B2030011
:1000700015B2030015B2030015B2030015B2030058
:1000800015B2030015B2030015B2030015B2030048
:100090001B81030015B2030015B2030015B2030063
:1000A00015B2030015B2030015B2030015B2030028
:1000B00015B2030015B2030015B2030015B2030018
:1000C00015B2030015B2030015B2030000F002F8E8
:1000D00000F0C8F80AA090E8000C82448344AAF11A
:1000E0000107DA4501D100F0BDF8AFF2090EBAE818
:1000F0000F0013F0010F18BFFB1A43F0010318475C
:10010000302D0500702D050010F8013B0A4413F056
:10011000030408BF10F8014B1D1108BF10F8015B64
:10012000641E05D010F8016B641E01F8016BF9D153
:10013000002D15D010F8014B03F00C030C2BA1EB94
:1001400004040ABF10F8013BA4EB8314A4EB0324BE
:1001500005F1010314F8016B5B1E01F8016BF9D581
:10016000914238BF10F8013BD1D37047103A24BFF9
:1001700078C878C1FAD8520724BF30C830C144BF0C
:1001800004680C607047000000230024002500264E
:10019000103A28BF78C1FBD8520728BF30C148BFEA
:1001A0000B6070476E293FF0C58370293EF0AC8725
:1001B000662900F03CA5652900F039A5672900F003
:1001C00036A56129AFF3008003681B0A28BF41F000
:1001D000800169293EF01C8764293EF01987752942
:1001E0003EF016876F293FF0B78478293EF0788774
:1001F000E9293FF04F84E4293FF04C84F5293FF092
:100200004984EF293FF0B484F8293EF077870368EA
:10021000DB0928BF41F0800163293FF0D0837329B7
:100220003FF0D583E3293FF02887F3293FF02D875E
:10023000002070471FB540F0F3FC9DE803003FF03D
:10024000D7FA3FF0A1FF04000020002140F0CEFCCF
:10025000401C60600020002140F0B2FCE0601FBD47
:1002600010B510BD3FF062FF1146FFF7E3FF00F04D
:100270002CF940F043F803B4FFF7F2FF03BC3BF066
:100280000AFC0000052828BF70474FEA8000784428
:10029000D0F802F0ED020000B302000051030000AC
:1002A00071030000910300004FF0010080F31488F7
:1002B00000DF0A4C4FF00105257077463EF0B4FD93
:1002C000BE46074E3668074C2660D6F800D001BC03
:1002D00005490860BDE8F00F704700BF83060010B5
:1002E000940600108C060010580600104FF008020B
:1002F00082F3118800B53EF097FD5DF804EB2DE91F
:10030000F00F0E49086801B40D4A1268C2F800D017
:100310000C4C0D4D2E7826700C4E3668084C26601D
:10032000D6F800D001BC086000280CBF00220822CB
:1003300082F31188BDE8F00F704700BF5806001027
:100340008C06001078060010790600109406001044
:100350000649086800F101004FF0080282F3118895
:10036000002808BF70470860704700BF580600109B
:100370000649086800281CBF01380860002818BF1B
:1003800070474FF0000282F3118870475806001042
:100390004FF0000080F3148870474FF0010080F3A5
:1003A0001488704788476FF0FF003AF07CF900002E
:1003B0001CB5544890F82B200121182037F026FD59
:1003C0000D230222CDE900234FA30E21282037F070
:1003D000F6FB1CBD08B500BF37F0D9FE35F0BAFFFB
:1003E00036F0A0F835F05BFE36F09CF938F01EFBD5
:1003F00036F089FD4849002038F092FA36F054FA78
:1004000038F092FB37F0C3FE00200EF055FA0020C2
:100410000EF02EF8FFF7CCFF36F084F80CF0F6FF64
:1004200006233E4A00213E483AF09CF8022039F06B
:1004300033FF3EF0F3FB16F0E5FB022039F02CFF12
:1004400016F000FA022039F027FF1EF07CFB1EF0A8
:1004500021FC022039F020FF1CF033FA6A4600210B
:10046000304800683AF06CFB0EF0FDFF17F0B0FB6F
:1004700084212D483FF07CF8022039F00DFF09233C
:100480002A4A00212A483AF06DF8022039F004FF88
:100490001AF0C0F9022039F0FFFE0823254A002196
:1004A00025483AF05FF8022039F0F6FE19F08AFC90
:1004B000C82039F0F1FE07E0002003F05EFC02E006
:1004C000322039F0E9FEFBE7F6E700B585B03AF0F7
:1004D000A6FE3AF063FE38F0A0FE012300221902C6
:1004E0001648CDE90323CDE901010723144A002171
:1004F000AFF21F1000933AF07DF838F051FF002062
:1005000005B000BDD006001076657273696F6E2568
:10051000642E25303264000080A90300C43200102C
:10052000654602007C000010380A0010C446001026
:1005300049550300C4420010F59A0200C80A001091
:10054000C42A0010F8B505460E4614461F460A2177
:10055000002037F011FC022301220B21002037F08C
:10056000D9FBFF480095837800220B21282037F023
:100570007AFAFB488078012807D0F94800968378FA
:1005800000220D21282037F06EFA20463EF0DEFED4
:10059000C8B1022301220B21702037F0BBFBF048C9
:1005A0000094837800220B21982037F05CFAEC4805
:1005B0008078012807D0EA480097837800220D212F
:1005C000982037F050FAF8BD10B501220A2100201A
:1005D00037F07EF903220B21002037F079F910BDA6
:1005E00030B58BB0202103A83EF0C2FFDD4836F0C5
:1005F0007AF9022039F050FEDB480078F0B3D94890
:1006000036F071F9022039F047FE0223042201215D
:10061000002037F07FFBD548D0F8AC1003A83EF09F
:1006200071FE03AB02220121282037F0C8FACF481F
:10063000D0F8B41003A83EF065FE03AB01220321FD
:10064000282037F0BCFAC6488078C0EBC00202EB25
:100650000010C64A02EB8000816D03A83EF052FEF6
:1006600003ABBF480093837800220521282037F090
:10067000FAF9BB4890F8BC00012800E074E019D1F9
:10068000BB4880890A2190FBF1F201FB1204B848B3
:10069000808990FBF1F523462A46B6A103A83EF0D7
:1006A00033FC03ABAE480093837800220721282057
:1006B00037F0D9F90A21002037F05EFBAF48C08837
:1006C000A849C98888420BD1AC484079A5494979E5
:1006D000884205D1A948C078A249C978884222D069
:1006E000A048C288A6A103A83EF00EFC03AB0222DC
:1006F0000B21282037F063FA9A48C3784279A2A1E7
:1007000003A83EF001FC03AB02220D21282037F0A4
:1007100056FA9448C0889949C880924840794871EF
:100720009048C078C870954880788E49897888420A
:1007300005D1924840788B494978884213D089483E
:100740004378827893A103A83EF0DEFB03AB03223B
:100750000B21602037F033FA82488078874988700F
:1007600080484078487078E07D48807800EB8000D1
:100770008B4A02EBC000816903A83EF0C3FD03ABC6
:1007800077480093837800220221482037F06BF9E4
:10079000734890F8BC00012819D1754880890A2156
:1007A00090FBF1F201FB12047148808990FBF1F596
:1007B00023462A466FA103A83EF0A6FB03AB684878
:1007C0000093837800220521AA2037F04CF96B486A
:1007D000C0886449C98888420BD16848407961491A
:1007E0004979884205D16548C0785E49C978884210
:1007F00015D05C48C3784279C1888DE80E0069A3A2
:1008000002220621502037F0DAF95648C0885B49A9
:10081000C8805448407948715248C078C8705748D9
:10082000807850498978884205D1544840784D49AC
:100830004978884211D04B4843788278CDE900232B
:1008400054A3042208213C2037F0B9F945488078A8
:100850004A4988704348407848700BB030BD30B585
:1008600089B0202101A83EF083FE3E4836F03BF8D7
:10087000022039F011FD022303220121002037F06C
:1008800049FA37488078C0EBC00202EB0010374AC3
:1008900002EB8000C16C01A83EF034FD01AB304892
:1008A0000093837800220121282037F0DCF82C48BF
:1008B0008078C0EBC00202EB00102C4A52F82010E6
:1008C00001A83EF01FFD01AB25480093837800226C
:1008D0000321282037F0C7F8214890F8BC000128F0
:1008E00019D1234880890A2190FBF1F201FB1204FF
:1008F0001F48808990FBF1F523462A461DA101A8D7
:100900003EF002FB01AB16480093837800220521DC
:10091000282037F0A8F80A21002037F02DFA1748D0
:10092000C0881049C98888420BD1144840790D49C4
:100930004979884205D11148C0780A49C978884266
:100940004ED00848C2880EA101A83EF0DDFA01ABE6
:1009500002220B21282037F032F90248C37829E01F
:10096000D0060010000000101C000010E001001074
:10097000E050001025642E2564209200080000102D
:100980002530346400000000253032642D253032DB
:1009900064000000253032643A25303264000000E3
:1009A00018010010253034642D253032642D253097
:1009B000326400004279AFF2300101A83EF0A4FA9F
:1009C00001AB02220D21282037F0F9F8FF48C0883A
:1009D000FF49C880FD4840794871FC48C078C8701C
:1009E000FB488078F9498978884205D1F8484078F1
:1009F000F6494978884214D0F44843788278AFF2B7
:100A00006C0101A83EF080FA01AB03220B216020AB
:100A100037F0D5F8ED488078ED498870EB4840789C
:100A2000487009B030BD10B50246012904D0E94B29
:100A300093F89930012B2CD11378412B0BD153789B
:100A4000303B03EB8303642404EB43049378303B93
:100A5000234498B228E01378422B0BD15378303BD3
:100A600003EB8303C82404EB43049378303B234413
:100A700098B219E01378303B642463435478303CD7
:100A800004EB840403EB44049378303B234498B292
:100A90000AE01378303B03EB8303642404EB430444
:100AA0005378303B234498B210BD30B502460B78E2
:100AB000303B4FF47A7463434C78303C04EBC4050C
:100AC00005EB041403EB84041378303B03EB83033E
:100AD00004EB43045378303B234498B230BD0EB549
:100AE00036F0FCF9B948C3784279C1888DE80E0028
:100AF000AFF2501302221146502037F060F8B3488D
:100B000043788278CDE90023AFF2781304221146AE
:100B10003C2037F054F80EBD10B50020AE490870E7
:100B2000AE490870AE4800210180AE480180817056
:100B30000020AD498870AD48006839F06DF910BDEE
:100B4000AB480068AB4909680844AB4909680844E8
:100B5000AA490968084470472DE9F04F95B0064648
:100B6000884620210DA83EF003FD202105A83EF077
:100B7000FFFC4FF00009002004900024002500270E
:100B800098F8000002281DD13078432802D0307830
:100B9000452817D100209049087092480021018013
:100BA0008170FFF7CDFF18B103209549087006E06A
:100BB000FFF7B2FFFFF708FD00209149087015B05C
:100BC000BDE8F08F98F8000002286FD13178824894
:100BD00002780078401C804B1870824881547D4810
:100BE000807800EB8000874A52F830100DA83EF064
:100BF00089FB784890F83100012813D179480078B2
:100C00002E2803D141207749087006E07548007806
:100C1000442802D142207349087072490DA83EF061
:100C2000FAFB03E06F490DA83EF0F5FB7548816AB9
:100C300005A83EF067FB6B4905A83EF0ECFBAFF260
:100C4000BC23AFF2C02205A90DA8FFF77BFC6148C9
:100C500090F83100012804D05E4890F899000128EE
:100C600077D15D48007803281FDB5A4890F831009F
:100C7000E8B95C4800782E2813D05A4800784428F8
:100C80000FD0584840782E280BD05648407844283A
:100C900007D0544880782E2803D0524880784428C2
:100CA00005D14FF005090120049057E263E14D485A
:100CB00040782E280BD04B484078442807D049482C
:100CC00080782E2803D047488078442804D14FF0FC
:100CD00005090120049041E23E4890F83110414856
:100CE000FFF7A1FE0446642094FBF0F000F0FF0A39
:100CF000642094FBF0F100FB114000F0FF0B514623
:100D000058461BF0D6FE00F0FF09324890F82F003D
:100D1000022827D1642094FBF0F000F0FF0A642041
:100D200094FBF0F100FB114000F0FF0B52465946D6
:100D3000012018F0F7FC00202749087029480021FD
:100D400001808170FFF7FCFE20B103202C49087060
:100D500007E064E0FFF7E0FEFFF736FC00202849DB
:100D600008702CE71B4890F82F00042854D1642009
:100D700094FBF0F100FB114000F0FF0A642094FBAB
:100D8000F0F000F0FF0B514658461CF077FC074688
:100D90006FB1642094FBF0F000F0FF0A3946504632
:100DA0001CF0FCFD012802D0384618F0E0FF0020BE
:100DB000094908700B48002101808170FFF7C0FECF
:100DC00018B103200E49087025E01DE00000001056
:100DD00008000010D0060010190000101A000010C2
:100DE00017000010140000105409001094000010A7
:100DF0002000001024000010280000102C0000101B
:100E00001B00001018010010FFF786FEFFF7DCFB47
:100E10000020FF490870D2E6012004909EE1FD48C1
:100E20000078022813DBFC4800782E280BD0FA4803
:100E30000078442807D0F84840782E2803D0F64898
:100E40004078442804D14FF005090120049085E141
:100E5000F24890F83110F048FFF7E5FD04466420B1
:100E600094FBF0F000F0FF0A642094FBF0F100FB2B
:100E7000114000F0FF0B514658461BF01AFE00F0DF
:100E8000FF092146E6A017F06FF8E44890F82F001C
:100E9000022826D1642094FBF0F000F0FF0A6420C1
:100EA00094FBF0F100FB114000F0FF0B5246594655
:100EB000012018F037FC0020D6490870D6480021E0
:100EC00001808170FFF73CFE18B10320D049087003
:100ED00006E0FFF721FEFFF777FB0020CC49087002
:100EE0006DE6CE4890F82F00042841D1642094FB91
:100EF000F0F100FB114000F0FF0A642094FBF0F0D9
:100F000000F0FF0B514658461CF0B8FB0746CFB126
:100F1000642094FBF0F000F0FF0A394650461CF0C4
:100F20003DFD01280ED0642094FBF0F000F0FF0A94
:100F30000322394650461CF067FC032802D038468D
:100F400018F015FF0020B3490870B3480021018054
:100F50008170FFF7F5FD18B10320AD49087006E078
:100F6000FFF7DAFDFFF730FB0020A949087026E6FD
:100F700001200490F2E098F8000001280AD13278AC
:100F8000012108461BF0BDFC044624B94FF00209BC
:100F900001200490E2E09F480078002804DD4FF033
:100FA000050901200490D9E09C4890F831000128FF
:100FB00023D14121974802780078401C954B187046
:100FC000954881540A2094FBF0F03030C2B21846A4
:100FD00001780078401C18708F4842540A2094FB16
:100FE000F0F100FB11403030C1B2184602780078B1
:100FF000401C1870884881541AE00A2094FBF0F0D5
:101000003030C1B2834802780078401C814B1870A0
:10101000814881540A2094FBF0F100FB11403030EC
:10102000C1B2184602780078401C18707A48815482
:101030007A48807800EB80007F4A52F830100DA883
:101040003EF060F974490DA83EF0E5F97A48816AEE
:1010500005A83EF057F9704905A83EF0DCF9AFF25B
:10106000DC63AFF2E06205A90DA8FFF76BFA6B48ED
:1010700090F831106848FFF7D6FC0446642094FBD2
:10108000F0F000F0FF0A642094FBF0F100FB114047
:1010900000F0FF0B514658461BF00BFD00F0FF0916
:1010A0005E4890F82F00022826D1642094FBF0F0CF
:1010B00000F0FF0A642094FBF0F100FB114000F007
:1010C000FF0B52465946012018F02CFB00205149D5
:1010D00008705148002101808170FFF731FD18B17F
:1010E00003204B49087006E0FFF716FDFFF76CFA86
:1010F00000204749087062E5484890F82F0004280E
:101100002AD1642094FBF0F100FB114000F0FF0AAB
:10111000642094FBF0F000F0FF0B514658461CF0A1
:10112000ADFA074617B1384618F021FE00203949BC
:1011300008703948002101808170FFF701FD18B166
:1011400003203349087006E0FFF7E6FCFFF73CFA9E
:1011500000202F49087032E501200490049878B3EC
:10116000B9F1060F34D2DFE809F0AA7B0334047A20
:1011700000BF2A48807800EB80002F4A02EBC000B5
:1011800041690DA83EF0BEF82B48C16B05A83EF0A2
:10119000B9F8AFF61003AFF6140205A90DA8FFF7D2
:1011A000D1F94FF4C87039F077F8FFF7C9FC40B1B6
:1011B000194800210180817003201549087007E05B
:1011C0004CE1FFF7A9FCFFF7FFF900201049087078
:1011D00040E11248807800EB8000174A02EBC00023
:1011E00001690DA83EF08EF81348816B05A83EF00A
:1011F00089F8AFF67003AFF6740205A90DA8FFF7E2
:10120000A1F94FF4C87039F047F8FFF799FC15E0E1
:101210001B0000101900001014000010D006001070
:101220000D0A2041505055626F7842746E636C6FA6
:10123000756D6E3D256400001801001038B1FF483F
:101240000021018081700320FD49087006E0FFF74E
:1012500063FCFFF7B9F90020F9490870FAE000BF14
:10126000F848807800EB8000F74A02EBC000416844
:101270000DA83EF047F8F448C16A05A83EF042F8D0
:10128000AFF60013AFF6041205A90DA8FFF75AF93F
:101290004FF4C87039F000F8FFF752FC38B1E74856
:1012A0000021018081700320E549087006E0FFF706
:1012B00033FCFFF789F90020E1490870CAE0642097
:1012C00094FBF0F000F0FF0A642094FBF0F100FBC7
:1012D000114000F0FF0B5246012158461BF0F1FB74
:1012E000DA49086008460568D64890F82700A8B390
:1012F000012834D0022830D16420B5FBF0F100FB86
:10130000115AB5FBF0FBCF48807800EB8000CE4946
:1013100001EBC000C168CB48CDE901BA00918078EB
:1013200000EB8000C84901EBC000C44BC8A1C269F2
:101330000DA83DF0E9FD6420B5FBF0F100FB115A6A
:10134000B5FBF0FBC048416BCDE901BA0091BB4B46
:10135000BFA1426C05A83DF0D7FD5BE033E00A2059
:10136000B5FBF0F5B5FBF0F100FB115AB5FBF0FB56
:10137000B448807800EB8000B34901EBC000C1683D
:10138000B048CDE901BA0091807800EB8000AE4909
:1013900001EBC000A94BB3A1C2690DA83DF0B4FD9B
:1013A0000A20B5FBF0F100FB115AB5FBF0FBA64893
:1013B000416BCDE901BA0091A04BAAA1426C05A8EE
:1013C0003DF0A2FD26E06420B5FBF0FA9D48807850
:1013D00000EB80009C4901EBC000C2689948CDE950
:1013E000002A807800EB800001EBC000934BA1A1A4
:1013F000C2690DA83DF088FD6420B5FBF0FA924863
:10140000426BCDE9002A8D4B9AA1426C05A83DF0B4
:101410007BFD00BF00BFAFF69423AFF6982205A96D
:101420000DA8FFF78FF8C82038F036FFFFF788FBCC
:1014300028B19348048005208149087009E0C8203C
:1014400038F02AFFFFF768FBFFF7BEF800207C4961
:10145000087000BF00BF00208A49087000BF80E408
:101460002DE9F04F93B0064620210BA83EF080F8FE
:10147000202103A83EF07CF80027B846B946002496
:101480000025307843281BD100207E4908707E4912
:1014900008706A480021018081707C480180FFF754
:1014A0004FFB18B103206649087006E0FFF734FBD4
:1014B000FFF78AF800206249087013B0BDE8F08F8A
:1014C00071480078F0BB3078452829D032786D48D3
:1014D00001780078401C6B4B18706C484254594896
:1014E000807800EB80006A4A02EB0010816C0BA848
:1014F0003DF008FF65490BA83DF08DFF6448D0F82A
:10150000981003A83DF0FEFE604903A83DF083FF5C
:10151000AFF69033AFF6943203A90BA8FFF712F899
:1015200058480078022857DB58480078302839DBC3
:1015300056480078392835DC54484078302831DB6B
:10154000524800E0CBE0407839282BDC01204E499E
:10155000087000204B4908703848002101808170D4
:101560004A490BA83DF0CEFE3648807800EB80005B
:10157000474A02EB0010C16C0BA83DF04CFF4349F9
:1015800003A83DF0BFFE4248D0F89C1003A83DF0F0
:1015900042FFAFF61043AFF6144203A90BA8FEF7C3
:1015A000D1FFD4E10020374908703749087023483B
:1015B00000210180817035480180FFF7C1FA18B120
:1015C00003201F49087006E0FFF7A6FAFEF7FCFFAC
:1015D00000201B49087070E73078452864D12B48FB
:1015E0000078302861DB2948007839285DDC2748FD
:1015F0000078264948703020087001202249087080
:101600000020204908700D480021018081700D489C
:10161000807800EB80001E4901EB00101B4A1DA1E1
:10162000C36C0BA83DF070FC1948184A19A1D0F8FA
:101630009C3003A83DF068FC17A32FE014000010B5
:101640001B000010D006001018010010340000101C
:1016500025732025732C2573253032642E253032D6
:101660006400000025732025732C257325642E2526
:101670006400000025732025732C25732564000069
:1016800030000010190000101A00001017000010A0
:10169000AC0300102573257300000000AFF20802B0
:1016A00003A90BA8FEF74EFF51E10020FB4908708B
:1016B000FB490870FB48002101808170FA480180D5
:1016C000FFF73EFA18B10320F849087006E0FFF76B
:1016D00023FAFEF779FF0020F4490870EDE6F048A0
:1016E000007801287ED13078452835D03178EB4814
:1016F00002780078401CE94B1870EA488154EA48A7
:1017000040783038E8490978303901EB810100EB45
:10171000410000F0FF09E34BE5480093807800EBBF
:101720008000E44901EB00104A46E3A1C36C0BA81A
:101730003DF0EAFBDB4BDF4800934A46DEA1D0F8E0
:101740009C3003A83DF0E0FBAFF2B403AFF2B80267
:1017500003A90BA8FEF7F6FED0480078022875DB37
:10176000D0480078302856DBCE480078392852DC43
:10177000CC48407830284EDBCA48407839284ADCCB
:10178000C949C848FFF791F90446642094FBF0F07A
:1017900000F0FF0A642094FBF0F100FB114000F020
:1017A000FF0B514658461BF084F9C7B2C04890F869
:1017B0002F0002282CD1642094FBF0F000F0FF0AE7
:1017C000642094FBF0F100FB114000F0FF0B524647
:1017D0005946012017F0A6FF0020B0490870B04913
:1017E000087000E08BE0AF48002101808170AE48B6
:1017F0000180FFF7A5F918B10320AC49087006E095
:10180000FFF78AF9FEF7E0FE0020A849087054E6C9
:101810004FF001089BE00020A0490870A049087023
:10182000A0480021018081709F480180FFF788F95E
:1018300018B103209D49087006E0FFF76DF9FEF727
:10184000C3FE00209949087037E6FFE73078452845
:101850007DD194480078302852DB924800783928AE
:101860004EDC904800788F494870302008708E49CF
:101870008C48FFF71AF90446642094FBF0F000F05E
:10188000FF0A642094FBF0F100FB114000F0FF0B15
:10189000514658461BF00DF9C7B2854890F82F0005
:1018A00002282AD1642094FBF0F000F0FF0A6420A3
:1018B00094FBF0F100FB114000F0FF0B524659463B
:1018C000012017F02FFF0020744908707449087038
:1018D000744800210180817073480180FFF730F95E
:1018E00018B103207149087006E0FFF715F9FEF7FB
:1018F0006BFE00206D490870DFE54FF0010826E01F
:10190000002066490870674800210180817068489E
:10191000807800EB8000674901EB0010624AAFF26B
:101920008C21C36C0BA83DF0EFFA62485E4AAFF21F
:101930009C21D0F89C3003A83DF0E6FAAFF2A82332
:10194000AFF2AC2203A90BA8FEF7FCFDB5E5B8F198
:10195000000F73D0062F3AD2DFE807F0BC72033ACB
:10196000047100BF5248807800EB8000544A02EBBB
:10197000C00041690BA83DF0C5FC5148C16B03A8EC
:101980003DF0C0FCAFF2F023AFF2F42203A90BA8A4
:10199000FEF7D8FD4FF4C87038F07EFCFFF7D0F8A2
:1019A00070B100203D4908703D4908703E48002153
:1019B00001803C480180817003203C49087006E0AA
:1019C000FFF7AAF8FEF700FE00203849087052E140
:1019D0003748807800EB8000394A02EBC00001698B
:1019E0000BA83DF08FFC3648816B03A83DF08AFCC4
:1019F000AFF25C33AFF2603203A90BA8FEF7A2FD91
:101A00004FF4C87038F048FCFFF79AF870B1002026
:101A1000224908702249087023480021018021488A
:101A20000180817003202149087006E0FFF774F8F7
:101A3000FEF7CAFD00201D4908701CE121E100BF2E
:101A40001B48807800EB80001D4A02EBC000416813
:101A50000BA83DF057FC1A48C16A03A83DF052FCA0
:101A6000AFF2CC33AFF2D03203A90BA8FEF76AFD78
:101A70004FF4C87038F010FCFFF762F810B3002084
:101A8000064908700649087007480021018005488A
:101A9000018081700320054908701AE019000010C8
:101AA0001A00001014000010170000101B00001096
:101AB000D0060010AC0300102564257325730000C8
:101AC00018010010FFF728F8FEF77EFD0020FD4901
:101AD0000870D0E0642094FBF0F000F0FF0A64206E
:101AE00094FBF0F100FB114000F0FF0B5246012186
:101AF00058461AF0E6FFF449086008460568F348BE
:101B000090F82700B8B3012836D0022832D16420DB
:101B1000B5FBF0F100FB115AB5FBF0FBEB48807808
:101B200000EB8000EA4901EBC000C168E748CDE95D
:101B300001BA0091807800EB8000E54901EBC0001C
:101B4000E44BAFF2F441C2690BA83DF0DDF964202B
:101B5000B5FBF0F100FB115AB5FBF0FBDC48416B23
:101B6000CDE901BA0091DB4BAFF21C51426C03A8E6
:101B70003DF0CAF95FE035E00A20B5FBF0F5B5FBB2
:101B8000F0F100FB115AB5FBF0FBD048807800EB78
:101B90008000CF4901EBC000C168CC48CDE901BA53
:101BA0000091807800EB8000C94901EBC000C94B6F
:101BB000AFF25051C2690BA83DF0A6F90A20B5FB5F
:101BC000F0F100FB115AB5FBF0FBC148416BCDE9C8
:101BD00001BA0091BF4BAFF27451426C03A83DF0C3
:101BE00093F928E06420B5FBF0FAB848807800EB60
:101BF0008000B74901EBC000C268B448CDE9002AB3
:101C0000807800EB800001EBC000B24BAFF29C513A
:101C1000C2690BA83DF078F96420B5FBF0FAAC4836
:101C2000426BCDE9002AAB4BAFF2B851426C03A82E
:101C30003DF06AF900BF00BFAFF2A453AFF2A85263
:101C400003A90BA8FEF77EFCC82038F025FBFEF7A1
:101C500077FF28B1A048048005209A49087009E060
:101C6000C82038F019FBFEF757FFFEF7ADFC002047
:101C70009449087000BF00BF002098490870984937
:101C8000087000BF19E42DE9F041A4B006460D46E6
:101C900020211CA83DF06CFC202114A83DF068FC1C
:101CA00020210CA83DF064FC202104A83DF060FC3C
:101CB000022038F0F1FAFEF743FF0446EEBB8348FA
:101CC0008078012814D08748036D8048807800EB25
:101CD0008000844901EB001083A102687B488DE8F5
:101CE0000E008378002202214C2035F0BCFE0CE06F
:101CF0007C48AFF23822036D7448CDE90023837825
:101D000000220221602035F0AEFE042211460020A0
:101D100035F0DEFD6D48807828B9022300220521C8
:101D20002C2035F0F7FF694890F8270048B30128C8
:101D300014D0022831D1642000E05CE0B4FBF0F163
:101D400000FB1147B4FBF0F8AFF2F4630422114634
:101D50004C20CDE9008735F032FF1EE00A20B4FBAD
:101D6000F0F4B4FBF0F100FB1147B4FBF0F8AFF274
:101D70000473042211464C20CDE9008735F01FFF83
:101D80000BE06420B4FBF0F7AFF2107304221146AD
:101D90004C20009735F013FF00BF00BF012D11D17B
:101DA0004A48807800EB80004E4A02EB0010816CBC
:101DB0001CA83DF0A7FA4B48D0F8981014A83DF0A5
:101DC000A1FA0FE04148807800EB8000454A02EB21
:101DD000001001691CA83DF095FA4248016E14A854
:101DE0003DF090FAAFF25073AFF2547214A91CA8F0
:101DF000FEF7A8FBC3E035488078012814D03948A5
:101E0000436D3248807800EB8000364901EB0010CA
:101E100035A142682D488DE80E008378002202210A
:101E20004C2035F020FE12E02848807800EB80003E
:101E30002C4901EB0010AFF27C3243682348CDE916
:101E40000023837800220221602035F00CFE04225A
:101E50001146002035F03CFD1C48807828B902234B
:101E6000002205212C2035F055FF184890F8270056
:101E700038B3012812D0022846D16420B4FBF0F117
:101E800000FB1147B4FBF0F8AFF63403042211460F
:101E90004C20CDE9008735F092FE35E00A20B4FBF6
:101EA000F0F4B4FBF0F100FB1147B4FBF0F8AFF62F
:101EB0004403042211464C20CDE9008735F07FFE13
:101EC00022E015E01B00001034000010D0060010C6
:101ED000180100101400001030000010190000104C
:101EE0001A000010AC03001025732F2573000000AA
:101EF0006420B4FBF0F7AFF67C03042211464C20BB
:101F0000009735F05CFE00BF00BF012D11D1FF48E6
:101F1000807800EB8000FE4A02EB0010816C1CA868
:101F20003DF0F0F9FA48D0F8981014A83DF0EAF91D
:101F30001FE0F648807800EB8000F54A02EB0010C5
:101F400041691CA83DF0DEF9F148416E14A83DF04E
:101F5000D9F9EE48807800EB8000ED4A02EB0010E2
:101F600081690CA83DF0CEF9E948816E04A83DF0E6
:101F7000C9F904AB0CAA14A91CA8FEF7E3FA24B013
:101F8000BDE8F08100B591B0202109A83DF0F0FA3C
:101F9000202101A83DF0ECFADC48807800EB8000BD
:101FA000DB4A02EB0010816809A83DF0ABF9D84884
:101FB000816D01A83DF0A6F9AFF62413AFF6281203
:101FC00001A909A8FEF7BEFA11B000BD70B598B01E
:101FD0000446202110A83DF0CBFA202108A83DF0AE
:101FE000C7FA202168463DF0C3FAC848807800EB64
:101FF0008000C74A02EB0010C16868463DF082F9D4
:10200000C348C16D08A83DF07DF9C04890F827008D
:1020100018B3012810D0022829D16420B4FBF0F1B4
:1020200000FB1145B4FBF0F62B463246AFF6D81153
:1020300010A83CF069FF1AE00A20B4FBF0F4B4FBEE
:10204000F0F100FB1145B4FBF0F62B463246AFF63B
:10205000E41110A83CF058FF09E06420B4FBF0F54F
:102060002A46AFF6E81110A83CF04EFF00BF00BFB3
:1020700010A968463DF0CFF9AFF6E413AFF6E812C9
:1020800008A96846FEF75EFA4FF4C87038F004F904
:1020900018B070BD00B591B0202109A83DF068FAD4
:1020A000202101A83DF064FA9848807800EB800078
:1020B000974A02EB0010816B09A83DF023F9944880
:1020C000D0F8881001A83DF01DF9AFF63423AFF623
:1020D000382201A909A8FEF735FA4FF4C87038F084
:1020E000DBF811B000BD00B591B0202109A83DF08A
:1020F0003FFA202101A83DF03BFA8448807800EBAC
:102100008000834A02EB0010C16B09A83DF0FAF889
:102110007F48D0F88C1001A83DF0F4F8AFF6882382
:10212000AFF68C2201A909A8FEF70CFA142038F0AA
:10213000B3F811B000BD00B591B0202109A83DF061
:1021400017FA202101A83DF013FA7048807800EBBF
:1021500080006F4A02EB0010016C09A83DF0D2F834
:102160006B48D0F8901001A83DF0CCF8AFF6D8231A
:10217000AFF6DC2201A909A8FEF7E4F94FF4C87014
:1021800038F08AF811B000BD10B590B0202108A831
:102190003DF0EEF9202168463DF0EAF95D480088FF
:1021A000642190FBF1F201FB12045848807800EBA7
:1021B0008000574901EB0010224657A1C36A08A8C6
:1021C0003CF0A2FE53480088642190FBF1F201FB31
:1021D00012044F48224650A1C36F68463CF094FE5B
:1021E000AFF64C33AFF65032694608A8FEF7AAF9AD
:1021F00010B010BD00B591B0202109A83DF0B8F98C
:10220000202101A83DF0B4F94048807800EB80001F
:102210003F4901EB0010AFF25C71C26A09A83CF0C3
:1022200073FE3B48AFF26C71C26F01A83CF06CFECC
:10223000AFF69C33AFF6A03201A909A8FEF782F9E8
:1022400011B000BD00B591B0202109A83DF090F972
:10225000202101A83DF08CF92C48807800EB80000B
:102260002B4A02EB0010016B09A83DF04BF82848FF
:10227000D0F8801001A83DF045F8AFF6E433AFF692
:10228000E83201A909A8FEF75DF9642038F004F8E6
:1022900011B000BD00B591B0202109A83DF068F94A
:1022A000202101A83DF064F91848807800EB8000F7
:1022B000174A02EB0010416B09A83DF023F81448BF
:1022C000D0F8841001A83DF01DF8AFF63443AFF606
:1022D000384201A909A8FEF735F94FF4C87037F064
:1022E000DBFF11B000BD00B591B0202109A83DF081
:1022F0003FF9202101A83DF03BF90448807800EB2C
:102300008000074A52F8201009A80BE0D006001000
:10231000AC0300103000001025642025730000007D
:102320003C0500103CF0EEFFFF48416901A83CF07D
:10233000E9FFAFF69C43AFF6A04201A909A8FEF75A
:1023400001F911B000BD00B591B0202109A83DF000
:102350000FF9202101A83DF00BF9F448807800EB3B
:102360008000F14A02EB8000816809A83CF0CAFFB6
:10237000ED48C16901A83CF0C5FFAFF6E443AFF6F4
:10238000E84201A909A8FEF7DDF8642037F084FFD0
:1023900011B000BD70B592B0044620210AA83DF0EE
:1023A000E7F8202102A83DF0E3F8E04890F8270084
:1023B00088B3012817D002283FD16420B4FBF0F184
:1023C00000FB1145B4FBF0F6D8480095807800EB8F
:1023D0008000D54901EB80003346D5A142680AA8A8
:1023E0003CF092FD29E00A20B4FBF0F4B4FBF0F1DC
:1023F00000FB1145B4FBF0F6CC480095807800EB6B
:102400008000C94901EB80003346CCA142680AA88C
:102410003CF07AFD11E0FFE76420B4FBF0F5C3481F
:10242000807800EB8000C04901EB80002B46C5A1FD
:1024300042680AA83CF068FD00BF00BFBA48816945
:1024400002A83CF05FFFC0A3BFA202A90AA8FEF742
:1024500079F84FF47A7037F01FFF12B070BD00B5F5
:1024600089B0202101A83DF083F834F037FD022027
:1024700037F012FFAC48016A01A83CF043FF01AB02
:1024800003220521302035F09AFBA84880780128E6
:1024900013D0A648807800EB8000A34A02EB8000AE
:1024A000016901A83CF02EFF01ABA048009383789E
:1024B00000220B213C2035F0D6FA09B000BDA3481C
:1024C0000068704770B506460C461546974890F868
:1024D0002300C8B1012E02D0022E14D109E09CA025
:1024E00015F032FC14F0A8FA0121084614F081FE20
:1024F00009E09BA015F028FC14F08BFA00210120C4
:1025000014F077FE00BF00BF884890F82100C8B1E2
:10251000012C02D0022C14D109E095A015F014FC76
:1025200014F0F5FB0121022014F063FE09E094A0F1
:1025300015F00AFC14F0D0FB0021022014F059FE23
:1025400000BF00BF794890F8260058B1012D02D095
:10255000022D06D102E01CF0EFFB02E01CF0DBFBD9
:1025600000BF00BF142037F097FE70BD10B5FEF716
:10257000E7FAF0B986480078D8B98648407A012849
:1025800017D1FEF7DDFA04468248437A8048027884
:10259000214681A015F0D8FB14F006FA142037F07C
:1025A0007BFE002211460120FFF78CFF142037F03C
:1025B00073FE10BD00207D49C8804871C8708870C6
:1025C000487001207A49887070472DE9F04104462F
:1025D000002500260027012C1ED114F0D0FE58B98A
:1025E000524890F8230038B101250020684908704E
:1025F00034F074FCFFF7DEFF022014F0C0FE90BB45
:102600004A4890F82100012804D0484890F8210059
:10261000032828D1012626E0022C24D1012014F021
:10262000AEFE01280BD1414890F8230038B10225B5
:1026300001205749087034F051FCFFF7BBFF02201E
:1026400014F09DFE01280ED1384890F82100012891
:1026500004D0364890F82100032804D1334890F87C
:10266000C50000B902263A4631462846FFF72AFF40
:10267000002D01DD16F09DFDBDE8F081F0B585B0BF
:10268000002500260027294890F82500022812D1AD
:1026900000240EE0474850F8240040B1454850F867
:1026A00024101C3030F8140001FB00662746601C23
:1026B000C4B2072CEEDB1D4890F8220002287DD121
:1026C0003D48406F3C49B1F8C01048433A498A6FD1
:1026D000B1F8C21002FB01013748C26FB0F8C40064
:1026E00002FB00113448D0F88020B0F8C60002FB8D
:1026F00000113148D0F88420B0F8C80002FB001166
:102700002D48D0F88820B0F8CA0002FB00112A48F2
:10271000D0F88C20B0F8CC0002FB00112648D0F88D
:102720009020B0F8CE004AE03C050010D006001022
:102730002573253032642E253032640025732564DC
:102740002E25640025732564000000002C00001075
:102750000D0A20417070656E42696C6C00000000CB
:102760000D0A2041707064697342696C6C0000004E
:102770000D0A20417070656E436F696E00000000A5
:102780000D0A20417070646973436F696E00000028
:102790001C000010604800100D0A2045727242694A
:1027A0006C6C3D25642C25642C2564000800001009
:1027B00054090010280900101C0800103AE002FB20
:1027C0000011FF48D0F89420B0F8D00002FB0011AF
:1027D000FB48D0F89820B0F8D20002FB0011F8486E
:1027E000D0F89C20B0F8D40002FB0011F448D0F8D7
:1027F000A020B0F8D60002FB0011F148D0F8A420C8
:10280000B0F8D80002FB0011ED48D0F8A820B0F8CD
:10281000DA0002FB0011EA48D0F8AC20B0F8DC0086
:1028200002FB0011E648D0F8B020B0F8DE0002FB51
:10283000001512E0E34890F82200012808D114F0B6
:1028400073FC10B9DF48806B00E00020054604E00F
:10285000DC4890F8220000B900257019D949896B2D
:10286000884202D9D748806B00E07019D6490860C9
:10287000D448D0F8C03008460268D248816BD348AB
:10288000CDE90065CDE90323029150F82700DFF878
:102890003CC30CF11C0C3CF817C000FB0CF3C848FF
:1028A000806FDFF81CC3BCF8C2C000FB0CF2C44848
:1028B000406FDFF80CC3BCF8C0C000FB0CF1C4488B
:1028C00015F042FABF4890F8220002280CD1BD480A
:1028D000D0F8C000A84203D90220FFF776FE35E009
:1028E0000120FFF772FE31E0B64890F8220001287F
:1028F0000CD1B448D0F8C000A84203D90220FFF799
:1029000064FE23E00120FFF760FE1FE0AD4890F871
:102910002200D8B9AB4890F8250002280DD17019D3
:10292000A849D1F8C010884203D20220FFF74DFE1B
:102930000CE00120FFF749FE08E0A248806BA249A5
:102940000860A4480168A4A015F0FEF9FFF70EFE88
:10295000002005B0F0BD014669B99A4A92F82E20D0
:102960000F32FF2A01DDFF2203E0964A92F82E2063
:102970000F32D0B20CE001290AD1924A92F82E20EF
:10298000FF2A01DDFF2202E08E4A92F82E20D0B20B
:10299000704770B58B4890F8210018B314F053F9C4
:1029A0000446FCB191480068204490490860FEF755
:1029B000C7F80546024621468DA015F0E7F9022228
:1029C00000210846FFF77EFD0121204614F0CCFDD2
:1029D000FEF7B6F805460246A1B2012016F03BFB11
:1029E000012070BD774890F8230090B313F08CFF5E
:1029F000044674B3214684A015F0A6F98648006801
:102A00000119744803687048026884A015F09CF9A5
:102A10008148006820446C49096888421AD213F042
:102A20008BFF90B17C48006820447B4908600221FC
:102A3000204614F099FDFEF783F805460246A1B240
:102A4000022016F008FB002452E013F0ADFF002036
:102A5000C7E761E05B4890F8240001283DD1FFF70B
:102A600091FAFEF76DF828B34FF4AF7037F014FC0D
:102A70000020FFF770FF72498871032071490870C8
:102A80000020714908707149087071480021018067
:102A90007048018081707048006837F0BDF90020EF
:102AA0006E4908606E4801780020FFF7ECF813F0DB
:102AB0007BFF0EE0FEF730F800206249087013F04B
:102AC00073FF4FF4C87037F0E7FBFDF77DFDFFF7AC
:102AD00071FD00206349086083E762480460FEF7E7
:102AE0002FF805460246A1B2032016F0B4FA0024DE
:102AF00049480068204434490968884205D30222C5
:102B000000211046FFF7DEFC04E002220021084607
:102B1000FFF7D8FC012064E72A4890F82600C0B3EC
:102B200051481CF0C8F804464F480078012819D1D4
:102B3000C4B121464DA015F06DF95248046003213F
:102B4000204614F011FD002202210846FFF7BAFCCE
:102B5000FDF7F6FF05460246A1B2052016F07BFA06
:102B600001203EE740480078022813D146A015F026
:102B700051F9FDF7E5FF85B200232A4619460220E8
:102B800015F0BCFA0020384908703E490860022060
:102B900027E7FFE7002024E7F8B500260020009093
:102BA000084890F82500022809D1FDF7C9FF06461C
:102BB0002EB131463BA015F0C7F80024CAE0CCE0A6
:102BC0001C080010D00600103C000010280900105E
:102BD000340C0400400000100D0A4170704368611D
:102BE0006E6765206D61783D256C640020000010E3
:102BF0000D0A417070636F696E312E636F696E3DAF
:102C0000256C642C256C64000D0A322E41707062B4
:102C1000696C6C3D256C6400240000100D0A417045
:102C20007062696C6C3D256C642C4D6F6E65793DEE
:102C3000256C642C70726963653D256C640D0A0017
:102C4000540900101B000010190000101A00001099
:102C50001700001014000010940000103400001041
:102C60003900001028000010440000100D0A204117
:102C70007070526561646572312E726561643D25C4
:102C80006C6400002C0000100D0A20417070526529
:102C900061646572204F55545055542063617264CD
:102CA000000000000D0A204170704E65656470617F
:102CB000793D256C64000000FF4850F82400F0B313
:102CC000FD4850F82400B6FBF0F0C5B22946FBA041
:102CD00015F03AF8F8481C3030F81400A84201DB2F
:102CE000284603E0F4481C3030F81400C5B22946E9
:102CF000F7A015F029F8F04951F8241001FB05F070
:102D0000694613F0EAFE07463946F6A0009A15F028
:102D10001BF8012F1BD1FA480068FA4909680844DA
:102D20000099461A0020F7490860F54806603146C8
:102D3000F5A015F009F8E04850F8240000E007E09D
:102D4000684382B233460021012015F0D7F903E031
:102D5000601CC4B2072CAFDB00BFF8BD38B5EE482D
:102D60000068D8B113F020FE70B1FDF7E9FEEA4922
:102D70000968451A2A46E848006881B2042016F01E
:102D80006AF90020E449086037F034FB0546014643
:102D9000E2A015F0E9F8642037F07EFAFFF7FCFEB8
:102DA000FDF7CEFE70B137F025FB05460146DFA0EA
:102DB00015F0DAF8FDF7C4FE054669461BF013FD71
:102DC000044600E001241CBBDEA015F0CDF8FDF7A1
:102DD000B7FE0099451A284614F030FEFDF7B0FE04
:102DE0000099401A85B20B462A460021084615F084
:102DF00085F9C82037F050FA00221146022016F05B
:102E00002AF90020BE490860BE490860009838BD14
:102E100037F0F0FA05460146CFA015F0A5F8FDF70A
:102E20008FFE0546002114F009FEFDF789FE85B2EC
:102E300000232A461946184615F060F90020B049CB
:102E40000860B049086000BFE1E72DE9F0410026C5
:102E50000024C6480468FDF773FEA04206D2C448A9
:102E6000006818B90720C3490870C1E0C04800686D
:102E700078B1FFF738F9A0B21CF01CF80646012E15
:102E800003D10A20BB490870B2E00920B949087093
:102E9000AEE09B4800689B4909680844A04262D2A2
:102EA00097480068201A97490968451A9A480068A7
:102EB000451BB14890F82200022801D1012615E0F7
:102EC000AD4890F82200012801D101260EE0AA4861
:102ED00090F8220050B9A84890F82500022801D1A6
:102EE000012603E00DB9012600E00026012E36D1AF
:102EF00013F022FDF0B1834800688749096808444F
:102F00008049086002218448006814F02DFBFDF719
:102F100017FE81490968471A3A467F48006881B21E
:102F2000022016F098F800207B4908600A20914999
:102F300008705DE013F038FDFDF702FE7649096880
:102F4000471A3A467448006881B2042016F083F8A4
:102F500000207149086008208649087048E0082070
:102F60008449087044E06648006866490968084476
:102F7000051B814890F82200022801D1012615E0A6
:102F80007D4890F82200012801D101260EE07A4800
:102F900090F8220050B9784890F82500022801D115
:102FA000012603E00DB9012600E00026012E1CD108
:102FB000714890F82400012813D15748006880B167
:102FC00013F0F2FCFDF7BCFD53490968471A3A4675
:102FD0005148006881B2042016F03DF800204E49A7
:102FE00008600A206349087002E0082061490870FF
:102FF000BDE8F08110B5044604B35D48006860B1D7
:103000005EA014F007FF01201BF0BCFF58480068C9
:10301000001B57490860002410E03A4800688442C9
:1030200006D338480068241A00203649086005E0B5
:1030300034480068001B33490860002424B130483C
:103040000068001B2E49086010BD4B4890F82E0008
:10305000FF2806DA4E48807908B901207047002021
:10306000FCE70020FAE70EB54948837942488078AA
:1030700000EB8000474901EB001047A1426C3E483D
:103080008DE80E00837800221146962034F0EBFC88
:103090000EBD70B50446012564B119480068194990
:1030A00009680844A0427BD213F046FC18B11548C9
:1030B000006876E0AAE089E0280900100D0A2041A6
:1030C00070704E6565646E756D3D2564000000008E
:1030D0000D0A204170705265616C6E756D3D2564FE
:1030E000000000000D0A2041707052656362616348
:1030F0006B2073743D25642C7061793D256C6400F0
:1031000020000010240000100D0A20417070706132
:10311000793D256C64000000280000100D0A204154
:103120007070486F6C645265742564000D0A20410C
:103130007070426567696E206368616E67652564BB
:10314000000000000D0A204170706368616E6765C1
:10315000204661696C0000000D0A204170706368B0
:10316000616E676520737563632564003400001029
:103170002C0000101B000010D00600100D0A20418A
:10318000707043487568756F537563630000000085
:1031900054090010AC030010257325303264000080
:1031A00025E0FB4909680844FA490860FDF7C8FCB6
:1031B000F7490968461A3246F548006881B202208C
:1031C00015F049FF0020F249086010E013F0ECFB15
:1031D000FDF7B6FCEE490968461A3246EC4800682D
:1031E00081B2042015F037FF0020E9490860FDF79F
:1031F000A7FC064602462146E7A014F0B5FEFDF7FF
:103200009FFCA04201D3012500E00025FDF798FCBA
:1032100090B30320E74908700020FFF79CFBE649C4
:103220008871E4480078032842D1DA480068E3490D
:103230000968884204D2002201210846FFF742F9BA
:103240000020DF490870DF490870DF480021018055
:10325000DE4801808170DE48006836F0DDFD33F025
:103260003DFEDC4801780020FEF70DFDFDF768FC0F
:10327000064617F022F91BE0FFE70022012108466D
:10328000FFF720F90020CE490870CE490870CE48DB
:1032900000210180CD4801808170CD48006836F062
:1032A000BBFD33F01BFEFFF7DAF80E20C1490870B2
:1032B000284670BD70B504460125002654B1C648A5
:1032C000006838B1FEF70FFFA0B21BF0F3FD064611
:1032D00006B90025284670BD70B5044684B3BE48C3
:1032E000006860B1BDA014F095FD01201BF04AFEFE
:1032F000B9480068001BB8490860002447E0BC4892
:103300000068A44909680844A0422FD213F014FBB6
:10331000B8B1A04800689E49096808449D49086002
:10332000FDF70EFC9A490968451A2A469848006834
:1033300081B2022015F08FFE00209549086011E04F
:1033400025E013F031FBFDF7FBFB91490968451AB5
:103350002A468F48006881B2042015F07CFE0020C8
:103360008B4908604FF4487036F096FF8948006832
:10337000844206D387480068241A002085490860E3
:1033800005E084480068001B82490860002424B1DD
:1033900097480068001B96490860FDF7D1FB90B381
:1033A0000320844908700020FFF7D5FA824988710C
:1033B00080480078032842D1764800687F49096830
:1033C000884204D2002201210846FFF77BF8002042
:1033D0007B4908707B4908707B48002101807B484D
:1033E000018081707A48006836F016FD33F076FD72
:1033F000784801780020FEF746FCFDF7A1FB054662
:1034000017F05BF81BE0FFE7002201210846FFF7F9
:1034100059F800206A4908706A4908706A48002112
:1034200001806A48018081706948006836F0F4FCC8
:1034300033F054FDFFF713F80E205E49087070BD9D
:103440002DE9F04F87B004460E46154600270020B0
:103450000690FEF7CFFE002202210846FFF732F861
:1034600036F0C8FF8046014662A014F07DFD30466C
:10347000FFF720FF642094FBF0F000F0FF086420C9
:1034800094FBF0F100FB114000F0FF0942460121DE
:1034900048460CF04FFB07465B4890F82F00012888
:1034A00004D0594890F82F0003286FD1012F6ED116
:1034B000FDF746FB08B914F043F8012D01D0022DA9
:1034C00002D13046FFF796FD412040490870642044
:1034D00094FBF0F100FB11400A2190FBF1F0303039
:1034E0003A494870642094FBF0F100FB11400A2136
:1034F00090FBF1F201FB12003030344988704348F0
:10350000066043480378414801683048CDE90153DB
:1035100000918378427801783EA032F08BFF3C48DE
:1035200001780078401C3A4B18702B46274A3748E0
:10353000006814F058F8642094FBF0F000F0FF0AE3
:10354000642094FBF0F100FB114000F0FF0B5246A9
:103550000221584619F0B5FA00F0FF08FDF7F0FA1D
:103560000590642094FBF0F100FB114000F0FF098E
:10357000059A2B46CDE9012800964A4601210020F4
:1035800016F050F90B200B4908706DE18CE061E0FA
:1035900028000010240000100D0A204170702050F7
:1035A000726963653D256C642C6D6F6E65793D2590
:1035B0006C6400001B000010540900103C00001057
:1035C000190000101A00001017000010140000105D
:1035D00094000010390000102C0000100D0A20414A
:1035E00070705043436F7374537563630000000041
:1035F000200000100D0A20256441707055626F781C
:1036000056656E646F757400D006001034000010AB
:10361000380000104C6F675472616E736163746997
:103620006F6E415049206C6F6769633D2563256368
:1036300025632070726963653D2564207479706527
:103640003D25782C7472616E4E756D733D25640D49
:103650000A200000FEF71EFE642094FBF0F000F04C
:10366000FF0A642094FBF0F100FB114000F0FF0B17
:1036700052460221584619F024FA00F0FF08FDF7DF
:103680005FFA0590642094FBF0F100FB114000F01C
:10369000FF09059A2B46CDE9012800964A460121EB
:1036A000992016F0BFF8DFE0FF4890F82F000228BD
:1036B0007ED1012F52D1FEF7C5FD3046FFF70CFE3B
:1036C000642094FBF0F100FB11400A2190FBF1F023
:1036D0003030C0B28DF818000A2094FBF0F100FBE6
:1036E00011403030C0B28DF8190013F029FFEF48B7
:1036F00001780078401CED4B18702B4606AA304626
:1037000013F071FF642094FBF0F000F0FF0B6420D5
:1037100094FBF0F100FB1140C0B25A460221049024
:1037200019F0CFF900F0FF08FDF70AFA05906420C0
:1037300094FBF0F100FB114000F0FF09642094FBC2
:10374000F0F000F0FF0A059A2B46CDE9012800961B
:103750004A465146002016F065F835E0FEF79AFD1E
:10376000D348006810B102201BF00CFC642094FBCD
:10377000F0F000F0FF0A642094FBF0F100FB114030
:1037800000F0FF0B52460221584619F09AF900F05A
:10379000FF08FDF7D5F90590642094FBF0F100FBDC
:1037A000114000F0FF09642094FBF0F0C0B200E08B
:1037B0003FE00490059A2B46CDE9012800964A4641
:1037C0000146022016F02EF8FDF7BAF990B3032057
:1037D000B84908700020FFF7BEF8B7498871B548AE
:1037E0000078032840D1B5480068B5490968884287
:1037F00004D2002201210846FEF764FE0020B149F0
:103800000870B1490870B14800210180B0480180BA
:103810008170B048006836F0FFFA33F05FFBAE48C5
:1038200001780020FEF72FFAFDF78AF9804616F09E
:1038300044FE19E0FFE7002201210846FEF742FEA0
:103840000020A0490870A0490870A048002101800C
:103850009F48018081709F48006836F0DDFA33F0A0
:103860003DFB0E209349087007B0BDE8F08F2DE9AD
:10387000F04F85B004460F4615461E468A4890F81C
:103880002F0002282BD1642094FBF0F000F0FF0AF7
:10389000642094FBF0F100FB114000F0FF0B524656
:1038A0000221584619F00DF900F0FF08FDF748F91C
:1038B0000490642094FBF0F100FB114000F0FF093C
:1038C000642094FBF0F0C0B20390049A2B46CDE93B
:1038D000012800974A460146304615F0A3FF05B07F
:1038E000BDE8F08F10B5FDF72BF9D8B1FFF736FA28
:1038F0004FF4C87036F0D0FC00207249087072494D
:1039000008707248002101807148018081707148FF
:10391000006836F081FA33F0E1FAFEF7A0FD0E20E0
:1039200064490870002202210846FEF7CBFDC8203A
:1039300036F0B2FC21F0E8FD4FF4C87036F0ACFC74
:10394000002201210846FEF7BDFD10BD70B55648A6
:1039500090F8260010B1FEF7B2FDC8BBFDF7F0F8F5
:10396000B0B1FEF7C0FC36F045FD054601465BA050
:1039700014F0FAFAFFF7F2F904461CB12046FEF7FC
:1039800009FD01E0FEF7DFFC0E204A4908701FE048
:10399000FEF7A9FCAFF6540014F0E6FA0021084641
:1039A00014F04CF800231A461946184614F0A6FBEA
:1039B000C82036F071FC00221146022015F04BFBA6
:1039C0000020494908603D4908600E2039490870C7
:1039D00070BD2DE9F04104460025FEF70BFC36F0E2
:1039E00009FD06460146AFF2F43014F0BDFA64203A
:1039F00094FBF0F0C6B2642094FBF0F100FB1140A0
:103A0000C7B23246012138460CF094F80546FDF75E
:103A100097F890B30320274908700020FEF79BFF1A
:103A20002549887123480078032864D12348006819
:103A300023490968884204D2002201210846FEF782
:103A400041FD00201F4908701F4908701F480021D0
:103A500001801F48018081701E48006836F0DCF943
:103A600033F03CFA1C4801780020FEF70CF9FDF712
:103A700067F8064616F021FD3DE0FFE70022012130
:103A80000846FEF71FFD00200E4908700E49087019
:103A90000E48002101800E48018081700D480068A9
:103AA00036F0BAF922E00000D0060010380000100D
:103AB0002C0000101B0000105409001024000010FE
:103AC0003C000010190000101A0000101700001030
:103AD0001400001094000010390000100D0A20415D
:103AE00070705475692564002000001033F0F6F9F9
:103AF0000E20FC4908702846BDE8F08170B50446E8
:103B00000025FDF71DF80546F7480460FDF718F895
:103B100090B30320F34908700020FEF71CFFF3491F
:103B20008871F0480078032841D1F1480068F149D4
:103B30000968884204D2002201210846FEF7C2FC2F
:103B40000020ED490870ED490870ED480021018022
:103B5000EC4801808170EC48006836F05DF933F084
:103B6000BDF9EA4801780020FEF78DF8FCF7E8FF80
:103B7000064616F0A2FC1AE0FFE7002201210846E3
:103B8000FEF7A0FC0020DC490870DC490870DC4826
:103B900000210180DB4801808170DB48006836F03D
:103BA0003BF925B133F09AF90E20CE49087070BD6B
:103BB000F0B591B005460024202109A83BF0D8FCBF
:103BC000202101A83BF0D4FC0520C8494871FCF72E
:103BD000B7FF08B9FCF783FF2C46CD4890F82700C3
:103BE000F0B3012826D002286ED1642094FBF0F1B6
:103BF00000FB114694FBF0F7C5480096807800EB77
:103C00008000C44901EBC0003B46C349C26809A813
:103C10003BF07AF9642094FBF0F100FB114694FB31
:103C2000F0F7BC4800963B46BB49426B01A83BF00D
:103C30006BF949E00A2094FBF0F084B20A2094FB6F
:103C4000F0F100FB114694FBF0F7B1480096807844
:103C500000EB8000AF4901EBC0003B46AE4900E0FD
:103C600015E00C31C26809A83BF04EF90A2094FB1C
:103C7000F0F100FB114694FBF0F7A64800963B4696
:103C8000A5490C31426B01A83BF03EF91CE06420D1
:103C900094FBF0F69E48807800EB80009D4901EB94
:103CA000C00033469C491431C26809A83BF02CF986
:103CB000642094FBF0F69748334697491431426BE1
:103CC00001A83BF021F900BF00BFAFF2E063AFF203
:103CD000E46201A909A8FCF735FC4FF4167036F030
:103CE000DBFA8248407978B9FCF72AFF18B1032043
:103CF0007C49087006E0FCF70FFFFCF765FC00202C
:103D000078490870FEF756FC76480078032805D1FC
:103D10007E4801780020FDF7B6FF06E07148007884
:103D200018B933F0DBF8FEF745FC11B0F0BD10B563
:103D300092B0044620210AA83BF01AFC202102A8D8
:103D40003BF016FCFCF7FCFE10B10020FFF7D6FE9E
:103D5000224672A10AA83BF0D7F822466FA102A81A
:103D60003BF0D2F802AB6A480093837800220E2120
:103D7000502033F078FE12B010BD88B000200790BC
:103D8000002400250690059058498870C870087175
:103D9000487134F070FA38B1022211461046FEF72D
:103DA00091FB13204F49087001200FF0E0F95C49A6
:103DB0000860574890F89800012802D116F05EFA82
:103DC00002E0012016F046FA012034F0D1FA33F077
:103DD00085F8FEE3434800783AF06DFF41480078EB
:103DE00014287DD2DFE800F00AD3FEFDFCFBFAF9CF
:103DF000F8F7F6F5F4F3F2F1F0EFEEED494800686C
:103E0000C82802D90020474908603848807830B96E
:103E1000052036498870FCF7E3FB15F0D7F805A9B3
:103E2000002016F010FD07909DF81C0098B19DF839
:103E30001C003C2803D09DF81C003E2805D1002022
:103E40002D4908702D49087005E005202749487163
:103E50000120244908702548007920B9052023490C
:103E60000871FEF70BFCFEF794FD0446012C1ED1F1
:103E700012F0BFFF33F032F8244801782846FDF7EE
:103E800002FFFCF75DFE0746014627A013F05CFF2A
:103E900013F056FB2846FEF75EFD14498871FCF7C7
:103EA0004FFE074616F009FB03200E4908700F4825
:103EB000C078B0B905200D49C87012F0BDFF13F0ED
:103EC0004BF8D8B300200949887015F072F96420C6
:103ED00036F0E2F933F002F80222114610462EE0E5
:103EE000BFE236E01B0000102C0000105409001047
:103EF000240000103C000010190000101A000010EF
:103F00001700001014000010940000103900001079
:103F1000D0060010180100103027000025730000A3
:103F200040000010480000100D0A204170703261FE
:103F30006D6F756E743D256C6400000007E0FEF740
:103F4000C1FAFEF737FB0F20FF49087001E015F0BA
:103F5000CAFB34F090F938B1022211461046FEF740
:103F6000B1FA1320F8490870012012F0E3F9FCF7C8
:103F7000E7FD074614F0C8F934F0E6F907461BF0F0
:103F80008BFA00201BF09FFA16F0B8FC69E29DF84E
:103F90001C0080B19DF81C10ECA013F0C3FF05209D
:103FA000EE494871FCF7CCFD08B9FCF798FD05A96E
:103FB00007A8FCF7D1FD05A9012016F044FC0790E5
:103FC00011E0BDE3A3E392E366E314E3E1E2D0E2B0
:103FD0009BE247E21DE1FFE0D5E0B0E0AEE0AAE001
:103FE000A8E045E01AE0DD48407928B94320079071
:103FF00002200590FEF7DEFAD3480078032805D1A9
:10400000D74801782846FDF73EFE06E0CE48007806
:1040100018B932F063FFFEF7CDFAFEE39DF81C00FD
:1040200050B11420CD494871FCF78AFD08B9FCF75E
:1040300056FD07A8FDF714FA05A9012016F003FCA8
:104040000790C648407918B9432007900220059090
:10405000BD480078032805D1C14801782846FDF7FE
:1040600012FE04E0B848007808B932F037FFD4E314
:10407000FEF78FFC0446012C16D1B948017828467A
:10408000FDF701FE2846FEF766FCB4498871FCF78F
:1040900057FD074616F011FAFCF752FD0746014698
:1040A000AFF27C1013F050FE05A9002016F0CBFBF8
:1040B00007909DF81C0058B19DF81C10A9A013F0A2
:1040C00031FF0520A549487101209F490870A4E3EC
:1040D00012F066FE10B9FEF7B8FF78B1A548407837
:1040E00008B1012D0AD1A448006838B90022022184
:1040F0000846FEF7E7F90D20934908709F4890F8AD
:104100002E00FF2809DA9B48407808B1012D04D120
:104110009948006808B9FEF7A6FF022C02D10E20CC
:1041200089490870FCF70CFD074614F0EDF816F00D
:10413000E5FB72E371E3FEF788FE6EE36DE3904802
:104140000068FDF743FF2846FEF705FC83498871A8
:1041500003207D49087000208A4908708A49087048
:104160008A48002101808A4801808170894800685E
:1041700035F052FE002082490860794801782846CF
:10418000FDF781FD49E3FDF785FFFCF7D9FCF8B1A8
:104190002846FEF7E0FB7149887103206A490870E0
:1041A000002078490870784908707848002101801B
:1041B0007748018081707748006835F02DFE002037
:1041C0006F490860664801782846FDF75CFD02E00B
:1041D0000E205D49087020E3FDF7ADFF03205A492A
:1041E0000870002067490870674908706748002117
:1041F00001806748018081706648006835F00CFED8
:1042000000205F490860564801782846FDF73BFDCD
:1042100003E3002202210846FEF754F9FDF7B4FF3C
:104220005D480088642190FBF1F0C7B25A480088CD
:1042300090FBF1F201FB120000F0FF083A46012169
:1042400040460BF077FC0690069801285AD14C485E
:104250000068FEF7CFFE4848006860B14F4801781B
:104260000078401C4D4B18700223494A44480068AE
:1042700013F0B9F910E0494801780078401C474B29
:1042800018700023424A3E48006813F0ACF93C48DD
:10429000006880B21AF0BBFE3F480088642190FBA2
:1042A000F1F000F0FF0A3C48008890FBF1F201FBBE
:1042B000120000F0FF0B52460221584618F001FC94
:1042C000C7B2FCF73DFC049033480088642190FBA2
:1042D000F1F201FB120000F0FF082F48008890FB6C
:1042E000F1F000F0FF092648049A016800238DE8E8
:1042F000860042464946184615F094FA0B201249AA
:104300000870ABE01C48006828B125A013F082FDBE
:1043100002201AF037FE194890F82F00012804D027
:10432000164890F82F00032863D11B4800886421A9
:1043300090FBF1F000F0FF0A1748008890FBF1F2C3
:1043400001FB1200C7B235E01B0000100D0A20412E
:1043500070704B6579323D256400000054090010EF
:10436000390000100D0A204170704B6579313D25F0
:1043700064000000980700102C000010D006001008
:1043800034000010190000101A000010170000106F
:1043900014000010940000103000001038000010CD
:1043A0000D0A2041707043487568756F4661696CED
:1043B0000000000052460221384618F082FB00F04F
:1043C000FF08FCF7BDFB8346FE480088642190FB94
:1043D000F1F201FB120000F0FF09FB480168002325
:1043E0004A46CDE901B800910121992015F01AFA49
:1043F00031E0F4480088642190FBF1F000F0FF0AFE
:10440000F048008890FBF1F201FB120000F0FF0B76
:1044100052460221584618F054FBC7B2FCF790FBF5
:104420000490E8480088642190FBF1F201FB12003F
:1044300000F0FF08E348008890FBF1F000F0FF096E
:10444000E148049A016800238DE886004246494607
:10445000022015F0E7F90C20DC4908700020DA4949
:104460000860DAE1FDF7EEFED948007801283CD17A
:10447000FCF766FBC0B30320D44908700125284629
:10448000FEF769FAD3498871D048007803283BD1F8
:10449000D1480068D1490968884204D2002201212C
:1044A0000846FEF70FF80020CD490870CD49087086
:1044B000CD4800210180CD4801808170CC48006842
:1044C00035F0AAFC32F00AFDCA4801782846FDF70B
:1044D000DAFBFCF735FB074615F0EFFF05A90020D6
:1044E00016F0B1F907900FE0FFE7FCF729FB40B1A8
:1044F000C04801782846FDF7C6FB0D20B349087077
:1045000002E00E20B149087087E1FDF7C3FEFCF719
:1045100017FB68B30320AD49087001252846FEF754
:104520001AFAAC498871A9480078032820D1AA4812
:104530000068AA490968884204D20022012108467D
:10454000FDF7C0FF0020A6490870A6490870A648DC
:1045500000210180A54801808170A548006835F0E0
:104560005BFC32F0BBFCA34801782846FDF78BFBCF
:1045700053E1FDF7B8FEFEF7F1FB06461EB13046EB
:10458000FDF708FF01E0FDF7DEFE0E208F49087001
:1045900043E1FDF764FFFCF7BFFA002500209649D0
:1045A000087088490880934908708A490871012277
:1045B00011461046FDF786FF002090490870FDF770
:1045C000F9FF01200EF0D3FD8D49086013F0B5FA14
:1045D00000E026E18B4890F89800012802D115F000
:1045E0004DFE02E0012015F035FE32F077FC002090
:1045F0007649087011E17748807820B91E20754906
:104600008870FCF72CF97348C07818BB05207149F5
:10461000C87012F011FC012011F08CFE12F09CFC0D
:1046200098B900206B49887032F058FC012211467D
:104630001046FDF747FF642035F02EFE14F0B9FD5B
:10464000FDF7B8FF002061490870FCF779FA0746CA
:1046500013F05AFE33F00FFE10B113205B490870BF
:10466000FEF797F90446012C15D112F0C2FB32F087
:1046700035FC604801782846FDF705FBFCF760FA39
:1046800007460146AFF2607013F05EFB12F058FF70
:1046900010204E490870C0E0FEF77BF90446012C5B
:1046A0000CD1544801782846FDF7EDFAFCF748FA9A
:1046B00007460146AFF2907013F046FB12F070FB14
:1046C00050B15148006838B9002202210846FDF770
:1046D000F9FE11203D490870022C02D112203B49FD
:1046E0000870FCF72DFA074613F00EFE95E0FDF773
:1046F000FAFDFEF733FB06461EB13046FDF74AFED3
:1047000001E0FDF720FE12203049087085E0FDF73A
:10471000A6FEFCF701FA0025002037490870294958
:10472000088032F0DBFB002201210846FDF7CAFEBB
:1047300013F003FAFDF73EFF0F20244908706CE0E8
:10474000002015F087FD2F4890F82F0010B10120B0
:1047500012F022FE00BFFCF7F3F9074613F0D4FD78
:10476000002008F07BFC33F086FD0028F3D11949C6
:10477000887032F0B3FB012211461046FDF7A2FE0D
:1047800000201E490870FDF715FF1E4890F82F0005
:1047900058B10023009301931A461946052002934D
:1047A00013F002FD002012F0F7FD01200EF0DFFCF7
:1047B00013490860134890F89800012826D115F095
:1047C0005DFD26E030000010340000101B000010DA
:1047D0009807001054090010240000103C0000103D
:1047E000190000101A00001017000010140000102B
:1047F0009400001039000010380000101C00001058
:1048000040000010D00600102C000010012015F010
:1048100021FD00200449087000BF00BF022035F0D0
:104820003BFDFFF7D7BA00001B000010F0B585B0C4
:1048300000260027FAA103C9CDE9010132F04EFBA1
:10484000F9A031F0F7FDB8E00F23EF220021084670
:1048500033F0A5FA0323EF220021084633F09FFA34
:10486000F7488078F74951F82030F548009383786D
:1048700000220121082033F0F6F8F1488178F14850
:10488000143050F82130EE4800938378002206213E
:10489000302033F0E8F80E23EE220D21012032F013
:1048A00057FBE7488178E7483C3050F82130E4482E
:1048B0000093837800220D211C2033F0D4F87BE094
:1048C000002700240AE0342101EB0411C8B20023C0
:1048D000DDA2092132F066FB601CC4B2082CF2DBB9
:1048E00069E033F090FC0546F5B3432D02D100207A
:1048F00005B0F0BD03A8855531013431C8B200239D
:10490000D2A2092132F04EFB701CC6B2082E4FD144
:1049100000260127002408E003A8005D01A9095D25
:10492000884200D00027601CC4B2082CF4DB012FA1
:1049300001D10120DCE70E23EE220D21012032F00F
:1049400007FBBF488178BF48283050F82130BC4869
:104950000093837800220D21302033F084F84FF447
:10496000C87035F099FC00E022E00E23EE220D2104
:10497000012032F0EDFAB2488178B2483C3050F86C
:104980002130AF480093837800220D21302033F08E
:104990006AF800240AE0342101EB0411C8B20023B4
:1049A000A9A2092132F0FEFA601CC4B2082CF2DB85
:1049B000052035F071FC94E782E745E738B532F021
:1049C0008DFA0F23EF220021084633F0E8F9032384
:1049D000EF220021084633F0E2F94CE00E23EE22EC
:1049E0000421012032F0B4FA95488078984951F8B2
:1049F000203093480093837800220121082033F06F
:104A000032F88F4881789248143050F821308C4821
:104A100000938378002207213C2033F024F8884853
:104A200081788B48283050F821308548009383786E
:104A300000220B21282033F016F881488178844821
:104A40003C3050F821307E480093837800220B21BF
:104A50008C2033F008F80DE033F0D5FB0446432CEE
:104A600001D1002038BD452C01D10120FAE70A20F0
:104A700035F012FCF0E7B1E770B50026704890F809
:104A80002200022873D17348406F7249B1F8C010F8
:104A9000484370498A6FB1F8C21002FB01016D48AA
:104AA000C26FB0F8C40002FB00116A48D0F8802041
:104AB000B0F8C60002FB00116648D0F88420B0F8B8
:104AC000C80002FB00116348D0F88820B0F8CA0083
:104AD00002FB00115F48D0F88C20B0F8CC0002FB3C
:104AE00000115C48D0F89020B0F8CE0002FB001115
:104AF0005848D0F89420B0F8D00002FB0011554877
:104B0000D0F89820B0F8D20002FB00115148D0F83C
:104B10009C20B0F8D40002FB00114E48D0F8A02031
:104B2000B0F8D60002FB00114A48D0F8A420B0F833
:104B3000D80002FB00114748D0F8A820B0F8DA00EE
:104B400002FB00114348D0F8AC20B0F8DC0002FBB7
:104B500000114048D0F8B020B0F8DE0002FB00158C
:104B6000374890F82500022812D100240EE018E002
:104B7000394850F8240038B1374850F824101C3018
:104B800030F8140001FB0055601CC4B2072CEFDBA9
:104B90002B48D0F8C000A84201D901260FE000261A
:104BA0000DE0274890F82200012803D112F0BCFA4A
:104BB000064604E0224890F8220000B9002630465C
:104BC00070BD70B5044600251D4890F82F000228DE
:104BD00017D1012C0BD112F0BCF9054612F0B9F92E
:104BE0000646024629461DA013F0BEF909E0022C34
:104BF00007D1204890F8BC5090F8BC101EA013F0CC
:104C0000B3F9284670BD0146012902D0022949D1D5
:104C100042E00B4880781F4A52F82000704700009D
:104C20003833373138353537456E74657253656CB6
:104C300066436865636B46756374696F6E0D0A0041
:104C4000D0060010840C04005F0000002A00000061
:104C5000D40C04001C080010280900100D0A204183
:104C600070702050434572726F725363616C653D82
:104C700025640000680900100D0A20417070205062
:104C8000434572726F724F66664C696E653D25646E
:104C90000000000048160400FF488278FF4850F8E2
:104CA00022007047FC488278FC48143050F82200FB
:104CB000F7E700B58BB000200A900320099032F08E
:104CC0000DF90F23EF220021084633F068F8032383
:104CD000EF220021084633F062F8E5E30E23EE22CE
:104CE0000421012032F034F9032009900A980A289F
:104CF0007ED2DFE800F005D5FEFDFCFBFAF9F8F7FF
:104D00000123E5488178E64850F82120E5A1E248F2
:104D10008DE80E00807803460022012107900820CC
:104D200032F0A1FEDC4890F8230002287ED1DF4853
:104D30008078A0B1D8488178D948143050F8213013
:104D4000D5480093807807900998801CC0B20990DC
:104D50000690002201460520079B32F084FED348CE
:104D6000C078A0B1CC488178CD48283050F82130A7
:104D7000C9480093807807900998801CC0B20990B8
:104D80000690002201460520079B32F06CFEC748C2
:104D90000079A0B1C0488178C1483C3050F821303A
:104DA000BD480093807807900998801CC0B2099094
:104DB0000690002201460520079B32F054FEBB48B6
:104DC0004079A0B1B4488178B548503050F82130CE
:104DD000B1480093807807900998801CC0B2099070
:104DE0000690002201460520079B32F03CFE00E0C1
:104DF000A4E2AE488079A0B1A7488178A848643081
:104E000050F82130A4480093807807900998801CBE
:104E1000C0B209900690002201460520079B32F09F
:104E200022FEA248807808B9A04800E019E0C078C6
:104E3000B8B99E480079A0B99C48407988B99B4888
:104E4000807970B994488178994850F82130924817
:104E5000009380780346002207210790052032F056
:104E600002FE8D4880788E49283951F8200006903E
:104E70003AF06CFAC000C0F1E700C0B20790864873
:104E800081788748283850F821308348009380780B
:104E9000034600220D210690079832F0E4FD4DE212
:104EA00002237D4881787E4850F821207DA17A48F0
:104EB0008DE80E008078034600220121079008202B
:104EC00032F0D1FD744890F8230002287ED1774853
:104ED000C079E8B1704881787148783050F8213055
:104EE0006D4807E0FEE3FEE3FEE3ABE3FAE226E211
:104EF0006DE191E00093807807900998801CC0B222
:104F000009900690002201460520079B32F0ABFD78
:104F10006648007AA0B16048817861488C3050F8CA
:104F200021305D480093807807900998801CC0B2BA
:104F300009900690002201460520079B32F093FD60
:104F40005A48407AA0B1544881785548A03050F86A
:104F5000213051480093807807900998801CC0B296
:104F600009900690002201460520079B32F07BFD48
:104F7000FFF782FDA0B1484881784948B43050F825
:104F8000213045480093807807900998801CC0B272
:104F900009900690002201460520079B32F063FD30
:104FA0004248C07990B94148007A78B93F48407A80
:104FB00060B9FFF761FD48B9374881783C4850F83F
:104FC0002130354800938078034600E005E0002258
:104FD00007210790052032F046FD2F4881783048A0
:104FE000143850F8210006903AF0B0F9C000C0F132
:104FF000E700C0B20790284881782948143850F853
:105000002130254800938078034600220D21069028
:10501000079832F028FD91E101231F48817820484C
:10502000C83050F821201FA11B488DE80E00807861
:105030000346002201210790082032F014FD164893
:1050400090F8210002287ED11848807AA0B1124839
:1050500081781348DC3050F821300F480093807875
:1050600007900998801CC0B2099006900022014662
:105070000520079B32F0F7FC0C48C07A18B30648AD
:1050800081780748F03050F8213003480093807849
:1050900007900998801C0DE0D00600105C160400F3
:1050A000EC0D040025732D256400000060480010FD
:1050B00084110400C0B20990069000220146052028
:1050C000079B32F0D0FCF948007B98B1F848817812
:1050D000F84850F82130F6480093807807900998F6
:1050E000801CC0B209900690002201460520079B53
:1050F00032F0B9FCED48407BA0B1ED488178ED4835
:10510000143050F82130EA480093807807900998CD
:10511000801CC0B209900690002201460520079B22
:1051200032F0A1FCE148807BB0B1E1488178E148F0
:10513000283050F82130DE48009380780790099895
:10514000801CC0B200E025E00990069000220146D4
:105150000520079B32F087FCD448807AD0B9D34829
:10516000C07AB8B9D148007BA0B9D048407B88B993
:10517000CE48807B70B9CE488178CF4850F8213036
:10518000CB48009380780346002207210790052032
:1051900032F069FCC6488178C84850F82100069072
:1051A0003AF0D4F8C000C0F1E700C0B20790C048A0
:1051B0008178C24850F82130BD480093807803467A
:1051C00000220D210690079832F04DFCB6E0022334
:1051D000B7488178B7483C3850F82120AFF23C11ED
:1051E000B3488DE80E008078034600220121079025
:1051F000082032F038FCAE4890F8210002287ED119
:10520000AA48C07BA0B1AA488178AA483C3050F88F
:105210002130A7480093807807900998801CC0B27D
:1052200009900690002201460520079B32F01BFCE6
:105230009E48007CA0B19E4881789E48503050F82E
:1052400021309B480093807807900998801CC0B259
:1052500009900690002201460520079B32F003FCCE
:105260009248407CA0B1924881789248643050F8CE
:1052700021308F480093807807900998801CC0B235
:1052800009900690002201460520079B32F0EBFBB7
:105290008648807CC8B18548C37C827C84488178FC
:1052A0008448783050F8211085A08DE80F008048A0
:1052B000807807900998801CC0B20990069000225F
:1052C00001460520079B32F0CEFB7848C07BB0B981
:1052D0007648007C98B97548407C80B97348807CDA
:1052E00068B973488178744850F821307048009349
:1052F00080780346002207210790052000E001E0A6
:1053000032F0B1FB6A4881786C4850F82100069071
:105310003AF01CF8C000C0F1E700C0B20790644842
:105320008178664850F821306148009380780346C0
:1053300000220D210690079832F095FB51E25C485F
:1053400081785C488C3050F821305948009380783F
:105350000346002201210790082032F084FB5448C4
:1053600090F8220001287ED15048007DF8B14F48C6
:10537000007D0690FFF747FC07905648C37D4C48D8
:1053800081784C48A03050F8211053A0079A8DE83E
:105390000F004748807806900998801CC0B2099099
:1053A0000590002201460520069B32F05CFB3F4839
:1053B000407DF8B13D48407D0690FFF724FC079002
:1053C0004448037E3A4881783A48B43050F8211076
:1053D00041A0079A8DE80F0035488078069009981B
:1053E000801CC0B209900590002201460520069B52
:1053F00032F039FB2D48807DF8B12C48807D069035
:10540000FFF701FC07903348437E294881782948FB
:10541000C83050F8211030A0079A8DE80F002448BA
:10542000807806900998801CC0B2099005900022EF
:1054300001460520069B32F016FB1C48007D90B902
:105440001A48407D78B91948807D60B9184881783C
:10545000194850F8213016480093807803460022FE
:105460000721079000E002E0052032F0FCFA104826
:105470008178124850F82100069039F067FFC0008B
:10548000C0F1E700C0B20790094881780B4850F896
:105490002130074800938078034600220D210690B2
:1054A000079832F0E0FAB1E3D5E30000604800105D
:1054B000D0060010F00E040084110400D80D040082
:1054C00025735B25233032785D5B25233032785D90
:1054D0000000000034480010257325735B2523303D
:1054E00032785D000123FF488178FF4850F8212081
:1054F000AFF25041FB488DE80E0080780346002251
:1055000001210790082032F0AEFAF64890F82D00FD
:1055100001282FD1F548807EA0B1F2488178F24869
:10552000143050F82130EF480093807807900998A4
:10553000801CC0B209900690002201460520079BFE
:1055400032F091FAE948C07EA0B1E6488178E64899
:10555000283050F82130E34800938078079009986C
:10556000801CC0B209900690002201460520079BCE
:1055700032F079FADD48007FA0B1DA488178DA4864
:105580003C3050F82130D748009380780790099834
:10559000801CC0B209900690002201460520079B9E
:1055A00032F061FAD148407FA0B1CE488178CE4830
:1055B000503050F82130CB480093807807900998FC
:1055C000801CC0B209900690002201460520079B6E
:1055D00032F049FAC548807EB8B9C448C07EA0B947
:1055E000C248007F88B9C148407F70B9BD48817802
:1055F000BF4850F82130BB48009380780346002212
:1056000007210790052032F02EFAB6488178B94874
:1056100050F82100069039F099FEC000C0F1E70073
:10562000C0B20790AF488178B24850F82130AD48F9
:1056300000938078034600220D210690079832F0EF
:1056400012FAE3E20223A7488178A74850F8212004
:10565000AFF2B051A3488DE80E00807803460022D7
:1056600001210790082032F0FEF9A048807FA0B108
:105670009C4881789C48643050F8213099480093C8
:10568000807807900998801CC0B20990069000228B
:1056900001460520079B32F0E6F99448C07FA0B18F
:1056A000904881789048783050F821308D480093A8
:1056B000807807900998801CC0B20990069000225B
:1056C00001460520079B32F0CEF9884890F820006B
:1056D000C0B18448817884488C3050F821308148AA
:1056E000009302E011E258E17CE08078079009988D
:1056F000801CC0B209900690002201460520079B3D
:1057000032F0B1F9794890F82100A0B1754881785C
:105710007548A03050F82130724800938078079087
:105720000998801CC0B2099006900022014605200D
:10573000079B32F098F96D4890F82200A0B16948B3
:1057400081786948B43050F82130664800938078F9
:1057500007900998801CC0B209900690002201466B
:105760000520079B32F07FF96048807FE8B95F48E9
:10577000C07FD0B95D4890F82000B0B95B4890F880
:10578000210090B9594890F8220070B955488178A5
:10579000574850F821305348009380780346002240
:1057A00007210790052032F05EF94E488178514874
:1057B00050F82100069039F0C9FDC000C0F1E700A3
:1057C000C0B20790474881784A4850F82130454890
:1057D00000938078034600220D210690079832F04E
:1057E00042F913E203233F4881783F4850F82120D3
:1057F000AFF250713B488DE80E00807803460022DE
:1058000001210790082032F02EF9384890F8230043
:10581000A0B1344881783448C83050F8213031483C
:105820000093807807900998801CC0B20990069078
:10583000002201460520079B32F015F92B4890F80D
:105840002400A0B1274881782748DC3050F8213067
:1058500024480093807807900998801CC0B2099072
:105860000690002201460520079B32F0FCF81F48F5
:1058700090F82500A0B11B4881781D48C83850F821
:10588000213018480093807807900998801CC0B296
:1058900009900690002201460520079B32F0E3F8AC
:1058A000124890F82600A0B10E4881781048B4380C
:1058B00050F821300B480093807807900998801C9D
:1058C000C0B209900690002201460520079B32F0E5
:1058D000CAF8064890F82700F8B1024881780448D1
:1058E000A03809E0D0060010CC0F0400604800107A
:1058F00084110400D80D040050F82130FF480093B3
:10590000807807900998801CC0B209900690002208
:1059100001460520079B32F0A6F8F94890F82300CD
:10592000F0B9F74890F82400D0B9F54890F8250070
:10593000B0B9F34890F8260090B9F14890F82700E4
:1059400070B9EE488178EF4850F82130EB48009369
:1059500080780346002207210790052032F083F863
:10596000E6488178E84850F82100069039F0EEFCCE
:10597000C000C0F1E700C0B20790E0488178E2487B
:1059800050F82130DD4800938078034600220D2135
:105990000690079832F067F838E10423D7488178F9
:1059A000DA4850F82120AFF60411D4488DE80E00F3
:1059B00080780346002201210790082032F053F836
:1059C000CF4890F82800A0B1CC488178CD488C38D9
:1059D00050F82130C9480093807807900998801CBE
:1059E000C0B209900690002201460520079B32F0C4
:1059F0003AF8C34890F82900A0B1C0488178C1485E
:105A0000783850F82130BD48009380780790099885
:105A1000801CC0B209900690002201460520079B19
:105A200032F021F8B64890F82A00A0B1B348817846
:105A3000B448643850F82130B0480093807807901B
:105A40000998801CC0B209900690002201460520EA
:105A5000079B32F008F8AA4890F82B00A0B1A7489D
:105A60008178A848503850F82130A44800938078B5
:105A700007900998801CC0B2099006900022014648
:105A80000520079B31F0EFFF9D4890F82800F8B9FA
:105A90009B4890F82900D8B9994890F82A00B8B9DD
:105AA000974890F82B0098B994488178954850F819
:105AB000213092480093807807900998801CC0B2EA
:105AC00009900690002201460520079B31F0CBFF8C
:105AD0008A4881788C4850F82100069039F036FCCD
