:020000040000FA
:1000000000800010CD00000091A6030091A603001F
:1000100091A6030091A6030091A6030091A60300F8
:1000200091A6030091A6030091A60300850200009B
:1000300091A6030000000000ED020000F183030020
:1000400091A60300F37B0300C97B0300B77B030089
:10005000A57B03006D5703003D5903001D540300A9
:100060003D5B030091A60300415E030091A60300DF
:1000700091A6030091A6030091A6030091A6030098
:1000800091A6030091A6030091A6030091A6030088
:10009000CF75030091A6030091A6030091A603006B
:1000A00091A6030091A6030091A6030091A6030068
:1000B00091A6030091A6030091A6030091A6030058
:1000C00091A6030091A6030091A6030000F002F898
:1000D00000F0C8F80AA090E8000C82448344AAF11A
:1000E0000107DA4501D100F0BDF8AFF2090EBAE818
:1000F0000F0013F0010F18BFFB1A43F0010318475C
:1001000084200500C420050010F8013B0A4413F0C8
:10011000030408BF10F8014B1D1108BF10F8015B64
:10012000641E05D010F8016B641E01F8016BF9D153
:10013000002D15D010F8014B03F00C030C2BA1EB94
:1001400004040ABF10F8013BA4EB8314A4EB0324BE
:1001500005F1010314F8016B5B1E01F8016BF9D581
:10016000914238BF10F8013BD1D37047103A24BFF9
:1001700078C878C1FAD8520724BF30C830C144BF0C
:1001800004680C607047000000230024002500264E
:10019000103A28BF78C1FBD8520728BF30C148BFEA
:1001A0000B6070476E293EF0038670293EF0EA81AD
:1001B00066293FF07A8765293FF0778767293FF006
:1001C00074876129AFF3008003681B0A28BF41F0E0
:1001D000800169293EF05A8164293EF057817529D2
:1001E0003EF054816F293EF0F58678293EF0B681C5
:1001F000E9293EF08D86E4293EF08A86F5293EF015
:100200008786EF293EF0F286F8293EF0B581036833
:10021000DB0928BF41F0800163293EF00E86732977
:100220003EF01386E3293FF06681F3293FF06B81AE
:10023000002070471FB53FF031FF9DE803003EF0FE
:1002400015FD3FF0DFF90400002000213FF00CFF16
:10025000401C6060002000213FF0F0FEE0601FBD08
:1002600010B510BD3FF0A0F91146FFF7E3FF00F015
:100270002CF93FF081FA03B4FFF7F2FF03BC3AF028
:1002800048FE0000052828BF70474FEA80007844E8
:10029000D0F802F0ED020000B302000051030000AC
:1002A00071030000910300004FF0010080F31488F7
:1002B00000DF0A4C4FF00105257077463DF0F2FF54
:1002C000BE46074E3668074C2660D6F800D001BC03
:1002D00005490860BDE8F00F704700BF77060010C1
:1002E00088060010800600104C0600104FF008022F
:1002F00082F3118800B53DF0D5FF5DF804EB2DE9E0
:10030000F00F0E49086801B40D4A1268C2F800D017
:100310000C4C0D4D2E7826700C4E3668084C26601D
:10032000D6F800D001BC086000280CBF00220822CB
:1003300082F31188BDE8F00F704700BF4C06001033
:10034000800600106C0600106D0600108806001074
:100350000649086800F101004FF0080282F3118895
:10036000002808BF70470860704700BF4C060010A7
:100370000649086800281CBF01380860002818BF1B
:1003800070474FF0000282F3118870474C0600104E
:100390004FF0000080F3148870474FF0010080F3A5
:1003A0001488704788476FF0FF0039F0BAFB0000EF
:1003B0001CB5544890F82B200121182036F080FFFE
:1003C0000B230222CDE900234FA30E21282036F073
:1003D00050FE1CBD08B500BF37F02CF935F014FAFB
:1003E00035F0FAFA35F0B5F835F0F6FB37F05CFD8C
:1003F00035F0E3FF4849002037F0D0FC35F0AEFC83
:1004000037F0D0FD37F016F900200EF022FA002068
:100410000DF0FBFFFFF7CCFF35F0DEFA0CF0DAFF52
:1004200006233E4A00213E4839F0DAFA022039F02C
:1004300071F93DF031FE16F075FA022039F06AF9D3
:1004400016F098F8022039F065F91EF0D4F81EF085
:1004500079F9022039F05EF91CF06BF86A46002148
:100460003048006839F0AAFD0EF0C4FF17F02AFAF0
:1004700084212D483EF0BAFA022039F04BF90923C5
:100480002A4A00212A4839F0ABFA022039F042F911
:1004900019F0F8FF022039F03DF90823254A002120
:1004A000254839F09DFA022039F034F919F0E3FAC1
:1004B000C82039F02FF907E0002003F087FC02E0A4
:1004C000322039F027F9FBE7F6E700B585B03AF0BE
:1004D000E4F83AF0A1F838F0DEF80123002219021E
:1004E0001648CDE90323CDE901010723144A002171
:1004F000AFF21F10009339F0BBFA38F08FF90020EB
:1005000005B000BDC406001076657273696F6E2574
:10051000642E25303264000080A90300B832001038
:10052000A94202007C0000102C0A0010B8460010FE
:10053000FD490300B842001001960200BC0A0010F9
:10054000B82A0010F8B505460E4614461F460A2183
:10055000002036F06BFE022301220B21002036F032
:1005600033FEFF480095837800220B21282036F0C7
:10057000D4FCFB488078012807D0F948009683789E
:1005800000220D21282036F0C8FC20463EF01CF940
:10059000C8B1022301220B21702036F015FEF0486D
:1005A0000094837800220B21982036F0B6FCEC48AA
:1005B0008078012807D0EA480097837800220D212F
:1005C000982036F0AAFCF8BD10B501220A210020BF
:1005D00036F0D8FB03220B21002036F0D3FB10BDF0
:1005E00030B58BB0202103A83EF000FADD4835F08D
:1005F000D4FB022039F08EF8DB480078F0B3D948FC
:1006000035F0CBFB022039F085F8022304220121CA
:10061000002036F0D9FDD548D0F8AC1003A83EF044
:10062000AFF803AB02220121282036F022FDCF488B
:10063000D0F8B41003A83EF0A3F803AB01220321C5
:10064000282036F016FDC6488078C0EBC00202EBC9
:100650000010C64A02EB8000816D03A83EF090F8BE
:1006600003ABBF480093837800220521282036F091
:1006700054FCBB4890F8BC00012800E074E019D19C
:10068000BB4880890A2190FBF1F201FB1204B848B3
:10069000808990FBF1F523462A46B6A103A83DF0D8
:1006A00071FE03ABAE480093837800220721282017
:1006B00036F033FC0A21002036F0B8FDAF48C08880
:1006C000A849C98888420BD1AC484079A5494979E5
:1006D000884205D1A948C078A249C978884222D069
:1006E000A048C288A6A103A83DF04CFE03AB02229D
:1006F0000B21282036F0BDFC9A48C3784279A2A18C
:1007000003A83DF03FFE03AB02220D21282036F066
:10071000B0FC9448C0889949C88092484079487193
:100720009048C078C870954880788E49897888420A
:1007300005D1924840788B494978884213D089483E
:100740004378827893A103A83DF01CFE03AB0322FB
:100750000B21602036F08DFC8248807887498870B4
:1007600080484078487078E07D48807800EB8000D1
:100770008B4A02EBC000816903A83EF001F803AB8D
:1007800077480093837800220221482036F0C5FB89
:10079000734890F8BC00012819D1754880890A2156
:1007A00090FBF1F201FB12047148808990FBF1F596
:1007B00023462A466FA103A83DF0E4FD03AB684839
:1007C0000093837800220521AA2036F0A6FB6B480F
:1007D000C0886449C98888420BD16848407961491A
:1007E0004979884205D16548C0785E49C978884210
:1007F00015D05C48C3784279C1888DE80E0069A3A2
:1008000002220621502036F034FC5648C0885B494D
:10081000C8805448407948715248C078C8705748D9
:10082000807850498978884205D1544840784D49AC
:100830004978884211D04B4843788278CDE900232B
:1008400054A3042208213C2036F013FC454880784C
:100850004A4988704348407848700BB030BD30B585
:1008600089B0202101A83EF0C1F83E4835F095FA44
:10087000022038F04FFF022303220121002036F02E
:10088000A3FC37488078C0EBC00202EB0010374A67
:1008900002EB8000C16C01A83DF072FF01AB304853
:1008A0000093837800220121282036F036FB2C4863
:1008B0008078C0EBC00202EB00102C4A52F82010E6
:1008C00001A83DF05DFF01AB25480093837800222D
:1008D0000321282036F021FB214890F8BC00012894
:1008E00019D1234880890A2190FBF1F201FB1204FF
:1008F0001F48808990FBF1F523462A461DA101A8D7
:100900003DF040FD01AB164800938378002205219D
:10091000282036F002FB0A21002036F087FC174819
:10092000C0881049C98888420BD1144840790D49C4
:100930004979884205D11148C0780A49C978884266
:100940004ED00848C2880EA101A83DF01BFD01ABA6
:1009500002220B21282036F08CFB0248C37829E0C4
:10096000C4060010000000101C000010D40100108C
:100970009850001025642E25642092000800001075
:100980002530346400000000253032642D253032DB
:1009900064000000253032643A25303264000000E3
:1009A0000C010010253034642D253032642D2530A3
:1009B000326400004279AFF2300101A83DF0E2FC60
:1009C00001AB02220D21282036F053FBF948C088E4
:1009D000F949C880F74840794871F648C078C8702E
:1009E000F5488078F3498978884205D1F248407803
:1009F000F0494978884214D0EE4843788278AFF2C3
:100A00006C0101A83DF0BEFC01AB03220B2160206C
:100A100036F02FFBE7488078E7498870E548407852
:100A2000487009B030BD10B50246012904D0E34B2F
:100A300093F89930012B2CD11378412B0BD153789B
:100A4000303B03EB8303642404EB43049378303B93
:100A5000234498B228E01378422B0BD15378303BD3
:100A600003EB8303C82404EB43049378303B234413
:100A700098B219E01378303B642463435478303CD7
:100A800004EB840403EB44049378303B234498B292
:100A90000AE01378303B03EB8303642404EB430444
:100AA0005378303B234498B210BD30B502460B78E2
:100AB000303B4FF47A7463434C78303C04EBC4050C
:100AC00005EB041403EB84041378303B03EB83033E
:100AD00004EB43045378303B234498B230BD0EB549
:100AE00035F056FCB348C3784279C1888DE80E00D2
:100AF000AFF2501302221146502036F0BAFAAD4838
:100B000043788278CDE90023AFF2781304221146AE
:100B10003C2036F0AEFA0EBD10B50020A849087092
:100B2000A8490870A84800210180A8480180817068
:100B30000020A7498870A748006838F0ABFB10BDBB
:100B4000A5480068A54909680844A54909680844FA
:100B5000A4490968084470472DE9F04F95B006464E
:100B60000F4620210DA83DF041FF202105A83DF0B2
:100B70003DFF4FF00009002004900024002580462E
:100B8000387802281DD13078432802D030784528A3
:100B900017D100208A4908708C480021018081709B
:100BA000FFF7CEFF18B103208F49087006E0FFF76A
:100BB000B3FFFFF709FD00208B49087015B0BDE8B1
:100BC000F08F387802286FD132787D48017800782C
:100BD000401C7B4B18707D4842547848807800EB6D
:100BE0008000824A52F830100DA83DF0C9FD7348CC
:100BF00090F83100012813D1744800782E2803D1D1
:100C000041207249087006E070480078442802D1FB
:100C100042206E4908706D490DA83DF03AFE03E090
:100C20006A490DA83DF035FE7048816A05A83DF07F
:100C3000A7FD664905A83DF02CFEAFF2B823AFF240
:100C4000BC2205A90DA8FFF77DFC5C4890F8310097
:100C5000012804D0594890F89900012877D15848C4
:100C6000007803281FDB554890F83100E8B9574851
:100C700000782E2813D05548007844280FD05348C8
:100C800040782E280BD051484078442807D04F4850
:100C900080782E2803D04D488078442805D14FF025
:100CA00005090120049039E244E1484840782E28A3
:100CB0000BD046484078442807D0444880782E28F6
:100CC00003D042488078442804D14FF00509012020
:100CD000049023E2394890F831103C48FFF7A3FE16
:100CE0000446642094FBF0F000F0FF0A642094FBBB
:100CF000F0F100FB114000F0FF0B514658461BF08D
:100D000010FD00F0FF092D4890F82F00022827D190
:100D1000642094FBF0F000F0FF0A642094FBF0F1F3
:100D200000FB114000F0FF0B52465946012018F01D
:100D30001BFB00202249087024480021018081709B
:100D4000FFF7FEFE20B103202749087007E05AE0B4
:100D5000FFF7E2FEFFF738FC0020234908702DE77B
:100D6000164890F82F0004284AD1642094FBF0F133
:100D700000FB114000F0FF0A642094FBF0F000F04B
:100D8000FF0B514658461CF0B1FA8046B8F1000FEF
:100D900002D0404618F0D0FD0020094908700B48E9
:100DA000002101808170FFF7CBFE08B303200E49BC
:100DB000087024E00000001008000010C4060010B5
:100DC000190000101A000010170000101400001085
:100DD00048090010940000102000001024000010AA
:100DE000280000102C0000101B0000100C01001047
:100DF000FFF792FEFFF7E8FB0020F9490870DDE6F7
:100E0000012004908AE1F7480078022813DBF648B5
:100E100000782E280BD0F4480078442807D0F248F8
:100E200040782E2803D0F0484078442804D14FF071
:100E300005090120049071E1EC4890F83110EA486E
:100E4000FFF7F1FD0446642094FBF0F000F0FF0A88
:100E5000642094FBF0F100FB114000F0FF0B5146C1
:100E600058461BF05EFC00F0FF092146E0A016F09A
:100E7000F5FEDE4890F82F00022826D1642094FB6E
:100E8000F0F000F0FF0A642094FBF0F100FB114049
:100E900000F0FF0B52465946012018F065FA002079
:100EA000D0490870D048002101808170FFF748FECA
:100EB00018B10320CA49087006E0FFF72DFEFFF7BE
:100EC00083FB0020C649087078E6C84890F82F00D8
:100ED00004282CD1642094FBF0F100FB114000F0B9
:100EE000FF0A642094FBF0F000F0FF0B51465846D7
:100EF0001CF0FCF98046B8F1000F02D0404618F013
:100F00001BFD0020B7490870B7480021018081709F
:100F1000FFF716FE18B10320B149087006E0FFF78D
:100F2000FBFDFFF751FB0020AD49087046E60120AC
:100F30000490F3E0387801280AD13278012108467C
:100F40001BF017FB044624B94FF00209012004905E
:100F5000E4E0A4480078002804DD4FF005090120F2
:100F60000490DBE0A14890F83100012823D1412111
:100F70009C4802780078401C9A4B18709A4881541B
:100F80000A2094FBF0F03030C1B2184602780078A5
:100F9000401C1870944881540A2094FBF0F100FB27
:100FA00011403030C1B2184602780078401C1870E9
:100FB0008D4881541AE00A2094FBF0F03030C2B220
:100FC000884801780078401C864B18708648425447
:100FD0000A2094FBF0F100FB11403030C1B21846FA
:100FE00002780078401C18707F4881547F488078D0
:100FF00000EB8000844A52F830100DA83DF0C0FB91
:1010000079490DA83DF045FC7F48816A05A83DF06F
:10101000B7FB754905A83DF03CFCAFF29863AFF211
:101020009C6205A90DA8FFF78DFA704890F8311061
:101030006D48FFF7F8FC0446642094FBF0F000F0E4
:10104000FF0A642094FBF0F100FB114000F0FF0B5D
:10105000514658461BF065FB00F0FF09634890F8C5
:101060002F00022826D1642094FBF0F000F0FF0A44
:10107000642094FBF0F100FB114000F0FF0B52469E
:101080005946012018F070F900205649087056485A
:10109000002101808170FFF753FD18B103205049F2
:1010A000087006E0FFF738FDFFF78EFA00204C4984
:1010B000087083E54D4890F82F0004282CD1642057
:1010C00094FBF0F100FB114000F0FF0A642094FB58
:1010D000F0F000F0FF0B514658461CF007F980462F
:1010E000B8F1000F02D0404618F026FC00203D4920
:1010F00008703D48002101808170FFF721FD18B183
:1011000003203749087006E0FFF706FDFFF75CFA99
:1011100000203349087051E501200490049878B309
:10112000B9F1060F34D2DFE809F0A97A0334047963
:1011300000BF2E48807800EB8000334A02EBC000ED
:1011400041690DA83DF01CFB2F48C16B05A83DF07F
:1011500017FBAFF2D073AFF2D47205A90DA8FFF759
:10116000F1F94FF4C87038F0D5FAFFF7E9FC40B157
:101170001D4800210180817003201949087007E093
:101180004BE1FFF7C9FCFFF71FFA00201449087074
:101190003FE11648807800EB80001B4A02EBC0005C
:1011A00001690DA83DF0ECFA1748816B05A83DF0E8
:1011B000E7FAAFF63003AFF6340205A90DA8FFF742
:1011C000C1F94FF4C87038F0A5FAFFF7B9FCE8B1DF
:1011D00005480021018081700320014908701CE04E
:1011E0001B0000101900001014000010C4060010AD
:1011F0000D0A2041505055626F7842746E636C6FD7
:10120000756D6E3D256400000C010010FFF784FC35
:10121000FFF7DAF90020FB490870FAE000BFFA484E
:10122000807800EB8000F94A02EBC00041680DA80D
:101230003DF0A6FAF548C16A05A83DF0A1FAAFF65F
:10124000BC03AFF6C00205A90DA8FFF77BF94FF468
:10125000C87038F05FFAFFF773FC38B1EC48002132
:10126000018081700320E749087006E0FFF754FC15
:10127000FFF7AAF90020E3490870CAE0642094FB54
:10128000F0F000F0FF0A642094FBF0F100FB114045
:1012900000F0FF0B5246012158461BF04AFADD4987
:1012A000086008460568D84890F82700A8B30128C8
:1012B00034D0022830D16420B5FBF0F100FB115A84
:1012C000B5FBF0FBD048807800EB8000CF4901EB04
:1012D000C000C168CC48CDE901BA0091807800EB2C
:1012E0008000CA4901EBC000C94BCBA1C2690DA85F
:1012F0003DF048F86420B5FBF0F100FB115AB5FB56
:10130000F0FBC248416BCDE901BA0091C04BC2A1CC
:10131000426C05A83DF036F85BE033E00A20B5FBEF
:10132000F0F5B5FBF0F100FB115AB5FBF0FBB64848
:10133000807800EB8000B54901EBC000C168B2487D
:10134000CDE901BA0091807800EB8000AF4901EB54
:10135000C000AF4BB5A1C2690DA83DF013F80A203B
:10136000B5FBF0F100FB115AB5FBF0FBA748416B50
:10137000CDE901BA0091A64BACA1426C05A83DF0A5
:1013800001F826E06420B5FBF0FA9F48807800EB76
:1013900080009E4901EBC000C2689B48CDE9002A4D
:1013A000807800EB800001EBC000994BA3A1C269DB
:1013B0000DA83CF0E7FF6420B5FBF0FA9348426BC0
:1013C000CDE9002A924B9DA1426C05A83CF0DAFFC2
:1013D00000BF00BFAFF65423AFF6582205A90DA8F1
:1013E000FFF7B0F8C82038F095F9FFF7A9FB28B14E
:1013F0009548048005208349087009E0C82038F02A
:1014000089F9FFF789FBFFF7DFF800207D490870B5
:1014100000BF00BF00208D49087000BF9FE42DE988
:10142000F04F93B0064620210BA83DF0DFFA2021B3
:1014300003A83DF0DBFA0027B846B9460024002592
:10144000307843281BD100208049087080490870FB
:101450006F480021018081707E480180FFF770FB9A
:1014600018B103206749087006E0FFF755FBFFF746
:10147000ABF800206349087013B0BDE8F08F7448E2
:101480000078F0BB3078452829D032786F48017851
:101490000078401C6D4B18706E4842545A48807852
:1014A00000EB80006C4A02EB0010816C0BA83DF051
:1014B00067F968490BA83DF0ECF96748D0F8981037
:1014C00003A83DF05DF9634903A83DF0E2F9AFF6EA
:1014D0004C33AFF6503203A90BA8FFF733F85B4843
:1014E0000078022857DB5B480078302839DB594800
:1014F0000078392835DC57484078302831DB5548AA
:1015000000E0C9E0407839282BDC01205049087000
:1015100000204E4908703E480021018081704D49ED
:101520000BA83DF02DF93848807800EB80004A4A3E
:1015300002EB0010C16C0BA83DF0ABF9454903A8C4
:101540003DF01EF94448D0F89C1003A83DF0A1F9E5
:10155000AFF6D033AFF6D43203A90BA8FEF7F2FFF3
:10156000D2E1002039490870394908702848002123
:101570000180817037480180FFF7E2FA18B103203B
:101580002049087006E0FFF7C7FAFFF71DF80020B2
:101590001C49087070E73078452832D12D48007812
:1015A00030285FDB2B48007839285BDC294800783D
:1015B0002849487030200870012025490870002013
:1015C0002249087012480021018081700E488078FD
:1015D00000EB8000204901EB00101E4A1FA1C36CE4
:1015E0000BA83CF0CFFE1C481A4A1CA1D0F89C3036
:1015F00003A83CF0C7FE1AA319A203A90BA8FEF783
:10160000A1FF81E11B000010C40600100C010010B6
:10161000140000103400001025732025732C25734E
:10162000253032642E2530326400000025732025D9
:10163000732C257325642E25640000002573202556
:10164000732C257325640000300000101900001071
:101650001A00001017000010A00300102573257356
:10166000000000000020FC490870FC490870FC489C
:10167000002101808170FB480180FFF761FA18B1F9
:101680000320F949087006E0FFF746FAFEF79CFFD1
:101690000020F5490870EFE6F048007801287ED177
:1016A0003078452835D03178EB4802780078401CF6
:1016B000E94B1870EA488154EA4840783038E949E3
:1016C0000978303901EB810100EB410000F0FF099E
:1016D000E34BE6480093807800EB8000E44901EB9F
:1016E00000104A46E3A1C36C0BA83CF04BFEDC4B58
:1016F000DF4800934A46DFA1D0F89C3003A83CF0B5
:1017000041FEAFF2A403AFF2A80203A90BA8FEF7B3
:1017100019FFD1480078022875DBD14800783028BD
:1017200056DBCF480078392852DCCD484078302845
:101730004EDBCB48407839284ADCCA49C848FFF715
:10174000B4F90446642094FBF0F000F0FF0A642032
:1017500094FBF0F100FB114000F0FF0B514658469E
:101760001AF0DFFFC7B2C14890F82F0002282CD131
:10177000642094FBF0F000F0FF0A642094FBF0F189
:1017800000FB114000F0FF0B52465946012017F0B4
:10179000EBFD0020B0490870B049087000E08BE014
:1017A000AF48002101808170AE480180FFF7C8F981
:1017B00018B10320AC49087006E0FFF7ADF9FEF759
:1017C00003FF0020A849087056E64FF001089BE08F
:1017D0000020A1490870A1490870A148002101809A
:1017E0008170A0480180FFF7ABF918B103209E4932
:1017F000087006E0FFF790F9FEF7E6FE00209A4930
:10180000087039E6FFE7307845287DD194480078A4
:10181000302852DB9248007839284EDC9048007816
:101820008F494870302008708E498D48FFF73DF988
:101830000446642094FBF0F000F0FF0A642094FB5F
:10184000F0F100FB114000F0FF0B514658461AF032
:1018500068FFC7B2854890F82F0002282AD164207B
:1018600094FBF0F000F0FF0A642094FBF0F100FB21
:10187000114000F0FF0B52465946012017F074FD4D
:10188000002075490870754908707548002101806D
:10189000817074480180FFF753F918B10320724931
:1018A000087006E0FFF738F9FEF78EFE00206E495B
:1018B0000870E1E54FF0010826E000206649087055
:1018C00067480021018081706848807800EB8000C3
:1018D000674901EB0010634AAFF28021C36C0BA88B
:1018E0003CF050FD62485F4AAFF29021D0F89C3046
:1018F00003A83CF047FDAFF29823AFF29C2203A966
:101900000BA8FEF71FFEB7E5B8F1000F73D0062F46
:101910003AD2DFE807F0BD72033A047100BF5348C2
:10192000807800EB8000554A02EBC00041690BA8AB
:101930003CF026FF5148C16B03A83CF021FFAFF2F9
:10194000E023AFF2E42203A90BA8FEF7FBFD4FF45E
:10195000C87037F0DFFEFFF7F3F870B100203E49A2
:1019600008703E4908703F48002101803C480180D2
:10197000817003203C49087006E0FFF7CDF8FEF7C0
:1019800023FE00203849087053E13848807800EB86
:1019900080003A4A02EBC00001690BA83CF0F0FE5F
:1019A0003648816B03A83CF0EBFEAFF24C33AFF24C
:1019B000503203A90BA8FEF7C5FD4FF4C87037F0ED
:1019C000A9FEFFF7BDF870B1002023490870234934
:1019D0000870244800210180214801808170032083
:1019E0002149087006E0FFF797F8FEF7EDFD0020AB
:1019F0001D4908701DE122E100BF1C48807800EB02
:101A000080001E4A02EBC00041680BA83CF0B8FE03
:101A10001A48C16A03A83CF0B3FEAFF2BC33AFF280
:101A2000C03203A90BA8FEF78DFD4FF4C87037F044
:101A300071FEFFF785F870B100200749087007496B
:101A4000087008480021018005480180817003204A
:101A5000054908701BE013E0190000101A0000107F
:101A600014000010170000101B000010C406001026
:101A7000A003001025642573257300000C010010DD
:101A8000FFF74AF8FEF7A0FD0020FD490870D0E0FE
:101A9000642094FBF0F000F0FF0A642094FBF0F166
:101AA00000FB114000F0FF0B5246012158461AF08E
:101AB00040FEF449086008460568F34890F827009E
:101AC000B8B3012836D0022832D16420B5FBF0F13A
:101AD00000FB115AB5FBF0FBEB48807800EB80006F
:101AE000EA4901EBC000C168E748CDE901BA0091BD
:101AF000807800EB8000E54901EBC000E44BAFF2D9
:101B0000E841C2690BA83CF03DFC6420B5FBF0F154
:101B100000FB115AB5FBF0FBDC48416BCDE901BA83
:101B20000091DB4BAFF21051426C03A83CF02AFC51
:101B30005FE035E00A20B5FBF0F5B5FBF0F100FB06
:101B4000115AB5FBF0FBD048807800EB8000CF49FC
:101B500001EBC000C168CC48CDE901BA00918078A2
:101B600000EB8000C94901EBC000C94BAFF2445102
:101B7000C2690BA83CF006FC0A20B5FBF0F100FBA3
:101B8000115AB5FBF0FBC148416BCDE901BA009198
:101B9000BF4BAFF26851426C03A83CF0F3FB28E066
:101BA0006420B5FBF0FAB848807800EB8000B749B4
:101BB00001EBC000C268B448CDE9002A807800EB90
:101BC000800001EBC000B24BAFF29051C2690BA88C
:101BD0003CF0D8FB6420B5FBF0FAAC48426BCDE991
:101BE000002AAB4BAFF2AC51426C03A83CF0CAFBED
:101BF00000BF00BFAFF29853AFF29C5203A90BA8ED
:101C0000FEF7A0FCC82037F085FDFEF799FF28B14C
:101C1000A048048005209A49087009E0C82037F0E0
:101C200079FDFEF779FFFEF7CFFC0020944908709C
:101C300000BF00BF0020984908709849087000BF95
:101C40001AE42DE9F041A4B006460D4620211CA857
:101C50003CF0CCFE202114A83CF0C8FE20210CA8AA
:101C60003CF0C4FE202104A83CF0C0FE022037F066
:101C700051FDFEF765FF0446EEBB834880780128DE
:101C800014D08748036D8048807800EB8000844939
:101C900001EB001083A102687B488DE80E00837879
:101CA000002202214C2035F038F90CE07C48AFF2DC
:101CB0003822036D7448CDE9002383780022022185
:101CC000602035F02AF904221146002035F05AF838
:101CD0006D48807828B90223002205212C2035F098
:101CE00073FA694890F8270048B3012814D00228F5
:101CF00031D1642000E05CE0B4FBF0F100FB11475F
:101D0000B4FBF0F8AFF2E863042211464C20CDE9B1
:101D1000008735F0AEF91EE00A20B4FBF0F4B4FB06
:101D2000F0F100FB1147B4FBF0F8AFF2F8630422C6
:101D300011464C20CDE9008735F09BF90BE064207B
:101D4000B4FBF0F7AFF20473042211464C20009765
:101D500035F08FF900BF00BF012D11D14A488078BE
:101D600000EB80004E4A02EB0010816C1CA83CF096
:101D700007FD4B48D0F8981014A83CF001FD0FE087
:101D80004148807800EB8000454A02EB0010016971
:101D90001CA83CF0F5FC4248016E14A83CF0F0FC95
:101DA000AFF24473AFF2487214A91CA8FEF7CAFB45
:101DB000C3E035488078012814D03948436D324853
:101DC000807800EB8000364901EB001035A14268B5
:101DD0002D488DE80E008378002202214C2035F03A
:101DE0009CF812E02848807800EB80002C4901EB39
:101DF0000010AFF27C3243682348CDE9002383789A
:101E000000220221602035F088F8042211460020CB
:101E100034F0B8FF1C48807828B90223002205213D
:101E20002C2035F0D1F9184890F8270038B3012854
:101E300012D0022846D16420B4FBF0F100FB114718
:101E4000B4FBF0F8AFF62803042211464C20CDE98C
:101E5000008735F00EF935E00A20B4FBF0F4B4FB4E
:101E6000F0F100FB1147B4FBF0F8AFF638030422A1
:101E700011464C20CDE9008735F0FBF822E015E053
:101E80001B00001034000010C40600100C010010EC
:101E90001400001030000010190000101A0000108B
:101EA000A003001025732F25730000006420B4FBED
:101EB000F0F7AFF67003042211464C20009735F07E
:101EC000D8F800BF00BF012D11D1FF48807800EB8A
:101ED0008000FE4A02EB0010816C1CA83CF050FC14
:101EE000FA48D0F8981014A83CF04AFC1FE0F648D5
:101EF000807800EB8000F54A02EB001041691CA8D5
:101F00003CF03EFCF148416E14A83CF039FCEE4830
:101F1000807800EB8000ED4A02EB001081690CA88C
:101F20003CF02EFCE948816E04A83CF029FC04AB8F
:101F30000CAA14A91CA8FEF705FB24B0BDE8F0818B
:101F400000B591B0202109A83CF050FD202101A846
:101F50003CF04CFDDC48807800EB8000DB4A02EB73
:101F60000010816809A83CF00BFCD848816D01A8DD
:101F70003CF006FCAFF61813AFF61C1201A909A835
:101F8000FEF7E0FA11B000BD70B598B0044620210C
:101F900010A83CF02BFD202108A83CF027FD2021B3
:101FA00068463CF023FDC848807800EB8000C74AB3
:101FB00002EB0010C16868463CF0E2FBC348C16D0B
:101FC00008A83CF0DDFBC04890F8270018B30128B2
:101FD00010D0022829D16420B4FBF0F100FB114598
:101FE000B4FBF0F62B463246AFF6CC1110A83CF00D
:101FF000C9F91AE00A20B4FBF0F4B4FBF0F100FBDD
:102000001145B4FBF0F62B463246AFF6D81110A8B6
:102010003CF0B8F909E06420B4FBF0F52A46AFF6CD
:10202000DC1110A83CF0AEF900BF00BF10A9684653
:102030003CF02FFCAFF6D813AFF6DC1208A96846C7
:10204000FEF780FA4FF4C87037F064FB18B070BD2B
:1020500000B591B0202109A83CF0C8FC202101A8BE
:102060003CF0C4FC9848807800EB8000974A02EB73
:102070000010816B09A83CF083FB9448D0F88810CD
:1020800001A83CF07DFBAFF62823AFF62C2201A976
:1020900009A8FEF757FA4FF4C87037F03BFB11B0B0
:1020A00000BD00B591B0202109A83CF09FFC202183
:1020B00001A83CF09BFC8448807800EB8000834AB8
:1020C00002EB0010C16B09A83CF05AFB7F48D0F826
:1020D0008C1001A83CF054FBAFF67C23AFF68022B5
:1020E00001A909A8FEF72EFA142037F013FB11B04E
:1020F00000BD00B591B0202109A83CF077FC20215B
:1021000001A83CF073FC7048807800EB80006F4AB7
:1021100002EB0010016C09A83CF032FB6B48D0F8D0
:10212000901001A83CF02CFBAFF6CC23AFF6D022E8
:1021300001A909A8FEF706FA4FF4C87037F0EAFAC9
:1021400011B000BD10B590B0202108A83CF04EFCA5
:10215000202168463CF04AFC5D480088642190FBE1
:10216000F1F201FB12045848807800EB80005749D7
:1021700001EB0010224657A1C36A08A83CF002F9FF
:1021800053480088642190FBF1F201FB12044F4890
:10219000224650A1C36F68463CF0F4F8AFF64033D6
:1021A000AFF64432694608A8FEF7CCF910B010BD6E
:1021B00000B591B0202109A83CF018FC202101A80D
:1021C0003CF014FC4048807800EB80003F4901EB74
:1021D0000010AFF25C71C26A09A83CF0D3F83B482A
:1021E000AFF26C71C26F01A83CF0CCF8AFF690333F
:1021F000AFF6943201A909A8FEF7A4F911B000BD09
:1022000000B591B0202109A83CF0F0FB202101A8E5
:102210003CF0ECFB2C48807800EB80002B4A02EB72
:102220000010016B09A83CF0ABFA2848D0F88010E8
:1022300001A83CF0A5FAAFF6D833AFF6DC3201A91D
:1022400009A8FEF77FF9642037F064FA11B000BDE9
:1022500000B591B0202109A83CF0C8FB202101A8BD
:102260003CF0C4FB1848807800EB8000174A02EB72
:102270000010416B09A83CF083FA1448D0F8841090
:1022800001A83CF07DFAAFF62843AFF62C4201A935
:1022900009A8FEF757F94FF4C87037F03BFA11B0B0
:1022A00000BD00B591B0202109A83CF09FFB202182
:1022B00001A83CF09BFB0448807800EB8000074AB3
:1022C00052F8201009A80BE0C4060010A00300106B
:1022D0003000001025642025730000003005001038
:1022E0003CF04EFAFF48416901A83CF049FAAFF6CC
:1022F0009043AFF6944201A909A8FEF723F911B063
:1023000000BD00B591B0202109A83CF06FFB202151
:1023100001A83CF06BFBF448807800EB8000F14AA8
:1023200002EB8000816809A83CF02AFAED48C169F7
:1023300001A83CF025FAAFF6D843AFF6DC4201A97C
:1023400009A8FEF7FFF8642037F0E4F911B000BDEA
:1023500070B592B0044620210AA83CF047FB20212A
:1023600002A83CF043FBE04890F8270088B301281E
:1023700017D002283FD16420B4FBF0F100FB1145D7
:10238000B4FBF0F6D8480095807800EB8000D54982
:1023900001EB80003346D5A142680AA83BF0F2FF6A
:1023A00029E00A20B4FBF0F4B4FBF0F100FB114586
:1023B000B4FBF0F6CC480095807800EB8000C9496A
:1023C00001EB80003346CCA142680AA83BF0DAFF5B
:1023D00011E0FFE76420B4FBF0F5C348807800EB20
:1023E0008000C04901EB80002B46C5A142680AA8C5
:1023F0003BF0C8FF00BF00BFBA48816902A83CF0AB
:10240000BFF9C0A3BFA202A90AA8FEF79BF84FF428
:102410007A7037F07FF912B070BD00B589B0202115
:1024200001A83CF0E3FA33F0B3FF022037F072F971
:10243000AC48016A01A83CF0A3F901AB03220521D5
:10244000302034F016FEA8488078012813D0A64822
:10245000807800EB8000A34A02EB8000016901A8AC
:102460003CF08EF901ABA0480093837800220B2149
:102470003C2034F052FD09B000BDA348006870470D
:1024800070B506460C461546974890F82300C8B12B
:10249000012E02D0022E14D109E09CA015F0CEFA34
:1024A00014F062F90121084614F0F4FD09E09BA044
:1024B00015F0C4FA14F045F90021012014F0EAFDEA
:1024C00000BF00BF884890F82100C8B1012C02D09D
:1024D000022C14D109E095A015F0B0FA14F0A7FA77
:1024E0000121022014F0D6FD09E094A015F0A6FA0F
:1024F00014F082FA0021022014F0CCFD00BF00BFCE
:10250000794890F8260058B1012D02D0022D06D14D
:1025100002E01CF069F902E01CF055F900BF00BFB1
:10252000142037F0F7F870BD10B5FEF709FBF0B9CD
:1025300086480078D8B98648407A012817D1FEF736
:10254000FFFA04468248437A80480278214681A0F7
:1025500015F074FA14F0C0F8142037F0DBF80022FC
:1025600011460120FFF78CFF142037F0D3F810BD7F
:1025700000207D49C8804871C8708870487001206B
:102580007A4988707047FEB50026574890F82200B7
:10259000022873D17648406F7549B1F8C01048439E
:1025A00073498A6FB1F8C21002FB01017048C26F13
:1025B000B0F8C40002FB00116D48D0F88020B0F8DC
:1025C000C60002FB00116A48D0F88420B0F8C800A9
:1025D00002FB00116648D0F88820B0F8CA0002FB60
:1025E00000116348D0F88C20B0F8CC0002FB001139
:1025F0005F48D0F89020B0F8CE0002FB00115C4894
:10260000D0F89420B0F8D00002FB00115848D0F860
:102610009820B0F8D20002FB00115548D0F89C2059
:10262000B0F8D40002FB00115148D0F8A020B0F857
:10263000D60002FB00114E48D0F8A420B0F8D80014
:1026400002FB00114A48D0F8A820B0F8DA0002FBDB
:1026500000114748D0F8AC20B0F8DC0002FB0011B4
:102660004348D0F8B020B0F8DE0002FB00151E4849
:1026700090F82500022813D100240FE0BCE03D486B
:1026800050F8240040B13B4850F824101C3030F87A
:10269000140001FB00552646601CC4B2072CEEDB7B
:1026A0001148806BA84202D20F48806B00E0284698
:1026B000314908600C48D0F8C030084602682D48FF
:1026C000CDE90052029350F826002A4F1C3737F804
:1026D000167000FB07F32648806F254FB7F8C270CD
:1026E0004CE0000030050010C406001025732530B2
:1026F00032642E2530326400257325642E25640053
:1027000025732564000000002C0000100D0A2041F4
:102710007070656E42696C6C000000000D0A20410B
:10272000707064697342696C6C0000000D0A20418E
:102730007070656E436F696E000000000D0A2041E5
:102740007070646973436F696E0000001C000010B4
:10275000504800100D0A2045727242696C6C3D258C
:10276000642C25642C256400080000104809001022
:10277000100800101C0900103C00001000FB07F2BC
:10278000F448406FF34FB7F8C07000FB07F1F2A0B8
:1027900015F054F9FF48D0F8C000FF490968884295
:1027A00015D9012014F080FC012824D1F94890F8B3
:1027B000230000B3002211460220FFF761FE012032
:1027C000F649087033F0E4FDFFF7D2FEB7E00120D0
:1027D00014F06AFC78B9EF4890F8230058B1002251
:1027E00011460120FFF74CFE0020EC49087033F041
:1027F000CFFDFFF7BDFEA2E0E64890F822000128D9
:1028000027D1E44890F8250002280AD1002406E0E8
:10281000E34850F8240000B12646601CC4B2072CDF
:10282000F6DB14F018FB10B9DA48806B00E00020EA
:10283000D9490860DA4850F82600D94A1C3232F8E3
:10284000162000FB02F1D4480268D6A015F0F6F875
:1028500075E0D04890F82200E8BBCE4890F82500FB
:10286000022863D100240EE0CD4850F8240040B186
:10287000CB4850F824101C3030F8140001FB0055F0
:102880002646601CC4B2072CEEDBC248806BA8420F
:1028900002D2C048806B00E02846BF490860BD48AE
:1028A000D0F8C030BE48009350F82600BC4A1C3215
:1028B00032F8162000FB02F1B7482A460368C0A090
:1028C00015F0BCF8B348D0F8C000B3490968884295
:1028D00017D9012000E028E014F0E6FB01282ED1F2
:1028E000AC4890F8230000B3002211460220FFF705
:1028F000C7FD0120A949087033F04AFDFFF738FEF3
:102900001DE0012014F0D0FB78B9A24890F8230014
:1029100058B1002211460120FFF7B2FD00209F4967
:10292000087033F035FDFFF723FE08E09948806B0F
:1029300099490860AF480168AFA015F07FF8FFF72C
:10294000F3FD0020FEBD014669B9924A92F82E209F
:102950000F32FF2A01DDFF2203E08E4A92F82E207B
:102960000F32D0B20CE001290AD18A4A92F82E2007
:10297000FF2A01DDFF2202E0864A92F82E20D0B223
:10298000704770B5834890F8210018B313F0EBFF3F
:102990000446FCB19D48006820449C490860FEF74D
:1029A000CFF805460246214699A015F069F80222A3
:1029B00000210846FFF764FD0121204614F04EFC7B
:1029C000FEF7BEF805460246A1B2012016F091F9C5
:1029D000012070BD6F4890F8230090B313F02CFED7
:1029E000044674B3214690A015F028F89248006878
:1029F0000119804803686848026890A015F01EF825
:102A00008D48006820446449096888421AD213F04E
:102A10002BFE90B188480068204487490860022155
:102A2000204614F01BFCFEF78BF805460246A1B2C7
:102A3000022016F05EF9002452E013F04DFE002053
:102A4000C7E761E0534890F8240001283DD1FFF723
:102A500077FAFEF775F828B34FF4AF7036F05AFEE8
:102A60000020FFF770FF7E49887103207D490870C0
:102A700000207D4908707D4908707D480021018053
:102A80007C48018081707C48006836F003FC00209F
:102A90007A4908607A4801780020FFF7D2F813F0ED
:102AA0001BFE0EE0FEF738F800206E49087013F0A8
:102AB00013FE4FF4C87036F02DFEFDF785FDFFF7CD
:102AC00057FD00206F49086083E76E480460FEF7F9
:102AD00037F805460246A1B2032016F00AF9002491
:102AE0005548006820442C490968884205D30222D1
:102AF00000211046FFF7C4FC04E002220021084632
:102B0000FFF7BEFC012064E7224890F82600F0B1F0
:102B10005D481BF028FE04465B480078012817D169
:102B2000B4B1214659A014F0EFFF5E4804600321C0
:102B3000204614F093FB002202210846FFF7A0FC78
:102B4000FDF7FEFF05460246A1B20520ACE0C6E057
:102B5000AEE00000100800100D0A4170704368617B
:102B60006E676520353D256C642C313D256C642CE9
:102B70007265633D256C642C6D6F6E65793D256CC7
:102B8000642C6D61783D256C642C62696C6C3D250C
:102B90006C640000C40600103C0000101C00001013
:102BA0001C0900100D0A4170704368616E67652052
:102BB0007265633D256C642C6D61783D256C640005
:102BC0000D0A4170704368616E6765207265633DF0
:102BD000256C642C636F696E4D6F6E65793D256C55
:102BE000642C6D61783D256C642C62696C6C3D25AC
:102BF0006C640000400000100D0A41707043686171
:102C00006E6765206D61783D256C640020000010C2
:102C10000D0A417070636F696E312E636F696E3D8E
:102C2000256C642C256C64000D0A322E4170706294
:102C3000696C6C3D256C6400240000100D0A417025
:102C40007062696C6C3D256C642C4D6F6E65793DCE
:102C5000256C642C70726963653D256C640D0A00F7
:102C6000480900101B000010190000101A00001085
:102C70001700001014000010940000103400001021
:102C80003900001028000010440000100D0A2041F7
:102C90007070526561646572312E726561643D25A4
:102CA0006C6400002C00001016F023F8012090E660
:102CB000F9480078022812D1F8A014F025FFFDF79A
:102CC0003FFF85B200232A461946022015F090F8EE
:102CD0000020F1490870F8490860022079E60020D8
:102CE00077E62DE9F0410026F44890F82500022807
:102CF00058D1FDF725FF0646F6B33146F0A014F093
:102D00009DFE00244BE0F34850F82400A8B3F1489E
:102D100050F82400B6FBF0F0C5B22946EEA014F03E
:102D20008DFEEC481C3030F81400A84201DB284628
:102D300003E0E8481C3030F81400C5B22946EBA087
:102D400014F07CFEE34951F8241001FB05F013F068
:102D50005CFD0746012F1FD1E9480068E949096871
:102D60000144DC4850F8240000FB15160020E5491A
:102D70000860E348066001E014E00EE03146E2A09E
:102D800014F05CFED34850F82400684382B2334606
:102D90000021012015F02CF803E0601CC4B2072CC0
:102DA000B1DB00BFBDE8F08138B5DB480068D8B1C1
:102DB00013F092FC70B1FDF7C3FED7490968451ABC
:102DC0002A46D548006881B2042015F092FF002001
:102DD000D149086036F04CFD05460146CFA014F0FD
:102DE0003DFF642036F096FCFFF77BFFFDF7A8FE61
:102DF00070B136F03DFD05460146CCA014F02EFF23
:102E0000FDF79EFE054669461BF045FA044600E0C4
:102E100001241CBBCBA014F021FFFDF791FE00990B
:102E2000451A284614F084FCFDF78AFE0099401AE2
:102E300085B20B462A460021084614F0D9FFC82067
:102E400036F068FC00221146022015F052FF0020E7
:102E5000AB490860AB490860009838BD36F008FD02
:102E600005460146BCA014F0F9FEFDF769FE0546D3
:102E7000002114F05DFCFDF763FE85B200232A46B5
:102E80001946184614F0B4FF00209D4908609D497A
:102E9000086000BFE1E72DE9F04100260024B348B7
:102EA0000468FDF74DFEA04206D28348006818B9B9
:102EB0000720AF490870C1E07F48006878B1FFF78C
:102EC000F0F8A0B21BF04EFD0646012E03D10A20F9
:102ED000A7490870B2E00920A5490870AEE088480B
:102EE0000068884909680844A04262D284480068A2
:102EF000201A84490968451A87480068451B6F48AD
:102F000090F82200022801D1012615E06B4890F8C4
:102F10002200012801D101260EE0684890F8220025
:102F200050B9664890F82500022801D1012603E037
:102F30000DB9012600E00026012E36D113F094FBD6
:102F4000F0B1704800687449096808446D49086028
:102F500002217148006814F081F9FDF7F1FD6E4916
:102F60000968471A3A466C48006881B2022015F099
:102F7000C0FE0020684908600A207D4908705DE0B5
:102F800013F0AAFBFDF7DCFD63490968471A3A46CE
:102F90006148006881B2042015F0ABFE00205E4954
:102FA000086008207249087048E0082070490870DD
:102FB00044E053480068534909680844051B3F48EA
:102FC00090F82200022801D1012615E03B4890F834
:102FD0002200012801D101260EE0384890F8220095
:102FE00050B9364890F82500022801D1012603E0A7
:102FF0000DB9012600E00026012E1CD12F4890F8C3
:103000002400012813D14448006880B113F064FB08
:10301000FDF796FD40490968471A3A463E48006860
:1030200081B2042015F065FE00203B4908600A20AB
:103030004F49087002E008204D490870BDE8F08152
:1030400010B5044604B31C48006860B149A014F0F0
:103050005BFD01201BF0EEFC17480068001B1649C1
:103060000860002410E027480068844206D3254801
:103070000068241A00202349086005E02148006800
:10308000001B20490860002424B11D480068001B73
:103090001B49086010BD0000440000100D0A2041CB
:1030A0007070526561646572204F555450555420BC
:1030B00063617264000000002C000010C406001060
:1030C0000D0A204170704E6565647061793D256C14
:1030D000640000001C0900100D0A204170704E654C
:1030E00065646E756D3D2564000000000D0A204189
:1030F00070705265616C6E756D3D25640000000056
:1031000020000010240000100D0A20417070706132
:10311000793D256C64000000280000100D0A204154
:103120007070486F6C645265742564000D0A20410C
:103130007070426567696E206368616E67652564BB
:10314000000000000D0A204170706368616E6765C1
:10315000204661696C0000000D0A204170706368B0
:10316000616E676520737563632564003400001029
:103170001B0000100D0A2041707043487568756F80
:103180005375636300000000FF4890F82E00FF288D
:1031900006DAFE48807908B9012070470020FCE774
:1031A0000020FAE70EB5F9488379F748807800EBFC
:1031B0008000F74901EB0010F6A1426CF2488DE85F
:1031C0000E00837800221146962033F0A6FE0EBD35
:1031D00070B504460125F4B3F0480068F049096869
:1031E0000844A0422AD213F03FFAB0B1EC4800687C
:1031F000EC4909680844EA490860FDF7A1FCE9497F
:103200000968461A3246E748006881B2022015F084
:1032100070FD0020E349086010E013F05DFAFDF74F
:103220008FFCE0490968461A3246DE48006881B2E0
:10323000042015F05EFD0020DA490860FDF780FCEF
:10324000064602462146D8A014F008FDFDF778FC9A
:10325000A04203D300E002E0012500E00025FDF7D5
:103260006FFC90B30320D74908700020FFF76BFB79
:10327000C6498871D3480078032842D1C8480068FD
:10328000D1490968884204D2002201210846FFF78B
:10329000F7F80020CD490870CD490870CD480021CD
:1032A0000180CD4801808170CC48006835F0F2FF84
:1032B00033F06EF8CA4801780020FEF7C2FCFDF733
:1032C0003FFC064616F031FF1BE0FFE7002201211C
:1032D0000846FFF7D5F80020BC490870BC490870C3
:1032E000BC4800210180BC4801808170BB48006857
:1032F00035F0D0FF33F04CF8FFF78FF80E20B149CE
:103300000870284670BD70B504460125002654B1EA
:10331000B448006838B1FEF7C4FEA0B21BF022FB2F
:10332000064606B90025284670BD70B5044684B32C
:10333000AC48006860B1ACA014F0E6FB01201BF0C3
:1033400079FBA8480068001BA6490860002447E0F4
:1033500092480068924909680844A0422FD213F0AD
:1033600083F9B8B18E4800688E49096808448C49D1
:103370000860FDF7E5FB8B490968451A2A4689482C
:10338000006881B2022015F0B4FC00208549086075
:1033900011E025E013F0A0F9FDF7D2FB814909689F
:1033A000451A2A467F48006881B2042015F0A1FC26
:1033B00000207C4908604FF4487036F0ABF978483B
:1033C0000068844206D376480068241A00207449B5
:1033D000086005E072480068001B7149086000241D
:1033E00024B16E480068001B6C490860FDF7A8FB1B
:1033F00090B30320734908700020FFF7A4FA6349D3
:10340000887170480078032842D1654800686E4989
:103410000968884204D2002201210846FFF730F8EB
:1034200000206A4908706A4908706A4800210180D2
:103430006948018081706948006835F02BFF32F0DF
:10344000A7FF674801780020FEF7FBFBFDF778FB3C
:10345000054616F06AFE1BE0FFE700220121084640
:10346000FFF70EF80020594908705949087059486B
:10347000002101805848018081705848006835F06B
:1034800009FF32F085FFFEF7C8FF0E204D49087096
:1034900070BD2DE9F04F87B004460E461546002753
:1034A00000200690FEF784FE002202210846FEF767
:1034B000E7FF36F0DDF98046014650A014F0CEFB60
:1034C0003046FFF720FF642094FBF0F000F0FF0887
:1034D000642094FBF0F100FB114000F0FF0942462C
:1034E000012148460CF0F6FA0746274890F82F00CD
:1034F000012804D0244890F82F00032842D1012F3E
:1035000041D1FDF71DFB08B913F094FE012D01D048
:10351000022D02D13046FFF793FD41202E4908705D
:10352000642094FBF0F100FB11400A2190FBF1F0C4
:10353000303029494870642094FBF0F100FB1140C1
:103540000A2190FBF1F201FB120030302249887011
:103550002F4806602F4803782D4801681E48CDE9A2
:10356000015300918378427801782BA032F0BCF9A6
:10357000284801780078401C264B18702B46164AC4
:10358000234869E0C0E095E0C40600104809001037
:10359000A0030010257325303264000020000010C5
:1035A00024000010280000100D0A204170702050E7
:1035B000726963653D256C642C6D6F6E65793D2580
:1035C0006C6400001B0000103C000010190000108B
:1035D0001A000010170000101400001094000010D2
:1035E000390000102C0000100D0A2041707050436B
:1035F000436F737453756363000000000D0A202548
:103600006441707055626F7856656E646F757400B2
:1036100034000010380000104C6F675472616E73F4
:10362000616374696F6E415049206C6F6769633DD7
:103630002563256325632070726963653D256420D9
:10364000747970653D25782C7472616E4E756D735A
:103650003D25640D0A200000006813F03EFE642042
:1036600094FBF0F000F0FF0A642094FBF0F100FB03
:10367000114000F0FF0B52460221584619F059F84C
:1036800000F0FF08FDF75CFA0590642094FBF0F170
:1036900000FB114000F0FF09059A2B46CDE90128F7
:1036A00000964A460121002015F0C0FE0B20FF497C
:1036B000087009E1FEF7CCFD642094FBF0F000F007
:1036C000FF0A642094FBF0F100FB114000F0FF0BB7
:1036D00052460221584619F02CF800F0FF08FDF779
:1036E0002FFA0590642094FBF0F100FB114000F0EC
:1036F000FF09059A2B46CDE9012800964A4601218B
:10370000992015F093FEDFE0E94890F82F00022899
:103710007ED1012F52D1FEF773FD3046FFF705FE33
:10372000642094FBF0F100FB11400A2190FBF1F0C2
:103730003030C0B28DF818000A2094FBF0F100FB85
:1037400011403030C0B28DF8190013F073FDD94824
:1037500001780078401CD74B18702B4606AA3046DB
:1037600013F0BBFD642094FBF0F000F0FF0B64202D
:1037700094FBF0F100FB1140C0B25A4602210490C4
:1037800018F0D7FF00F0FF08FDF7DAF90590642084
:1037900094FBF0F100FB114000F0FF09642094FB62
:1037A000F0F000F0FF0A059A2B46CDE901280096BB
:1037B0004A465146002015F039FE35E0FEF748FD37
:1037C000BD48006810B102201BF034F9642094FB5E
:1037D000F0F000F0FF0A642094FBF0F100FB1140D0
:1037E00000F0FF0B52460221584618F0A2FF00F0ED
:1037F000FF08FDF7A5F90590642094FBF0F100FBAC
:10380000114000F0FF09642094FBF0F0C0B200E02A
:103810003FE00490059A2B46CDE9012800964A46E0
:103820000146022015F002FEFDF78AF990B303204D
:103830009E4908700020FFF786F8A04988719B48D0
:103840000078032840D19E4800689E490968884254
:1038500004D2002201210846FEF712FE00209A49F8
:1038600008709A4908709A4800210180994801809F
:1038700081709948006835F00DFD32F089FD974858
:1038800001780020FEF7DDF9FDF75AF9804616F0C1
:103890004CFC19E0FFE7002201210846FEF7F0FD8D
:1038A00000208949087089490870894800210180F1
:1038B0008848018081708848006835F0EBFC32F060
:1038C00067FD0E207949087007B0BDE8F08F2DE93B
:1038D000F04F85B004460F4615461E46744890F8D2
:1038E0002F0002282BD1642094FBF0F000F0FF0A97
:1038F000642094FBF0F100FB114000F0FF0B5246F6
:103900000221584618F015FF00F0FF08FDF718F9DE
:103910000490642094FBF0F100FB114000F0FF09DB
:10392000642094FBF0F0C0B20390049A2B46CDE9DA
:10393000012800974A460146304615F077FD05B04C
:10394000BDE8F08F10B5FDF7FBF8D8B1FFF72CFA02
:103950004FF4C87035F0DEFE00205B4908705B490B
:1039600008705B48002101805A48018081705A48E4
:10397000006835F08FFC32F00BFDFEF74EFD0E2097
:103980004A490870002202210846FEF779FDC82046
:1039900035F0C0FE21F0D2FB4FF4C87035F0BAFE0E
:1039A000002201210846FEF76BFD10BD70B54048AE
:1039B00090F8260010B1FEF760FDC8BBFDF7C0F817
:1039C000B0B1FEF76EFC35F053FF0546014644A04A
:1039D00014F044F9FFF7E8F904461CB12046FEF75D
:1039E000B7FC01E0FEF78DFC0E20304908701FE0A7
:1039F000FEF757FCAFF6B40014F030F9002108468A
:103A000013F096FE00231A461946184614F0F0F9F2
:103A1000C82035F07FFE00221146022015F069F91A
:103A2000002032490860264908600E201F490870AE
:103A300070BD2DE9F04104460025FEF7B9FB35F0D5
:103A400017FF06460146AFF24C4014F007F9642018
:103A500094FBF0F0C6B2642094FBF0F100FB11403F
:103A6000C7B23246012138460CF034F80546FDF75E
:103A700067F8D0B103200D4908700020FEF763FFFE
:103A80000E49887109480078032863D10C48006802
:103A90000C490968884204D2002201210846FEF739
:103AA000EFFC00200849087022E03AE01B000010FB
:103AB000C4060010380000102C0000104809001047
:103AC000240000103C000010190000101A00001023
:103AD00017000010140000109400001039000010AE
:103AE0000D0A204170705475692564002000001093
:103AF000FF490870FF4800210180FF480180817064
:103B0000FE48006835F0C6FB32F042FCFC48017804
:103B10000020FEF796F8FDF713F8064616F005FBB1
:103B200018E0002201210846FEF7AAFC0020F54912
:103B30000870EF490870EF4800210180EE480180CD
:103B40008170EE48006835F0A5FB32F021FC0E20B4
:103B5000ED4908702846BDE8F08170B50446EB4891
:103B60000460FCF7EDFF90B30320E74908700020E4
:103B7000FEF7E9FEE6498871E3480078032840D162
:103B8000E4480068E4490968884204D2002201211F
:103B90000846FEF775FC0020DA490870D449087021
:103BA000D44800210180D44801808170D348006846
:103BB00035F070FB32F0ECFBD14801780020FEF7C5
:103BC00040F8FCF7BDFF054616F0AFFA19E0FFE735
:103BD000002201210846FEF753FC0020C949087065
:103BE000C3490870C34800210180C3480180817027
:103BF000C248006835F04EFB32F0CAFB0E20C249C5
:103C0000087070BDF0B593B00546002420210BA8C4
:103C10003AF0ECFE202103A83AF0E8FE0520BC496A
:103C20004871FCF78DFF08B9FCF759FF2C46BB48DB
:103C300090F82700A8B3012834D0022830D164209E
:103C400094FBF0F100FB114694FBF0F7B348807849
:103C500000EB8000B24901EBC000C168AF48CDE97C
:103C600001760091807800EB8000AD4901EBC00047
:103C7000A14BAC49C2690BA83AF084FB642094FBC9
:103C8000F0F100FB114694FBF0F7A548416BCDE93C
:103C900001760091984BA349426C03A83AF072FB5D
:103CA00061E037E00A2094FBF0F084B20A2094FB34
:103CB000F0F100FB114694FBF0F79848807800EB98
:103CC0008000974901EBC000C1689448CDE90176B6
:103CD0000091807800EB8000914901EBC000864B99
:103CE00090491431C2690BA83AF04CFB0A2094FBAE
:103CF000F0F100FB114694FBF0F78948416BCDE9E8
:103D0000017600917C4B87491431426C03A83AF04C
:103D100039FB28E0642094FBF0F68048807800EBC3
:103D200080007F4901EBC000C2687C48CDE90026D5
:103D3000807800EB800001EBC0006F4B79492431A3
:103D4000C2690BA83AF01EFB642094FBF0F674489D
:103D5000426BCDE90026684B72492431426C03A8BE
:103D60003AF010FB00BF00BFAFF27473AFF278728D
:103D700003A90BA8FCF7E6FB4FF4167035F0CAFC5C
:103D80006348407978B9FCF7DBFE18B103205E493F
:103D9000087006E0FCF7C0FEFCF716FC00205A494C
:103DA0000870FEF7E5FB58480078032805D1544811
:103DB00001780020FDF745FF06E05348007818B968
:103DC00032F0E6FAFEF7D4FB13B0F0BD88B0002065
:103DD000079000240025069005904D498870C87012
:103DE0000871487133F096FC38B102221146104632
:103DF000FEF746FB13204449087001200FF050F8ED
:103E000049490860454890F89800012802D116F009
:103E10006DF802E0012016F055F8012033F0E6FCC1
:103E200032F0B6FAFEE3384800783AF082F93648C4
:103E3000007814285BD2DFE800F00ACFFEFDFCFB1F
:103E4000FAF9F8F7F6F5F4F3F2F1F0EFEEED3748A2
:103E50000068C82802D90020344908602C488078BE
:103E600030B905202A498870FCF7BAFB14F0FCFE33
:103E700005A9002016F01FFB07909DF81C0098B1C3
:103E80009DF81C003C2803D09DF81C003E2805D15D
:103E900000201C4908701649087005E005201C49DF
:103EA00048710120184908701948007920B9052087
:103EB00017490871FEF767FBFEF763FD0446012C06
:103EC0004AD112F026FE32F063FA0D4801782846F6
:103ED000FDF7B7FEFCF734FE0746014614A013F0C9
:103EE000ADFD13F0A7F92846FEF72DFD2AE0B8E254
:103EF0001A000010170000101400001094000010A9
:103F000039000010190000101B0000102C000010D8
:103F100048090010240000103C000010C4060010E6
:103F20000C0100101816000040000010480000109E
:103F30000D0A2041707032616D6F756E743D256C95
:103F400064000000FC498871FCF7FAFD074616F092
:103F5000ECF80320F9490870F748C078F0B905205B
:103F6000F549C87012F0F8FD12F086FEA0B10020ED
:103F7000F149887014F06BFF642035F0CBFB32F010
:103F800007FA022211461046FEF77AFAFEF7F0FA17
:103F90000F20EA49087001E015F0C7F933F0BAFBC9
:103FA00038B1022211461046FEF76AFA1320E3499F
:103FB0000870012012F056F8FCF7C2FD074614F015
:103FC0001DF833F0FFFB07461AF0BEFF00201AF081
:103FD000D2FF16F0CBFA44E29DF81C0058B1052040
:103FE000D5494871FCF7ACFD08B9FCF778FD05A987
:103FF00007A8FCF7B1FD05A9012016F05CFA0790AF
:10400000CD48407928B94320079002200590FEF75B
:10401000AFFA11E094E37AE369E33DE3E9E2B8E261
:10402000A7E272E21EE20EE1F0E0C6E0A1E09FE04E
:104030009BE099E03CE011E0C0480078032805D1FE
:10404000BF4801782846FDF7FCFD06E0BB48007834
:1040500018B932F09DF9FEF78BFAE9E39DF81C00E0
:1040600050B11420B4494871FCF76AFD08B9FCF757
:1040700036FD07A8FDF7D3F905A9012016F01BFAB4
:104080000790AD48407918B9432007900220059069
:10409000AA480078032805D1A94801782846FDF7E9
:1040A000D0FD04E0A548007808B932F071F9BFE30B
:1040B000FEF767FC0446012C16D1A148017828467A
:1040C000FDF7BFFD2846FEF73EFC9B498871FCF7D3
:1040D00037FD074616F029F8FCF732FD0746014682
:1040E000AFF2B41013F0AAFC05A9002016F0E3F912
:1040F00007909DF81C0028B105208F4948710120C8
:104100008E49087012F0DCFC10B9FFF73DF878B169
:104110008C48407808B1012D0AD18B48006838B925
:10412000002202210846FEF7ABF90D2083490870F2
:10413000864890F82E00FF2809DA8248407808B1B6
:10414000012D04D18048006808B9FFF72BF8022C34
:1041500002D10E2079490870FCF7F2FC074613F0F3
:104160004DFF16F003FA63E362E3FEF794FE5FE3AC
:104170005EE377480068FDF707FF2846FEF7E3FB9C
:104180006D49887103206D490870002071490870DD
:104190007149087071480021018071480180817067
:1041A0007048006835F076F8002069490860644876
:1041B00001782846FDF745FD3AE3FDF749FFFCF796
:1041C000BFFCF8B12846FEF7BEFB5B4988710320AF
:1041D0005A49087000205F4908705F4908705F48BD
:1041E000002101805E48018081705E48006835F0E2
:1041F00051F8002056490860514801782846FDF7DB
:1042000020FD02E00E204D49087011E3FDF771FF1B
:1042100003204A49087000204E4908704E49087032
:104220004E48002101804E48018081704D48006851
:1042300035F030F8002046490860414801782846AA
:10424000FDF7FFFCF4E2002202210846FEF718F910
:10425000FDF778FF44480088642190FBF1F0C7B275
:104260004148008890FBF1F201FB120000F0FF08CA
:104270003A46012140460BF02DFC06900698012895
:1042800077D133480068FEF7DBFE2F48006860B145
:10429000364801780078401C344B18700223304AAD
:1042A0002B48006813F019F810E0304801780078C6
:1042B000401C2E4B18700023294A2548006813F033
:1042C0000CF82348006880B21AF0F9FB26480088F1
:1042D000642190FBF1F000F0FF0A2348008890FB76
:1042E000F1F201FB120000F0FF0B5246022158468A
:1042F00018F01FFAC7B2FCF723FC04901A48008894
:10430000642190FBF1F201FB120000F0FF08164857
:10431000008890FBF1F000F0FF090D48049A016855
:1043200000238DE8860042464946184615F07EF87F
:104330000B200249087091E0480900101B00001092
:10434000390000108C0700102C000010C40600106B
:1043500034000010190000101A000010170000109F
:1043600014000010940000103000001038000010FD
:10437000FFE7FE48006828B1FDA013F0C5FB02204E
:104380001AF058FBFF4890F82F00012804D0FD4890
:1043900090F82F0003282CD1FB480088642190FB63
:1043A000F1F000F0FF0AF848008890FBF1F201FB01
:1043B0001200C7B252460221384618F0BAF900F08E
:1043C000FF08FCF7BDFB8346EF480088642190FBA3
:1043D000F1F201FB120000F0FF09EC480168002334
:1043E0004A46CDE901B800910121992015F01EF847
:1043F00031E0E5480088642190FBF1F000F0FF0A0D
:10440000E148008890FBF1F201FB120000F0FF0B85
:1044100052460221584618F08CF9C7B2FCF790FBBF
:104420000490D9480088642190FBF1F201FB12004E
:1044300000F0FF08D448008890FBF1F000F0FF097D
:10444000D248049A016800238DE886004246494616
:10445000022014F0EBFF0C20CD4908700020CB495E
:104460000860E5E1FDF7CCFECA48007801283CD1A0
:10447000FCF766FBC0B30320C54908700125284638
:10448000FEF761FAC4498871C148007803283BD11E
:10449000C2480068C2490968884204D2002201214A
:1044A0000846FDF7EDFF0020BE490870BE490870C0
:1044B000BE4800210180BE4801808170BD4800686F
:1044C00034F0E8FE31F064FFBB4801782846FDF780
:1044D000B8FBFCF735FB074615F027FE05A90020C1
:1044E00015F0E9FF07900FE0FFE7FCF729FB40B16B
:1044F000B14801782846FDF7A4FB0D20A4490870B7
:1045000002E00E20A249087092E1FDF7A1FEFCF73F
:1045100017FB68B303209E49087001252846FEF763
:1045200012FA9D4988719A480078032820D19B4847
:1045300000689B490968884204D20022012108468C
:10454000FDF79EFF0020974908709749087097482B
:10455000002101809648018081709648006834F0FF
:1045600099FE31F015FF944801782846FDF769FB64
:104570005EE1FDF796FEFEF717FC06461EB13046DB
:10458000FDF7E6FE01E0FDF7BCFE0E208049087055
:104590004EE1FDF742FFFCF7BFFA002500208749F6
:1045A000087079490880844908707B4908710122A4
:1045B00011461046FDF764FF002081490870FDF7A1
:1045C000D7FF01200EF06CFC7E49086013F02FF934
:1045D0006C4890F89800012802D115F087FC02E0A1
:1045E000012015F06FFC31F0D3FE002068490870FF
:1045F0001EE16948807820B91E2067498870FCF761
:104600002EF96548C07828BB05206349C87012F0B0
:10461000A3FA012011F026FD12F02EFBA8B900200C
:104620005D4900E008E1887031F0B2FE01221146D8
:104630001046FDF725FF642035F06CF814F007FCF8
:10464000FDF796FF002052490870FCF779FA0746FB
:1046500013F0D4FC33F05EF810B113204C4908700D
:10466000FEF78FF90446012C15D112F052FA31F001
:104670008FFE514801782846FDF7E3FAFCF760FA0F
:1046800007460146AFF2587013F0D8F912F0D2FD88
:1046900010203F490870CBE0FEF773F90446012C67
:1046A0000CD1454801782846FDF7CBFAFCF748FACB
:1046B00007460146AFF2887013F0C0F912F000FA15
:1046C00050B12A48006838B9002202210846FDF797
:1046D000D7FE11202E490870022C02D112202C493D
:1046E0000870FCF72DFA074613F088FCA0E0FDF7F0
:1046F000D8FDFEF759FB06461EB13046FDF728FEF1
:1047000001E0FDF7FEFD12202149087090E0FDF761
:1047100084FEFCF701FA00250020284908701A4998
:10472000088031F035FE002201210846FDF7A8FE81
:1047300013F07DF8FDF71CFF0F201549087077E096
:10474000002015F0BFFB0F4890F82F0010B101209A
:1047500012F0B7FC00BFFCF7F3F9074613F04EFC6C
:10476000002008F070FC32F0D5FF2DE02C00001086
:104770000D0A2041707043487568756F4661696C19
:1047800000000000C40600103000001034000010CB
:104790001B0000108C0700104809001024000010B6
:1047A0003C000010190000101A0000101700001043
:1047B00014000010940000103900001038000010A0
:1047C0001C000010400000100028C4D11B49887054
:1047D00031F0DEFD012211461046FDF751FE0020AA
:1047E00017490870FDF7C4FE164890F82F0058B11D
:1047F0000023009301931A4619460520029313F0F3
:104800004DFB002012F05DFC01200EF049FB0E492B
:1048100008600C4890F89800012802D115F066FB5A
:1048200002E0012015F04EFB00200849087000BF8F
:1048300000BF022034F06EFFFFF7F5BA4809001000
:104840001C000010C4060010400000101B000010E7
:10485000F0B585B000260027FAA103C9CDE9010112
:1048600031F096FDF9A031F03FF8B8E00F23EF22C8
:104870000021084632F0EDFC0323EF220021084618
:1048800032F0E7FCF7488078F74951F82030F548D6
:104890000093837800220121082032F03EFBF1488A
:1048A0008178F148143050F82130EE480093837835
:1048B00000220621302032F030FB0E23EE220D21A3
:1048C000012031F09FFDE7488178E7483C3050F8FF
:1048D0002130E4480093837800220D211C2032F01F
:1048E0001CFB7BE0002700240AE0342101EB0411CB
:1048F000C8B20023DDA2092131F0AEFD601CC4B2B4
:10490000082CF2DB69E032F0D1FE0546F5B3432D09
:1049100002D1002005B0F0BD03A885553101343126
:10492000C8B20023D2A2092131F096FD701CC6B294
:10493000082E4FD100260127002408E003A8005DBF
:1049400001A9095D884200D00027601CC4B2082C70
:10495000F4DB012F01D10120DCE70E23EE220D2133
:10496000012031F04FFDBF488178BF48283050F812
:104970002130BC480093837800220D21302032F092
:10498000CCFA4FF4C87034F0C5FE00E022E00E23EC
:10499000EE220D21012031F035FDB2488178B24878
:1049A0003C3050F82130AF480093837800220D212D
:1049B000302032F0B2FA00240AE0342101EB041175
:1049C000C8B20023A9A2092131F046FD601CC4B27F
:1049D000082CF2DB052034F09DFE94E782E745E7E2
:1049E00038B531F0D5FC0F23EF220021084632F014
:1049F00030FC0323EF220021084632F02AFC4CE071
:104A00000E23EE220421012031F0FCFC9548807831
:104A1000984951F82030934800938378002201216F
:104A2000082032F07AFA8F4881789248143050F892
:104A300021308C4800938378002207213C2032F0FB
:104A40006CFA884881788B48283050F821308548A6
:104A50000093837800220B21282032F05EFA8148EF
:104A6000817884483C3050F821307E480093837828
:104A700000220B218C2032F050FA0DE032F016FEAD
:104A80000446432C01D1002038BD452C01D1012022
:104A9000FAE70A2034F03EFEF0E7B1E770B50026F1
:104AA000704890F82200022873D17348406F724911
:104AB000B1F8C010484370498A6FB1F8C21002FBC8
:104AC00001016D48C26FB0F8C40002FB00116A48D2
:104AD000D0F88020B0F8C60002FB00116648D0F87C
:104AE0008420B0F8C80002FB00116348D0F8882089
:104AF000B0F8CA0002FB00115F48D0F88C20B0F873
:104B0000CC0002FB00115C48D0F89020B0F8CE0039
:104B100002FB00115848D0F89420B0F8D00002FBF6
:104B200000115548D0F89820B0F8D20002FB0011CF
:104B30005148D0F89C20B0F8D40002FB00114E4838
:104B4000D0F8A020B0F8D60002FB00114A48D0F8F7
:104B5000A420B0F8D80002FB00114748D0F8A820E4
:104B6000B0F8DA0002FB00114348D0F8AC20B0F8EE
:104B7000DC0002FB00114048D0F8B020B0F8DE00A5
:104B800002FB0015374890F82500022812D10024B6
:104B90000EE018E0394850F8240038B1374850F892
:104BA00024101C3030F8140001FB0055601CC4B206
:104BB000072CEFDB2B48D0F8C000A84201D9012612
:104BC0000FE000260DE0274890F82200012803D1CD
:104BD00012F041F9064604E0224890F8220000B99C
:104BE0000026304670BD70B5044600251D4890F87B
:104BF0002F00022817D1012C0BD112F03AF80546EC
:104C000012F037F80646024629461DA013F026F892
:104C100009E0022C07D1204890F8BC5090F8BC1055
:104C20001EA013F01BF8284670BD0146012902D0D2
:104C3000022949D142E00B4880781F4A52F82000EF
:104C4000704700003833373138353537456E746575
:104C50007253656C66436865636B46756374696F10
:104C60006E0D0A00C4060010B00004005F000000D2
:104C70002A00000000010400100800101C090010A8
:104C80000D0A204170702050434572726F72536359
:104C9000616C653D256400005C0900100D0A20412F
:104CA00070702050434572726F724F66664C696E29
:104CB000653D256400000000740A0400FF48827806
:104CC000FF4850F822007047FC488278FC481430B6
:104CD00050F82200F7E700B58BB000200A900320BF
:104CE000099031F055FB0F23EF220021084632F0E6
:104CF000B0FA0323EF220021084632F0AAFAE5E3D6
:104D00000E23EE220421012031F07CFB03200990C8
:104D10000A980A287ED2DFE800F005D5FEFDFCFBEC
:104D2000FAF9F8F70123E5488178E64850F82120A0
:104D3000E5A1E2488DE80E008078034600220121BB
:104D40000790082032F0E9F8DC4890F823000228A8
:104D50007ED1DF488078A0B1D8488178D948143016
:104D600050F82130D5480093807807900998801C2E
:104D7000C0B209900690002201460520079B32F040
:104D8000CCF8D348C078A0B1CC488178CD48283041
:104D900050F82130C9480093807807900998801C0A
:104DA000C0B209900690002201460520079B32F010
:104DB000B4F8C7480079A0B1C0488178C1483C30F8
:104DC00050F82130BD480093807807900998801CE6
:104DD000C0B209900690002201460520079B32F0E0
:104DE0009CF8BB484079A0B1B4488178B5485030B0
:104DF00050F82130B1480093807807900998801CC2
:104E0000C0B209900690002201460520079B32F0AF
:104E100084F800E0A4E2AE488079A0B1A748817888
:104E2000A848643050F82130A44800938078079057
:104E30000998801CC0B20990069000220146052006
:104E4000079B32F06AF8A248807808B9A04800E0D1
:104E500019E0C078B8B99E480079A0B99C4840795B
:104E600088B99B48807970B994488178994850F8FE
:104E70002130924800938078034600220721079052
:104E8000052032F04AF88D4880788E49283951F84B
:104E90002000069039F098FCC000C0F1E700C0B2D5
:104EA0000790864881788748283850F82130834811
:104EB00000938078034600220D210690079832F077
:104EC0002CF84DE202237D4881787E4850F821205D
:104ED0007DA17A488DE80E008078034600220121EA
:104EE0000790082032F019F8744890F8230002283F
:104EF0007ED17748C079E8B17048817871487830C0
:104F000050F821306D4807E0FEE3FEE3FEE3ABE33B
:104F1000FAE226E26DE191E000938078079009982B
:104F2000801CC0B209900690002201460520079B14
:104F300031F0F3FF6648007AA0B16048817861489B
:104F40008C3050F821305D480093807807900998A4
:104F5000801CC0B209900690002201460520079BE4
:104F600031F0DBFF5A48407AA0B154488178554867
:104F7000A03050F82130514800938078079009986C
:104F8000801CC0B209900690002201460520079BB4
:104F900031F0C3FFFFF782FDA0B14848817849484E
:104FA000B43050F821304548009380780790099834
:104FB000801CC0B209900690002201460520079B84
:104FC00031F0ABFF4248C07990B94148007A78B9D6
:104FD0003F48407A60B9FFF761FD48B937488178AA
:104FE0003C4850F82130354800938078034600E073
:104FF00005E0002207210790052031F08EFF2F48A1
:1050000081783048143850F82100069039F0DCFBE4
:10501000C000C0F1E700C0B2079028488178294855
:10502000143850F821302548009380780346002238
:105030000D210690079831F070FF91E101231F4880
:1050400081782048C83050F821201FA11B488DE8E6
:105050000E0080780346002201210790082031F0DD
:105060005CFF164890F8210002287ED11848807A0B
:10507000A0B1124881781348DC3050F821300F4835
:105080000093807807900998801CC0B20990069020
:10509000002201460520079B31F03FFF0C48C07AF3
:1050A00018B3064881780748F03050F8213003489B
:1050B0000093807807900998801C0DE0C4060010CA
:1050C000880A04001802040025732D2564000000DE
:1050D00050480010B0050400C0B2099006900022AC
:1050E00001460520079B31F018FFF948007B98B175
:1050F000F8488178F84850F82130F64800938078D5
:1051000007900998801CC0B20990069000220146C1
:105110000520079B31F001FFED48407BA0B1ED4831
:105120008178ED48143050F82130EA4800938078B7
:1051300007900998801CC0B2099006900022014691
:105140000520079B31F0E9FEE148807BB0B1E148E2
:105150008178E148283050F82130DE48009380788B
:1051600007900998801CC0B200E025E009900690E5
:10517000002201460520079B31F0CFFED448807AFB
:10518000D0B9D348C07AB8B9D148007BA0B9D048CB
:10519000407B88B9CE48807B70B9CE488178CF48B3
:1051A00050F82130CB480093807803460022072135
:1051B0000790052031F0B1FEC6488178C84850F804
:1051C0002100069039F000FBC000C0F1E700C0B23A
:1051D0000790C0488178C24850F82130BD480093FC
:1051E0008078034600220D210690079831F095FE45
:1051F000B6E00223B7488178B7483C3850F8212000
:10520000AFF23C11B3488DE80E00807803460022CF
:1052100001210790082031F080FEAE4890F821006F
:1052200002287ED1AA48C07BA0B1AA488178AA48AA
:105230003C3050F82130A7480093807807900998B7
:10524000801CC0B209900690002201460520079BF1
:1052500031F063FE9E48007CA0B19E4881789E4854
:10526000503050F821309B4800938078079009987F
:10527000801CC0B209900690002201460520079BC1
:1052800031F04BFE9248407CA0B192488178924820
:10529000643050F821308F48009380780790099847
:1052A000801CC0B209900690002201460520079B91
:1052B00031F033FE8648807CC8B18548C37C827C4F
:1052C000844881788448783050F8211085A08DE892
:1052D0000F008048807807900998801CC0B2099020
:1052E0000690002201460520079B31F016FE784803
:1052F000C07BB0B97648007C98B97548407C80B9CD
:105300007348807C68B973488178744850F82130BC
:1053100070480093807803460022072107900520FB
:1053200000E001E031F0F9FD6A4881786C4850F8FE
:105330002100069039F048FAC000C0F1E700C0B281
:10534000079064488178664850F82130614800939E
:105350008078034600220D210690079831F0DDFD8C
:1053600051E25C4881785C488C3050F821305948D3
:10537000009380780346002201210790082031F035
:10538000CCFD544890F8220001287ED15048007D81
:10539000F8B14F48007D0690FFF747FC079056484C
:1053A000C37D4C4881784C48A03050F8211053A060
:1053B000079A8DE80F004748807806900998801C6E
:1053C000C0B209900590002201460520069B31F0ED
:1053D000A4FD3F48407DF8B13D48407D0690FFF771
:1053E00024FC07904448037E3A4881783A48B43018
:1053F00050F8211041A0079A8DE80F0035488078B9
:1054000006900998801CC0B20990059000220146C0
:105410000520069B31F081FD2D48807DF8B12C4898
:10542000807D0690FFF701FC07903348437E2948B2
:1054300081782948C83050F8211030A0079A8DE8AB
:105440000F002448807806900998801CC0B209900B
:105450000590002201460520069B31F05EFD1C48A8
:10546000007D90B91A48407D78B91948807D60B9AF
:1054700018488178194850F82130164800938078F0
:10548000034600220721079000E002E0052031F0EA
:1054900044FD10488178124850F82100069039F0F8
:1054A00093F9C000C0F1E700C0B2079009488178C5
:1054B0000B4850F8213007480093807803460022BB
:1054C0000D210690079831F028FDB1E3D5E30000E7
:1054D00050480010C40600101C030400B00504006E
:1054E0000402040025735B25233032785D5B25239D
:1054F0003032785D000000002448001025732573C9
:105500005B25233032785D000123FF488178FF4816
:1055100050F82120AFF25041FB488DE80E00807812
:105520000346002201210790082031F0F6FCF648DE
:1055300090F82D0001282FD1F548807EA0B1F248C7
:105540008178F248143050F82130EF480093807889
:1055500007900998801CC0B209900690002201466D
:105560000520079B31F0D9FCE948C07EA0B1E64890
:105570008178E648283050F82130E348009380785D
:1055800007900998801CC0B209900690002201463D
:105590000520079B31F0C1FCDD48007FA0B1DA484F
:1055A0008178DA483C3050F82130D7480093807831
:1055B00007900998801CC0B209900690002201460D
:1055C0000520079B31F0A9FCD148407FA0B1CE480F
:1055D0008178CE48503050F82130CB480093807805
:1055E00007900998801CC0B20990069000220146DD
:1055F0000520079B31F091FCC548807EB8B9C448AE
:10560000C07EA0B9C248007F88B9C148407F70B948
:10561000BD488178BF4850F82130BB48009380785E
:105620000346002207210790052031F076FCB6489A
:105630008178B94850F82100069039F0C5F8C000CB
:10564000C0F1E700C0B20790AF488178B24850F887
:105650002130AD4800938078034600220D2106904A
:10566000079831F05AFCE3E20223A7488178A74863
:1056700050F82120AFF2B051A3488DE80E00807899
:105680000346002201210790082031F046FCA04883
:10569000807FA0B19C4881789C48643050F82130CC
:1056A00099480093807807900998801CC0B20990AF
:1056B0000690002201460520079B31F02EFC9448FD
:1056C000C07FA0B1904881789048783050F8213060
:1056D0008D480093807807900998801CC0B209908B
:1056E0000690002201460520079B31F016FC8848F1
:1056F00090F82000C0B18448817884488C3050F8FC
:1057000021308148009302E011E258E17CE080788A
:1057100007900998801CC0B20990069000220146AB
:105720000520079B31F0F9FB794890F82100A0B1E2
:10573000754881787548A03050F821307248009340
:10574000807807900998801CC0B2099006900022CA
:1057500001460520079B31F0E0FB6D4890F82200E0
:10576000A0B1694881786948B43050F82130664862
:105770000093807807900998801CC0B20990069029
:10578000002201460520079B31F0C7FB6048807F5F
:10579000E8B95F48C07FD0B95D4890F82000B0B943
:1057A0005B4890F8210090B9594890F8220070B9F0
:1057B00055488178574850F82130534800938078F5
:1057C0000346002207210790052031F0A6FB4E4832
:1057D0008178514850F82100069038F0F5FFC0005C
:1057E000C0F1E700C0B20790474881784A4850F8B6
:1057F0002130454800938078034600220D21069011
:10580000079831F08AFB13E203233F4881783F4831
:1058100050F82120AFF250713B488DE80E0080789F
:105820000346002201210790082031F076FB38481A
:1058300090F82300A0B1344881783448C83050F83B
:10584000213031480093807807900998801CC0B2BD
:1058500009900690002201460520079B31F05DFB70
:105860002B4890F82400A0B1274881782748DC30E5
:1058700050F8213024480093807807900998801CC4
:10588000C0B209900690002201460520079B31F026
:1058900044FB1F4890F82500A0B11B4881781D48A3
:1058A000C83850F82130184800938078079009983C
:1058B000801CC0B209900690002201460520079B7B
:1058C00031F02BFB124890F82600A0B10E488178E9
:1058D0001048B43850F821300B4800938078079076
:1058E0000998801CC0B2099006900022014605204C
:1058F000079B31F012FB064890F82700F8B10248E8
:1059000081780448A03809E0C4060010F8030400B8
:1059100050480010B00504000402040050F8213083
:10592000FF480093807807900998801CC0B20990C6
:105930000690002201460520079B31F0EEFAF94857
:1059400090F82300F0B9F74890F82400D0B9F54852
:1059500090F82500B0B9F34890F8260090B9F148C6
:1059600090F8270070B9EE488178EF4850F8213060
:10597000EB4800938078034600220721079005201A
:1059800031F0CBFAE6488178E84850F821000690DB
:1059900038F01AFFC000C0F1E700C0B20790E0483D
:1059A0008178E24850F82130DD4800938078034642
:1059B00000220D210690079831F0AFFA38E1042358
:1059C000D7488178DA4850F82120AFF60411D4483E
:1059D0008DE80E0080780346002201210790082000
:1059E00031F09BFACF4890F82800A0B1CC488178DC
:1059F000CD488C3850F82130C94800938078079002
:105A00000998801CC0B2099006900022014605202A
:105A1000079B31F082FAC34890F82900A0B1C04832
:105A20008178C148783850F82130BD48009380789B
:105A300007900998801CC0B2099006900022014688
:105A40000520079B31F069FAB64890F82A00A0B10A
:105A5000B3488178B448643850F82130B048009396
:105A6000807807900998801CC0B2099006900022A7
:105A700001460520079B31F050FAAA4890F82B0008
:105A8000A0B1A7488178A848503850F82130A448E0
:105A90000093807807900998801CC0B20990069006
:105AA000002201460520079B31F037FA9D4890F807
:105AB0002800F8B99B4890F82900D8B9994890F87F
:105AC0002A00B8B9974890F82B0098B99448817883
:105AD000954850F8213092480093807807900998B3
