:020000040000FA
:1000000000800010CD000000F1B10300F1B1030049
:10001000F1B10300F1B10300F1B10300F1B103004C
:10002000F1B10300F1B10300F1B10300850200005A
:10003000F1B1030000000000ED020000518F030049
:10004000F1B10300538703002987030017870300DA
:10005000058703009562030065640300455F0300A4
:1000600065660300F1B1030069690300F1B10300A3
:10007000F1B10300F1B10300F1B10300F1B10300EC
:10008000F1B10300F1B10300F1B10300F1B10300DC
:10009000F7800300F1B10300F1B10300F1B10300F7
:1000A000F1B10300F1B10300F1B10300F1B10300BC
:1000B000F1B10300F1B10300F1B10300F1B10300AC
:1000C000F1B10300F1B10300F1B1030000F002F857
:1000D00000F0C8F80AA090E8000C82448344AAF11A
:1000E0000107DA4501D100F0BDF8AFF2090EBAE818
:1000F0000F0013F0010F18BFFB1A43F0010318475C
:100100000C2C05004C2C050010F8013B0A4413F0A0
:10011000030408BF10F8014B1D1108BF10F8015B64
:10012000641E05D010F8016B641E01F8016BF9D153
:10013000002D15D010F8014B03F00C030C2BA1EB94
:1001400004040ABF10F8013BA4EB8314A4EB0324BE
:1001500005F1010314F8016B5B1E01F8016BF9D581
:10016000914238BF10F8013BD1D37047103A24BFF9
:1001700078C878C1FAD8520724BF30C830C144BF0C
:1001800004680C607047000000230024002500264E
:10019000103A28BF78C1FBD8520728BF30C148BFEA
:1001A0000B6070476E293FF0B38370293EF09A8749
:1001B000662900F02AA5652900F027A5672900F027
:1001C00024A56129AFF3008003681B0A28BF41F012
:1001D000800169293EF00A8764293EF00787752966
:1001E0003EF004876F293FF0A58478293EF06687AA
:1001F000E9293FF03D84E4293FF03A84F5293FF0B6
:100200003784EF293FF0A284F8293EF06587036820
:10021000DB0928BF41F0800163293FF0BE837329C9
:100220003FF0C383E3293FF01687F3293FF01B8794
:10023000002070471FB540F0E1FC9DE803003FF04F
:10024000C5FA3FF08FFF04000020002140F0BCFC05
:10025000401C60600020002140F0A0FCE0601FBD59
:1002600010B510BD3FF050FF1146FFF7E3FF00F05F
:100270002CF940F031F803B4FFF7F2FF03BC3BF078
:10028000F8FB0000052828BF70474FEA800078443B
:10029000D0F802F0ED020000B302000051030000AC
:1002A00071030000910300004FF0010080F31488F7
:1002B00000DF0A4C4FF00105257077463EF0A2FDA5
:1002C000BE46074E3668074C2660D6F800D001BC03
:1002D00005490860BDE8F00F704700BF7F060010B9
:1002E0009006001088060010540600104FF0080217
:1002F00082F3118800B53EF085FD5DF804EB2DE931
:10030000F00F0E49086801B40D4A1268C2F800D017
:100310000C4C0D4D2E7826700C4E3668084C26601D
:10032000D6F800D001BC086000280CBF00220822CB
:1003300082F31188BDE8F00F704700BF540600102B
:100340008806001074060010750600109006001054
:100350000649086800F101004FF0080282F3118895
:10036000002808BF70470860704700BF540600109F
:100370000649086800281CBF01380860002818BF1B
:1003800070474FF0000282F3118870475406001046
:100390004FF0000080F3148870474FF0010080F3A5
:1003A0001488704788476FF0FF003AF06AF9000040
:1003B0001CB5544890F82B200121182037F014FD6B
:1003C0000C230222CDE900234FA30E21282037F071
:1003D000E4FB1CBD08B500BF37F0C7FE35F0A8FF31
:1003E00036F08EF835F049FE36F08AF938F00CFB1D
:1003F00036F077FD4849002038F080FA36F042FAAE
:1004000038F080FB37F0B1FE00200EF0A4FA002097
:100410000EF07DF8FFF7CCFF36F072F80DF04CF8D7
:1004200006233E4A00213E483AF08AF8022039F07D
:1004300021FF3EF0E1FB16F02FFC022039F01AFFFD
:1004400016F052FA022039F015FF1EF0D2FB1EF012
:1004500077FC022039F00EFF1CF089FA6A46002171
:10046000304800683AF05AFB0FF046F817F008FCE5
:1004700084212D483FF06AF8022039F0FBFE092361
:100480002A4A00212A483AF05BF8022039F0F2FEAD
:100490001AF016FA022039F0EDFE0823254A002151
:1004A00025483AF04DF8022039F0E4FE19F0E0FC5E
:1004B000C82039F0DFFE07E0002003F0C6FC02E0B0
:1004C000322039F0D7FEFBE7F6E700B585B03AF009
:1004D00094FE3AF051FE38F08EFE012300221902FC
:1004E0001648CDE90323CDE901010723144A002171
:1004F000AFF21F1000933AF06BF838F03FFF002086
:1005000005B000BDCC06001076657273696F6E256C
:10051000642E25303264000080A90300C032001030
:10052000114702007C000010340A0010C046001081
:1005300025550300C0420010C59A0200C40A0010ED
:10054000C02A0010F8B505460E4614461F460A217B
:10055000002037F0FFFB022301220B21002037F09F
:10056000C7FBFF480095837800220B21282037F035
:1005700068FAFB488078012807D0F948009683780C
:1005800000220D21282037F05CFA20463EF0CCFEF8
:10059000C8B1022301220B21702037F0A9FBF048DB
:1005A0000094837800220B21982037F04AFAEC4817
:1005B0008078012807D0EA480097837800220D212F
:1005C000982037F03EFAF8BD10B501220A2100202C
:1005D00037F06CF903220B21002037F067F910BDCA
:1005E00030B58BB0202103A83EF0B0FFDD4836F0D7
:1005F00068F9022039F03EFEDB480078F0B3D948B4
:1006000036F05FF9022039F035FE02230422012181
:10061000002037F06DFBD548D0F8AC1003A83EF0B1
:100620005FFE03AB02220121282037F0B6FACF4843
:10063000D0F8B41003A83EF053FE03AB012203210F
:10064000282037F0AAFAC6488078C0EBC00202EB37
:100650000010C64A02EB8000816D03A83EF040FE08
:1006600003ABBF480093837800220521282037F090
:10067000E8F9BB4890F8BC00012800E074E019D10B
:10068000BB4880890A2190FBF1F201FB1204B848B3
:10069000808990FBF1F523462A46B6A103A83EF0D7
:1006A00021FC03ABAE480093837800220721282069
:1006B00037F0C7F90A21002037F04CFBAF48C0885B
:1006C000A849C98888420BD1AC484079A5494979E5
:1006D000884205D1A948C078A249C978884222D069
:1006E000A048C288A6A103A83EF0FCFB03AB0222EF
:1006F0000B21282037F051FA9A48C3784279A2A1F9
:1007000003A83EF0EFFB03AB02220D21282037F0B7
:1007100044FA9448C0889949C88092484079487101
:100720009048C078C870954880788E49897888420A
:1007300005D1924840788B494978884213D089483E
:100740004378827893A103A83EF0CCFB03AB03224D
:100750000B21602037F021FA824880788749887021
:1007600080484078487078E07D48807800EB8000D1
:100770008B4A02EBC000816903A83EF0B1FD03ABD8
:1007800077480093837800220221482037F059F9F6
:10079000734890F8BC00012819D1754880890A2156
:1007A00090FBF1F201FB12047148808990FBF1F596
:1007B00023462A466FA103A83EF094FB03AB68488A
:1007C0000093837800220521AA2037F03AF96B487C
:1007D000C0886449C98888420BD16848407961491A
:1007E0004979884205D16548C0785E49C978884210
:1007F00015D05C48C3784279C1888DE80E0069A3A2
:1008000002220621502037F0C8F95648C0885B49BB
:10081000C8805448407948715248C078C8705748D9
:10082000807850498978884205D1544840784D49AC
:100830004978884211D04B4843788278CDE900232B
:1008400054A3042208213C2037F0A7F945488078BA
:100850004A4988704348407848700BB030BD30B585
:1008600089B0202101A83EF071FE3E4836F029F8FB
:10087000022039F0FFFC022303220121002037F07F
:1008800037FA37488078C0EBC00202EB0010374AD5
:1008900002EB8000C16C01A83EF022FD01AB3048A4
:1008A0000093837800220121282037F0CAF82C48D1
:1008B0008078C0EBC00202EB00102C4A52F82010E6
:1008C00001A83EF00DFD01AB25480093837800227E
:1008D0000321282037F0B5F8214890F8BC00012802
:1008E00019D1234880890A2190FBF1F201FB1204FF
:1008F0001F48808990FBF1F523462A461DA101A8D7
:100900003EF0F0FA01AB16480093837800220521EF
:10091000282037F096F80A21002037F01BFA1748F4
:10092000C0881049C98888420BD1144840790D49C4
:100930004979884205D11148C0780A49C978884266
:100940004ED00848C2880EA101A83EF0CBFA01ABF8
:1009500002220B21282037F020F90248C37829E031
:10096000CC060010000000101C000010DC0100107C
:10097000D850001025642E25642092000800001035
:100980002530346400000000253032642D253032DB
:1009900064000000253032643A25303264000000E3
:1009A00014010010253034642D253032642D25309B
:1009B000326400004279AFF2300101A83EF092FAB1
:1009C00001AB02220D21282037F0E7F8FF48C0884C
:1009D000FF49C880FD4840794871FC48C078C8701C
:1009E000FB488078F9498978884205D1F8484078F1
:1009F000F6494978884214D0F44843788278AFF2B7
:100A00006C0101A83EF06EFA01AB03220B216020BD
:100A100037F0C3F8ED488078ED498870EB484078AE
:100A2000487009B030BD10B50246012904D0E94B29
:100A300093F89930012B2CD11378412B0BD153789B
:100A4000303B03EB8303642404EB43049378303B93
:100A5000234498B228E01378422B0BD15378303BD3
:100A600003EB8303C82404EB43049378303B234413
:100A700098B219E01378303B642463435478303CD7
:100A800004EB840403EB44049378303B234498B292
:100A90000AE01378303B03EB8303642404EB430444
:100AA0005378303B234498B210BD30B502460B78E2
:100AB000303B4FF47A7463434C78303C04EBC4050C
:100AC00005EB041403EB84041378303B03EB83033E
:100AD00004EB43045378303B234498B230BD0EB549
:100AE00036F0EAF9B948C3784279C1888DE80E003A
:100AF000AFF2501302221146502037F04EF8B3489F
:100B000043788278CDE90023AFF2781304221146AE
:100B10003C2037F042F80EBD10B50020AE490870F9
:100B2000AE490870AE4800210180AE480180817056
:100B30000020AD498870AD48006839F05BF910BD00
:100B4000AB480068AB4909680844AB4909680844E8
:100B5000AA490968084470472DE9F04F95B0064648
:100B6000884620210DA83EF0F1FC202105A83EF08A
:100B7000EDFC4FF000090020049000240025002720
:100B800098F8000002281DD13078432802D0307830
:100B9000452817D100209049087092480021018013
:100BA0008170FFF7CDFF18B103209549087006E06A
:100BB000FFF7B2FFFFF708FD00209149087015B05C
:100BC000BDE8F08F98F8000002286FD13178824894
:100BD00002780078401C804B1870824881547D4810
:100BE000807800EB8000874A52F830100DA83EF064
:100BF00077FB784890F83100012813D179480078C4
:100C00002E2803D141207749087006E07548007806
:100C1000442802D142207349087072490DA83EF061
:100C2000E8FB03E06F490DA83EF0E3FB7548816ADD
:100C300005A83EF055FB6B4905A83EF0DAFBAFF284
:100C4000BC23AFF2C02205A90DA8FFF77BFC6148C9
:100C500090F83100012804D05E4890F899000128EE
:100C600077D15D48007803281FDB5A4890F831009F
:100C7000E8B95C4800782E2813D05A4800784428F8
:100C80000FD0584840782E280BD05648407844283A
:100C900007D0544880782E2803D0524880784428C2
:100CA00005D14FF00509012004904BE257E14D4872
:100CB00040782E280BD04B484078442807D049482C
:100CC00080782E2803D047488078442804D14FF0FC
:100CD00005090120049035E23E4890F83110414862
:100CE000FFF7A1FE0446642094FBF0F000F0FF0A39
:100CF000642094FBF0F100FB114000F0FF0B514623
:100D000058461BF02CFF00F0FF09324890F82F00E6
:100D1000022827D1642094FBF0F000F0FF0A642041
:100D200094FBF0F100FB114000F0FF0B52465946D6
:100D3000012018F030FD00202749087029480021C3
:100D400001808170FFF7FCFE20B103202C49087060
:100D500007E064E0FFF7E0FEFFF736FC00202849DB
:100D600008702CE71B4890F82F00042854D1642009
:100D700094FBF0F100FB114000F0FF0A642094FBAB
:100D8000F0F000F0FF0B514658461CF0CDFC074632
:100D90006FB1642094FBF0F000F0FF0A3946504632
:100DA0001CF052FE012802D0384619F036F8002017
:100DB000094908700B48002101808170FFF7C0FECF
:100DC00018B103200E49087025E01DE00000001056
:100DD00008000010CC060010190000101A000010C6
:100DE00017000010140000105009001094000010AB
:100DF0002000001024000010280000102C0000101B
:100E00001B00001014010010FFF786FEFFF7DCFB4B
:100E10000020FD490870D2E60120049092E1FB48D1
:100E20000078022813DBFA4800782E280BD0F84807
:100E30000078442807D0F64840782E2803D0F4489C
:100E40004078442804D14FF005090120049079E14D
:100E5000F04890F83110EE48FFF7E5FD04466420B5
:100E600094FBF0F000F0FF0A642094FBF0F100FB2B
:100E7000114000F0FF0B514658461BF070FE00F089
:100E8000FF092146E4A017F0C7F8E24890F82F00C8
:100E9000022826D1642094FBF0F000F0FF0A6420C1
:100EA00094FBF0F100FB114000F0FF0B5246594655
:100EB000012018F070FC0020D4490870D4480021AB
:100EC00001808170FFF73CFE18B10320CE49087005
:100ED00006E0FFF721FEFFF777FB0020CA49087004
:100EE0006DE6CC4890F82F00042835D1642094FB9F
:100EF000F0F100FB114000F0FF0A642094FBF0F0D9
:100F000000F0FF0B514658461CF00EFC07466FB12F
:100F1000642094FBF0F000F0FF0A394650461CF0C4
:100F200093FD012802D0384618F077FF0020B7491A
:100F30000870B748002101808170FFF701FE18B1E9
:100F40000320B149087006E0FFF7E6FDFFF73CFB20
:100F50000020AD49087032E601200490F2E098F8D4
:100F6000000001280AD13278012108461BF01FFD3C
:100F7000044624B94FF0020901200490E2E0A3489E
:100F80000078002804DD4FF0050901200490D9E025
:100F9000A04890F83100012823D141219B480278D4
:100FA0000078401C994B1870994881540A2094FB92
:100FB000F0F03030C2B2184601780078401C18704A
:100FC000934842540A2094FBF0F100FB114030306A
:100FD000C1B2184602780078401C18708C488154C1
:100FE0001AE00A2094FBF0F03030C1B28748027852
:100FF0000078401C854B1870854881540A2094FB6A
:10100000F0F100FB11403030C2B218460178007890
:10101000401C18707E4842547E48807800EB800067
:10102000834A52F830100DA83EF05AF978490DA8BD
:101030003EF0DFF97E48816A05A83EF051F9744917
:1010400005A83EF0D6F9AFF2C463AFF2C86205A9B5
:101050000DA8FFF777FA6F4890F831106C48FFF74A
:10106000E2FC0446642094FBF0F000F0FF0A6420E8
:1010700094FBF0F100FB114000F0FF0B5146584685
:101080001BF06DFD00F0FF09624890F82F00022868
:1010900026D1642094FBF0F000F0FF0A642094FB5A
:1010A000F0F100FB114000F0FF0B524659460120C1
:1010B00018F071FB00205549087055480021018047
:1010C0008170FFF73DFD18B103204F49087006E01D
:1010D000FFF722FDFFF778FA00204B4908706EE514
:1010E0004C4890F82F0004282AD1642094FBF0F19A
:1010F00000FB114000F0FF0A642094FBF0F000F0C8
:10110000FF0B514658461CF00FFB074617B13846F7
:1011100018F083FE00203D4908703D480021018001
:101120008170FFF70DFD18B103203749087006E004
:10113000FFF7F2FCFFF748FA0020334908703EE55C
:1011400001200490049878B3B9F1060F34D2DFE897
:1011500009F0A97A0334047900BF2E48807800EBA7
:101160008000334A02EBC00041690DA83EF0B8F898
:101170002F48C16B05A83EF0B3F8AFF2F873AFF299
:10118000FC7205A90DA8FFF7DDF94FF4C87039F01E
:1011900071F8FFF7D5FC40B11D4800210180817036
:1011A00003201949087007E04BE1FFF7B5FCFFF792
:1011B0000BFA0020144908703FE11648807800EBD4
:1011C00080001B4A02EBC00001690DA83EF088F8C0
:1011D0001748816B05A83EF083F8AFF65803AFF6C9
:1011E0005C0205A90DA8FFF7ADF94FF4C87039F0FE
:1011F00041F8FFF7A5FCE8B10548002101808170A6
:101200000320014908701CE01B00001019000010A9
:1012100014000010CC0600100D0A204150505562F9
:101220006F7842746E636C6F756D6E3D256400005F
:1012300014010010FFF770FCFFF7C6F90020FB490E
:101240000870FAE000BFFA48807800EB8000F94AA5
:1012500002EBC00041680DA83EF042F8F548C16AB3
:1012600005A83EF03DF8AFF6E403AFF6E80205A9A5
:101270000DA8FFF767F94FF4C87038F0FBFFFFF7D0
:101280005FFC38B1EC480021018081700320E74900
:10129000087006E0FFF740FCFFF796F90020E349ED
:1012A0000870CAE0642094FBF0F000F0FF0A6420AC
:1012B00094FBF0F100FB114000F0FF0B52460121BE
:1012C00058461BF054FCDD49086008460568D848BC
:1012D00090F82700A8B3012834D0022830D1642028
:1012E000B5FBF0F100FB115AB5FBF0FBD04880785C
:1012F00000EB8000CF4901EBC000C168CC48CDE9CC
:1013000001BA0091807800EB8000CA4901EBC0006F
:10131000C94BCBA1C2690DA83DF0E4FD6420B5FB2B
:10132000F0F100FB115AB5FBF0FBC248416BCDE96F
:1013300001BA0091C04BC2A1426C05A83DF0D2FD9C
:101340005BE033E00A20B5FBF0F5B5FBF0F100FB04
:10135000115AB5FBF0FBB648807800EB8000B54928
:1013600001EBC000C168B248CDE901BA00918078B4
:1013700000EB8000AF4901EBC000AF4BB5A1C269E3
:101380000DA83DF0AFFD0A20B5FBF0F100FB115AAE
:10139000B5FBF0FBA748416BCDE901BA0091A64B24
:1013A000ACA1426C05A83DF09DFD26E06420B5FB94
:1013B000F0FA9F48807800EB80009E4901EBC00066
:1013C000C2689B48CDE9002A807800EB800001EBE1
:1013D000C000994BA3A1C2690DA83DF083FD642014
:1013E000B5FBF0FA9348426BCDE9002A924B9DA1E0
:1013F000426C05A83DF076FD00BF00BFAFF67C2330
:10140000AFF6802205A90DA8FFF79CF8C82038F098
:1014100031FFFFF795FB28B19548048005208349EB
:10142000087009E0C82038F025FFFFF775FBFFF7CB
:10143000CBF800207D49087000BF00BF00208D4917
:10144000087000BF8DE42DE9F04F93B006462021CF
:101450000BA83EF07BF8202103A83EF077F8002788
:10146000B846B94600240025307843281BD1002017
:1014700080490870804908706F48002101808170A0
:101480007E480180FFF75CFB18B1032067490870B4
:1014900006E0FFF741FBFFF797F80020634908706B
:1014A00013B0BDE8F08F74480078F0BB3078452861
:1014B00029D032786F4801780078401C6D4B187045
:1014C0006E4842545A48807800EB80006C4A02EB28
:1014D0000010816C0BA83DF003FF68490BA83DF09C
:1014E00088FF6748D0F8981003A83DF0F9FE6349DB
:1014F00003A83DF07EFFAFF67433AFF6783203A950
:101500000BA8FFF71FF85B480078022857DB5B4801
:101510000078302839DB59480078392835DC5748BD
:101520004078302831DB554800E0C9E04078392860
:101530002BDC01205049087000204E4908703E48BD
:101540000021018081704D490BA83DF0C9FE38484B
:10155000807800EB80004A4A02EB0010C16C0BA8B7
:101560003DF047FF454903A83DF0BAFE4448D0F896
:101570009C1003A83DF03DFFAFF6F833AFF6FC3208
:1015800003A90BA8FEF7DEFFD2E10020394908705D
:10159000394908702848002101808170374801804E
:1015A000FFF7CEFA18B103202049087006E0FFF7D4
:1015B000B3FAFFF709F800201C49087070E730788B
:1015C000452832D12D48007830285FDB2B48007841
:1015D00039285BDC29480078284948703020087099
:1015E0000120254908700020224908701248002176
:1015F000018081700E48807800EB8000204901EB6B
:1016000000101E4A1FA1C36C0BA83DF06BFC1C48C8
:101610001A4A1CA1D0F89C3003A83DF063FC1AA321
:1016200019A203A90BA8FEF78DFF81E11B00001092
:10163000CC0600101401001014000010340000103B
:1016400025732025732C2573253032642E253032E6
:101650006400000025732025732C257325642E2536
:101660006400000025732025732C25732564000079
:1016700030000010190000101A00001017000010B0
:10168000A803001025732573000000000020FC490A
:101690000870FC490870FC48002101808170FB48FB
:1016A0000180FFF74DFA18B10320F949087006E0F0
:1016B000FFF732FAFEF788FF0020F5490870EFE6E1
:1016C000F048007801287ED13078452835D031782F
:1016D000EB4802780078401CE94B1870EA488154C6
:1016E000EA4840783038E9490978303901EB81011E
:1016F00000EB410000F0FF09E34BE64800938078DF
:1017000000EB8000E44901EB00104A46E3A1C36C02
:101710000BA83DF0E7FBDC4BDF4800934A46DFA116
:10172000D0F89C3003A83DF0DDFBAFF2A403AFF28C
:10173000A80203A90BA8FEF705FFD14800780228EC
:1017400075DBD1480078302856DBCF48007839283F
:1017500052DCCD48407830284EDBCB4840783928E1
:101760004ADCCA49C848FFF7A0F90446642094FB44
:10177000F0F000F0FF0A642094FBF0F100FB114050
:1017800000F0FF0B514658461BF0E9F9C7B2C148BB
:1017900090F82F0002282CD1642094FBF0F000F088
:1017A000FF0A642094FBF0F100FB114000F0FF0BF6
:1017B00052465946012017F0EEFF0020B04908704C
:1017C000B049087000E08BE0AF48002101808170D3
:1017D000AE480180FFF7B4F918B10320AC49087096
:1017E00006E0FFF799F9FEF7EFFE0020A849087020
:1017F00056E64FF001089BE00020A1490870A1497E
:101800000870A148002101808170A0480180FFF785
:1018100097F918B103209E49087006E0FFF77CF99C
:10182000FEF7D2FE00209A49087039E6FFE73078CB
:1018300045287DD194480078302852DB92480078C2
:1018400039284EDC904800788F4948703020087065
:101850008E498D48FFF729F90446642094FBF0F087
:1018600000F0FF0A642094FBF0F100FB114000F04F
:10187000FF0B514658461BF072F9C7B2854890F8E5
:101880002F0002282AD1642094FBF0F000F0FF0A18
:10189000642094FBF0F100FB114000F0FF0B524676
:1018A0005946012017F077FF0020754908707549E7
:1018B0000870754800210180817074480180FFF72D
:1018C0003FF918B103207249087006E0FFF724F9C8
:1018D000FEF77AFE00206E490870E1E54FF001083E
:1018E00026E0002066490870674800210180817069
:1018F0006848807800EB8000674901EB0010634A7C
:10190000AFF28021C36C0BA83DF0ECFA62485F4A4D
:10191000AFF29021D0F89C3003A83DF0E3FAAFF28B
:101920009823AFF29C2203A90BA8FEF70BFEB7E5A4
:10193000B8F1000F73D0062F3AD2DFE807F0BD727E
:10194000033A047100BF5348807800EB8000554A89
:1019500002EBC00041690BA83DF0C2FC5148C16BCD
:1019600003A83DF0BDFCAFF2E023AFF2E42203A9EF
:101970000BA8FEF7E7FD4FF4C87038F07BFCFFF7CB
:10198000DFF870B100203E4908703E4908703F48BA
:10199000002101803C480180817003203C4908708F
:1019A00006E0FFF7B9F8FEF70FFE0020384908708F
:1019B00053E13848807800EB80003A4A02EBC000DF
:1019C00001690BA83DF08CFC3648816B03A83DF003
:1019D00087FCAFF24C33AFF2503203A90BA8FEF7ED
:1019E000B1FD4FF4C87038F045FCFFF7A9F870B1AD
:1019F00000202349087023490870244800210180F1
:101A000021480180817003202149087006E0FFF71A
:101A100083F8FEF7D9FD00201D4908701DE122E181
:101A200000BF1C48807800EB80001E4A02EBC0001B
:101A300041680BA83DF054FC1A48C16A03A83DF068
:101A40004FFCAFF2BC33AFF2C03203A90BA8FEF7D4
:101A500079FD4FF4C87038F00DFCFFF771F870B1E4
:101A600000200749087007490870084800210180D4
:101A70000548018081700320054908701BE013E0D0
:101A8000190000101A0000101400001017000010B8
:101A90001B000010CC060010A8030010256425735D
:101AA0002573000014010010FFF736F8FEF78CFDD7
:101AB0000020FD490870D0E0642094FBF0F000F0B5
:101AC000FF0A642094FBF0F100FB114000F0FF0BD3
:101AD0005246012158461BF04AF8F449086008466E
:101AE0000568F34890F82700B8B3012836D00228DB
:101AF00032D16420B5FBF0F100FB115AB5FBF0FBCD
:101B0000EB48807800EB8000EA4901EBC000C16837
:101B1000E748CDE901BA0091807800EB8000E54903
:101B200001EBC000E44BAFF2E841C2690BA83DF005
:101B3000D9F96420B5FBF0F100FB115AB5FBF0FBBD
:101B4000DC48416BCDE901BA0091DB4BAFF210519B
:101B5000426C03A83DF0C6F95FE035E00A20B5FB12
:101B6000F0F5B5FBF0F100FB115AB5FBF0FBD048E6
:101B7000807800EB8000CF4901EBC000C168CC4801
:101B8000CDE901BA0091807800EB8000C94901EBF2
:101B9000C000C94BAFF24451C2690BA83DF0A2F995
:101BA0000A20B5FBF0F100FB115AB5FBF0FBC14870
:101BB000416BCDE901BA0091BF4BAFF26851426C65
:101BC00003A83DF08FF928E06420B5FBF0FAB8488F
:101BD000807800EB8000B74901EBC000C268B448D0
:101BE000CDE9002A807800EB800001EBC000B24B09
:101BF000AFF29051C2690BA83DF074F96420B5FBB7
:101C0000F0FAAC48426BCDE9002AAB4BAFF2AC51D5
:101C1000426C03A83DF066F900BF00BFAFF29853D5
:101C2000AFF29C5203A90BA8FEF78CFCC82038F039
:101C300021FBFEF785FF28B1A048048005209A49C2
:101C4000087009E0C82038F015FBFEF765FFFEF7C5
:101C5000BBFC00209449087000BF00BF00209849D9
:101C600008709849087000BF1AE42DE9F041A4B04B
:101C700006460D4620211CA83DF068FC202114A832
:101C80003DF064FC20210CA83DF060FC202104A85C
:101C90003DF05CFC022038F0EDFAFEF751FF0446FF
:101CA000EEBB83488078012814D08748036D8048B4
:101CB000807800EB8000844901EB001083A102686A
:101CC0007B488DE80E008378002202214C2035F0FD
:101CD000B8FE0CE07C48AFF23822036D7448CDE9C1
:101CE0000023837800220221602035F0AAFE04221E
:101CF0001146002035F0DAFD6D48807828B90223BE
:101D0000002205212C2035F0F3FF694890F82700C8
:101D100048B3012814D0022831D1642000E05CE0EF
:101D2000B4FBF0F100FB1147B4FBF0F8AFF2E8634D
:101D3000042211464C20CDE9008735F02EFF1EE02D
:101D40000A20B4FBF0F4B4FBF0F100FB1147B4FB44
:101D5000F0F8AFF2F863042211464C20CDE9008779
:101D600035F01BFF0BE06420B4FBF0F7AFF2047317
:101D7000042211464C20009735F00FFF00BF00BF32
:101D8000012D11D14A48807800EB80004E4A02EBC9
:101D90000010816C1CA83DF0A3FA4B48D0F89810B5
:101DA00014A83DF09DFA0FE04148807800EB8000D8
:101DB000454A02EB001001691CA83DF091FA424827
:101DC000016E14A83DF08CFAAFF24473AFF2487282
:101DD00014A91CA8FEF7B6FBC3E03548807801289B
:101DE00014D03948436D3248807800EB8000364982
:101DF00001EB001035A142682D488DE80E00837874
:101E0000002202214C2035F01CFE12E02848807888
:101E100000EB80002C4901EB0010AFF27C324368EC
:101E20002348CDE90023837800220221602035F089
:101E300008FE04221146002035F038FD1C48807849
:101E400028B90223002205212C2035F051FF184823
:101E500090F8270038B3012812D0022846D1642018
:101E6000B4FBF0F100FB1147B4FBF0F8AFF6280328
:101E7000042211464C20CDE9008735F08EFE35E076
:101E80000A20B4FBF0F4B4FBF0F100FB1147B4FB03
:101E9000F0F8AFF63803042211464C20CDE9008754
:101EA00035F07BFE22E015E01B000010340000102E
:101EB000CC060010140100101400001030000010B7
:101EC000190000101A000010A803001025732F2518
:101ED000730000006420B4FBF0F7AFF67003042237
:101EE00011464C20009735F058FE00BF00BF012D71
:101EF00011D1FF48807800EB8000FE4A02EB001011
:101F0000816C1CA83DF0ECF9FA48D0F8981014A8A0
:101F10003DF0E6F91FE0F648807800EB8000F54AD6
:101F200002EB001041691CA83DF0DAF9F148416E5E
:101F300014A83DF0D5F9EE48807800EB8000ED4A1A
:101F400002EB001081690CA83DF0CAF9E948816EE6
:101F500004A83DF0C5F904AB0CAA14A91CA8FEF70F
:101F6000F1FA24B0BDE8F08100B591B0202109A8B4
:101F70003DF0ECFA202101A83DF0E8FADC48807839
:101F800000EB8000DB4A02EB0010816809A83DF0FD
:101F9000A7F9D848816D01A83DF0A2F9AFF6181352
:101FA000AFF61C1201A909A8FEF7CCFA11B000BDCA
:101FB00070B598B00446202110A83DF0C7FA202142
:101FC00008A83DF0C3FA202168463DF0BFFAC84892
:101FD000807800EB8000C74A02EB0010C1686846B9
:101FE0003DF07EF9C348C16D08A83DF079F9C048BD
:101FF00090F8270018B3012810D0022829D16420B6
:10200000B4FBF0F100FB1145B4FBF0F62B46324671
:10201000AFF6CC1110A83CF065FF1AE00A20B4FB23
:10202000F0F4B4FBF0F100FB1145B4FBF0F62B46E5
:102030003246AFF6D81110A83CF054FF09E06420F6
:10204000B4FBF0F52A46AFF6DC1110A83CF04AFFCD
:1020500000BF00BF10A968463DF0CBF9AFF6D8131A
:10206000AFF6DC1208A96846FEF76CFA4FF4C870A8
:1020700038F000F918B070BD00B591B0202109A862
:102080003DF064FA202101A83DF060FA984880787C
:1020900000EB8000974A02EB0010816B09A83DF02D
:1020A0001FF99448D0F8881001A83DF019F9AFF64F
:1020B0002823AFF62C2201A909A8FEF743FA4FF412
:1020C000C87038F0D7F811B000BD00B591B020212C
:1020D00009A83DF03BFA202101A83DF037FA8448D9
:1020E000807800EB8000834A02EB0010C16B09A8E6
:1020F0003DF0F6F87F48D0F88C1001A83DF0F0F8DC
:10210000AFF67C23AFF6802201A909A8FEF71AFAE0
:10211000142038F0AFF811B000BD00B591B0202107
:1021200009A83DF013FA202101A83DF00FFA7048EC
:10213000807800EB80006F4A02EB0010016C09A868
:102140003DF0CEF86B48D0F8901001A83DF0C8F8EB
:10215000AFF6CC23AFF6D02201A909A8FEF7F2F919
:102160004FF4C87038F086F811B000BD10B590B0CB
:10217000202108A83DF0EAF9202168463DF0E6F963
:102180005D480088642190FBF1F201FB120458487D
:10219000807800EB8000574901EB0010224657A1E0
:1021A000C36A08A83CF09EFE53480088642190FB57
:1021B000F1F201FB12044F48224650A1C36F68465A
:1021C0003CF090FEAFF64033AFF64432694608A8C3
:1021D000FEF7B8F910B010BD00B591B0202109A8E4
:1021E0003DF0B4F9202101A83DF0B0F940488078D5
:1021F00000EB80003F4901EB0010AFF25C71C26A56
:1022000009A83CF06FFE3B48AFF26C71C26F01A8A9
:102210003CF068FEAFF69033AFF6943201A909A8FE
:10222000FEF790F911B000BD00B591B0202109A8CA
:102230003DF08CF9202101A83DF088F92C488078E8
:1022400000EB80002B4A02EB0010016B09A83DF067
:1022500047F82848D0F8801001A83DF041F8AFF6C3
:10226000D833AFF6DC3201A909A8FEF76BF9642078
:1022700038F000F811B000BD00B591B0202109A8D8
:102280003DF064F9202101A83DF060F918488078FC
:1022900000EB8000174A02EB0010416B09A83DF0EB
:1022A0001FF81448D0F8841001A83DF019F8AFF6D3
:1022B0002843AFF62C4201A909A8FEF743F94FF4D1
:1022C000C87037F0D7FF11B000BD00B591B0202124
:1022D00009A83DF03BF9202101A83DF037F9044859
:1022E000807800EB8000074A52F8201009A80BE024
:1022F000CC060010A8030010300000102564202533
:1023000073000000380500103CF0EAFFFF48416907
:1023100001A83CF0E5FFAFF69043AFF6944201A967
:1023200009A8FEF70FF911B000BD00B591B020214A
:1023300009A83DF00BF9202101A83DF007F9F44868
:10234000807800EB8000F14A02EB8000816809A8E8
:102350003CF0C6FFED48C16901A83CF0C1FFAFF6F3
:10236000D843AFF6DC4201A909A8FEF7EBF86420D8
:1023700037F080FF11B000BD70B592B00446202147
:102380000AA83DF0E3F8202102A83DF0DFF8E0487C
:1023900090F8270088B3012817D002283FD1642085
:1023A000B4FBF0F100FB1145B4FBF0F6D848009502
:1023B000807800EB8000D54901EB80003346D5A141
:1023C00042680AA83CF08EFD29E00A20B4FBF0F434
:1023D000B4FBF0F100FB1145B4FBF0F6CC480095DE
:1023E000807800EB8000C94901EB80003346CCA126
:1023F00042680AA83CF076FD11E0FFE76420B4FBD8
:10240000F0F5C348807800EB8000C04901EB800004
:102410002B46C5A142680AA83CF064FD00BF00BF7E
:10242000BA48816902A83CF05BFFC0A3BFA202A921
:102430000AA8FEF787F84FF47A7037F01BFF12B046
:1024400070BD00B589B0202101A83DF07FF834F0BF
:1024500033FD022037F00EFFAC48016A01A83CF0C2
:102460003FFF01AB03220521302035F096FBA84841
:102470008078012813D0A648807800EB8000A34A1A
:1024800002EB8000016901A83CF02AFF01ABA048E3
:102490000093837800220B213C2035F0D2FA09B05A
:1024A00000BDA3480068704770B506460C46154647
:1024B000974890F82300C8B1012E02D0022E14D103
:1024C00009E09CA015F098FC14F008FB01210846D7
:1024D00014F09AFF09E09BA015F08EFC14F0EBFAC3
:1024E0000021012014F090FF00BF00BF884890F841
:1024F0002100C8B1012C02D0022C14D109E095A012
:1025000015F07AFC14F04DFC0121022014F07CFF40
:1025100009E094A015F070FC14F028FC00210220C2
:1025200014F072FF00BF00BF794890F8260058B140
:10253000012D02D0022D06D102E01CF053FC02E076
:102540001CF03FFC00BF00BF142037F093FE70BDAD
:1025500010B5FEF7F5FAF0B986480078D8B9864884
:10256000407A012817D1FEF7EBFA04468248437AF5
:1025700080480278214681A015F03EFC14F066FAEE
:10258000142037F077FE002211460120FFF78CFF60
:10259000142037F06FFE10BD00207D49C8804871BF
:1025A000C8708870487001207A4988707047FEB5FD
:1025B0000026574890F82200022873D17648406FD1
:1025C0007549B1F8C010484373498A6FB1F8C21019
:1025D00002FB01017048C26FB0F8C40002FB001199
:1025E0006D48D0F88020B0F8C60002FB00116A48A0
:1025F000D0F88420B0F8C80002FB00116648D0F87B
:102600008820B0F8CA0002FB00116348D0F88C2083
:10261000B0F8CC0002FB00115F48D0F89020B0F871
:10262000CE0002FB00115C48D0F89420B0F8D00036
:1026300002FB00115848D0F89820B0F8D20002FBF5
:1026400000115548D0F89C20B0F8D40002FB0011CE
:102650005148D0F8A020B0F8D60002FB00114E4837
:10266000D0F8A420B0F8D80002FB00114A48D0F8F6
:10267000A820B0F8DA0002FB00114748D0F8AC20DF
:10268000B0F8DC0002FB00114348D0F8B020B0F8ED
:10269000DE0002FB00151E4890F82500022813D129
:1026A00000240FE0BCE03D4850F8240040B13B4816
:1026B00050F824101C3030F8140001FB0055264659
:1026C000601CC4B2072CEEDB1148806BA84202D21A
:1026D0000F48806B00E02846314908600C48D0F86C
:1026E000C030084602682D48CDE90052029350F8E8
:1026F00026002A4F1C3737F8167000FB07F32648D0
:10270000806F254FB7F8C2704CE00000380500100C
:10271000CC0600102573253032642E25303264003B
:10272000257325642E2564002573256400000000B0
:102730002C0000100D0A20417070656E42696C6CAF
:10274000000000000D0A2041707064697342696CDA
:102750006C0000000D0A20417070656E436F696E59
:10276000000000000D0A20417070646973436F69B6
:102770006E0000001C000010584800100D0A204593
:10278000727242696C6C3D25642C25642C256400B2
:10279000080000105009001018080010240900104B
:1027A0003C00001000FB07F2F448406FF34FB7F80D
:1027B000C07000FB07F1F2A015F01EFBFF48D0F837
:1027C000C000FF490968884215D9012014F026FE8F
:1027D000012824D1F94890F8230000B300221146C3
:1027E0000220FFF761FE0120F649087034F064FB17
:1027F000FFF7D2FEB7E0012014F010FE78B9EF48E1
:1028000090F8230058B1002211460120FFF74CFE3A
:102810000020EC49087034F04FFBFFF7BDFEA2E04A
:10282000E64890F82200012827D1E44890F82500D6
:1028300002280AD1002406E0E34850F8240000B141
:102840002646601CC4B2072CF6DB14F0BEFC10B99F
:10285000DA48806B00E00020D9490860DA4850F877
:102860002600D94A1C3232F8162000FB02F1D44867
:102870000268D6A015F0C0FA75E0D04890F82200A2
:10288000E8BBCE4890F82500022863D100240EE072
:10289000CD4850F8240040B1CB4850F824101C30EB
:1028A00030F8140001FB00552646601CC4B2072C0A
:1028B000EEDBC248806BA84202D2C048806B00E0C9
:1028C0002846BF490860BD48D0F8C030BE480093D4
:1028D00050F82600BC4A1C3232F8162000FB02F1E8
:1028E000B7482A460368C0A015F086FAB348D0F866
:1028F000C000B3490968884217D9012000E028E0E8
:1029000014F08CFD01282ED1AC4890F8230000B3C0
:10291000002211460220FFF7C7FD0120A9490870D7
:1029200034F0CAFAFFF738FE1DE0012014F076FDFE
:1029300078B9A24890F8230058B10022114601202E
:10294000FFF7B2FD00209F49087034F0B5FAFFF799
:1029500023FE08E09948806B99490860AF480168F8
:10296000AFA015F049FAFFF7F3FD0020FEBD0146C8
:1029700069B9924A92F82E200F32FF2A01DDFF2218
:1029800003E08E4A92F82E200F32D0B20CE00129DB
:102990000AD18A4A92F82E20FF2A01DDFF2202E0A6
:1029A000864A92F82E20D0B2704770B5834890F8CE
:1029B000210018B314F091F90446FCB19D48006859
:1029C00020449C490860FEF7BBF8054602462146B4
:1029D00099A015F033FA022200210846FFF764FDA2
:1029E0000121204614F018FEFEF7AAF8054602461B
:1029F000A1B2012016F087FB012070BD6F4890F84E
:102A0000230090B313F0D2FF044674B3214690A084
:102A100015F0F2F992480068011980480368684887
:102A2000026890A015F0E8F98D48006820446449D8
:102A3000096888421AD213F0D1FF90B18848006823
:102A40002044874908600221204614F0E5FDFEF786
:102A500077F805460246A1B2022016F054FB002486
:102A600052E013F0F3FF0020C7E761E0534890F80D
:102A7000240001283DD1FFF777FAFEF761F828B36B
:102A80004FF4AF7037F0F6FB0020FFF770FF7E4980
:102A9000887103207D49087000207D4908707D49B8
:102AA00008707D48002101807C48018081707C484D
:102AB000006837F09FF900207A4908607A48017869
:102AC0000020FFF7D2F813F0C1FF0EE0FEF724F864
:102AD00000206E49087013F0B9FF4FF4C87037F04A
:102AE000C9FBFDF771FDFFF757FD00206F49086036
:102AF00083E76E480460FEF723F805460246A1B25C
:102B0000032016F000FB00245548006820442C499F
:102B10000968884205D3022200211046FFF7C4FC51
:102B200004E0022200210846FFF7BEFC012064E712
:102B3000224890F82600F0B15D481CF012F90446D6
:102B40005B480078012817D1B4B1214659A015F08F
:102B5000B9F95E4804600321204614F05DFD0022AF
:102B600002210846FFF7A0FCFDF7EAFF05460246F2
:102B7000A1B20520ACE0C6E0AEE0000018080010ED
:102B80000D0A4170704368616E676520353D256CA4
:102B9000642C313D256C642C7265633D256C642C7E
:102BA0006D6F6E65793D256C642C6D61783D256C8B
:102BB000642C62696C6C3D256C640000CC060010CE
:102BC0003C0000101C000010240900100D0A417088
:102BD000704368616E6765207265633D256C642C87
:102BE0006D61783D256C64000D0A41707043686129
:102BF0006E6765207265633D256C642C636F696E3A
:102C00004D6F6E65793D256C642C6D61783D256C4A
:102C1000642C62696C6C3D256C64000040000010FF
:102C20000D0A4170704368616E6765206D61783D83
:102C3000256C6400200000100D0A417070636F69FC
:102C40006E312E636F696E3D256C642C256C6400BB
:102C50000D0A322E41707062696C6C3D256C640007
:102C6000240000100D0A41707062696C6C3D256C87
:102C7000642C4D6F6E65793D256C642C70726963B0
:102C8000653D256C640D0A00500900101B00001002
:102C9000190000101A000010170000101400001096
:102CA00094000010340000103900001028000010BB
:102CB000440000100D0A2041707052656164657215
:102CC000312E726561643D256C6400002C0000109B
:102CD00016F019FA012090E6F9480078022812D17E
:102CE000F8A015F0EFF8FDF72BFF85B200232A4678
:102CF0001946022015F05AFA0020F1490870F849E7
:102D00000860022079E6002077E62DE9F0410026F0
:102D1000F44890F82500022858D1FDF711FF064627
:102D2000F6B33146F0A015F067F800244BE0F34805
:102D300050F82400A8B3F14850F82400B6FBF0F096
:102D4000C5B22946EEA015F057F8EC481C3030F813
:102D50001400A84201DB284603E0E8481C3030F8A4
:102D60001400C5B22946EBA015F046F8E34951F826
:102D7000241001FB05F013F002FF0746012F1FD1BD
:102D8000E9480068E94909680144DC4850F8240032
:102D900000FB15160020E5490860E348066001E0E5
:102DA00014E00EE03146E2A015F026F8D34850F8C2
:102DB0002400684382B233460021012015F0F6F961
:102DC00003E0601CC4B2072CB1DB00BFBDE8F0819A
:102DD00038B5DB480068D8B113F038FE70B1FDF7A4
:102DE000AFFED7490968451A2A46D548006881B21E
:102DF000042016F088F90020D149086037F0E8FA7D
:102E000005460146CFA015F007F9642037F032FAE5
:102E1000FFF77BFFFDF794FE70B137F0D9FA054656
:102E20000146CCA015F0F8F8FDF78AFE0546694684
:102E30001BF02FFD044600E001241CBBCBA015F0C5
:102E4000EBF8FDF77DFE0099451A284614F04EFE7A
:102E5000FDF776FE0099401A85B20B462A460021FE
:102E6000084615F0A3F9C82037F004FA00221146ED
:102E7000022016F048F90020AB490860AB49086011
:102E8000009838BD37F0A4FA05460146BCA015F0FD
:102E9000C3F8FDF755FE0546002114F027FEFDF7A7
:102EA0004FFE85B200232A461946184615F07EF9D2
:102EB00000209D4908609D49086000BFE1E72DE9B9
:102EC000F04100260024B3480468FDF739FEA04213
:102ED00006D28348006818B90720AF490870C1E0DE
:102EE0007F48006878B1FFF7F0F8A0B21CF038F81E
:102EF0000646012E03D10A20A7490870B2E0092036
:102F0000A5490870AEE08848006888490968084407
:102F1000A04262D284480068201A84490968451A90
:102F200087480068451B6F4890F82200022801D1AD
:102F3000012615E06B4890F82200012801D10126F6
:102F40000EE0684890F8220050B9664890F82500D5
:102F5000022801D1012603E00DB9012600E0002678
:102F6000012E36D113F03AFDF0B170480068744973
:102F7000096808446D49086002217148006814F02E
:102F80004BFBFDF7DDFD6E490968471A3A466C4870
:102F9000006881B2022016F0B6F800206849086087
:102FA0000A207D4908705DE013F050FDFDF7C8FD73
:102FB00063490968471A3A466148006881B20420AB
:102FC00016F0A1F800205E490860082072490870D8
:102FD00048E008207049087044E0534800685349AD
:102FE00009680844051B3F4890F82200022801D1D7
:102FF000012615E03B4890F82200012801D1012666
:103000000EE0384890F8220050B9364890F8250074
:10301000022801D1012603E00DB9012600E00026B7
:10302000012E1CD12F4890F82400012813D14448C8
:10303000006880B113F00AFDFDF782FD4049096880
:10304000471A3A463E48006881B2042016F05BF801
:1030500000203B4908600A204F49087002E0082020
:103060004D490870BDE8F08110B5044604B31C4812
:10307000006860B149A014F025FF01201BF0D8FFC3
:1030800017480068001B16490860002410E0274814
:103090000068844206D325480068241A002023498A
:1030A000086005E021480068001B204908600024F2
:1030B00024B11D480068001B1B49086010BD0000BA
:1030C000440000100D0A2041707052656164657201
:1030D000204F555450555420636172640000000025
:1030E0002C000010CC0600100D0A204170704E65B7
:1030F00065647061793D256C64000000240900104E
:103100000D0A204170704E6565646E756D3D2564D5
:10311000000000000D0A204170705265616C6E75F0
:103120006D3D256400000000200000102400001008
:103130000D0A204170707061793D256C64000000BB
:10314000280000100D0A20417070486F6C645265B1
:10315000742564000D0A20417070426567696E2015
:103160006368616E67652564000000000D0A2041F8
:1031700070706368616E6765204661696C0000006D
:103180000D0A204170706368616E67652073756316
:1031900063256400340000101B0000100D0A20415C
:1031A000707043487568756F537563630000000065
:1031B000FF4890F82E00FF2806DAFE48807908B90B
:1031C000012070470020FCE70020FAE70EB5F9481F
:1031D0008379F748807800EB8000F74901EB001015
:1031E000F6A1426CF2488DE80E0083780022114669
:1031F000962034F026FC0EBD70B504460125F4B3CC
:10320000F0480068F04909680844A0422AD213F047
:10321000E5FBB0B1EC480068EC4909680844EA49AC
:103220000860FDF78DFCE9490968461A3246E7480F
:10323000006881B2022015F066FF0020E3490860B3
:1032400010E013F003FCFDF77BFCE0490968461A27
:103250003246DE48006881B2042015F054FF002099
:10326000DA490860FDF76CFC064602462146D8A004
:1032700014F0D2FEFDF764FCA04203D300E002E0AC
:10328000012500E00025FDF75BFC90B30320D74942
:1032900008700020FFF76BFBC6498871D34800789F
:1032A000032842D1C8480068D1490968884204D23D
:1032B000002201210846FFF7F7F80020CD490870E9
:1032C000CD490870CD4800210180CD480180817032
:1032D000CC48006836F08EFD33F0EEFDCA48017828
:1032E0000020FEF7C2FCFDF72BFC064617F03BF969
:1032F0001BE0FFE7002201210846FFF7D5F8002078
:10330000BC490870BC490870BC4800210180BC4819
:1033100001808170BB48006836F06CFD33F0CCFD55
:10332000FFF78FF80E20B1490870284670BD70B5C0
:1033300004460125002654B1B448006838B1FEF7B0
:10334000C4FEA0B21BF00CFE064606B900252846B6
:1033500070BD70B5044684B3AC48006860B1ACA0E1
:1033600014F0B0FD01201BF063FEA8480068001BAC
:10337000A6490860002447E092480068924909681D
:103380000844A0422FD213F029FBB8B18E48006840
:103390008E49096808448C490860FDF7D1FB8B49C8
:1033A0000968451A2A468948006881B2022015F04A
:1033B000AAFE00208549086011E025E013F046FBD5
:1033C000FDF7BEFB81490968451A2A467F48006817
:1033D00081B2042015F097FE00207C4908604FF46C
:1033E000487036F047FF78480068844206D3764834
:1033F0000068241A00207449086005E072480068DB
:10340000001B71490860002424B16E480068001B4D
:103410006C490860FDF794FB90B303207349087072
:103420000020FFF7A4FA63498871704800780328E8
:1034300042D1654800686E490968884204D200227A
:1034400001210846FFF730F800206A4908706A49F0
:1034500008706A48002101806948018081706948CC
:10346000006836F0C7FC33F027FD6748017800207C
:10347000FEF7FBFBFDF764FB054617F074F81BE055
:10348000FFE7002201210846FFF70EF80020594906
:103490000870594908705948002101805848018036
:1034A00081705848006836F0A5FC33F005FDFEF742
:1034B000C8FF0E204D49087070BD2DE9F04F87B050
:1034C00004460E461546002700200690FEF784FEAF
:1034D000002202210846FEF7E7FF36F079FF80461A
:1034E000014650A014F098FD3046FFF720FF6420FD
:1034F00094FBF0F000F0FF08642094FBF0F100FB77
:10350000114000F0FF094246012148460CF064FBDF
:103510000746274890F82F00012804D0244890F847
:103520002F00032842D1012F41D1FDF709FB08B933
:1035300014F05EF8012D01D0022D02D13046FFF7C4
:1035400093FD41202E490870642094FBF0F100FBAC
:1035500011400A2190FBF1F0303029494870642075
:1035600094FBF0F100FB11400A2190FBF1F201FB0A
:1035700012003030224988702F4806602F480378A7
:103580002D4801681E48CDE90153009183784278A7
:1035900001782BA032F03CFF284801780078401CCD
:1035A000264B18702B46164A234869E0C0E095E088
:1035B000CC06001050090010A80300102573253018
:1035C00032640000200000102400001028000010C9
:1035D0000D0A204170702050726963653D256C644E
:1035E0002C6D6F6E65793D256C6400001B0000102A
:1035F0003C000010190000101A0000101700001005
:103600001400001094000010390000102C0000106D
:103610000D0A204170705043436F73745375636398
:10362000000000000D0A20256441707055626F781B
:1036300056656E646F757400340000103800001019
:103640004C6F675472616E73616374696F6E415041
:1036500049206C6F6769633D25632563256320708E
:10366000726963653D256420747970653D25782C09
:103670007472616E4E756D733D25640D0A200000F5
:10368000006814F008F8642094FBF0F000F0FF0AE2
:10369000642094FBF0F100FB114000F0FF0B524658
:1036A0000221584619F063FA00F0FF08FDF748FAC6
:1036B0000590642094FBF0F100FB114000F0FF093D
:1036C000059A2B46CDE9012800964A4601210020A3
:1036D00016F0C3F80B20FF49087009E1FEF7CCFD96
:1036E000642094FBF0F000F0FF0A642094FBF0F1FA
:1036F00000FB114000F0FF0B52460221584619F022
:1037000036FA00F0FF08FDF71BFA0590642094FBE1
:10371000F0F100FB114000F0FF09059A2B46CDE9BE
:10372000012800964A460121992016F096F8DFE01C
:10373000E94890F82F0002287ED1012F52D1FEF7E0
:1037400073FD3046FFF705FE642094FBF0F100FBAB
:1037500011400A2190FBF1F03030C0B28DF8180012
:103760000A2094FBF0F100FB11403030C0B28DF81C
:10377000190013F03DFFD94801780078401CD74B61
:1037800018702B4606AA304613F085FF642094FB80
:10379000F0F000F0FF0B642094FBF0F100FB11400F
:1037A000C0B25A460221049019F0E1F900F0FF0876
:1037B000FDF7C6F90590642094FBF0F100FB114081
:1037C00000F0FF09642094FBF0F000F0FF0A059A76
:1037D0002B46CDE9012800964A465146002016F0B6
:1037E0003CF835E0FEF748FDBD48006810B1022006
:1037F0001BF01EFC642094FBF0F000F0FF0A642034
:1038000094FBF0F100FB114000F0FF0B5246022147
:10381000584619F0ACF900F0FF08FDF791F9059052
:10382000642094FBF0F100FB114000F0FF096420DC
:1038300094FBF0F0C0B200E03FE00490059A2B4604
:10384000CDE9012800964A460146022016F005F807
:10385000FDF776F990B303209E4908700020FFF72A
:1038600086F8A04988719B480078032840D19E487B
:1038700000689E490968884204D200220121084656
:10388000FEF712FE00209A4908709A4908709A487B
:10389000002101809948018081709948006836F0C4
:1038A000A9FA33F009FB974801780020FEF7DDF90B
:1038B000FDF746F9804616F056FE19E0FFE70022B4
:1038C00001210846FEF7F0FD00208949087089496A
:1038D00008708948002101808848018081708848EB
:1038E000006836F087FA33F0E7FA0E20794908705D
:1038F00007B0BDE8F08F2DE9F04F85B004460F46C4
:1039000015461E46744890F82F0002282BD16420DB
:1039100094FBF0F000F0FF0A642094FBF0F100FB50
:10392000114000F0FF0B52460221584619F01FF9D2
:1039300000F0FF08FDF704F90490642094FBF0F117
:1039400000FB114000F0FF09642094FBF0F0C0B2CE
:103950000390049A2B46CDE9012800974A46014678
:10396000304615F07AFF05B0BDE8F08F10B5FDF7D1
:10397000E7F8D8B1FFF72CFA4FF4C87036F07AFCAC
:1039800000205B4908705B4908705B48002101809A
:103990005A48018081705A48006836F02BFA33F09B
:1039A0008BFAFEF74EFD0E204A49087000220221D4
:1039B0000846FEF779FDC82036F05CFC21F0F2FDE8
:1039C0004FF4C87036F056FC002201210846FEF77D
:1039D0006BFD10BD70B5404890F8260010B1FEF7A1
:1039E00060FDC8BBFDF7ACF8B0B1FEF76EFC36F079
:1039F000EFFC0546014644A014F00EFBFFF7E8F982
:103A000004461CB12046FEF7B7FC01E0FEF78DFC32
:103A10000E20304908701FE0FEF757FCAFF6B400E7
:103A200014F0FAFA0021084614F060F800231A4650
:103A30001946184614F0BAFBC82036F01BFC0022C9
:103A40001146022015F05FFB00203249086026492C
:103A500008600E201F49087070BD2DE9F041044632
:103A60000025FEF7B9FB36F0B3FC06460146AFF27F
:103A70004C4014F0D1FA642094FBF0F0C6B26420FC
:103A800094FBF0F100FB1140C7B2324601213846E9
:103A90000CF0A2F80546FDF753F8D0B103200D490C
:103AA00008700020FEF763FF0E498871094800780E
:103AB000032863D10C4800680C490968884204D285
:103AC000002201210846FEF7EFFC0020084908709B
:103AD00022E03AE01B000010CC0600103800001075
:103AE0002C00001050090010240000103C000010B1
:103AF000190000101A000010170000101400001028
:103B000094000010390000100D0A204170705475A7
:103B10006925640020000010FF490870FF4800215B
:103B20000180FF4801808170FE48006836F062F92C
:103B300033F0C2F9FC4801780020FEF796F8FCF754
:103B4000FFFF064616F00FFD18E00022012108468F
:103B5000FEF7AAFC0020F5490870EF490870EF480D
:103B600000210180EE4801808170EE48006836F047
:103B700041F933F0A1F90E20ED4908702846BDE85F
:103B8000F08170B504460025FCF7DAFF0546E948E8
:103B90000460FCF7D5FF90B30320E54908700020CE
:103BA000FEF7E5FEE4498871E1480078032841D139
:103BB000E2480068E2490968884204D200220121F3
:103BC0000846FEF771FC0020D8490870D2490870F9
:103BD000D24800210180D24801808170D14800681C
:103BE00036F008F933F068F9CF4801780020FEF785
:103BF0003CF8FCF7A5FF064616F0B5FC1AE0FFE717
:103C0000002201210846FEF74FFC0020C74908703A
:103C1000C1490870C14800210180C14801808170FC
:103C2000C048006836F0E6F825B133F045F90E20BB
:103C3000BF49087070BDF0B593B00546002420213F
:103C40000BA83BF083FC202103A83BF07FFC052060
:103C5000B9494871FCF774FF08B9FCF740FF2C46DE
:103C6000B84890F82700A8B3012834D0022830D1F2
:103C7000642094FBF0F100FB114694FBF0F7B1488F
:103C8000807800EB8000B04901EBC000C168AD480E
:103C9000CDE901760091807800EB8000AA4901EB24
:103CA000C0009F4BA949C2690BA83BF01BF96420D7
:103CB00094FBF0F100FB114694FBF0F7A248416B36
:103CC000CDE901760091964BA049426C03A83BF0E8
:103CD00009F961E037E00A2094FBF0F084B20A2091
:103CE00094FBF0F100FB114694FBF0F795488078C7
:103CF00000EB8000944901EBC000C1689148CDE918
:103D000001760091807800EB80008F4901EBC000C4
:103D1000834B8E491431C2690BA83BF0E3F80A20AB
:103D200094FBF0F100FB114694FBF0F78648416BE1
:103D3000CDE9017600917A4B84491431426C03A895
:103D40003BF0D0F828E0642094FBF0F67D488078C2
:103D500000EB80007C4901EBC000C2687948CDE9E6
:103D60000026807800EB800001EBC0006C4B7749A7
:103D70002431C2690BA83BF0B5F8642094FBF0F63F
:103D80007148426BCDE90026654B70492431426C85
:103D900003A83BF0A7F800BF00BFAFF27C73AFF2FF
:103DA000807203A90BA8FCF7CDFB4FF4167036F018
:103DB00061FA6148407978B9FCF7C2FE18B1032076
:103DC0005B49087006E0FCF7A7FEFCF7FDFB00204E
:103DD00057490870FEF7E0FB55480078032805D1E5
:103DE000514801780020FDF740FF06E05048007878
:103DF00018B933F061F8FEF7CFFB13B0F0BD10B582
:103E000092B0044620210AA83BF0A0FB202102A882
:103E10003BF09CFBFCF794FE10B10020FFF7B1FED5
:103E200022464BA10AA83BF05DF8224648A102A811
:103E30003BF058F802AB43480093837800220E21F0
:103E4000502033F0FEFD12B010BD88B00020079066
:103E5000002400250690059037498870C8700871C5
:103E6000487134F0F6F938B1022211461046FEF7D7
:103E70001BFB13202E49087001200FF0CAF93549A9
:103E80000860304890F89800012802D116F04CFAEA
:103E900002E0012016F034FA012034F057FA33F032
:103EA0000BF8FCE3224800783AF0F3FE2048007853
:103EB00014287DD2DFE800F00AC9FEFDFCFBFAF908
:103EC000F8F7F6F5F4F3F2F1F0EFEEED22480068C2
:103ED000C82802D90020204908601748807830B9E6
:103EE000052015498870FCF77BFB15F0C7F805A97C
:103EF000002016F0FEFC07909DF81C0070B39DF8A2
:103F00001C003C2803D09DF81C003E2829D100202D
:103F100006490870004922E01A000010170000103E
:103F20001400001094000010390000101900001057
:103F30001B0000102C00001050090010240000107D
:103F40003C000010CC0600101401001040160000C8
:103F500025730000400000104800001007E00870C2
:103F600005E00520FF4948710120FF490870FD4820
:103F7000007920B90520FB490871FEF718FBFEF710
:103F800014FD0446012C20D112F07DFF32F094FF85
:103F9000F64801782846FDF768FEFCF7D1FD074694
:103FA0000146F3A013F028FF13F022FB284600E09F
:103FB000B6E2FEF7DCFCEB498871FCF7C1FD074671
:103FC00016F0D1FA0320E8490870E648C078F0B945
:103FD0000520E449C87012F079FF13F007F8A0B18A
:103FE0000020E049887015F03CF9642036F042F971
:103FF00032F062FF022211461046FEF755FAFEF734
:10400000CBFA0F20D849087001E015F0A5FB34F079
:1040100020F938B1022211461046FEF745FA132066
:10402000D1490870012012F0D7F9FCF789FD074645
:1040300014F0C2F934F076F907461BF083FA002039
:104040001BF097FA16F0B0FC6AE29DF81C0080B1F4
:104050009DF81C10CBA013F0BDFF0520C14948718D
:10406000FCF76EFD08B9FCF73AFD05A907A8FCF7B7
:1040700073FD05A9012016F03CFC0790B948407972
:1040800028B94320079002200590FEF785FAB6482C
:1040900011E0E3E399E388E35CE30AE3D8E2C7E2F3
:1040A00092E23EE212E1F4E0CAE0A5E0A3E09FE084
:1040B0009DE03BE010E00078032805D1AB48017893
:1040C0002846FDF7D2FD06E0A748007818B932F07F
:1040D000F3FEFEF761FA23E29DF81C0050B11420B4
:1040E000A0494871FCF72CFD08B9FCF7F8FC07A8BB
:1040F000FDF7A9F905A9012016F0FBFB07909948E7
:10410000407918B94320079002200590964800781E
:10411000032805D1954801782846FDF7A6FD04E05F
:104120009148007808B932F0C7FEE0E3FEF73DFCA5
:104130000446012C15D18D4801782846FDF795FDE0
:104140002846FEF714FC87498871FCF7F9FC0746FE
:1041500016F009FAFCF7F4FC0746014684A013F0B8
:104160004BFE05A9002016F0C4FB07909DF81C002B
:1041700058B19DF81C1087A013F02CFF0520794939
:104180004871012078490870B1E312F053FE10B96C
:10419000FFF70EF878B18348407808B1012D0AD1B5
:1041A0008148006838B9002202210846FEF77CF9F0
:1041B0000D206D4908707D4890F82E00FF2809DA1F
:1041C0007848407808B1012D04D17748006808B9D3
:1041D000FEF7FCFF022C02D10E2063490870FCF7A9
:1041E000AFFC074614F0E8F816F0DEFB7FE37EE351
:1041F000FEF765FE7BE37AE36D480068FDF7D8FEC5
:104200002846FEF7B4FB57498871032056490870C9
:1042100000206849087068490870684800210180DA
:104220006748018081706748006835F0E3FD002031
:104230005F4908604D4801782846FDF716FD56E3B2
:10424000FDF71AFFFCF77CFCF8B12846FEF78FFB60
:10425000444988710320444908700020554908707A
:1042600055490870554800210180554801808170EA
:104270005448006835F0BEFD00204D4908603B48B9
:1042800001782846FDF7F1FC02E00E20364908705F
:104290002DE3FDF742FF0320334908700020454914
:1042A0000870454908704548002101804448018054
:1042B00081704448006835F09DFD00203C4908604D
:1042C0002A4801782846FDF7D0FC10E3002202219D
:1042D0000846FEF7E9F8FDF749FF3B4800886421EE
:1042E00090FBF1F0C7B23848008890FBF1F201FB77
:1042F000120000F0FF083A46012140460BF06CFC2A
:104300000690069801287ED129480068FEF7ACFE89
:104310002548006860B12D4801780078401C2B4B7F
:1043200018700223264A2248006813F0B4F910E0FE
:10433000264801780078401C244B18700023204A3E
:104340001B48006813F0A7F91948006880B21AF0FA
:10435000B4FE1D480088642190FBF1F000F0FF0AD4
:10436000194835E0500900101B00001039000010FA
:104370000D0A2041707032616D6F756E743D256C51
:10438000640000000D0A204170704B6579323D25B4
:10439000640000000D0A204170704B6579313D25A5
:1043A00064000000940700102C000010CC060010E0
:1043B00034000010190000101A000010170000103F
:1043C000140000109400001030000010380000109D
:1043D000008890FBF1F201FB120000F0FF0B524647
:1043E0000221584618F0C3FBC7B2FCF7A9FB0490A2
:1043F000FF480088642190FBF1F201FB120000F0FD
:10440000FF08FB4800E013E0008890FBF1F000F0AB
:10441000FF09F848049A016800238DE886004246A7
:104420004946184615F019FA0B20F349087074E054
:10443000F248006828B1F2A013F044FD02201AF0FF
:10444000F7FDF44890F82F00012804D0F14890F8C7
:104450002F0003282CD1E6480088642190FBF1F05E
:1044600000F0FF0AE248008890FBF1F201FB120025
:10447000C7B252460221384618F079FB00F0FF0817
:10448000FCF75EFB8346DA480088642190FBF1F27A
:1044900001FB120000F0FF09D648016800234A46DC
:1044A000CDE901B800910121992015F0D6F931E04C
:1044B000CF480088642190FBF1F000F0FF0ACC485F
:1044C000008890FBF1F201FB120000F0FF0B524656
:1044D0000221584618F04BFBC7B2FCF731FB0490A1
:1044E000C3480088642190FBF1F201FB120000F048
:1044F000FF08BF48008890FBF1F000F0FF09BD48BD
:10450000049A016800238DE886004246494602204D
:1045100015F0A3F90C20B84908700020B5490860CF
:10452000E5E1FDF781FEBC48007801283CD1FCF7AD
:1045300007FBC0B30320B049087001252846FEF7E9
:1045400016FAB6498871AC48007803283BD1B448C4
:104550000068B4490968884204D200220121084653
:10456000FDF7A2FF0020B0490870B0490870B048BC
:1045700000210180AF4801808170AF48006835F0AC
:1045800039FC32F099FCAD4801782846FDF76DFB07
:10459000FCF7D6FA074615F0E6FF05A9002016F04D
:1045A000A8F907900FE0FFE7FCF7CAFA40B1A3486B
:1045B00001782846FDF759FB0D208F49087002E06D
:1045C0000E208D49087092E1FDF756FEFCF7B8FA0F
:1045D00068B303208849087001252846FEF7C7F90B
:1045E0008E49887184480078032820D18C4800685F
:1045F0008C490968884204D2002201210846FDF74F
:1046000053FF0020884908708849087088480021B5
:1046100001808848018081708748006835F0EAFB96
:1046200032F04AFC854801782846FDF71EFB5EE122
:10463000FDF74BFEFEF7CCFB06461EB13046FDF7FC
:104640009BFE01E0FDF771FE0E206B4908704EE104
:10465000FDF7F7FEFCF760FA0025002078490870A6
:1046600063490880754908706C4908710122114638
:104670001046FDF719FF002072490870FDF78CFF06
:1046800001200EF0C6FD7049086013F0AEFA6148D3
:1046900090F89800012803D115F046FE03E02AE1C6
:1046A000012015F02DFE32F007FC00205249087061
:1046B0001DE15A48807820B91E2058498870FCF7BF
:1046C000CEF85648C07818BB05205449C87012F07F
:1046D000FDFB012011F080FE12F088FC98B900204B
:1046E0004E49887032F0E8FB012211461046FDF772
:1046F000DBFE642035F0BEFD14F0B3FDFDF74CFF8A
:1047000000203D490870FCF71BFA074613F054FEE1
:1047100033F09FFD10B1132037490870FEF745F9BB
:104720000446012C15D112F0AEFB32F0C5FB434814
:1047300001782846FDF799FAFCF702FA0746014688
:10474000AFF2D43013F058FB12F052FF10202A4978
:104750000870CCE0FEF729F90446012C0CD137484B
:1047600001782846FDF781FAFCF7EAF90746014689
:10477000AFF2044013F040FB12F05CFB50B11F4855
:10478000006838B9002202210846FDF78DFE11208D
:1047900019490870022C02D1122017490870FCF741
:1047A000CFF9074613F008FEA1E0FDF78EFDFEF7F6
:1047B0000FFB06461EB13046FDF7DEFD01E0FDF7BA
:1047C000B4FD12200C49087091E0FDF73AFEFCF7A9
:1047D000A3F9002500201A4908700549088032F025
:1047E0006BFB002201210846FDF75EFE2EE0000073
:1047F00030000010340000101B0000102C000010CE
:104800000D0A2041707043487568756F4661696C88
:1048100000000000CC0600109407001050090010A2
:10482000240000103C000010190000101A000010B5
:104830001700001014000010940000103900001040
:10484000380000101C0000104000001013F0CDF9DB
:10485000FDF7A2FE0F202949087048E0002015F05E
:104860004FFD274890F82F0010B1012012F0E3FD12
:1048700000BFFCF765F9074613F09EFD002008F025
:1048800042FC33F0E6FC0028F3D11E49887032F078
:1048900013FB012211461046FDF706FE00201A49BF
:1048A0000870FDF779FE164890F82F0058B10023E4
:1048B000009301931A4619460520029313F0CCFC8D
:1048C000002012F0B8FD01200EF0A3FC0F49086093
:1048D0000B4890F89800012802D115F025FD02E060
:1048E000012015F00DFD00200449087000BF00BF35
:1048F000022035F0BFFCFFF7D5BA00001B00001006
:10490000CC060010500900101C00001040000010E0
:10491000F0B585B000260027FAA103C9CDE9010151
:1049200032F0CAFAF9A031F073FDB8E00F23EF229C
:104930000021084633F021FA0323EF220021084624
:1049400033F01BFAF7488078F74951F82030F548E2
:104950000093837800220121082033F072F8F14897
:104960008178F148143050F82130EE480093837874
:1049700000220621302033F064F80E23EE220D21B0
:10498000012032F0D3FAE7488178E7483C3050F80C
:104990002130E4480093837800220D211C2033F05D
:1049A00050F87BE0002700240AE0342101EB0411D9
:1049B000C8B20023DDA2092132F0E2FA601CC4B2C1
:1049C000082CF2DB69E033F00CFC0546F5B3432D0F
:1049D00002D1002005B0F0BD03A885553101343166
:1049E000C8B20023D2A2092132F0CAFA701CC6B2A2
:1049F000082E4FD100260127002408E003A8005DFF
:104A000001A9095D884200D00027601CC4B2082CAF
:104A1000F4DB012F01D10120DCE70E23EE220D2172
:104A2000012032F083FABF488178BF48283050F81F
:104A30002130BC480093837800220D21302033F0D0
:104A400000F84FF4C87035F015FC00E022E00E23AA
:104A5000EE220D21012032F069FAB2488178B24885
:104A60003C3050F82130AF480093837800220D216C
:104A7000302032F0E6FF00240AE0342101EB04117B
:104A8000C8B20023A9A2092132F07AFA601CC4B28C
:104A9000082CF2DB052035F0EDFB94E782E745E7D3
:104AA00038B532F009FA0F23EF220021084633F01F
:104AB00064F90323EF220021084633F05EF94CE04D
:104AC0000E23EE220421012032F030FA954880783E
:104AD000984951F8203093480093837800220121AF
:104AE000082032F0AEFF8F4881789248143050F899
:104AF00021308C4800938378002207213C2032F03B
:104B0000A0FF884881788B48283050F821308548AC
:104B10000093837800220B21282032F092FF8148F5
:104B2000817884483C3050F821307E480093837867
:104B300000220B218C2032F084FF0DE033F051FB7A
:104B40000446432C01D1002038BD452C01D1012061
:104B5000FAE70A2035F08EFBF0E7B1E770B50026E2
:104B6000704890F82200022873D17348406F724950
:104B7000B1F8C010484370498A6FB1F8C21002FB07
:104B800001016D48C26FB0F8C40002FB00116A4811
:104B9000D0F88020B0F8C60002FB00116648D0F8BB
:104BA0008420B0F8C80002FB00116348D0F88820C8
:104BB000B0F8CA0002FB00115F48D0F88C20B0F8B2
:104BC000CC0002FB00115C48D0F89020B0F8CE0079
:104BD00002FB00115848D0F89420B0F8D00002FB36
:104BE00000115548D0F89820B0F8D20002FB00110F
:104BF0005148D0F89C20B0F8D40002FB00114E4878
:104C0000D0F8A020B0F8D60002FB00114A48D0F836
:104C1000A420B0F8D80002FB00114748D0F8A82023
:104C2000B0F8DA0002FB00114348D0F8AC20B0F82D
:104C3000DC0002FB00114048D0F8B020B0F8DE00E4
:104C400002FB0015374890F82500022812D10024F5
:104C50000EE018E0394850F8240038B1374850F8D1
:104C600024101C3030F8140001FB0055601CC4B245
:104C7000072CEFDB2B48D0F8C000A84201D9012651
:104C80000FE000260DE0274890F82200012803D10C
:104C900012F09BFA064604E0224890F8220000B980
:104CA0000026304670BD70B5044600251D4890F8BA
:104CB0002F00022817D1012C0BD112F094F90546D0
:104CC00012F091F90646024629461DA013F0A4F9F8
:104CD00009E0022C07D1204890F8BC5090F8BC1095
:104CE0001EA013F099F9284670BD0146012902D093
:104CF000022949D142E00B4880781F4A52F820002F
:104D0000704700003833373138353537456E7465B4
:104D10007253656C66436865636B46756374696F4F
:104D20006E0D0A00CC060010100C04005F0000009D
:104D30002A000000600C040018080010240900106C
:104D40000D0A204170702050434572726F72536398
:104D5000616C653D25640000640900100D0A204166
:104D600070702050434572726F724F66664C696E68
:104D7000653D256400000000D4150400FF488278DA
:104D8000FF4850F822007047FC488278FC481430F5
:104D900050F82200F7E700B58BB000200A900320FE
:104DA000099032F089F80F23EF220021084632F0F3
:104DB000E4FF0323EF220021084632F0DEFFE5E3A3
:104DC0000E23EE220421012032F0B0F803200990D6
:104DD0000A980A287ED2DFE800F005D5FEFDFCFB2C
:104DE000FAF9F8F70123E5488178E64850F82120E0
:104DF000E5A1E2488DE80E008078034600220121FB
:104E00000790082032F01DFEDC4890F823000228AD
:104E10007ED1DF488078A0B1D8488178D948143055
:104E200050F82130D5480093807807900998801C6D
:104E3000C0B209900690002201460520079B32F07F
:104E400000FED348C078A0B1CC488178CD48283046
:104E500050F82130C9480093807807900998801C49
:104E6000C0B209900690002201460520079B32F04F
:104E7000E8FDC7480079A0B1C0488178C1483C30FE
:104E800050F82130BD480093807807900998801C25
:104E9000C0B209900690002201460520079B32F01F
:104EA000D0FDBB484079A0B1B4488178B5485030B6
:104EB00050F82130B1480093807807900998801C01
:104EC000C0B209900690002201460520079B32F0EF
:104ED000B8FD00E0A4E2AE488079A0B1A74881788F
:104EE000A848643050F82130A44800938078079097
:104EF0000998801CC0B20990069000220146052046
:104F0000079B32F09EFDA248807808B9A04800E0D7
:104F100019E0C078B8B99E480079A0B99C4840799A
:104F200088B99B48807970B994488178994850F83D
:104F30002130924800938078034600220721079091
:104F4000052032F07EFD8D4880788E49283951F851
:104F5000200006903AF0E8F9C000C0F1E700C0B2C6
:104F60000790864881788748283850F82130834850
:104F700000938078034600220D210690079832F0B6
:104F800060FD4DE202237D4881787E4850F8212063
:104F90007DA17A488DE80E00807803460022012129
:104FA0000790082032F04DFD744890F82300022845
:104FB0007ED17748C079E8B17048817871487830FF
:104FC00050F821306D4807E0FEE3FEE3FEE3ABE37B
:104FD000FAE226E26DE191E000938078079009986B
:104FE000801CC0B209900690002201460520079B54
:104FF00032F027FD6648007AA0B1604881786148A8
:105000008C3050F821305D480093807807900998E3
:10501000801CC0B209900690002201460520079B23
:1050200032F00FFD5A48407AA0B154488178554873
:10503000A03050F8213051480093807807900998AB
:10504000801CC0B209900690002201460520079BF3
:1050500032F0F7FCFFF782FDA0B14848817849485B
:10506000B43050F821304548009380780790099873
:10507000801CC0B209900690002201460520079BC3
:1050800032F0DFFC4248C07990B94148007A78B9E3
:105090003F48407A60B9FFF761FD48B937488178E9
:1050A0003C4850F82130354800938078034600E0B2
:1050B00005E0002207210790052032F0C2FC2F48AE
:1050C00081783048143850F8210006903AF02CF9D5
:1050D000C000C0F1E700C0B2079028488178294895
:1050E000143850F821302548009380780346002278
:1050F0000D210690079832F0A4FC91E101231F488E
:1051000081782048C83050F821201FA11B488DE825
:105110000E0080780346002201210790082032F01B
:1051200090FC164890F8210002287ED11848807A19
:10513000A0B1124881781348DC3050F821300F4874
:105140000093807807900998801CC0B2099006905F
:10515000002201460520079B32F073FC0C48C07A00
:1051600018B3064881780748F03050F821300348DA
:105170000093807807900998801C0DE0CC06001001
:10518000E8150400780D040025732D256400000047
:105190005848001010110400C0B209900690002277
:1051A00001460520079B32F04CFCF948007B98B182
:1051B000F8488178F84850F82130F6480093807814
:1051C00007900998801CC0B2099006900022014601
:1051D0000520079B32F035FCED48407BA0B1ED483F
:1051E0008178ED48143050F82130EA4800938078F7
:1051F00007900998801CC0B20990069000220146D1
:105200000520079B32F01DFCE148807BB0B1E148EE
:105210008178E148283050F82130DE4800938078CA
:1052200007900998801CC0B200E025E00990069024
:10523000002201460520079B32F003FCD448807A07
:10524000D0B9D348C07AB8B9D148007BA0B9D0480A
:10525000407B88B9CE48807B70B9CE488178CF48F2
:1052600050F82130CB480093807803460022072174
:105270000790052032F0E5FBC6488178C84850F811
:10528000210006903AF050F8C000C0F1E700C0B22B
:105290000790C0488178C24850F82130BD4800933B
:1052A0008078034600220D210690079832F0C9FB52
:1052B000B6E00223B7488178B7483C3850F821203F
:1052C000AFF23C11B3488DE80E008078034600220F
:1052D00001210790082032F0B4FBAE4890F821007D
:1052E00002287ED1AA48C07BA0B1AA488178AA48EA
:1052F0003C3050F82130A7480093807807900998F7
:10530000801CC0B209900690002201460520079B30
:1053100032F097FB9E48007CA0B19E4881789E4861
:10532000503050F821309B480093807807900998BE
:10533000801CC0B209900690002201460520079B00
:1053400032F07FFB9248407CA0B19248817892482D
:10535000643050F821308F48009380780790099886
:10536000801CC0B209900690002201460520079BD0
:1053700032F067FB8648807CC8B18548C37C827C5C
:10538000844881788448783050F8211085A08DE8D1
:105390000F008048807807900998801CC0B209905F
:1053A0000690002201460520079B32F04AFB784810
:1053B000C07BB0B97648007C98B97548407C80B90C
:1053C0007348807C68B973488178744850F82130FC
:1053D000704800938078034600220721079005203B
:1053E00000E001E032F02DFB6A4881786C4850F80B
:1053F0002100069039F098FFC000C0F1E700C0B26C
:10540000079064488178664850F8213061480093DD
:105410008078034600220D210690079832F011FB98
:1054200051E25C4881785C488C3050F82130594812
:10543000009380780346002201210790082032F073
:1054400000FB544890F8220001287ED15048007D8E
:10545000F8B14F48007D0690FFF747FC079056488B
:10546000C37D4C4881784C48A03050F8211053A09F
:10547000079A8DE80F004748807806900998801CAD
:10548000C0B209900590002201460520069B32F02B
:10549000D8FA3F48407DF8B13D48407D0690FFF77F
:1054A00024FC07904448037E3A4881783A48B43057
:1054B00050F8211041A0079A8DE80F0035488078F8
:1054C00006900998801CC0B2099005900022014600
:1054D0000520069B32F0B5FA2D48807DF8B12C48A6
:1054E000807D0690FFF701FC07903348437E2948F2
:1054F00081782948C83050F8211030A0079A8DE8EB
:105500000F002448807806900998801CC0B209904A
:105510000590002201460520069B32F092FA1C48B5
:10552000007D90B91A48407D78B91948807D60B9EE
:1055300018488178194850F821301648009380782F
:10554000034600220721079000E002E0052032F028
:1055500078FA10488178124850F82100069039F006
:10556000E3FEC000C0F1E700C0B2079009488178AF
:105570000B4850F8213007480093807803460022FA
:105580000D210690079832F05CFAB1E3D5E30000F4
:1055900058480010CC0600107C0E040010110400C6
:1055A000640D040025735B25233032785D5B252371
:1055B0003032785D000000002C4800102573257300
:1055C0005B25233032785D000123FF488178FF4856
:1055D00050F82120AFF25041FB488DE80E00807852
:1055E0000346002201210790082032F02AFAF648EB
:1055F00090F82D0001282FD1F548807EA0B1F24807
:105600008178F248143050F82130EF4800938078C8
:1056100007900998801CC0B20990069000220146AC
:105620000520079B32F00DFAE948C07EA0B1E6489C
:105630008178E648283050F82130E348009380789C
:1056400007900998801CC0B209900690002201467C
:105650000520079B32F0F5F9DD48007FA0B1DA485C
:105660008178DA483C3050F82130D7480093807870
:1056700007900998801CC0B209900690002201464C
:105680000520079B32F0DDF9D148407FA0B1CE481C
:105690008178CE48503050F82130CB480093807844
:1056A00007900998801CC0B209900690002201461C
:1056B0000520079B32F0C5F9C548807EB8B9C448BB
:1056C000C07EA0B9C248007F88B9C148407F70B988
:1056D000BD488178BF4850F82130BB48009380789E
:1056E0000346002207210790052032F0AAF9B648A8
:1056F0008178B94850F82100069039F015FEC000B5
:10570000C0F1E700C0B20790AF488178B24850F8C6
:105710002130AD4800938078034600220D21069089
:10572000079832F08EF9E3E20223A7488178A74870
:1057300050F82120AFF2B051A3488DE80E008078D8
:105740000346002201210790082032F07AF9A04890
:10575000807FA0B19C4881789C48643050F821300B
:1057600099480093807807900998801CC0B20990EE
:105770000690002201460520079B32F062F994480A
:10578000C07FA0B1904881789048783050F821309F
:105790008D480093807807900998801CC0B20990CA
:1057A0000690002201460520079B32F04AF98848FE
:1057B00090F82000C0B18448817884488C3050F83B
:1057C00021308148009302E011E258E17CE08078CA
:1057D00007900998801CC0B20990069000220146EB
:1057E0000520079B32F02DF9794890F82100A0B1EF
:1057F000754881787548A03050F821307248009380
:10580000807807900998801CC0B209900690002209
:1058100001460520079B32F014F96D4890F82200EC
:10582000A0B1694881786948B43050F821306648A1
:105830000093807807900998801CC0B20990069068
:10584000002201460520079B32F0FBF86048807F6C
:10585000E8B95F48C07FD0B95D4890F82000B0B982
:105860005B4890F8210090B9594890F8220070B92F
:1058700055488178574850F8213053480093807834
:105880000346002207210790052032F0DAF84E483F
:105890008178514850F82100069039F045FDC0004C
:1058A000C0F1E700C0B20790474881784A4850F8F5
:1058B0002130454800938078034600220D21069050
:1058C000079832F0BEF813E203233F4881783F483F
:1058D00050F82120AFF250713B488DE80E008078DF
:1058E0000346002201210790082032F0AAF8384828
:1058F00090F82300A0B1344881783448C83050F87B
:10590000213031480093807807900998801CC0B2FC
:1059100009900690002201460520079B32F091F87D
:105920002B4890F82400A0B1274881782748DC3024
:1059300050F8213024480093807807900998801C03
:10594000C0B209900690002201460520079B32F064
:1059500078F81F4890F82500A0B11B4881781D48B1
:10596000C83850F82130184800938078079009987B
:10597000801CC0B209900690002201460520079BBA
:1059800032F05FF8124890F82600A0B10E488178F6
:105990001048B43850F821300B48009380780790B5
:1059A0000998801CC0B2099006900022014605208B
:1059B000079B32F046F8064890F82700F8B10248F5
:1059C00081780448A03809E0CC060010580F040084
:1059D0005848001010110400640D040050F82130E4
:1059E000FF480093807807900998801CC0B2099006
:1059F0000690002201460520079B32F022F8F94864
:105A000090F82300F0B9F74890F82400D0B9F54891
:105A100090F82500B0B9F34890F8260090B9F14805
:105A200090F8270070B9EE488178EF4850F821309F
:105A3000EB48009380780346002207210790052059
:105A400031F0FFFFE6488178E84850F821000690E1
:105A500039F06AFCC000C0F1E700C0B20790E0482E
:105A60008178E24850F82130DD4800938078034681
:105A700000220D210690079831F0E3FF38E104235E
:105A8000D7488178DA4850F82120AFF60411D4487D
:105A90008DE80E008078034600220121079008203F
:105AA00031F0CFFFCF4890F82800A0B1CC488178E2
:105AB000CD488C3850F82130C94800938078079041
:105AC0000998801CC0B2099006900022014605206A
:105AD000079B31F0B6FFC34890F82900A0B1C04839
