:020000040000FA
:1000000000800010CD000000F9360300F93603002F
:10001000F9360300F9360300F9360300F936030018
:10002000F9360300F9360300F936030069020000CF
:10003000F936030000000000D1020000591403004B
:10004000F93603006B0C0300410C03002F0C030076
:100050001D0C030085E8020055EA020035E50200A8
:1000600055EC0200F936030059EF0200F93603009F
:10007000F9360300F9360300F9360300F9360300B8
:10008000F9360300F9360300F9360300F9360300A8
:10009000E7060300F9360300F9360300F9360300DA
:1000A000F9360300F9360300F9360300F936030088
:1000B000F9360300F9360300F9360300F936030078
:1000C000F9360300F9360300F936030000F002F8B0
:1000D00000F0BAF80AA090E8000C82448344AAF128
:1000E0000107DA4501D100F0AFF8AFF2090EBAE826
:1000F0000F0013F0010F18BFFB1A43F0010318475C
:10010000B8AC0400E8AC040010F8013B0A4413F05A
:10011000030408BF10F8014B1D1108BF10F8015B64
:10012000641E05D010F8016B641E01F8016BF9D153
:10013000002D15D010F8014B03F00C030C2BA1EB94
:1001400004040ABF10F8013BA4EB8314A4EB0324BE
:1001500005F1010314F8016B5B1E01F8016BF9D581
:10016000914238BF10F8013BD1D3704700230024DF
:1001700000250026103A28BF78C1FBD8520728BFB7
:1001800030C148BF0B6070476E2937F02785702952
:1001900037F00E81662938F09E86652938F09B86F7
:1001A000672938F098866129AFF3008003681B0A3D
:1001B00028BF41F08001692937F07E80642937F03B
:1001C0007B80752937F078806F2937F01986782978
:1001D00037F0DA80E92937F0B185E42937F0AE85C8
:1001E000F52937F0AB85EF2937F01686F82937F077
:1001F000D9800368DB0928BF41F08001632937F00B
:100200003285732937F03785E32938F08A80F3295E
:1002100038F08F80002070471FB538F055FE9DE8FC
:10022000030037F039FC38F003F904000020002106
:1002300038F030FE401C60600020002138F014FED1
:10024000E0601FBD10B510BD38F0C4F81146FFF7CF
:10025000E3FF00F02AF938F0A5F903B4FFF7F2FF45
:1002600003BC33F08AFE0000052828BF70474FEA20
:1002700080007844D0F802F0D1020000970200001C
:100280003503000055030000750300004FF0010026
:1002900080F3148800DF0A4C4FF001052570774683
:1002A00036F016FFBE46074E3668074C2660D6F875
:1002B00000D001BC05490860BDE8F00F704700BFE1
:1002C0005706001068060010600600102C0600108B
:1002D0004FF0080282F3118800B536F0F9FE5DF8A0
:1002E00004EB2DE9F00F0E49086801B40D4A1268BD
:1002F000C2F800D00C4C0D4D2E7826700C4E36688E
:10030000084C2660D6F800D001BC086000280CBF5D
:100310000022082282F31188BDE8F00F704700BF69
:100320002C060010600600104C0600104D06001050
:10033000680600100649086800F101004FF0080245
:1003400082F31188002808BF70470860704700BF1B
:100350002C0600100649086800281CBF01380860F8
:10036000002818BF70474FF0000282F311887047D1
:100370002C0600104FF0000080F3148870474FF0F7
:10038000010080F31488704788476FF0FF0032F057
:10039000FCFB00001CB5534890F82B2001211820CD
:1003A00030F01AF806230222CDE900234EA30E21D5
:1003B00028202FF0EAFE1CBD08B500BF30F0C6F9BA
:1003C0002EF0AEFA2EF094FB2EF04FF92EF090FCAA
:1003D00030F09EFD2FF07DF84749002030F012FDEF
:1003E0002EF048FD30F012FE30F0B0F90CF03CFA7F
:1003F0000CF00EFFFFF7CEFF2EF07AFB0BF08AFB1E
:1004000006233E4A00213E4832F01EFB022032F015
:10041000B5F936F056FD14F0ADFB022032F0AEF91E
:1004200014F0D0F9022032F0A9F91BF04CFC1BF0BB
:100430000DFD022032F0A2F919F065FD6A46002197
:100440003048006832F0EEFD0DF0B0FA15F01CFBFC
:1004500074212D4837F0E0F9022032F08FF909239A
:100460002A4A00212A4832F0EFFA022032F086F9B7
:1004700017F0EEFD022032F081F90823254A002111
:10048000254832F0E1FA022032F078F917F04DF900
:10049000C82032F073F907E0002003F05AF802E0B8
:1004A000322032F06BF9FBE7F6E700B585B033F0A8
:1004B00028F933F0E5F831F022F90123002219027E
:1004C0001648CDE90323CDE901010723144A002191
:1004D000AFF21B10009332F0FFFA31F0D3F9002095
:1004E00005B000BDA406001076657273696F6E25B5
:1004F000642E25303264000080A903005C320010B5
:100500002112020074000010E00900105C46001087
:1005100015DB02005C42001025570200600A001043
:100520005C2A0010F8B505460E4614461F460A21FF
:1005300000202FF007FF022301220B2100202FF0C3
:10054000CFFEFF480095837800220B2128202FF052
:1005500070FDFB488078012807D0F9480096837821
:1005600000220D2128202FF064FD204637F042F8AC
:10057000C8B1022301220B2170202FF0B1FEF048F8
:100580000094837800220B2198202FF052FDEC4834
:100590008078012807D0EA480097837800220D214F
:1005A00098202FF046FDF8BD10B501220A21002049
:1005B0002FF074FC03220B2100202FF06FFC10BDE4
:1005C00030B58BB0202103A837F026F92EF06CFF50
:1005D000DC482EF06EFC022032F0D0F8DA480078C9
:1005E000F0B3D8482EF065FC022032F0C7F80223A1
:1005F0000422012100202FF073FED448D0F8AC1063
:1006000003A836F0D3FF03AB0222012128202FF0EC
:10061000BCFDCE48D0F8B41003A836F0C7FF03AB3A
:100620000122032128202FF0B0FDC5488078C0EBBF
:10063000C00202EB0010C54A02EB8000816D03A8E6
:1006400036F0B4FF03ABBE48009383780022052147
:1006500028202FF0EEFCBA4890F8BC00012800E0FA
:1006600045E019D1BA4880890A2190FBF1F201FBDB
:100670001204B748808990FBF1F523462A46B5A1BC
:1006800003A836F095FD03ABAD48009383780022B4
:10069000072128202FF0CDFC0A2100202FF052FE48
:1006A000A848C288ADA103A836F082FD03AB0222A0
:1006B0000B2128202FF069FDA248C3784279A9A117
:1006C00003A836F075FD03AB02220D2128202FF080
:1006D0005CFD9C4843788278A5A103A836F068FDAC
:1006E00003AB03220B2160202FF04FFD49E094481B
:1006F000807800EB8000A14A02EBC000816903A86A
:1007000036F054FF03AB8E48009383780022022119
:1007100048202FF08EFC8A4890F8BC00012819D19F
:100720008B4880890A2190FBF1F201FB1204884872
:10073000808990FBF1F523462A4686A103A836F06E
:1007400037FD03AB7E480093837800220521AA2061
:100750002FF06FFC7B48C3784279C1888DE80E008A
:1007600087A30222062150202FF00FFD7548437801
:100770008278CDE900237EA3042208213C202FF0BB
:1007800004FD0BB030BD30B589B0202101A837F091
:1007900043F86C482EF08DFB022031F0EFFF02236E
:1007A0000322012100202FF09BFD65488078C0EBDB
:1007B000C00202EB0010654A02EB8000C16C01A888
:1007C00036F0F4FE01AB5E480093837800220121ED
:1007D00028202FF02EFC5A488078C0EBC00202EB94
:1007E00000105A4A52F8201001A836F0DFFE01AB83
:1007F0005348009383780022032128202FF019FC0E
:100800004F4890F8BC00012819D1514880890A212D
:1008100090FBF1F201FB12044D48808990FBF1F549
:1008200023462A464BA101A836F0C2FC01AB44483E
:10083000009383780022052128202FF0FAFB0A215B
:1008400000202FF07FFD3F48C28844A101A836F068
:10085000AFFC01AB02220B2128202FF096FC394877
:10086000C37842793FA101A836F0A2FC01AB022275
:100870000D2128202FF089FC3248437882783CA152
:1008800001A836F095FC01AB03220B2160202FF06C
:100890007CFC09B030BD10B50246012904D0284BBC
:1008A00093F89930012B2CD11378412B0BD153782D
:1008B000303B03EB8303642404EB43049378303B25
:1008C000234498B228E01378422B0BD15378303B65
:1008D00003EB8303C82404EB43049378303B2344A5
:1008E00098B219E01378303B642463435478303C69
:1008F00004EB840403EB44049378303B234498B224
:100900000AE01378303B03EB8303642404EB4304D5
:100910005378303B234498B210BD30B502460B7873
:10092000303B4FF47A7463434C78303C04EBC4059D
:1009300005EB041403EB84041378303B28E000003B
:10094000A40600100000001014000010C4010010E4
:10095000A84E001025642E256420920025303464B2
:1009600000000000253032642D2530326400000084
:10097000253032643A25303264000000FC0000105B
:10098000253034642D253032642D2530326400004A
:1009900003EB830304EB43045378303B234498B2C6
:1009A00030BD0EB52EF080FDFF48C3784279C18876
:1009B0008DE80E00AFF238030222114650202FF0CE
:1009C000E4FBF94843788278CDE90023AFF2600375
:1009D000042211463C202FF0D8FB0EBD10B500209C
:1009E000F2490870F2490870F24800210180F2488B
:1009F000018081700020F1498870F148006831F071
:100A00007DFC10BDEF480068EF4909680844EF49D4
:100A100009680844EE490968084470472DE9F04F19
:100A200093B006460F4620210BA836F0F5FE202194
:100A300003A836F0F1FE4FF00008C146002400255F
:100A4000387802281DD13078432802D030784528E4
:100A500017D10020D5490870D74800210180817046
:100A6000FFF7D0FF18B10320DA49087006E0FFF75E
:100A7000B5FFFFF799FD0020D649087013B0BDE817
:100A8000F08F387802286FD13178C8480278007822
:100A9000401CC64B1870C8488154CF48807800EB82
:100AA0008000CE4A52F830100BA836F07FFDCA48BD
:100AB00090F83100012813D1BF4800782E2803D1C7
:100AC0004120BD49087006E0BB480078442802D1A7
:100AD0004220B9490870B8490BA836F0F0FD03E090
:100AE000B5490BA836F0EBFDBC48816A03A836F087
:100AF0005DFDB14903A836F0E2FDAFF29C13AFF201
:100B0000A01203A90BA8FFF70DFDB34890F8310020
:100B1000012804D0B04890F89900012877D1A34863
:100B2000007803281FDBAC4890F83100E8B9A248F0
:100B300000782E2813D0A048007844280FD09E4873
:100B400040782E280BD09C484078442807D09A48FB
:100B500080782E2803D098488078442805D14FF01B
:100B600005084FF001099FE1BEE0934840782E2828
:100B70000BD091484078442807D08F4880782E28A1
:100B800003D08D488078442804D14FF005084FF0F9
:100B9000010989E1904890F831108748FFF77BFE02
:100BA0000446642094FBF0F000F0FF0A642094FBFC
:100BB000F0F100FB114000F0FF0B5146584619F0D0
:100BC0009AFA00F0FF08844890F82F00022827D1F5
:100BD000642094FBF0F000F0FF0A642094FBF0F135
:100BE00000FB114000F0FF0B52465946012016F061
:100BF00070FB00206D4908706F48002101808170F2
:100C0000FFF700FF20B103207249087007E00AE0F7
:100C1000FFF7E4FEFFF7C8FC00206E4908702DE7DF
:100C20004FF0010940E161480078022813DB624877
:100C300000782E280BD060480078442807D05E4802
:100C400040782E2803D05C484078442804D14FF0E7
:100C500005084FF0010927E15F4890F83110564828
:100C6000FFF719FE0446642094FBF0F000F0FF0A41
:100C7000642094FBF0F100FB114000F0FF0B5146A3
:100C8000584619F038FA00F0FF08534890F82F0042
:100C9000022826D1642094FBF0F000F0FF0A6420C3
:100CA00094FBF0F100FB114000F0FF0B5246594657
:100CB000012016F00EFB00203C4908703E48002140
:100CC00001808170FFF79EFE18B103204149087032
:100CD00006E0FFF783FEFFF767FC00203D49087040
:100CE000CCE64FF00109DFE0387801280AD13278EC
:100CF0000121084619F027F9044624B94FF00208EB
:100D00004FF00109D0E029480078002804DD4FF0B9
:100D100005084FF00109C7E02F4890F8310001287D
:100D200023D14122214801780078401C1F4B1870C4
:100D3000214842540A2094FBF0F03030C2B21846E9
:100D400001780078401C18701B4842540A2094FB1C
:100D5000F0F100FB11403030C2B218460178007843
:100D6000401C1870144842541AE00A2094FBF0F01A
:100D70003030C1B20D4802780078401C0B4B18701F
:100D80000D4881540A2094FBF0F100FB11403030F3
:100D9000C2B2184601780078401C187006484254C8
:100DA0000D4880781CE000000000001011000010C9
:100DB000120000100F0000100C000010FC080010C2
:100DC0008C000010180000101C0000102000001003
:100DD0002400001013000010A4060010FC000010F6
:100DE00000EB8000FA4A52F830100BA836F0DEFB18
:100DF000F8490BA836F063FCF548816A03A836F081
:100E0000D5FBF44903A836F05AFCAFF2AC43AFF27D
:100E1000B04203A90BA8FFF785FBEF4890F831100B
:100E2000EC48FFF738FD0446642094FBF0F000F036
:100E3000FF0A642094FBF0F100FB114000F0FF0B6F
:100E40005146584619F057F900F0FF08E24890F86B
:100E50002F00022826D1642094FBF0F000F0FF0A56
:100E6000642094FBF0F100FB114000F0FF0B5246B0
:100E70005946012016F02DFA0020D8490870D548AF
:100E8000002101808170FFF7BDFD18B10320D44916
:100E9000087006E0FFF7A2FDFFF786FB0020D049AF
:100EA0000870EBE54FF00109B9F1000F7ED0B8F101
:100EB000060F33D2DFE808F094630333046200BF07
:100EC000C548807800EB8000C14A02EBC000416950
:100ED0000BA836F06BFBBE48C16B03A836F066FB6F
:100EE000AFF28453AFF2885203A90BA8FFF71AFBA5
:100EF0004FF4C87031F042FCFFF784FD38B1B548BB
:100F00000021018081700320B549087006E0FFF7D9
:100F100065FDFFF749FB0020B14908702BE1AE48A1
:100F2000807800EB8000AA4A02EBC00001690BA8A0
:100F300036F03CFBA648816B03A836F037FBAFF2D6
:100F4000E053AFF2E45203A90BA8FFF7EBFA4FF41A
:100F5000C87031F013FCFFF755FD38B19D480021F2
:100F60000180817003209E49087006E0FFF736FD7E
:100F7000FFF71AFB00209A490870FCE000BF964872
:100F8000807800EB8000924A02EBC00041680BA819
:100F900036F00CFB8E48C16A03A836F007FBAFF2AF
:100FA0004063AFF2446203A90BA800E0E7E0FFF75B
:100FB000B9FA4FF4C87031F0E1FBFFF723FD38B107
:100FC000844800210180817003208549087006E073
:100FD000FFF704FDFFF7E8FA002081490870CAE036
:100FE000642094FBF0F000F0FF0A642094FBF0F121
:100FF00000FB114000F0FF0B52460121584619F04A
:1010000082F87849086008460568734890F8270018
:10101000A8B3012834D0022830D16420B5FBF0F108
:1010200000FB115AB5FBF0FB6B48807800EB8000A9
:10103000674901EBC000C1686748CDE901BA00917A
:10104000807800EB8000624901EBC000614B66A133
:10105000C2690BA836F0ACF86420B5FBF0F100FBD8
:10106000115AB5FBF0FB5A48416BCDE901BA00912A
:10107000584B5DA1426C03A836F09AF85BE033E070
:101080000A20B5FBF0F5B5FBF0F100FB115AB5FBFA
:10109000F0FB5148807800EB80004D4901EBC00027
:1010A000C1684D48CDE901BA0091807800EB80001D
:1010B000474901EBC000474B50A1C2690BA836F06D
:1010C00077F80A20B5FBF0F100FB115AB5FBF0FBF5
:1010D0003F48416BCDE901BA00913E4B47A1426CBC
:1010E00003A836F065F826E06420B5FBF0FA3A482C
:1010F000807800EB8000364901EBC000C2683648BA
:10110000CDE9002A807800EB800001EBC000314B74
:101110003EA1C2690BA836F04BF86420B5FBF0FA8B
:101120002B48426BCDE9002A2A4B38A1426C03A818
:1011300036F03EF800BF00BFAFF2DC73AFF2E072F2
:1011400003A90BA8FFF7EEF9C82031F017FBFFF752
:1011500059FC28B13048048005202149087009E075
:10116000C82031F00BFBFFF739FCFFF71DFA002018
:101170001B49087000BF00BF00201849087000BF5D
:101180007CE42DE9F04F93B0064620210BA836F001
:1011900043FB202103A836F03FFB0027B846B946A1
:1011A000002400253078432846D100200B490870E0
:1011B0001A49087007480021018081701848018091
:1011C000FFF720FC18B103200549087031E029E041
:1011D000FC0000100C000010A4060010110000100C
:1011E000130000102C00001025732025732C25738C
:1011F000253032642E25303264000000257320250E
:10120000732C257325642E2564000000257320258A
:10121000732C2573256400002800001012000010B4
:101220000F000010FFF7DAFBFFF7BEF90020F849C6
:10123000087013B0BDE8F08FF6480078F0BB307846
:10124000452829D03278F44801780078401CF24BC8
:101250001870F2484254F248807800EB8000F14A5E
:1012600002EB0010816C0BA836F0A0F9EB490BA83B
:1012700036F025FAEB48D0F8981003A836F096F926
:10128000E64903A836F01BFAAFF62C13AFF630127E
:1012900003A90BA8FFF746F9DF480078022857DBBF
:1012A000DE480078302839DBDC480078392835DC26
:1012B000DA484078302831DBD84800E099E04078BF
:1012C00039282BDC0120D34908700020D24908704E
:1012D000D548002101808170D0490BA836F066F90D
:1012E000CF48807800EB8000CE4A02EB0010C16C42
:1012F0000BA836F0E4F9C94903A836F057F9C948F4
:10130000D0F89C1003A836F0DAF9AFF6AC13AFF6BC
:10131000B01203A90BA8FFF705F9B7E10020BE49F9
:101320000870BC490870C048002101808170BB482A
:101330000180FFF767FB18B10320B549087006E08C
:10134000FFF74CFBFFF730F90020B149087070E758
:101350003078452832D1B148007830282FDBAF48AB
:10136000007839282BDCAD480078AC494870302033
:1013700008700120A74908700020A7490870AA48F2
:10138000002101808170A648807800EB8000A5498B
:1013900001EB0010A14AA5A1C36C0BA835F008FF12
:1013A000A0489E4AA1A1D0F89C3003A835F000FFC8
:1013B0009FA39FA203A90BA8FFF7B4F866E1002042
:1013C0009549087093490870974800210180817001
:1013D00092480180FFF716FB18B103208C49087072
:1013E00006E0FFF7FBFAFFF7DFF8002088490870F6
:1013F0001FE78848007801287ED13078452833D00F
:101400003178854802780078401C834B18708648F4
:10141000815482484078303880490978303901EB6E
:10142000810100EB410000F0FF097F4B7C480093F5
:10143000807800EB80007B4901EB00104A467DA1DB
:10144000C36C0BA835F0B4FE774B764800934A4640
:1014500078A1D0F89C3003A835F0AAFE74A374A23A
:1014600003A90BA8FFF75EF86B480078022875DB2C
:101470006D480078302856DB6B480078392852DCFC
:101480006948407830284EDB6748407839284ADC84
:1014900062496548FFF741FA0446642094FBF0F086
:1014A00000F0FF0A642094FBF0F100FB114000F013
:1014B000FF0B5146584618F01EFEC7B2584890F828
:1014C0002F0002282CD1642094FBF0F000F0FF0ADA
:1014D000642094FBF0F100FB114000F0FF0B52463A
:1014E0005946012015F0F5FE00204B490870494986
:1014F00008704D48002100E089E001808170474874
:101500000180FFF77FFA18B103204149087006E017
:10151000FFF764FAFFF748F800203D49087088E6B5
:101520004FF00108B2E000203B49087039490870CB
:101530003D4800210180817038480180FFF762FA40
:1015400018B103203249087006E0FFF747FAFFF7A9
:101550002BF800202E4908706BE6FFE7307845280D
:1015600055D131480078302869DB2F480078392878
:1015700065DC2D4800782C494870302008702749D8
:101580002948FFF7CAF90446642094FBF0F000F004
:10159000FF0A642094FBF0F100FB114000F0FF0B08
:1015A0005146584618F0A7FDC7B21D4890F82F00C5
:1015B00002282AD1642094FBF0F000F0FF0A642096
:1015C00094FBF0F100FB114000F0FF0B524659462E
:1015D000012015F07EFE00200F4908700D490870AB
:1015E00011480021018081700C480180FFF70AFA40
:1015F00018B103200649087006E0FFF7EFF9FEF77F
:10160000D3FF00200249087013E64FF001083DE0C7
:101610001300001012000010110000100F00001045
:10162000A4060010900300100C0000102573257311
:10163000000000002564257325730000FFE70020EB
:10164000FF490870FF48002101808170FE488078C2
:1016500000EB8000FD4901EB0010FD4AAFF23401C0
:10166000C36C0BA835F0A4FDF848F94AAFF2440169
:10167000D0F89C3003A835F09BFDAFF24C03AFF2DD
:10168000500203A90BA8FEF74DFFD2E5B8F1000FF9
:1016900073D0062F3AD2DFE807F0A872033A04713C
:1016A00000BFE948807800EB8000EA4A02EBC00006
:1016B00041690BA835F07AFFE648C16B03A835F005
:1016C00075FFAFF29403AFF2980203A90BA8FEF7DF
:1016D00029FF4FF4C87031F051F8FFF793F970B15A
:1016E0000020D7490870DC490870D94800210180E2
:1016F000D448018081700320D849087006E0FFF7C4
:101700006DF9FEF751FF0020D44908703EE1CE4844
:10171000807800EB8000CF4A02EBC00001690BA883
:1017200035F044FFCB48816B03A835F03FFFAFF2A3
:101730000013AFF2041203A90BA8FEF7F3FE4FF457
:10174000C87031F01BF8FFF75DF970B10020BC499B
:101750000870C1490870BE4800210180B948018065
:1017600081700320BD49087006E0FFF737F9FEF7E6
:101770001BFF0020B949087008E10DE100BFB24825
:10178000807800EB8000B34A02EBC00041680BA8F0
:1017900035F00CFFAF48C16A03A835F007FFAFF280
:1017A0007013AFF2741203A90BA8FEF7BBFE4FF43F
:1017B000C87030F0E3FFFFF725F970B10020A049B1
:1017C0000870A5490870A248002101809D48018049
:1017D00081700320A149087006E0FFF7FFF8FEF7CB
:1017E000E3FE00209D490870D0E0642094FBF0F0F7
:1017F00000F0FF0A642094FBF0F100FB114000F0C0
:10180000FF0B52460121584618F07DFC94490860B0
:10181000084605688C4890F82700B8B3012836D0F0
:10182000022832D16420B5FBF0F100FB115AB5FB60
:10183000F0FB8548807800EB8000864901EBC00012
:10184000C1688148CDE901BA0091807800EB800041
:10185000804901EBC0007B4BAFF27461C2690BA8F9
:1018600035F0A6FC6420B5FBF0F100FB115AB5FB86
:10187000F0FB7848416BCDE901BA0091714BAFF2B2
:101880009861426C03A835F093FC5FE035E00A20D4
:10189000B5FBF0F5B5FBF0F100FB115AB5FBF0FB21
:1018A0006948807800EB80006A4901EBC000C1689C
:1018B0006548CDE901BA0091807800EB8000654968
:1018C00001EBC0005F4BAFF2CC61C2690BA835F0F1
:1018D0006FFC0A20B5FBF0F100FB115AB5FBF0FBE1
:1018E0005C48416BCDE901BA0091564BAFF2F4610F
:1018F000426C03A835F05CFC28E06420B5FBF0FAEC
:101900005148807800EB8000524901EBC000C2686A
:101910004D48CDE9002A807800EB800001EBC00043
:10192000484BAFF21871C2690BA835F041FC642036
:10193000B5FBF0FA4748426BCDE9002A414BAFF2C4
:101940003471426C03A835F033FC00BF00BFAFF226
:101950002033AFF2243203A90BA8FEF7E3FDC82021
:1019600030F00CFFFFF74EF828B13E480480052008
:101970003A49087009E0C82030F000FFFFF72EF860
:10198000FEF712FE00203549087000BF00BF00209E
:101990002B4908703049087000BF4AE42DE9F04136
:1019A000A4B006460D4620211CA835F035FF2021A5
:1019B00014A835F031FF20210CA835F02DFF20218F
:1019C00004A835F029FF022030F0D8FEFFF71AF8FE
:1019D0000446A6BB1C488078012814D01B48036D20
:1019E0001948807800EB8000184901EB00101EA117
:1019F000026815488DE80E008378002202214C20F1
:101A00002EF017FB0CE01148AFF2D432036D0E48F4
:101A1000CDE9002383780022022160202EF009FB0B
:101A20000422114600202EF039FA0748807828B9A0
:101A30000223002205212C202EF052FC18E07DE02C
:101A4000110000100C000010A406001090030010FC
:101A50000F000010FC000010120000101300001016
:101A60002C0000102800001025732F2573000000A3
:101A7000F74890F8270038B3012812D002282FD158
:101A80006420B4FBF0F100FB1147B4FBF0F8AFF6B3
:101A9000A003042211464C20CDE900872EF075FBEF
:101AA0001EE00A20B4FBF0F4B4FBF0F100FB114798
:101AB000B4FBF0F8AFF6B403042211464C20CDE994
:101AC00000872EF062FB0BE06420B4FBF0F7AFF66A
:101AD000BC03042211464C2000972EF056FB00BF99
:101AE00000BF012D11D1DA48807800EB8000D94A7F
:101AF00002EB0010816C1CA835F058FDD548D0F8D9
:101B0000981014A835F052FD0FE0D148807800EB12
:101B10008000D04A02EB001001691CA835F046FD98
:101B2000CC48016E14A835F041FDAFF2FC43AFF292
:101B3000005214A91CA8FEF7F5FCADE0C44880785B
:101B4000012815D0C348436DC148807800EB800060
:101B5000C04901EB0010AFF2F0014268BC488DE8CB
:101B60000E008378002202214C202EF062FA12E04F
:101B7000B748807800EB8000B64901EB0010AFF267
:101B800048524368B248CDE90023837800220221FD
:101B900060202EF04EFA0422114600202EF07EF92D
:101BA000AB48807828B90223002205212C202EF092
:101BB00097FBA74890F8270038B3012812D00228D5
:101BC0002FD16420B4FBF0F100FB1147B4FBF0F817
:101BD000AFF6E413042211464C20CDE900872EF025
:101BE000D4FA1EE00A20B4FBF0F4B4FBF0F100FBE1
:101BF0001147B4FBF0F8AFF6F413042211464C2061
:101C0000CDE900872EF0C1FA0BE06420B4FBF0F7B9
:101C1000AFF60023042211464C2000972EF0B5FAAF
:101C200000BF00BF012D11D18948807800EB8000F2
:101C3000884A02EB0010816C1CA835F0B7FC85487F
:101C4000D0F8981014A835F0B1FC1FE080488078D7
:101C500000EB80007F4A02EB001041691CA835F0C0
:101C6000A5FC7C48416E14A835F0A0FC784880782B
:101C700000EB8000774A02EB001081690CA835F078
:101C800095FC7448816E04A835F090FC04AB0CAA56
:101C900014A91CA8FEF746FC24B0BDE8F08100B5ED
:101CA00091B0202109A835F0B7FD202101A835F019
:101CB000B3FD6748807800EB8000664A02EB0010B5
:101CC000816809A835F072FC6248816D01A835F081
:101CD0006DFCAFF2A463AFF2A86201A909A8FEF7F8
:101CE00021FC11B000BD70B598B00446202110A8A9
:101CF00035F092FD202108A835F08EFD20216846A0
:101D000035F08AFD5248807800EB8000514A02EBA2
:101D10000010C168684635F049FC4E48C16D08A8FE
:101D200035F044FC4A4890F8270018B3012810D039
:101D3000022829D16420B4FBF0F100FB1145B4FB6B
:101D4000F0F62B463246AFF6583110A835F030FA8F
:101D50001AE00A20B4FBF0F4B4FBF0F100FB1145EB
:101D6000B4FBF0F62B463246AFF6683110A835F0DA
:101D70001FFA09E06420B4FBF0F52A46AFF66C3197
:101D800010A835F015FA00BF00BF10A9684635F05D
:101D900096FCAFF26473AFF2687208A96846FEF76A
:101DA000C1FB4FF4C87030F0E9FC18B070BD00B54D
:101DB00091B0202109A835F02FFD202101A835F090
:101DC0002BFD2348807800EB8000224A02EB0010B4
:101DD000816B09A835F0EAFB1E48D0F8881001A8ED
:101DE00035F0E4FBAFF2B873AFF2BC7201A909A8F9
:101DF000FEF798FB4FF4C87030F0C0FC11B000BD86
:101E000000B591B0202109A835F006FD202101A8D8
:101E100035F002FD0E48807800EB80000D4A02EBA1
:101E20000010C16B09A835F0C1FB0A48D0F88C102E
:101E300001A835F0BBFBAFF60803AFF60C0201A911
:101E400009A8FEF76FFB142030F098FC11B000BD1C
:101E5000A40600109003001000B591B0202109A83D
:101E600035F0DAFC202101A835F0D6FCFA4880785C
:101E700000EB8000F94A02EB0010016C09A835F074
:101E800095FBF648D0F8901001A835F08FFBAFF61F
:101E90006003AFF6640201A909A8FEF743FB4FF403
:101EA000C87030F06BFC11B000BD10B590B02021AF
:101EB00008A835F0B1FC2021684635F0ADFCE848B3
:101EC0000088642190FBF1F201FB1204E248807863
:101ED00000EB8000E14901EB00102246E1A1C36A5A
:101EE00008A835F065F9DE480088642190FBF1F21E
:101EF00001FB1204D9482246DAA1C36F684635F0C7
:101F000057F9AFF6D403AFF6D802694608A8FEF732
:101F100009FB10B010BD00B591B0202109A835F023
:101F20007BFC202101A835F077FCCB48807800EBC2
:101F30008000CA4901EB0010AFF60411C26A09A87B
:101F400035F036F9C548AFF61011C26F01A835F06B
:101F50002FF9AFF62413AFF6281201A909A8FEF74E
:101F6000E1FA11B000BD00B591B0202109A835F00B
:101F700053FC202101A835F04FFCB748807800EBD6
:101F80008000B64A02EB0010016B09A835F00EFB89
:101F9000B248D0F8801001A835F008FBAFF67013F6
:101FA000AFF6741201A909A8FEF7BCFA642030F05C
:101FB000E5FB11B000BD00B591B0202109A835F0B6
:101FC0002BFC202101A835F027FCA348807800EBEA
:101FD0008000A24A02EB0010416B09A835F0E6FA36
:101FE0009E48D0F8841001A835F0E0FAAFF6C0138F
:101FF000AFF6C41201A909A8FEF794FA4FF4C8700D
:1020000030F0BCFB11B000BD00B591B0202109A893
:1020100035F002FC202101A835F0FEFB8E488078C7
:1020200000EB8000914A52F8201009A835F0BEFA62
:102030008E48416901A835F0B9FAAFF60C23AFF626
:10204000102201A909A8FEF76DFA11B000BD00B574
:1020500091B0202109A835F0DFFB202101A835F03F
:10206000DBFB7D48807800EB8000804A02EB80003B
:10207000816809A835F09AFA7C48C16901A835F051
:1020800095FAAFF65423AFF6582201A909A8FEF736
:1020900049FA642030F072FB11B000BD70B592B007
:1020A000044620210AA835F0B7FB202102A835F00C
:1020B000B3FB694890F8270088B3012817D002289D
:1020C0003FD16420B4FBF0F100FB1145B4FBF0F606
:1020D00061480095807800EB8000644901EB800046
:1020E000334663A142680AA835F062F829E00A2065
:1020F000B4FBF0F4B4FBF0F100FB1145B4FBF0F6D7
:1021000055480095807800EB8000584901EB80002D
:1021100033465AA142680AA835F04AF811E0FFE7B1
:102120006420B4FBF0F54C48807800EB80004F4908
:1021300001EB80002B4653A142680AA835F038F81D
:1021400000BF00BF4948816902A835F02FFA4EA3AD
:102150004DA202A90AA8FEF7E5F94FF47A7030F013
:102160000DFB12B070BD00B589B0202101A835F07B
:1021700053FB2DF099F9022030F000FB3B48016A37
:1021800001A835F013FA01AB0322052130202DF010
:10219000FCFF31488078012813D02F48807800EB6D
:1021A0008000324A02EB8000016901A835F0FEF997
:1021B00001AB29480093837800220B213C202DF0AD
:1021C00038FF09B000BD70B506460C4615462248DA
:1021D00090F82300C8B1012E02D0022E14D109E0DC
:1021E0002AA013F00DFD12F0E7FB0121084612F0C2
:1021F00093FF09E029A013F003FD12F0CAFB0021B0
:10220000012012F089FF00BF00BF134890F82100A1
:10221000C8B1012C02D0022C14D109E023A013F084
:10222000EFFC12F02CFD0121022012F075FF09E0F5
:1022300022A013F0E5FC12F007FD0021022012F0AD
:102240006BFF00BF00BF044890F82600F0B3012DDB
:102250003DD0022D41D13DE0A406001090030010B6
:1022600028000010256420257300000020050010C0
:102270002573253032642E253032640025732564A1
:102280002E25640025732564000000000D0A2041FE
:102290007070656E42696C6C000000000D0A204190
:1022A000707064697342696C6C0000000D0A204113
:1022B0007070656E436F696E000000000D0A20416A
:1022C0007070646973436F696E00000006E019F076
:1022D0000FFE02E019F0FBFD00BF00BF142030F03C
:1022E0004DFA70BD10B5FEF78DFBF0B9F9480078D6
:1022F000D8B9F948407A012817D1FEF783FB044684
:10230000F548437AF34802782146F4A013F078FCAC
:1023100012F00AFB142030F031FA0022114601209D
:10232000FFF751FF142030F029FA10BD7CB5F048BA
:1023300090F8220002287ED1EE48406DED49B1F8B8
:102340009E104843EB498A6DB1F8A01002FB0101D1
:10235000E848C26DB0F8A20002FB0011E548026E29
:10236000B0F8A40002FB0011E248426EB0F8A600EB
:1023700002FB0011DF48826EB0F8A80002FB0011DA
:10238000DC48C26EB0F8AA0002FB0011D948026F07
:10239000B0F8AC0002FB0011D648426FB0F8AE00B6
:1023A00002FB0011D348826FB0F8B00002FB0011AD
:1023B000D048C26FB0F8B20002FB0011CD48D0F88F
:1023C0008020B0F8B40002FB0011CA48D0F8842085
:1023D000B0F8B60002FB0011C648D0F88820B0F86B
:1023E000B80002FB0011C348D0F88C20B0F8BA0046
:1023F00002FB0011BF48D0F89020B0F8BC0002FBEF
:102400000015BB4890F82500022813D100240FE0E6
:10241000B848E83050F8240040B1B648E83050F8E9
:1024200024101C3030F8140001FB0055601CC4B2AD
:10243000072CEDDB00E050E0AD48806BA84202D2F3
:10244000AB48806B00E02846AB490860084603684B
:10245000A848E830CDE9005350F82400A74E36F8DC
:10246000146000FB06F3A348806DA24EB6F8A0608E
:1024700000FB06F29F48406D9E4EB6F89E6000FB42
:1024800006F19FA013F0BCFB9948806B9A4909683C
:10249000884211D9012012F049FE012840D1944808
:1024A00090F8230070B3002211460220FFF78BFE44
:1024B00001208849087033E0012012F037FE08BB84
:1024C0008B4890F82300E8B1002211460120FFF765
:1024D0007AFE00207F49087022E0854890F82200AB
:1024E000012810D112F0D1FD10B98148806B00E0B5
:1024F000002081490860084602688E4801688EA065
:1025000013F07EFB0CE07A4890F8220040B978483E
:10251000806B79490860874801688FA013F070FBD1
:10252000FFF7E0FE00207CBD014669B9704A92F8D1
:102530002E200F32FF2A01DDFF2203E06C4A92F8C1
:102540002E200F32D0B20CE001290AD1684A92F84D
:102550002E20FF2A01DDFF2202E0654A92F82E209C
:10256000D0B2704770B5624890F8210018B312F0ED
:1025700022FB0446FCB17D48006820447B4908608A
:10258000FEF740FA05460246214679A013F05AFBB1
:10259000022200210846FFF716FE0121204612F014
:1025A0003FFFFEF72FFA05460246A1B2012014F0C4
:1025B00060FD012070BD4E4890F8230090B312F0EA
:1025C00063F9044674B321466FA013F019FB7248F7
:1025D0000068011957480368474802686FA013F064
:1025E0000FFB6D48006820444349096888421AD2AD
:1025F00012F062F990B168480068204466490860AA
:102600000221204612F00CFFFEF7FCF905460246B7
:10261000A1B2022014F02DFD00244CE012F084F948
:102620000020C7E7E7E0324890F82400012837D1BE
:10263000FFF735FBFEF7E6F928B34FF4AF7030F043
:102640009DF80020FFF770FF5D49887103205D4908
:10265000087000205C4908705C4908705C480021E3
:1026600001805C48018081705B4800682FF046FE65
:1026700000205A4908605A4801780020FFF78EF977
:1026800012F052F908E0FEF7A9F900204D49087050
:1026900012F04AF9FDF788FF00205249086089E7E7
:1026A00050480460FEF7AEF905460246A1B2032089
:1026B00014F0DFFC00243848006820440E49096803
:1026C000884205D3022200211046FFF77CFD90E0EE
:1026D0008AE0000014000010F04700100D0A2045A9
:1026E000727242696C6C3D25642C25642C25640053
:1026F000A4060010E807001034000010EC080010D9
:102700000D0A4170704368616E676520353D256C28
:10271000642C313D256C642C7265633D256C642C02
:102720006D6F6E65793D256C642C6D61783D256C0F
:1027300064000000380000100D0A417070436861A9
:102740006E67652070726963653D256C642C6D61F0
:10275000783D256C640000000D0A4170704368618B
:102760006E6765206D61783D256C6400180000106F
:102770000D0A417070636F696E312E636F696E3D33
:10278000256C642C256C64000D0A322E4170706239
:10279000696C6C3D256C64001C0000100D0A4170D2
:1027A0007062696C6C3D256C642C4D6F6E65793D73
:1027B000256C642C70726963653D256C640D0A009C
:1027C000FC0800101300001011000010120000108F
:1027D0000F0000100C0000108C0000102C000010E6
:1027E0003100001020000010022200210846FFF7EF
:1027F000EAFC0120DEE6FB4890F8260038B3FA48F0
:1028000019F035FB0446F8480078012811D184B14D
:102810002146F6A013F05AFAFA4804600321204634
:1028200012F0FEFD002202210846FFF7CCFC012039
:10283000C0E6ED480078022809D1F3A013F046FA6B
:102840000020E9490870EF4908600220B2E6002044
:10285000B0E62DE9F0410026E24890F82500022874
:102860004ED1FEF7CFF80646F6B33146EDA013F091
:10287000C7F9002441E0F04850F82400A8B3EE481E
:1028800050F82400B6FBF0F0C5B22946EBA013F0D7
:10289000B7F9E9481C3030F81400A84201DB28469B
:1028A00003E0E5481C3030F81400C5B22946E8A022
:1028B00013F0A6F9E04951F8241001FB05F012F0DD
:1028C000CCF80746012F15D1E6480068E6490968AB
:1028D0000144D94850F8240000FB15160020E249B5
:1028E0000860E048066001E00AE004E03146DFA04D
:1028F00013F086F903E0601CC4B2072CBBDB00BFF9
:10290000BDE8F08138B5DD480068D8B112F00CF8A8
:1029100070B1FEF777F8D9490968451A2A46D748B1
:10292000006881B2042014F0A4FB0020D3490860A1
:102930002FF0D2FF05460146D1A013F071FA6420B2
:102940002FF01CFFFFF785FFFEF75CF870B12FF04A
:10295000C3FF05460146CEA013F062FAFEF752F817
:102960000546694619F036F8044600E0012414BB18
:10297000CDA013F055FAFEF745F80099451A284600
:1029800012F0B8FFFEF73EF80099401A85B20A46E9
:102990002946002013F0C5FCC8202FF0EFFE0022CE
:1029A0001146022014F065FB0020AE490860AE49D4
:1029B0000860009838BD2FF08FFF05460146BFA084
:1029C00013F02EFAFEF71EF80546002112F092FFD2
:1029D000FEF718F885B200222946104613F0A1FC34
:1029E0000020A0490860A049086000BFE2E72DE987
:1029F000F04100260024B6480468FEF703F8A04220
:102A000003D20720B3490870B3E07E48006878B16C
:102A1000FFF7F6F9A0B219F0FDFA0646012E03D130
:102A20000A20AC490870A4E00920AA490870A0E077
:102A30008C4800688C4909680844A0425BD28948E8
:102A40000068201A88490968451A8C480068451BA7
:102A5000644890F82200022801D101260EE0614866
:102A600090F82200012801D1012607E05D4890F886
:102A7000220018B90DB9012600E00026012E36D13A
:102A800011F01AFFF0B1784800687C4909680844E1
:102A90007549086002217948006812F0C1FCFDF711
:102AA000B1FF76490968471A3A467448006881B20E
:102AB000022014F0DEFA0020704908600A208549DF
:102AC000087056E011F030FFFDF79CFF6B49096874
:102AD000471A3A466948006881B2042014F0C9FADE
:102AE00000206649086008207A49087041E0082003
:102AF000784908703DE05B4800685B490968084414
:102B0000051B384890F82200022801D101260EE06A
:102B1000344890F82200012801D1012607E031480D
:102B200090F8220018B90DB9012600E00026012E08
:102B30001CD12C4890F82400012813D14F4800687C
:102B400080B111F0F1FEFDF75DFF4C490968471AAD
:102B50003A464A48006881B2042014F08AFA0020FC
:102B6000464908600A205B49087002E0082059497C
:102B70000870BDE8F08110B5044604B32148006830
:102B800060B155A013F0A2F8012019F08BFA1D488E
:102B90000068001B1B490860002410E032480068F0
:102BA000844206D330480068241A00202E49086069
:102BB00005E02D480068001B2B490860002424B163
:102BC00028480068001B2749086010BD054890F898
:102BD0002E00FF2805DA4548807908B901207047A2
:102BE00086E087E0A40600103C0000100D0A20419A
:102BF0007070526561646572312E726561643D2545
:102C00006C640000240000100D0A204170705265B1
:102C100061646572204F555450555420636172644D
:102C2000000000000D0A204170704E6565647061FF
:102C3000793D256C64000000D00800100D0A204189
:102C400070704E6565646E756D3D25640000000012
:102C50000D0A204170705265616C6E756D3D256482
:102C600000000000180000101C0000100D0A204198
:102C700070707061793D256C6400000020000010C8
:102C80000D0A20417070486F6C64526574256400B1
:102C90000D0A20417070426567696E206368616E3D
:102CA00067652564000000000D0A204170706368AC
:102CB000616E6765204661696C0000000D0A204165
:102CC00070706368616E6765207375636325640067
:102CD0002C000010130000100D0A204170704348B2
:102CE0007568756F5375636300000000FC08001081
:102CF000002070470020FCE70EB5FF488379FF48AD
:102D0000807800EB8000FE4901EB0010FDA1426CD1
:102D1000FA488DE80E0083780022114696202DF0A7
:102D200088F90EBD70B504460125F4B3F748006874
:102D3000F74909680844A0422AD211F0BDFDB0B19C
:102D4000F3480068F34909680844F1490860FDF751
:102D500059FEF0490968461A3246EE48006881B2C9
:102D6000022014F086F90020EA49086010E011F012
:102D7000DBFDFDF747FEE7490968461A3246E5489C
:102D8000006881B2042014F074F90020E149086061
:102D9000FDF738FE064602462146DFA013F040F854
:102DA000FDF730FEA04203D300E002E0012500E081
:102DB0000025FDF727FE90B30320DE4908700020B0
:102DC000FFF7B2FBCC498871DA480078032842D17A
:102DD000CF480068D8490968884204D200220121FE
:102DE0000846FFF7F0F90020D4490870D44908706C
:102DF000D44800210180D44801808170D348006804
:102E00002FF07CFA2CF050FBD14801780020FEF71F
:102E1000C5FDFDF7F7FD064614F06DFF1BE0FFE76B
:102E2000002201210846FFF7CEF90020C3490870AF
:102E3000C3490870C34800210180C34801808170E4
:102E4000C24800682FF05AFA2CF02EFBFFF78BF9DE
:102E50000E20B8490870284670BD70B5044600259C
:102E6000C4B3BC480068A0B1FEF7CAFF002019F047
:102E7000D1F80546012D54D1B7A012F027FF01204B
:102E800019F010F9B3480068001BB249086000242B
:102E900047E09E4800689E4909680844A0422FD236
:102EA00011F00AFDB8B19A4800689A4909680844C7
:102EB00097490860FDF7A6FD96490968461A32460B
:102EC0009448006881B2022014F0D3F800209149A0
:102ED000086011E025E011F027FDFDF793FD8D4915
:102EE0000968461A32468B48006881B2042014F003
:102EF000C0F80020874908604FF448702FF03EFC6E
:102F000083480068844206D381480068241A002060
:102F10007F49086005E07E480068001B7C49086026
:102F2000002424B179480068001B78490860FDF747
:102F300069FD90B303207F4908700020FFF7F4FA81
:102F40006D4988717B480078032842D17048006839
:102F500079490968884204D2002201210846FFF716
:102F600032F90020754908707549087075480021CC
:102F70000180754801808170744800682FF0BEF9A7
:102F80002CF092FA724801780020FEF707FDFDF759
:102F900039FD064614F0AFFE1BE0FFE700220121D9
:102FA0000846FFF710F9002064490870644908706A
:102FB0006448002101806448018081706348006892
:102FC0002FF09CF92CF070FAFFF7CDF80E2059493C
:102FD000087070BD2DE9F04F87B004460E461546C7
:102FE000002700200690FEF796FF002202210846E7
:102FF000FFF7E9F82FF070FC804601465BA012F065
:103000000FFF642094FBF0F000F0FF08642094FBB5
:10301000F0F100FB114000F0FF0942460121484653
:103020000BF024F80746354890F82F00012804D00B
:10303000324890F82F0003285CD1012F5BD1FDF7B7
:10304000E1FC08B912F0D8F9012D01D0022D02D10E
:103050003046FFF790FD41203B490870642094FB07
:10306000F0F100FB11400A2190FBF1F030303649BD
:103070004870642094FBF0F100FB11400A2190FBA2
:10308000F1F201FB120030302F4988703C48066095
:103090003C4803783A4801682B48CDE90153009138
:1030A00083784278017838A02BF0AAFC3548017863
:1030B0000078401C334B18702B46234A3048006878
:1030C00012F0EDF9642094FBF0F000F0FF0A6420A8
:1030D00094FBF0F100FB114000F0FF0B524602217F
:1030E000584617F010F800F0FF08FDF78BFC05902C
:1030F000642069E0A6E07BE0FC080010A406001054
:103100009003001025732530326400001800001071
:103110001C000010200000100D0A2041707020508B
:10312000726963653D256C642C6D6F6E65793D2514
:103130006C64000013000010340000101100001037
:10314000120000100F0000100C0000108C00001086
:1031500031000010240000100D0A2041707050430F
:10316000436F737453756363000000000D0A2025DC
:103170006441707055626F7856656E646F75740047
:103180002C000010300000104C6F675472616E7399
:10319000616374696F6E415049206C6F6769633D6C
:1031A0002563256325632070726963653D2564206E
:1031B000747970653D25782C7472616E4E756D73EF
:1031C0003D25640D0A20000094FBF0F100FB114046
:1031D00000F0FF09059A2B46CDE9012800964A46E2
:1031E0000121002014F0E7F80B20FF49087003E1EB
:1031F000FEF7E1FE642094FBF0F000F0FF0A64208B
:1032000094FBF0F100FB114000F0FF0B524602214D
:10321000584616F078FF00F0FF08FDF7F3FB059025
:10322000642094FBF0F100FB114000F0FF09059AC7
:103230002B46CDE9012800964A460121992014F039
:10324000BAF8D9E0E94890F82F0002287ED1012F82
:1032500052D1FEF788FE3046FFF7FFFD642094FB55
:10326000F0F100FB11400A2190FBF1F03030C0B2C8
:103270008DF818000A2094FBF0F100FB114030306B
:10328000C0B28DF8190012F0B7F8D948017800786B
:10329000401CD74B18702B4606AA304612F0FFF898
:1032A000642094FBF0F000F0FF0B642094FBF0F13D
:1032B00000FB1140C0B25A460221049016F023FFD1
:1032C00000F0FF08FDF79EFB0590642094FBF0F1F1
:1032D00000FB114000F0FF09642094FBF0F000F0C7
:1032E000FF0A059A2B46CDE9012800964A46514629
:1032F000002014F060F82FE0FEF75DFE642094FBE0
:10330000F0F000F0FF0A642094FBF0F100FB1140A4
:1033100000F0FF0B52460221584616F0F4FE00F072
:10332000FF08FDF76FFB0590642094FBF0F100FBB4
:10333000114000F0FF09642094FBF0F0C0B204904B
:10334000059A2B46CDE90128009600E039E04A466F
:103350000146022014F02FF8FDF754FB90B3032030
:10336000A14908700020FFF7DFF8A24988719E4844
:103370000078032840D1A0480068A0490968884225
:1033800004D2002201210846FEF71DFF00209C49BF
:1033900008709C4908709C48002101809B4801806E
:1033A00081709B4800682EF0A9FF2CF07DF89948A9
:1033B00001780020FEF7F2FAFDF724FB804614F0B6
:1033C0009AFC19E0FFE7002201210846FEF7FBFE08
:1033D00000208B4908708B4908708B4800210180C0
:1033E0008A48018081708A4800682EF087FF2CF09F
:1033F0005BF80E207C49087007B0BDE8F08F2DE91E
:10340000F04F85B004460F4615461E46774890F8A3
:103410002F0002282BD1642094FBF0F000F0FF0A6B
:10342000642094FBF0F100FB114000F0FF0B5246CA
:103430000221584616F067FE00F0FF08FDF7E2FA99
:103440000490642094FBF0F100FB114000F0FF09B0
:10345000642094FBF0F0C0B20390049A2B46CDE9AF
:10346000012800974A460146304613F0A4FF05B0F4
:10347000BDE8F08F10B5FDF7C5FAD8B1FFF742FAF5
:103480004FF4C8702FF07AF900205D4908705D494B
:1034900008705D48002101805C48018081705C48B3
:1034A00000682EF02BFF2BF0FFFFFEF75CFE0E20D6
:1034B0004D490870002202210846FEF784FEC8200C
:1034C0002FF05CF91EF098FC4FF4C8702FF056F9FD
:1034D000002201210846FEF776FE10BD70B5FDF70B
:1034E00091FAB0B1FEF790FD2FF0F6F905460146CE
:1034F00049A012F095FCFFF705FA04461CB12046DE
:10350000FEF7CCFD01E0FEF7A2FD0E203649087063
:103510001EE0FEF779FDAFF6700012F081FC00218D
:10352000084612F0E7F900221146104612F0F9FEA3
:10353000C8202FF023F900221146022013F099FD34
:103540000020384908602C4908600E202649087080
:1035500070BD88B0002007900024002506900590DB
:1035600024498870C870087148712DF05FF938B12E
:10357000022211461046FEF726FE13201A49087053
:1035800001200DF0D4FE28490860184890F89800F2
:10359000012802D114F090FA02E0012014F078FA28
:1035A00001202DF0AFF92BF07FFFFDE30E480078EE
:1035B00033F0D4FC0C48007814287ED2DFE800F009
:1035C0000AC5FBFAF9F8F7F6F5F4F3F2F1F0EFEECD
:1035D000EDECEBEA15480068C82802D90020134931
:1035E00008600448807823E013000010A40600104F
:1035F00030000010FC0800101C0000103400001007
:1036000011000010120000100F0000100C0000103C
:103610008C000010310000100D0A204170705475AC
:1036200069256400180000103800001040000010E8
:1036300030B90520FF498870FCF7C2FF13F0F1FC98
:1036400005A9002014F01DFD07909DF81C0098B1FD
:103650009DF81C003C2803D09DF81C003E2805D195
:103660000020F5490870F549087005E00520F1498A
:1036700048710120F2490870EE48007920B9052010
:10368000EC490871FEF752FEFEF76CFF0446012C70
:1036900020D111F066FB2BF007FFEA48017828469D
:1036A000FEF77CF9FDF7AEF907460146E6A012F0F9
:1036B000A7FA11F0A1FE284600E08BE2FEF734FFE6
:1036C000DC498871FDF79EF9074614F014FB0320CE
:1036D000DB490870D748C078C8B90520D549C870FB
:1036E00011F062FB11F0ECFB88B10020D149887029
:1036F00012F0C8FB64202FF041F82BF0D5FE022217
:1037000011461046FEF75FFD0F20CD4908702DF0E1
:103710008DF838B1022211461046FEF754FD1320F1
:10372000C7490870012010F0DFFEFDF76BF907466E
:1037300012F014FF2DF0D2F8074618F0FFFE00201B
:1037400018F013FF14F0F8FC44E29DF81C0058B187
:103750000520B8494871FDF755F908B9FDF721F979
:1037600005A907A8FDF75AF905A9012014F089FC5D
:103770000790B048407918B943200790022005907F
:10378000AF480078032817D1AE4801782846FEF7E5
:1037900005F916E0B6E39EE35EE332E3E0E2B1E270
:1037A000A0E26BE217E201E1E3E0B9E094E092E02D
:1037B0008EE08CE030E005E0A148007808B92BF0FD
:1037C00073FEE6E39DF81C0050B11420994948713E
:1037D000FDF718F908B9FDF7E4F807A8FDF7D1FCE3
:1037E00005A9012014F04DFC07909248407918B9C2
:1037F000432007900220059091480078032805D1C6
:10380000904801782846FEF7C9F804E08C48007813
:1038100008B92BF049FEBCE3FEF7A4FE0446012CD8
:1038200015D1884801782846FEF7B8F82846FEF7F3
:103830007BFE80498871FDF7E5F8074614F05BFAD6
:10384000FDF7E0F8074601467FA012F0D9F905A977
:10385000002014F016FC07909DF81C0028B10520EC
:103860007449487101207649087011F051FA10B975
:10387000FFF7ACF978B17948407808B1012D0AD149
:103880007748006838B9002202210846FEF79BFC01
:103890000D206B490870734890F82E00FF2809DA54
:1038A0006E48407808B1012D04D16D48006808B910
:1038B000FFF722FA022C02D10E2061490870FDF7B1
:1038C000A1F8074612F04AFE14F036FC61E360E30B
:1038D000FFF78DF85DE35CE363480068FEF703FAE9
:1038E0002846FEF721FE5349887103205449087089
:1038F000002051490870514908705C48002101803E
:103900005B48018081705B4800682EF0F7FC002066
:10391000554908604B4801782846FEF73FF838E3E0
:10392000FEF745FAFDF76EF8F8B12846FEF7FCFD04
:103930004049887103204249087000203E490870C0
:103940003E49087049480021018049480180817042
:10395000484800682EF0D2FC0020434908603948EE
:1039600001782846FEF71AF802E00E203449087064
:103970000FE3FEF771FA03203149087000202E4949
:1039800008702E49087039480021018038480180AC
:103990008170384800682EF0B1FC00203249086080
:1039A000284801782846FDF7F9FFF2E200220221BB
:1039B0000846FEF708FCFEF778FA2F4800886421D5
:1039C00090FBF1F0C7B22C48008890FBF1F201FBAC
:1039D000120000F0FF083A46012140460AF046FB7B
:1039E0000690069801287DD11F480068FFF7C3F8AC
:1039F0001B48006860B1214801780078401C1F4BCB
:103A0000187005231A4A1848006811F048FD0BE0A9
:103A10001A4801780078401C184B18700023144A8B
:103A20001148006811F03BFD13480088642190FBA9
:103A3000F1F025E0FC080010110000101200001049
:103A400013000010310000100D0A20417070326127
:103A50006D6F756E743D256C640000006407001086
:103A600024000010A40600102C0000100F0000100D
:103A70000C0000108C000010280000103000001016
:103A800000F0FF0AF948008890FBF1F201FB1200F8
:103A900000F0FF0B52460221584616F034FBC7B225
:103AA000FCF7B0FF0490F1480088642190FBF1F22C
:103AB00001FB120000F0FF08EC48008890FBF1F0D9
:103AC00000F0FF09EA48049A016800238DE88600A7
:103AD00042464946184613F06EFC0B20E549087033
:103AE00075E0FFE7E448006828B1E4A012F0EEF8C2
:103AF000022018F0D7FAE64890F82F00012804D0E9
:103B0000E34890F82F0003282CD1D848008864217E
:103B100090FBF1F000F0FF09D448008890FBF1F22F
:103B200001FB120000F0FF0A4A460221504616F03F
:103B3000EAFAC7B2FCF766FF8346CC4800886421E6
:103B400090FBF1F201FB120000F0FF08C848016889
:103B500000234246CDE901B700910121992013F0DD
:103B60002AFC31E0C1480088642190FBF1F000F0AC
:103B7000FF0ABE48008890FBF1F201FB120000F042
:103B8000FF0B52460221584616F0BDFAC7B2FCF7A9
:103B900039FF0490B5480088642190FBF1F201FBE5
:103BA000120000F0FF08B148008890FBF1F000F02F
:103BB000FF09AF48049A016800238DE88600424659
:103BC0004946022013F0F7FB0C20AA490870002098
:103BD000A7490860DDE1FEF7C6F9AE480078012884
:103BE0003CD1FCF70FFFC0B30320A24908700125A8
:103BF0002846FEF799FCA84988719E48007803285A
:103C00003BD1A6480068A6490968884204D2002230
:103C100001210846FEF7D7FA0020A2490870A24900
:103C20000870A24800210180A14801808170A1484C
:103C300000682EF063FB2BF037FC9F480178284684
:103C4000FDF7ACFEFCF7DEFE074614F054F805A9BC
:103C5000002014F016FA07900FE0FFE7FCF7D2FE01
:103C600040B1954801782846FDF798FE0D2081491E
:103C7000087002E00E207F4908708AE1FEF79BF988
:103C8000FCF7C0FE68B303207A4908700125284676
:103C9000FEF74AFC8049887176480078032820D1D5
:103CA0007E4800687E490968884204D200220121CA
:103CB0000846FEF788FA00207A4908707A490870A9
:103CC0007A48002101807A48018081707948006833
:103CD0002EF014FB2BF0E8FB774801782846FDF71F
:103CE0005DFE56E1FEF790F9FEF70CFE06461EB1AA
:103CF0003046FEF7D3F901E0FEF7A9F90E205D4941
:103D0000087046E1FEF72FFAFCF768FE0025002058
:103D10006A49087055490880674908705E4908710A
:103D2000012211461046FEF74EFA00206449087041
:103D300001200DF0FCFA6349086011F05AFE544866
:103D400090F89800012802D113F0B6FE02E001209D
:103D500013F09EFE2BF0A8FB00204649087018E1E6
:103D60004D48807820B91E204B498870FCF70BFD28
:103D70004948C07818BB05204749C87011F014F8AD
:103D8000012010F0B1FB11F09BF898B900204249D6
:103D900088702BF089FB012211461046FEF713FABA
:103DA00064202EF0EBFC00E0F7E012F06BF800204E
:103DB00030490870FCF726FE074612F0CFFB2CF0C6
:103DC00035FD10B113202B490870FEF7CBFB0446DC
:103DD000012C15D110F0C5FF2BF066FB3648017899
:103DE0002846FDF7DBFDFCF70DFE07460146AFF266
:103DF000A83011F005FF11F0FFFA10201D490870DE
:103E0000C7E0FEF7AFFB0446012C0CD12A4801782D
:103E10002846FDF7C3FDFCF7F5FD07460146AFF266
:103E2000D83011F0EDFE10F073FF50B11248006869
:103E300038B9002202210846FEF7C5F911200D49C4
:103E40000870022C02D112200A490870FCF7DAFD32
:103E5000074612F083FB9CE0FEF7D6F8FEF752FD12
:103E600006468EB33046FEF719F930E02800001000
:103E70002C00001013000010240000100D0A204137
:103E8000707043487568756F4661696C000000008A
:103E9000A406001064070010FC0800101C000010AD
:103EA0003400001011000010120000100F0000106C
:103EB0000C0000108C0000103100001030000010C9
:103EC0001400001038000010FFE7FEF7C0F81220C1
:103ED000334908705DE0FEF746F9FCF77FFD0025E9
:103EE000002030490870304908802BF0DDFA0022AC
:103EF00001210846FEF767F911F07BFD0F202849E4
:103F0000087046E0002013F0C3FD284890F82F0009
:103F100010B1012011F017F900BFFCF773FD07463F
:103F200012F01CFB002007F052FC2CF07FFC002854
:103F3000F3D11F4988702BF0B7FA012211461046C1
:103F4000FEF741F900201B490870184890F82F002F
:103F500058B10023009301931A4619460520029395
:103F600012F037FA002011F0EEF801200DF0DFF921
:103F7000114908600D4890F89800012802D113F00B
:103F80009BFD02E0012013F083FD0020044908702E
:103F900000BF00BF02202EF0F1FBFFF707BB0000BF
:103FA000130000103000001028000010A4060010BC
:103FB000FC0800101400001038000010F0B585B0A7
:103FC00000260027FBA103C9CDE901012BF06CFA03
:103FD000FAA02AF015FDB8E00F23EF2200210846D1
:103FE0002CF0C3F90323EF22002108462CF0BDF981
:103FF000F8488078F84951F82030F64800938378E3
:104000000022012108202CF014F8F2488178F248AF
:10401000143050F82130EF480093837800220621B5
:1040200030202CF006F80E23EE220D2101202BF07B
:1040300075FAE8488178E8483C3050F82130E54886
:104040000093837800220D211C202BF0F2FF7BE0EF
:10405000002700240AE0342101EB0411C8B2002338
:10406000DEA209212BF084FA601CC4B2082CF2DB1A
:1040700069E02CF0A7FB0546F5B3432D02D10020E3
:1040800005B0F0BD03A8855531013431C8B2002315
:10409000D3A209212BF06CFA701CC6B2082E4FD1A6
:1040A00000260127002408E003A8005D01A9095D9E
:1040B000884200D00027601CC4B2082CF4DB012F1A
:1040C00001D10120DCE70E23EE220D2101202BF08F
:1040D00025FAC0488178C048283050F82130BD48C2
:1040E0000093837800220D2130202BF0A2FF4FF4A3
:1040F000C8702EF043FB00E022E00E23EE220D21DB
:1041000001202BF00BFAB3488178B3483C3050F8CB
:104110002130B0480093837800220D2130202BF00D
:1041200088FF00240AE0342101EB0411C8B2002307
:10413000AAA209212BF01CFA601CC4B2082CF2DBE5
:1041400005202EF01BFB94E782E745E738B52BF0FE
:10415000ABF90F23EF22002108462CF006F90323C8
:10416000EF22002108462CF000F94CE00E23EE224D
:10417000042101202BF0D2F996488078994951F812
:1041800020309448009383780022012108202BF0EE
:1041900050FF904881789348143050F821308D4872
:1041A00000938378002207213C202BF042FF8948AE
:1041B00081788C48283050F82130864800938378E5
:1041C00000220B2128202BF034FF8248817885487B
:1041D0003C3050F821307F480093837800220B2137
:1041E0008C202BF026FF0DE02CF0ECFA0446432C3B
:1041F00001D1002038BD452C01D10120FAE70A2069
:104200002EF0BCFAF0E7B1E770B50025714890F8E0
:10421000220002286CD17448406D7349B1F89E1099
:10422000484371498A6DB1F8A01002FB01016E4844
:10423000C26DB0F8A20002FB00116B48026EB0F82C
:10424000A40002FB00116848426EB0F8A60002FB11
:1042500000116548826EB0F8A80002FB00116248A8
:10426000C26EB0F8AA0002FB00115F48026FB0F8FE
:10427000AC0002FB00115C48426FB0F8AE0002FBDC
:1042800000115948826FB0F8B00002FB0011564887
:10429000C26FB0F8B20002FB00115348D0F8802082
:1042A000B0F8B40002FB00114F48D0F88420B0F8F9
:1042B000B60002FB00114C48D0F88820B0F8B800D6
:1042C00002FB00114848D0F88C20B0F8BA0002FB7D
:1042D00000114548D0F89020B0F8BC0002FB001453
:1042E0003C48806BA04201D901250FE000250DE07C
:1042F000384890F82200012803D110F0C6FE054688
:1043000004E0344890F8220000B90025284670BD2A
:1043100070B5044600252F4890F82F00022817D1C9
:10432000012C0BD110F0C9FD054610F0C6FD064664
:10433000024629462DA011F073FD09E0022C07D199
:10434000304890F8BC5090F8BC102FA011F068FDD8
:10435000284670BD0146012902D002290DD105E091
:104360001C4880782F4A52F82000704719488278FC
:104370002C48143050F82200F7E716488278294874
:10438000283050F82200F0E700B589B000200890EE
:10439000032007902BF088F80F23EF220021084616
:1043A0002BF0E3FF0323EF22002108462BF0DDFF73
:1043B000FEE300003833373138353537456E7465E4
:1043C0007253656C66436865636B46756374696FA9
:1043D0006E0D0A00A4060010DC8E03005F000000D2
:1043E0002A0000002C8F0300E80700100D0A20416E
:1043F00070702050434572726F725363616C653DFB
:1044000025640000100900100D0A20417070205032
:10441000434572726F724F66664C696E653D2564E6
:1044200000000000649803000E23EE220421012006
:104430002BF074F80320079008980A287ED2DFE852
:1044400000F005D5FEFDFCFBFAF9F8F70123FF4863
:104450008178FF4850F82120FEA1FC488DE80E002D
:104460008078034600220121059008202BF0E1FD11
:10447000F64890F8230002287ED1F8488078A0B151
:10448000F2488178F248143050F82130EF48009318
:10449000807805900798801CC0B207900490002295
:1044A00001460520059B2BF0C4FDEC48C078A0B167
:1044B000E6488178E648283050F82130E3480093F8
:1044C000807805900798801CC0B207900490002265
:1044D00001460520059B2BF0ACFDE0480079A0B11A
:1044E000DA488178DA483C3050F82130D7480093D8
:1044F000807805900798801CC0B207900490002235
:1045000001460520059B2BF094FDD4484079A0B1CD
:10451000CE488178CE48503050F82130CB480093B7
:10452000807805900798801CC0B207900490002204
:1045300001460520059B2BF07CFD00E09BE2C7486F
:104540008079A0B1C1488178C148643050F82130E9
:10455000BE480093807805900798801CC0B20790F1
:104560000490002201460520059B2BF062FDBB480C
:10457000807808B9B94800E019E0C078B8B9B74800
:104580000079A0B9B548407988B9B448807970B944
:10459000AE488178B24850F82130AC48009380781A
:1045A000034600220721059005202BF042FDA74875
:1045B0008078A749283951F82000049033F01AF880
:1045C000C000C0F1E700C0B20590A0488078A049C3
:1045D000283951F820309D48009380780346002206
:1045E0000D21049005982BF024FD44E20223974806
:1045F0008178974850F8212096A194488DE80E00C4
:104600008078034600220121059008202BF011FD3F
:104610008E4890F8230002287ED19048C079E8B1F6
:104620008A4881788A48783050F82130874807E0F6
:10463000FEE3FEE3FEE38DE3CDE21DE26BE191E0FC
:104640000093807805900798801CC0B20790049072
:10465000002201460520059B2BF0EBFC7F48007AE9
:10466000A0B17A4881787A488C3050F82130774868
:104670000093807805900798801CC0B20790049042
:10468000002201460520059B2BF0D3FC7348407A9D
:10469000A0B16E4881786E48A03050F821306B4848
:1046A0000093807805900798801CC0B20790049012
:1046B000002201460520059B2BF0BBFCFFF7A4FD63
:1046C000A0B1624881786248B43050F821305F4828
:1046D0000093807805900798801CC0B207900490E2
:1046E000002201460520059B2BF0A3FC5B48C07906
:1046F00090B95A48007A78B95848407A60B9FFF7BB
:1047000083FD48B951488178554850F821304F48C9
:1047100000938078034600E005E000220721059021
:1047200005202BF086FC494881784948143850F818
:104730002100049032F05EFFC000C0F1E700C0B27B
:104740000590424881784248143850F821303F485B
:1047500000938078034600220D21049005982BF0E9
:1047600068FC88E10123394881783948C83050F81D
:10477000212038A135488DE80E00807803460022BC
:104780000121059008202BF054FC304890F82100BE
:10479000022869D13148807AA0B12C4881782C4810
:1047A000DC3050F821302948009380780590079834
:1047B000801CC0B207900490002201460520059B92
:1047C0002BF037FC2548C07AA0B1204881782048DA
:1047D000F03050F821301D480093807805900798FC
:1047E000801CC0B207900490002201460520059B62
:1047F0002BF01FFC1948007B98B1144881781948A8
:1048000050F8213011480093807805900798801C5B
:10481000C0B207900490002201460520059B2BF0B2
:1048200008FC0E48407B20B3084881780D481430BE
:1048300050F8213005480093807805900798801C37
:10484000C0B207900490002201460EE0A4060010BA
:104850004490030025732D2564000000F0470010EC
:10486000DC9303004891030038E00520059B2BF002
:10487000E0FBFF48807B98B1FE488178FE4850F805
:104880002130FC480093807805900798801CC0B2C6
:1048900007900490002201460520059B2BF0C9FBE0
:1048A000F348807AD0B9F248C07AB8B9F048007BB2
:1048B000A0B9EF48407B88B9ED48807B70B9ED48DE
:1048C0008178EE4850F82130EA480093807803461A
:1048D00000220721059005202BF0ABFBE5488178ED
:1048E000E74850F82100049032F084FEC000C0F187
:1048F000E700C0B20590DF488178E14850F82130E8
:10490000DC4800938078034600220D21049005982E
:104910002BF08FFBAFE00223D6488178D64864386D
:1049200050F82120AFF2D401D2488DE80E008078F3
:10493000034600220121059008202BF07AFBCD4888
:1049400090F8210002287AD1C948C07BA0B1C9489B
:104950008178C948143050F82130C64800938078D7
:1049600005900798801CC0B2079004900022014671
:104970000520059B2BF05DFBBD48007CA0B1BD4828
:104980008178BD48283050F82130BA4800938078AB
:1049900005900798801CC0B2079004900022014641
:1049A0000520059B2BF045FBB148407CA0B1B148E8
:1049B0008178B1483C3050F82130AE48009380787F
:1049C00005900798801CC0B2079004900022014611
:1049D0000520059B2BF02DFBA548807CA0B1A548A8
:1049E0008178A548503050F82130A2480093807853
:1049F00005900798801CC0B20790049000220146E1
:104A00000520059B2BF015FB9948C07BB8B9984849
:104A1000007CA0B99648407C88B99548807C70B9E4
:104A200094488178954850F82130924800938078D6
:104A3000034600220721059005202BF0FAFA8D4845
:104A400081788F4850F82100049032F0D3FDC000E7
:104A5000C0F1E700C0B2059086488178884850F8D8
:104A60002130844800938078034600220D21049071
:104A700005982BF0DEFA37E27E4881787E48643074
:104A800050F821307B4800938078034600220121B2
:104A9000059008202BF0CDFA764890F822000128E6
:104AA0007AD17348C07CE8B17148C07C0490FFF7AC
:104AB00051FC034605906F4881786F48783050F874
:104AC000212070A16B488DE80E0080780490079833
:104AD000801CC0B207900390002201460520049B71
:104AE0002BF0A7FA6248007DE8B16148007D049090
:104AF000FFF730FC034605905E4881785E488C30B5
:104B000050F821205FA15B488DE80E00807804906A
:104B10000798801CC0B20790039000220146052030
:104B2000049B2BF086FA5248407DE8B15048407D06
:104B30000490FFF70FFC034605904E4881784E48DD
:104B4000A03050F821204FA14A488DE80E0080780F
:104B500004900798801CC0B2079003900022014681
:104B60000520049B2BF065FA4148C07CA0B9404861
:104B7000007D88B93E48407D70B93E4881783F4805
:104B800050F821303B4800938078034600220721EB
:104B9000059005202BF04DFA36488178384850F8BA
:104BA0002100049032F026FDC000C0F1E70000E0D3
:104BB000D3E3C0B205902F488178314850F82130B6
:104BC0002C4800938078034600220D21049005981C
:104BD0002BF02FFA9CE30123264881782648B43035
:104BE00050F82120AFF2943122488DE80E008078F1
:104BF000034600220121059008202BF01AFA1D48D7
:104C000090F82D0001282FD11948807DA0B11948B6
:104C100081781948C83050F82130164800938078C0
:104C200005900798801CC0B20790049000220146AE
:104C30000520059B2BF0FDF90D48C07DA0B10D4866
:104C400081780D48DC3050F821300A480093807894
:104C500005900798801CC0B207900490002201467E
:104C60000520059B2BF0E5F90148007E10B30DE00F
:104C7000F0470010A406001070910300DC930300BD
:104C8000309003002573257300000000FE488178F2
:104C9000FE4850F82130FC48009380780590079832
:104CA000801CC0B207900490002201460520059B9D
:104CB0002BF0BFF9F648407EA0B1F3488178F34865
:104CC000143050F82130F048009380780590079810
:104CD000801CC0B207900490002201460520059B6D
:104CE0002BF0A7F9EA48807DB8B9E948C07DA0B9A2
:104CF000E748007E88B9E648407E70B9E24881788E
:104D0000E44850F82130E0480093807803460022C0
:104D10000721059005202BF08CF9DB488178DE48CF
:104D200050F82100049032F065FCC000C0F1E700AB
:104D3000C0B20590D4488178D74850F82130D24885
:104D400000938078034600220D21049005982BF0F3
:104D500070F9DDE20223CC488178CC483C3850F829
:104D60002120AFF21051C8488DE80E00807803462C
:104D700000220121059008202BF05BF9C448807EB9
:104D8000A0B1C1488178C148283050F82130BE48D0
:104D90000093807805900798801CC0B2079004901B
:104DA000002201460520059B2BF043F9B848C07E40
:104DB000A0B1B5488178B5483C3050F82130B248B0
:104DC0000093807805900798801CC0B207900490EB
:104DD000002201460520059B2BF02BF9AC48007FF3
:104DE000A0B1A9488178A948503050F82130A64890
:104DF0000093807805900798801CC0B207900490BB
:104E0000002201460520059B2BF013F9A048407FA6
:104E1000C0B19D4881789D48643050F821309A484F
:104E20000093807805900798801CC0B2079002E03C
:104E3000ECE133E159E00490002201460520059B96
:104E40002BF0F7F89248807FA0B18F4881788F4887
:104E5000783050F821308C4800938078059007987E
:104E6000801CC0B207900490002201460520059BDB
:104E70002BF0DFF88648807ED0B98548C07EB8B96F
:104E80008348007FA0B98248407F88B98048807FEE
:104E900070B97D4881787F4850F821307A48009376
:104EA0008078034600220721059005202BF0C1F8E9
:104EB00075488178784850F82100049032F09AFBC8
:104EC000C000C0F1E700C0B205906F488178724819
:104ED00050F821306C4800938078034600220D2161
:104EE000049005982BF0A5F812E203236648817818
:104EF00066483C3850F82120AFF2A86162488DE83E
:104F00000E008078034600220121059008202BF036
:104F100090F85F48C07FA0B15B4881785B488C30D7
:104F200050F8213058480093807805900798801CED
:104F3000C0B207900490002201460520059B2BF08B
:104F400078F8534890F82000A0B14F4881784F4836
:104F5000A03050F821304C48009380780590079895
:104F6000801CC0B207900490002201460520059BDA
:104F70002BF05FF8464890F82100A0B142488178B4
:104F80004248B43050F821303F4800938078059073
:104F90000798801CC0B207900490002201460520AB
:104FA000059B2BF046F83A4890F82200A0B136480D
:104FB00081783848B43850F82130334800938078ED
:104FC00005900798801CC0B207900490002201460B
:104FD0000520059B2BF02DF82D4890F82300A0B15B
:104FE000294881782B48A03850F821302648009372
:104FF000807805900798801CC0B20790049000222A
:1050000001460520059B2BF014F82148C07FF0B91C
:105010001F4890F82000D0B91D4890F82100B0B981
:105020001B4890F8220090B9194890F8230070B9F5
:1050300015488178174850F821301348009380783C
:10504000034600220721059005202AF0F2FF0E48B2
:105050008178114850F82100049032F0CBFAC0005A
:10506000C0F1E700C0B20590074881780A4850F8BF
:105070002130054800938078034600220D210490DA
:1050800005982AF0D6FF43E1A406001060920300C1
:10509000F0470010DC930300309003000423FF4826
:1050A0008178FF4850F82120AFF65801FB488DE881
:1050B0000E008078034600220121059008202AF086
:1050C000B8FFF84890F8240098B1F4488178F64881
:1050D00050F82130F1480093807805900798801CA3
:1050E000C0B207900490002201460520059B2AF0DB
:1050F000A0FFEC4890F82500A0B1E8488178EA4884
:10510000143050F82130E5480093807805900798D6
:10511000801CC0B207900490002201460520059B28
:105120002AF087FFDF4890F82600A0B1DB4881789D
:10513000DD48283050F82130D84800938078059019
:105140000798801CC0B207900490002201460520F9
:10515000059B2AF06EFFD34890F82700A0B1CF48F6
:105160008178D1483C3050F82130CC480093807889
:1051700005900798801CC0B2079004900022014659
:105180000520059B2AF055FFC64890F8240000BB77
:10519000C44890F82500E0B9C24890F82600C0B98C
:1051A000C04890F82700A0B9BC488178BE488C3030
:1051B00050F82130B9480093807805900798801CFA
:1051C000C0B207900490002201460520059B2AF0FA
:1051D00030FFB2488178B54850F82100049032F091
:1051E00009FAC000C0F1E700C0B20590AB48817871
:1051F000AE4850F82130A948009380780346002239
:105200000D21049005982AF014FF81E0A3488178CD
:10521000A548503050F82130A5A2A048CDE9002380
:105220008078034600220121059008202AF001FF22
:105230000120FFF76DF8B8B19EA010F0F1FD97487E
:1052400081789948643050F82130944800938078F0
:1052500005900798801CC0B2079004900022014678
:105260000520059B2AF0E5FE0220FFF751F8B8B1B2
:1052700095A010F0D5FD894881788B48783050F89A
:10528000213086480093807805900798801CC0B232
:1052900007900490002201460520059B2AF0C9FED4
:1052A0000120FFF735F8B0B90220FFF731F890B9C7
:1052B0008BA010F0B5FD794881787B488C3050F890
:1052C000213076480093807803460022072105901C
:1052D00005202AF0AEFE71488178744850F821000C
:1052E000049032F087F9C000C0F1E700C0B2059029
:1052F0006A4881786D4850F821306848009380787A
:10530000034600220D21049005982AF092FE00BF6A
:1053100000BF20E02BF056FA06900698432801D1F2
:1053200009B000BD06983E2807D10898092803DA7D
:105330000898401CC0B208900EE006983C2807D19F
:105340000898002803DD0898401EC0B2089003E0CA
:105350000A202DF013FADDE700BFFFF765B800B5AE
:105360008BB000200A90032009902AF09DF80F23AB
:10537000EF22002108462AF0F8FF0323EF22002144
:1053800008462AF0F2FF4FE30E23EE22042101200B
:105390002AF0C4F8032009900A9830B101287AD085
:1053A000022879D0032878D14EE23C4880785149D0
:1053B00051F82030394800938078034600220121BB
:1053C000079008202AF035FE4B4800686421B0FBA6
:1053D000F1F201FB1200079047480068B0FBF1F0C2
:1053E000069002462D48817842483C3050F8211002
:1053F00042A0079B8DE80F00284880780590099807
:10540000801CC0B209900490002201460520059B33
:105410002AF00FFE384840686421B0FBF1F201FB2E
:105420001200079034484068B0FBF1F00690024645
:105430001A4881782F48503050F821102FA0079B30
:105440008DE80F001548807805900998801CC0B23F
:1054500009900490002201460520059B2AF0E9FDF1
:10546000254880686421B0FBF1F201FB120007902F
:1054700021488068B0FBF1F0069002460748817829
:105480001C48643050F821101CA0079B8DE80F00C9
:10549000024880783AE08BE020E193E2A406001015
:1054A00024920300F0470010509303003090030053
:1054B000257300000D0A2041707020504345727220
:1054C0006F725363616C65000D0A2041707020504B
:1054D000434572726F724F66664C696E65000000DC
:1054E0000D0A204170702050434572726F724F4B0D
:1054F00000000000CC940300100900102573253033
:10550000326C642E2530326C6400000005900998DE
:10551000801CC0B209900490002201460520059B22
:105520002AF087FDFF4800696421B0FBF1F201FB1E
:1055300012000790FB4801696420B1FBF0F006906F
:105540000246F9488178F94850F82110AFF254002A
:10555000079B8DE80F00F448807805900998801C1F
:10556000C0B209900490002201460520059B2AF054
:1055700060FDED488178ED48643850F821000690D0
:1055800032F038F8C000C0F1E700C0B20790E6483A
:105590008178E648643850F82130E34800938078F9
:1055A000034600220D21069007982AF042FD09E2E9
:1055B000DD488078DD49783951F82030DA480093A9
:1055C0008078034600220121079008202AF031FD4F
:1055D000D448806A6421B0FBF1F201FB120007900D
:1055E000D048806AB0FBF1F006900246CE48817840
:1055F000CE48283050F82110AFF20010079B8DE8FC
:105600000F00C948807805900998801CC0B20990A5
:105610000490002201460520059B2AF00AFDC1489E
:10562000C36AC1488178C1483C3050F82120C0A1EC
:10563000BD488DE80E00807807900998801CC0B2A4
:1056400009900690002201460520079B2AF0F1FCF4
:10565000B448006B6421B0FBF1F201FB120007902B
:10566000B048006BB0FBF1F006900246AE4881787E
:10567000AE48503050F82110AFF28010079B8DE8F3
:105680000F00A948807805900998801CC0B2099045
:105690000490002201460520059B2AF0CAFCA2487E
:1056A0008178A248503850F82100069031F0A2FFCE
:1056B000C000C0F1E700C0B207909B4881789B48CA
:1056C000503850F8213098480093807803460022E3
:1056D0000D21069007982AF0ACFC73E1924880787F
:1056E0009249783951F820308F48009380780346EA
:1056F00000220121079008202AF09BFC8A4890F89C
:105700002F0001287ED18748436B874881788748DE
:10571000643050F8212086A183488DE80E008078FF
:1057200007900998801CC0B209900690002201469B
:105730000520079B2AF07DFC7A48806B6421B0FB32
:10574000F1F201FB120007907648806BB0FBF1F09C
:1057500006900246744881787448783050F82110D9
:10576000AFF26820079B8DE80F006F4880780590A6
:105770000998801CC0B209900490002201460520BF
:10578000059B2AF056FC6748436C67488178674858
:105790008C3050F8212066A163488DE80E00807897
:1057A00007900998801CC0B209900690002201461B
:1057B0000520079B2AF03DFC5A48806C6421B0FB11
:1057C000F1F201FB120007905648806CB0FBF1F03B
:1057D00006900246544881785448A03050F8211071
:1057E000AFF2E820079B8DE80F004F4880780590C6
:1057F0000998801CC0B2099004900022014605203F
:10580000059B00E01FE02AF014FC474881784748D8
:10581000643850F82100069031F0ECFEC000C0F171
:10582000E700C0B20790404881784048503850F8AF
:1058300021303D4800938078034600220D210690D8
:1058400007982AF0F6FBBDE0374880783749783969
:1058500051F820303448009380780346002201211B
:10586000079008202AF0E5FB2F4890F82F00012828
:1058700057D12C48C36C2C4881782C48B43050F850
:1058800021202BA128488DE80E00807807900998E8
:10589000801CC0B209900690002201460520079B9B
:1058A0002AF0C7FB1F48006D6421B0FBF1F201FB39
:1058B000120007901B48006DB0FBF1F00690024605
:1058C000194881781948C83050F82110AFF2D43007
:1058D000079B8DE80F001448807805900998801C7C
:1058E000C0B209900490002201460520059B2AF0D1
:1058F000A0FB0C48C36B0C4881780C48DC3050F896
:1059000021200BA108488DE80E00807807900998A7
:10591000801CC0B209900690002201460520079B1A
:105920000AE031E010090010A406001044950300BD
:105930002573256C640000002AF07BFBFF48006C97
:105940006421B0FBF1F201FB12000790FB48006CF0
:10595000B0FBF1F006900246F9488178F94850F81A
:105960002110AFF26840079B8DE80F00F448807863
:1059700005900998801CC0B209900490002201464D
:105980000520059B2AF055FBED488178EE4850F83C
:105990002100069031F02EFEC000C0F1E700C0B239
:1059A0000790E7488178E848143050F82130E448FF
:1059B00000938078034600220D21069007982AF074
:1059C00038FB00BF00BF2DE02AF0FCFE08900898CD
:1059D000432801D10BB000BD08983E2814D1D84807
:1059E00090F82F00012807D10A9803280BDA0A98AB
:1059F000401CC0B20A9006E00A98012803DA0A980F
:105A0000401CC0B20A900EE008983C2807D10A98C2
:105A1000002803DD0A98401EC0B20A9003E00A2065
:105A20002CF0ACFED0E700BFAEE400B58BB0002098
:105A30000A900320099029F037FD0F23EF2200215F
:105A400008462AF092FC0323EF22002108462AF0A0
:105A50008CFC28E30E23EE220421012029F05EFDB8
:105A6000032009900A9830B101287ED002287DD009
:105A700003287CD128E2B2488078B349143951F820
:105A80002030AF4800938078034600220121079020
:105A900008202AF0CEFAA948406D6421B0FBF1F24B
:105AA00001FB12000790A548406DB0FBF1F0069095
:105AB0000246A3488178A448283050F82110AFF25C
:105AC000C450079B8DE80F009D4880780590099889
:105AD000801CC0B209900490002201460520059B5D
