:020000040000FA
:1000000000800010CD00000099070400990704004B
:100010009907040099070400990704009907040050
:10002000990704009907040099070400850200005D
:100030009907040000000000ED020000F9E403004D
:1000400099070400BBDC030091DC03007FDC0300A4
:100050006DDC0300C9B7030099B9030079B403004C
:10006000CDBB030099070400D1BE0300990704002B
:1000700099070400990704009907040099070400F0
:1000800099070400990704009907040099070400E0
:100090005FD603009907040099070400990704003C
:1000A00099070400990704009907040099070400C0
:1000B00099070400990704009907040099070400B0
:1000C00099070400990704009907040000F002F85A
:1000D00000F0C8F80AA090E8000C82448344AAF11A
:1000E0000107DA4501D100F0BDF8AFF2090EBAE818
:1000F0000F0013F0010F18BFFB1A43F0010318475C
:10010000C09405000095050010F8013B0A4413F067
:10011000030408BF10F8014B1D1108BF10F8015B64
:10012000641E05D010F8016B641E01F8016BF9D153
:10013000002D15D010F8014B03F00C030C2BA1EB94
:1001400004040ABF10F8013BA4EB8314A4EB0324BE
:1001500005F1010314F8016B5B1E01F8016BF9D581
:10016000914238BF10F8013BD1D37047103A24BFF9
:1001700078C878C1FAD8520724BF30C830C144BF0C
:1001800004680C607047000000230024002500264E
:10019000103A28BF78C1FBD8520728BF30C148BFEA
:1001A0000B6070476E2904F0E3A6702904F0CAA220
:1001B000662906F05AA0652906F057A0672906F0BF
:1001C00054A06129AFF3008003681B0A28BF41F0E7
:1001D0008001692904F03AA2642904F037A2752944
:1001E00004F034A26F2904F0D5A7782904F096A270
:1001F000E92904F06DA7E42904F06AA7F52904F0C1
:1002000067A7EF2904F0D2A7F82904F095A20368A4
:10021000DB0928BF41F08001632904F0EEA67329B1
:1002200004F0F3A6E32905F046A2F32905F04BA25A
:10023000002070471FB546F011F89DE8030044F018
:10024000F5FD45F0BFFA04000020002145F0ECFF69
:10025000401C60600020002145F0D0FFE0601FBD21
:1002600010B510BD45F080FA1146FFF7E3FF00F02E
:100270002AF945F061FB03B4FFF7F2FF03BC40F03D
:10028000CCFE0000052828BF70474FEA8000784464
:10029000D0F802F0ED020000B302000051030000AC
:1002A00071030000910300004FF0010080F31488F7
:1002B00000DF0A4C4FF001052570774644F0D2F874
:1002C000BE46074E3668074C2660D6F800D001BC03
:1002D00005490860BDE8F00F704700BFA307001094
:1002E000B4070010AC070010780700104FF00802A8
:1002F00082F3118800B544F0B5F85DF804EB2DE900
:10030000F00F0E49086801B40D4A1268C2F800D017
:100310000C4C0D4D2E7826700C4E3668084C26601D
:10032000D6F800D001BC086000280CBF00220822CB
:1003300082F31188BDE8F00F704700BF7807001006
:10034000AC0700109807001099070010B4070010C0
:100350000649086800F101004FF0080282F3118895
:10036000002808BF70470860704700BF780700107A
:100370000649086800281CBF01380860002818BF1B
:1003800070474FF0000282F3118870477807001021
:100390004FF0000080F3148870474FF0010080F3A5
:1003A0001488704788476FF0FF003FF03EFC000064
:1003B0001CB5534890F82B20012118203CF0C8FFB1
:1003C00010230222CDE900234EA30E2128203CF069
:1003D00098FE1CBD08B500BF3DF07BF93BF042FA2A
:1003E0003BF0E5F83BF040FC3DF0E2FD3CF02DF841
:1003F000484900203DF050FD3BF0F8FC3DF056FE32
:100400003DF067F900200EF008FE00200EF0D8FB4A
:10041000FFF7CEFF3BF00EFB0DF08CFB06233E4AB0
:1004200000213E483FF060FB02203FF0F7F943F027
:100430000CFF17F001F802203FF0F0F916F0D2FDA2
:1004400002203FF0EBF91EF0C0FF1FF065F802201C
:100450003FF0E4F91CF077FE6A460021304800685E
:100460003FF030FE0FF0AEFB18F015F884212D4858
:1004700044F09CFB02203FF0D1F909232A4A0021D5
:100480002A483FF031FB02203FF0C8F91AF004FE81
:1004900002203FF0C3F90823254A002125483FF0F8
:1004A00023FB02203FF0BAF91AF081F8C8203FF090
:1004B000B5F907E0002003F061FD02E032203FF0D3
:1004C000ADF9FBE7F6E700B585B040F06AF940F01A
:1004D00027F93EF064F90123002219021648CDE9FC
:1004E0000323CDE901010723144A0021AFF21B10B9
:1004F00000933FF041FB3EF015FA002005B000BD2F
:10050000F007001076657273696F6E25642E2530D2
:100510003264000080A90300E8330010E94E0200B5
:100520007C0000105C0B0010E84700109995030058
:10053000E84300108DA40200EC0B0010E82B001023
:10054000F8B505460E4614461F460A2100203CF029
:10055000B5FE022301220B2100203CF07DFEFF4866
:100560000095837800220B2128203CF01EFDFB48DB
:100570008078012807D0F9480096837800220D2161
:1005800028203CF012FD204644F0FEF9C8B10223B9
:1005900001220B2170203CF05FFEF048009483782C
:1005A00000220B2198203CF000FDEC4880780128C7
:1005B00007D0EA480097837800220D2198203CF06C
:1005C000F4FCF8BD10B501220A2100203CF022FC09
:1005D00003220B2100203CF01DFC10BD30B58BB078
:1005E000202103A844F0E2FADD483BF01EFC022083
:1005F0003FF014F9DB480078F0B3D9483BF015FC24
:1006000002203FF00BF902230422012100203CF0DC
:1006100023FED548D0F8AC1003A844F091F903AB01
:100620000222012128203CF06CFDCF48D0F8B41004
:1006300003A844F085F903AB0122032128203CF0F4
:1006400060FDC6488078C0EBC00202EB0010C64ACD
:1006500002EB8000816D03A844F072F903ABBF4840
:10066000009383780022052128203CF09EFCBB48A3
:1006700090F8BC00012800E074E019D1BB488089E3
:100680000A2190FBF1F201FB1204B848808990FB2B
:10069000F1F523462A46B6A103A843F053FF03AB66
:1006A000AE48009383780022072128203CF07DFC8F
:1006B0000A2100203CF002FEAF48C088A849C98842
:1006C00088420BD1AC484079A5494979884205D187
:1006D000A948C078A249C978884222D0A048C288D7
:1006E000A6A103A843F02EFF03AB02220B21282072
:1006F0003CF007FD9A48C3784279A2A103A843F0D1
:1007000021FF03AB02220D2128203CF0FAFC944883
:10071000C0889949C8809248407948719048C0780B
:10072000C870954880788E498978884205D192486A
:1007300040788B494978884213D089484378827839
:1007400093A103A843F0FEFE03AB03220B2160201C
:100750003CF0D7FC82488078874988708048407890
:10076000487078E07D48807800EB80008B4A02EB8F
:10077000C000816903A844F0E3F803AB7748009315
:1007800083780022022148203CF00FFC734890F847
:10079000BC00012819D1754880890A2190FBF1F22B
:1007A00001FB12047148808990FBF1F523462A462B
:1007B0006FA103A843F0C6FE03AB6848009383789B
:1007C00000220521AA203CF0F0FB6B48C088644958
:1007D000C98888420BD16848407961494979884283
:1007E00005D16548C0785E49C978884215D05C4813
:1007F000C3784279C1888DE80E0069A302220621E0
:1008000050203CF07EFC5648C0885B49C880544864
:10081000407948715248C078C8705748807850492C
:100820008978884205D1544840784D4949788842B2
:1008300011D04B4843788278CDE9002354A3042299
:1008400008213C203CF05DFC454880784A4988708E
:100850004348407848700BB030BD30B589B0202196
:1008600001A844F0A3F93E483BF0DFFA02203EF035
:10087000D5FF02230322012100203CF0EDFC374884
:100880008078C0EBC00202EB0010374A02EB800018
:10089000C16C01A844F054F801AB30480093837850
:1008A0000022012128203CF080FB2C488078C0EBFE
:1008B000C00202EB00102C4A52F8201001A844F0AC
:1008C0003FF801AB254800938378002203212820BC
:1008D0003CF06BFB214890F8BC00012819D123485B
:1008E00080890A2190FBF1F201FB12041F488089E4
:1008F00090FBF1F523462A461DA101A843F022FEF4
:1009000001AB1648009383780022052128203CF093
:100910004CFB0A2100203CF0D1FC1748C08810494C
:10092000C98888420BD1144840790D4949798842D9
:1009300005D11148C0780A49C97888424ED0084884
:10094000C2880EA101A843F0FDFD01AB02220B21DC
:1009500028203CF0D6FB0248C37829E0F0070010BD
:10096000000000101C000010100200103052001097
:1009700025642E2564209200080000102530346480
:1009800000000000253032642D2530326400000064
:10099000253032643A253032640000002001001016
:1009A000253034642D253032642D2530326400002A
:1009B0004279AFF2300101A843F0C4FD01AB02223D
:1009C0000D2128203CF09DFBFF48C088FF49C880CE
:1009D000FD4840794871FC48C078C870FB48807871
:1009E000F9498978884205D1F8484078F64949782C
:1009F000884214D0F44843788278AFF26C0101A8A1
:100A000043F0A0FD01AB03220B2160203CF079FBF9
:100A1000ED488078ED498870EB484078487009B01F
:100A200030BD10B50246012904D0E94B93F8993046
:100A3000012B2CD11378412B0BD15378303B03EB96
:100A40008303642404EB43049378303B234498B23B
:100A500028E01378422B0BD15378303B03EB830310
:100A6000C82404EB43049378303B234498B219E044
:100A70001378303B642463435478303C04EB8404A3
:100A800003EB44049378303B234498B20AE0137894
:100A9000303B03EB8303642404EB43045378303B83
:100AA000234498B210BD30B502460B78303B4FF46A
:100AB0007A7463434C78303C04EBC40505EB0414B2
:100AC00003EB84041378303B03EB830304EB430410
:100AD0005378303B234498B230BD0EB53BF0A0FCB8
:100AE000B948C3784279C1888DE80E00AFF250133F
:100AF0000222114650203CF004FBB3484378827830
:100B0000CDE90023AFF27813042211463C203CF0DB
:100B1000F8FA0EBD10B50020AE490870AE49087055
:100B2000AE4800210180AE48018081700020AD49AF
:100B30008870AD4800683EF031FC10BDAB480068DD
:100B4000AB4909680844AB4909680844AA490968DF
:100B5000084470472DE9F04F95B00646884620219D
:100B60000DA844F023F8202105A844F01FF84FF009
:100B700000090020049000240025002798F80000B8
:100B800002281DD13078432802D03078452817D16B
:100B90000020904908709248002101808170FFF781
:100BA000CDFF18B103209549087006E0FFF7B2FFAA
:100BB000FFF708FD00209149087015B0BDE8F08FDF
:100BC00098F8000002286FD13178824802780078C6
:100BD000401C804B1870824881547D48807800EB1F
:100BE0008000874A52F830100DA843F0A9FE7848DB
:100BF00090F83100012813D1794800782E2803D1CC
:100C000041207749087006E075480078442802D1F1
:100C100042207349087072490DA843F01AFF03E09F
:100C20006F490DA843F015FF7548816A05A843F088
:100C300087FE6B4905A843F00CFFAFF2BC23AFF26F
:100C4000C02205A90DA8FFF77BFC614890F8310090
:100C5000012804D05E4890F89900012877D15D48BA
:100C6000007803281FDB5A4890F83100E8B95C4847
:100C700000782E2813D05A48007844280FD05848BE
:100C800040782E280BD056484078442807D0544846
:100C900080782E2803D052488078442805D14FF020
:100CA00005090120049057E263E14D4840782E2861
:100CB0000BD04B484078442807D0494880782E28EC
:100CC00003D047488078442804D14FF0050901201B
:100CD000049041E23E4890F831104148FFF7A1FEF0
:100CE0000446642094FBF0F000F0FF0A642094FBBB
:100CF000F0F100FB114000F0FF0B514658461CF08C
:100D00001AFB00F0FF09324890F82F00022827D183
:100D1000642094FBF0F000F0FF0A642094FBF0F1F3
:100D200000FB114000F0FF0B52465946012019F01C
:100D300045F9002027490870294800210180817069
:100D4000FFF7FCFE20B103202C49087007E064E0A7
:100D5000FFF7E0FEFFF736FC0020284908702CE77B
:100D60001B4890F82F00042854D1642094FBF0F124
:100D700000FB114000F0FF0A642094FBF0F000F04B
:100D8000FF0B514658461DF0BBF807466FB1642073
:100D900094FBF0F000F0FF0A394650461DF040FA8F
:100DA000012802D0384619F0D7FB00200949087005
:100DB0000B48002101808170FFF7C0FE18B10320AD
:100DC0000E49087025E01DE000000010080000102A
:100DD000F0070010190000101A0000101700001092
:100DE00014000010780A0010940000102000001079
:100DF00024000010280000102C0000101B00001020
:100E000020010010FFF786FEFFF7DCFB0020FF4902
:100E10000870D2E6012004909EE1FD480078022887
:100E200013DBFC4800782E280BD0FA4800784428C1
:100E300007D0F84840782E2803D0F6484078442858
:100E400004D14FF005090120049085E1F24890F8A3
:100E50003110F048FFF7E5FD0446642094FBF0F004
:100E600000F0FF0A642094FBF0F100FB114000F059
:100E7000FF0B514658461CF05EFA00F0FF09214670
:100E8000E6A017F0D5FCE44890F82F00022826D100
:100E9000642094FBF0F000F0FF0A642094FBF0F172
:100EA00000FB114000F0FF0B52465946012019F09B
:100EB00085F80020D6490870D6480021018081704D
:100EC000FFF73CFE18B10320D049087006E0FFF799
:100ED00021FEFFF777FB0020CC4908706DE6CE4875
:100EE00090F82F00042841D1642094FBF0F100FB1E
:100EF000114000F0FF0A642094FBF0F000F0FF0BBB
:100F0000514658461CF0FCFF0746CFB1642094FBC5
:100F1000F0F000F0FF0A394650461DF081F9012833
:100F20000ED0642094FBF0F000F0FF0A0322394653
:100F300050461DF0ABF8032802D0384619F00CFBE0
:100F40000020B3490870B348002101808170FFF789
:100F5000F5FD18B10320AD49087006E0FFF7DAFD92
:100F6000FFF730FB0020A949087026E60120049015
:100F7000F2E098F8000001280AD1327801210846F1
:100F80001CF001F9044624B94FF002090120049035
:100F9000E2E09F480078002804DD4FF005090120B9
:100FA0000490D9E09C4890F83100012823D14121D8
:100FB000974802780078401C954B187095488154EA
:100FC0000A2094FBF0F03030C2B218460178007865
:100FD000401C18708F4842540A2094FBF0F100FB2B
:100FE00011403030C1B2184602780078401C1870A9
:100FF000884881541AE00A2094FBF0F03030C1B2E6
:10100000834802780078401C814B187081488154D5
:101010000A2094FBF0F100FB11403030C1B21846B9
:1010200002780078401C18707A4881547A48807899
:1010300000EB80007F4A52F830100DA843F080FC8E
:1010400074490DA843F005FD7A48816A05A843F06C
:1010500077FC704905A843F0FCFCAFF2DC63AFF20B
:10106000E06205A90DA8FFF76BFA6B4890F8311004
:101070006848FFF7D6FC0446642094FBF0F000F0CB
:10108000FF0A642094FBF0F100FB114000F0FF0B1D
:10109000514658461CF04FF900F0FF095E4890F8A1
:1010A0002F00022826D1642094FBF0F000F0FF0A04
:1010B000642094FBF0F100FB114000F0FF0B52465E
:1010C0005946012018F07AFF002051490870514814
:1010D000002101808170FFF731FD18B103204B49D9
:1010E000087006E0FFF716FDFFF76CFA002047498D
:1010F000087062E5484890F82F0004282AD164203F
:1011000094FBF0F100FB114000F0FF0A642094FB17
:10111000F0F000F0FF0B514658461CF0F1FE074678
:1011200017B1384619F018FA0020394908703948C3
:10113000002101808170FFF701FD18B103203349C0
:10114000087006E0FFF7E6FCFFF73CFA00202F49A5
:10115000087032E501200490049878B3B9F1060FC5
:1011600034D2DFE809F0AA7B0334047A00BF2A48AE
:10117000807800EB80002F4A02EBC00041690DA887
:1011800043F0DEFB2B48C16B05A843F0D9FBAFF65B
:101190001003AFF6140205A90DA8FFF7D1F94FF41B
:1011A000C8703EF03BFBFFF7C9FC40B11948002175
:1011B0000180817003201549087007E04CE1FFF7BA
:1011C000A9FCFFF7FFF900201049087040E1124820
:1011D000807800EB8000174A02EBC00001690DA87F
:1011E00043F0AEFB1348816B05A843F0A9FBAFF6B3
:1011F0007003AFF6740205A90DA8FFF7A1F94FF42B
:10120000C8703EF00BFBFFF799FC15E01B000010C7
:101210001900001014000010F00700100D0A204102
:10122000505055626F7842746E636C6F756D6E3D91
:10123000256400002001001038B1FF480021018022
:1012400081700320FD49087006E0FFF763FCFFF79B
:10125000B9F90020F9490870FAE000BFF848807831
:1012600000EB8000F74A02EBC00041680DA843F094
:1012700067FBF448C16A05A843F062FBAFF60013B0
:10128000AFF6041205A90DA8FFF75AF94FF4C8707C
:101290003EF0C4FAFFF752FC38B1E7480021018064
:1012A00081700320E549087006E0FFF733FCFFF783
:1012B00089F90020E1490870CAE0642094FBF0F04D
:1012C00000F0FF0A642094FBF0F100FB114000F0F5
:1012D000FF0B5246012158461CF035F8DA490860E8
:1012E00008460568D64890F82700A8B3012834D0EE
:1012F000022830D16420B5FBF0F100FB115AB5FB98
:10130000F0FBCF48807800EB8000CE4901EBC000B5
:10131000C168CB48CDE901BA0091807800EB80002C
:10132000C84901EBC000C44BC8A1C2690DA843F075
:1013300009F96420B5FBF0F100FB115AB5FBF0FB95
:10134000C048416BCDE901BA0091BB4BBFA1426CD3
:1013500005A843F0F7F85BE033E00A20B5FBF0F5B1
:10136000B5FBF0F100FB115AB5FBF0FBB4488078F7
:1013700000EB8000B34901EBC000C168B048CDE983
:1013800001BA0091807800EB8000AE4901EBC0000B
:10139000A94BB3A1C2690DA843F0D4F80A20B5FB4C
:1013A000F0F100FB115AB5FBF0FBA648416BCDE90B
:1013B00001BA0091A04BAAA1426C05A843F0C2F863
:1013C00026E06420B5FBF0FA9D48807800EB8000B1
:1013D0009C4901EBC000C2689948CDE9002A807899
:1013E00000EB800001EBC000934BA1A1C2690DA8E6
:1013F00043F0A8F86420B5FBF0FA9248426BCDE9BF
:10140000002A8D4B9AA1426C05A843F09BF800BFBF
:1014100000BFAFF69423AFF6982205A90DA8FFF7F9
:101420008FF8C8203EF0FAF9FFF788FB28B19348FF
:10143000048005208149087009E0C8203EF0EEF9DB
:10144000FFF768FBFFF7BEF800207C49087000BF7B
:1014500000BF00208A49087000BF80E42DE9F04FEA
:1014600093B0064620210BA843F0A0FB202103A83F
:1014700043F09CFB0027B846B9460024002530788D
:1014800043281BD100207E4908707E4908706A48B5
:101490000021018081707C480180FFF74FFB18B16B
:1014A00003206649087006E0FFF734FBFFF78AF86F
:1014B00000206249087013B0BDE8F08F71480078D1
:1014C000F0BB3078452829D032786D480178007813
:1014D000401C6B4B18706C4842545948807800EBA4
:1014E00080006A4A02EB0010816C0BA843F028FAD6
:1014F00065490BA843F0ADFA6448D0F8981003A8EA
:1015000043F01EFA604903A843F0A3FAAFF6903304
:10151000AFF6943203A90BA8FFF712F858480078E9
:10152000022857DB58480078302839DB56480078C5
:10153000392835DC54484078302831DB524800E007
:10154000CBE0407839282BDC01204E490870002080
:101550004B49087038480021018081704A490BA826
:1015600043F0EEF93648807800EB8000474A02EB02
:101570000010C16C0BA843F06CFA434903A843F078
:10158000DFF94248D0F89C1003A843F062FAAFF6A6
:101590001043AFF6144203A90BA8FEF7D1FFD4E124
:1015A000002037490870374908702348002101801E
:1015B000817035480180FFF7C1FA18B103201F4937
:1015C000087006E0FFF7A6FAFEF7FCFF00201B49B3
:1015D000087070E73078452864D12B4800783028AF
:1015E00061DB2948007839285DDC274800782649E6
:1015F00048703020087001202249087000202049DE
:1016000008700D480021018081700D48807800EB42
:1016100080001E4901EB00101B4A1DA1C36C0BA8E2
:1016200042F090FF1948184A19A1D0F89C3003A83D
:1016300042F088FF17A32FE0140000101B000010D9
:10164000F007001020010010340000102573202541
:10165000732C2573253032642E253032640000004F
:1016600025732025732C257325642E256400000026
:1016700025732025732C257325640000300000108D
:10168000190000101A000010170000103804001094
:101690002573257300000000AFF2080203A90BA810
:1016A000FEF74EFF51E10020FB490870FB4908702E
:1016B000FB48002101808170FA480180FFF73EFA63
:1016C00018B10320F849087006E0FFF723FAFEF787
:1016D00079FF0020F4490870EDE6F0480078012811
:1016E0007ED13078452835D03178EB4802780078C3
:1016F000401CE94B1870EA488154EA484078303879
:10170000E8490978303901EB810100EB410000F034
:10171000FF09E34BE5480093807800EB8000E44943
:1017200001EB00104A46E3A1C36C0BA842F00AFF8C
:10173000DB4BDF4800934A46DEA1D0F89C3003A87B
:1017400042F000FFAFF2B403AFF2B80203A90BA856
:10175000FEF7F6FED0480078022875DBD048007806
:10176000302856DBCE480078392852DCCC48407807
:1017700030284EDBCA48407839284ADCC949C84875
:10178000FFF791F90446642094FBF0F000F0FF0AA3
:10179000642094FBF0F100FB114000F0FF0B514678
:1017A00058461BF0C8FDC7B2C04890F82F00022869
:1017B0002CD1642094FBF0F000F0FF0A642094FB2D
:1017C000F0F100FB114000F0FF0B5246594601209A
:1017D00018F0F4FB0020B0490870B049087000E030
:1017E0008BE0AF48002101808170AE480180FFF797
:1017F000A5F918B10320AC49087006E0FFF78AF993
:10180000FEF7E0FE0020A849087054E64FF00108FA
:101810009BE00020A0490870A0490870A048002162
:10182000018081709F480180FFF788F918B103207B
:101830009D49087006E0FFF76DF9FEF7C3FE002032
:101840009949087037E6FFE7307845287DD19448FC
:101850000078302852DB9248007839284EDC9048D6
:1018600000788F494870302008708E498C48FFF707
:101870001AF90446642094FBF0F000F0FF0A64209B
:1018800094FBF0F100FB114000F0FF0B514658466D
:101890001BF051FDC7B2854890F82F0002282AD1CD
:1018A000642094FBF0F000F0FF0A642094FBF0F158
:1018B00000FB114000F0FF0B52465946012018F082
:1018C0007DFB002074490870744908707448002139
:1018D0000180817073480180FFF730F918B103204F
:1018E0007149087006E0FFF715F9FEF76BFE00205E
:1018F0006D490870DFE54FF0010826E000206649D9
:10190000087067480021018081706848807800EB8A
:101910008000674901EB0010624AAFF28C21C36C72
:101920000BA842F00FFE62485E4AAFF29C21D0F84D
:101930009C3003A842F006FEAFF2A823AFF2AC221F
:1019400003A90BA8FEF7FCFDB5E5B8F1000F73D0B5
:10195000062F3AD2DFE807F0BC72033A047100BFE9
:101960005248807800EB8000544A02EBC000416985
:101970000BA842F0E5FF5148C16B03A842F0E0FF1D
:10198000AFF2F023AFF2F42203A90BA8FEF7D8FDC3
:101990004FF4C8703DF042FFFFF7D0F870B100205F
:1019A0003D4908703D4908703E48002101803C488F
:1019B0000180817003203C49087006E0FFF7AAF817
:1019C000FEF700FE00203849087052E13748807861
:1019D00000EB8000394A02EBC00001690BA842F01D
:1019E000AFFF3648816B03A842F0AAFFAFF25C3329
:1019F000AFF2603203A90BA8FEF7A2FD4FF4C87046
:101A00003DF00CFFFFF79AF870B1002022490870F2
:101A100022490870234800210180214801808170FB
:101A200003202149087006E0FFF774F8FEF7CAFDAD
:101A300000201D4908701CE121E100BF1B4880788F
:101A400000EB80001D4A02EBC00041680BA842F089
:101A500077FF1A48C16A03A842F072FFAFF2CC3395
:101A6000AFF2D03203A90BA8FEF76AFD4FF4C8709D
:101A70003DF0D4FEFFF762F810B30020064908706D
:101A800006490870074800210180054801808170DF
:101A90000320054908701AE0190000101A00001010
:101AA00014000010170000101B000010F0070010B9
:101AB00038040010256425732573000020010010F0
:101AC000FFF728F8FEF77EFD0020FD490870D0E002
:101AD000642094FBF0F000F0FF0A642094FBF0F126
:101AE00000FB114000F0FF0B5246012158461BF04D
:101AF0002AFCF449086008460568F34890F8270076
:101B0000B8B3012836D0022832D16420B5FBF0F1F9
:101B100000FB115AB5FBF0FBEB48807800EB80002E
:101B2000EA4901EBC000C168E748CDE901BA00917C
:101B3000807800EB8000E54901EBC000E44BAFF298
:101B4000F441C2690BA842F0FDFC6420B5FBF0F142
:101B500000FB115AB5FBF0FBDC48416BCDE901BA43
:101B60000091DB4BAFF21C51426C03A842F0EAFC3F
:101B70005FE035E00A20B5FBF0F5B5FBF0F100FBC6
:101B8000115AB5FBF0FBD048807800EB8000CF49BC
:101B900001EBC000C168CC48CDE901BA0091807862
:101BA00000EB8000C94901EBC000C94BAFF25051B6
:101BB000C2690BA842F0C6FC0A20B5FBF0F100FB9D
:101BC000115AB5FBF0FBC148416BCDE901BA009158
:101BD000BF4BAFF27451426C03A842F0B3FC28E053
:101BE0006420B5FBF0FAB848807800EB8000B74974
:101BF00001EBC000C268B448CDE9002A807800EB50
:101C0000800001EBC000B24BAFF29C51C2690BA83F
:101C100042F098FC6420B5FBF0FAAC48426BCDE989
:101C2000002AAB4BAFF2B851426C03A842F08AFCD9
:101C300000BF00BFAFF2A453AFF2A85203A90BA894
:101C4000FEF77EFCC8203DF0E9FDFEF777FF28B1E6
:101C5000A048048005209A49087009E0C8203DF09A
:101C6000DDFDFEF757FFFEF7ADFC0020944908703C
:101C700000BF00BF0020984908709849087000BF55
:101C800019E42DE9F041A4B006460D4620211CA818
:101C900042F08CFF202114A842F088FF20210CA8DC
:101CA00042F084FF202104A842F080FF02203DF092
:101CB000B5FDFEF743FF0446EEBB8348807801285C
:101CC00014D08748036D8048807800EB80008449F9
:101CD00001EB001083A102687B488DE80E00837839
:101CE000002202214C203BF060F90CE07C48AFF26E
:101CF0003822036D7448CDE9002383780022022145
:101D000060203BF052F90422114600203BF082F89B
:101D10006D48807828B90223002205212C203BF051
:101D20009BFA694890F8270048B3012814D002288C
:101D300031D1642000E05CE0B4FBF0F100FB11471E
:101D4000B4FBF0F8AFF2F463042211464C20CDE965
:101D500000873BF0D6F91EE00A20B4FBF0F4B4FB98
:101D6000F0F100FB1147B4FBF0F8AFF2047304226A
:101D700011464C20CDE900873BF0C3F90BE064200D
:101D8000B4FBF0F7AFF21073042211464C20009719
:101D90003BF0B7F900BF00BF012D11D14A48807850
:101DA00000EB80004E4A02EB0010816C1CA842F050
:101DB000C7FD4B48D0F8981014A842F0C1FD0FE0C1
:101DC0004148807800EB8000454A02EB0010016931
:101DD0001CA842F0B5FD4248016E14A842F0B0FDC7
:101DE000AFF25073AFF2547214A91CA8FEF7A8FB0F
:101DF000D8E035488078012814D03948436D3248FE
:101E0000807800EB8000364901EB001035A1426874
:101E10002D488DE80E008378002202214C203BF0F3
:101E2000C4F812E02848807800EB80002C4901EBD0
:101E30000010AFF27C3243682348CDE90023837859
:101E40000022022160203BF0B0F80422114600205D
:101E50003AF0E0FF1C48807828B9022300220521CF
:101E60002C203BF0F9F9184890F8270038B30128E6
:101E700012D0022846D16420B4FBF0F100FB1147D8
:101E8000B4FBF0F8AFF63403042211464C20CDE940
:101E900000873BF036F935E00A20B4FBF0F4B4FBE0
:101EA000F0F100FB1147B4FBF0F8AFF64403042255
:101EB00011464C20CDE900873BF023F922E015E0E4
:101EC0001B00001034000010F0070010200100106B
:101ED0001400001030000010190000101A0000104B
:101EE0003804001025732F25730000006420B4FB14
:101EF000F0F7AFF67C03042211464C2000973BF02C
:101F000000F900BF00BF012D11D1FF48807800EB20
:101F10008000FE4A02EB0010816C1CA842F010FD0C
:101F2000FA48D0F8981014A842F00AFD34E0F848B6
:101F30004078012810D1F448807800EB8000F34A03
:101F400002EB001001691CA842F0FAFCEF48016E98
:101F500014A842F0F5FC1FE0EB48807800EB80000D
:101F6000EA4A02EB001041691CA842F0E9FCE7488C
:101F7000416E14A842F0E4FCE348807800EB800056
:101F8000E24A02EB001081690CA842F0D9FCDF485C
:101F9000816E04A842F0D4FC04AB0CAA14A91CA8BE
:101FA000FEF7CEFA24B0BDE8F08100B591B0202153
:101FB00009A842F0FBFD202101A842F0F7FDD2481C
:101FC000807800EB8000D14A02EB0010816809A8FC
:101FD00042F0B6FCCD48816D01A842F0B1FCAFF6ED
:101FE0004C13AFF6501201A909A8FEF7A9FA11B0D7
:101FF00000BD70B598B00446202110A842F0D6FD6F
:10200000202108A842F0D2FD2021684642F0CEFDF2
:10201000BD48807800EB8000BC4A02EB0010C1682C
:10202000684642F08DFCB948C16D08A842F088FCB2
:10203000B54890F8270018B3012810D0022829D1FC
:102040006420B4FBF0F100FB1145B4FBF0F62B4625
:102050003246AFF6002110A842F074FA1AE00A20C6
:10206000B4FBF0F4B4FBF0F100FB1145B4FBF0F667
:102070002B463246AFF6102110A842F063FA09E071
:102080006420B4FBF0F52A46AFF6142110A842F004
:1020900059FA00BF00BF10A9684642F0DAFCAFF65B
:1020A0000C23AFF6102208A96846FEF749FA4FF450
:1020B000C8703DF0B3FB18B070BD00B591B02021E1
:1020C00009A842F073FD202101A842F06FFD8E485F
:1020D000807800EB80008D4A02EB0010816B09A82C
:1020E00042F02EFC8948D0F8881001A842F028FC64
:1020F000AFF66023AFF6642201A909A8FEF720FA23
:102100004FF4C8703DF08AFB11B000BD00B591B02E
:10211000202109A842F04AFD202101A842F046FDF5
:102120007948807800EB8000784A02EB0010C16BA0
:1021300009A842F005FC7548D0F88C1001A842F0BF
:10214000FFFBAFF6B023AFF6B42201A909A8FEF752
:10215000F7F914203DF062FB11B000BD00B591B05D
:10216000202109A842F022FD202101A842F01EFDF5
:102170006548807800EB8000644A02EB0010016C37
:1021800009A842F0DDFB6148D0F8901001A842F0A8
:10219000D7FBAFF60033AFF6043201A909A8FEF76A
:1021A000CFF94FF4C8703DF039FB11B000BD10B548
:1021B00090B0202108A842F0F9FC2021684642F0A6
:1021C000F5FC54480088642190FBF1F201FB1204F5
:1021D0004D48807800EB80004C4901EB001022460E
:1021E0004DA1C36A08A842F0ADF94A4800886421AD
:1021F00090FBF1F201FB12044448224646A1C36F52
:10220000684642F09FF9AFF67433AFF6783269460C
:1022100008A8FEF795F910B010BD00B591B02021C7
:1022200009A842F0C3FC202101A842F0BFFC3648B7
:10223000807800EB8000354901EB0010AFF2887127
:10224000C26A09A842F07EF93048AFF29471C26FB9
:1022500001A842F077F9AFF6C433AFF6C83201A94E
:1022600009A8FEF76DF911B000BD00B591B02021AD
:1022700009A842F09BFC202101A842F097FC2248CB
:10228000807800EB8000214A02EB0010016B09A866
:1022900042F056FB1D48D0F8801001A842F050FBD8
:1022A000AFF61043AFF6144201A909A8FEF748F9AA
:1022B00064203DF0B3FA11B000BD00B591B020210B
:1022C00009A842F073FC202101A842F06FFC0E48DF
:1022D000807800EB80000D4A02EB0010416B09A8EA
:1022E00042F02EFB0948D0F8841001A842F028FBE8
:1022F000AFF66043AFF6644201A909A8FEF720F9E2
:102300004FF4C8700CE00000F00700103804001013
:10231000B80800103000001025642025730000006C
:102320003DF07CFA11B000BD00B591B0202109A8A4
:1023300042F03CFC202101A842F038FCFF488078A4
:1023400000EB8000FE4A52F8201009A842F0F8FA8B
:10235000FB48416901A842F0F3FAAFF6C843AFF673
:10236000CC4201A909A8FEF7EBF811B000BD00B5F9
:1023700091B0202109A842F019FC202101A842F0C7
:1023800015FCEE48807800EB8000ED4A02EB8000FF
:10239000816809A842F0D4FAE948C16901A842F06D
:1023A000CFFAAFF61053AFF6145201A909A8FEF701
:1023B000C7F864203DF032FA11B000BD70B592B09C
:1023C000044620210AA842F0F1FB202102A842F095
:1023D000EDFBDA4890F8270088B3012817D00228CF
:1023E0003FD16420B4FBF0F100FB1145B4FBF0F6E3
:1023F000D2480095807800EB8000D14901EB800045
:102400003346D0A142680AA842F09CF829E00A208D
:10241000B4FBF0F4B4FBF0F100FB1145B4FBF0F6B3
:10242000C6480095807800EB8000C54901EB80002C
:102430003346C7A142680AA842F084F811E0FFE7DA
:102440006420B4FBF0F5BD48807800EB8000BC4907
:1024500001EB80002B46C0A142680AA842F072F846
:1024600000BF00BFB648816902A842F069FABBA369
:10247000BAA202A90AA8FEF763F84FF47A703DF0F9
:10248000CDF912B070BD00B589B0202101A842F08D
:102490008DFB39F0C5FF02203DF0C0F9A848016A64
:1024A00001A842F04DFA01AB0322052130203AF099
:1024B00028FEA2488078012813D0A048807800EB3D
:1024C00080009F4A02EB8000016901A842F038FABF
:1024D00001AB9A480093837800220B213C203AF00C
:1024E00064FD09B000BD9E480068704770B506469F
:1024F0000C461546914890F82300C8B1012E02D031
:10250000022E14D109E097A016F082F814F064FEB0
:102510000121084615F07DFA09E096A016F078F83A
:1025200014F047FE0021012015F073FA00BF00BF30
:10253000824890F82100C8B1012C02D0022C14D19D
:1025400009E090A016F064F814F0FBFF01210220CE
:1025500015F05FFA09E08FA016F05AF814F0D6FFD4
:102560000021022015F055FA00BF00BF734890F813
:10257000260058B1012D02D0022D06D102E01DF037
:102580001DF802E01DF009F800BF00BF14203DF067
:1025900045F970BD10B5FEF7D1FAF0B98148007861
:1025A000D8B98148407A012817D1FEF7C7FA044606
:1025B0007D48437A7B48027821467CA016F028F8B3
:1025C00014F0C2FD14203DF029F90022114601202B
:1025D000FFF78CFF14203DF021F910BD0020784951
:1025E000C8804871C870887048700120754988702B
:1025F00070472DE9F0410446002500260027012CF4
:102600001ED115F010FA58B94C4890F8230038B193
:10261000012500206349087039F002FFFFF7DEFF53
:10262000022015F000FA98BB444890F821000128D8
:1026300004D0424890F82100032829D1012627E040
:10264000022C25D1012015F0EEF901280BD13B48D1
:1026500090F8230038B1022501205249087039F062
:10266000DFFEFFF7BBFF022015F0DDF901280FD1D7
:10267000324890F82100012804D0304890F8210019
:10268000032805D12D4890F8C500012800D0022666
:102690003A4631462846FFF729FF002D01DD17F0A5
:1026A000BDF9BDE8F081F0B585B000250026002712
:1026B000224890F82500022812D100240EE042485A
:1026C00050F8240040B1404850F824101C3030F835
:1026D000140001FB00662746601CC4B2072CEEDB29
:1026E000164890F82200022872D13848406F3749C6
:1026F000B1F8C010484335498A6FB1F8C21002FBE7
:1027000001013248C26FB0F8C40002FB00112F482B
:10271000D0F88020B0F8C60002FB00112B48D0F89A
:102720008420B0F8C80002FB00112848D0F88820A7
:10273000B0F8CA0002FB001124484AE0F00700107C
:10274000180600102573253032642E2530326400BF
:10275000257325642E256400257325640000000080
:102760002C0000100D0A20417070656E42696C6C7F
:10277000000000000D0A2041707064697342696CAA
:102780006C0000000D0A20417070656E436F696E29
:10279000000000000D0A20417070646973436F6986
:1027A0006E0000001C000010884900100D0A204532
:1027B000727242696C6C3D25642C25642C25640082
:1027C00008000010780A00104C0A001040090010A0
:1027D00045E0D0F88C20B0F8CC0002FB0011F8489E
:1027E000D0F89020B0F8CE0002FB0011F448D0F8E9
:1027F0009420B0F8D00002FB0011F148D0F89820E6
:10280000B0F8D20002FB0011ED48D0F89C20B0F8DF
:10281000D40002FB0011EA48D0F8A020B0F8D6009E
:1028200002FB0011E648D0F8A420B0F8D80002FB63
:102830000011E348D0F8A820B0F8DA0002FB00113C
:10284000DF48D0F8AC20B0F8DC0002FB0011DC4817
:10285000D0F8B020B0F8DE0002FB001512E0D94835
:1028600090F82200012808D115F075F810B9D54864
:10287000806B00E00020054604E0D24890F822007A
:1028800000B900257019CF49896B884202D9CD481B
:10289000806B00E07019CC490860CA48D0F8C0309D
:1028A00008460268C748816BC848CDE90065CDE994
:1028B0000323029150F82700DFF810C30CF11C0C21
:1028C0003CF817C000FB0CF3BD48806FDFF8F0C286
:1028D000BCF8C2C000FB0CF2B948406FDFF8E0C2A0
:1028E000BCF8C0C000FB0CF1B94815F091FEB5482A
:1028F00090F8220002280CD1B248D0F8C000A842BB
:1029000003D90220FFF775FE35E00120FFF771FEC5
:1029100031E0AC4890F8220001280CD1A948D0F849
:10292000C000A84203D90220FFF763FE23E0012084
:10293000FFF75FFE1FE0A34890F82200D8B9A14836
:1029400090F8250002280DD170199E49D1F8C010C9
:10295000884203D20220FFF74CFE0CE00120FFF773
:1029600048FE08E09748806B9749086099480168DD
:1029700099A015F04DFEFFF70DFE002005B0F0BD4B
:10298000014669B98F4A92F82E200F32FF2A01DDE5
:10299000FF2203E08B4A92F82E200F32D0B20CE0D7
:1029A00001290AD1874A92F82E20FF2A01DDFF2251
:1029B00002E0844A92F82E20D0B2704770B5814868
:1029C00090F8210018B314F058FD0446FCB1874874
:1029D0000068204485490860FEF7B0F805460246C5
:1029E000214683A015F036FE022200210846FFF79B
:1029F0007DFD0121204615F0C5F9FEF79FF805463B
:102A00000246A1B2012016F0BDFE012070BD6D4846
:102A100090F8230090B314F047FB044674B32146AA
:102A200079A015F0F5FD7C48006801196948036834
:102A30006548026879A015F0EBFD774800682044EE
:102A40006149096888421AD214F046FB90B1724875
:102A500000682044704908600221204615F092F970
:102A6000FEF76CF805460246A1B2022016F08AFE77
:102A7000002452E014F068FB0020C7E761E05148F1
:102A800090F8240001283DD1FFF78FFAFEF756F8A1
:102A900028B34FF4AF703CF0C1FE0020FFF770FF89
:102AA00067498871032067490870002066490870EB
:102AB000664908706648002101806648018081707F
:102AC000654800683CF06AFC00206449086064487E
:102AD00001780020FFF7D5F814F036FB0EE0FEF782
:102AE00019F800205749087014F02EFB4FF4C870F5
:102AF0003CF094FEFDF766FDFFF770FD002059499C
:102B0000086083E757480460FEF718F80546024658
:102B1000A1B2032016F036FE00243F48006820448E
:102B200029490968884205D3022200211046FFF78F
:102B3000DDFC04E0022200210846FFF7D7FC01205B
:102B400064E7204890F82600C0B347481CF0F5FC25
:102B5000044645480078012819D1C4B1214643A054
:102B600015F0BCFD474804600321204615F00AF922
:102B7000002202210846FFF7B9FCFDF7DFFF0546FA
:102B80000246A1B2052016F0FDFD01203EE73648C1
:102B90000078022812D13CA015F0A0FDFDF7CEFF71
:102BA00085B200232A461946022015F037FF00207F
:102BB0002D49087033490860022027E772E00000C1
:102BC00040090010F00700103C0000104C0A0010F3
:102BD00070620400400000100D0A4170704368618B
:102BE0006E6765206D61783D256C640020000010E3
:102BF0000D0A417070636F696E312E636F696E3DAF
:102C0000256C642C256C64000D0A322E41707062B4
:102C1000696C6C3D256C6400240000100D0A417045
:102C20007062696C6C3D256C642C4D6F6E65793DEE
:102C3000256C642C70726963653D256C640D0A0017
:102C4000780A00101B000010190000101A00001074
:102C50001700001014000010940000103400001041
:102C60003900001028000010440000100D0A204117
:102C70007070526561646572312E726561643D25C4
:102C80006C6400002C0000100D0A20417070526529
:102C900061646572204F55545055542063617264CD
:102CA000000000000020B1E6F8B5002500200090EB
:102CB000FF4890F8250002285DD1FDF73FFF05464B
:102CC000F5B32946FBA015F0A3FC002450E0FE4814
:102CD00050F82400A8B3FC4850F82400B5FBF0F0ED
:102CE000C6B23146F9A015F093FCF7481C3030F815
:102CF0001400B04201DB304603E0F3481C3030F8EA
:102D00001400C6B23146F6A015F082FCEE4951F827
:102D1000241001FB06F0694614F0D6FA074639463E
:102D2000F4A0009A15F074FC012F1ED1F848006839
:102D3000F849096808440099451A0020F54901E05E
:102D400061E013E00860F24805602946F2A015F042
:102D50005FFCD74890F83400012806D12B46009834
:102D600082B20021012015F059FE03E0601CC4B2BC
:102D7000072CACDB53E0CE4890F8250003284ED159
:102D8000FDF7DCFE0546F5B32946CAA015F072FD35
:102D9000C748D0F8B800B5FBF0F0C6B23146CBA0BA
:102DA00015F068FDE048B0F82801B04201DB30467C
:102DB00002E0DD48B0F82801C6B23146C8A015F0DF
:102DC00059FDBB49D1F8B81001FB06F0694614F073
:102DD0007BFA07463946C7A0009A15F04BFD012F34
:102DE0001DD1CB480068CB49096808440099451AB1
:102DF0000020C8490860C64805602946C6A015F0ED
:102E000039FDAB4800E00AE090F83400012806D113
:102E10002B46009882B20021012015F0FFFDF8BD7D
:102E2000F8B5C2480068D8B114F08EF970B1FDF75A
:102E300085FEBE490968461A3246BC48006881B220
:102E4000042016F09FFC0020B84908603CF094FD77
:102E500006460146B6A015F0EBFC64203CF0DEFC13
:102E6000FDF76CFE0546FFF71FFFFDF767FE70B12B
:102E70003CF082FD06460146B1A015F0D9FCFDF7F5
:102E80005DFE064669461CF0F0F8044600E00124A9
:102E9000874890F8340001283DD104BBFDF74EFE71
:102EA00006460146ACA0009A15F0C2FCFDF746FEAE
:102EB0000099461A304615F0CFF9FDF73FFE00990C
:102EC000401A86B2002332461946184615F0A6FD70
:102ED00000208F4908608F4908600098F8BDFDF711
:102EE0002DFE06460146A3A015F0A2FCFDF726FE26
:102EF0000646002115F0B0F9FDF720FE86B200234A
:102F000032461946184615F089FD002080490860B0
:102F100080490860E2E7ACB99CA015F089FC0099F3
:102F2000681A15F099F90098281A82B200231946F8
:102F3000184615F073FD0020754908607549086052
:102F40000098CBE73CF018FD0646014694A015F02A
:102F50006FFC0021284615F07FF90023AAB219461C
:102F6000184615F05BFD0020694908606949086052
:102F700000BFB3E710B54E4890F8230040B18DA0D4
:102F800015F046FB14F038F90121084614F041FD14
:102F900014203CF043FC10BD2DE9F0410026002434
:102FA00088480468FDF7CAFDA04206D2864800683A
:102FB00018B907208549087053E18348006878B143
:102FC000FFF7A4F8A0B21CF0B7FB0646012E03D110
:102FD0000A207E49087044E109207C49087040E1DC
:102FE0004B4800684B4909680844A0425ED24848F3
:102FF0000068201A47490968451A4C480068451B73
:103000002B4890F82200022801D1012615E028481B
:1030100090F82200012801D101260EE0244890F802
:10302000220050B9224890F82500022801D101263B
:1030300003E00DB9012600E00026012E37D114F07F
:103040004BF8F0B133480068384909680844314901
:10305000086002213548006814F094FEFDF76EFD0B
:1030600032490968471A3A463048006881B202205E
:1030700016F088FB00202D4908600A20534908708B
:10308000EFE014F061F8FDF759FD28490968471A87
:103090003A462648006881B2042016F073FB0020EF
:1030A00022490860082049490870DAE094E08FE07E
:1030B000F00700100D0A204170704E656564706164
:1030C000793D256C640000004C0A00100D0A204177
:1030D00070704E6565646E756D3D2564000000007E
:1030E0000D0A204170705265616C6E756D3D2564EE
:1030F000000000000D0A2041707052656362616338
:103100006B2073743D25642C7061793D256C6400DF
:1031100020000010240000100D0A20417070706122
:10312000793D256C64000000400900102800001063
:103130000D0A20417070486F6C64526574256400FC
:103140000D0A20417070426567696E206368616E88
:1031500067652564000000000D0A204170706368F7
:10316000616E6765204661696C3D256C642C256C39
:10317000640000000D0A204170706368616E67652D
:1031800020737563633D256C640000000D0A2041C7
:1031900070706368616E6765204661696C0000004D
:1031A0000D0A204170706368616E676520737563F6
:1031B000632564000D0A2041707072657365744266
:1031C000696C6C00340000102C0000101B00001013
:1031D0000820FD49087044E0FC480068FC49096883
:1031E0000844051BFB4890F82200022801D1012663
:1031F00015E0F84890F82200012801D101260EE0E0
:10320000F44890F8220050B9F24890F825000228BE
:1032100001D1012603E00DB9012600E00026012EB0
:103220001CD1EC4890F82400012813D1EA4800682A
:1032300080B113F089FFFDF781FCE7490968471A5F
:103240003A46E548006881B2042016F09BFA002057
:10325000E14908600A20DC49087002E00820DA49E8
:103260000870BDE8F08110B5044604B3DB4800687F
:1032700060B1DBA015F032FA01201CF0C5FAD74886
:103280000068001BD5490860002410E0D0480068A1
:10329000844206D3CE480068241A0020CC49086036
:1032A00005E0CB480068001BC9490860002424B130
:1032B000C6480068001BC549086010BDC54890F8A5
:1032C0002E00FF2806DACB48807908B90120704724
:1032D0000020FCE70020FAE70EB5C6488379BD4818
:1032E000807800EB8000C44901EB0010C3A1426C60
:1032F000B8488DE80E00837800221146962039F0F8
:1033000054FE0EBD70B504460125F4B3AF48006805
:10331000AF4909680844A0422AD213F0DDFEB0B1DB
:10332000AB480068AC4909680844A9490860FDF742
:1033300005FCA9490968461A3246A748006881B2C7
:10334000022016F01FFA0020A349086010E013F0D5
:10335000FBFEFDF7F3FBA0490968461A32469E487A
:10336000006881B2042016F00DFA00209A49086026
:10337000FDF7E4FB064602462146A2A015F058FAE6
:10338000FDF7DCFBA04203D300E002E0012500E0F2
:103390000025FDF7D3FB90B303208B490870002074
:1033A000FFF7EEFA9349887187480078032842D1E5
:1033B000874800689A490968884204D2002201219E
:1033C0000846FFF793F80020964908709649087060
:1033D00096480021018096480180817095480068D8
:1033E0003BF0DCFF39F01CF8934801780020FEF731
:1033F00048FCFDF7A3FB064617F0A1FC1BE0FFE726
:10340000002201210846FFF771F800208549087065
:1034100085490870854800210180854801808170B8
:10342000844800683BF0BAFF38F0FAFFFFF72BF84A
:103430000E2065490870284670BD70B50446012508
:10344000002654B16548006838B1FEF75FFEA0B2AF
:103450001CF072F9064606B90025284670BD70B505
:10346000044684B35D48006860B174A015F036F975
:1034700001201CF0C9F959480068001B5749086031
:10348000002447E051480068514909680844A042B7
:103490002FD213F021FEB8B14D4800684E4909689B
:1034A00008444B490860FDF749FB4B490968451A38
:1034B0002A464948006881B2022016F063F90020CC
:1034C0004549086011E025E013F03EFEFDF736FBAC
:1034D00041490968451A2A463F48006881B20420DC
:1034E00016F050F900203C4908604FF448703CF059
:1034F00095F937480068844206D335480068241A95
:1035000000203349086005E031480068001B30495D
:103510000860002424B12D480068001B2B49086076
:10352000FDF70CFB90B30320274908700020FFF73C
:1035300027FA3049887124480078032842D124486A
:10354000006837490968884204D2002201210846F0
:10355000FEF7CCFF00203349087033490870334828
:1035600000210180324801808170324800683BF0C0
:1035700015FF38F055FF304801780020FEF781FB39
:10358000FDF7DCFA054617F0DAFB1BE0FFE7002247
:1035900001210846FEF7AAFF0020224908702249AF
:1035A0000870224800210180214801808170214853
:1035B00000683BF0F3FE38F033FFFEF764FF0E20A7
:1035C0000149087070BD00001B00001020000010B1
:1035D00024000010F0070010280000102C0000103C
:1035E0000D0A2041707043487568756F53756363A9
:1035F00000000000780A0010380400102573253000
:10360000326400000D0A20417070205072696365B9
:103610003D256C642C6D6F6E65793D256C640000F2
:103620003C000010190000101A00001017000010D4
:103630001400001094000010390000100D0A204101
:1036400070705043436F73745375636300000000E0
:103650002DE9F04F87B004460E461546002700209E
:103660000690FEF7DAFD002202210846FEF73EFF33
:103670003CF082F980460146FFA015F0D9F83046AB
:10368000FFF7DBFE642094FBF0F000F0FF086420FD
:1036900094FBF0F100FB114000F0FF0942460121CC
:1036A00048460CF001FE0746F84890F82F00012824
:1036B00004D0F64890F82F0003286FD1012F6FD166
:1036C000FDF73CFA08B914F049FB012D01D0022D99
:1036D00002D13046FFF7C7FD4120ED490870642054
:1036E00094FBF0F100FB11400A2190FBF1F0303027
:1036F000E7494870642094FBF0F100FB11400A2177
:1037000090FBF1F201FB12003030E1498870E14892
:103710000660E1480378DF480168DD48CDE90153E0
:103720000091837842780178DCA038F00BF9DA4810
:1037300001780078401CD84B18702B46D44AD548E5
:10374000006814F05EFB642094FBF0F000F0FF0AC8
:10375000642094FBF0F100FB114000F0FF0B524697
:103760000221584619F0EFFD00F0FF08FDF7E6F9D9
:103770000590642094FBF0F100FB114000F0FF097C
:10378000059A2B46CDE9012800964A4601210020E2
:1037900016F076FC0B20D14908700BE12AE0FFE718
:1037A000FEF78BFD642094FBF0F000F0FF0A64202C
:1037B00094FBF0F100FB114000F0FF0B5246022198
:1037C000584619F0C0FD00F0FF08FDF7B7F9059065
:1037D000642094FBF0F100FB114000F0FF09059A12
:1037E0002B46CDE9012800964A460121992016F082
:1037F00047FCDFE0A54890F82F0002287ED1012F7A
:1038000052D1FEF732FD3046FFF729FE642094FBCB
:10381000F0F100FB11400A2190FBF1F03030C0B212
:103820008DF818000A2094FBF0F100FB11403030B5
:10383000C0B28DF8190014F091FA97480178007819
:10384000401C954B18702B4606AA304614F0D9FA46
:10385000642094FBF0F000F0FF0B642094FBF0F187
:1038600000FB1140C0B25A460221049019F06BFDD2
:1038700000F0FF08FDF762F90590642094FBF0F179
:1038800000FB114000F0FF09642094FBF0F000F011
:10389000FF0A059A2B46CDE9012800964A46514673
:1038A000002016F0EDFB35E0FEF707FD8C480068C0
:1038B00010B102201BF0A8FF642094FBF0F000F090
:1038C000FF0A642094FBF0F100FB114000F0FF0BB5
:1038D00052460221584619F036FD00F0FF08FDF768
:1038E0002DF90590642094FBF0F100FB114000F0ED
:1038F000FF09642094FBF0F0C0B200E03FE00490C8
:10390000059A2B46CDE9012800964A460146022039
:1039100016F0B6FBFDF712F990B303206F4908705B
:103920000020FFF72DF86F4988716C480078032854
:1039300040D16D4800686D490968884204D2002270
:1039400001210846FEF7D2FD002069490870694947
:1039500008706948002101804D48018081706748E6
:1039600000683BF01BFD38F05BFD654801780020E6
:10397000FEF787F9FDF7E2F8804617F0E0F919E065
:10398000FFE7002201210846FEF7B0FD002058495C
:103990000870584908705848002101803C4801804F
:1039A0008170564800683BF0F9FC38F039FD0E2074
:1039B0004A49087007B0BDE8F08F2DE9F04F85B097
:1039C00004460F4615461E46304890F82F00022840
:1039D0002BD1642094FBF0F000F0FF0A642094FBEC
:1039E000F0F100FB114000F0FF0B52460221584657
:1039F00019F0A9FC00F0FF08FDF7A0F8049064207E
:103A000094FBF0F100FB114000F0FF09642094FBEF
:103A1000F0F0C0B20390049A2B46CDE9012800973C
:103A20004A460146304616F02BFB05B0BDE8F08F44
:103A300010B5FDF783F8D8B1FFF7F2F94FF4C8706D
:103A40003BF0ECFE00202A4908702A4908702A48F9
:103A5000002101800E4801808170284800683BF0F9
:103A60009DFC38F0DDFCFEF70EFD0E201B490870B2
:103A700000220221084645E00D0A202564417070AD
:103A800055626F7856656E646F757400F0070010AC
:103A90001400001034000010380000104C6F675400
:103AA00072616E73616374696F6E415049206C6F0F
:103AB0006769633D256325632563207072696365CB
:103AC0003D256420747970653D25782C7472616E93
:103AD0004E756D733D25640D0A2000001B0000101B
:103AE0002C000010780A0010240000103C00001088
:103AF000190000101A0000101700001094000010A8
:103B000039000010FEF7F2FCC8203BF087FE22F0DF
:103B10007DF94FF4C8703BF081FE00220121084678
:103B2000FEF7E4FC10BDFEB5FF4890F8260010B18A
:103B3000FEF7D9FC60BBFDF701F850B3FEF7F4FBCC
:103B40003BF01AFF05460146F8A014F071FEFCF7A1
:103B5000F5FF0546FCF7F2FF0646012100231E2271
:103B6000CDE9010500911946022014F0ADFF4FF494
:103B7000C8703BF053FEFFF753F904461CB12046D2
:103B8000FEF71CFC01E0FEF7F2FB0E20EA4908708C
:103B90001CE0FEF7C9FBAFF60C2014F049FE002133
:103BA000084614F059FBE04890F83400012805D18C
:103BB00000231A461946184614F030FF0020DF494A
:103BC0000860DF4908600E20DB490870FEBD2DE962
:103BD000F04104460025FEF720FB3BF0CDFE0646F3
:103BE0000146AFF26C1014F023FE642094FBF0F059
:103BF000C6B2642094FBF0F100FB1140C7B232461C
:103C0000012138460CF050FB0546FCF797FF90B3B6
:103C10000320C94908700020FEF7B2FEC949887127
:103C2000C5480078032840D1C5480068C6490968DE
:103C3000884204D2002201210846FEF757FC0020EA
:103C4000C2490870C2490870C24800210180C248B8
:103C500001808170C14800683BF0A0FB38F0E0FBB8
:103C6000BF4801780020FEF70CF8FCF767FF064616
:103C700017F065F819E0FFE7002201210846FEF77A
:103C800035FC0020B1490870B1490870B1480021E5
:103C90000180B14801808170B04800683BF07EFB34
:103CA00038F0BEFB0E20A44908702846BDE8F0811C
:103CB00070B504460025FCF741FF0546A94804609D
:103CC000FCF73CFF90B303209B4908700020FEF7EF
:103CD00057FE9C49887198480078032841D198483C
:103CE000006899490968884204D2002201210846E7
:103CF000FEF7FCFB0020954908709549087095482F
:103D000000210180944801808170944800683BF054
:103D100045FB38F085FB924801780020FDF7B1FFA4
:103D2000FCF70CFF064617F00AF81AE0FFE700223E
:103D300001210846FEF7DAFB002084490870844917
:103D40000870844800210180834801808170834885
:103D500000683BF023FB25B138F062FB0E2076496A
:103D6000087070BDF0B591B005460024202109A867
:103D700040F01CFF202101A840F018FF05207149E8
:103D80004871FCF7DBFE08B9FCF7A7FE2C46664835
:103D900090F82700F0B3012826D002286ED16420C5
:103DA00094FBF0F100FB114694FBF0F75E4800969F
:103DB000807800EB80006C4901EBC0003B466B490A
:103DC000C26809A840F0BEFB642094FBF0F100FB40
:103DD000114694FBF0F7644800963B466349426BFA
:103DE00001A840F0AFFB49E00A2094FBF0F084B258
:103DF0000A2094FBF0F100FB114694FBF0F74A48CF
:103E00000096807800EB8000574901EBC0003B46EC
:103E1000564900E015E00C31C26809A840F092FB59
:103E20000A2094FBF0F100FB114694FBF0F74E489A
:103E300000963B464D490C31426B01A840F082FB95
:103E40001CE0642094FBF0F63748807800EB80009B
:103E5000454901EBC000334644491431C26809A802
:103E600040F070FB642094FBF0F63F4833463F4936
:103E70001431426B01A840F065FB00BF00BFAFF6F4
:103E80009003AFF6940201A909A8FCF759FB4FF47F
:103E900016703BF0C3FC2B48407978B9FCF74EFE16
:103EA00018B103202449087006E0FCF733FEFCF744
:103EB00089FB002020490870FEF790FB1E4800781F
:103EC000032805D1264801780020FDF7DAFE06E038
:103ED0001948007818B938F0A3FAFEF77FFB11B043
:103EE000F0BD10B592B0044620210AA840F05EFE55
:103EF000202102A840F05AFEFCF720FE10B100205D
:103F0000FFF7D6FE22461AA10AA840F01BFB224664
:103F100017A102A840F016FB02AB03480093837878
:103F200000220E21502025E0F00700100D0A20414C
:103F300070705475692564001B000010200000108B
:103F400024000010780A00103C0000101900001036
:103F50001A00001017000010140000109400001048
:103F6000390000102C000010200100104427000030
:103F70002573000039F019F812B010BD88B0002088
:103F800007900024002506900590FA498870C870B3
:103F90000871487139F011FC38B1022211461046FF
:103FA000FEF7A4FA1320F449087001200FF0A2FCD8
:103FB000F2490860F24890F89800012802D116F002
:103FC0009FFD02E0012016F087FD012039F072FC10
:103FD00038F026FAFEE3E848007840F0B1F9E64808
:103FE000007814287DD2DFE800F00AA5D9FEFDFC98
:103FF000FBFAF9F8F7F6F5F4F3F2F1F0EFEEE14839
:104000000068C82802D90020DE490860D9488078B5
:1040100030B90520D7498870FCF7E0FA15F06DFB40
:1040200005A9002017F051F807909DF81C0098B1E1
:104030009DF81C003C2803D09DF81C003E2805D1AB
:104040000020D1490870D149087005E00520C94910
:1040500048710120C8490870C648007920B9052078
:10406000C4490871FEF71FFBFEF7A8FC0446012CAB
:104070001ED113F0D8FA38F0D3F9C5480178284694
:10408000FDF7FFFDFCF75AFD07460146C1A014F0FD
:10409000BFFA13F063FE2846FEF772FCB54988713B
:1040A000FCF74CFD074616F04AFE0320B2490870A3
:1040B000B048C07800BB0520AE49C87013F0D6FAEE
:1040C00013F064FBB0B10020AA49887015F0A6FC7B
:1040D00064203BF0A3FB38F0A3F9022211461046FE
:1040E00000E08FE2FEF702FAFEF778FA0F20A2490D
:1040F000087001E015F043FF39F05FFB38B1022290
:1041000011461046FEF7F2F913209B490870012072
:1041100012F0E0FCFCF712FD074614F085FD39F0C3
:10412000B5FB07461BF0FAFD00201BF00EFE17F052
:1041300027F867E29DF81C0080B19DF81C109AA03A
:1041400014F054FB05208B494871FCF7F7FC08B9C3
:10415000FCF7C3FC05A907A8FCF7FCFC05A9012096
:1041600016F0B3FF07908348407928B943200790A1
:1041700002200590FEF732FA7F480078032805D127
:10418000834801782846FDF77CFD06E07A480078F0
:1041900018B938F045F9FEF721FA33E29DF81C0012
:1041A00050B1142073494871FCF7C8FC08B9FCF7FA
:1041B00094FC07A8FDF752F905A9012016F085FF28
:1041C00007906C4810E0C7E3ADE39CE370E3EDE2D9
:1041D000BCE2ABE270E216E223E105E1A4E07FE09D
:1041E0007DE079E077E015E0407918B94320079049
:1041F0000220059060480078032805D164480178C2
:104200002846FDF73EFD04E05B48007808B938F029
:1042100007F9F7E1FEF7D2FB0446012C15D15C4803
:1042200001782846FDF72DFD2846FEF7A9FB5149E8
:104230008871FCF783FC074616F081FDFCF77EFCD5
:104240000746014653A014F0E3F905A9002016F033
:104250003CFF07909DF81C0058B19DF81C1056A01B
:1042600014F0C4FA052043494871012042490870FE
:10427000D3E313F0AFF910B9FFF720F878B1524843
:10428000407808B1012D0AD15048006838B90022A1
:1042900002210846FEF72AF90D20374908703848F0
:1042A00090F82E00FF2809DA4748407808B1012D20
:1042B00004D14648006808B9FFF70EF8022C02D175
:1042C0000E202D490870FCF739FC074614F0ACFCB1
:1042D00016F056FFA1E3A0E3FEF75EFE9DE39CE32C
:1042E0003B480068FDF785FE2846FEF749FB21495B
:1042F0008871032020490870002023490870234951
:1043000008703448002101803348018081703348AF
:1043100000683BF043F800202D4908601C480178F4
:104320002846FDF7AEFC78E3FDF7C7FEFCF706FC78
:10433000F8B12846FEF724FB0E49887103200E4988
:1043400008700020104908701049087021480021A9
:104350000180214801808170204800683BF01EF8F0
:1043600000201B4908600A4801782846FDF789FCAF
:1043700039E035E0780A00101B0000104000001002
:10438000F007001048000010190000101A0000107B
:10439000390000100D0A2041707032616D6F756E2A
:1043A000743D256C640000000D0A204170704B655F
:1043B00079323D25640000000D0A204170704B6584
:1043C00079313D2564000000B80800102C00001071
:1043D00034000010170000101400001094000010AA
:1043E0000E20FD49087018E3FDF7B8FE0320FA49D6
:1043F00008700020F9490870F9490870F94800214F
:104400000180F94801808170F84800683AF0C6FFE1
:104410000020F7490860F74801782846FDF731FC8D
:10442000FBE2002202210846FEF760F8FDF7BFFE1E
:10443000F1480088642190FBF1F0C7B2EE48008893
:1044400090FBF1F201FB120000F0FF083A46012157
:1044500040460BF029FF0690069801285AD1E448FF
:104460000068FEF700FFE548006860B1E4480178A5
:104470000078401CE24B18700223DB4ADC480068DD
:1044800013F0BFFC10E0DE4801780078401CDC4BE4
:1044900018700023D44AD648006813F0B2FCD44800
:1044A000006880B21BF0F5F9D3480088642190FBC6
:1044B000F1F000F0FF0AD048008890FBF1F201FB18
:1044C000120000F0FF0B52460221584618F03BFF45
:1044D000C7B2FCF733FB0490C7480088642190FB07
:1044E000F1F201FB120000F0FF08C348008890FBC6
:1044F000F1F000F0FF09BE48049A016800238DE83E
:10450000860042464946184615F0BAFD0B20B249CE
:10451000087074E0B948006828B1BAA014F0DEF859
:1045200002201BF071F9BC4890F82F00012804D03C
:10453000B94890F82F0003282CD1AF480088642197
:1045400090FBF1F000F0FF0AAB48008890FBF1F21D
:1045500001FB1200C7B252460221384618F0F3FEA2
:1045600000F0FF09FCF7EAFA8346A34800886421BB
:1045700090FBF1F201FB120000F0FF089C4801687B
:1045800000234246CDE901B900910121992015F09F
:1045900077FD31E098480088642190FBF1F000F04D
:1045A000FF0A9548008890FBF1F201FB120000F031
:1045B000FF0B52460221584618F0C5FEC7B2FCF761
:1045C000BDFA04908C480088642190FBF1F201FB55
:1045D000120000F0FF088848008890FBF1F000F01E
:1045E000FF098348049A016800238DE8860042464B
:1045F0004946022015F044FD0C2077490870002040
:104600007B49086009E2FDF730FE84480078012804
:1046100042D1FCF793FAF0B303206F4908700125EB
:104620002846FEF7ADF97E4988716B48007803286B
:1046300041D17C4800687C490968884205D2002243
:1046400001210846FDF752FF04E000220121104637
:10465000FDF74CFF0020614908706149087061480E
:1046600000210180604801808170604800683AF054
:1046700095FE37F0D5FE5F4801782846FDF701FB2F
:10468000FCF75CFA074616F05AFB05A9002016F065
:104690001CFD07900FE0FFE7FCF750FA40B15548CA
:1046A00001782846FDF7EDFA0D204B49087002E02D
:1046B0000E2049490870B0E1FDF7FFFDFCF73EFA16
:1046C00098B303204449087001252846FEF758F99D
:1046D0005349887140480078032826D15148006822
:1046E00051490968884205D2002201210846FDF798
:1046F000FDFE04E0002201211046FDF7F7FE002038
:10470000364908703649087036480021018036481D
:1047100001808170354800683AF040FE37F080FE35
:10472000344801782846FDF7ACFA76E1FDF7FCFD48
:10473000FEF776FB06461EB13046FDF73FFE01E070
:10474000FDF715FE0E202449087066E1FDF79BFE7B
:10475000FCF7E0F900250020294908702649088067
:10476000244908702E490871012211461046FDF7B0
:10477000BDFE00202D490870FDF730FF01200FF02D
:10478000B9F82B49086013F0E6FD234890F898002B
:10479000012802D116F0B4F902E0012016F09CF9CC
:1047A00037F03EFE00200C49087036E11C48807846
:1047B00020B91E201A498870FCF74FF81848C078B5
:1047C00048B905201649C87012F050FF012012F0B8
:1047D00081F92FE025E149E01B00001019000010CD
:1047E0001A000010170000101400001094000010B0
:1047F0003400001039000010300000102C000010B0
:10480000380000100D0A2041707043487568756FBC
:104810004661696C00000000F0070010B808001045
:10482000780A0010240000103C0000101C0000104A
:104830004000001012F0AAFF98B900207A49887051
:1048400037F0EEFD012211461046FDF74FFE6420C1
:104850003AF0E4FF15F0E2F8FDF7C0FE00207349DE
:104860000870FCF76BF9074614F0DEF938F0A5FF85
:1048700010B113206D490870FEF7A0F80446012C12
:1048800015D112F0D0FE37F0CBFD694801782846EB
:10489000FDF7F7F9FCF752F907460146AFF20C5065
:1048A00013F0B6FE13F05AFA102060490870B4E015
:1048B000FEF784F80446012C0CD15D4801782846A7
:1048C000FDF7DFF9FCF73AF907460146AFF23C5035
:1048D00013F09EFE12F07EFE50B15648006838B9C3
:1048E000002202210846FDF701FE11204F49087001
:1048F000022C02D112204D490870FCF71FF907461F
:1049000014F092F989E0FDF70FFDFEF789FA0646EB
:104910001EB13046FDF752FD01E0FDF728FD1220E3
:104920004249087079E0FDF7AEFDFCF7F3F8002589
:104930000020414908704149088037F071FD00228C
:1049400001210846FDF7D2FD13F005FDFDF746FEF7
:104950000F203649087060E0002016F0BDF8384896
:1049600090F82F0070B1012013F027F9344890F827
:10497000340038B9C8203AF051FF15F04FF8C8207C
:104980003AF04CFF00BFFCF7D9F8074614F04CF999
:10499000002008F0ACFE38F010FF0028F3D12249C7
:1049A000887037F03DFD012211461046FDF79EFD4F
:1049B000002024490870FDF711FE214890F82F00CF
:1049C000B8B10023009301931A46194605200293BB
:1049D00014F07AF8002013F0F0F8194890F8340039
:1049E00038B9C8203AF01AFF15F018F8C8203AF084
:1049F00015FF01200EF07EFF13490860104890F863
:104A00009800012802D116F07BF802E0012016F090
:104A100063F800200549087000BF00BF02203AF08B
:104A2000FDFEFFF7D8BA0000780A00101B00001046
:104A3000390000102C000010380000103000001069
:104A4000F00700101C00001040000010F0B585B009
:104A500000260027FAA103C9CDE9010137F0E0FCE7
:104A6000F9A036F06FFFB8E00F23EF2200210846CF
:104A700038F037FC0323EF220021084638F031FCE0
:104A8000F7488078F74951F82030F548009383784B
:104A900000220121082038F088FAF1488178F14895
:104AA000183050F82130EE48009383780022062118
:104AB000302038F07AFA0E23EE220D21012037F053
:104AC000E9FCE7488178E748483050F82130E4486D
:104AD0000093837800220D211C2038F066FA7BE0D9
:104AE000002700240AE0342101EB0411C8B200239E
:104AF000DDA2092137F0F8FC601CC4B2082CF2DBFF
:104B000069E038F022FE0546F5B3432D02D10020BE
:104B100005B0F0BD03A8855531013431C8B200237A
:104B2000D2A2092137F0E0FC701CC6B2082E4FD18A
:104B300000260127002408E003A8005D01A9095D03
:104B4000884200D00027601CC4B2082CF4DB012F7F
:104B500001D10120DCE70E23EE220D21012037F0E8
:104B600099FCBF488178BF48303050F82130BC48AC
:104B70000093837800220D21302038F016FA4FF48C
:104B8000C8703AF04BFE00E022E00E23EE220D2129
:104B9000012037F07FFCB2488178B248483050F8A5
:104BA0002130AF480093837800220D21302038F067
:104BB000FCF900240AE0342101EB0411C8B20023FF
:104BC000A9A2092137F090FC601CC4B2082CF2DBCA
:104BD00005203AF023FE94E782E745E738B537F041
:104BE0001FFC0F23EF220021084638F07AFB032335
:104BF000EF220021084638F074FB4CE00E23EE2231
:104C00000421012037F046FC95488078984951F8F6
:104C1000203093480093837800220121082038F047
:104C2000C4F98F4881789248183050F821308C4868
:104C300000938378002207213C2038F0B6F9884899
:104C400081788B48303050F8213085480093837844
:104C500000220B21282038F0A8F981488178844867
:104C6000483050F821307E480093837800220B2191
:104C70008C2038F09AF90DE038F067FD0446432C9B
:104C800001D1002038BD452C01D10120FAE70A20CE
:104C90003AF0C4FDF0E7B1E770B50026704890F82F
:104CA0002200022873D17348406F7249B1F8C010D6
:104CB000484370498A6FB1F8C21002FB01016D4888
:104CC000C26FB0F8C40002FB00116A48D0F880201F
:104CD000B0F8C60002FB00116648D0F88420B0F896
:104CE000C80002FB00116348D0F88820B0F8CA0061
:104CF00002FB00115F48D0F88C20B0F8CC0002FB1A
:104D000000115C48D0F89020B0F8CE0002FB0011F2
:104D10005848D0F89420B0F8D00002FB0011554854
:104D2000D0F89820B0F8D20002FB00115148D0F81A
:104D30009C20B0F8D40002FB00114E48D0F8A0200F
:104D4000B0F8D60002FB00114A48D0F8A420B0F811
:104D5000D80002FB00114748D0F8A820B0F8DA00CC
:104D600002FB00114348D0F8AC20B0F8DC0002FB95
:104D700000114048D0F8B020B0F8DE0002FB00156A
:104D8000374890F82500022812D100240EE018E0E0
:104D9000394850F8240038B1374850F824101C30F6
:104DA00030F8140001FB0055601CC4B2072CEFDB87
:104DB0002B48D0F8C000A84201D901260FE00026F8
:104DC0000DE0274890F82200012803D112F0C3FD1E
:104DD000064604E0224890F8220000B9002630463A
:104DE00070BD70B5044600251D4890F82F000228BC
:104DF00017D1012C0BD112F0C6FC054612F0C3FCF2
:104E00000646024629461DA013F012FD09E0022CB9
:104E100007D1204890F8BC5090F8BC101EA013F0A9
:104E200007FD284670BD0146012902D0022949D15B
:104E300042E00B4880781F4A52F82000704700007B
:104E40003833373138353537456E74657253656C94
:104E500066436865636B46756374696F6E0D0A001F
:104E6000F0070010C06204005F0000002A0000008C
:104E700020630400400900104C0A00100D0A204174
:104E800070702050434572726F725363616C653D60
:104E9000256400008C0A00100D0A2041707020501B
:104EA000434572726F724F66664C696E653D25644C
:104EB00000000000906E0400FF488278FF4850F820
:104EC00022007047FC488278FC48183050F82200D5
:104ED000F7E700B58BB000200A900320099037F067
:104EE0009FFA0F23EF220021084638F0FAF9032336
:104EF000EF220021084638F0F4F9E8E30E23EE2211
:104F00000421012037F0C6FA032009900A980B28E3
:104F10007DD2DFE800F006D6FDFCFBFAF9F8F7F6E3
:104F2000F5000123E4488178E54850F82120E5A107
:104F3000E1488DE80E0080780346002201210790A9
:104F4000082038F032F8DC4890F8230002287ED19F
:104F5000DE488078A0B1D8488178D948183050F818
:104F60002130D5480093807807900998801CC0B202
:104F700009900690002201460520079B38F015F89D
:104F8000D248C078A0B1CC488178CD48303050F8B4
:104F90002130C9480093807807900998801CC0B2DE
:104FA00009900690002201460520079B37F0FDFF7F
:104FB000C6480079A0B1C0488178C148483050F84F
:104FC0002130BD480093807807900998801CC0B2BA
:104FD00009900690002201460520079B37F0E5FF67
:104FE000BA484079B0B1B4488178B548603050F8DB
:104FF0002130B1480093807807900998801CC0B296
:1050000009900690002201460520079B00E0A8E2D7
:1050100037F0CBFFAD488079A0B1A7488178A84888
:10502000783050F82130A448009380780790099890
:10503000801CC0B209900690002201460520079B03
:1050400037F0B3FFA148807808B9A04800E019E024
:10505000C078B8B99D480079A0B99C48407988B912
:105060009A48807970B994488178994850F82130ED
:10507000914800938078034600220721079005207D
:1050800037F093FF8C4880788D49303951F82000F3
:1050900006903FF079FCC000C0F1E700C0B2079075
:1050A000854881788648303850F82130824800930E
:1050B0008078034600220D210690079837F075FF8F
:1050C0004FE202237C4881787D4850F821207DA161
:1050D00079488DE80E008078034600220121079070
:1050E000082037F062FF744890F8230002287ED130
:1050F0007648C079F0B1704881787148903008E006
:10510000FEE3FEE3FEE3FEE3AEE3FDE22AE271E14D
:1051100094E050F82130684800938078079009980F
:10512000801CC0B209900690002201460520079B12
:1051300037F03BFF6548007AA0B15F48817860484E
:10514000A83050F821305C48009380780790099887
:10515000801CC0B209900690002201460520079BE2
:1051600037F023FF5948407AA0B15348817854481A
:10517000C03050F82130504800938078079009984B
:10518000801CC0B209900690002201460520079BB2
:1051900037F00BFFFFF780FDA0B147488178484802
:1051A000D83050F82130444800938078079009980F
:1051B000801CC0B209900690002201460520079B82
:1051C00037F0F3FE4148C07988B94048007A70B999
:1051D0003E48407A58B9FFF75FFD40B936488178BC
:1051E0003B4850F8213034480093807800E006E0D6
:1051F0000346002207210790052037F0D6FE2E48EF
:1052000081782F48183850F8210006903FF0BCFBF9
:10521000C000C0F1E700C0B2079027488178284855
:10522000183850F821302448009380780346002233
:105230000D210690079837F0B8FE92E101231E4831
:1052400081781F48F03050F821201EA11A488DE8BF
:105250000E0080780346002201210790082037F0D5
:10526000A4FE154890F8210002287ED11748807AC4
:1052700098B111488178174850F821300E480093B2
:10528000807807900998801CC0B20990069000228F
:1052900001460520079B37F088FE0C48C07A28B3EA
:1052A000054881780B48183050F8213002480093A7
:1052B0008078079009980FE0F0070010A86E0400AE
:1052C0007064040025732D256400000088490010D7
:1052D000D868040078650400801CC0B2099006906C
:1052E000002201460520079B37F05FFEF848007B4F
:1052F00098B1F8488178F84850F82130F548009383
:10530000807807900998801CC0B20990069000220E
:1053100001460520079B37F048FEED48407BA0B1D1
:10532000EC488178EC48183050F82130E948009377
:10533000807807900998801CC0B2099006900022DE
:1053400001460520079B37F030FEE148807BB0B175
:10535000E0488178E048303050F82130DD48009353
:10536000807807900998801C00E026E0C0B2099080
:105370000690002201460520079B37F016FED44810
:10538000807AD0B9D248C07AB8B9D148007BA0B9E8
:10539000CF48407B88B9CE48807B70B9CD488178B2
:1053A000CE4850F82130CB48009380780346002245
:1053B00007210790052037F0F8FDC6488178C848D6
:1053C00050F8210006903FF0DFFAC000C0F1E7007E
:1053D000C0B20790BF488178C14850F82130BD481D
:1053E00000938078034600220D210690079837F03D
:1053F000DCFDB6E00223B7488178B748483850F85A
:105400002120AFF24011B3488DE80E0080780346AA
:10541000002201210790082037F0C7FDAD4890F821
:10542000210002287ED1AA48C07BA0B1A94881787A
:10543000A948483050F82130A6480093807807905A
:105440000998801CC0B209900690002201460520F0
:10545000079B37F0AAFD9E48007CA0B19D4881784B
:105460009D48603050F821309A480093807807902A
:105470000998801CC0B209900690002201460520C0
:10548000079B37F092FD9248407CA0B1914881780B
:105490009148783050F821308E48009380780790FA
:1054A0000998801CC0B20990069000220146052090
:1054B000079B37F07AFD8648807CC8B18448C37C5E
:1054C000827C844881788448903050F8211085A0EF
:1054D0008DE80F007F48807807900998801CC0B243
:1054E00009900690002201460520079B37F05DFDDC
:1054F0007748C07BB0B97648007C98B97448407C46
:1055000080B97348807C68B972488178734850F8D4
:1055100021307048009380780346002207210790CD
:10552000052000E001E037F040FD6A4881786C48D2
:1055300050F8210006903FF027FAC000C0F1E700C4
:10554000C0B2079063488178654850F821306148BF
:1055500000938078034600220D210690079837F0CB
:1055600024FD51E25B4881785B48A83050F8213037
:1055700058480093807803460022012107900820B4
:1055800037F013FD534890F8220001287ED150488F
:10559000007DF8B14E48007D0690FFF744FC07906F
:1055A0005548C37D4B4881784B48C03050F8211096
:1055B00052A0079A8DE80F00464880780690099817
:1055C000801CC0B209900590002201460520069B70
:1055D00037F0EBFC3E48407DF8B13D48407D0690F9
:1055E000FFF721FC07904448037E3A4881783A4807
:1055F000D83050F8211041A0079A8DE80F003548A7
:10560000807806900998801CC0B20990059000220D
:1056100001460520069B37F0C8FC2D48807DF8B177
:105620002B48807D0690FFF7FEFB07903248437EB3
:10563000284881782848F03050F821102FA0079A88
:105640008DE80F002348807806900998801CC0B22E
:1056500009900590002201460520069B37F0A5FC25
:105660001B48007D90B91A48407D78B91848807D64
:1056700060B918488178194850F8213015480093CE
:105680008078034600220721079000E002E0052011
:1056900037F08BFC0F488178114850F821000690B4
:1056A0003FF072F9C000C0F1E700C0B207900948AE
:1056B00081780B4850F821300648009380780346E3
:1056C00000220D210690079837F06FFC9CE1FEE365
:1056D00088490010F0070010A8650400D86804008D
:1056E0005864040025735B25233032785D5B2523E5
:1056F0003032785D00000000584900102573257392
:105700005B25233032785D000123FF488178FF4814
:1057100050F82120AFF25441FB488DE80E0080780C
:105720000346002201210790082037F03EFCF6488E
:1057300090F82D0001282FD1F548807EA0B1F248C5
:105740008178F248183050F82130EF480093807883
:1057500007900998801CC0B209900690002201466B
:105760000520079B37F021FCE948C07EA0B1E64840
:105770008178E648303050F82130E3480093807853
:1057800007900998801CC0B209900690002201463B
:105790000520079B37F009FCDD48007FA0B1DA48FF
:1057A0008178DA48483050F82130D7480093807823
:1057B00007900998801CC0B209900690002201460B
:1057C0000520079B37F0F1FBD148407FA0B1CE48C0
:1057D0008178CE48603050F82130CB4800938078F3
:1057E00007900998801CC0B20990069000220146DB
:1057F0000520079B37F0D9FBC548807EB8B9C4485F
:10580000C07EA0B9C248007F88B9C148407F70B946
:10581000BD488178BF4850F82130BB48009380785C
:105820000346002207210790052037F0BEFBB6484B
:105830008178B94850F8210006903FF0A5F8C000E3
:10584000C0F1E700C0B20790AF488178B24850F885
:105850002130AD4800938078034600220D21069048
:10586000079837F0A2FBFBE30223A7488178A748FB
:1058700050F82120AFF2B451A3488DE80E00807893
:105880000346002201210790082037F08EFBA04834
:10589000807FA0B19C4881789C48783050F82130B6
:1058A00099480093807807900998801CC0B20990AD
:1058B0000690002201460520079B37F076FB9448AE
:1058C000C07FA0B1904881789048903050F8213046
:1058D0008D480093807807900998801CC0B2099089
:1058E0000690002201460520079B37F05EFB8848A2
:1058F00090F82000C8B1844881788448A83003E03B
:10590000FAE21AE25DE180E050F821307E4800932F
:10591000807807900998801CC0B2099006900022F8
:1059200001460520079B37F040FB794890F821009D
:10593000A0B1754881787548C03050F82130724860
:105940000093807807900998801CC0B20990069057
:10595000002201460520079B37F027FB6C4890F892
:105960002200A0B1684881786848D83050F82130CA
:1059700065480093807807900998801CC0B2099010
:105980000690002201460520079B37F00EFB604879
:10599000807FE8B95E48C07FD0B95D4890F82000AC
:1059A000B0B95B4890F8210090B9594890F82200AE
:1059B00070B955488178574850F8213052480093C3
:1059C00080780346002207210790052037F0EDFA82
:1059D0004D488178504850F8210006903EF0D4FFA1
:1059E000C000C0F1E700C0B20790474881784A483C
:1059F00050F82130444800938078034600220D215E
:105A00000690079837F0D1FA2AE303233E488178BD
:105A10003E4850F82120AFF254713B488DE80E000B
:105A200080780346002201210790082037F0BDFA54
:105A3000374890F82300A0B1334881783348F030DC
:105A400050F8213030480093807807900998801CE6
:105A5000C0B209900690002201460520079B37F04E
:105A6000A4FA2B4890F8240098B1274881782B4855
:105A700050F8213024480093807807900998801CC2
:105A8000C0B209900690002201460520079B37F01E
:105A90008CFA1F4890F82500A0B11B4881781F4858
:105AA000183050F8213018480093807807900998F2
:105AB000801CC0B209900690002201460520079B79
:105AC00037F073FA124890F82600A0B10E4881789A
:105AD0001248303050F821300B48009380780790FE
