:020000040000FA
:1000000000800010CD000000B9B80300B9B80300AB
:10001000B9B80300B9B80300B9B80300B9B8030010
:10002000B9B80300B9B80300B9B8030085020000ED
:10003000B9B8030000000000ED02000019960300AB
:10004000B9B803001B8E0300F18D0300DF8D0300A0
:10005000CD8D03005D6903002D6B03000D66030069
:100060002D6D0300B9B8030031700300B9B8030067
:10007000B9B80300B9B80300B9B80300B9B80300B0
:10008000B9B80300B9B80300B9B80300B9B80300A0
:10009000BF870300B9B80300B9B80300B9B80300BB
:1000A000B9B80300B9B80300B9B80300B9B8030080
:1000B000B9B80300B9B80300B9B80300B9B8030070
:1000C000B9B80300B9B80300B9B8030000F002F8EA
:1000D00000F0C8F80AA090E8000C82448344AAF11A
:1000E0000107DA4501D100F0BDF8AFF2090EBAE818
:1000F0000F0013F0010F18BFFB1A43F0010318475C
:10010000D43305001434050010F8013B0A4413F001
:10011000030408BF10F8014B1D1108BF10F8015B64
:10012000641E05D010F8016B641E01F8016BF9D153
:10013000002D15D010F8014B03F00C030C2BA1EB94
:1001400004040ABF10F8013BA4EB8314A4EB0324BE
:1001500005F1010314F8016B5B1E01F8016BF9D581
:10016000914238BF10F8013BD1D37047103A24BFF9
:1001700078C878C1FAD8520724BF30C830C144BF0C
:1001800004680C607047000000230024002500264E
:10019000103A28BF78C1FBD8520728BF30C148BFEA
:1001A0000B6070476E293FF0178770293FF0FE8281
:1001B000662901F08EA0652901F08BA0672901F066
:1001C00088A06129AFF3008003681B0A28BF41F0B3
:1001D000800169293FF06E8264293FF06B827529A6
:1001E0003FF068826F2900F009A078293FF0CA82A9
:1001F000E9293FF0A187E4293FF09E87F5293FF0E8
:100200009B87EF2900F006A0F8293FF0C982036818
:10021000DB0928BF41F0800163293FF02287732961
:100220003FF02787E32900F07AA2F32900F07FA2AC
:10023000002070471FB541F045F89DE803003FF0EE
:1002400029FE40F0F3FA04000020002141F020F8DC
:10025000401C60600020002141F004F8E0601FBDF8
:1002600010B510BD40F0B4FA1146FFF7E3FF00F0FF
:100270002CF940F095FB03B4FFF7F2FF03BC3BF011
:100280005CFF0000052828BF70474FEA80007844D3
:10029000D0F802F0ED020000B302000051030000AC
:1002A00071030000910300004FF0010080F31488F7
:1002B00000DF0A4C4FF00105257077463FF006F944
:1002C000BE46074E3668074C2660D6F800D001BC03
:1002D00005490860BDE8F00F704700BF83060010B5
:1002E000940600108C060010580600104FF008020B
:1002F00082F3118800B53FF0E9F85DF804EB2DE9D1
:10030000F00F0E49086801B40D4A1268C2F800D017
:100310000C4C0D4D2E7826700C4E3668084C26601D
:10032000D6F800D001BC086000280CBF00220822CB
:1003300082F31188BDE8F00F704700BF5806001027
:100340008C06001078060010790600109406001044
:100350000649086800F101004FF0080282F3118895
:10036000002808BF70470860704700BF580600109B
:100370000649086800281CBF01380860002818BF1B
:1003800070474FF0000282F3118870475806001042
:100390004FF0000080F3148870474FF0010080F3A5
:1003A0001488704788476FF0FF003AF0CEFC0000D9
:1003B0001CB5544890F82B200121182038F078F80B
:1003C0000E230222CDE900234FA30E21282037F06F
:1003D00048FF1CBD08B500BF38F02BFA36F00CFB07
:1003E00036F0F2FB36F0ADF936F0EEFC38F070FE88
:1003F00037F0DBF84849002038F0E4FD36F0A6FD80
:1004000038F0E4FE38F015FA00200EF0B1FA0020C2
:100410000EF08AF8FFF7CCFF36F0D6FB0DF052F85D
:1004200006233E4A00213E483AF0EEFB02203AF015
:1004300085FA3EF045FF16F04BFC02203AF07EFABA
:1004400016F066FA02203AF079FA1EF0AEFB1EF0C2
:1004500053FC02203AF072FA1CF065FA6A46002159
:10046000304800683AF0BEFE0FF059F817F016FC5D
:1004700084212D483FF0CEFB02203AF05FFA092399
:100480002A4A00212A483AF0BFFB02203AF056FAE5
:100490001AF0F2F902203AF051FA0823254A002115
:1004A00025483AF0B1FB02203AF048FA19F0CEFCA8
:1004B000C8203AF043FA07E0002003F09CFC02E079
:1004C00032203AF03BFAFBE7F6E700B585B03BF0A7
:1004D000F8F93BF0B5F939F0F2F9012300221902DD
:1004E0001648CDE90323CDE901010723144A002171
:1004F000AFF21F1000933AF0CFFB39F0A3FA0020BF
:1005000005B000BDD006001076657273696F6E2568
:10051000642E25303264000080A90300C43200102C
:10052000C94602007C000010380A0010C4460010C2
:10053000ED5B0300C4420010599B0200C80A001082
:10054000C42A0010F8B505460E4614461F460A2177
:10055000002037F063FF022301220B21002037F037
:100560002BFFFF480095837800220B21282037F0CD
:10057000CCFDFB488078012807D0F94800968378A5
:1005800000220D21282037F0C0FD20463FF030FA30
:10059000C8B1022301220B21702037F00DFFF04873
:1005A0000094837800220B21982037F0AEFDEC48B0
:1005B0008078012807D0EA480097837800220D212F
:1005C000982037F0A2FDF8BD10B501220A210020C5
:1005D00037F0D0FC03220B21002037F0CBFC10BDFC
:1005E00030B58BB0202103A83FF014FBDD4836F076
:1005F000CCFC02203AF0A2F9DB480078F0B3D948ED
:1006000036F0C3FC02203AF099F9022304220121BA
:10061000002037F0D1FED548D0F8AC1003A83FF049
:10062000C3F903AB02220121282037F01AFECF487C
:10063000D0F8B41003A83FF0B7F903AB01220321AF
:10064000282037F00EFEC6488078C0EBC00202EBCF
:100650000010C64A02EB8000816D03A83FF0A4F9A8
:1006600003ABBF480093837800220521282037F090
:100670004CFDBB4890F8BC00012800E074E019D1A3
:10068000BB4880890A2190FBF1F201FB1204B848B3
:10069000808990FBF1F523462A46B6A103A83EF0D7
:1006A00085FF03ABAE480093837800220721282002
:1006B00037F02BFD0A21002037F0B0FEAF48C0888C
:1006C000A849C98888420BD1AC484079A5494979E5
:1006D000884205D1A948C078A249C978884222D069
:1006E000A048C288A6A103A83EF060FF03AB022287
:1006F0000B21282037F0B5FD9A48C3784279A2A192
:1007000003A83EF053FF03AB02220D21282037F04F
:10071000A8FD9448C0889949C8809248407948719A
:100720009048C078C870954880788E49897888420A
:1007300005D1924840788B494978884213D089483E
:100740004378827893A103A83EF030FF03AB0322E5
:100750000B21602037F085FD8248807887498870BA
:1007600080484078487078E07D48807800EB8000D1
:100770008B4A02EBC000816903A83FF015F903AB77
:1007800077480093837800220221482037F0BDFC8F
:10079000734890F8BC00012819D1754880890A2156
:1007A00090FBF1F201FB12047148808990FBF1F596
:1007B00023462A466FA103A83EF0F8FE03AB684823
:1007C0000093837800220521AA2037F09EFC6B4815
:1007D000C0886449C98888420BD16848407961491A
:1007E0004979884205D16548C0785E49C978884210
:1007F00015D05C48C3784279C1888DE80E0069A3A2
:1008000002220621502037F02CFD5648C0885B4953
:10081000C8805448407948715248C078C8705748D9
:10082000807850498978884205D1544840784D49AC
:100830004978884211D04B4843788278CDE900232B
:1008400054A3042208213C2037F00BFD4548807852
:100850004A4988704348407848700BB030BD30B585
:1008600089B0202101A83FF0D5F93E4836F08DFB34
:1008700002203AF063F8022303220121002037F01E
:100880009BFD37488078C0EBC00202EB0010374A6E
:1008900002EB8000C16C01A83FF086F801AB304844
:1008A0000093837800220121282037F02EFC2C4869
:1008B0008078C0EBC00202EB00102C4A52F82010E6
:1008C00001A83FF071F801AB25480093837800221E
:1008D0000321282037F019FC214890F8BC0001289A
:1008E00019D1234880890A2190FBF1F201FB1204FF
:1008F0001F48808990FBF1F523462A461DA101A8D7
:100900003EF054FE01AB1648009383780022052187
:10091000282037F0FAFB0A21002037F07FFD174826
:10092000C0881049C98888420BD1144840790D49C4
:100930004979884205D11148C0780A49C978884266
:100940004ED00848C2880EA101A83EF02FFE01AB90
:1009500002220B21282037F084FC0248C37829E0CA
:10096000D0060010000000101C000010E001001074
:10097000E050001025642E2564209200080000102D
:100980002530346400000000253032642D253032DB
:1009900064000000253032643A25303264000000E3
:1009A00018010010253034642D253032642D253097
:1009B000326400004279AFF2300101A83EF0F6FD4A
:1009C00001AB02220D21282037F04BFCFF48C088E4
:1009D000FF49C880FD4840794871FC48C078C8701C
:1009E000FB488078F9498978884205D1F8484078F1
:1009F000F6494978884214D0F44843788278AFF2B7
:100A00006C0101A83EF0D2FD01AB03220B21602056
:100A100037F027FCED488078ED498870EB48407846
:100A2000487009B030BD10B50246012904D0E94B29
:100A300093F89930012B2CD11378412B0BD153789B
:100A4000303B03EB8303642404EB43049378303B93
:100A5000234498B228E01378422B0BD15378303BD3
:100A600003EB8303C82404EB43049378303B234413
:100A700098B219E01378303B642463435478303CD7
:100A800004EB840403EB44049378303B234498B292
:100A90000AE01378303B03EB8303642404EB430444
:100AA0005378303B234498B210BD30B502460B78E2
:100AB000303B4FF47A7463434C78303C04EBC4050C
:100AC00005EB041403EB84041378303B03EB83033E
:100AD00004EB43045378303B234498B230BD0EB549
:100AE00036F04EFDB948C3784279C1888DE80E00D2
:100AF000AFF2501302221146502037F0B2FBB34838
:100B000043788278CDE90023AFF2781304221146AE
:100B10003C2037F0A6FB0EBD10B50020AE49087092
:100B2000AE490870AE4800210180AE480180817056
:100B30000020AD498870AD48006839F0BFFC10BD99
:100B4000AB480068AB4909680844AB4909680844E8
:100B5000AA490968084470472DE9F04F95B0064648
:100B6000884620210DA83FF055F8202105A83FF028
:100B700051F84FF0000900200490002400250027C0
:100B800098F8000002281DD13078432802D0307830
:100B9000452817D100209049087092480021018013
:100BA0008170FFF7CDFF18B103209549087006E06A
:100BB000FFF7B2FFFFF708FD00209149087015B05C
:100BC000BDE8F08F98F8000002286FD13178824894
:100BD00002780078401C804B1870824881547D4810
:100BE000807800EB8000874A52F830100DA83EF064
:100BF000DBFE784890F83100012813D1794800785D
:100C00002E2803D141207749087006E07548007806
:100C1000442802D142207349087072490DA83EF061
:100C20004CFF03E06F490DA83EF047FF7548816A0D
:100C300005A83EF0B9FE6B4905A83EF03EFFAFF2B5
:100C4000BC23AFF2C02205A90DA8FFF77BFC6148C9
:100C500090F83100012804D05E4890F899000128EE
:100C600077D15D48007803281FDB5A4890F831009F
:100C7000E8B95C4800782E2813D05A4800784428F8
:100C80000FD0584840782E280BD05648407844283A
:100C900007D0544880782E2803D0524880784428C2
:100CA00005D14FF005090120049057E263E14D485A
:100CB00040782E280BD04B484078442807D049482C
:100CC00080782E2803D047488078442804D14FF0FC
:100CD00005090120049041E23E4890F83110414856
:100CE000FFF7A1FE0446642094FBF0F000F0FF0A39
:100CF000642094FBF0F100FB114000F0FF0B514623
:100D000058461BF008FF00F0FF09324890F82F000A
:100D1000022827D1642094FBF0F000F0FF0A642041
:100D200094FBF0F100FB114000F0FF0B52465946D6
:100D3000012018F027FD00202749087029480021CC
:100D400001808170FFF7FCFE20B103202C49087060
:100D500007E064E0FFF7E0FEFFF736FC00202849DB
:100D600008702CE71B4890F82F00042854D1642009
:100D700094FBF0F100FB114000F0FF0A642094FBAB
:100D8000F0F000F0FF0B514658461CF0A9FC074656
:100D90006FB1642094FBF0F000F0FF0A3946504632
:100DA0001CF02EFE012802D0384619F024F800204D
:100DB000094908700B48002101808170FFF7C0FECF
:100DC00018B103200E49087025E01DE00000001056
:100DD00008000010D0060010190000101A000010C2
:100DE00017000010140000105409001094000010A7
:100DF0002000001024000010280000102C0000101B
:100E00001B00001018010010FFF786FEFFF7DCFB47
:100E10000020FF490870D2E6012004909EE1FD48C1
:100E20000078022813DBFC4800782E280BD0FA4803
:100E30000078442807D0F84840782E2803D0F64898
:100E40004078442804D14FF005090120049085E141
:100E5000F24890F83110F048FFF7E5FD04466420B1
:100E600094FBF0F000F0FF0A642094FBF0F100FB2B
:100E7000114000F0FF0B514658461BF04CFE00F0AD
:100E8000FF092146E6A017F0D5F8E44890F82F00B6
:100E9000022826D1642094FBF0F000F0FF0A6420C1
:100EA00094FBF0F100FB114000F0FF0B5246594655
:100EB000012018F067FC0020D6490870D6480021B0
:100EC00001808170FFF73CFE18B10320D049087003
:100ED00006E0FFF721FEFFF777FB0020CC49087002
:100EE0006DE6CE4890F82F00042841D1642094FB91
:100EF000F0F100FB114000F0FF0A642094FBF0F0D9
:100F000000F0FF0B514658461CF0EAFB0746CFB1F4
:100F1000642094FBF0F000F0FF0A394650461CF0C4
:100F20006FFD01280ED0642094FBF0F000F0FF0A62
:100F30000322394650461CF099FC032802D038465B
:100F400018F059FF0020B3490870B3480021018010
:100F50008170FFF7F5FD18B10320AD49087006E078
:100F6000FFF7DAFDFFF730FB0020A949087026E6FD
:100F700001200490F2E098F8000001280AD13278AC
:100F8000012108461BF0EFFC044624B94FF002098A
:100F900001200490E2E09F480078002804DD4FF033
:100FA000050901200490D9E09C4890F831000128FF
:100FB00023D14121974802780078401C954B187046
:100FC000954881540A2094FBF0F03030C2B21846A4
:100FD00001780078401C18708F4842540A2094FB16
:100FE000F0F100FB11403030C1B2184602780078B1
:100FF000401C1870884881541AE00A2094FBF0F0D5
:101000003030C1B2834802780078401C814B1870A0
:10101000814881540A2094FBF0F100FB11403030EC
:10102000C1B2184602780078401C18707A48815482
:101030007A48807800EB80007F4A52F830100DA883
:101040003EF0B2FC74490DA83EF037FD7A48816A43
:1010500005A83EF0A9FC704905A83EF02EFDAFF2B0
:10106000DC63AFF2E06205A90DA8FFF76BFA6B48ED
:1010700090F831106848FFF7D6FC0446642094FBD2
:10108000F0F000F0FF0A642094FBF0F100FB114047
:1010900000F0FF0B514658461BF03DFD00F0FF09E4
:1010A0005E4890F82F00022826D1642094FBF0F0CF
:1010B00000F0FF0A642094FBF0F100FB114000F007
:1010C000FF0B52465946012018F05CFB00205149A5
:1010D00008705148002101808170FFF731FD18B17F
:1010E00003204B49087006E0FFF716FDFFF76CFA86
:1010F00000204749087062E5484890F82F0004280E
:101100002AD1642094FBF0F100FB114000F0FF0AAB
:10111000642094FBF0F000F0FF0B514658461CF0A1
:10112000DFFA074617B1384618F065FE0020394946
:1011300008703948002101808170FFF701FD18B166
:1011400003203349087006E0FFF7E6FCFFF73CFA9E
:1011500000202F49087032E501200490049878B3EC
:10116000B9F1060F34D2DFE809F0AA7B0334047A20
:1011700000BF2A48807800EB80002F4A02EBC000B5
:1011800041690DA83EF010FC2B48C16B05A83EF04C
:101190000BFCAFF61003AFF6140205A90DA8FFF77C
:1011A000D1F94FF4C87039F0C9FBFFF7C9FC40B161
:1011B000194800210180817003201549087007E05B
:1011C0004CE1FFF7A9FCFFF7FFF900201049087078
:1011D00040E11248807800EB8000174A02EBC00023
:1011E00001690DA83EF0E0FB1348816B05A83EF0B5
:1011F000DBFBAFF67003AFF6740205A90DA8FFF78D
:10120000A1F94FF4C87039F099FBFFF799FC15E08C
:101210001B0000101900001014000010D006001070
:101220000D0A2041505055626F7842746E636C6FA6
:10123000756D6E3D256400001801001038B1FF483F
:101240000021018081700320FD49087006E0FFF74E
:1012500063FCFFF7B9F90020F9490870FAE000BF14
:10126000F848807800EB8000F74A02EBC000416844
:101270000DA83EF099FBF448C16A05A83EF094FB26
:10128000AFF60013AFF6041205A90DA8FFF75AF93F
:101290004FF4C87039F052FBFFF752FC38B1E74801
:1012A0000021018081700320E549087006E0FFF706
:1012B00033FCFFF789F90020E1490870CAE0642097
:1012C00094FBF0F000F0FF0A642094FBF0F100FBC7
:1012D000114000F0FF0B5246012158461BF023FC41
:1012E000DA49086008460568D64890F82700A8B390
:1012F000012834D0022830D16420B5FBF0F100FB86
:10130000115AB5FBF0FBCF48807800EB8000CE4946
:1013100001EBC000C168CB48CDE901BA00918078EB
:1013200000EB8000C84901EBC000C44BC8A1C269F2
:101330000DA83EF03BF96420B5FBF0F100FB115A1B
:10134000B5FBF0FBC048416BCDE901BA0091BB4B46
:10135000BFA1426C05A83EF029F95BE033E00A200A
:10136000B5FBF0F5B5FBF0F100FB115AB5FBF0FB56
:10137000B448807800EB8000B34901EBC000C1683D
:10138000B048CDE901BA0091807800EB8000AE4909
:1013900001EBC000A94BB3A1C2690DA83EF006F94C
:1013A0000A20B5FBF0F100FB115AB5FBF0FBA64893
:1013B000416BCDE901BA0091A04BAAA1426C05A8EE
:1013C0003EF0F4F826E06420B5FBF0FA9D48807802
:1013D00000EB80009C4901EBC000C2689948CDE950
:1013E000002A807800EB800001EBC000934BA1A1A4
:1013F000C2690DA83EF0DAF86420B5FBF0FA924815
:10140000426BCDE9002A8D4B9AA1426C05A83EF0B3
:10141000CDF800BF00BFAFF69423AFF6982205A920
:101420000DA8FFF78FF8C82039F088FAFFF788FB7E
:1014300028B19348048005208149087009E0C8203C
:1014400039F07CFAFFF768FBFFF7BEF800207C4913
:10145000087000BF00BF00208A49087000BF80E408
:101460002DE9F04F93B0064620210BA83EF0D2FBA9
:10147000202103A83EF0CEFB0027B846B946002441
:101480000025307843281BD100207E4908707E4912
:1014900008706A480021018081707C480180FFF754
:1014A0004FFB18B103206649087006E0FFF734FBD4
:1014B000FFF78AF800206249087013B0BDE8F08F8A
:1014C00071480078F0BB3078452829D032786D48D3
:1014D00001780078401C6B4B18706C484254594896
:1014E000807800EB80006A4A02EB0010816C0BA848
:1014F0003EF05AFA65490BA83EF0DFFA6448D0F88E
:10150000981003A83EF050FA604903A83EF0D5FABF
:10151000AFF69033AFF6943203A90BA8FFF712F899
:1015200058480078022857DB58480078302839DBC3
:1015300056480078392835DC54484078302831DB6B
:10154000524800E0CBE0407839282BDC01204E499E
:10155000087000204B4908703848002101808170D4
:101560004A490BA83EF020FA3648807800EB80000C
:10157000474A02EB0010C16C0BA83EF09EFA4349AB
:1015800003A83EF011FA4248D0F89C1003A83EF0A0
:1015900094FAAFF61043AFF6144203A90BA8FEF776
:1015A000D1FFD4E10020374908703749087023483B
:1015B00000210180817035480180FFF7C1FA18B120
:1015C00003201F49087006E0FFF7A6FAFEF7FCFFAC
:1015D00000201B49087070E73078452864D12B48FB
:1015E0000078302861DB2948007839285DDC2748FD
:1015F0000078264948703020087001202249087080
:101600000020204908700D480021018081700D489C
:10161000807800EB80001E4901EB00101B4A1DA1E1
:10162000C36C0BA83DF0C2FF1948184A19A1D0F8A5
:101630009C3003A83DF0BAFF17A32FE01400001060
:101640001B000010D006001018010010340000101C
:1016500025732025732C2573253032642E253032D6
:101660006400000025732025732C257325642E2526
:101670006400000025732025732C25732564000069
:1016800030000010190000101A00001017000010A0
:10169000AC0300102573257300000000AFF20802B0
:1016A00003A90BA8FEF74EFF51E10020FB4908708B
:1016B000FB490870FB48002101808170FA480180D5
:1016C000FFF73EFA18B10320F849087006E0FFF76B
:1016D00023FAFEF779FF0020F4490870EDE6F048A0
:1016E000007801287ED13078452835D03178EB4814
:1016F00002780078401CE94B1870EA488154EA48A7
:1017000040783038E8490978303901EB810100EB45
:10171000410000F0FF09E34BE5480093807800EBBF
:101720008000E44901EB00104A46E3A1C36C0BA81A
:101730003DF03CFFDB4BDF4800934A46DEA1D0F88A
:101740009C3003A83DF032FFAFF2B403AFF2B80211
:1017500003A90BA8FEF7F6FED0480078022875DB37
:10176000D0480078302856DBCE480078392852DC43
:10177000CC48407830284EDBCA48407839284ADCCB
:10178000C949C848FFF791F90446642094FBF0F07A
:1017900000F0FF0A642094FBF0F100FB114000F020
:1017A000FF0B514658461BF0B6F9C7B2C04890F837
:1017B0002F0002282CD1642094FBF0F000F0FF0AE7
:1017C000642094FBF0F100FB114000F0FF0B524647
:1017D0005946012017F0D6FF0020B0490870B049E3
:1017E000087000E08BE0AF48002101808170AE48B6
:1017F0000180FFF7A5F918B10320AC49087006E095
:10180000FFF78AF9FEF7E0FE0020A849087054E6C9
:101810004FF001089BE00020A0490870A049087023
:10182000A0480021018081709F480180FFF788F95E
:1018300018B103209D49087006E0FFF76DF9FEF727
:10184000C3FE00209949087037E6FFE73078452845
:101850007DD194480078302852DB924800783928AE
:101860004EDC904800788F494870302008708E49CF
:101870008C48FFF71AF90446642094FBF0F000F05E
:10188000FF0A642094FBF0F100FB114000F0FF0B15
:10189000514658461BF03FF9C7B2854890F82F00D3
:1018A00002282AD1642094FBF0F000F0FF0A6420A3
:1018B00094FBF0F100FB114000F0FF0B524659463B
:1018C000012017F05FFF0020744908707449087008
:1018D000744800210180817073480180FFF730F95E
:1018E00018B103207149087006E0FFF715F9FEF7FB
:1018F0006BFE00206D490870DFE54FF0010826E01F
:10190000002066490870674800210180817068489E
:10191000807800EB8000674901EB0010624AAFF26B
:101920008C21C36C0BA83DF041FE62485E4AAFF2C9
:101930009C21D0F89C3003A83DF038FEAFF2A823DC
:10194000AFF2AC2203A90BA8FEF7FCFDB5E5B8F198
:10195000000F73D0062F3AD2DFE807F0BC72033ACB
:10196000047100BF5248807800EB8000544A02EBBB
:10197000C00041690BA83EF017F85148C16B03A89D
:101980003EF012F8AFF2F023AFF2F42203A90BA855
:10199000FEF7D8FD4FF4C87038F0D0FFFFF7D0F84D
:1019A00070B100203D4908703D4908703E48002153
:1019B00001803C480180817003203C49087006E0AA
:1019C000FFF7AAF8FEF700FE00203849087052E140
:1019D0003748807800EB8000394A02EBC00001698B
:1019E0000BA83DF0E1FF3648816B03A83DF0DCFF1A
:1019F000AFF25C33AFF2603203A90BA8FEF7A2FD91
:101A00004FF4C87038F09AFFFFF79AF870B10020D1
:101A1000224908702249087023480021018021488A
:101A20000180817003202149087006E0FFF774F8F7
:101A3000FEF7CAFD00201D4908701CE121E100BF2E
:101A40001B48807800EB80001D4A02EBC000416813
:101A50000BA83DF0A9FF1A48C16A03A83DF0A4FFF6
:101A6000AFF2CC33AFF2D03203A90BA8FEF76AFD78
:101A70004FF4C87038F062FFFFF762F810B300202F
:101A8000064908700649087007480021018005488A
:101A9000018081700320054908701AE019000010C8
:101AA0001A00001014000010170000101B00001096
:101AB000D0060010AC0300102564257325730000C8
:101AC00018010010FFF728F8FEF77EFD0020FD4901
:101AD0000870D0E0642094FBF0F000F0FF0A64206E
:101AE00094FBF0F100FB114000F0FF0B5246012186
:101AF00058461BF018F8F449086008460568F34892
:101B000090F82700B8B3012836D0022832D16420DB
:101B1000B5FBF0F100FB115AB5FBF0FBEB48807808
:101B200000EB8000EA4901EBC000C168E748CDE95D
:101B300001BA0091807800EB8000E54901EBC0001C
:101B4000E44BAFF2F441C2690BA83DF02FFD6420D5
:101B5000B5FBF0F100FB115AB5FBF0FBDC48416B23
:101B6000CDE901BA0091DB4BAFF21C51426C03A8E6
:101B70003DF01CFD5FE035E00A20B5FBF0F5B5FB5C
:101B8000F0F100FB115AB5FBF0FBD048807800EB78
:101B90008000CF4901EBC000C168CC48CDE901BA53
:101BA0000091807800EB8000C94901EBC000C94B6F
:101BB000AFF25051C2690BA83DF0F8FC0A20B5FB0A
:101BC000F0F100FB115AB5FBF0FBC148416BCDE9C8
:101BD00001BA0091BF4BAFF27451426C03A83DF0C3
:101BE000E5FC28E06420B5FBF0FAB848807800EB0B
:101BF0008000B74901EBC000C268B448CDE9002AB3
:101C0000807800EB800001EBC000B24BAFF29C513A
:101C1000C2690BA83DF0CAFC6420B5FBF0FAAC48E1
:101C2000426BCDE9002AAB4BAFF2B851426C03A82E
:101C30003DF0BCFC00BF00BFAFF2A453AFF2A8520E
:101C400003A90BA8FEF77EFCC82038F077FEFEF74C
:101C500077FF28B1A048048005209A49087009E060
:101C6000C82038F06BFEFEF757FFFEF7ADFC0020F2
:101C70009449087000BF00BF002098490870984937
:101C8000087000BF19E42DE9F041A4B006460D46E6
:101C900020211CA83DF0BEFF202114A83DF0BAFF72
:101CA00020210CA83DF0B6FF202104A83DF0B2FF92
:101CB000022038F043FEFEF743FF0446EEBB8348A4
:101CC0008078012814D08748036D8048807800EB25
:101CD0008000844901EB001083A102687B488DE8F5
:101CE0000E008378002202214C2036F00EFA0CE020
:101CF0007C48AFF23822036D7448CDE90023837825
:101D000000220221602036F000FA04221146002051
:101D100036F030F96D48807828B902230022052179
:101D20002C2036F049FB694890F8270048B3012879
:101D300014D0022831D1642000E05CE0B4FBF0F163
:101D400000FB1147B4FBF0F8AFF2F4630422114634
:101D50004C20CDE9008736F084FA1EE00A20B4FB5F
:101D6000F0F4B4FBF0F100FB1147B4FBF0F8AFF274
:101D70000473042211464C20CDE9008736F071FA35
:101D80000BE06420B4FBF0F7AFF2107304221146AD
:101D90004C20009736F065FA00BF00BF012D11D12D
:101DA0004A48807800EB80004E4A02EB0010816CBC
:101DB0001CA83DF0F9FD4B48D0F8981014A83DF050
:101DC000F3FD0FE04148807800EB8000454A02EBCC
:101DD000001001691CA83DF0E7FD4248016E14A8FF
:101DE0003DF0E2FDAFF25073AFF2547214A91CA89B
:101DF000FEF7A8FBC3E035488078012814D03948A5
:101E0000436D3248807800EB8000364901EB0010CA
:101E100035A142682D488DE80E008378002202210A
:101E20004C2036F072F912E02848807800EB8000F0
:101E30002C4901EB0010AFF27C3243682348CDE916
:101E40000023837800220221602036F05EF904220C
:101E50001146002036F08EF81C48807828B90223FD
:101E6000002205212C2036F0A7FA184890F8270008
:101E700038B3012812D0022846D16420B4FBF0F117
:101E800000FB1147B4FBF0F8AFF63403042211460F
:101E90004C20CDE9008736F0E4F935E00A20B4FBA8
:101EA000F0F4B4FBF0F100FB1147B4FBF0F8AFF62F
:101EB0004403042211464C20CDE9008736F0D1F9C5
:101EC00022E015E01B00001034000010D0060010C6
:101ED000180100101400001030000010190000104C
:101EE0001A000010AC03001025732F2573000000AA
:101EF0006420B4FBF0F7AFF67C03042211464C20BB
:101F0000009736F0AEF900BF00BF012D11D1FF4898
:101F1000807800EB8000FE4A02EB0010816C1CA868
:101F20003DF042FDFA48D0F8981014A83DF03CFD71
:101F30001FE0F648807800EB8000F54A02EB0010C5
:101F400041691CA83DF030FDF148416E14A83DF0F8
:101F50002BFDEE48807800EB8000ED4A02EB00108C
:101F600081690CA83DF020FDE948816E04A83DF090
:101F70001BFD04AB0CAA14A91CA8FEF7E3FA24B0BD
:101F8000BDE8F08100B591B0202109A83DF042FEE6
:101F9000202101A83DF03EFEDC48807800EB800067
:101FA000DB4A02EB0010816809A83DF0FDFCD8482F
:101FB000816D01A83DF0F8FCAFF62413AFF62812AE
:101FC00001A909A8FEF7BEFA11B000BD70B598B01E
:101FD0000446202110A83DF01DFE202108A83DF058
:101FE00019FE202168463DF015FEC848807800EBB8
:101FF0008000C74A02EB0010C16868463DF0D4FC7F
:10200000C348C16D08A83DF0CFFCC04890F8270038
:1020100018B3012810D0022829D16420B4FBF0F1B4
:1020200000FB1145B4FBF0F62B463246AFF6D81153
:1020300010A83DF0BBFA1AE00A20B4FBF0F4B4FBA0
:10204000F0F100FB1145B4FBF0F62B463246AFF63B
:10205000E41110A83DF0AAFA09E06420B4FBF0F501
:102060002A46AFF6E81110A83DF0A0FA00BF00BF65
:1020700010A968463DF021FDAFF6E413AFF6E81273
:1020800008A96846FEF75EFA4FF4C87038F056FCAF
:1020900018B070BD00B591B0202109A83DF0BAFD7F
:1020A000202101A83DF0B6FD9848807800EB800023
:1020B000974A02EB0010816B09A83DF075FC94482B
:1020C000D0F8881001A83DF06FFCAFF63423AFF6CE
:1020D000382201A909A8FEF735FA4FF4C87038F084
:1020E0002DFC11B000BD00B591B0202109A83DF034
:1020F00091FD202101A83DF08DFD8448807800EB02
:102100008000834A02EB0010C16B09A83DF04CFC33
:102110007F48D0F88C1001A83DF046FCAFF688232C
:10212000AFF68C2201A909A8FEF70CFA142038F0AA
:1021300005FC11B000BD00B591B0202109A83DF00B
:1021400069FD202101A83DF065FD7048807800EB15
:1021500080006F4A02EB0010016C09A83DF024FCDE
:102160006B48D0F8901001A83DF01EFCAFF6D823C4
:10217000AFF6DC2201A909A8FEF7E4F94FF4C87014
:1021800038F0DCFB11B000BD10B590B0202108A8DC
:102190003DF040FD202168463DF03CFD5D48008853
:1021A000642190FBF1F201FB12045848807800EBA7
:1021B0008000574901EB0010224657A1C36A08A8C6
:1021C0003DF0F4F953480088642190FBF1F201FBE3
:1021D00012044F48224650A1C36F68463DF0E6F90D
:1021E000AFF64C33AFF65032694608A8FEF7AAF9AD
:1021F00010B010BD00B591B0202109A83DF00AFD36
:10220000202101A83DF006FD4048807800EB8000C9
:102210003F4901EB0010AFF25C71C26A09A83DF0C2
:10222000C5F93B48AFF26C71C26F01A83DF0BEF931
:10223000AFF69C33AFF6A03201A909A8FEF782F9E8
:1022400011B000BD00B591B0202109A83DF0E2FC1D
:10225000202101A83DF0DEFC2C48807800EB8000B6
:102260002B4A02EB0010016B09A83DF09DFB2848AA
:10227000D0F8801001A83DF097FBAFF6E433AFF63D
:10228000E83201A909A8FEF75DF9642038F056FB91
:1022900011B000BD00B591B0202109A83DF0BAFCF5
:1022A000202101A83DF0B6FC1848807800EB8000A2
:1022B000174A02EB0010416B09A83DF075FB14486A
:1022C000D0F8841001A83DF06FFBAFF63443AFF6B1
:1022D000384201A909A8FEF735F94FF4C87038F063
:1022E0002DFB11B000BD00B591B0202109A83DF033
:1022F00091FC202101A83DF08DFC0448807800EB82
:102300008000074A52F8201009A80BE0D006001000
:10231000AC0300103000001025642025730000007D
:102320003C0500103DF040FBFF48416901A83DF02D
:102330003BFBAFF69C43AFF6A04201A909A8FEF70C
:1023400001F911B000BD00B591B0202109A83DF000
:1023500061FC202101A83DF05DFCF448807800EB91
:102360008000F14A02EB8000816809A83DF01CFB67
:10237000ED48C16901A83DF017FBAFF6E443AFF6A5
:10238000E84201A909A8FEF7DDF8642038F0D6FA82
:1023900011B000BD70B592B0044620210AA83DF0EE
:1023A00039FC202102A83DF035FCE04890F82700D8
:1023B00088B3012817D002283FD16420B4FBF0F184
:1023C00000FB1145B4FBF0F6D8480095807800EB8F
:1023D0008000D54901EB80003346D5A142680AA8A8
:1023E0003DF0E4F829E00A20B4FBF0F4B4FBF0F18E
:1023F00000FB1145B4FBF0F6CC480095807800EB6B
:102400008000C94901EB80003346CCA142680AA88C
:102410003DF0CCF811E0FFE76420B4FBF0F5C348D1
:10242000807800EB8000C04901EB80002B46C5A1FD
:1024300042680AA83DF0BAF800BF00BFBA488169F7
:1024400002A83DF0B1FAC0A3BFA202A90AA8FEF7F4
:1024500079F84FF47A7038F071FA12B070BD00B5A7
:1024600089B0202101A83DF0D5FB35F089F8022084
:1024700038F064FAAC48016A01A83DF095FA01AB66
:1024800003220521302035F0ECFEA8488078012891
:1024900013D0A648807800EB8000A34A02EB8000AE
:1024A000016901A83DF080FA01ABA0480093837850
:1024B00000220B213C2035F028FE09B000BDA348C6
:1024C0000068704770B506460C461546974890F868
:1024D0002300C8B1012E02D0022E14D109E09CA025
:1024E00015F098FC14F00EFB0121084614F0E7FEED
:1024F00009E09BA015F08EFC14F0F1FA00210120F8
:1025000014F0DDFE00BF00BF884890F82100C8B17C
:10251000012C02D0022C14D109E095A015F07AFC10
:1025200014F05BFC0121022014F0C9FE09E094A024
:1025300015F070FC14F036FC0021022014F0BFFEF0
:1025400000BF00BF794890F8260058B1012D02D095
:10255000022D06D102E01CF021FC02E01CF00DFC73
:1025600000BF00BF142038F0E9F970BD10B5FEF7C8
:10257000E7FAF0B986480078D8B98648407A012849
:1025800017D1FEF7DDFA04468248437A8048027884
:10259000214681A015F03EFC14F06CFA142038F0AE
:1025A000CDF9002211460120FFF78CFF142038F0EE
:1025B000C5F910BD00207D49C8804871C870887079
:1025C000487001207A49887070472DE9F04104462F
:1025D000002500260027012C1ED114F036FF58B923
:1025E000524890F8230038B101250020684908704E
:1025F00034F0C6FFFFF7DEFF022014F026FF90BB89
:102600004A4890F82100012804D0484890F8210059
:10261000032828D1012626E0022C24D1012014F021
:1026200014FF01280BD1414890F8230038B102254E
:1026300001205749087034F0A3FFFFF7BBFF0220C9
:1026400014F003FF01280ED1384890F8210001282A
:1026500004D0364890F82100032804D1334890F87C
:10266000C50000B902263A4631462846FFF72AFF40
:10267000002D01DD16F003FEBDE8F081F0B585B058
:10268000002500260027294890F82500022812D1AD
:1026900000240EE0474850F8240040B1454850F867
:1026A00024101C3030F8140001FB00662746601C23
:1026B000C4B2072CEEDB1D4890F8220002287DD121
:1026C0003D48406F3C49B1F8C01048433A498A6FD1
:1026D000B1F8C21002FB01013748C26FB0F8C40064
:1026E00002FB00113448D0F88020B0F8C60002FB8D
:1026F00000113148D0F88420B0F8C80002FB001166
:102700002D48D0F88820B0F8CA0002FB00112A48F2
:10271000D0F88C20B0F8CC0002FB00112648D0F88D
:102720009020B0F8CE004AE03C050010D006001022
:102730002573253032642E253032640025732564DC
:102740002E25640025732564000000002C00001075
:102750000D0A20417070656E42696C6C00000000CB
:102760000D0A2041707064697342696C6C0000004E
:102770000D0A20417070656E436F696E00000000A5
:102780000D0A20417070646973436F696E00000028
:102790001C000010604800100D0A2045727242694A
:1027A0006C6C3D25642C25642C2564000800001009
:1027B00054090010280900101C0800103AE002FB20
:1027C0000011FF48D0F89420B0F8D00002FB0011AF
:1027D000FB48D0F89820B0F8D20002FB0011F8486E
:1027E000D0F89C20B0F8D40002FB0011F448D0F8D7
:1027F000A020B0F8D60002FB0011F148D0F8A420C8
:10280000B0F8D80002FB0011ED48D0F8A820B0F8CD
:10281000DA0002FB0011EA48D0F8AC20B0F8DC0086
:1028200002FB0011E648D0F8B020B0F8DE0002FB51
:10283000001512E0E34890F82200012808D114F0B6
:10284000D9FC10B9DF48806B00E00020054604E0A9
:10285000DC4890F8220000B900257019D949896B2D
:10286000884202D9D748806B00E07019D6490860C9
:10287000D448D0F8C03008460268D248816BD348AB
:10288000CDE90065CDE90323029150F82700DFF878
:102890003CC30CF11C0C3CF817C000FB0CF3C848FF
:1028A000806FDFF81CC3BCF8C2C000FB0CF2C44848
:1028B000406FDFF80CC3BCF8C0C000FB0CF1C4488B
:1028C00015F0A8FABF4890F8220002280CD1BD48A4
:1028D000D0F8C000A84203D90220FFF776FE35E009
:1028E0000120FFF772FE31E0B64890F8220001287F
:1028F0000CD1B448D0F8C000A84203D90220FFF799
:1029000064FE23E00120FFF760FE1FE0AD4890F871
:102910002200D8B9AB4890F8250002280DD17019D3
:10292000A849D1F8C010884203D20220FFF74DFE1B
:102930000CE00120FFF749FE08E0A248806BA249A5
:102940000860A4480168A4A015F064FAFFF70EFE21
:10295000002005B0F0BD014669B99A4A92F82E20D0
:102960000F32FF2A01DDFF2203E0964A92F82E2063
:102970000F32D0B20CE001290AD1924A92F82E20EF
:10298000FF2A01DDFF2202E08E4A92F82E20D0B20B
:10299000704770B58B4890F8210018B314F0B9F95E
:1029A0000446FCB191480068204490490860FEF755
:1029B000C7F80546024621468DA015F04DFA0222C1
:1029C00000210846FFF77EFD0121204614F032FE6B
:1029D000FEF7B6F805460246A1B2012016F0A1FBAB
:1029E000012070BD774890F8230090B313F0F2FFF8
:1029F000044674B3214684A015F00CFA864800689A
:102A00000119744803687048026884A015F002FA3E
:102A10008148006820446C49096888421AD213F042
:102A2000F1FF90B17C48006820447B490860022196
:102A3000204614F0FFFDFEF783F805460246A1B2DA
:102A4000022016F06EFB002452E014F013F8002070
:102A5000C7E761E05B4890F8240001283DD1FFF70B
:102A600091FAFEF76DF828B34FF4AF7037F066FFB8
:102A70000020FFF770FF72498871032071490870C8
:102A80000020714908707149087071480021018067
:102A90007048018081707048006837F00FFD002099
:102AA0006E4908606E4801780020FFF7ECF813F0DB
:102AB000E1FF0EE0FEF730F800206249087013F0E5
:102AC000D9FF4FF4C87037F039FFFDF77DFDFFF7F0
:102AD00071FD00206349086083E762480460FEF7E7
:102AE0002FF805460246A1B2032016F01AFB002477
:102AF00049480068204434490968884205D30222C5
:102B000000211046FFF7DEFC04E002220021084607
:102B1000FFF7D8FC012064E72A4890F82600C0B3EC
:102B200051481CF0FAF804464F480078012819D1A2
:102B3000C4B121464DA015F0D3F9524804600321D9
:102B4000204614F077FD002202210846FFF7BAFC68
:102B5000FDF7F6FF05460246A1B2052016F0E1FAA0
:102B600001203EE740480078022813D146A015F026
:102B7000B7F9FDF7E5FF85B200232A461946022082
:102B800015F022FB0020384908703E4908600220F9
:102B900027E7FFE7002024E7F8B500250020009094
:102BA000084890F82500022809D1FDF7C9FF05461D
:102BB0002DB129463BA015F02DF90024CCE0CEE044
:102BC0001C080010D00600103C000010280900105E
:102BD000D8120400400000100D0A41707043686173
:102BE0006E6765206D61783D256C640020000010E3
:102BF0000D0A417070636F696E312E636F696E3DAF
:102C0000256C642C256C64000D0A322E41707062B4
:102C1000696C6C3D256C6400240000100D0A417045
:102C20007062696C6C3D256C642C4D6F6E65793DEE
:102C3000256C642C70726963653D256C640D0A0017
:102C4000540900101B000010190000101A00001099
:102C50001700001014000010940000103400001041
:102C60003900001028000010440000100D0A204117
:102C70007070526561646572312E726561643D25C4
:102C80006C6400002C0000100D0A20417070526529
:102C900061646572204F55545055542063617264CD
:102CA000000000000D0A204170704E65656470617F
:102CB000793D256C64000000FC4850F82400F0B316
:102CC000FA4850F82400B5FBF0F0C6B23146F8A03F
:102CD00015F0A0F8F5481C3030F81400B04201DBC4
:102CE000304603E0F1481C3030F81400C6B23146DB
:102CF000F4A015F08FF8ED4951F8241001FB06F00F
:102D0000694613F050FF07463946F3A0009A15F0C4
:102D100081F8012F1DD1F7480068F7490968084478
:102D20000099451A0020F4490860F24805602946D8
:102D3000F2A015F06FF8F54890F8340000E009E0D3
:102D4000012806D12B46009882B20021012015F0FF
:102D50003BFA03E0601CC4B2072CADDB00BFF8BD3A
:102D6000F8B5EB480068D8B113F084FE70B1FDF7F8
:102D7000E7FEE7490968461A3246E548006881B22D
:102D8000042016F0CEF90020E149086037F084FEF7
:102D900006460146DFA015F04DF9642037F0CEFD60
:102DA000FDF7CEFE0546FFF7F7FEFDF7C9FE70B151
:102DB00037F072FE06460146DAA015F03BF9FDF742
:102DC000BFFE064669461BF040FD044600E00124B4
:102DD000CE4890F83400012838D1DCB9D7A015F0DE
:102DE00029F9FDF7ADFE0099461A304614F08CFE25
:102DF000FDF7A6FE0099401A86B20B463246002126
:102E0000084615F0E1F90020BA490860BA4908609F
:102E10000098F8BD37F040FE06460146CCA015F0FC
:102E200009F9FDF78DFE0646002114F06DFEFDF751
:102E300087FE86B2002332461946184615F0C4F9BB
:102E40000020AC490860AC490860E2E7ACB9BBA01F
:102E500015F0F0F80099681A14F056FE0098281A38
:102E600082B200231946184615F0AEF90020A14998
:102E70000860A14908600098CBE737F00DFE0646D0
:102E80000146B3A015F0D6F80021284614F03CFE08
:102E90000023AAB21946184615F096F90020954964
:102EA00008609549086000BFB3E72DE9F0410026AE
:102EB0000024AC480468FDF743FEA04206D2AA48AD
:102EC000006818B90720A9490870C1E0A648006841
:102ED00078B1FFF708F9A0B21CF01EF80646012EE3
:102EE00003D10A20A1490870B2E009209F49087067
:102EF000AEE080480068804909680844A04262D278
:102F00007C480068201A7C490968451A8048006896
:102F1000451B7E4890F82200022801D1012615E0C9
:102F20007A4890F82200012801D101260EE0774866
:102F300090F8220050B9754890F82500022801D178
:102F4000012603E00DB9012600E00026012E36D14E
:102F500013F058FDF0B1684800686D4909680844ED
:102F60006549086002216A48006814F063FBFDF7B8
:102F7000E7FD67490968471A3A466548006881B223
:102F8000022016F0CEF80020614908600A20774937
:102F900008705DE013F06EFDFDF7D2FD5C49096835
:102FA000471A3A465A48006881B2042016F0B9F828
:102FB00000205749086008206C49087048E0082044
:102FC0006A49087044E04B4800684B490968084466
:102FD000051B4E4890F82200022801D1012615E079
:102FE0004A4890F82200012801D101260EE0474806
:102FF00090F8220050B9454890F82500022801D1E8
:10300000012603E00DB9012600E00026012E1CD1A7
:103010003E4890F82400012813D13D48006880B153
:1030200013F028FDFDF78CFD39490968471A3A4627
:103030003748006881B2042016F073F80020344944
:1030400008600A204949087002E0082047490870D2
:10305000BDE8F08110B5044604B34348006860B190
:1030600043A014F03DFF01201BF0BEFF3E48006866
:10307000001B3D490860002410E01F48006884429E
:1030800006D31D480068241A00201B49086005E08B
:1030900019480068001B18490860002424B115482D
:1030A0000068001B1349086010BD000028090010CB
:1030B0000D0A204170704E6565646E756D3D256426
:1030C000000000000D0A204170705265616C6E7541
:1030D0006D3D2564000000000D0A204170705265AE
:1030E000636261636B2073743D25642C7061793D6C
:1030F000256C640020000010240000100D0A2041FF
:1031000070707061793D256C64000000D00600107D
:10311000280000100D0A20417070486F6C645265E1
:10312000742564000D0A20417070426567696E2045
:103130006368616E67652564000000000D0A204128
:1031400070706368616E6765204661696C0000009D
:103150000D0A204170706368616E67652073756346
:1031600063256400340000102C0000101B000010C8
:103170000D0A2041707043487568756F537563631D
:1031800000000000FF4890F82E00FF2806DAFE48F5
:10319000807908B9012070470020FCE70020FAE799
:1031A0000EB5F9488379F748807800EB8000F7493D
:1031B00001EB0010F6A1426CF2488DE80E00837816
:1031C00000221146962034F0A0FF0EBD70B50446D3
:1031D0000125F4B3F0480068F04909680844A042AA
:1031E0002AD213F00FFCB0B1EC480068EC49096832
:1031F0000844EA490860FDF7A3FCE9490968461A52
:103200003246E748006881B2022015F08AFF0020AC
:10321000E349086010E013F02DFCFDF791FCE04954
:103220000968461A3246DE48006881B2042015F06B
:1032300078FF0020DA490860FDF782FC0646024666
:103240002146D8A014F0F6FEFDF77AFCA04203D385
:1032500000E002E0012500E00025FDF771FC90B3DD
:103260000320D74908700020FFF775FBC649887115
:10327000D3480078032842D1C8480068D14909687A
:10328000884204D2002201210846FFF71BF90020E2
:10329000CD490870CD490870CD4800210180CD4846
:1032A00001808170CC48006837F008F934F068F983
:1032B000CA4801780020FEF7E6FCFDF741FC06460F
:1032C00017F02DF91BE0FFE7002201210846FFF768
:1032D000F9F80020BC490870BC490870BC480021BE
:1032E0000180BC4801808170BB48006837F0E6F877
:1032F00034F046F9FFF7B3F80E20B14908702846BC
:1033000070BD70B504460125002654B1B44800686C
:1033100038B1FEF7E8FEA0B21BF0FEFD064606B986
:103320000025284670BD70B5044684B3AC480068DB
:1033300060B1ACA014F0D4FD01201BF055FEA848EC
:103340000068001BA6490860002447E09248006816
:10335000924909680844A0422FD213F053FBB8B138
:103360008E4800688E49096808448C490860FDF75A
:10337000E7FB8B490968451A2A468948006881B2EB
:10338000022015F0CEFE00208549086011E025E0FE
:1033900013F070FBFDF7D4FB81490968451A2A46F2
:1033A0007F48006881B2042015F0BBFE00207C49F4
:1033B00008604FF4487037F0C1FA784800688442DA
:1033C00006D376480068241A00207449086005E096
:1033D00072480068001B71490860002424B16E48DF
:1033E0000068001B6C490860FDF7AAFB90B303203E
:1033F000734908700020FFF7AEFA6349887170487E
:103400000078032842D1654800686E4909688842FF
:1034100004D2002201210846FFF754F800206A492F
:1034200008706A4908706A48002101806948018073
:1034300081706948006837F041F834F0A1F86748B6
:1034400001780020FEF71FFCFDF77AFB054617F018
:1034500066F81BE0FFE7002201210846FFF732F87B
:1034600000205949087059490870594800210180C5
:103470005848018081705848006837F01FF834F0D0
:103480007FF8FEF7ECFF0E204D49087070BD2DE966
:10349000F04F87B004460E461546002700200690E0
:1034A000FEF7A8FE002202210846FFF70BF837F0CE
:1034B000F3FA8046014650A014F0BCFD3046FFF7F9
:1034C00020FF642094FBF0F000F0FF08642094FBE0
:1034D000F0F100FB114000F0FF094246012148468F
:1034E0000CF084FB0746274890F82F00012804D0F1
:1034F000244890F82F00032842D1012F41D1FDF735
:103500001FFB08B914F082F8012D01D0022D02D161
:103510003046FFF79FFD41202E490870642094FB40
:10352000F0F100FB11400A2190FBF1F03030294905
:103530004870642094FBF0F100FB11400A2190FBDD
:10354000F1F201FB12003030224988702F480660EA
:103550002F4803782D4801681E48CDE9015300919A
:103560008378427801782BA033F0B6FA28480178A6
:103570000078401C264B18702B46164A234869E0F9
:10358000C0E095E0D006001054090010AC03001014
:103590002573253032640000200000102400001044
:1035A000280000100D0A2041707020507269636578
:1035B0003D256C642C6D6F6E65793D256C64000053
:1035C0001B0000103C000010190000101A00001031
:1035D00017000010140000109400001039000010B3
:1035E0002C0000100D0A204170705043436F73741B
:1035F00053756363000000000D0A2025644170705C
:1036000055626F7856656E646F75740034000010F3
:10361000380000104C6F675472616E736163746997
:103620006F6E415049206C6F6769633D2563256368
:1036300025632070726963653D2564207479706527
:103640003D25782C7472616E4E756D733D25640D49
:103650000A200000006814F02CF8642094FBF0F0BD
:1036600000F0FF0A642094FBF0F100FB114000F031
:10367000FF0B52460221584619F055FA00F0FF0898
:10368000FDF75EFA0590642094FBF0F100FB114019
:1036900000F0FF09059A2B46CDE9012800964A461D
:1036A0000121002016F0D0F80B20FF49087009E135
:1036B000FEF7F0FD642094FBF0F000F0FF0A6420B8
:1036C00094FBF0F100FB114000F0FF0B5246022189
:1036D000584619F028FA00F0FF08FDF731FA059076
:1036E000642094FBF0F100FB114000F0FF09059A03
:1036F0002B46CDE9012800964A460121992016F073
:10370000A3F8DFE0E94890F82F0002287ED1012FCE
:1037100052D1FEF797FD3046FFF705FE642094FB7B
:10372000F0F100FB11400A2190FBF1F03030C0B203
:103730008DF818000A2094FBF0F100FB11403030A6
:10374000C0B28DF8190013F061FFD94801780078F4
:10375000401CD74B18702B4606AA304613F0A9FF21
:10376000642094FBF0F000F0FF0B642094FBF0F178
:1037700000FB1140C0B25A460221049019F0D3F95F
:1037800000F0FF08FDF7DCF90590642094FBF0F1F0
:1037900000FB114000F0FF09642094FBF0F000F002
:1037A000FF0A059A2B46CDE9012800964A46514664
:1037B000002016F049F835E0FEF76CFDBD480068C2
:1037C00010B102201BF010FC642094FBF0F000F01C
:1037D000FF0A642094FBF0F100FB114000F0FF0BA6
:1037E00052460221584619F09EF900F0FF08FDF7F5
:1037F000A7F90590642094FBF0F100FB114000F064
:10380000FF09642094FBF0F0C0B200E03FE00490B8
:10381000059A2B46CDE9012800964A46014602202A
:1038200016F012F8FDF78CF990B303209E4908704A
:103830000020FFF790F8A04988719B480078032882
:1038400040D19E4800689E490968884204D20022FF
:1038500001210846FEF736FE00209A4908709A4971
:1038600008709A4800210180994801808170994828
:10387000006836F023FE33F083FE9748017800207D
:10388000FEF701FAFDF75CF9804616F048FE19E0F4
:10389000FFE7002201210846FEF714FE00208949B7
:1038A0000870894908708948002101808848018092
:1038B00081708848006836F001FE33F061FE0E200A
:1038C0007949087007B0BDE8F08F2DE9F04F85B059
:1038D00004460F4615461E46744890F82F000228ED
:1038E0002BD1642094FBF0F000F0FF0A642094FBDD
:1038F000F0F100FB114000F0FF0B52460221584648
:1039000019F011F900F0FF08FDF71AF9049064208E
:1039100094FBF0F100FB114000F0FF09642094FBE0
:10392000F0F0C0B20390049A2B46CDE9012800972D
:103930004A460146304615F087FF05B0BDE8F08FD6
:1039400010B5FDF7FDF8D8B1FFF70AFA4FF4C870CB
:1039500036F0F4FF00205B4908705B4908705B4853
:10396000002101805A48018081705A48006836F071
:10397000A5FD33F005FEFEF772FD0E204A490870E2
:10398000002202210846FEF79DFDC82036F0D6FF32
:1039900021F0ECFD4FF4C87036F0D0FF0022012179
:1039A0000846FEF78FFD10BDFEB5404890F8260092
:1039B00010B1FEF784FD60BBFDF7C2F850B3FEF70F
:1039C00092FC37F069F80546014644A014F032FB3A
:1039D000FDF7B6F80546FDF7B3F8064601210023CA
:1039E0001E22CDE9010500911946022014F042FC87
:1039F0004FF4C87036F0A2FFFFF7B2F904461CB1CD
:103A00002046FEF7C7FC01E0FEF79DFC0E2026498C
:103A100008701CE0FEF767FCAFF6E00014F00AFB4C
:103A20000021084614F070F8204890F8340001286E
:103A300005D100231A461946184614F0C5FB00208C
:103A4000294908601D4908600E2017490870FEBD0D
:103A50002DE9F04104460025FEF7CCFB37F01CF8B9
:103A600006460146AFF2704014F0E4FA642094FB7D
:103A7000F0F0C6B2642094FBF0F100FB1140C7B235
:103A80003246012138460CF0B1F80546FDF758F8EA
:103A900060B30320044908700020FEF75CFF06496C
:103AA00088710148007822E01B000010D006001049
:103AB000380000102C0000105409001024000010E1
:103AC0003C000010190000101A0000101700001030
:103AD0001400001094000010390000100D0A20415D
:103AE00070705475692564002000001028E00328D8
:103AF0003FD1FF480068FF490968884204D200228C
:103B000001210846FEF7DEFC0020FB490870FB4956
:103B10000870FB4800210180FA4801808170FA4852
:103B2000006836F0CBFC33F02BFDF848017800201C
:103B3000FEF7A9F8FDF704F8064616F0F0FC18E0C9
:103B4000002201210846FEF7BDFC0020EA4908706A
:103B5000EA490870EA4800210180EA480180817042
:103B6000E948006836F0AAFC33F00AFD0E20E84967
:103B700008702846BDE8F08170B504460025FCF7C2
:103B8000DFFF0546E3480460FCF7DAFF90B303204B
:103B9000DF4908700020FEF7DEFEDF498871DC484F
:103BA0000078032841D1D2480068D2490968884288
:103BB00004D2002201210846FEF784FC0020CE49F1
:103BC0000870CE490870CE4800210180CD480180A0
:103BD0008170CD48006836F071FC33F0D1FCCB48E1
:103BE00001780020FEF74FF8FCF7AAFF064616F012
:103BF00096FC1AE0FFE7002201210846FEF762FC6E
:103C00000020BD490870BD490870BD4800210180F1
:103C1000BC4801808170BC48006836F04FFC25B17B
:103C200033F0AEFC0E20BA49087070BDF0B591B00B
:103C300005460024202109A83BF0ECFF202101A823
:103C40003BF0E8FF0520B4494871FCF779FF08B95B
:103C5000FCF745FF2C46B14890F82700F0B3012847
:103C600026D002286ED1642094FBF0F100FB1146AF
:103C700094FBF0F7A9480096807800EB8000A849F3
:103C800001EBC0003B46A749C26809A83BF08EFC87
:103C9000642094FBF0F100FB114694FBF0F7A04880
:103CA00000963B469F49426B01A83BF07FFC49E0F0
:103CB0000A2094FBF0F084B20A2094FBF0F100FBA0
:103CC000114694FBF0F795480096807800EB800051
:103CD000934901EBC0003B46924900E015E00C31EE
:103CE000C26809A83BF062FC0A2094FBF0F100FBDB
:103CF000114694FBF0F78A4800963B4689490C31FF
:103D0000426B01A83BF052FC1CE0642094FBF0F6EF
:103D10008248807800EB8000814901EBC000334687
:103D200080491431C26809A83BF040FC642094FB30
:103D3000F0F67B4833467B491431426B01A83BF0D7
:103D400035FC00BF00BFAFF25473AFF2587201A947
:103D500009A8FCF7F7FB4FF4167036F0EFFD6E483C
:103D6000407978B9FCF7ECFE18B103206849087077
:103D700006E0FCF7D1FEFCF727FC00206449087040
:103D8000FEF718FC62480078032805D15F480178E7
:103D90000020FDF778FF06E05D48007818B933F0A1
:103DA000EFFBFEF707FC11B0F0BD10B592B0044672
:103DB00020210AA83BF02EFF202102A83BF02AFF79
:103DC000FCF7BEFE10B10020FFF7D6FE224656A13A
:103DD0000AA83BF0EBFB224653A102A83BF0E6FB0E
:103DE00002AB4E480093837800220E21502034F01D
:103DF0008CF912B010BD88B0002007900024002577
:103E00000690059044498870C8700871487134F074
:103E100084FD38B1022211461046FEF753FB1320F1
:103E20003B49087001200FF0FEF9404908603B480B
:103E300090F89800012802D116F052FA02E0012011
:103E400016F03AFA012034F0E5FD33F099FBF9E37E
:103E50002F4800783BF081FA2D480078142846D28C
:103E6000DFE800F00AC7FEFDFCFBFAF9F8F7F6F50B
:103E7000F4F3F2F1F0EFEEED2D480068C82802D916
:103E800000202B4908602448807830B90520224959
:103E90008870FCF7A5FB15F0FFF805A9002016F0C7
:103EA00004FD07909DF81C0098B19DF81C003C286B
:103EB00003D09DF81C003E2805D100200E49087053
:103EC0000E49087005E0052013494871012010498A
:103ED00008701148007920B905200F490871FEF7D4
:103EE000CDFBFEF756FD0446012C42D122E0EAE26A
:103EF000240000103C000010190000101A000010EF
:103F00001700001014000010940000103900001079
:103F10001B0000102C00001054090010D0060010E7
:103F20001801001030270000257300004000001029
:103F30004800001012F0C3FF33F022FBFF48017865
:103F40002846FDF7A0FEFCF7FBFD07460146FCA056
:103F500013F060FF13F05AFB2846FEF7FCFCFD4906
:103F60008871FCF7EDFD074616F0D9FA0320FA49EF
:103F70000870F848C078F0B90520F649C87012F00A
:103F8000C1FF13F04FF8A0B10020F249887015F07E
:103F900076F9642036F0D2FC33F0F2FA02221146B0
:103FA0001046FEF78FFAFEF705FB0F20EA4908706E
:103FB00001E015F0C8FB34F0B0FC38B10222114624
:103FC0001046FEF77FFA1320E3490870012012F033
:103FD00017FAFCF7B5FD074614F0FCF934F006FDBE
:103FE00007461BF08BFA00201BF09FFA16F0B8FC76
:103FF00069E29DF81C0080B19DF81C10D7A013F059
:10400000F7FF0520D3494871FCF79AFD08B9FCF782
:1040100066FD05A907A8FCF79FFD05A9012016F07C
:1040200044FC0790CB48407928B9432007900220F0
:104030000590FEF7BFFAC8480078032811E0B0E306
:1040400096E385E359E307E3D5E2C4E28FE23BE27E
:1040500010E1F2E0C8E0A3E0A1E09DE09BE039E0E0
:104060000EE005D1B54801782846FDF70CFE06E0C4
:10407000B948007818B933F083FAFEF79BFA22E2C8
:104080009DF81C0050B11420B2494871FCF758FD4E
:1040900008B9FCF724FD07A8FDF7E2F905A90120FE
:1040A00016F003FC0790AB48407918B943200790FD
:1040B00002200590A8480078032805D19F48017880
:1040C0002846FDF7E0FD04E0A348007808B933F086
:1040D00057FAF6E3FEF75DFC0446012C15D197482C
:1040E00001782846FDF7CFFD2846FEF734FC9949B4
:1040F0008871FCF725FD074616F011FAFCF720FD44
:10410000074601468EA013F085FE05A9002016F093
:10411000CCFB07909DF81C0058B19DF81C1093A093
:1041200013F066FF05208B49487101208A49087009
:10413000C7E312F09BFE10B9FFF724F878B18F485F
:10414000407808B1012D0AD18D48006838B90022A5
:1041500002210846FEF7B6F90D207F49087089480C
:1041600090F82E00FF2809DA8448407808B1012D24
:1041700004D18348006808B9FFF712F8022C02D175
:104180000E2075490870FCF7DBFC074614F022F995
:1041900016F0E6FB95E394E3FEF787FE91E390E3E8
:1041A00079480068FDF712FF2846FEF7D4FB6949FD
:1041B00088710320684908700020744908707449A8
:1041C0000870744800210180734801808170734831
:1041D000006836F073F900206B4908605748017891
:1041E0002846FDF750FD6CE3FDF754FFFCF7A8FCF3
:1041F000F8B12846FEF7AFFB5649887103205649AF
:104200000870002061490870614908706148002108
:1042100001806148018081706048006836F04EF985
:10422000002059490860454801782846FDF72BFDD4
:1042300002E00E204849087043E3FDF77CFF0320AD
:10424000454908700020514908705149087051488B
:10425000002101805048018081705048006836F08C
:104260002DF9002048490860344801782846FDF7B8
:104270000AFD26E3002202210846FEF723F9FDF796
:1042800083FF47480088642190FBF1F0C7B244489F
:10429000008890FBF1F201FB120000F0FF083A46A3
:1042A000012140460BF0A2FC06900698012844D15B
:1042B00035480068FEF7CEFE3148006860B13948E5
:1042C00001780078401C374B18700223324A2E4880
:1042D000006813F0EEF910E0324801780078401CD5
:1042E000304B187000232C4A2748006813F0E1F97E
:1042F0002548006880B21AF0BCFE29480088642175
:1043000090FBF1F000F0FF0A2548008890FBF1F2E5
:1043100001FB120000F0FF0B52460221584618F034
:1043200002FCC7B2FCF70CFC04901D480088642115
:1043300090FBF1F201FB120036E04CE03900001076
:104340000D0A2041707032616D6F756E743D256C81
:1043500064000000540900101B0000100D0A2041E9
:1043600070704B6579323D25640000000D0A2041D4
:1043700070704B6579313D2564000000980700108E
:104380002C000010D006001034000010190000109E
:104390001A00001017000010140000109400001004
:1043A000300000103800001000F0FF08FD480088C1
:1043B00090FBF1F000F0FF09FB48049A016800232C
:1043C0008DE8860042464946184615F03DFA0B2016
:1043D000F649087074E0F648006828B1F5A013F0BB
:1043E0007FFD02201AF000FEF74890F82F00012808
:1043F00004D0F54890F82F0003282CD1E948008814
:10440000642190FBF1F000F0FF0AE648008890FB81
:10441000F1F201FB1200C7B252460221384618F0F1
:1044200082FB00F0FF09FCF78BFB8346DD48008828
:10443000642190FBF1F201FB120000F0FF08DA4862
:10444000016800234246CDE901B90091012199207C
:1044500015F0FAF931E0D3480088642190FBF1F0BF
:1044600000F0FF0ACF48008890FBF1F201FB120038
:1044700000F0FF0B52460221584618F054FBC7B219
:10448000FCF75EFB0490C7480088642190FBF1F2C2
:1044900001FB120000F0FF08C248008890FBF1F019
:1044A00000F0FF09C048049A016800238DE88600E7
:1044B00042464946022015F0C7F90C20BB49087056
:1044C0000020B9490860FCE1FDF7BCFEBF48007858
:1044D00001283CD1FCF734FBC0B30320B34908707A
:1044E00001252846FEF737FAB9498871AF480078A8
:1044F00003283BD1B7480068B7490968884204D20D
:10450000002201210846FDF7DDFF0020B3490870B5
:10451000B3490870B34800210180B348018081701D
:10452000B248006835F0CAFF33F02AF8B048017885
:104530002846FDF7A8FBFCF703FB074615F0EFFF45
:1045400005A9002016F0B1F907900FE0FFE7FCF78E
:10455000F7FA40B1A64801782846FDF794FB0D20F4
:104560009249087002E00E2090490870A9E1FDF719
:1045700091FEFCF7E5FA68B303208C490870012529
:104580002846FEF7E8F992498871884800780328A0
:1045900020D19048006890490968884204D20022DE
:1045A00001210846FDF78EFF00208C4908708C49D8
:1045B00008708C48002101808B48018081708B48F5
:1045C000006835F07BFF32F0DBFF89480178284630
:1045D000FDF759FB75E1FDF786FEFEF7C1FB0646C8
:1045E0001EB13046FDF7D6FE01E0FDF7ACFE0E2011
:1045F0006E49087065E1FDF732FFFCF78DFA002582
:1046000000207C4908706749088079490870704922
:104610000871012211461046FDF754FF002076492B
:104620000870FDF7C7FF01200EF0FDFD734908601B
:1046300013F0E9FA644890F89800012803D115F0C6
:104640004FFE03E041E1012015F036FE32F098FF05
:1046500000205649087034E15D48807820B91E205A
:104660005B498870FCF7FBF85948C07818BB0520F7
:104670005749C87012F046FC012011F0C1FE12F03B
:10468000D1FC98B900205249887032F079FF01229C
:1046900011461046FDF716FF642036F04FF914F06E
:1046A000EEFDFDF787FF002040490870FCF748FA4F
:1046B000074613F08FFE34F030F910B113203B4958
:1046C0000870FEF766F90446012C15D112F0F7FBCD
:1046D00032F056FF464801782846FDF7D4FAFCF739
:1046E0002FFA07460146AFF2A83013F093FB12F001
:1046F0008DFF10202D490870E3E0FEF74AF90446CB
:10470000012C0CD13A4801782846FDF7BCFAFCF799
:1047100017FA07460146AFF2D83013F07BFB12F0D0
:10472000A5FB50B12248006838B900220221084692
:10473000FDF7C8FE11201D490870022C02D112207D
:104740001A490870FCF7FCF9074613F043FEB8E07D
:10475000FDF7C9FDFEF704FB06461EB13046FDF726
:1047600019FE01E0FDF7EFFD122010490870A8E0E6
:10477000FDF775FEFCF7D0F9002500201D490870F3
:104780000849088032F0FCFE002201210846FDF7AE
:1047900099FE13F038FAFDF70DFF0F20034908705A
:1047A0008FE02DE030000010340000101B000010DE
:1047B0002C0000100D0A2041707043487568756F19
:1047C0004661696C00000000D006001098070010D8
:1047D00054090010240000103C00001019000010C3
:1047E0001A000010170000101400001094000010B0
:1047F00039000010380000101C00001040000010AC
:10480000002015F059FD324890F82F0070B10120BA
:1048100012F028FE2E4890F8340038B9C82036F03F
:104820008DF814F02CFDC82036F088F800BFFCF796
:1048300087F9074613F0CEFD002008F06BFC34F03A
:104840006CF80028F3D12349887032F099FE0122D8
:1048500011461046FDF736FE00201F490870FDF78F
:10486000A9FE1B4890F82F00B8B1002300930193D4
:104870001A4619460520029313F0FCFC002012F0A2
:10488000F1FD134890F8340038B9C82036F056F8D6
:1048900014F0F5FCC82036F051F801200EF0C3FCEE
:1048A0000E4908600A4890F89800012802D115F0D6
:1048B00017FD02E0012015F0FFFC002008490870F8
:1048C00000BF00BF022036F039F8FFF7C1BA000080
:1048D000D0060010540900101C0000104000001009
:1048E0001B000010F0B585B000260027FAA103C90F
:1048F000CDE9010132F044FEF9A032F0EDF8B8E064
:104900000F23EF220021084633F09BFD0323EF2203
:104910000021084633F095FDF7488078F74951F8B3
:104920002030F5480093837800220121082033F0DD
:10493000ECFBF1488178F148143050F82130EE4812
:104940000093837800220621302033F0DEFB0E2313
:10495000EE220D21012032F04DFEE7488178E74834
:104960003C3050F82130E4480093837800220D2138
:104970001C2033F0CAFB7BE0002700240AE034212E
:1049800001EB0411C8B20023DDA2092132F05CFE64
:10499000601CC4B2082CF2DB69E033F086FF0546E8
:1049A000F5B3432D02D1002005B0F0BD03A8855515
:1049B00031013431C8B20023D2A2092132F044FEC1
:1049C000701CC6B2082E4FD100260127002408E033
:1049D00003A8005D01A9095D884200D00027601C82
:1049E000C4B2082CF4DB012F01D10120DCE70E2337
:1049F000EE220D21012032F0FDFDBF488178BF4835
:104A0000283050F82130BC480093837800220D21D3
:104A1000302033F07AFB4FF4C87035F08FFF00E0A0
:104A200022E00E23EE220D21012032F0E3FDB248F8
:104A30008178B2483C3050F82130AF4800938378F9
:104A400000220D21302033F060FB00240AE03421E5
:104A500001EB0411C8B20023A9A2092132F0F4FD30
:104A6000601CC4B2082CF2DB052035F067FF94E728
:104A700082E745E738B532F083FD0F23EF220021AE
:104A8000084633F0DEFC0323EF220021084633F012
:104A9000D8FC4CE00E23EE220421012032F0AAFDC6
:104AA00095488078984951F820309348009383784E
:104AB00000220121082033F028FB8F48817892489A
:104AC000143050F821308C4800938378002207215D
:104AD0003C2033F01AFB884881788B48283050F806
:104AE000213085480093837800220B21282033F061
:104AF0000CFB8148817884483C3050F821307E4856
:104B00000093837800220B218C2033F0FEFA0DE015
:104B100033F0CBFE0446432C01D1002038BD452C98
:104B200001D10120FAE70A2035F008FFF0E7B1E7EC
:104B300070B50026704890F82200022873D173489F
:104B4000406F7249B1F8C010484370498A6FB1F89C
:104B5000C21002FB01016D48C26FB0F8C40002FB35
:104B600000116A48D0F88020B0F8C60002FB00119E
:104B70006648D0F88420B0F8C80002FB00116348F2
:104B8000D0F88820B0F8CA0002FB00115F48D0F8C6
:104B90008C20B0F8CC0002FB00115C48D0F89020CB
:104BA000B0F8CE0002FB00115848D0F89420B0F8BD
:104BB000D00002FB00115548D0F89820B0F8D20080
:104BC00002FB00115148D0F89C20B0F8D40002FB41
:104BD00000114E48D0F8A020B0F8D60002FB00111A
:104BE0004A48D0F8A420B0F8D80002FB001147488A
:104BF000D0F8A820B0F8DA0002FB00114348D0F842
:104C0000AC20B0F8DC0002FB00114048D0F8B02026
:104C1000B0F8DE0002FB0015374890F825000228A6
:104C200012D100240EE018E0394850F8240038B1C1
:104C3000374850F824101C3030F8140001FB0055A0
:104C4000601CC4B2072CEFDB2B48D0F8C000A84290
:104C500001D901260FE000260DE0274890F8220038
:104C6000012803D112F0C6FA064604E0224890F863
:104C7000220000B90026304670BD70B504460025FC
:104C80001D4890F82F00022817D1012C0BD112F0EB
:104C9000C6F9054612F0C3F90646024629461DA08C
:104CA00013F0C8F909E0022C07D1204890F8BC5055
:104CB00090F8BC101EA013F0BDF9284670BD014647
:104CC000012902D0022949D142E00B4880781F4ACD
:104CD00052F8200070470000383337313835353707
:104CE000456E74657253656C66436865636B4675A3
:104CF0006374696F6E0D0A00D0060010281304005B
:104D00005F0000002A000000781304001C08001057
:104D1000280900100D0A204170702050434572721E
:104D20006F725363616C653D256400006809001073
:104D30000D0A204170702050434572726F724F66A9
:104D4000664C696E653D256400000000EC1C0400A3
:104D5000FF488278FF4850F822007047FC4882786C
:104D6000FC48143050F82200F7E700B58BB0002063
:104D70000A900320099032F003FC0F23EF22002158
:104D8000084633F05EFB0323EF220021084633F090
:104D900058FBE5E30E23EE220421012032F02AFC29
:104DA000032009900A980A287ED2DFE800F005D592
:104DB000FEFDFCFBFAF9F8F70123E5488178E648A7
:104DC00050F82120E5A1E2488DE80E0080780346E6
:104DD000002201210790082033F097F9DC4890F871
:104DE000230002287ED1DF488078A0B1D84881789E
:104DF000D948143050F82130D54800938078079076
:104E00000998801CC0B20990069000220146052036
:104E1000079B33F07AF9D348C078A0B1CC488178A9
:104E2000CD48283050F82130C94800938078079049
:104E30000998801CC0B20990069000220146052006
:104E4000079B33F062F9C7480079A0B1C048817868
:104E5000C1483C3050F82130BD480093807807901D
:104E60000998801CC0B209900690002201460520D6
:104E7000079B33F04AF9BB484079A0B1B448817828
:104E8000B548503050F82130B148009380780790F1
:104E90000998801CC0B209900690002201460520A6
:104EA000079B33F032F900E0A4E2AE488079A0B16C
:104EB000A7488178A848643050F82130A44800936E
:104EC000807807900998801CC0B209900690002253
:104ED00001460520079B33F018F9A248807808B9ED
:104EE000A04800E019E0C078B8B99E480079A0B9A0
:104EF0009C48407988B99B48807970B994488178FA
:104F0000994850F821309248009380780346002257
:104F100007210790052033F0F8F88D4880788E49F6
:104F2000283951F8200006903AF062FDC000C0F127
:104F3000E700C0B20790864881788748283850F843
:104F40002130834800938078034600220D2106908B
:104F5000079833F0DAF84DE202237D4881787E48E5
:104F600050F821207DA17A488DE80E008078034614
:104F7000002201210790082033F0C7F8744890F808
:104F8000230002287ED17748C079E8B17048817843
:104F90007148783050F821306D4807E0FEE3FEE3B9
:104FA000FEE3ABE3FAE226E26DE191E00093807864
:104FB00007900998801CC0B2099006900022014613
:104FC0000520079B33F0A1F86648007AA0B160483D
:104FD000817861488C3050F821305D4800938078AA
:104FE00007900998801CC0B20990069000220146E3
:104FF0000520079B33F089F85A48407AA0B15448FD
:1050000081785548A03050F821305148009380787D
:1050100007900998801CC0B20990069000220146B2
:105020000520079B33F071F8FFF782FDA0B14848D7
:1050300081784948B43050F8213045480093807851
:1050400007900998801CC0B2099006900022014682
:105050000520079B33F059F84248C07990B9414880
:10506000007A78B93F48407A60B9FFF761FD48B9E6
:10507000374881783C4850F8213035480093807893
:10508000034600E005E0002207210790052033F0E9
:105090003CF82F4881783048143850F821000690A9
:1050A0003AF0A6FCC000C0F1E700C0B20790284863
:1050B00081782948143850F82130254800938078A9
:1050C000034600220D210690079833F01EF891E167
:1050D00001231F4881782048C83050F821201FA1A3
:1050E0001B488DE80E0080780346002201210790BE
:1050F000082033F00AF8164890F8210002287ED1E3
:105100001848807AA0B1124881781348DC3050F8F2
:1051100021300F480093807807900998801CC0B216
:1051200009900690002201460520079B32F0EDFF12
:105130000C48C07A18B3064881780748F03050F818
:10514000213003480093807807900998801C0DE077
:10515000D0060010001D04009014040025732D25B6
:10516000640000006048001028180400C0B20990D4
:105170000690002201460520079B32F0C6FFF94841
:10518000007B98B1F8488178F84850F82130F6480B
:105190000093807807900998801CC0B2099006900F
:1051A000002201460520079B32F0AFFFED48407B0F
:1051B000A0B1ED488178ED48143050F82130EA482C
:1051C0000093807807900998801CC0B209900690DF
:1051D000002201460520079B32F097FFE148807BC3
:1051E000B0B1E1488178E148283050F82130DE48FC
:1051F0000093807807900998801CC0B200E025E0F9
:1052000009900690002201460520079B32F07DFFA1
:10521000D448807AD0B9D348C07AB8B9D148007B95
:10522000A0B9D048407B88B9CE48807B70B9CE48C1
:105230008178CF4850F82130CB48009380780346DE
:10524000002207210790052032F05FFFC6488178D1
:10525000C84850F8210006903AF0CAFBC000C0F1DF
:10526000E700C0B20790C0488178C24850F82130AA
:10527000BD4800938078034600220D2106900798D0
:1052800032F043FFB6E00223B7488178B7483C3894
:1052900050F82120AFF23C11B3488DE80E00807821
:1052A0000346002201210790082032F02EFFAE486D
:1052B00090F8210002287ED1AA48C07BA0B1AA485C
:1052C0008178AA483C3050F82130A7480093807874
:1052D00007900998801CC0B20990069000220146F0
:1052E0000520079B32F011FF9E48007CA0B19E482C
:1052F00081789E48503050F821309B480093807848
:1053000007900998801CC0B20990069000220146BF
:105310000520079B32F0F9FE9248407CA0B19248EC
:1053200081789248643050F821308F48009380781B
:1053300007900998801CC0B209900690002201468F
:105340000520079B32F0E1FE8648807CC8B1854885
:10535000C37C827C844881788448783050F821105E
:1053600085A08DE80F008048807807900998801C00
:10537000C0B209900690002201460520079B32F03A
:10538000C4FE7848C07BB0B97648007C98B97548AF
:10539000407C80B97348807C68B9734881787448D0
:1053A00050F821307048009380780346002207218E
:1053B0000790052000E001E032F0A7FE6A488178FE
:1053C0006C4850F8210006903AF012FBC000C0F182
:1053D000E700C0B2079064488178664850F82130F1
:1053E000614800938078034600220D2106900798BB
:1053F00032F08BFE51E25C4881785C488C3050F88A
:1054000021305948009380780346002201210790FB
:10541000082032F07AFE544890F8220001287ED10C
:105420005048007DF8B14F48007D0690FFF747FCDB
:1054300007905648C37D4C4881784C48A03050F8BE
:10544000211053A0079A8DE80F00474880780690F6
:105450000998801CC0B209900590002201460520E1
:10546000069B32F052FE3F48407DF8B13D48407DFA
:105470000690FFF724FC07904448037E3A48817861
:105480003A48B43050F8211041A0079A8DE80F0037
:105490003548807806900998801CC0B20990059024
:1054A000002201460520069B32F02FFE2D48807D0C
:1054B000F8B12C48807D0690FFF701FC0790334837
:1054C000437E294881782948C83050F8211030A0FF
:1054D000079A8DE80F002448807806900998801C70
:1054E000C0B209900590002201460520069B32F0CB
:1054F0000CFE1C48007D90B91A48407D78B91948C7
:10550000807D60B918488178194850F821301648D4
:1055100000938078034600220721079000E002E014
:10552000052032F0F2FD10488178124850F8210031
:1055300006903AF05DFAC000C0F1E700C0B20790F3
:10554000094881780B4850F821300748009380784B
:10555000034600220D210690079832F0D6FDB1E3F4
:10556000D5E3000060480010D00600109415040038
:10557000281804007C14040025735B25233032783E
:105580005D5B25233032785D000000003448001058
:10559000257325735B25233032785D000123FF4896
:1055A0008178FF4850F82120AFF25041FB488DE848
:1055B0000E0080780346002201210790082032F077
:1055C000A4FDF64890F82D0001282FD1F548807EE3
:1055D000A0B1F2488178F248143050F82130EF48F9
:1055E0000093807807900998801CC0B209900690BB
:1055F000002201460520079B32F087FDE948C07E66
:10560000A0B1E6488178E648283050F82130E348D8
:105610000093807807900998801CC0B2099006908A
:10562000002201460520079B32F06FFDDD48007F18
:10563000A0B1DA488178DA483C3050F82130D748B8
:105640000093807807900998801CC0B2099006905A
:10565000002201460520079B32F057FDD148407FCC
:10566000A0B1CE488178CE48503050F82130CB4898
:105670000093807807900998801CC0B2099006902A
:10568000002201460520079B32F03FFDC548807E81
:10569000B8B9C448C07EA0B9C248007F88B9C14823
:1056A000407F70B9BD488178BF4850F82130BB4871
:1056B000009380780346002207210790052032F0EE
:1056C00024FDB6488178B94850F8210006903AF098
:1056D0008FF9C000C0F1E700C0B20790AF488178F1
:1056E000B24850F82130AD4800938078034600223C
:1056F0000D210690079832F008FDE3E20223A74847
:105700008178A74850F82120AFF2B051A3488DE826
:105710000E0080780346002201210790082032F015
:10572000F4FCA048807FA0B19C4881789C486430FC
:1057300050F8213099480093807807900998801C90
:10574000C0B209900690002201460520079B32F066
:10575000DCFC9448C07FA0B19048817890487830B4
:1057600050F821308D480093807807900998801C6C
:10577000C0B209900690002201460520079B32F036
:10578000C4FC884890F82000C0B1844881788448DF
:105790008C3050F821308148009302E011E258E14A
:1057A0007CE0807807900998801CC0B20990069030
:1057B000002201460520079B32F0A7FC794890F8AB
:1057C0002100A0B1754881787548A03050F821308B
:1057D00072480093807807900998801CC0B20990A5
:1057E0000690002201460520079B32F08EFC6D4892
:1057F00090F82200A0B1694881786948B43050F827
:10580000213066480093807807900998801CC0B2C8
:1058100009900690002201460520079B32F075FC96
:105820006048807FE8B95F48C07FD0B95D4890F894
:105830002000B0B95B4890F8210090B9594890F821
:10584000220070B955488178574850F821305348A4
:10585000009380780346002207210790052032F04C
:1058600054FC4E488178514850F8210006903AF097
:10587000BFF8C000C0F1E700C0B207904748817888
:105880004A4850F82130454800938078034600226A
:105890000D210690079832F038FC13E203233F48AD
:1058A00081783F4850F82120AFF250713B488DE895
:1058B0000E0080780346002201210790082032F074
:1058C00024FC384890F82300A0B13448817834484B
:1058D000C83050F8213031480093807807900998FB
:1058E000801CC0B209900690002201460520079B4B
:1058F00032F00BFC2B4890F82400A0B127488178A7
:105900002748DC3050F821302448009380780790F5
:105910000998801CC0B2099006900022014605201B
:10592000079B32F0F2FB1F4890F82500A0B11B48FE
:1059300081781D48C83850F8213018480093807885
:1059400007900998801CC0B2099006900022014679
:105950000520079B32F0D9FB124890F82600A0B131
:105960000E4881781048B43850F821300B48009325
:10597000807807900998801CC0B209900690002298
:1059800001460520079B32F0C0FB064890F827002F
:10599000F8B1024881780448A03809E0D006001028
:1059A0007016040060480010281804007C140400DD
:1059B00050F82130FF480093807807900998801CA8
:1059C000C0B209900690002201460520079B32F0E4
:1059D0009CFBF94890F82300F0B9F74890F82400B0
:1059E000D0B9F54890F82500B0B9F34890F82600F2
:1059F00090B9F14890F8270070B9EE488178EF48E7
:105A000050F82130EB4800938078034600220721AC
:105A10000790052032F079FBE6488178E84850F895
:105A20002100069039F0E4FFC000C0F1E700C0B2E9
:105A30000790E0488178E24850F82130DD48009333
:105A40008078034600220D210690079832F05DFB16
:105A500038E10423D7488178DA4850F82120AFF69E
:105A60000411D4488DE80E008078034600220121FD
:105A70000790082032F049FBCF4890F82800A0B1E9
:105A8000CC488178CD488C3850F82130C9480093F3
:105A9000807807900998801CC0B209900690002277
:105AA00001460520079B32F030FBC34890F82900DF
:105AB000A0B1C0488178C148783850F82130BD483D
:105AC0000093807807900998801CC0B209900690D6
:105AD000002201460520079B32F017FBB64890F8DC
