:020000040000FA
:1000000000800010CD00000061B2030061B2030067
:1000100061B2030061B2030061B2030061B2030088
:1000200061B2030061B2030061B203008502000007
:1000300061B2030000000000ED020000C18F030068
:1000400061B20300C3870300998703008787030019
:100050007587030005630300D5640300B55F0300E3
:10006000D566030061B20300D969030061B20300E1
:1000700061B2030061B2030061B2030061B2030028
:1000800061B2030061B2030061B2030061B2030018
:100090006781030061B2030061B2030061B2030033
:1000A00061B2030061B2030061B2030061B20300F8
:1000B00061B2030061B2030061B2030061B20300E8
:1000C00061B2030061B2030061B2030000F002F804
:1000D00000F0C8F80AA090E8000C82448344AAF11A
:1000E0000107DA4501D100F0BDF8AFF2090EBAE818
:1000F0000F0013F0010F18BFFB1A43F0010318475C
:100100007C2D0500BC2D050010F8013B0A4413F0BE
:10011000030408BF10F8014B1D1108BF10F8015B64
:10012000641E05D010F8016B641E01F8016BF9D153
:10013000002D15D010F8014B03F00C030C2BA1EB94
:1001400004040ABF10F8013BA4EB8314A4EB0324BE
:1001500005F1010314F8016B5B1E01F8016BF9D581
:10016000914238BF10F8013BD1D37047103A24BFF9
:1001700078C878C1FAD8520724BF30C830C144BF0C
:1001800004680C607047000000230024002500264E
:10019000103A28BF78C1FBD8520728BF30C148BFEA
:1001A0000B6070476E293FF0EB8370293EF0D287D9
:1001B000662900F062A5652900F05FA5672900F0B7
:1001C0005CA56129AFF3008003681B0A28BF41F0DA
:1001D000800169293EF0428764293EF03F877529F6
:1001E0003EF03C876F293FF0DD8478293EF09E8702
:1001F000E9293FF07584E4293FF07284F5293FF046
:100200006F84EF293FF0DA84F8293EF09D87036878
:10021000DB0928BF41F0800163293FF0F683732991
:100220003FF0FB83E3293FF04E87F3293FF05387EC
:10023000002070471FB540F019FD9DE803003FF016
:10024000FDFA3FF0C7FF04000020002140F0F4FC5D
:10025000401C60600020002140F0D8FCE0601FBD21
:1002600010B510BD3FF088FF1146FFF7E3FF00F027
:100270002CF940F069F803B4FFF7F2FF03BC3BF040
:1002800030FC0000052828BF70474FEA8000784402
:10029000D0F802F0ED020000B302000051030000AC
:1002A00071030000910300004FF0010080F31488F7
:1002B00000DF0A4C4FF00105257077463EF0DAFD6D
:1002C000BE46074E3668074C2660D6F800D001BC03
:1002D00005490860BDE8F00F704700BF83060010B5
:1002E000940600108C060010580600104FF008020B
:1002F00082F3118800B53EF0BDFD5DF804EB2DE9F9
:10030000F00F0E49086801B40D4A1268C2F800D017
:100310000C4C0D4D2E7826700C4E3668084C26601D
:10032000D6F800D001BC086000280CBF00220822CB
:1003300082F31188BDE8F00F704700BF5806001027
:100340008C06001078060010790600109406001044
:100350000649086800F101004FF0080282F3118895
:10036000002808BF70470860704700BF580600109B
:100370000649086800281CBF01380860002818BF1B
:1003800070474FF0000282F3118870475806001042
:100390004FF0000080F3148870474FF0010080F3A5
:1003A0001488704788476FF0FF003AF0A2F9000008
:1003B0001CB5544890F82B200121182037F04CFD33
:1003C0000D230222CDE900234FA30E21282037F070
:1003D0001CFC1CBD08B500BF37F0FFFE35F0E0FF88
:1003E00036F0C6F835F081FE36F0C2F938F044FB3D
:1003F00036F0AFFD4849002038F0B8FA36F07AFA06
:1004000038F0B8FB37F0E9FE00200EF071FA00205A
:100410000EF04AF8FFF7CCFF36F0AAF80DF012F80C
:1004200006233E4A00213E483AF0C2F8022039F045
:1004300059FF3EF019FC16F001FC022039F052FF82
:1004400016F01CFA022039F04DFF1EF098FB1EF04A
:100450003DFC022039F046FF1CF04FFA6A460021AD
:10046000304800683AF092FB0FF019F817F0CCFB17
:1004700084212D483FF0A2F8022039F033FF0923F0
:100480002A4A00212A483AF093F8022039F02AFF3C
:100490001AF0DCF9022039F025FF0823254A002153
:1004A00025483AF085F8022039F01CFF19F0A6FC27
:1004B000C82039F017FF07E0002003F075FC02E0C8
:1004C000322039F00FFFFBE7F6E700B585B03AF0D0
:1004D000CCFE3AF089FE38F0C6FE01230022190254
:1004E0001648CDE90323CDE901010723144A002171
:1004F000AFF21F1000933AF0A3F838F077FF002016
:1005000005B000BDD006001076657273696F6E2568
:10051000642E25303264000080A90300C43200102C
:100520009D4602007C000010380A0010C4460010EE
:1005300095550300C44200102D9B0200C80A00100C
:10054000C42A0010F8B505460E4614461F460A2177
:10055000002037F037FC022301220B21002037F066
:10056000FFFBFF480095837800220B21282037F0FD
:10057000A0FAFB488078012807D0F94800968378D4
:1005800000220D21282037F094FA20463EF004FF87
:10059000C8B1022301220B21702037F0E1FBF048A3
:1005A0000094837800220B21982037F082FAEC48DF
:1005B0008078012807D0EA480097837800220D212F
:1005C000982037F076FAF8BD10B501220A210020F4
:1005D00037F0A4F903220B21002037F09FF910BD5A
:1005E00030B58BB0202103A83EF0E8FFDD4836F09F
:1005F000A0F9022039F076FEDB480078F0B3D94844
:1006000036F097F9022039F06DFE02230422012111
:10061000002037F0A5FBD548D0F8AC1003A83EF079
:1006200097FE03AB02220121282037F0EEFACF48D3
:10063000D0F8B41003A83EF08BFE03AB01220321D7
:10064000282037F0E2FAC6488078C0EBC00202EBFF
:100650000010C64A02EB8000816D03A83EF078FED0
:1006600003ABBF480093837800220521282037F090
:1006700020FABB4890F8BC00012800E074E019D1D2
:10068000BB4880890A2190FBF1F201FB1204B848B3
:10069000808990FBF1F523462A46B6A103A83EF0D7
:1006A00059FC03ABAE480093837800220721282031
:1006B00037F0FFF90A21002037F084FBAF48C088EB
:1006C000A849C98888420BD1AC484079A5494979E5
:1006D000884205D1A948C078A249C978884222D069
:1006E000A048C288A6A103A83EF034FC03AB0222B6
:1006F0000B21282037F089FA9A48C3784279A2A1C1
:1007000003A83EF027FC03AB02220D21282037F07E
:100710007CFA9448C0889949C880924840794871C9
:100720009048C078C870954880788E49897888420A
:1007300005D1924840788B494978884213D089483E
:100740004378827893A103A83EF004FC03AB032214
:100750000B21602037F059FA8248807887498870E9
:1007600080484078487078E07D48807800EB8000D1
:100770008B4A02EBC000816903A83EF0E9FD03ABA0
:1007800077480093837800220221482037F091F9BE
:10079000734890F8BC00012819D1754880890A2156
:1007A00090FBF1F201FB12047148808990FBF1F596
:1007B00023462A466FA103A83EF0CCFB03AB684852
:1007C0000093837800220521AA2037F072F96B4844
:1007D000C0886449C98888420BD16848407961491A
:1007E0004979884205D16548C0785E49C978884210
:1007F00015D05C48C3784279C1888DE80E0069A3A2
:1008000002220621502037F000FA5648C0885B4982
:10081000C8805448407948715248C078C8705748D9
:10082000807850498978884205D1544840784D49AC
:100830004978884211D04B4843788278CDE900232B
:1008400054A3042208213C2037F0DFF94548807882
:100850004A4988704348407848700BB030BD30B585
:1008600089B0202101A83EF0A9FE3E4836F061F88B
:10087000022039F037FD022303220121002037F046
:100880006FFA37488078C0EBC00202EB0010374A9D
:1008900002EB8000C16C01A83EF05AFD01AB30486C
:1008A0000093837800220121282037F002F92C4898
:1008B0008078C0EBC00202EB00102C4A52F82010E6
:1008C00001A83EF045FD01AB254800938378002246
:1008D0000321282037F0EDF8214890F8BC000128CA
:1008E00019D1234880890A2190FBF1F201FB1204FF
:1008F0001F48808990FBF1F523462A461DA101A8D7
:100900003EF028FB01AB16480093837800220521B6
:10091000282037F0CEF80A21002037F053FA174884
:10092000C0881049C98888420BD1144840790D49C4
:100930004979884205D11148C0780A49C978884266
:100940004ED00848C2880EA101A83EF003FB01ABBF
:1009500002220B21282037F058F90248C37829E0F9
:10096000D0060010000000101C000010E001001074
:10097000E050001025642E2564209200080000102D
:100980002530346400000000253032642D253032DB
:1009900064000000253032643A25303264000000E3
:1009A00018010010253034642D253032642D253097
:1009B000326400004279AFF2300101A83EF0CAFA79
:1009C00001AB02220D21282037F01FF9FF48C08813
:1009D000FF49C880FD4840794871FC48C078C8701C
:1009E000FB488078F9498978884205D1F8484078F1
:1009F000F6494978884214D0F44843788278AFF2B7
:100A00006C0101A83EF0A6FA01AB03220B21602085
:100A100037F0FBF8ED488078ED498870EB48407876
:100A2000487009B030BD10B50246012904D0E94B29
:100A300093F89930012B2CD11378412B0BD153789B
:100A4000303B03EB8303642404EB43049378303B93
:100A5000234498B228E01378422B0BD15378303BD3
:100A600003EB8303C82404EB43049378303B234413
:100A700098B219E01378303B642463435478303CD7
:100A800004EB840403EB44049378303B234498B292
:100A90000AE01378303B03EB8303642404EB430444
:100AA0005378303B234498B210BD30B502460B78E2
:100AB000303B4FF47A7463434C78303C04EBC4050C
:100AC00005EB041403EB84041378303B03EB83033E
:100AD00004EB43045378303B234498B230BD0EB549
:100AE00036F022FAB948C3784279C1888DE80E0001
:100AF000AFF2501302221146502037F086F8B34867
:100B000043788278CDE90023AFF2781304221146AE
:100B10003C2037F07AF80EBD10B50020AE490870C1
:100B2000AE490870AE4800210180AE480180817056
:100B30000020AD498870AD48006839F093F910BDC8
:100B4000AB480068AB4909680844AB4909680844E8
:100B5000AA490968084470472DE9F04F95B0064648
:100B6000884620210DA83EF029FD202105A83EF051
:100B700025FD4FF0000900200490002400250027E7
:100B800098F8000002281DD13078432802D0307830
:100B9000452817D100209049087092480021018013
:100BA0008170FFF7CDFF18B103209549087006E06A
:100BB000FFF7B2FFFFF708FD00209149087015B05C
:100BC000BDE8F08F98F8000002286FD13178824894
:100BD00002780078401C804B1870824881547D4810
:100BE000807800EB8000874A52F830100DA83EF064
:100BF000AFFB784890F83100012813D1794800788C
:100C00002E2803D141207749087006E07548007806
:100C1000442802D142207349087072490DA83EF061
:100C200020FC03E06F490DA83EF01BFC7548816A6B
:100C300005A83EF08DFB6B4905A83EF012FCAFF213
:100C4000BC23AFF2C02205A90DA8FFF77BFC6148C9
:100C500090F83100012804D05E4890F899000128EE
:100C600077D15D48007803281FDB5A4890F831009F
:100C7000E8B95C4800782E2813D05A4800784428F8
:100C80000FD0584840782E280BD05648407844283A
:100C900007D0544880782E2803D0524880784428C2
:100CA00005D14FF00509012004904BE257E14D4872
:100CB00040782E280BD04B484078442807D049482C
:100CC00080782E2803D047488078442804D14FF0FC
:100CD00005090120049035E23E4890F83110414862
:100CE000FFF7A1FE0446642094FBF0F000F0FF0A39
:100CF000642094FBF0F100FB114000F0FF0B514623
:100D000058461BF0F2FE00F0FF09324890F82F0021
:100D1000022827D1642094FBF0F000F0FF0A642041
:100D200094FBF0F100FB114000F0FF0B52465946D6
:100D3000012018F013FD00202749087029480021E0
:100D400001808170FFF7FCFE20B103202C49087060
:100D500007E064E0FFF7E0FEFFF736FC00202849DB
:100D600008702CE71B4890F82F00042854D1642009
:100D700094FBF0F100FB114000F0FF0A642094FBAB
:100D8000F0F000F0FF0B514658461CF093FC07466C
:100D90006FB1642094FBF0F000F0FF0A3946504632
:100DA0001CF018FE012802D0384618F0FCFF002085
:100DB000094908700B48002101808170FFF7C0FECF
:100DC00018B103200E49087025E01DE00000001056
:100DD00008000010D0060010190000101A000010C2
:100DE00017000010140000105409001094000010A7
:100DF0002000001024000010280000102C0000101B
:100E00001B00001018010010FFF786FEFFF7DCFB47
:100E10000020FD490870D2E60120049092E1FB48D1
:100E20000078022813DBFA4800782E280BD0F84807
:100E30000078442807D0F64840782E2803D0F4489C
:100E40004078442804D14FF005090120049079E14D
:100E5000F04890F83110EE48FFF7E5FD04466420B5
:100E600094FBF0F000F0FF0A642094FBF0F100FB2B
:100E7000114000F0FF0B514658461BF036FE00F0C3
:100E8000FF092146E4A017F08BF8E24890F82F0004
:100E9000022826D1642094FBF0F000F0FF0A6420C1
:100EA00094FBF0F100FB114000F0FF0B5246594655
:100EB000012018F053FC0020D4490870D4480021C8
:100EC00001808170FFF73CFE18B10320CE49087005
:100ED00006E0FFF721FEFFF777FB0020CA49087004
:100EE0006DE6CC4890F82F00042835D1642094FB9F
:100EF000F0F100FB114000F0FF0A642094FBF0F0D9
:100F000000F0FF0B514658461CF0D4FB07466FB16A
:100F1000642094FBF0F000F0FF0A394650461CF0C4
:100F200059FD012802D0384618F03DFF0020B7498E
:100F30000870B748002101808170FFF701FE18B1E9
:100F40000320B149087006E0FFF7E6FDFFF73CFB20
:100F50000020AD49087032E601200490F2E098F8D4
:100F6000000001280AD13278012108461BF0E5FC77
:100F7000044624B94FF0020901200490E2E0A3489E
:100F80000078002804DD4FF0050901200490D9E025
:100F9000A04890F83100012823D141219B480278D4
:100FA0000078401C994B1870994881540A2094FB92
:100FB000F0F03030C2B2184601780078401C18704A
:100FC000934842540A2094FBF0F100FB114030306A
:100FD000C1B2184602780078401C18708C488154C1
:100FE0001AE00A2094FBF0F03030C1B28748027852
:100FF0000078401C854B1870854881540A2094FB6A
:10100000F0F100FB11403030C2B218460178007890
:10101000401C18707E4842547E48807800EB800067
:10102000834A52F830100DA83EF092F978490DA885
:101030003EF017FA7E48816A05A83EF089F97449A6
:1010400005A83EF00EFAAFF2C463AFF2C86205A97C
:101050000DA8FFF777FA6F4890F831106C48FFF74A
:10106000E2FC0446642094FBF0F000F0FF0A6420E8
:1010700094FBF0F100FB114000F0FF0B5146584685
:101080001BF033FD00F0FF09624890F82F000228A2
:1010900026D1642094FBF0F000F0FF0A642094FB5A
:1010A000F0F100FB114000F0FF0B524659460120C1
:1010B00018F054FB00205549087055480021018064
:1010C0008170FFF73DFD18B103204F49087006E01D
:1010D000FFF722FDFFF778FA00204B4908706EE514
:1010E0004C4890F82F0004282AD1642094FBF0F19A
:1010F00000FB114000F0FF0A642094FBF0F000F0C8
:10110000FF0B514658461CF0D5FA074617B1384632
:1011100018F049FE00203D4908703D48002101803B
:101120008170FFF70DFD18B103203749087006E004
:10113000FFF7F2FCFFF748FA0020334908703EE55C
:1011400001200490049878B3B9F1060F34D2DFE897
:1011500009F0A97A0334047900BF2E48807800EBA7
:101160008000334A02EBC00041690DA83EF0F0F860
:101170002F48C16B05A83EF0EBF8AFF2F873AFF261
:10118000FC7205A90DA8FFF7DDF94FF4C87039F01E
:10119000A9F8FFF7D5FC40B11D48002101808170FE
:1011A00003201949087007E04BE1FFF7B5FCFFF792
:1011B0000BFA0020144908703FE11648807800EBD4
:1011C00080001B4A02EBC00001690DA83EF0C0F888
:1011D0001748816B05A83EF0BBF8AFF65803AFF691
:1011E0005C0205A90DA8FFF7ADF94FF4C87039F0FE
:1011F00079F8FFF7A5FCE8B105480021018081706E
:101200000320014908701CE01B00001019000010A9
:1012100014000010D00600100D0A204150505562F5
:101220006F7842746E636C6F756D6E3D256400005F
:1012300018010010FFF770FCFFF7C6F90020FB490A
:101240000870FAE000BFFA48807800EB8000F94AA5
:1012500002EBC00041680DA83EF07AF8F548C16A7B
:1012600005A83EF075F8AFF6E403AFF6E80205A96D
:101270000DA8FFF767F94FF4C87039F033F8FFF79E
:101280005FFC38B1EC480021018081700320E74900
:10129000087006E0FFF740FCFFF796F90020E349ED
:1012A0000870CAE0642094FBF0F000F0FF0A6420AC
:1012B00094FBF0F100FB114000F0FF0B52460121BE
:1012C00058461BF01AFCDD49086008460568D848F6
:1012D00090F82700A8B3012834D0022830D1642028
:1012E000B5FBF0F100FB115AB5FBF0FBD04880785C
:1012F00000EB8000CF4901EBC000C168CC48CDE9CC
:1013000001BA0091807800EB8000CA4901EBC0006F
:10131000C94BCBA1C2690DA83DF01CFE6420B5FBF2
:10132000F0F100FB115AB5FBF0FBC248416BCDE96F
:1013300001BA0091C04BC2A1426C05A83DF00AFE63
:101340005BE033E00A20B5FBF0F5B5FBF0F100FB04
:10135000115AB5FBF0FBB648807800EB8000B54928
:1013600001EBC000C168B248CDE901BA00918078B4
:1013700000EB8000AF4901EBC000AF4BB5A1C269E3
:101380000DA83DF0E7FD0A20B5FBF0F100FB115A76
:10139000B5FBF0FBA748416BCDE901BA0091A64B24
:1013A000ACA1426C05A83DF0D5FD26E06420B5FB5C
:1013B000F0FA9F48807800EB80009E4901EBC00066
:1013C000C2689B48CDE9002A807800EB800001EBE1
:1013D000C000994BA3A1C2690DA83DF0BBFD6420DC
:1013E000B5FBF0FA9348426BCDE9002A924B9DA1E0
:1013F000426C05A83DF0AEFD00BF00BFAFF67C23F8
:10140000AFF6802205A90DA8FFF79CF8C82038F098
:1014100069FFFFF795FB28B19548048005208349B3
:10142000087009E0C82038F05DFFFFF775FBFFF793
:10143000CBF800207D49087000BF00BF00208D4917
:10144000087000BF8DE42DE9F04F93B006462021CF
:101450000BA83EF0B3F8202103A83EF0AFF8002718
:10146000B846B94600240025307843281BD1002017
:1014700080490870804908706F48002101808170A0
:101480007E480180FFF75CFB18B1032067490870B4
:1014900006E0FFF741FBFFF797F80020634908706B
:1014A00013B0BDE8F08F74480078F0BB3078452861
:1014B00029D032786F4801780078401C6D4B187045
:1014C0006E4842545A48807800EB80006C4A02EB28
:1014D0000010816C0BA83DF03BFF68490BA83DF064
:1014E000C0FF6748D0F8981003A83DF031FF63496A
:1014F00003A83DF0B6FFAFF67433AFF6783203A918
:101500000BA8FFF71FF85B480078022857DB5B4801
:101510000078302839DB59480078392835DC5748BD
:101520004078302831DB554800E0C9E04078392860
:101530002BDC01205049087000204E4908703E48BD
:101540000021018081704D490BA83DF001FF384812
:10155000807800EB80004A4A02EB0010C16C0BA8B7
:101560003DF07FFF454903A83DF0F2FE4448D0F826
:101570009C1003A83DF075FFAFF6F833AFF6FC32D0
:1015800003A90BA8FEF7DEFFD2E10020394908705D
:10159000394908702848002101808170374801804E
:1015A000FFF7CEFA18B103202049087006E0FFF7D4
:1015B000B3FAFFF709F800201C49087070E730788B
:1015C000452832D12D48007830285FDB2B48007841
:1015D00039285BDC29480078284948703020087099
:1015E0000120254908700020224908701248002176
:1015F000018081700E48807800EB8000204901EB6B
:1016000000101E4A1FA1C36C0BA83DF0A3FC1C4890
:101610001A4A1CA1D0F89C3003A83DF09BFC1AA3E9
:1016200019A203A90BA8FEF78DFF81E11B00001092
:10163000D006001018010010140000103400001033
:1016400025732025732C2573253032642E253032E6
:101650006400000025732025732C257325642E2536
:101660006400000025732025732C25732564000079
:1016700030000010190000101A00001017000010B0
:10168000AC03001025732573000000000020FC4906
:101690000870FC490870FC48002101808170FB48FB
:1016A0000180FFF74DFA18B10320F949087006E0F0
:1016B000FFF732FAFEF788FF0020F5490870EFE6E1
:1016C000F048007801287ED13078452835D031782F
:1016D000EB4802780078401CE94B1870EA488154C6
:1016E000EA4840783038E9490978303901EB81011E
:1016F00000EB410000F0FF09E34BE64800938078DF
:1017000000EB8000E44901EB00104A46E3A1C36C02
:101710000BA83DF01FFCDC4BDF4800934A46DFA1DD
:10172000D0F89C3003A83DF015FCAFF2A403AFF253
:10173000A80203A90BA8FEF705FFD14800780228EC
:1017400075DBD1480078302856DBCF48007839283F
:1017500052DCCD48407830284EDBCB4840783928E1
:101760004ADCCA49C848FFF7A0F90446642094FB44
:10177000F0F000F0FF0A642094FBF0F100FB114050
:1017800000F0FF0B514658461BF0AFF9C7B2C148F5
:1017900090F82F0002282CD1642094FBF0F000F088
:1017A000FF0A642094FBF0F100FB114000F0FF0BF6
:1017B00052465946012017F0D1FF0020B049087069
:1017C000B049087000E08BE0AF48002101808170D3
:1017D000AE480180FFF7B4F918B10320AC49087096
:1017E00006E0FFF799F9FEF7EFFE0020A849087020
:1017F00056E64FF001089BE00020A1490870A1497E
:101800000870A148002101808170A0480180FFF785
:1018100097F918B103209E49087006E0FFF77CF99C
:10182000FEF7D2FE00209A49087039E6FFE73078CB
:1018300045287DD194480078302852DB92480078C2
:1018400039284EDC904800788F4948703020087065
:101850008E498D48FFF729F90446642094FBF0F087
:1018600000F0FF0A642094FBF0F100FB114000F04F
:10187000FF0B514658461BF038F9C7B2854890F81F
:101880002F0002282AD1642094FBF0F000F0FF0A18
:10189000642094FBF0F100FB114000F0FF0B524676
:1018A0005946012017F05AFF002075490870754904
:1018B0000870754800210180817074480180FFF72D
:1018C0003FF918B103207249087006E0FFF724F9C8
:1018D000FEF77AFE00206E490870E1E54FF001083E
:1018E00026E0002066490870674800210180817069
:1018F0006848807800EB8000674901EB0010634A7C
:10190000AFF28021C36C0BA83DF024FB62485F4A14
:10191000AFF29021D0F89C3003A83DF01BFBAFF252
:101920009823AFF29C2203A90BA8FEF70BFEB7E5A4
:10193000B8F1000F73D0062F3AD2DFE807F0BD727E
:10194000033A047100BF5348807800EB8000554A89
:1019500002EBC00041690BA83DF0FAFC5148C16B95
:1019600003A83DF0F5FCAFF2E023AFF2E42203A9B7
:101970000BA8FEF7E7FD4FF4C87038F0B3FCFFF793
:10198000DFF870B100203E4908703E4908703F48BA
:10199000002101803C480180817003203C4908708F
:1019A00006E0FFF7B9F8FEF70FFE0020384908708F
:1019B00053E13848807800EB80003A4A02EBC000DF
:1019C00001690BA83DF0C4FC3648816B03A83DF0CB
:1019D000BFFCAFF24C33AFF2503203A90BA8FEF7B5
:1019E000B1FD4FF4C87038F07DFCFFF7A9F870B175
:1019F00000202349087023490870244800210180F1
:101A000021480180817003202149087006E0FFF71A
:101A100083F8FEF7D9FD00201D4908701DE122E181
:101A200000BF1C48807800EB80001E4A02EBC0001B
:101A300041680BA83DF08CFC1A48C16A03A83DF030
:101A400087FCAFF2BC33AFF2C03203A90BA8FEF79C
:101A500079FD4FF4C87038F045FCFFF771F870B1AC
:101A600000200749087007490870084800210180D4
:101A70000548018081700320054908701BE013E0D0
:101A8000190000101A0000101400001017000010B8
:101A90001B000010D0060010AC0300102564257355
:101AA0002573000018010010FFF736F8FEF78CFDD3
:101AB0000020FD490870D0E0642094FBF0F000F0B5
:101AC000FF0A642094FBF0F100FB114000F0FF0BD3
:101AD0005246012158461BF010F8F44908600846A8
:101AE0000568F34890F82700B8B3012836D00228DB
:101AF00032D16420B5FBF0F100FB115AB5FBF0FBCD
:101B0000EB48807800EB8000EA4901EBC000C16837
:101B1000E748CDE901BA0091807800EB8000E54903
:101B200001EBC000E44BAFF2E841C2690BA83DF005
:101B300011FA6420B5FBF0F100FB115AB5FBF0FB84
:101B4000DC48416BCDE901BA0091DB4BAFF210519B
:101B5000426C03A83DF0FEF95FE035E00A20B5FBDA
:101B6000F0F5B5FBF0F100FB115AB5FBF0FBD048E6
:101B7000807800EB8000CF4901EBC000C168CC4801
:101B8000CDE901BA0091807800EB8000C94901EBF2
:101B9000C000C94BAFF24451C2690BA83DF0DAF95D
:101BA0000A20B5FBF0F100FB115AB5FBF0FBC14870
:101BB000416BCDE901BA0091BF4BAFF26851426C65
:101BC00003A83DF0C7F928E06420B5FBF0FAB84857
:101BD000807800EB8000B74901EBC000C268B448D0
:101BE000CDE9002A807800EB800001EBC000B24B09
:101BF000AFF29051C2690BA83DF0ACF96420B5FB7F
:101C0000F0FAAC48426BCDE9002AAB4BAFF2AC51D5
:101C1000426C03A83DF09EF900BF00BFAFF298539D
:101C2000AFF29C5203A90BA8FEF78CFCC82038F039
:101C300059FBFEF785FF28B1A048048005209A498A
:101C4000087009E0C82038F04DFBFEF765FFFEF78D
:101C5000BBFC00209449087000BF00BF00209849D9
:101C600008709849087000BF1AE42DE9F041A4B04B
:101C700006460D4620211CA83DF0A0FC202114A8FA
:101C80003DF09CFC20210CA83DF098FC202104A8EC
:101C90003DF094FC022038F025FBFEF751FF04468E
:101CA000EEBB83488078012814D08748036D8048B4
:101CB000807800EB8000844901EB001083A102686A
:101CC0007B488DE80E008378002202214C2035F0FD
:101CD000F0FE0CE07C48AFF23822036D7448CDE989
:101CE0000023837800220221602035F0E2FE0422E6
:101CF0001146002035F012FE6D48807828B9022385
:101D0000002205212C2036F02BF8694890F8270096
:101D100048B3012814D0022831D1642000E05CE0EF
:101D2000B4FBF0F100FB1147B4FBF0F8AFF2E8634D
:101D3000042211464C20CDE9008735F066FF1EE0F5
:101D40000A20B4FBF0F4B4FBF0F100FB1147B4FB44
:101D5000F0F8AFF2F863042211464C20CDE9008779
:101D600035F053FF0BE06420B4FBF0F7AFF20473DF
:101D7000042211464C20009735F047FF00BF00BFFA
:101D8000012D11D14A48807800EB80004E4A02EBC9
:101D90000010816C1CA83DF0DBFA4B48D0F898107D
:101DA00014A83DF0D5FA0FE04148807800EB8000A0
:101DB000454A02EB001001691CA83DF0C9FA4248EF
:101DC000016E14A83DF0C4FAAFF24473AFF248724A
:101DD00014A91CA8FEF7B6FBC3E03548807801289B
:101DE00014D03948436D3248807800EB8000364982
:101DF00001EB001035A142682D488DE80E00837874
:101E0000002202214C2035F054FE12E02848807850
:101E100000EB80002C4901EB0010AFF27C324368EC
:101E20002348CDE90023837800220221602035F089
:101E300040FE04221146002035F070FD1C488078D9
:101E400028B90223002205212C2035F089FF1848EB
:101E500090F8270038B3012812D0022846D1642018
:101E6000B4FBF0F100FB1147B4FBF0F8AFF6280328
:101E7000042211464C20CDE9008735F0C6FE35E03E
:101E80000A20B4FBF0F4B4FBF0F100FB1147B4FB03
:101E9000F0F8AFF63803042211464C20CDE9008754
:101EA00035F0B3FE22E015E01B00001034000010F6
:101EB000D0060010180100101400001030000010AF
:101EC000190000101A000010AC03001025732F2514
:101ED000730000006420B4FBF0F7AFF67003042237
:101EE00011464C20009735F090FE00BF00BF012D39
:101EF00011D1FF48807800EB8000FE4A02EB001011
:101F0000816C1CA83DF024FAFA48D0F8981014A867
:101F10003DF01EFA1FE0F648807800EB8000F54A9D
:101F200002EB001041691CA83DF012FAF148416E25
:101F300014A83DF00DFAEE48807800EB8000ED4AE1
:101F400002EB001081690CA83DF002FAE948816EAD
:101F500004A83DF0FDF904AB0CAA14A91CA8FEF7D7
:101F6000F1FA24B0BDE8F08100B591B0202109A8B4
:101F70003DF024FB202101A83DF020FBDC488078C7
:101F800000EB8000DB4A02EB0010816809A83DF0FD
:101F9000DFF9D848816D01A83DF0DAF9AFF61813E2
:101FA000AFF61C1201A909A8FEF7CCFA11B000BDCA
:101FB00070B598B00446202110A83DF0FFFA20210A
:101FC00008A83DF0FBFA202168463DF0F7FAC84822
:101FD000807800EB8000C74A02EB0010C1686846B9
:101FE0003DF0B6F9C348C16D08A83DF0B1F9C0484D
:101FF00090F8270018B3012810D0022829D16420B6
:10200000B4FBF0F100FB1145B4FBF0F62B46324671
:10201000AFF6CC1110A83CF09DFF1AE00A20B4FBEB
:10202000F0F4B4FBF0F100FB1145B4FBF0F62B46E5
:102030003246AFF6D81110A83CF08CFF09E06420BE
:10204000B4FBF0F52A46AFF6DC1110A83CF082FF95
:1020500000BF00BF10A968463DF003FAAFF6D813E1
:10206000AFF6DC1208A96846FEF76CFA4FF4C870A8
:1020700038F038F918B070BD00B591B0202109A82A
:102080003DF09CFA202101A83DF098FA984880780C
:1020900000EB8000974A02EB0010816B09A83DF02D
:1020A00057F99448D0F8881001A83DF051F9AFF6DF
:1020B0002823AFF62C2201A909A8FEF743FA4FF412
:1020C000C87038F00FF911B000BD00B591B02021F3
:1020D00009A83DF073FA202101A83DF06FFA844869
:1020E000807800EB8000834A02EB0010C16B09A8E6
:1020F0003DF02EF97F48D0F88C1001A83DF028F96A
:10210000AFF67C23AFF6802201A909A8FEF71AFAE0
:10211000142038F0E7F811B000BD00B591B02021CF
:1021200009A83DF04BFA202101A83DF047FA70487C
:10213000807800EB80006F4A02EB0010016C09A868
:102140003DF006F96B48D0F8901001A83DF000F979
:10215000AFF6CC23AFF6D02201A909A8FEF7F2F919
:102160004FF4C87038F0BEF811B000BD10B590B093
:10217000202108A83DF022FA202168463DF01EFAF1
:102180005D480088642190FBF1F201FB120458487D
:10219000807800EB8000574901EB0010224657A1E0
:1021A000C36A08A83CF0D6FE53480088642190FB1F
:1021B000F1F201FB12044F48224650A1C36F68465A
:1021C0003CF0C8FEAFF64033AFF64432694608A88B
:1021D000FEF7B8F910B010BD00B591B0202109A8E4
:1021E0003DF0ECF9202101A83DF0E8F94048807865
:1021F00000EB80003F4901EB0010AFF25C71C26A56
:1022000009A83CF0A7FE3B48AFF26C71C26F01A871
:102210003CF0A0FEAFF69033AFF6943201A909A8C6
:10222000FEF790F911B000BD00B591B0202109A8CA
:102230003DF0C4F9202101A83DF0C0F92C48807878
:1022400000EB80002B4A02EB0010016B09A83DF067
:102250007FF82848D0F8801001A83DF079F8AFF653
:10226000D833AFF6DC3201A909A8FEF76BF9642078
:1022700038F038F811B000BD00B591B0202109A8A0
:102280003DF09CF9202101A83DF098F9184880788C
:1022900000EB8000174A02EB0010416B09A83DF0EB
:1022A00057F81448D0F8841001A83DF051F8AFF663
:1022B0002843AFF62C4201A909A8FEF743F94FF4D1
:1022C000C87038F00FF811B000BD00B591B02021F2
:1022D00009A83DF073F9202101A83DF06FF90448E9
:1022E000807800EB8000074A52F8201009A80BE024
:1022F000D0060010AC03001030000010256420252B
:10230000730000003C0500103DF022F8FF484169D1
:1023100001A83DF01DF8AFF69043AFF6944201A935
:1023200009A8FEF70FF911B000BD00B591B020214A
:1023300009A83DF043F9202101A83DF03FF9F448F8
:10234000807800EB8000F14A02EB8000816809A8E8
:102350003CF0FEFFED48C16901A83CF0F9FFAFF683
:10236000D843AFF6DC4201A909A8FEF7EBF86420D8
:1023700037F0B8FF11B000BD70B592B0044620210F
:102380000AA83DF01BF9202102A83DF017F9E0480A
:1023900090F8270088B3012817D002283FD1642085
:1023A000B4FBF0F100FB1145B4FBF0F6D848009502
:1023B000807800EB8000D54901EB80003346D5A141
:1023C00042680AA83CF0C6FD29E00A20B4FBF0F4FC
:1023D000B4FBF0F100FB1145B4FBF0F6CC480095DE
:1023E000807800EB8000C94901EB80003346CCA126
:1023F00042680AA83CF0AEFD11E0FFE76420B4FBA0
:10240000F0F5C348807800EB8000C04901EB800004
:102410002B46C5A142680AA83CF09CFD00BF00BF46
:10242000BA48816902A83CF093FFC0A3BFA202A9E9
:102430000AA8FEF787F84FF47A7037F053FF12B00E
:1024400070BD00B589B0202101A83DF0B7F834F087
:102450006BFD022037F046FFAC48016A01A83CF052
:1024600077FF01AB03220521302035F0CEFBA848D1
:102470008078012813D0A648807800EB8000A34A1A
:1024800002EB8000016901A83CF062FF01ABA048AB
:102490000093837800220B213C2035F00AFB09B021
:1024A00000BDA3480068704770B506460C46154647
:1024B000974890F82300C8B1012E02D0022E14D103
:1024C00009E09CA015F05CFC14F0D2FA012108464A
:1024D00014F0ABFE09E09BA015F052FC14F0B5FA25
:1024E0000021012014F0A1FE00BF00BF884890F831
:1024F0002100C8B1012C02D0022C14D109E095A012
:1025000015F03EFC14F01FFC0121022014F08DFE9A
:1025100009E094A015F034FC14F0FAFB002102202D
:1025200014F083FE00BF00BF794890F8260058B130
:10253000012D02D0022D06D102E01CF019FC02E0B0
:102540001CF005FC00BF00BF142037F0CBFE70BDAF
:1025500010B5FEF7F5FAF0B986480078D8B9864884
:10256000407A012817D1FEF7EBFA04468248437AF5
:1025700080480278214681A015F002FC14F030FA60
:10258000142037F0AFFE002211460120FFF78CFF28
:10259000142037F0A7FE10BD00207D49C880487187
:1025A000C8708870487001207A49887070472DE99A
:1025B000F0410446002500260027012C1ED114F00E
:1025C000FAFE58B9524890F8230038B1012500208E
:1025D0006849087034F0A8FCFFF7DEFF022014F011
:1025E000EAFE90BB4A4890F82100012804D04848F0
:1025F00090F82100032828D1012626E0022C24D1BE
:10260000012014F0D8FE01280BD1414890F8230096
:1026100038B1022501205749087034F085FCFFF7D6
:10262000BBFF022014F0C7FE01280ED1384890F8F5
:102630002100012804D0364890F82100032804D155
:10264000334890F8C50000B902263A46314628467C
:10265000FFF72AFF002D01DD16F0C7FDBDE8F08170
:10266000F0B585B0002500260027294890F8250000
:10267000022812D100240EE0474850F8240040B14F
:10268000454850F824101C3030F8140001FB006657
:102690002746601CC4B2072CEEDB1D4890F82200D0
:1026A00002287DD13D48406F3C49B1F8C0104843F5
:1026B0003A498A6FB1F8C21002FB01013748C26F74
:1026C000B0F8C40002FB00113448D0F88020B0F804
:1026D000C60002FB00113148D0F88420B0F8C800D1
:1026E00002FB00112D48D0F88820B0F8CA0002FB88
:1026F00000112A48D0F88C20B0F8CC0002FB001161
:102700002648D0F89020B0F8CE004AE03C050010F2
:10271000D00600102573253032642E253032640037
:10272000257325642E2564002573256400000000B0
:102730002C0000100D0A20417070656E42696C6CAF
:10274000000000000D0A2041707064697342696CDA
:102750006C0000000D0A20417070656E436F696E59
:10276000000000000D0A20417070646973436F69B6
:102770006E0000001C000010604800100D0A20458B
:10278000727242696C6C3D25642C25642C256400B2
:102790000800001054090010280900101C0800103F
:1027A0003AE002FB0011FF48D0F89420B0F8D000C6
:1027B00002FB0011FB48D0F89820B0F8D20002FBD1
:1027C0000011F848D0F89C20B0F8D40002FB0011AA
:1027D000F448D0F8A020B0F8D60002FB0011F14870
:1027E000D0F8A420B0F8D80002FB0011ED48D0F8D2
:1027F000A820B0F8DA0002FB0011EA48D0F8AC20BB
:10280000B0F8DC0002FB0011E648D0F8B020B0F8C8
:10281000DE0002FB001512E0E34890F822000128D8
:1028200008D114F09DFC10B9DF48806B00E0002057
:10283000054604E0DC4890F8220000B90025701934
:10284000D949896B884202D9D748806B00E070195A
:10285000D6490860D448D0F8C03008460268D2484B
:10286000816BD348CDE90065CDE90323029150F88F
:102870002700DFF83CC30CF11C0C3CF817C000FB30
:102880000CF3C848806FDFF81CC3BCF8C2C000FB63
:102890000CF2C448406FDFF80CC3BCF8C0C000FBAA
:1028A0000CF1C44815F06CFABF4890F822000228D9
:1028B0000CD1BD48D0F8C000A84203D90220FFF7D0
:1028C00076FE35E00120FFF772FE31E0B64890F861
:1028D000220001280CD1B448D0F8C000A84203D986
:1028E0000220FFF764FE23E00120FFF760FE1FE0F7
:1028F000AD4890F82200D8B9AB4890F825000228DE
:102900000DD17019A849D1F8C010884203D2022015
:10291000FFF74DFE0CE00120FFF749FE08E0A2485A
:10292000806BA2490860A4480168A4A015F028FAA9
:10293000FFF70EFE002005B0F0BD014669B99A4AC6
:1029400092F82E200F32FF2A01DDFF2203E0964A83
:1029500092F82E200F32D0B20CE001290AD1924A0F
:1029600092F82E20FF2A01DDFF2202E08E4A92F823
:102970002E20D0B2704770B58B4890F8210018B364
:1029800014F07DF90446FCB1914800682044904958
:102990000860FEF7D5F80546024621468DA015F0E1
:1029A00011FA022200210846FFF77EFD0121204690
:1029B00014F0F6FDFEF7C4F805460246A1B2012068
:1029C00016F065FB012070BD774890F8230090B3A6
:1029D00013F0B6FF044674B3214684A015F0D0F975
:1029E000864800680119744803687048026884A02A
:1029F00015F0C6F98148006820446C49096888428E
:102A00001AD213F0B5FF90B17C48006820447B498E
:102A100008600221204614F0C3FDFEF791F8054638
:102A20000246A1B2022016F032FB002452E013F05D
:102A3000D7FF0020C7E761E05B4890F82400012839
:102A40003DD1FFF791FAFEF77BF828B34FF4AF7052
:102A500037F048FC0020FFF770FF724988710320AF
:102A600071490870002071490870714908707148F7
:102A7000002101807048018081707048006837F043
:102A8000F1F900206E4908606E4801780020FFF7D8
:102A9000ECF813F0A5FF0EE0FEF73EF800206249C7
:102AA000087013F09DFF4FF4C87037F01BFCFDF762
:102AB0008BFDFFF771FD00206349086083E76248E2
:102AC0000460FEF73DF805460246A1B2032016F069
:102AD000DEFA0024494800682044344909688842E5
:102AE00005D3022200211046FFF7DEFC04E002229B
:102AF00000210846FFF7D8FC012064E72A4890F837
:102B00002600C0B351481CF0F2F804464F48007844
:102B1000012819D1C4B121464DA015F097F95248AA
:102B200004600321204614F03BFD002202210846E8
:102B3000FFF7BAFCFEF704F805460246A1B20520ED
:102B400016F0A5FA01203EE740480078022813D18C
:102B500046A015F07BF9FDF7F3FF85B200232A4666
:102B60001946022015F0E6FA0020384908703E495F
:102B70000860022027E7FFE7002024E7F8B50026D9
:102B800000200090084890F82500022809D1FDF7A0
:102B9000D7FF06462EB131463BA015F0F1F80024D0
:102BA000CAE0CCE01C080010D00600103C00001069
:102BB00028090010800C0400400000100D0A41702C
:102BC000704368616E6765206D61783D256C6400B7
:102BD000200000100D0A417070636F696E312E6322
:102BE0006F696E3D256C642C256C64000D0A322ED5
:102BF00041707062696C6C3D256C640024000010AB
:102C00000D0A41707062696C6C3D256C642C4D6FCF
:102C10006E65793D256C642C70726963653D256C29
:102C2000640D0A00540900101B0000101900001068
:102C30001A0000101700001014000010940000107B
:102C4000340000103900001028000010440000106B
:102C50000D0A20417070526561646572312E726593
:102C600061643D256C6400002C0000100D0A2041B9
:102C70007070526561646572204F555450555420F0
:102C800063617264000000000D0A204170704E659F
:102C900065647061793D256C64000000FF4850F860
:102CA0002400F0B3FD4850F82400B6FBF0F0C5B2A4
:102CB0002946FBA015F064F8F8481C3030F81400E1
:102CC000A84201DB284603E0F4481C3030F8140029
:102CD000C5B22946F7A015F053F8F04951F8241071
:102CE00001FB05F0694613F014FF07463946F6A0CC
:102CF000009A15F045F8012F1BD1FA480068FA49EF
:102D0000096808440099461A0020F7490860F54808
:102D100006603146F5A015F033F8E04850F824007D
:102D200000E007E0684382B233460021012015F03D
:102D300001FA03E0601CC4B2072CAFDB00BFF8BD92
:102D400038B5EE480068D8B113F04AFE70B1FDF70F
:102D5000F7FEEA490968451A2A46E848006881B240
:102D6000042016F094F90020E449086037F068FB6D
:102D700005460146E2A015F013F9642037F0B2FAD7
:102D8000FFF7FCFEFDF7DCFE70B137F059FB05469E
:102D90000146DFA015F004F9FDF7D2FE05466946AD
:102DA0001BF03DFD044600E001241CBBDEA015F035
:102DB000F7F8FDF7C5FE0099451A284614F05AFEAB
:102DC000FDF7BEFE0099401A85B20B462A46002147
:102DD000084615F0AFF9C82037F084FA00221146F2
:102DE000022016F054F90020BE490860BE49086070
:102DF000009838BD37F024FB05460146CFA015F0FA
:102E0000CFF8FDF79DFE0546002114F033FEFDF7D7
:102E100097FE85B200232A461946184615F08AF90E
:102E20000020B0490860B049086000BFE1E72DE923
:102E3000F04100260024C6480468FDF781FEA04248
:102E400006D2C448006818B90720C3490870C1E019
:102E5000C048006878B1FFF738F9A0B21CF046F816
:102E60000646012E03D10A20BB490870B2E00920B2
:102E7000B9490870AEE09B4800689B49096808445E
:102E8000A04262D297480068201A97490968451AFB
:102E90009A480068451BB14890F82200022801D1E9
:102EA000012615E0AD4890F82200012801D1012645
:102EB0000EE0AA4890F8220050B9A84890F82500E2
:102EC000022801D1012603E00DB9012600E0002609
:102ED000012E36D113F04CFDF0B1834800688749CC
:102EE000096808448049086002218448006814F099
:102EF00057FBFDF725FE81490968471A3A467F4886
:102F0000006881B2022016F0C2F800207B490860F8
:102F10000A20914908705DE013F062FDFDF710FE94
:102F200076490968471A3A467448006881B2042015
:102F300016F0ADF800207149086008208649087035
:102F400048E008208449087044E066480068664903
:102F500009680844051B814890F82200022801D125
:102F6000012615E07D4890F82200012801D10126B4
:102F70000EE07A4890F8220050B9784890F8250081
:102F8000022801D1012603E00DB9012600E0002648
:102F9000012E1CD1714890F82400012813D1574804
:102FA000006880B113F01CFDFDF7CAFD53490968A4
:102FB000471A3A465148006881B2042016F067F873
:102FC00000204E4908600A206349087002E008208A
:102FD00061490870BDE8F08110B5044604B35D484E
:102FE000006860B15EA014F031FF01201BF0E6FF25
:102FF00058480068001B57490860002410E03A4810
:103000000068844206D338480068241A00203649F4
:10301000086005E034480068001B3349086000245C
:1030200024B130480068001B2E49086010BD4B4891
:1030300090F82E00FF2806DA4E48807908B9012062
:1030400070470020FCE70020FAE70EB54948837975
:103050004248807800EB8000474901EB001047A10F
:10306000426C3E488DE80E0083780022114696207F
:1030700034F01FFD0EBD70B50446012564B119483A
:103080000068194909680844A0427BD213F070FC1B
:1030900018B11548006876E0AAE089E02809001018
:1030A0000D0A204170704E6565646E756D3D256436
:1030B000000000000D0A204170705265616C6E7551
:1030C0006D3D2564000000000D0A204170705265BE
:1030D000636261636B2073743D25642C7061793D7C
:1030E000256C640020000010240000100D0A20410F
:1030F00070707061793D256C64000000280000103C
:103100000D0A20417070486F6C645265742564002C
:103110000D0A20417070426567696E206368616EB8
:1031200067652564000000000D0A20417070636827
:10313000616E6765204661696C0000000D0A2041E0
:1031400070706368616E67652073756363256400E2
:10315000340000102C0000101B000010D0060010DE
:103160000D0A2041707043487568756F537563632D
:103170000000000054090010AC0300102573253036
:103180003264000025E0FB4909680844FA490860F8
:10319000FDF7D6FCF7490968461A3246F54800683B
:1031A00081B2022015F073FF0020F249086010E0A0
:1031B00013F016FCFDF7C4FCEE490968461A3246C6
:1031C000EC48006881B2042015F061FF0020E94955
:1031D0000860FDF7B5FC064602462146E7A014F05C
:1031E000DFFEFDF7ADFCA04201D3012500E0002584
:1031F000FDF7A6FC90B30320E74908700020FFF715
:103200009CFBE6498871E4480078032842D1DA48FB
:103210000068E3490968884204D200220121084677
:10322000FFF742F90020DF490870DF490870DF48E6
:1032300000210180DE4801808170DE48006836F0A0
:1032400011FE33F071FEDC4801780020FEF70DFD21
:10325000FDF776FC064617F04CF91BE0FFE700226D
:1032600001210846FFF720F90020CE490870CE4919
:103270000870CE4800210180CD4801808170CD4882
:10328000006836F0EFFD33F04FFEFFF7DAF80E205E
:10329000C1490870284670BD70B504460125002656
:1032A00054B1C648006838B1FEF70FFFA0B21BF05A
:1032B0001DFE064606B90025284670BD70B50446B9
:1032C00084B3BE48006860B1BDA014F0BFFD01200A
:1032D0001BF074FEB9480068001BB8490860002460
:1032E00047E0BC480068A44909680844A0422FD2BE
:1032F00013F03EFBB8B1A04800689E490968084435
:103300009D490860FDF71CFC9A490968451A2A4640
:103310009848006881B2022015F0B9FE0020954956
:10332000086011E025E013F05BFBFDF709FC914913
:103330000968451A2A468F48006881B2042015F0B2
:10334000A6FE00208B4908604FF4487036F0CAFF93
:1033500089480068844206D387480068241A002000
:103360008549086005E084480068001B82490860C0
:10337000002424B197480068001B96490860FDF7B7
:10338000DFFB90B30320844908700020FFF7D5FAD3
:103390008249887180480078032842D176480068C5
:1033A0007F490968884204D2002201210846FFF7BC
:1033B0007BF800207B4908707B4908707B4800211E
:1033C00001807B48018081707A48006836F04AFDB0
:1033D00033F0AAFD784801780020FEF746FCFDF79F
:1033E000AFFB054617F085F81BE0FFE7002201213F
:1033F0000846FFF759F800206A4908706A490870C2
:103400006A48002101806A4801808170694800682B
:1034100036F028FD33F088FDFFF713F80E205E49E3
:10342000087070BD2DE9F04F87B004460E46154672
:10343000002700200690FEF7CFFE0022022108465A
:10344000FFF732F836F0FCFF8046014662A014F028
:10345000A7FD3046FFF720FF642094FBF0F000F05A
:10346000FF08642094FBF0F100FB114000F0FF091D
:103470004246012148460CF079FB07465B4890F82C
:103480002F00012804D0594890F82F0003286FD14D
:10349000012F6ED1FDF754FB08B914F06DF8012D22
:1034A00001D0022D02D13046FFF796FD4120404960
:1034B0000870642094FBF0F100FB11400A2190FB9E
:1034C000F1F030303A494870642094FBF0F100FB91
:1034D00011400A2190FBF1F201FB12003030344917
:1034E0008870434806604348037841480168304883
:1034F000CDE9015300918378427801783EA032F003
:10350000BFFF3C4801780078401C3A4B18702B46AE
:10351000274A3748006814F082F8642094FBF0F0E2
:1035200000F0FF0A642094FBF0F100FB114000F072
:10353000FF0B52460221584619F0DFFA00F0FF084F
:10354000FDF7FEFA0590642094FBF0F100FB1140BA
:1035500000F0FF09059A2B46CDE9012800964A465E
:103560000121002016F07AF90B200B4908706DE15B
:103570008CE061E028000010240000100D0A2041BA
:1035800070702050726963653D256C642C6D6F6EA0
:1035900065793D256C6400001B0000105409001083
:1035A0003C000010190000101A0000101700001055
:1035B0001400001094000010390000102C000010BE
:1035C0000D0A204170705043436F737453756363E9
:1035D00000000000200000100D0A202564417070DA
:1035E00055626F7856656E646F757400D006001072
:1035F00034000010380000104C6F675472616E7315
:10360000616374696F6E415049206C6F6769633DF7
:103610002563256325632070726963653D256420F9
:10362000747970653D25782C7472616E4E756D737A
:103630003D25640D0A200000FEF71EFE642094FB69
:10364000F0F000F0FF0A642094FBF0F100FB114061
:1036500000F0FF0B52460221584619F04EFA00F0D6
:10366000FF08FDF76DFA0590642094FBF0F100FB74
:10367000114000F0FF09059A2B46CDE9012800967C
:103680004A460121992016F0E9F8DFE0FF4890F85A
:103690002F0002287ED1012F52D1FEF7C5FD304602
:1036A000FFF70CFE642094FBF0F100FB11400A21AF
:1036B00090FBF1F03030C0B28DF818000A2094FB76
:1036C000F0F100FB11403030C0B28DF8190013F05A
:1036D00053FFEF4801780078401CED4B18702B46E3
:1036E00006AA304613F09BFF642094FBF0F000F034
:1036F000FF0B642094FBF0F100FB1140C0B25A466E
:103700000221049019F0F9F900F0FF08FDF718FA0A
:103710000590642094FBF0F100FB114000F0FF09DC
:10372000642094FBF0F000F0FF0A059A2B46CDE9E7
:10373000012800964A465146002016F08FF835E0E1
:10374000FEF79AFDD348006810B102201BF036FC4A
:10375000642094FBF0F000F0FF0A642094FBF0F189
:1037600000FB114000F0FF0B52460221584619F0B1
:10377000C4F900F0FF08FDF7E3F90590642094FB1D
:10378000F0F100FB114000F0FF09642094FBF0F021
:10379000C0B200E03FE00490059A2B46CDE9012835
:1037A00000964A460146022016F058F8FDF7C8F97F
:1037B00090B30320B84908700020FFF7BEF8B7495E
:1037C0008871B5480078032840D1B5480068B549EC
:1037D0000968884204D2002201210846FEF764FEEF
:1037E0000020B1490870B1490870B148002101803A
:1037F000B04801808170B048006836F033FB33F088
:1038000093FBAE4801780020FEF72FFAFDF798F9F8
:10381000804616F06EFE19E0FFE7002201210846FF
:10382000FEF742FE0020A0490870A0490870A04899
:10383000002101809F48018081709F48006836F018
:1038400011FB33F071FB0E209349087007B0BDE8FF
:10385000F08F2DE9F04F85B004460F4615461E4601
:103860008A4890F82F0002282BD1642094FBF0F0B6
:1038700000F0FF0A642094FBF0F100FB114000F01F
:10388000FF0B52460221584619F037F900F0FF08A5
:10389000FDF756F90490642094FBF0F100FB114011
:1038A00000F0FF09642094FBF0F0C0B20390049A8A
:1038B0002B46CDE9012800974A460146304615F0CF
:1038C000CDFF05B0BDE8F08F10B5FDF739F9D8B1DF
:1038D000FFF736FA4FF4C87036F004FD0020724945
:1038E0000870724908707248002101807148018097
:1038F00081707148006836F0B5FA33F015FBFEF7B9
:10390000A0FD0E2064490870002202210846FEF73F
:10391000CBFDC82036F0E6FC21F012FE4FF4C87053
:1039200036F0E0FC002201210846FEF7BDFD10BD87
:1039300070B5564890F8260010B1FEF7B2FDC8BB2E
:10394000FDF7FEF8B0B1FEF7C0FC36F079FD054694
:1039500001465BA014F024FBFFF7F2F904461CB10A
:103960002046FEF709FD01E0FEF7DFFC0E204A4984
:1039700008701FE0FEF7A9FCAFF6540014F010FB2E
:103980000021084614F076F800231A461946184616
:1039900014F0D0FBC82036F0A5FC0022114602200E
:1039A00015F075FB0020494908603D4908600E206C
:1039B0003949087070BD2DE9F04104460025FEF735
:1039C0000BFC36F03DFD06460146AFF2F43014F034
:1039D000E7FA642094FBF0F0C6B2642094FBF0F1A7
:1039E00000FB1140C7B23246012138460CF0BEF848
:1039F0000546FDF7A5F890B303202749087000207D
:103A0000FEF79BFF2549887123480078032864D17D
:103A10002348006823490968884204D20022012112
:103A20000846FEF741FD00201F4908701F49087035
:103A30001F48002101801F48018081701E480068D6
:103A400036F010FA33F070FA1C4801780020FEF7C7
:103A50000CF9FDF775F8064616F04BFD3DE0FFE763
:103A6000002201210846FEF71FFD00200E490870C4
:103A70000E4908700E48002101800E4801808170B7
:103A80000D48006836F0EEF922E00000D006001084
:103A9000380000102C0000101B000010540900100A
:103AA000240000103C000010190000101A00001043
:103AB00017000010140000109400001039000010CE
:103AC0000D0A2041707054756925640020000010B3
:103AD00033F02AFA0E20FF4908702846BDE8F0812D
:103AE00070B504460025FDF72BF80546FA4804603A
:103AF000FDF726F890B30320F64908700020FEF782
:103B00001CFFF6498871F3480078032841D1F44836
:103B10000068F4490968884204D20022012108465D
:103B2000FEF7C2FC0020F0490870F0490870F04828
:103B300000210180EF4801808170EF48006836F075
:103B400091F933F0F1F9ED4801780020FEF78DF896
:103B5000FCF7F6FF064616F0CCFC1AE0FFE7002261
:103B600001210846FEF7A0FC0020DF490870DF496C
:103B70000870DF4800210180DE4801808170DE4846
:103B8000006836F06FF925B133F0CEF90E20D14937
:103B9000087070BDF0B593B00546002420210BA835
:103BA0003BF00CFD202103A83BF008FD0520CB498C
:103BB0004871FCF7C5FF08B9FCF791FF2C46D048C7
:103BC00090F82700A8B3012834D0022830D164200F
:103BD00094FBF0F100FB114694FBF0F7C8488078A5
:103BE00000EB8000C74901EBC000C168C448CDE9C3
:103BF00001760091807800EB8000C24901EBC000A3
:103C0000BC4BC149C2690BA83BF0A4F9642094FBEA
:103C1000F0F100FB114694FBF0F7BA48416BCDE997
:103C200001760091B34BB849426C03A83BF092F97E
:103C300061E037E00A2094FBF0F084B20A2094FBA4
:103C4000F0F100FB114694FBF0F7AD48807800EBF3
:103C50008000AC4901EBC000C168A948CDE90176FC
:103C60000091807800EB8000A64901EBC000A14BD9
:103C7000A5491431C2690BA83BF06CF90A2094FBEA
:103C8000F0F100FB114694FBF0F79E48416BCDE943
:103C900001760091974B9C491431426C03A83BF08C
:103CA00059F928E0642094FBF0F69548807800EB01
:103CB0008000944901EBC000C2689148CDE900261C
:103CC000807800EB800001EBC0008A4B8E492431E4
:103CD000C2690BA83BF03EF9642094FBF0F68948DA
:103CE000426BCDE90026834B87492431426C03A8FF
:103CF0003BF030F900BF00BFAFF22C73AFF230726F
:103D000003A90BA8FCF71EFC4FF4167036F0EAFA74
:103D10007248407978B9FCF713FF18B103206D4958
:103D2000087006E0FCF7F8FEFCF74EFC002069493D
:103D30000870FEF731FC67480078032805D16F480A
:103D400001780020FDF791FF06E06248007818B97D
:103D500033F0EAF8FEF720FC13B0F0BD10B592B0D6
:103D6000044620210AA83BF029FC202102A83BF0B0
:103D700025FCFCF7E5FE10B10020FFF7B1FE22465E
:103D800062A10AA83BF0E6F8224660A102A83BF037
:103D9000E1F802AB5A480093837800220E215020AC
:103DA00033F087FE12B010BD88B0002007900024C9
:103DB00000250690059049498870C87008714871BF
:103DC00034F07FFA38B1022211461046FEF76CFB40
:103DD00013204049087001200FF0E5F94C490860B4
:103DE000474890F89800012802D116F063FA02E0E3
:103DF000012016F04BFA012034F0E0FA33F094F889
:103E0000F9E3344800783AF07CFF3248007814280F
:103E10005FD2DFE800F00AD1FEFDFCFBFAF9F8F70B
:103E2000F6F5F4F3F2F1F0EFEEED3A480068C82849
:103E300002D90020374908602848807830B9052029
:103E400026498870FCF7CCFB15F0DCF805A90020AA
:103E500016F015FD07909DF81C0098B19DF81C0008
:103E60003C2803D09DF81C003E2805D100201E49A7
:103E700008701E49087005E00520184948710120A6
:103E8000144908701548007920B9052013490871B4
:103E9000FEF7E6FBFEF76FFD0446012C4CD112F055
:103EA000C4FF33F041F8154801782846FDF7DDFEE0
:103EB000FCF746FE0746014617A013F061FF13F01A
:103EC0005BFB2846FEF739FD04498871FCF738FE94
:103ED0002CE0D1E21B0000102C000010540900104F
:103EE000240000103C000010190000101A000010FF
:103EF000170000101400001094000010390000108A
:103F0000D0060010180100104016000025730000B4
:103F100040000010480000100D0A2041707032610E
:103F20006D6F756E743D256C64000000074616F0D9
:103F3000E0FA0320FE490870FE48C078F0B9052079
:103F4000FC49C87012F094FF13F022F8A0B10020D1
:103F5000F849887015F049F9642036F0C3F932F059
:103F6000E3FF022211461046FEF79EFAFEF714FB0D
:103F70000F20EF49087001E015F0D1FB34F0A1F9F2
:103F800038B1022211461046FEF78EFA1320E84996
:103F90000870012012F0EAF9FCF7D2FD074614F090
:103FA000CFF934F0F7F907461BF092FA00201BF026
:103FB000A6FA16F0BFFC5FE29DF81C0080B19DF8E8
:103FC0001C10DDA013F0CAFF0520DA494871FCF788
:103FD000B7FD08B9FCF783FD05A907A8FCF7BCFDF0
:103FE00005A9012016F04BFC0790D248407911E05A
:103FF000B0E396E385E359E307E3D5E2C4E28FE259
:104000003BE21BE1FDE0D3E0AEE0ACE0A8E0A6E0DF
:1040100043E018E028B94320079002200590FEF7FE
:10402000BBFAC3480078032805D1C7480178284661
:10403000FDF71BFE06E0BE48007818B932F074FFA9
:10404000FEF7AAFAFEE39DF81C0050B11420B9490E
:104050004871FCF775FD08B9FCF741FD07A8FDF7AD
:10406000F2F905A9012016F00AFC0790B148407941
:1040700018B94320079002200590AD480078032826
:1040800005D1B14801782846FDF7EFFD04E0A848C6
:10409000007808B932F048FFD4E3FEF76CFC044620
:1040A000012C16D1A84801782846FDF7DEFD2846E8
:1040B000FEF743FC9F498871FCF742FD074616F066
:1040C00018FAFCF73DFD07460146AFF2B41013F0B5
:1040D00057FE05A9002016F0D2FB07909DF81C00A2
:1040E00058B19DF81C1099A013F038FF0520914994
:1040F000487101208E490870A4E312F06DFE10B9DA
:10410000FEF795FF78B19548407808B1012D0AD1A6
:104110009348006838B9002202210846FEF7C4F926
:104120000D20834908708F4890F82E00FF2809DA87
:104130008A48407808B1012D04D18948006808B93F
:10414000FEF783FF022C02D10E2079490870FCF79C
:10415000F7FC074614F0F4F816F0ECFB72E371E399
:10416000FEF765FE6EE36DE37F480068FDF720FF14
:104170002846FEF7E2FB6F49887103206C490870FE
:1041800000207A4908707A4908707A480021018035
:104190007948018081707948006835F063FE00201D
:1041A00071490860684801782846FDF75EFD49E3DB
:1041B000FDF762FFFCF7C4FCF8B12846FEF7BDFB33
:1041C0005C49887103205A490870002067490870CB
:1041D0006749087067480021018067480180817045
:1041E0006648006835F03EFE00205F49086056488A
:1041F00001782846FDF739FD02E00E204C49087091
:1042000020E3FDF78AFF0320494908700020574941
:1042100008705749087057480021018056480180AE
:1042200081705648006835F01DFE00204E49086038
:10423000454801782846FDF718FD03E300220221D6
:104240000846FEF731F9FDF791FF4D4800886421DB
:1042500090FBF1F0C7B24A48008890FBF1F201FBF5
:10426000120000F0FF083A46012140460BF07EFCA8
:104270000690069801285AD13B480068FEF7ACFE2C
:104280003748006860B13F4801780078401C3D4BDA
:1042900018700223384A3448006813F0C0F910E05F
:1042A000384801780078401C364B18700023324A99
:1042B0002D48006813F0B3F92B48006880B21AF05B
:1042C000C2FE2F480088642190FBF1F000F0FF0A45
:1042D0002B48008890FBF1F201FB120000F0FF0B6D
:1042E00052460221584618F008FCC7B2FCF728FCD9
:1042F000049023480088642190FBF1F201FB120036
:1043000000F0FF081E48008890FBF1F000F0FF0964
:104310001548049A016800238DE886004246494604
:10432000184615F09BFA0B2001490870A1E02BE01C
:104330001B000010540900100D0A204170704B65DD
:1043400079323D2564000000390000100D0A20413B
:1043500070704B6579313D256400000098070010AE
:104360002C000010D00600103400001019000010BE
:104370001A00001017000010140000109400001024
:104380003000001038000010FD48006828B1FDA082
:1043900013F05CFD02201AF011FEFF4890F82F0088
:1043A000012804D0FC4890F82F0003282CD1FB48AA
:1043B0000088642190FBF1F000F0FF0AF7480088C4
:1043C00090FBF1F201FB1200C7B2524602213846BF
:1043D00018F093FB00F0FF08FCF7B2FB8346EF48B0
:1043E0000088642190FBF1F201FB120000F0FF094C
:1043F000EB48016800234A46CDE901B8009101214C
:10440000992015F02BFA31E0E4480088642190FBF4
:10441000F1F000F0FF0AE148008890FBF1F201FBA7
:10442000120000F0FF0B52460221584618F065FBBF
:10443000C7B2FCF785FB0490D8480088642190FB44
:10444000F1F201FB120000F0FF08D448008890FB55
:10445000F1F000F0FF09D248049A016800238DE8CA
:10446000860042464946022015F0F8F90C20CD4955
:1044700008700020CA490860E4E1FDF7D5FECA488B
:10448000007801283CD1FCF75BFBC0B30320C54991
:10449000087001252846FEF750FAC4498871C148C2
:1044A000007803283BD1C2480068C24909688842A5
:1044B00004D2002201210846FDF7F6FF0020BE4984
:1044C0000870BE490870BE4800210180BD480180C7
:1044D0008170BD48006835F0C5FC32F025FDBB4851
:1044E00001782846FDF7C1FBFCF72AFB074616F0CA
:1044F00000F805A9002016F0C2F907900FE0FFE7C9
:10450000FCF71EFB40B1B14801782846FDF7ADFB32
:104510000D20A449087002E00E20A249087091E124
:10452000FDF7AAFEFCF70CFB68B303209D49087059
:1045300001252846FEF701FA9C49887199480078C0
:10454000032820D19A4800689A490968884204D211
:10455000002201210846FDF7A7FF002096490870B8
:104560009649087096480021018096480180817024
:104570009548006835F076FC32F0D6FC9348017817
:104580002846FDF772FB5DE1FDF79FFEFEF7D8FBC5
:1045900006461EB13046FDF7EFFE01E0FDF7C5FE11
:1045A0000E20804908704DE1FDF74BFFFCF7B4FA8F
:1045B00000250020864908707849088083490870E2
:1045C0007A490871012211461046FDF76DFF00205F
:1045D00080490870FDF7E0FF01200EF0E4FD7E4900
:1045E000086013F0C6FA6C4890F89800012803D1CF
:1045F00015F060FE03E029E1012015F047FE32F0DE
:1046000093FC0020674908701CE16848807820B955
:104610001E2066498870FCF722F96448C07818BBF0
:1046200005206249C87012F023FC012011F09EFEA3
:1046300012F0AEFC98B900205C49887032F074FC2E
:10464000012211461046FDF72FFF642035F04AFE87
:1046500014F0CBFDFDF7A0FF002052490870FCF7D5
:104660006FFA074613F06CFE33F02BFE10B11320E7
:104670004C490870FEF77FF90446012C15D112F061
:10468000D4FB32F051FC514801782846FDF7EDFA91
:10469000FCF756FA07460146AFF2847013F070FB40
:1046A00012F06AFF10203F490870CBE0FEF763F973
:1046B0000446012C0CD1454801782846FDF7D5FA6F
:1046C000FCF73EFA07460146AFF2B47013F058FB10
:1046D00012F082FB50B12A48006838B9002202214A
:1046E0000846FDF7E1FE11202E490870022C02D188
:1046F00012202C490870FCF723FA074613F020FE1D
:10470000A0E0FDF7E2FDFEF71BFB06461EB13046BA
:10471000FDF732FE01E0FDF708FE12202149087086
:1047200090E0FDF78EFEFCF7F7F900250020284900
:1047300008701A49088032F0F7FB00220121084670
:10474000FDF7B2FE13F015FAFDF726FF0F2015490D
:10475000087077E0002015F099FD0F4890F82F00C1
:1047600010B1012012F034FE00BFFCF7E9F9074652
:1047700013F0E6FD002008F08DFC33F0A2FD2DE0E3
:104780002C0000100D0A2041707043487568756F49
:104790004661696C00000000D00600103000001077
:1047A000340000101B00001098070010540900107E
:1047B000240000103C000010190000101A00001026
:1047C00017000010140000109400001039000010B1
:1047D000380000101C000010400000100028C4D158
:1047E0001B49887032F0A0FB012211461046FDF7EC
:1047F0005BFE002017490870FDF7CEFE164890F8C2
:104800002F0058B10023009301931A461946052042
:10481000029313F0E5FC002012F0DAFD01200EF007
:10482000C2FC0E4908600C4890F89800012802D19B
:1048300015F040FD02E0012015F028FD0020084998
:10484000087000BF00BF022035F04CFDFFF7D9BA59
:10485000540900101C000010D00600104000001089
:104860001B000010F0B585B000260027FAA103C98F
:10487000CDE9010132F058FBF9A031F001FEB8E0BA
:104880000F23EF220021084633F0AFFA0323EF2273
:104890000021084633F0A9FAF7488078F74951F823
:1048A0002030F5480093837800220121082033F05E
:1048B00000F9F1488178F148143050F82130EE4881
:1048C0000093837800220621302033F0F2F80E2383
:1048D000EE220D21012032F061FBE7488178E748A4
:1048E0003C3050F82130E4480093837800220D21B9
:1048F0001C2033F0DEF87BE0002700240AE034219E
:1049000001EB0411C8B20023DDA2092132F070FBD3
:10491000601CC4B2082CF2DB69E033F09AFC054657
:10492000F5B3432D02D1002005B0F0BD03A8855595
:1049300031013431C8B20023D2A2092132F058FB30
:10494000701CC6B2082E4FD100260127002408E0B3
:1049500003A8005D01A9095D884200D00027601C02
:10496000C4B2082CF4DB012F01D10120DCE70E23B7
:10497000EE220D21012032F011FBBF488178BF48A3
:10498000283050F82130BC480093837800220D2154
:10499000302033F08EF84FF4C87035F0A3FC00E0FF
:1049A00022E00E23EE220D21012032F0F7FAB24868
:1049B0008178B2483C3050F82130AF48009383787A
:1049C00000220D21302033F074F800240AE0342155
:1049D00001EB0411C8B20023A9A2092132F008FB9F
:1049E000601CC4B2082CF2DB052035F07BFC94E798
:1049F00082E745E738B532F097FA0F23EF2200211E
:104A0000084633F0F2F90323EF220021084633F081
:104A1000ECF94CE00E23EE220421012032F0BEFA24
:104A200095488078984951F82030934800938378CE
:104A300000220121082033F03CF88F488178924809
:104A4000143050F821308C480093837800220721DD
:104A50003C2033F02EF8884881788B48283050F875
:104A6000213085480093837800220B21282033F0E1
:104A700020F88148817884483C3050F821307E48C5
:104A80000093837800220B218C2033F012F80DE084
:104A900033F0DFFB0446432C01D1002038BD452C08
:104AA00001D10120FAE70A2035F01CFCF0E7B1E75C
:104AB00070B50026704890F82200022873D1734820
:104AC000406F7249B1F8C010484370498A6FB1F81D
:104AD000C21002FB01016D48C26FB0F8C40002FBB6
:104AE00000116A48D0F88020B0F8C60002FB00111F
:104AF0006648D0F88420B0F8C80002FB0011634873
:104B0000D0F88820B0F8CA0002FB00115F48D0F846
:104B10008C20B0F8CC0002FB00115C48D0F890204B
:104B2000B0F8CE0002FB00115848D0F89420B0F83D
:104B3000D00002FB00115548D0F89820B0F8D20000
:104B400002FB00115148D0F89C20B0F8D40002FBC1
:104B500000114E48D0F8A020B0F8D60002FB00119A
:104B60004A48D0F8A420B0F8D80002FB001147480A
:104B7000D0F8A820B0F8DA0002FB00114348D0F8C2
:104B8000AC20B0F8DC0002FB00114048D0F8B020A7
:104B9000B0F8DE0002FB0015374890F82500022827
:104BA00012D100240EE018E0394850F8240038B142
:104BB000374850F824101C3030F8140001FB005521
:104BC000601CC4B2072CEFDB2B48D0F8C000A84211
:104BD00001D901260FE000260DE0274890F82200B9
:104BE000012803D112F0BCFA064604E0224890F8EE
:104BF000220000B90026304670BD70B5044600257D
:104C00001D4890F82F00022817D1012C0BD112F06B
:104C1000BCF9054612F0B9F90646024629461DA020
:104C200013F0BEF909E0022C07D1204890F8BC50DF
:104C300090F8BC101EA013F0B3F9284670BD0146D1
:104C4000012902D0022949D142E00B4880781F4A4D
:104C500052F8200070470000383337313835353787
:104C6000456E74657253656C66436865636B467523
:104C70006374696F6E0D0A00D0060010D00C04003A
:104C80005F0000002A000000200D04001C08001036
:104C9000280900100D0A204170702050434572729F
:104CA0006F725363616C653D2564000068090010F4
:104CB0000D0A204170702050434572726F724F662A
:104CC000664C696E653D2564000000009416040082
:104CD000FF488278FF4850F822007047FC488278ED
:104CE000FC48143050F82200F7E700B58BB00020E4
:104CF0000A900320099032F017F90F23EF220021C8
:104D0000084633F072F80323EF220021084633F0FF
:104D10006CF8E5E30E23EE220421012032F03EF987
:104D2000032009900A980A287ED2DFE800F005D512
:104D3000FEFDFCFBFAF9F8F70123E5488178E64827
:104D400050F82120E5A1E2488DE80E008078034666
:104D5000002201210790082032F0ABFEDC4890F8D9
:104D6000230002287ED1DF488078A0B1D84881781E
:104D7000D948143050F82130D548009380780790F6
:104D80000998801CC0B209900690002201460520B7
:104D9000079B32F08EFED348C078A0B1CC48817812
:104DA000CD48283050F82130C948009380780790CA
:104DB0000998801CC0B20990069000220146052087
:104DC000079B32F076FEC7480079A0B1C0488178D1
:104DD000C1483C3050F82130BD480093807807909E
:104DE0000998801CC0B20990069000220146052057
:104DF000079B32F05EFEBB484079A0B1B448817891
:104E0000B548503050F82130B14800938078079071
:104E10000998801CC0B20990069000220146052026
:104E2000079B32F046FE00E0A4E2AE488079A0B1D4
:104E3000A7488178A848643050F82130A4480093EE
:104E4000807807900998801CC0B2099006900022D3
:104E500001460520079B32F02CFEA248807808B955
:104E6000A04800E019E0C078B8B99E480079A0B920
:104E70009C48407988B99B48807970B9944881787A
:104E8000994850F8213092480093807803460022D8
:104E900007210790052032F00CFE8D4880788E495E
:104EA000283951F8200006903AF076FAC000C0F197
:104EB000E700C0B20790864881788748283850F8C4
:104EC0002130834800938078034600220D2106900C
:104ED000079832F0EEFD4DE202237D4881787E484E
:104EE00050F821207DA17A488DE80E008078034695
:104EF000002201210790082032F0DBFD744890F871
:104F0000230002287ED17748C079E8B170488178C3
:104F10007148783050F821306D4807E0FEE3FEE339
:104F2000FEE3ABE3FAE226E26DE191E000938078E4
:104F300007900998801CC0B2099006900022014693
:104F40000520079B32F0B5FD6648007AA0B16048A5
:104F5000817861488C3050F821305D48009380782A
:104F600007900998801CC0B2099006900022014663
:104F70000520079B32F09DFD5A48407AA0B1544865
:104F800081785548A03050F82130514800938078FE
:104F900007900998801CC0B2099006900022014633
:104FA0000520079B32F085FDFFF782FDA0B1484840
:104FB00081784948B43050F82130454800938078D2
:104FC00007900998801CC0B2099006900022014603
:104FD0000520079B32F06DFD4248C07990B94148E9
:104FE000007A78B93F48407A60B9FFF761FD48B967
:104FF000374881783C4850F8213035480093807814
:10500000034600E005E0002207210790052032F06A
:1050100050FD2F4881783048143850F82100069010
:105020003AF0BAF9C000C0F1E700C0B207902848D2
:1050300081782948143850F8213025480093807829
:10504000034600220D210690079832F032FD91E1CF
:1050500001231F4881782048C83050F821201FA123
:105060001B488DE80E00807803460022012107903E
:10507000082032F01EFD164890F8210002287ED14B
:105080001848807AA0B1124881781348DC3050F873
:1050900021300F480093807807900998801CC0B297
:1050A00009900690002201460520079B32F001FD81
:1050B0000C48C07A18B3064881780748F03050F899
:1050C000213003480093807807900998801C0DE0F8
:1050D000D0060010A8160400380E040025732D25F4
:1050E0006400000060480010D0110400C0B20990B4
:1050F0000690002201460520079B32F0DAFCF948B1
:10510000007B98B1F8488178F84850F82130F6488B
:105110000093807807900998801CC0B2099006908F
:10512000002201460520079B32F0C3FCED48407B7E
:10513000A0B1ED488178ED48143050F82130EA48AC
:105140000093807807900998801CC0B2099006905F
:10515000002201460520079B32F0ABFCE148807B32
:10516000B0B1E1488178E148283050F82130DE487C
:105170000093807807900998801CC0B200E025E079
:1051800009900690002201460520079B32F091FC11
:10519000D448807AD0B9D348C07AB8B9D148007B16
:1051A000A0B9D048407B88B9CE48807B70B9CE4842
:1051B0008178CF4850F82130CB480093807803465F
:1051C000002207210790052032F073FCC648817841
:1051D000C84850F8210006903AF0DEF8C000C0F14F
:1051E000E700C0B20790C0488178C24850F821302B
:1051F000BD4800938078034600220D210690079851
:1052000032F057FCB6E00223B7488178B7483C3803
:1052100050F82120AFF23C11B3488DE80E008078A1
:105220000346002201210790082032F042FCAE48DC
:1052300090F8210002287ED1AA48C07BA0B1AA48DC
:105240008178AA483C3050F82130A74800938078F4
:1052500007900998801CC0B2099006900022014670
:105260000520079B32F025FC9E48007CA0B19E489B
:1052700081789E48503050F821309B4800938078C8
:1052800007900998801CC0B2099006900022014640
:105290000520079B32F00DFC9248407CA0B192485B
:1052A00081789248643050F821308F48009380789C
:1052B00007900998801CC0B2099006900022014610
:1052C0000520079B32F0F5FB8648807CC8B18548F5
:1052D000C37C827C844881788448783050F82110DF
:1052E00085A08DE80F008048807807900998801C81
:1052F000C0B209900690002201460520079B32F0BB
:10530000D8FB7848C07BB0B97648007C98B975481E
:10531000407C80B97348807C68B973488178744850
:1053200050F821307048009380780346002207210E
:105330000790052000E001E032F0BBFB6A4881786D
:105340006C4850F8210006903AF026F8C000C0F1F1
:10535000E700C0B2079064488178664850F8213071
:10536000614800938078034600220D21069007983B
:1053700032F09FFB51E25C4881785C488C3050F8F9
:10538000213059480093807803460022012107907C
:10539000082032F08EFB544890F8220001287ED17C
:1053A0005048007DF8B14F48007D0690FFF747FC5C
:1053B00007905648C37D4C4881784C48A03050F83F
:1053C000211053A0079A8DE80F0047488078069077
:1053D0000998801CC0B20990059000220146052062
:1053E000069B32F066FB3F48407DF8B13D48407D6A
:1053F0000690FFF724FC07904448037E3A488178E2
:105400003A48B43050F8211041A0079A8DE80F00B7
:105410003548807806900998801CC0B209900590A4
:10542000002201460520069B32F043FB2D48807D7B
:10543000F8B12C48807D0690FFF701FC07903348B7
:10544000437E294881782948C83050F8211030A07F
:10545000079A8DE80F002448807806900998801CF0
:10546000C0B209900590002201460520069B32F04B
:1054700020FB1C48007D90B91A48407D78B9194836
:10548000807D60B918488178194850F82130164855
:1054900000938078034600220721079000E002E095
:1054A000052032F006FB10488178124850F82100A0
:1054B000069039F071FFC000C0F1E700C0B207905C
:1054C000094881780B4850F82130074800938078CC
:1054D000034600220D210690079832F0EAFAB1E364
:1054E000D5E3000060480010D00600103C0F040017
:1054F000D0110400240E040025735B25233032787C
:105500005D5B25233032785D0000000034480010D8
:10551000257325735B25233032785D000123FF4816
:105520008178FF4850F82120AFF25041FB488DE8C8
:105530000E0080780346002201210790082032F0F7
:10554000B8FAF64890F82D0001282FD1F548807E52
:10555000A0B1F2488178F248143050F82130EF4879
:105560000093807807900998801CC0B2099006903B
:10557000002201460520079B32F09BFAE948C07ED5
:10558000A0B1E6488178E648283050F82130E34859
:105590000093807807900998801CC0B2099006900B
:1055A000002201460520079B32F083FADD48007F88
:1055B000A0B1DA488178DA483C3050F82130D74839
:1055C0000093807807900998801CC0B209900690DB
:1055D000002201460520079B32F06BFAD148407F3C
:1055E000A0B1CE488178CE48503050F82130CB4819
:1055F0000093807807900998801CC0B209900690AB
:10560000002201460520079B32F053FAC548807EF0
:10561000B8B9C448C07EA0B9C248007F88B9C148A3
:10562000407F70B9BD488178BF4850F82130BB48F1
:10563000009380780346002207210790052032F06E
:1056400038FAB6488178B94850F82100069039F008
:10565000A3FEC000C0F1E700C0B20790AF48817858
:10566000B24850F82130AD480093807803460022BC
:105670000D210690079832F01CFAE3E20223A748B6
:105680008178A74850F82120AFF2B051A3488DE8A7
:105690000E0080780346002201210790082032F096
:1056A00008FAA048807FA0B19C4881789C4864306B
:1056B00050F8213099480093807807900998801C11
:1056C000C0B209900690002201460520079B32F0E7
:1056D000F0F99448C07FA0B1904881789048783024
:1056E00050F821308D480093807807900998801CED
:1056F000C0B209900690002201460520079B32F0B7
:10570000D8F9884890F82000C0B18448817884484E
:105710008C3050F821308148009302E011E258E1CA
:105720007CE0807807900998801CC0B209900690B0
:10573000002201460520079B32F0BBF9794890F81A
:105740002100A0B1754881787548A03050F821300B
:1057500072480093807807900998801CC0B2099025
:105760000690002201460520079B32F0A2F96D4801
:1057700090F82200A0B1694881786948B43050F8A7
:10578000213066480093807807900998801CC0B249
:1057900009900690002201460520079B32F089F906
:1057A0006048807FE8B95F48C07FD0B95D4890F815
:1057B0002000B0B95B4890F8210090B9594890F8A2
:1057C000220070B955488178574850F82130534825
:1057D000009380780346002207210790052032F0CD
:1057E00068F94E488178514850F82100069039F008
:1057F000D3FDC000C0F1E700C0B2079047488178F0
:105800004A4850F8213045480093807803460022EA
:105810000D210690079832F04CF913E203233F481C
:1058200081783F4850F82120AFF250713B488DE815
:105830000E0080780346002201210790082032F0F4
:1058400038F9384890F82300A0B1344881783448BA
:10585000C83050F82130314800938078079009987B
:10586000801CC0B209900690002201460520079BCB
:1058700032F01FF92B4890F82400A0B12748817816
:105880002748DC3050F82130244800938078079076
:105890000998801CC0B2099006900022014605209C
:1058A000079B32F006F91F4890F82500A0B11B486D
:1058B00081781D48C83850F8213018480093807806
:1058C00007900998801CC0B20990069000220146FA
:1058D0000520079B32F0EDF8124890F82600A0B1A1
:1058E0000E4881781048B43850F821300B480093A6
:1058F000807807900998801CC0B209900690002219
:1059000001460520079B32F0D4F8064890F827009E
:10591000F8B1024881780448A03809E0D0060010A8
:105920001810040060480010D0110400240E040078
:1059300050F82130FF480093807807900998801C28
:10594000C0B209900690002201460520079B32F064
:10595000B0F8F94890F82300F0B9F74890F824001F
:10596000D0B9F54890F82500B0B9F34890F8260072
:1059700090B9F14890F8270070B9EE488178EF4867
:1059800050F82130EB48009380780346002207212D
:105990000790052032F08DF8E6488178E84850F805
:1059A0002100069039F0F8FCC000C0F1E700C0B259
:1059B0000790E0488178E24850F82130DD480093B4
:1059C0008078034600220D210690079832F071F886
:1059D00038E10423D7488178DA4850F82120AFF61F
:1059E0000411D4488DE80E0080780346002201217E
:1059F0000790082032F05DF8CF4890F82800A0B159
:105A0000CC488178CD488C3850F82130C948009373
:105A1000807807900998801CC0B2099006900022F7
:105A200001460520079B32F044F8C34890F829004E
:105A3000A0B1C0488178C148783850F82130BD48BD
:105A40000093807807900998801CC0B20990069056
:105A5000002201460520079B32F02BF8B64890F84B
:105A60002A00A0B1B3488178B448643850F8213096
:105A7000B0480093807807900998801CC0B20990C4
:105A80000690002201460520079B32F012F8AA4832
:105A900090F82B00A0B1A7488178A848503850F85A
:105AA0002130A4480093807807900998801CC0B2E8
:105AB00009900690002201460520079B31F0F9FF6E
:105AC0009D4890F82800F8B99B4890F82900D8B96B
:105AD000994890F82A00B8B9974890F82B0098B9DF
