:020000040000FA
:1000000000800010CD00000049B1030049B1030099
:1000100049B1030049B1030049B1030049B10300EC
:1000200049B1030049B1030049B103008502000052
:1000300049B1030000000000ED020000A98E03009A
:1000400049B10300AB860300818603006F8603007D
:100050005D860300ED610300BD6303009D5E030048
:10006000BD65030049B10300C168030049B1030045
:1000700049B1030049B1030049B1030049B103008C
:1000800049B1030049B1030049B1030049B103007C
:100090004F80030049B1030049B1030049B1030097
:1000A00049B1030049B1030049B1030049B103005C
:1000B00049B1030049B1030049B1030049B103004C
:1000C00049B1030049B1030049B1030000F002F84F
:1000D00000F0C8F80AA090E8000C82448344AAF11A
:1000E0000107DA4501D100F0BDF8AFF2090EBAE818
:1000F0000F0013F0010F18BFFB1A43F0010318475C
:10010000002C0500402C050010F8013B0A4413F0B8
:10011000030408BF10F8014B1D1108BF10F8015B64
:10012000641E05D010F8016B641E01F8016BF9D153
:10013000002D15D010F8014B03F00C030C2BA1EB94
:1001400004040ABF10F8013BA4EB8314A4EB0324BE
:1001500005F1010314F8016B5B1E01F8016BF9D581
:10016000914238BF10F8013BD1D37047103A24BFF9
:1001700078C878C1FAD8520724BF30C830C144BF0C
:1001800004680C607047000000230024002500264E
:10019000103A28BF78C1FBD8520728BF30C148BFEA
:1001A0000B6070476E293FF05F8370293EF04687F1
:1001B000662900F0D6A4652900F0D3A4672900F0D1
:1001C000D0A46129AFF3008003681B0A28BF41F067
:1001D000800169293EF0B68664293EF0B386752910
:1001E0003EF0B0866F293FF0518478293EF01287A7
:1001F000E9293FF0E983E4293FF0E683F5293FF060
:10020000E383EF293FF04E84F8293EF0118703681D
:10021000DB0928BF41F0800163293FF06A8373291D
:100220003FF06F83E3293FF0C286F3293FF0C78692
:10023000002070471FB540F08DFC9DE803003FF0A3
:1002400071FA3FF03BFF04000020002140F068FC01
:10025000401C60600020002140F04CFCE0601FBDAD
:1002600010B510BD3FF0FCFE1146FFF7E3FF00F0B4
:100270002CF93FF0DDFF03B4FFF7F2FF03BC3BF0C6
:10028000A4FB0000052828BF70474FEA800078448F
:10029000D0F802F0ED020000B302000051030000AC
:1002A00071030000910300004FF0010080F31488F7
:1002B00000DF0A4C4FF00105257077463EF04EFDF9
:1002C000BE46074E3668074C2660D6F800D001BC03
:1002D00005490860BDE8F00F704700BF7F060010B9
:1002E0009006001088060010540600104FF0080217
:1002F00082F3118800B53EF031FD5DF804EB2DE985
:10030000F00F0E49086801B40D4A1268C2F800D017
:100310000C4C0D4D2E7826700C4E3668084C26601D
:10032000D6F800D001BC086000280CBF00220822CB
:1003300082F31188BDE8F00F704700BF540600102B
:100340008806001074060010750600109006001054
:100350000649086800F101004FF0080282F3118895
:10036000002808BF70470860704700BF540600109F
:100370000649086800281CBF01380860002818BF1B
:1003800070474FF0000282F3118870475406001046
:100390004FF0000080F3148870474FF0010080F3A5
:1003A0001488704788476FF0FF003AF016F9000094
:1003B0001CB5544890F82B200121182037F0C0FCC0
:1003C0000C230222CDE900234FA30E21282037F071
:1003D00090FB1CBD08B500BF37F073FE35F054FF2D
:1003E00036F03AF835F0F5FD36F036F938F0B8FA6F
:1003F00036F023FD4849002038F02CFA36F0EEF9AB
:1004000038F02CFB37F05DFE00200EF05DFA002086
:100410000EF036F8FFF7CCFF36F01EF80CF0FEFFBA
:1004200006233E4A00213E483AF036F8022039F0D1
:10043000CDFE3EF08DFB16F0E5FB022039F0C6FE46
:1004400016F008FA022039F0C1FE1EF07AFB1EF009
:100450001FFC022039F0BAFE1CF031FA6A46002176
:10046000304800683AF006FB0FF005F817F0B0FBD3
:1004700084212D483FF016F8022039F0A7FE092309
:100480002A4A00212A483AF007F8022039F09EFE55
:100490001AF0BEF9022039F099FE0823254A0021FE
:1004A000254839F0F9FF022039F090FE19F088FC58
:1004B000C82039F08BFE07E0002003F061FC02E069
:1004C000322039F083FEFBE7F6E700B585B03AF05D
:1004D00040FE3AF0FDFD38F03AFE012300221902F9
:1004E0001648CDE90323CDE901010723144A002171
:1004F000AFF21F1000933AF017F838F0EBFE00202F
:1005000005B000BDCC06001076657273696F6E256C
:10051000642E25303264000080A90300C032001030
:10052000614602007C000010340A0010C046001032
:100530007D540300C0420010159A0200C40A001046
:10054000C02A0010F8B505460E4614461F460A217B
:10055000002037F0ABFB022301220B21002037F0F3
:1005600073FBFF480095837800220B21282037F089
:1005700014FAFB488078012807D0F9480096837860
:1005800000220D21282037F008FA20463EF078FEA0
:10059000C8B1022301220B21702037F055FBF0482F
:1005A0000094837800220B21982037F0F6F9EC486C
:1005B0008078012807D0EA480097837800220D212F
:1005C000982037F0EAF9F8BD10B501220A21002081
:1005D00037F018F903220B21002037F013F910BD72
:1005E00030B58BB0202103A83EF05CFFDD4836F02B
:1005F00014F9022039F0EAFDDB480078F0B3D9485D
:1006000036F00BF9022039F0E1FD0223042201212A
:10061000002037F019FBD548D0F8AC1003A83EF005
:100620000BFE03AB02220121282037F062FACF48EB
:10063000D0F8B41003A83EF0FFFD03AB0122032164
:10064000282037F056FAC6488078C0EBC00202EB8B
:100650000010C64A02EB8000816D03A83EF0ECFD5D
:1006600003ABBF480093837800220521282037F090
:1006700094F9BB4890F8BC00012800E074E019D15F
:10068000BB4880890A2190FBF1F201FB1204B848B3
:10069000808990FBF1F523462A46B6A103A83EF0D7
:1006A000CDFB03ABAE4800938378002207212820BE
:1006B00037F073F90A21002037F0F8FAAF48C08804
:1006C000A849C98888420BD1AC484079A5494979E5
:1006D000884205D1A948C078A249C978884222D069
:1006E000A048C288A6A103A83EF0A8FB03AB022243
:1006F0000B21282037F0FDF99A48C3784279A2A14E
:1007000003A83EF09BFB03AB02220D21282037F00B
:10071000F0F99448C0889949C88092484079487156
:100720009048C078C870954880788E49897888420A
:1007300005D1924840788B494978884213D089483E
:100740004378827893A103A83EF078FB03AB0322A1
:100750000B21602037F0CDF9824880788749887076
:1007600080484078487078E07D48807800EB8000D1
:100770008B4A02EBC000816903A83EF05DFD03AB2C
:1007800077480093837800220221482037F005F94A
:10079000734890F8BC00012819D1754880890A2156
:1007A00090FBF1F201FB12047148808990FBF1F596
:1007B00023462A466FA103A83EF040FB03AB6848DE
:1007C0000093837800220521AA2037F0E6F86B48D1
:1007D000C0886449C98888420BD16848407961491A
:1007E0004979884205D16548C0785E49C978884210
:1007F00015D05C48C3784279C1888DE80E0069A3A2
:1008000002220621502037F074F95648C0885B490F
:10081000C8805448407948715248C078C8705748D9
:10082000807850498978884205D1544840784D49AC
:100830004978884211D04B4843788278CDE900232B
:1008400054A3042208213C2037F053F9454880780E
:100850004A4988704348407848700BB030BD30B585
:1008600089B0202101A83EF01DFE3E4835F0D5FF9D
:10087000022039F0ABFC022303220121002037F0D3
:10088000E3F937488078C0EBC00202EB0010374A2A
:1008900002EB8000C16C01A83EF0CEFC01AB3048F9
:1008A0000093837800220121282037F076F82C4825
:1008B0008078C0EBC00202EB00102C4A52F82010E6
:1008C00001A83EF0B9FC01AB2548009383780022D3
:1008D0000321282037F061F8214890F8BC00012856
:1008E00019D1234880890A2190FBF1F201FB1204FF
:1008F0001F48808990FBF1F523462A461DA101A8D7
:100900003EF09CFA01AB1648009383780022052143
:10091000282037F042F80A21002037F0C7F917489D
:10092000C0881049C98888420BD1144840790D49C4
:100930004979884205D11148C0780A49C978884266
:100940004ED00848C2880EA101A83EF077FA01AB4C
:1009500002220B21282037F0CCF80248C37829E086
:10096000CC060010000000101C000010DC0100107C
:10097000D850001025642E25642092000800001035
:100980002530346400000000253032642D253032DB
:1009900064000000253032643A25303264000000E3
:1009A00014010010253034642D253032642D25309B
:1009B000326400004279AFF2300101A83EF03EFA05
:1009C00001AB02220D21282037F093F8FF48C088A0
:1009D000FF49C880FD4840794871FC48C078C8701C
:1009E000FB488078F9498978884205D1F8484078F1
:1009F000F6494978884214D0F44843788278AFF2B7
:100A00006C0101A83EF01AFA01AB03220B21602011
:100A100037F06FF8ED488078ED498870EB48407802
:100A2000487009B030BD10B50246012904D0E94B29
:100A300093F89930012B2CD11378412B0BD153789B
:100A4000303B03EB8303642404EB43049378303B93
:100A5000234498B228E01378422B0BD15378303BD3
:100A600003EB8303C82404EB43049378303B234413
:100A700098B219E01378303B642463435478303CD7
:100A800004EB840403EB44049378303B234498B292
:100A90000AE01378303B03EB8303642404EB430444
:100AA0005378303B234498B210BD30B502460B78E2
:100AB000303B4FF47A7463434C78303C04EBC4050C
:100AC00005EB041403EB84041378303B03EB83033E
:100AD00004EB43045378303B234498B230BD0EB549
:100AE00036F096F9B948C3784279C1888DE80E008E
:100AF000AFF2501302221146502036F0FAFFB348ED
:100B000043788278CDE90023AFF2781304221146AE
:100B10003C2036F0EEFF0EBD10B50020AE49087047
:100B2000AE490870AE4800210180AE480180817056
:100B30000020AD498870AD48006839F007F910BD54
:100B4000AB480068AB4909680844AB4909680844E8
:100B5000AA490968084470472DE9F04F95B0064648
:100B6000884620210DA83EF09DFC202105A83EF0DE
:100B700099FC4FF000090020049000240025002774
:100B800098F8000002281DD13078432802D0307830
:100B9000452817D100209049087092480021018013
:100BA0008170FFF7CDFF18B103209549087006E06A
:100BB000FFF7B2FFFFF708FD00209149087015B05C
:100BC000BDE8F08F98F8000002286FD13178824894
:100BD00002780078401C804B1870824881547D4810
:100BE000807800EB8000874A52F830100DA83EF064
:100BF00023FB784890F83100012813D17948007818
:100C00002E2803D141207749087006E07548007806
:100C1000442802D142207349087072490DA83EF061
:100C200094FB03E06F490DA83EF08FFB7548816A85
:100C300005A83EF001FB6B4905A83EF086FBAFF22C
:100C4000BC23AFF2C02205A90DA8FFF77BFC6148C9
:100C500090F83100012804D05E4890F899000128EE
:100C600077D15D48007803281FDB5A4890F831009F
:100C7000E8B95C4800782E2813D05A4800784428F8
:100C80000FD0584840782E280BD05648407844283A
:100C900007D0544880782E2803D0524880784428C2
:100CA00005D14FF00509012004904BE257E14D4872
:100CB00040782E280BD04B484078442807D049482C
:100CC00080782E2803D047488078442804D14FF0FC
:100CD00005090120049035E23E4890F83110414862
:100CE000FFF7A1FE0446642094FBF0F000F0FF0A39
:100CF000642094FBF0F100FB114000F0FF0B514623
:100D000058461BF0D4FE00F0FF09324890F82F003F
:100D1000022827D1642094FBF0F000F0FF0A642041
:100D200094FBF0F100FB114000F0FF0B52465946D6
:100D3000012018F0D8FC002027490870294800211C
:100D400001808170FFF7FCFE20B103202C49087060
:100D500007E064E0FFF7E0FEFFF736FC00202849DB
:100D600008702CE71B4890F82F00042854D1642009
:100D700094FBF0F100FB114000F0FF0A642094FBAB
:100D8000F0F000F0FF0B514658461CF075FC07468A
:100D90006FB1642094FBF0F000F0FF0A3946504632
:100DA0001CF0FAFD012802D0384618F0DEFF0020C2
:100DB000094908700B48002101808170FFF7C0FECF
:100DC00018B103200E49087025E01DE00000001056
:100DD00008000010CC060010190000101A000010C6
:100DE00017000010140000105009001094000010AB
:100DF0002000001024000010280000102C0000101B
:100E00001B00001014010010FFF786FEFFF7DCFB4B
:100E10000020FD490870D2E60120049092E1FB48D1
:100E20000078022813DBFA4800782E280BD0F84807
:100E30000078442807D0F64840782E2803D0F4489C
:100E40004078442804D14FF005090120049079E14D
:100E5000F04890F83110EE48FFF7E5FD04466420B5
:100E600094FBF0F000F0FF0A642094FBF0F100FB2B
:100E7000114000F0FF0B514658461BF018FE00F0E1
:100E8000FF092146E4A017F06FF8E24890F82F0020
:100E9000022826D1642094FBF0F000F0FF0A6420C1
:100EA00094FBF0F100FB114000F0FF0B5246594655
:100EB000012018F018FC0020D4490870D448002103
:100EC00001808170FFF73CFE18B10320CE49087005
:100ED00006E0FFF721FEFFF777FB0020CA49087004
:100EE0006DE6CC4890F82F00042835D1642094FB9F
:100EF000F0F100FB114000F0FF0A642094FBF0F0D9
:100F000000F0FF0B514658461CF0B6FB07466FB188
:100F1000642094FBF0F000F0FF0A394650461CF0C4
:100F20003BFD012802D0384618F01FFF0020B749CA
:100F30000870B748002101808170FFF701FE18B1E9
:100F40000320B149087006E0FFF7E6FDFFF73CFB20
:100F50000020AD49087032E601200490F2E098F8D4
:100F6000000001280AD13278012108461BF0C7FC95
:100F7000044624B94FF0020901200490E2E0A3489E
:100F80000078002804DD4FF0050901200490D9E025
:100F9000A04890F83100012823D141219B480278D4
:100FA0000078401C994B1870994881540A2094FB92
:100FB000F0F03030C2B2184601780078401C18704A
:100FC000934842540A2094FBF0F100FB114030306A
:100FD000C1B2184602780078401C18708C488154C1
:100FE0001AE00A2094FBF0F03030C1B28748027852
:100FF0000078401C854B1870854881540A2094FB6A
:10100000F0F100FB11403030C2B218460178007890
:10101000401C18707E4842547E48807800EB800067
:10102000834A52F830100DA83EF006F978490DA811
:101030003EF08BF97E48816A05A83EF0FDF87449C0
:1010400005A83EF082F9AFF2C463AFF2C86205A909
:101050000DA8FFF777FA6F4890F831106C48FFF74A
:10106000E2FC0446642094FBF0F000F0FF0A6420E8
:1010700094FBF0F100FB114000F0FF0B5146584685
:101080001BF015FD00F0FF09624890F82F000228C0
:1010900026D1642094FBF0F000F0FF0A642094FB5A
:1010A000F0F100FB114000F0FF0B524659460120C1
:1010B00018F019FB0020554908705548002101809F
:1010C0008170FFF73DFD18B103204F49087006E01D
:1010D000FFF722FDFFF778FA00204B4908706EE514
:1010E0004C4890F82F0004282AD1642094FBF0F19A
:1010F00000FB114000F0FF0A642094FBF0F000F0C8
:10110000FF0B514658461CF0B7FA074617B1384650
:1011100018F02BFE00203D4908703D480021018059
:101120008170FFF70DFD18B103203749087006E004
:10113000FFF7F2FCFFF748FA0020334908703EE55C
:1011400001200490049878B3B9F1060F34D2DFE897
:1011500009F0A97A0334047900BF2E48807800EBA7
:101160008000334A02EBC00041690DA83EF064F8EC
:101170002F48C16B05A83EF05FF8AFF2F873AFF2ED
:10118000FC7205A90DA8FFF7DDF94FF4C87039F01E
:101190001DF8FFF7D5FC40B11D480021018081708A
:1011A00003201949087007E04BE1FFF7B5FCFFF792
:1011B0000BFA0020144908703FE11648807800EBD4
:1011C00080001B4A02EBC00001690DA83EF034F814
:1011D0001748816B05A83EF02FF8AFF65803AFF61D
:1011E0005C0205A90DA8FFF7ADF94FF4C87038F0FF
:1011F000EDFFFFF7A5FCE8B10548002101808170F3
:101200000320014908701CE01B00001019000010A9
:1012100014000010CC0600100D0A204150505562F9
:101220006F7842746E636C6F756D6E3D256400005F
:1012300014010010FFF770FCFFF7C6F90020FB490E
:101240000870FAE000BFFA48807800EB8000F94AA5
:1012500002EBC00041680DA83DF0EEFFF548C16A01
:1012600005A83DF0E9FFAFF6E403AFF6E80205A9F3
:101270000DA8FFF767F94FF4C87038F0A7FFFFF724
:101280005FFC38B1EC480021018081700320E74900
:10129000087006E0FFF740FCFFF796F90020E349ED
:1012A0000870CAE0642094FBF0F000F0FF0A6420AC
:1012B00094FBF0F100FB114000F0FF0B52460121BE
:1012C00058461BF0FCFBDD49086008460568D84815
:1012D00090F82700A8B3012834D0022830D1642028
:1012E000B5FBF0F100FB115AB5FBF0FBD04880785C
:1012F00000EB8000CF4901EBC000C168CC48CDE9CC
:1013000001BA0091807800EB8000CA4901EBC0006F
:10131000C94BCBA1C2690DA83DF090FD6420B5FB7F
:10132000F0F100FB115AB5FBF0FBC248416BCDE96F
:1013300001BA0091C04BC2A1426C05A83DF07EFDF0
:101340005BE033E00A20B5FBF0F5B5FBF0F100FB04
:10135000115AB5FBF0FBB648807800EB8000B54928
:1013600001EBC000C168B248CDE901BA00918078B4
:1013700000EB8000AF4901EBC000AF4BB5A1C269E3
:101380000DA83DF05BFD0A20B5FBF0F100FB115A02
:10139000B5FBF0FBA748416BCDE901BA0091A64B24
:1013A000ACA1426C05A83DF049FD26E06420B5FBE8
:1013B000F0FA9F48807800EB80009E4901EBC00066
:1013C000C2689B48CDE9002A807800EB800001EBE1
:1013D000C000994BA3A1C2690DA83DF02FFD642068
:1013E000B5FBF0FA9348426BCDE9002A924B9DA1E0
:1013F000426C05A83DF022FD00BF00BFAFF67C2384
:10140000AFF6802205A90DA8FFF79CF8C82038F098
:10141000DDFEFFF795FB28B1954804800520834940
:10142000087009E0C82038F0D1FEFFF775FBFFF720
:10143000CBF800207D49087000BF00BF00208D4917
:10144000087000BF8DE42DE9F04F93B006462021CF
:101450000BA83EF027F8202103A83EF023F8002730
:10146000B846B94600240025307843281BD1002017
:1014700080490870804908706F48002101808170A0
:101480007E480180FFF75CFB18B1032067490870B4
:1014900006E0FFF741FBFFF797F80020634908706B
:1014A00013B0BDE8F08F74480078F0BB3078452861
:1014B00029D032786F4801780078401C6D4B187045
:1014C0006E4842545A48807800EB80006C4A02EB28
:1014D0000010816C0BA83DF0AFFE68490BA83DF0F1
:1014E00034FF6748D0F8981003A83DF0A5FE634983
:1014F00003A83DF02AFFAFF67433AFF6783203A9A4
:101500000BA8FFF71FF85B480078022857DB5B4801
:101510000078302839DB59480078392835DC5748BD
:101520004078302831DB554800E0C9E04078392860
:101530002BDC01205049087000204E4908703E48BD
:101540000021018081704D490BA83DF075FE38489F
:10155000807800EB80004A4A02EB0010C16C0BA8B7
:101560003DF0F3FE454903A83DF066FE4448D0F83F
:101570009C1003A83DF0E9FEAFF6F833AFF6FC325D
:1015800003A90BA8FEF7DEFFD2E10020394908705D
:10159000394908702848002101808170374801804E
:1015A000FFF7CEFA18B103202049087006E0FFF7D4
:1015B000B3FAFFF709F800201C49087070E730788B
:1015C000452832D12D48007830285FDB2B48007841
:1015D00039285BDC29480078284948703020087099
:1015E0000120254908700020224908701248002176
:1015F000018081700E48807800EB8000204901EB6B
:1016000000101E4A1FA1C36C0BA83DF017FC1C481C
:101610001A4A1CA1D0F89C3003A83DF00FFC1AA375
:1016200019A203A90BA8FEF78DFF81E11B00001092
:10163000CC0600101401001014000010340000103B
:1016400025732025732C2573253032642E253032E6
:101650006400000025732025732C257325642E2536
:101660006400000025732025732C25732564000079
:1016700030000010190000101A00001017000010B0
:10168000A803001025732573000000000020FC490A
:101690000870FC490870FC48002101808170FB48FB
:1016A0000180FFF74DFA18B10320F949087006E0F0
:1016B000FFF732FAFEF788FF0020F5490870EFE6E1
:1016C000F048007801287ED13078452835D031782F
:1016D000EB4802780078401CE94B1870EA488154C6
:1016E000EA4840783038E9490978303901EB81011E
:1016F00000EB410000F0FF09E34BE64800938078DF
:1017000000EB8000E44901EB00104A46E3A1C36C02
:101710000BA83DF093FBDC4BDF4800934A46DFA16A
:10172000D0F89C3003A83DF089FBAFF2A403AFF2E0
:10173000A80203A90BA8FEF705FFD14800780228EC
:1017400075DBD1480078302856DBCF48007839283F
:1017500052DCCD48407830284EDBCB4840783928E1
:101760004ADCCA49C848FFF7A0F90446642094FB44
:10177000F0F000F0FF0A642094FBF0F100FB114050
:1017800000F0FF0B514658461BF091F9C7B2C14813
:1017900090F82F0002282CD1642094FBF0F000F088
:1017A000FF0A642094FBF0F100FB114000F0FF0BF6
:1017B00052465946012017F096FF0020B0490870A4
:1017C000B049087000E08BE0AF48002101808170D3
:1017D000AE480180FFF7B4F918B10320AC49087096
:1017E00006E0FFF799F9FEF7EFFE0020A849087020
:1017F00056E64FF001089BE00020A1490870A1497E
:101800000870A148002101808170A0480180FFF785
:1018100097F918B103209E49087006E0FFF77CF99C
:10182000FEF7D2FE00209A49087039E6FFE73078CB
:1018300045287DD194480078302852DB92480078C2
:1018400039284EDC904800788F4948703020087065
:101850008E498D48FFF729F90446642094FBF0F087
:1018600000F0FF0A642094FBF0F100FB114000F04F
:10187000FF0B514658461BF01AF9C7B2854890F83D
:101880002F0002282AD1642094FBF0F000F0FF0A18
:10189000642094FBF0F100FB114000F0FF0B524676
:1018A0005946012017F01FFF00207549087075493F
:1018B0000870754800210180817074480180FFF72D
:1018C0003FF918B103207249087006E0FFF724F9C8
:1018D000FEF77AFE00206E490870E1E54FF001083E
:1018E00026E0002066490870674800210180817069
:1018F0006848807800EB8000674901EB0010634A7C
:10190000AFF28021C36C0BA83DF098FA62485F4AA1
:10191000AFF29021D0F89C3003A83DF08FFAAFF2DF
:101920009823AFF29C2203A90BA8FEF70BFEB7E5A4
:10193000B8F1000F73D0062F3AD2DFE807F0BD727E
:10194000033A047100BF5348807800EB8000554A89
:1019500002EBC00041690BA83DF06EFC5148C16B21
:1019600003A83DF069FCAFF2E023AFF2E42203A943
:101970000BA8FEF7E7FD4FF4C87038F027FCFFF71F
:10198000DFF870B100203E4908703E4908703F48BA
:10199000002101803C480180817003203C4908708F
:1019A00006E0FFF7B9F8FEF70FFE0020384908708F
:1019B00053E13848807800EB80003A4A02EBC000DF
:1019C00001690BA83DF038FC3648816B03A83DF057
:1019D00033FCAFF24C33AFF2503203A90BA8FEF741
:1019E000B1FD4FF4C87038F0F1FBFFF7A9F870B102
:1019F00000202349087023490870244800210180F1
:101A000021480180817003202149087006E0FFF71A
:101A100083F8FEF7D9FD00201D4908701DE122E181
:101A200000BF1C48807800EB80001E4A02EBC0001B
:101A300041680BA83DF000FC1A48C16A03A83DF0BC
:101A4000FBFBAFF2BC33AFF2C03203A90BA8FEF729
:101A500079FD4FF4C87038F0B9FBFFF771F870B139
:101A600000200749087007490870084800210180D4
:101A70000548018081700320054908701BE013E0D0
:101A8000190000101A0000101400001017000010B8
:101A90001B000010CC060010A8030010256425735D
:101AA0002573000014010010FFF736F8FEF78CFDD7
:101AB0000020FD490870D0E0642094FBF0F000F0B5
:101AC000FF0A642094FBF0F100FB114000F0FF0BD3
:101AD0005246012158461AF0F2FFF44908600846C0
:101AE0000568F34890F82700B8B3012836D00228DB
:101AF00032D16420B5FBF0F100FB115AB5FBF0FBCD
:101B0000EB48807800EB8000EA4901EBC000C16837
:101B1000E748CDE901BA0091807800EB8000E54903
:101B200001EBC000E44BAFF2E841C2690BA83DF005
:101B300085F96420B5FBF0F100FB115AB5FBF0FB11
:101B4000DC48416BCDE901BA0091DB4BAFF210519B
:101B5000426C03A83DF072F95FE035E00A20B5FB66
:101B6000F0F5B5FBF0F100FB115AB5FBF0FBD048E6
:101B7000807800EB8000CF4901EBC000C168CC4801
:101B8000CDE901BA0091807800EB8000C94901EBF2
:101B9000C000C94BAFF24451C2690BA83DF04EF9E9
:101BA0000A20B5FBF0F100FB115AB5FBF0FBC14870
:101BB000416BCDE901BA0091BF4BAFF26851426C65
:101BC00003A83DF03BF928E06420B5FBF0FAB848E3
:101BD000807800EB8000B74901EBC000C268B448D0
:101BE000CDE9002A807800EB800001EBC000B24B09
:101BF000AFF29051C2690BA83DF020F96420B5FB0B
:101C0000F0FAAC48426BCDE9002AAB4BAFF2AC51D5
:101C1000426C03A83DF012F900BF00BFAFF2985329
:101C2000AFF29C5203A90BA8FEF78CFCC82038F039
:101C3000CDFAFEF785FF28B1A048048005209A4917
:101C4000087009E0C82038F0C1FAFEF765FFFEF71A
:101C5000BBFC00209449087000BF00BF00209849D9
:101C600008709849087000BF1AE42DE9F041A4B04B
:101C700006460D4620211CA83DF014FC202114A886
:101C80003DF010FC20210CA83DF00CFC202104A804
:101C90003DF008FC022038F099FAFEF751FF0446A7
:101CA000EEBB83488078012814D08748036D8048B4
:101CB000807800EB8000844901EB001083A102686A
:101CC0007B488DE80E008378002202214C2035F0FD
:101CD00064FE0CE07C48AFF23822036D7448CDE915
:101CE0000023837800220221602035F056FE042272
:101CF0001146002035F086FD6D48807828B9022312
:101D0000002205212C2035F09FFF694890F827001C
:101D100048B3012814D0022831D1642000E05CE0EF
:101D2000B4FBF0F100FB1147B4FBF0F8AFF2E8634D
:101D3000042211464C20CDE9008735F0DAFE1EE082
:101D40000A20B4FBF0F4B4FBF0F100FB1147B4FB44
:101D5000F0F8AFF2F863042211464C20CDE9008779
:101D600035F0C7FE0BE06420B4FBF0F7AFF204736C
:101D7000042211464C20009735F0BBFE00BF00BF87
:101D8000012D11D14A48807800EB80004E4A02EBC9
:101D90000010816C1CA83DF04FFA4B48D0F8981009
:101DA00014A83DF049FA0FE04148807800EB80002C
:101DB000454A02EB001001691CA83DF03DFA42487B
:101DC000016E14A83DF038FAAFF24473AFF24872D6
:101DD00014A91CA8FEF7B6FBC3E03548807801289B
:101DE00014D03948436D3248807800EB8000364982
:101DF00001EB001035A142682D488DE80E00837874
:101E0000002202214C2035F0C8FD12E028488078DD
:101E100000EB80002C4901EB0010AFF27C324368EC
:101E20002348CDE90023837800220221602035F089
:101E3000B4FD04221146002035F0E4FC1C488078F3
:101E400028B90223002205212C2035F0FDFE184878
:101E500090F8270038B3012812D0022846D1642018
:101E6000B4FBF0F100FB1147B4FBF0F8AFF6280328
:101E7000042211464C20CDE9008735F03AFE35E0CA
:101E80000A20B4FBF0F4B4FBF0F100FB1147B4FB03
:101E9000F0F8AFF63803042211464C20CDE9008754
:101EA00035F027FE22E015E01B0000103400001082
:101EB000CC060010140100101400001030000010B7
:101EC000190000101A000010A803001025732F2518
:101ED000730000006420B4FBF0F7AFF67003042237
:101EE00011464C20009735F004FE00BF00BF012DC5
:101EF00011D1FF48807800EB8000FE4A02EB001011
:101F0000816C1CA83DF098F9FA48D0F8981014A8F4
:101F10003DF092F91FE0F648807800EB8000F54A2A
:101F200002EB001041691CA83DF086F9F148416EB2
:101F300014A83DF081F9EE48807800EB8000ED4A6E
:101F400002EB001081690CA83DF076F9E948816E3A
:101F500004A83DF071F904AB0CAA14A91CA8FEF763
:101F6000F1FA24B0BDE8F08100B591B0202109A8B4
:101F70003DF098FA202101A83DF094FADC488078E1
:101F800000EB8000DB4A02EB0010816809A83DF0FD
:101F900053F9D848816D01A83DF04EF9AFF61813FA
:101FA000AFF61C1201A909A8FEF7CCFA11B000BDCA
:101FB00070B598B00446202110A83DF073FA202196
:101FC00008A83DF06FFA202168463DF06BFAC8483A
:101FD000807800EB8000C74A02EB0010C1686846B9
:101FE0003DF02AF9C348C16D08A83DF025F9C04865
:101FF00090F8270018B3012810D0022829D16420B6
:10200000B4FBF0F100FB1145B4FBF0F62B46324671
:10201000AFF6CC1110A83CF011FF1AE00A20B4FB77
:10202000F0F4B4FBF0F100FB1145B4FBF0F62B46E5
:102030003246AFF6D81110A83CF000FF09E064204A
:10204000B4FBF0F52A46AFF6DC1110A83CF0F6FE22
:1020500000BF00BF10A968463DF077F9AFF6D8136E
:10206000AFF6DC1208A96846FEF76CFA4FF4C870A8
:1020700038F0ACF818B070BD00B591B0202109A8B7
:102080003DF010FA202101A83DF00CFA9848807824
:1020900000EB8000974A02EB0010816B09A83DF02D
:1020A000CBF89448D0F8881001A83DF0C5F8AFF6F9
:1020B0002823AFF62C2201A909A8FEF743FA4FF412
:1020C000C87038F083F811B000BD00B591B0202180
:1020D00009A83DF0E7F9202101A83DF0E3F9844883
:1020E000807800EB8000834A02EB0010C16B09A8E6
:1020F0003DF0A2F87F48D0F88C1001A83DF09CF884
:10210000AFF67C23AFF6802201A909A8FEF71AFAE0
:10211000142038F05BF811B000BD00B591B020215B
:1021200009A83DF0BFF9202101A83DF0BBF9704896
:10213000807800EB80006F4A02EB0010016C09A868
:102140003DF07AF86B48D0F8901001A83DF074F893
:10215000AFF6CC23AFF6D02201A909A8FEF7F2F919
:102160004FF4C87038F032F811B000BD10B590B01F
:10217000202108A83DF096F9202168463DF092F90B
:102180005D480088642190FBF1F201FB120458487D
:10219000807800EB8000574901EB0010224657A1E0
:1021A000C36A08A83CF04AFE53480088642190FBAB
:1021B000F1F201FB12044F48224650A1C36F68465A
:1021C0003CF03CFEAFF64033AFF64432694608A817
:1021D000FEF7B8F910B010BD00B591B0202109A8E4
:1021E0003DF060F9202101A83DF05CF9404880787D
:1021F00000EB80003F4901EB0010AFF25C71C26A56
:1022000009A83CF01BFE3B48AFF26C71C26F01A8FD
:102210003CF014FEAFF69033AFF6943201A909A852
:10222000FEF790F911B000BD00B591B0202109A8CA
:102230003DF038F9202101A83DF034F92C48807890
:1022400000EB80002B4A02EB0010016B09A83CF068
:10225000F3FF2848D0F8801001A83CF0EDFFAFF65E
:10226000D833AFF6DC3201A909A8FEF76BF9642078
:1022700037F0ACFF11B000BD00B591B0202109A826
:102280003DF010F9202101A83DF00CF918488078A4
:1022900000EB8000174A02EB0010416B09A83CF0EC
:1022A000CBFF1448D0F8841001A83CF0C5FFAFF66E
:1022B0002843AFF62C4201A909A8FEF743F94FF4D1
:1022C000C87037F083FF11B000BD00B591B0202178
:1022D00009A83DF0E7F8202101A83DF0E3F8044803
:1022E000807800EB8000074A52F8201009A80BE024
:1022F000CC060010A8030010300000102564202533
:1023000073000000380500103CF096FFFF4841695B
:1023100001A83CF091FFAFF69043AFF6944201A9BB
:1023200009A8FEF70FF911B000BD00B591B020214A
:1023300009A83DF0B7F8202101A83DF0B3F8F44812
:10234000807800EB8000F14A02EB8000816809A8E8
:102350003CF072FFED48C16901A83CF06DFFAFF69B
:10236000D843AFF6DC4201A909A8FEF7EBF86420D8
:1023700037F02CFF11B000BD70B592B0044620219B
:102380000AA83DF08FF8202102A83DF08BF8E04824
:1023900090F8270088B3012817D002283FD1642085
:1023A000B4FBF0F100FB1145B4FBF0F6D848009502
:1023B000807800EB8000D54901EB80003346D5A141
:1023C00042680AA83CF03AFD29E00A20B4FBF0F488
:1023D000B4FBF0F100FB1145B4FBF0F6CC480095DE
:1023E000807800EB8000C94901EB80003346CCA126
:1023F00042680AA83CF022FD11E0FFE76420B4FB2C
:10240000F0F5C348807800EB8000C04901EB800004
:102410002B46C5A142680AA83CF010FD00BF00BFD2
:10242000BA48816902A83CF007FFC0A3BFA202A975
:102430000AA8FEF787F84FF47A7037F0C7FE12B09B
:1024400070BD00B589B0202101A83DF02BF834F013
:10245000DFFC022037F0BAFEAC48016A01A83CF06C
:10246000EBFE01AB03220521302035F042FBA848EA
:102470008078012813D0A648807800EB8000A34A1A
:1024800002EB8000016901A83CF0D6FE01ABA04838
:102490000093837800220B213C2035F07EFA09B0AE
:1024A00000BDA3480068704770B506460C46154647
:1024B000974890F82300C8B1012E02D0022E14D103
:1024C00009E09CA015F040FC14F0BEFA012108467A
:1024D00014F08FFE09E09BA015F036FC14F0A1FA71
:1024E0000021012014F085FE00BF00BF884890F84D
:1024F0002100C8B1012C02D0022C14D109E095A012
:1025000015F022FC14F003FC0121022014F071FEEE
:1025100009E094A015F018FC14F0DEFB0021022065
:1025200014F067FE00BF00BF794890F8260058B14C
:10253000012D02D0022D06D102E01CF0FBFB02E0CF
:102540001CF0E7FB00BF00BF142037F03FFE70BD5A
:1025500010B5FEF7F5FAF0B986480078D8B9864884
:10256000407A012817D1FEF7EBFA04468248437AF5
:1025700080480278214681A015F0E6FB14F01CFA91
:10258000142037F023FE002211460120FFF78CFFB4
:10259000142037F01BFE10BD00207D49C880487113
:1025A000C8708870487001207A49887070472DE99A
:1025B000F0410446002500260027012C1ED114F00E
:1025C000DEFE58B9524890F8230038B101250020AA
:1025D0006849087034F01CFCFFF7DEFF022014F09D
:1025E000CEFE90BB4A4890F82100012804D048480C
:1025F00090F82100032828D1012626E0022C24D1BE
:10260000012014F0BCFE01280BD1414890F82300B2
:1026100038B1022501205749087034F0F9FBFFF763
:10262000BBFF022014F0ABFE01280ED1384890F811
:102630002100012804D0364890F82100032804D155
:10264000334890F8C50000B902263A46314628467C
:10265000FFF72AFFBDE8F081F0B585B00025002620
:1026600000272B4890F82500022812D100240EE004
:10267000494850F8240040B1474850F824101C3015
:1026800030F8140001FB00662746601CC4B2072C1A
:10269000EEDB1F4890F82200022836D13F48406FF9
:1026A0003E49B1F8C01048433C498A6FB1F8C210A6
:1026B00002FB01013948C26FB0F8C40002FB0011EF
:1026C0003648D0F88020B0F8C60002FB001133482D
:1026D000D0F88420B0F8C80002FB00112F48D0F8D1
:1026E0008820B0F8CA0002FB00112C48D0F88C20DA
:1026F000B0F8CC0002FB00112848D0F89020B0F8C8
:10270000CE0002FB001125484AE081E038050010A8
:10271000CC0600102573253032642E25303264003B
:10272000257325642E2564002573256400000000B0
:102730002C0000100D0A20417070656E42696C6CAF
:10274000000000000D0A2041707064697342696CDA
:102750006C0000000D0A20417070656E436F696E59
:10276000000000000D0A20417070646973436F69B6
:102770006E0000001C000010584800100D0A204593
:10278000727242696C6C3D25642C25642C256400B2
:10279000080000105009001024090010180800104B
:1027A000D0F89420B0F8D00002FB0011FB48D0F81C
:1027B0009820B0F8D20002FB0011F848D0F89C2015
:1027C000B0F8D40002FB0011F448D0F8A020B0F813
:1027D000D60002FB0011F148D0F8A420B0F8D800D0
:1027E00002FB0011ED48D0F8A820B0F8DA0002FB97
:1027F0000011EA48D0F8AC20B0F8DC0002FB001170
:10280000E648D0F8B020B0F8DE0002FB001512E078
:10281000E34890F82200012808D114F085FC10B993
:10282000DF48806B00E00020054604E0DC4890F8BB
:10283000220000B900257019D949896B884202D954
:10284000D748806B00E07019D6490860D448D0F8AA
:10285000C03008460268D248816BD348CDE9006594
:10286000CDE90323029150F82700DFF83CC30CF1B7
:102870001C0C3CF817C000FB0CF3C848806FDFF855
:102880001CC3BCF8C2C000FB0CF2C448406FDFF8A8
:102890000CC3BCF8C0C000FB0CF1C44815F054FADE
:1028A000BF4890F8220002280CD1BD48D0F8C000E3
:1028B000A84203D90220FFF77AFE35E00120FFF796
:1028C00076FE31E0B64890F8220001280CD1B448D9
:1028D000D0F8C000A84203D90220FFF768FE23E029
:1028E0000120FFF764FE1FE0AD4890F82200D8B940
:1028F000AB4890F8250002280DD17019A849D1F8ED
:10290000C010884203D20220FFF751FE0CE00120E4
:10291000FFF74DFE08E0A248806BA2490860A4487A
:102920000168A4A015F010FAFFF712FE002005B010
:10293000F0BD014669B99A4A92F82E200F32FF2A5B
:1029400001DDFF2203E0964A92F82E200F32D0B22A
:102950000CE001290AD1924A92F82E20FF2A01DDCB
:10296000FF2202E08E4A92F82E20D0B2704770B556
:102970008B4890F8210018B314F065F90446FCB1B7
:1029800091480068204490490860FEF7D9F8054650
:10299000024621468DA015F0F9F9022200210846D1
:1029A000FFF782FD0121204614F0DEFDFEF7C8F896
:1029B00005460246A1B2012016F04DFB012070BD74
:1029C000774890F8230090B313F0A6FF044674B341
:1029D000214684A015F0B8F98648006801197448AA
:1029E00003687048026884A015F0AEF98148006859
:1029F00020446C49096888421AD213F0A5FF90B1AF
:102A00007C48006820447B4908600221204614F07D
:102A1000ABFDFEF795F805460246A1B2022016F07E
:102A20001AFB002452E013F0C7FF0020C7E761E063
:102A30005B4890F8240001283DD1FFF795FAFEF796
:102A40007FF828B34FF4AF7037F0C0FB0020FFF7DA
:102A500070FF724988710320714908700020714924
:102A60000870714908707148002101807048018028
:102A700081707048006837F069F900206E4908607D
:102A80006E4801780020FFF7F0F813F095FF0EE094
:102A9000FEF742F800206249087013F08DFF4FF4F2
:102AA000C87037F093FBFDF78FFDFFF775FD002031
:102AB0006349086083E762480460FEF741F8054611
:102AC0000246A1B2032016F0C6FA00244948006865
:102AD000204434490968884205D302220021104667
:102AE000FFF7E2FC04E0022200210846FFF7DCFCCD
:102AF000012064E72A4890F82600C0B351481CF032
:102B0000D8F804464F480078012819D1C4B12146AD
:102B10004DA015F07FF9524804600321204614F0BF
:102B200023FD002202210846FFF7BEFCFEF708F84D
:102B300005460246A1B2052016F08DFA01203EE7B7
:102B400040480078022813D146A015F063F9FDF73C
:102B5000F7FF85B200232A461946022015F0CEFA67
:102B60000020384908703E490860022027E7FFE747
:102B7000002024E72DE9F0410026094890F82500BF
:102B8000022809D1FDF7DCFF06462EB131463CA0F4
:102B900015F0DAF80024C8E0CAE0000018080010B8
:102BA000CC0600103C00001024090010680B040043
:102BB000400000100D0A4170704368616E67652027
:102BC0006D61783D256C6400200000100D0A417095
:102BD00070636F696E312E636F696E3D256C642C76
:102BE000256C64000D0A322E41707062696C6C3D78
:102BF000256C6400240000100D0A41707062696C3D
:102C00006C3D256C642C4D6F6E65793D256C642C94
:102C100070726963653D256C640D0A0050090010EF
:102C20001B000010190000101A00001017000010FF
:102C3000140000109400001034000010390000103F
:102C400028000010440000100D0A204170705265E9
:102C500061646572312E726561643D256C640000AB
:102C60002C0000100D0A204170705265616465727D
:102C7000204F555450555420636172640000000089
:102C80000D0A204170704E6565647061793D256C58
:102C900064000000FF4850F82400F0B3FD4850F8ED
:102CA0002400B6FBF0F0C5B22946FBA015F04CF8A5
:102CB000F8481C3030F81400A84201DB284603E035
:102CC000F4481C3030F81400C5B22946F7A015F0BE
:102CD0003BF8F04951F8241001FB05F013F005FF13
:102CE0000746012F1ED1F6480068F64909680144DD
:102CF000E84850F8240000FB15160020F149086050
:102D0000EF4806603146F0A015F01EF8E14850F893
:102D10002400684382B2334600E004E00021012031
:102D200015F0ECF903E0601CC4B2072CB2DB00BF65
:102D3000BDE8F08138B5E8480068D8B113F03CFE32
:102D400070B1FDF7FDFEE4490968451A2A46E248DC
:102D5000006881B2042016F07EF90020DE49086088
:102D600037F0E2FA05460146DCA015F0FDF86420D4
:102D700037F02CFAFFF7FEFEFDF7E2FE70B137F0F8
:102D8000D3FA05460146D9A015F0EEF8FDF7D8FEB6
:102D9000054669461BF025FD044600E001241CBBE6
:102DA000D8A015F0E1F8FDF7CBFE0099451A2846AA
:102DB00014F044FEFDF7C4FE0099401A85B20B469C
:102DC0002A460021084615F099F9C82037F0FEF987
:102DD00000221146022016F03EF90020B849086092
:102DE000B8490860009838BD37F09EFA054601469C
:102DF000C9A015F0B9F8FDF7A3FE0546002114F0AF
:102E00001DFEFDF79DFE85B200232A461946184691
:102E100015F074F90020AA490860AA49086000BFAB
:102E2000E1E72DE9F04100260024C0480468FDF7E1
:102E300087FEA04206D2BE48006818B90720BD49E7
:102E40000870C1E0BA48006878B1FFF73EF9A0B257
:102E50001CF02EF80646012E03D10A20B549087051
:102E6000B2E00920B3490870AEE095480068954982
:102E700009680844A04262D291480068201A91492A
:102E80000968451A94480068451BAB4890F8220031
:102E9000022801D1012615E0A74890F82200012858
:102EA00001D101260EE0A44890F8220050B9A248B2
:102EB00090F82500022801D1012603E00DB9012672
:102EC00000E00026012E36D113F03EFDF0B17D4822
:102ED00000688149096808447A49086002217E48EF
:102EE000006814F041FBFDF72BFE7B490968471A87
:102EF0003A467948006881B2022016F0ACF800200A
:102F0000754908600A208B4908705DE013F054FD94
:102F1000FDF716FE70490968471A3A466E48006880
:102F200081B2042016F097F800206B490860082051
:102F30008049087048E008207E49087044E06048F5
:102F40000068604909680844051B7B4890F8220026
:102F5000022801D1012615E0774890F822000128C7
:102F600001D101260EE0744890F8220050B9724851
:102F700090F82500022801D1012603E00DB90126B1
:102F800000E00026012E1CD16B4890F82400012897
:102F900013D15148006880B113F00EFDFDF7D0FD4C
:102FA0004D490968471A3A464B48006881B20420E7
:102FB00016F051F80020484908600A205D49087061
:102FC00002E008205B490870BDE8F08110B50446B6
:102FD00004B35748006860B158A014F01BFF0120EB
:102FE0001BF0CEFF52480068001B514908600024C6
:102FF00010E034480068844206D332480068241A3E
:1030000000203049086005E02E480068001B2D496B
:103010000860002424B12A480068001B2849086081
:1030200010BD454890F82E00FF2806DA4848807900
:1030300008B9012070470020FCE70020FAE70EB530
:10304000434883793C48807800EB8000414901EB9C
:10305000001041A1426C38488DE80E0083780022B0
:103060001146962034F099FC0EBD70B5044601253A
:1030700074B113480068134909680844A0426FD22C
:1030800013F062FC28B10F4800681349096868E032
:103090009AE079E0240900100D0A204170704E6515
:1030A00065646E756D3D2564000000000D0A2041C9
:1030B00070705265616C6E756D3D25640000000096
:1030C00020000010240000100D0A20417070706173
:1030D000793D256C64000000280000100D0A204195
:1030E0007070486F6C645265742564000D0A20414D
:1030F0007070426567696E206368616E67652564FC
:10310000000000000D0A204170706368616E676501
:10311000204661696C0000000D0A204170706368F0
:10312000616E676520737563632564003400001069
:103130002C0000101B000010CC0600100D0A2041CE
:10314000707043487568756F5375636300000000C5
:1031500050090010A80300102573253032640000C8
:1031600023E00844F9490860FDF7EAFCF8490968DA
:10317000461A3246F648006881B2022015F06BFF0D
:103180000020F349086010E013F016FCFDF7D8FCAE
:10319000EF490968461A3246ED48006881B20420BA
:1031A00015F059FF0020EA490860FDF7C9FC064602
:1031B00002462146E7A014F0D7FEFDF7C1FCA0426D
:1031C00001D3012500E00025FDF7BAFC90B30320F0
:1031D000E74908700020FFF7ACFBE6498871E44836
:1031E0000078032842D1D9480068E3490968884239
:1031F00004D2002201210846FFF756F90020DF49DA
:103200000870DF490870DF4800210180DE48018036
:103210008170DE48006836F099FD33F0F9FDDC4836
:1032200001780020FEF721FDFDF78AFC064617F025
:1032300042F91BE0FFE7002201210846FFF734F9BD
:103240000020CE490870CE490870CE480021018088
:10325000CD4801808170CD48006836F077FD33F0AD
:10326000D7FDFFF7EEF80E20C1490870284670BD63
:1032700070B504460125002654B1C648006838B12F
:10328000FEF723FFA0B21BF013FE064606B9002589
:10329000284670BD70B5044684B3BE48006860B16E
:1032A000BDA014F0B7FD01201BF06AFEB94800680C
:1032B000001BB8490860002447E0BC480068A349E7
:1032C00009680844A0422FD213F03EFBB8B19F48D2
:1032D00000689F49096808449C490860FDF730FC74
:1032E0009B490968451A2A469948006881B202201C
:1032F00015F0B1FE00209649086011E025E013F0BA
:103300005BFBFDF71DFC92490968451A2A46904867
:10331000006881B2042015F09EFE00208C490860F0
:103320004FF4487036F052FF88480068844206D354
:1033300086480068241A00208449086005E0834814
:103340000068001B81490860002424B19748006888
:10335000001B96490860FDF7F3FB90B303208449F6
:1033600008700020FFF7E5FA8249887180480078EC
:10337000032842D1754800687F490968884204D211
:10338000002201210846FFF78FF800207B490870D2
:103390007B4908707B48002101807B480180817057
:1033A0007A48006836F0D2FC33F032FD7848017874
:1033B0000020FEF75AFCFDF7C3FB054617F07BF82B
:1033C0001BE0FFE7002201210846FFF76DF800200F
:1033D0006A4908706A4908706A48002101806A4891
:1033E000018081706948006836F0B0FC33F010FD50
:1033F000FFF727F80E205E49087070BD2DE9F04FE9
:1034000087B004460E461546002700200690FEF7BA
:10341000E3FE002202210846FFF746F836F084FF5B
:103420008046014662A014F09FFD3046FFF720FF62
:10343000642094FBF0F000F0FF08642094FBF0F1AE
:1034400000FB114000F0FF094246012148460CF004
:1034500079FB07465B4890F82F00012804D05948B3
:1034600090F82F0003286FD1012F6ED1FDF768FB74
:1034700008B914F065F8012D01D0022D02D13046B3
:10348000FFF7A4FD412040490870642094FBF0F14F
:1034900000FB11400A2190FBF1F030303A494870AE
:1034A000642094FBF0F100FB11400A2190FBF1F243
:1034B00001FB1200303034498870434806604348AD
:1034C0000378414801683048CDE901530091837881
:1034D000427801783EA032F047FF3C4801780078FE
:1034E000401C3A4B18702B46274A3748006814F0A6
:1034F0007AF8642094FBF0F000F0FF0A642094FB5B
:10350000F0F100FB114000F0FF0B5246022158463B
:1035100019F0D5FA00F0FF08FDF712FB05906420C2
:1035200094FBF0F100FB114000F0FF09059A2B46D7
:10353000CDE9012800964A460121002016F035F910
:103540000B200B4908706DE18CE061E02400001055
:10355000280000100D0A20417070205072696365C8
:103560003D256C642C6D6F6E65793D256C640000A3
:103570001B000010500900103C0000101900001042
:103580001A00001017000010140000109400001022
:10359000390000102C0000100D0A204170705043BB
:1035A000436F7374537563630000000020000010C4
:1035B0000D0A20256441707055626F7856656E64FF
:1035C0006F757400CC060010340000103800001035
:1035D0004C6F675472616E73616374696F6E4150B2
:1035E00049206C6F6769633D2563256325632070FF
:1035F000726963653D256420747970653D25782C7A
:103600007472616E4E756D733D25640D0A20000065
:10361000FEF732FE642094FBF0F000F0FF0A642015
:1036200094FBF0F100FB114000F0FF0B5246022129
:10363000584619F044FA00F0FF08FDF781FA0590AA
:10364000642094FBF0F100FB114000F0FF09059AA3
:103650002B46CDE9012800964A460121992016F013
:10366000A4F8DFE0FF4890F82F0002287ED1012F58
:1036700052D1FEF7D9FD3046FFF70CFE642094FBD3
:10368000F0F100FB11400A2190FBF1F03030C0B2A4
:103690008DF818000A2094FBF0F100FB1140303047
:1036A000C0B28DF8190013F04BFFEF480178007895
:1036B000401CED4B18702B4606AA304613F093FFC2
:1036C000642094FBF0F000F0FF0B642094FBF0F119
:1036D00000FB1140C0B25A460221049019F0EFF9E4
:1036E00000F0FF08FDF72CFA0590642094FBF0F140
:1036F00000FB114000F0FF09642094FBF0F000F0A3
:10370000FF0A059A2B46CDE9012800964A46514604
:10371000002016F04AF835E0FEF7AEFDD348006809
:1037200010B102201BF02CFC642094FBF0F000F0A0
:10373000FF0A642094FBF0F100FB114000F0FF0B46
:1037400052460221584619F0BAF900F0FF08FDF779
:10375000F7F90590642094FBF0F100FB114000F0B4
:10376000FF09642094FBF0F0C0B200E03FE0049059
:10377000059A2B46CDE9012800964A4601460220CB
:1037800016F013F8FDF7DCF990B30320B849087080
:103790000020FFF7CEF8B7498871B54800780328B4
:1037A00040D1B5480068B5490968884204D2002272
:1037B00001210846FEF778FE0020B1490870B149A2
:1037C0000870B14800210180B04801808170B04884
:1037D000006836F0BBFA33F01BFBAE4801780020DE
:1037E000FEF743FAFDF7ACF9804616F064FE19E0E7
:1037F000FFE7002201210846FEF756FE0020A049FF
:103800000870A0490870A048002101809F480180ED
:1038100081709F48006836F099FA33F0F9FA0E206B
:103820009349087007B0BDE8F08F2DE9F04F85B0DF
:1038300004460F4615461E468A4890F82F00022877
:103840002BD1642094FBF0F000F0FF0A642094FB7D
:10385000F0F100FB114000F0FF0B524602215846E8
:1038600019F02DF900F0FF08FDF76AF904906420C3
:1038700094FBF0F100FB114000F0FF09642094FB81
:10388000F0F0C0B20390049A2B46CDE901280097CE
:103890004A460146304615F088FF05B0BDE8F08F76
:1038A00010B5FDF74DF9D8B1FFF744FA4FF4C870E1
:1038B00036F08CFC0020724908707249087072481A
:1038C000002101807148018081707148006836F0E4
:1038D0003DFA33F09DFAFEF7B4FD0E2064490870FE
:1038E000002202210846FEF7DFFDC82036F06EFCFC
:1038F00021F000FE4FF4C87036F068FC0022012170
:103900000846FEF7D1FD10BD70B5564890F8260068
:1039100010B1FEF7C6FDC8BBFDF712F9B0B1FEF756
:10392000D4FC36F001FD054601465BA014F01CFBFB
:10393000FFF700FA04461CB12046FEF71DFD01E02A
:10394000FEF7F3FC0E204A4908701FE0FEF7BDFCAD
:10395000AFF6500014F008FB0021084614F06EF892
:1039600000231A461946184614F0C8FBC82036F042
:103970002DFC00221146022015F06DFB0020494964
:1039800008603D4908600E203949087070BD2DE976
:10399000F04104460025FEF71FFC36F0C5FC064644
:1039A0000146AFF2F43014F0DFFA642094FBF0F03B
:1039B000C6B2642094FBF0F100FB1140C7B232465E
:1039C000012138460CF0BEF80546FDF7B9F890B372
:1039D0000320274908700020FEF7ABFF25498871B6
:1039E00023480078032864D12348006823490968E4
:1039F000884204D2002201210846FEF755FD00202E
:103A00001F4908701F4908701F48002101801F4886
:103A1000018081701E48006836F098F933F0F8F99B
:103A20001C4801780020FEF720F9FDF789F80646CA
:103A300016F041FD3DE0FFE7002201210846FEF7B8
:103A400033FD00200E4908700E4908700E48002111
:103A500001800E48018081700D48006836F076F9CB
:103A600022E00000CC060010380000102C000010EE
:103A70001B00001050090010240000103C00001032
:103A8000190000101A000010170000101400001098
:103A900094000010390000100D0A20417070547518
:103AA000692564002000001033F0B2F90E20FF49B0
:103AB00008702846BDE8F08170B504460025FDF782
:103AC0003FF80546FA480460FDF73AF890B3032042
:103AD000F64908700020FEF72CFFF6498871F3487C
:103AE0000078032841D1F4480068F4490968884205
:103AF00004D2002201210846FEF7D6FC0020F0493E
:103B00000870F0490870F04800210180EF480180FA
:103B10008170EF48006836F019F933F079F9ED4813
:103B200001780020FEF7A1F8FDF70AF8064616F026
:103B3000C2FC1AE0FFE7002201210846FEF7B4FCB0
:103B40000020DF490870DF490870DF48002101804C
:103B5000DE4801808170DE48006836F0F7F825B154
:103B600033F056F90E20D149087070BDF0B593B00E
:103B70000546002420210BA83BF094FC202103A83B
:103B80003BF090FC0520CB494871FCF7D9FF08B900
:103B9000FCF7A5FF2C46D04890F82700A8B30128D1
:103BA00034D0022830D1642094FBF0F100FB1146A0
:103BB00094FBF0F7C848807800EB8000C74901EB20
:103BC000C000C168C448CDE901760091807800EB5F
:103BD0008000C24901EBC000BC4BC149C2690BA8BF
:103BE0003BF02CF9642094FBF0F100FB114694FBB0
:103BF000F0F7BA48416BCDE901760091B34BB84973
:103C0000426C03A83BF01AF961E037E00A2094FB0C
:103C1000F0F084B20A2094FBF0F100FB114694FB13
:103C2000F0F7AD48807800EB8000AC4901EBC000B4
:103C3000C168A948CDE901760091807800EB800049
:103C4000A64901EBC000A14BA5491431C2690BA8DC
:103C50003BF0F4F80A2094FBF0F100FB114694FBD2
:103C6000F0F79E48416BCDE901760091974B9C4956
:103C70001431426C03A83BF0E1F828E0642094FB87
:103C8000F0F69548807800EB8000944901EBC00085
:103C9000C2689148CDE90026807800EB800001EBF6
:103CA000C0008A4B8E492431C2690BA83BF0C6F88C
:103CB000642094FBF0F68948426BCDE90026834BE3
:103CC00087492431426C03A83BF0B8F800BF00BF1D
:103CD000AFF22C73AFF2307203A90BA8FCF732FCE1
:103CE0004FF4167036F072FA7248407978B9FCF7E2
:103CF00027FF18B103206D49087006E0FCF70CFFA0
:103D0000FCF762FC002069490870FEF745FC674833
:103D10000078032805D16F4801780020FDF7A5FF42
:103D200006E06248007818B933F072F8FEF734FC08
:103D300013B0F0BD10B592B0044620210AA83BF0A4
:103D4000B1FB202102A83BF0ADFBFCF7F9FE10B15E
:103D50000020FFF7B1FE224662A10AA83BF06EF8F0
:103D6000224660A102A83BF069F802AB5A480093D2
:103D7000837800220E21502033F00FFE12B010BDC8
:103D800088B000200790002400250690059049493E
:103D90008870C8700871487134F007FA38B102228F
:103DA00011461046FEF780FB1320404908700120A1
:103DB0000FF0E5F94C490860474890F89800012851
:103DC00002D116F059FA02E0012016F041FA012062
:103DD00034F068FA33F01CF8F9E3344800783AF02C
:103DE00004FF3248007814285FD2DFE800F00AD1DF
:103DF000FEFDFCFBFAF9F8F7F6F5F4F3F2F1F0EF5B
:103E0000EEED3A480068C82802D90020374908601A
:103E10002848807830B9052026498870FCF7E0FBF7
:103E200015F0D4F805A9002016F00BFD07909DF8B9
:103E30001C0098B19DF81C003C2803D09DF81C0084
:103E40003E2805D100201E4908701E49087005E073
:103E50000520184948710120144908701548007957
:103E600020B9052013490871FEF7F6FBFEF77FFD28
:103E70000446012C4CD112F0BCFF32F0C9FF1548AA
:103E800001782846FDF7F1FEFCF75AFE0746014689
:103E900017A013F059FF13F053FB2846FEF749FD16
:103EA00004498871FCF74CFE2CE0D1E21B000010A5
:103EB0002C00001050090010240000103C000010DD
:103EC000190000101A000010170000101400001054
:103ED0009400001039000010CC06001014010010EE
:103EE000401600002573000040000010480000103C
:103EF0000D0A2041707032616D6F756E743D256CD6
:103F000064000000074616F0D6FA0320FE49087048
:103F1000FE48C078F0B90520FC49C87012F08CFF4B
:103F200013F01AF8A0B10020F849887015F041F993
:103F3000642036F04BF932F06BFF02221146104636
:103F4000FEF7B2FAFEF728FB0F20EF49087001E0F8
:103F500015F0AAFB34F029F938B1022211461046B7
:103F6000FEF7A2FA1320E8490870012012F0EAF9DE
:103F7000FCF7E6FD074614F0C7F934F07FF9074671
:103F80001BF088FA00201BF09CFA16F0B5FC5FE2EB
:103F90009DF81C0080B19DF81C10DDA013F0C2FF3D
:103FA0000520DA494871FCF7CBFD08B9FCF797FD0D
:103FB00005A907A8FCF7D0FD05A9012016F041FCD2
:103FC0000790D248407911E0B0E396E385E359E3E6
:103FD00007E3D5E2C4E28FE23BE21BE1FDE0D3E080
:103FE000AEE0ACE0A8E0A6E043E018E028B943204A
:103FF000079002200590FEF7CFFAC3480078032807
:1040000005D1C74801782846FDF72FFE06E0BE48D7
:10401000007818B932F0FCFEFEF7BEFAFEE39DF818
:104020001C0050B11420B9494871FCF789FD08B94A
:10403000FCF755FD07A8FDF706FA05A9012016F0C3
:1040400000FC0790B148407918B94320079002203E
:104050000590AD480078032805D1B148017828467D
:10406000FDF703FE04E0A848007808B932F0D0FE5E
:10407000D4E3FEF77CFC0446012C16D1A848017855
:104080002846FDF7F2FD2846FEF753FC9F4988714C
:10409000FCF756FD074616F00EFAFCF751FD0746F1
:1040A0000146AFF2B41013F04FFE05A9002016F040
:1040B000C8FB07909DF81C0058B19DF81C1099A0F2
:1040C00013F030FF05209149487101208E49087096
:1040D000A4E312F065FE10B9FEF7A3FF78B195488E
:1040E000407808B1012D0AD19348006838B9002200
:1040F00002210846FEF7D8F90D20834908708F4841
:1041000090F82E00FF2809DA8A48407808B1012D7E
:1041100004D18948006808B9FEF791FF022C02D14A
:104120000E2079490870FCF70BFD074614F0ECF8F7
:1041300016F0E2FB72E371E3FEF773FE6EE36DE3EC
:104140007F480068FDF734FF2846FEF7F2FB6F4911
:10415000887103206C49087000207A4908707A49F8
:1041600008707A480021018079480180817079487F
:10417000006835F0EBFD002071490860684801785F
:104180002846FDF772FD49E3FDF776FFFCF7D8FC02
:10419000F8B12846FEF7CDFB5C49887103205A49E7
:1041A0000870002067490870674908706748002157
:1041B00001806748018081706648006835F0C6FD5F
:1041C00000205F490860564801782846FDF74DFDFC
:1041D00002E00E204C49087020E3FDF79EFF03200B
:1041E00049490870002057490870574908705748D6
:1041F000002101805648018081705648006835F0E2
:10420000A5FD00204E490860454801782846FDF785
:104210002CFD03E3002202210846FEF745F9FDF7D5
:10422000A5FF4D480088642190FBF1F0C7B24A48D1
:10423000008890FBF1F201FB120000F0FF083A4603
:10424000012140460BF07EFC0690069801285AD1C9
:104250003B480068FEF7BAFE3748006860B13F4847
:1042600001780078401C3D4B18700223384A3448CE
:10427000006813F0B8F910E0384801780078401C65
:10428000364B18700023324A2D48006813F0ABF902
:104290002B48006880B21AF0B8FE2F4800886421CD
:1042A00090FBF1F000F0FF0A2B48008890FBF1F240
:1042B00001FB120000F0FF0B52460221584618F095
:1042C000FEFBC7B2FCF73CFC049023480088642145
:1042D00090FBF1F201FB120000F0FF081E4800887D
:1042E00090FBF1F000F0FF091548049A01680023E3
:1042F0008DE8860042464946184615F056FA0B20CE
:1043000001490870A1E02BE01B00001050090010CB
:104310000D0A204170704B6579323D256400000024
:10432000390000100D0A204170704B6579313D2530
:1043300064000000940700102C000010CC06001050
:1043400034000010190000101A00001017000010AF
:10435000140000109400001030000010380000100D
:10436000FD48006828B1FDA013F054FD02201AF0AA
:1043700007FEFF4890F82F00012804D0FC4890F871
:104380002F0003282CD1FB480088642190FBF1F01A
:1043900000F0FF0AF748008890FBF1F201FB1200E1
:1043A000C7B252460221384618F089FB00F0FF08D8
:1043B000FCF7C6FB8346EF480088642190FBF1F2CE
:1043C00001FB120000F0FF09EB48016800234A4698
:1043D000CDE901B800910121992015F0E6F931E00D
:1043E000E4480088642190FBF1F000F0FF0AE14806
:1043F000008890FBF1F201FB120000F0FF0B524627
:104400000221584618F05BFBC7B2FCF799FB0490F9
:10441000D8480088642190FBF1F201FB120000F003
:10442000FF08D448008890FBF1F000F0FF09D24863
:10443000049A016800238DE886004246494602201E
:1044400015F0B3F90C20CD4908700020CA49086066
:10445000E4E1FDF7E9FECA48007801283CD1FCF709
:104460006FFBC0B30320C549087001252846FEF73D
:1044700060FAC4498871C148007803283BD1C2481A
:104480000068C2490968884204D200220121084616
:10449000FEF70AF80020BE490870BE490870BE4801
:1044A00000210180BD4801808170BD48006835F061
:1044B0004DFC32F0ADFCBB4801782846FDF7D5FB3A
:1044C000FCF73EFB074615F0F6FF05A9002016F0A5
:1044D000B8F907900FE0FFE7FCF732FB40B1B148B5
:1044E00001782846FDF7C1FB0D20A449087002E0C1
:1044F0000E20A249087091E1FDF7BEFEFCF720FBFB
:1045000068B303209D49087001252846FEF711FA7B
:104510009C49887199480078032820D19A480068FE
:104520009A490968884204D2002201210846FDF711
:10453000BBFF0020964908709649087096480021F4
:1045400001809648018081709548006835F0FEFB37
:1045500032F05EFC934801782846FDF786FB5DE16A
:10456000FDF7B3FEFEF7E6FB06461EB13046FDF74B
:1045700003FF01E0FDF7D9FE0E20804908704DE1F0
:10458000FDF75FFFFCF7C8FA002500208649087098
:1045900078490880834908707A49087101221146D8
:1045A0001046FDF781FF002080490870FDF7F4FFF9
:1045B00001200EF0E4FD7E49086013F0BEFA6C485D
:1045C00090F89800012803D115F056FE03E029E188
:1045D000012015F03DFE32F01BFC002067490870F9
:1045E0001CE16848807820B91E2066498870FCF775
:1045F00036F96448C07818BB05206249C87012F0CB
:104600001BFC012011F09EFE12F0A6FC98B90020C0
:104610005C49887032F0FCFB012211461046FDF720
:1046200043FF642035F0D2FD14F0C3FDFDF7B4FF65
:10463000002052490870FCF783FA074613F064FE25
:1046400033F0B3FD10B113204C490870FEF78FF919
:104650000446012C15D112F0CCFB32F0D9FB5148A5
:1046600001782846FDF701FBFCF76AFA0746014688
:10467000AFF2847013F068FB12F062FF10203F4924
:104680000870CBE0FEF773F90446012C0CD14548C5
:1046900001782846FDF7E9FAFCF752FA0746014689
:1046A000AFF2B47013F050FB12F07AFB50B12A480D
:1046B000006838B9002202210846FDF7F5FE1120F6
:1046C0002E490870022C02D112202C490870FCF7E8
:1046D00037FA074613F018FEA0E0FDF7F6FDFEF7E7
:1046E00029FB06461EB13046FDF746FE01E0FDF708
:1046F0001CFE12202149087090E0FDF7A2FEFCF795
:104700000BFA00250020284908701A49088032F069
:104710007FFB002201210846FDF7C6FE13F00DFACB
:10472000FDF73AFF0F201549087077E0002015F0DB
:104730008FFD0F4890F82F0010B1012012F02CFED1
:1047400000BFFCF7FDF9074613F0DEFD002008F07E
:104750008DFC33F02AFD2DE02C0000100D0A2041C5
:10476000707043487568756F4661696C00000000A1
:10477000CC06001030000010340000101B000010A8
:104780009407001050090010240000103C00001095
:10479000190000101A00001017000010140000107B
:1047A0009400001039000010380000101C000010A8
:1047B000400000100028C4D11B49887032F028FB4B
:1047C000012211461046FDF76FFE002017490870C0
:1047D000FDF7E2FE164890F82F0058B10023009331
:1047E00001931A4619460520029313F0DDFC0020C0
:1047F00012F0D2FD01200EF0C2FC0E4908600C48F8
:1048000090F89800012802D115F036FD02E0012051
:1048100015F01EFD00200849087000BF00BF0220EF
:1048200035F0D4FCFFF7D9BA500900101C00001075
:10483000CC060010400000101B000010F0B585B041
:1048400000260027FAA103C9CDE9010132F0E0FA00
:10485000F9A031F089FDB8E00F23EF2200210846CE
:1048600033F037FA0323EF220021084633F031FA00
:10487000F7488078F74951F82030F548009383785D
:1048800000220121082033F088F8F1488178F148AE
:10489000143050F82130EE4800938378002206212E
:1048A000302033F07AF80E23EE220D21012032F071
:1048B000E9FAE7488178E7483C3050F82130E4488D
:1048C0000093837800220D211C2033F066F87BE0F2
:1048D000002700240AE0342101EB0411C8B20023B0
:1048E000DDA2092132F0F8FA601CC4B2082CF2DB18
:1048F00069E033F022FC0546F5B3432D02D10020D8
:1049000005B0F0BD03A8855531013431C8B200238C
:10491000D2A2092132F0E0FA701CC6B2082E4FD1A3
:1049200000260127002408E003A8005D01A9095D15
:10493000884200D00027601CC4B2082CF4DB012F91
:1049400001D10120DCE70E23EE220D21012032F0FF
:1049500099FABF488178BF48283050F82130BC48C8
:104960000093837800220D21302033F016F84FF4A5
:10497000C87035F02BFC00E022E00E23EE220D2162
:10498000012032F07FFAB2488178B2483C3050F8CA
:104990002130AF480093837800220D21302032F07F
:1049A000FCFF00240AE0342101EB0411C8B200230B
:1049B000A9A2092132F090FA601CC4B2082CF2DBE3
:1049C000052035F003FC94E782E745E738B532F07F
:1049D0001FFA0F23EF220021084633F07AF9032350
:1049E000EF220021084633F074F94CE00E23EE224A
:1049F0000421012032F046FA95488078984951F810
:104A0000203093480093837800220121082032F05F
:104A1000C4FF8F4881789248143050F821308C4878
:104A200000938378002207213C2032F0B6FF8848AB
:104A300081788B48283050F821308548009383785E
:104A400000220B21282032F0A8FF81488178844879
:104A50003C3050F821307E480093837800220B21AF
:104A60008C2032F09AFF0DE033F067FB0446432CB4
:104A700001D1002038BD452C01D10120FAE70A20E0
:104A800035F0A4FBF0E7B1E770B50026704890F868
:104A90002200022873D17348406F7249B1F8C010E8
:104AA000484370498A6FB1F8C21002FB01016D489A
:104AB000C26FB0F8C40002FB00116A48D0F8802031
:104AC000B0F8C60002FB00116648D0F88420B0F8A8
:104AD000C80002FB00116348D0F88820B0F8CA0073
:104AE00002FB00115F48D0F88C20B0F8CC0002FB2C
:104AF00000115C48D0F89020B0F8CE0002FB001105
:104B00005848D0F89420B0F8D00002FB0011554866
:104B1000D0F89820B0F8D20002FB00115148D0F82C
:104B20009C20B0F8D40002FB00114E48D0F8A02021
:104B3000B0F8D60002FB00114A48D0F8A420B0F823
:104B4000D80002FB00114748D0F8A820B0F8DA00DE
:104B500002FB00114348D0F8AC20B0F8DC0002FBA7
:104B600000114048D0F8B020B0F8DE0002FB00157C
:104B7000374890F82500022812D100240EE018E0F2
:104B8000394850F8240038B1374850F824101C3008
:104B900030F8140001FB0055601CC4B2072CEFDB99
:104BA0002B48D0F8C000A84201D901260FE000260A
:104BB0000DE0274890F82200012803D112F0B4FA42
:104BC000064604E0224890F8220000B9002630464C
:104BD00070BD70B5044600251D4890F82F000228CE
:104BE00017D1012C0BD112F0B4F9054612F0B1F92E
:104BF0000646024629461DA013F0B6F909E0022C2C
:104C000007D1204890F8BC5090F8BC101EA013F0BB
:104C1000ABF9284670BD0146012902D0022949D1CD
:104C200042E00B4880781F4A52F82000704700008D
:104C30003833373138353537456E74657253656CA6
:104C400066436865636B46756374696F6E0D0A0031
:104C5000CC060010B80B04005F0000002A00000022
:104C6000080C040018080010240900100D0A204147
:104C700070702050434572726F725363616C653D72
:104C800025640000640900100D0A20417070205056
:104C9000434572726F724F66664C696E653D25645E
:104CA000000000007C150400FF488278FF4850F89F
:104CB00022007047FC488278FC48143050F82200EB
:104CC000F7E700B58BB000200A900320099032F07E
:104CD0009FF80F23EF220021084632F0FAFF03234A
:104CE000EF220021084632F0F4FFE5E30E23EE2226
:104CF0000421012032F0C6F8032009900A980A28FE
:104D00007ED2DFE800F005D5FEFDFCFBFAF9F8F7EE
:104D10000123E5488178E64850F82120E5A1E248E2
:104D20008DE80E00807803460022012107900820BC
:104D300032F033FEDC4890F8230002287ED1DF48B1
:104D40008078A0B1D8488178D948143050F8213003
:104D5000D5480093807807900998801CC0B20990CC
:104D60000690002201460520079B32F016FED3482C
:104D7000C078A0B1CC488178CD48283050F8213097
:104D8000C9480093807807900998801CC0B20990A8
:104D90000690002201460520079B32F0FEFDC74821
:104DA0000079A0B1C0488178C1483C3050F821302A
:104DB000BD480093807807900998801CC0B2099084
:104DC0000690002201460520079B32F0E6FDBB4815
:104DD0004079A0B1B4488178B548503050F82130BE
:104DE000B1480093807807900998801CC0B2099060
:104DF0000690002201460520079B32F0CEFD00E020
:104E0000A4E2AE488079A0B1A7488178A848643070
:104E100050F82130A4480093807807900998801CAE
:104E2000C0B209900690002201460520079B32F08F
:104E3000B4FDA248807808B9A04800E019E0C07825
:104E4000B8B99E480079A0B99C48407988B99B4878
:104E5000807970B994488178994850F82130924807
:104E6000009380780346002207210790052032F046
:104E700094FD8D4880788E49283951F8200006909D
:104E80003AF0FEF9C000C0F1E700C0B207908648D2
:104E900081788748283850F82130834800938078FB
:104EA000034600220D210690079832F076FD4DE270
:104EB00002237D4881787E4850F821207DA17A48E0
:104EC0008DE80E008078034600220121079008201B
:104ED00032F063FD744890F8230002287ED17748B1
:104EE000C079E8B1704881787148783050F8213045
:104EF0006D4807E0FEE3FEE3FEE3ABE3FAE226E201
:104F00006DE191E00093807807900998801CC0B211
:104F100009900690002201460520079B32F03DFDD6
:104F20006648007AA0B16048817861488C3050F8BA
:104F300021305D480093807807900998801CC0B2AA
:104F400009900690002201460520079B32F025FDBE
:104F50005A48407AA0B1544881785548A03050F85A
:104F6000213051480093807807900998801CC0B286
:104F700009900690002201460520079B32F00DFDA6
:104F8000FFF782FDA0B1484881784948B43050F815
:104F9000213045480093807807900998801CC0B262
:104FA00009900690002201460520079B32F0F5FC8F
:104FB0004248C07990B94148007A78B93F48407A70
:104FC00060B9FFF761FD48B9374881783C4850F82F
:104FD0002130354800938078034600E005E0002248
:104FE00007210790052032F0D8FC2F4881783048FF
:104FF000143850F8210006903AF042F9C000C0F190
:10500000E700C0B20790284881782948143850F842
:105010002130254800938078034600220D21069018
:10502000079832F0BAFC91E101231F4881782048AB
:10503000C83050F821201FA11B488DE80E00807851
:105040000346002201210790082032F0A6FC1648F2
:1050500090F8210002287ED11848807AA0B1124829
:1050600081781348DC3050F821300F480093807865
:1050700007900998801CC0B2099006900022014652
:105080000520079B32F089FC0C48C07A18B306480B
:1050900081780748F03050F8213003480093807839
:1050A00007900998801C0DE0CC06001090150400B4
:1050B000200D040025732D256400000058480010C1
:1050C000B8100400C0B209900690002201460520E5
:1050D000079B32F062FCF948007B98B1F848817870
:1050E000F84850F82130F6480093807807900998E6
:1050F000801CC0B209900690002201460520079B43
:1051000032F04BFCED48407BA0B1ED488178ED4892
:10511000143050F82130EA480093807807900998BD
:10512000801CC0B209900690002201460520079B12
:1051300032F033FCE148807BB0B1E1488178E1484E
:10514000283050F82130DE48009380780790099885
:10515000801CC0B200E025E00990069000220146C4
:105160000520079B32F019FCD448807AD0B9D34887
:10517000C07AB8B9D148007BA0B9D048407B88B983
:10518000CE48807B70B9CE488178CF4850F8213026
:10519000CB48009380780346002207210790052022
:1051A00032F0FBFBC6488178C84850F821000690D1
:1051B0003AF066F8C000C0F1E700C0B20790C048FE
:1051C0008178C24850F82130BD480093807803466A
:1051D00000220D210690079832F0DFFBB6E0022393
:1051E000B7488178B7483C3850F82120AFF23C11DD
:1051F000B3488DE80E008078034600220121079015
:10520000082032F0CAFBAE4890F8210002287ED177
:10521000AA48C07BA0B1AA488178AA483C3050F87F
:105220002130A7480093807807900998801CC0B26D
:1052300009900690002201460520079B32F0ADFB45
:105240009E48007CA0B19E4881789E48503050F81E
:1052500021309B480093807807900998801CC0B249
:1052600009900690002201460520079B32F095FB2D
:105270009248407CA0B1924881789248643050F8BE
:1052800021308F480093807807900998801CC0B225
:1052900009900690002201460520079B32F07DFB15
:1052A0008648807CC8B18548C37C827C84488178EC
:1052B0008448783050F8211085A08DE80F00804890
:1052C000807807900998801CC0B20990069000224F
:1052D00001460520079B32F060FB7848C07BB0B9DF
:1052E0007648007C98B97548407C80B97348807CCA
:1052F00068B973488178744850F821307048009339
:1053000080780346002207210790052000E001E095
:1053100032F043FB6A4881786C4850F821000690CF
:1053200039F0AEFFC000C0F1E700C0B2079064489A
:105330008178664850F821306148009380780346B0
:1053400000220D210690079832F027FB51E25C48BD
:1053500081785C488C3050F821305948009380782F
:105360000346002201210790082032F016FB544822
:1053700090F8220001287ED15048007DF8B14F48B6
:10538000007D0690FFF747FC07905648C37D4C48C8
:1053900081784C48A03050F8211053A0079A8DE82E
:1053A0000F004748807806900998801CC0B2099089
:1053B0000590002201460520069B32F0EEFA3F4898
:1053C000407DF8B13D48407D0690FFF724FC0790F2
:1053D0004448037E3A4881783A48B43050F8211066
:1053E00041A0079A8DE80F0035488078069009980B
:1053F000801CC0B209900590002201460520069B42
:1054000032F0CBFA2D48807DF8B12C48807D069093
:10541000FFF701FC07903348437E294881782948EB
:10542000C83050F8211030A0079A8DE80F002448AA
:10543000807806900998801CC0B2099005900022DF
:1054400001460520069B32F0A8FA1C48007D90B961
:105450001A48407D78B91948807D60B9184881782C
:10546000194850F8213016480093807803460022EE
:105470000721079000E002E0052032F08EFA104884
:105480008178124850F82100069039F0F9FEC000EA
:10549000C0F1E700C0B20790094881780B4850F886
:1054A0002130074800938078034600220D210690A2
:1054B000079832F072FAB1E3D5E3000058480010C3
:1054C000CC060010240E0400B81004000C0D0400DB
:1054D00025735B25233032785D5B25233032785D80
:1054E000000000002C480010257325735B25233035
:1054F00032785D000123FF488178FF4850F8212071
:10550000AFF25041FB488DE80E0080780346002240
:1055100001210790082032F040FAF64890F82D005B
:1055200001282FD1F548807EA0B1F2488178F24859
:10553000143050F82130EF48009380780790099894
:10554000801CC0B209900690002201460520079BEE
:1055500032F023FAE948C07EA0B1E6488178E648F7
:10556000283050F82130E34800938078079009985C
:10557000801CC0B209900690002201460520079BBE
:1055800032F00BFADD48007FA0B1DA488178DA48C2
:105590003C3050F82130D748009380780790099824
:1055A000801CC0B209900690002201460520079B8E
:1055B00032F0F3F9D148407FA0B1CE488178CE488F
:1055C000503050F82130CB480093807807900998EC
:1055D000801CC0B209900690002201460520079B5E
:1055E00032F0DBF9C548807EB8B9C448C07EA0B9A6
:1055F000C248007F88B9C148407F70B9BD488178F2
:10560000BF4850F82130BB48009380780346002201
:1056100007210790052032F0C0F9B6488178B948D3
:1056200050F82100069039F02BFEC000C0F1E700D1
:10563000C0B20790AF488178B24850F82130AD48E9
:1056400000938078034600220D210690079832F0DF
:10565000A4F9E3E20223A7488178A74850F8212063
:10566000AFF2B051A3488DE80E00807803460022C7
:1056700001210790082032F090F9A048807FA0B166
:105680009C4881789C48643050F8213099480093B8
:10569000807807900998801CC0B20990069000227B
:1056A00001460520079B32F078F99448C07FA0B1ED
:1056B000904881789048783050F821308D48009398
:1056C000807807900998801CC0B20990069000224B
:1056D00001460520079B32F060F9884890F82000C9
:1056E000C0B18448817884488C3050F8213081489A
:1056F000009302E011E258E17CE08078079009987D
:10570000801CC0B209900690002201460520079B2C
:1057100032F043F9794890F82100A0B175488178BA
:105720007548A03050F82130724800938078079077
:105730000998801CC0B209900690002201460520FD
:10574000079B32F02AF96D4890F82200A0B1694811
:1057500081786948B43050F82130664800938078E9
:1057600007900998801CC0B209900690002201465B
:105770000520079B32F011F96048807FE8B95F4847
:10578000C07FD0B95D4890F82000B0B95B4890F870
:10579000210090B9594890F8220070B95548817895
:1057A000574850F821305348009380780346002230
:1057B00007210790052032F0F0F84E4881785148D3
:1057C00050F82100069039F05BFDC000C0F1E70001
:1057D000C0B20790474881784A4850F82130454880
:1057E00000938078034600220D210690079832F03E
:1057F000D4F813E203233F4881783F4850F8212032
:10580000AFF250713B488DE80E00807803460022CD
:1058100001210790082032F0C0F8384890F82300A2
:10582000A0B1344881783448C83050F8213031482C
:105830000093807807900998801CC0B20990069068
:10584000002201460520079B32F0A7F82B4890F86C
:105850002400A0B1274881782748DC3050F8213057
:1058600024480093807807900998801CC0B2099062
:105870000690002201460520079B32F08EF81F4853
:1058800090F82500A0B11B4881781D48C83850F811
:10589000213018480093807807900998801CC0B286
:1058A00009900690002201460520079B32F075F80A
:1058B000124890F82600A0B10E4881781048B438FC
:1058C00050F821300B480093807807900998801C8D
:1058D000C0B209900690002201460520079B32F0D5
:1058E0005CF8064890F82700F8B10248817804482F
:1058F000A03809E0CC060010000F04005848001042
:10590000B81004000C0D040050F82130FF4800933B
:10591000807807900998801CC0B2099006900022F8
:1059200001460520079B32F038F8F94890F823002B
:10593000F0B9F74890F82400D0B9F54890F8250060
:10594000B0B9F34890F8260090B9F14890F82700D4
:1059500070B9EE488178EF4850F82130EB48009359
:1059600080780346002207210790052032F015F8C1
:10597000E6488178E84850F82100069039F080FC2C
:10598000C000C0F1E700C0B20790E0488178E2486B
:1059900050F82130DD4800938078034600220D2125
:1059A0000690079831F0F9FF38E10423D748817851
:1059B000DA4850F82120AFF60411D4488DE80E00E3
:1059C00080780346002201210790082031F0E5FF8E
:1059D000CF4890F82800A0B1CC488178CD488C38C9
:1059E00050F82130C9480093807807900998801CAE
:1059F000C0B209900690002201460520079B31F0B5
:105A0000CCFFC34890F82900A0B1C0488178C148B4
:105A1000783850F82130BD48009380780790099875
:105A2000801CC0B209900690002201460520079B09
:105A300031F0B3FFB64890F82A00A0B1B34881789E
:105A4000B448643850F82130B0480093807807900B
:105A50000998801CC0B209900690002201460520DA
:105A6000079B31F09AFFAA4890F82B00A0B1A748F5
:105A70008178A848503850F82130A44800938078A5
:105A800007900998801CC0B2099006900022014638
:105A90000520079B31F081FF9D4890F82800F8B958
:105AA0009B4890F82900D8B9994890F82A00B8B9CD
:105AB000974890F82B0098B994488178954850F809
:105AC000213092480093807807900998801CC0B2DA
:105AD00009900690002201460520079B31F05DFFEA
